:200000000C94D5000C94FD000C94FD000C94FD000C94FD000C94FD000C94FD000C94FD0020
:200020000C94FD000C94FD000C94C8120C9437130C94FD000C94FD000C94FD000C94FD00AE
:200040000C94FD000C94FD000C94FD000C94FD000C94FD000C94FD000C94FD000C947E1225
:200060000C94FD000C94FD000C94FD000C94FD000C94FD000C94FD000C94FD000C94FD0098
:200080000C94FD000C94FD000C94FD000C94FD000C94FD000C94FD000C94FD000C94FD0078
:2000A0000C94FD000C94FD000C94FD00080B00020202000009040000010202000005240015
:2000C000100105240101010424020605240600010705810310004009040100020A00000089
:2000E00007050202400000070583024000000403090412010002EF0201404F1B0692000181
:2001000001020301537061726B46756E00537061726B46756E2050726F204D6963726F0019
:200120000000000200090F0000030401000C00000000000000000000000000000000000091
:200140000000250028002B002E00310000000000240027002A002D003000040404040403DF
:20016000040502020202040302020202060606060606040402020204040408020110408046
:200180004010204080408008020401804020100201108010204040207C3C3E5E2B3D3F2FE3
:2001A0005B5D3B2C2A225C00691511241FBECFEFDAE0DEBFCDBF24E0A8EBB1E001C01D92AF
:2001C000AF39B207E1F711E0A0E0B1E0E2EAFAE302C005900D92A83BB107D9F710E0C5EDF8
:2001E000D0E004C02197FE010E94221BC43DD107C9F70E94A8150C944F1D0C94000090E0E1
:20020000FC01E758FE4F2491865A9E4FFC018491882399F090E0880F991FFC01E45BFE4F45
:20022000A591B491FC01E25CFE4F859194918FB7F894EC91E22BEC938FBF0895FC018091AC
:20024000E101882311F13FB7F89482E08093E9002091F200822F90E01816190614F481E0B5
:2002600090E0882339F0289844E64093E0014091F1004083222339F02091F200211103C011
:200280002BE62093E8003FBF08958FEF9FEF08952FB7F89483E08093E9009091E800892FDC
:2002A000807295FF04C09091F20080E4891B2FBF08958091D80181110DC082E08093D401BB
:2002C00084E08093D5011092D7011092D60181E08093D80184ED91E00895282F30E0F901B1
:2002E000E05EFE4F9491F901E758FE4F8491265A3E4FF9012491222309F430C09923E9F030
:2003000091509F30D0F4E92FF0E0E757FE4F0C94221BB701BB019801AF01B3019D019D016C
:200320009D01BE01C401C801CC01D2019D01D601909180009F7790938000E22FF0E0EE0F85
:20034000FF1FE25CFE4FA591B4919FB7F894EC91611132C080958E238C939FBF08959091B5
:2003600080009F7DE8CF90918000977FE4CF94B59F7794BDE2CF94B59F7DFBCF909190007F
:200380009F7790939000D9CF909190009F7DF9CF90919000977FF5CF9091C0009F779093B2
:2003A000C000CBCF9091C0009F7DF9CF9091C200977F9093C200C1CF8E2BCECF3FB7F894D8
:2003C0008091D0019091D101A091D201B091D30126B5A89B05C02F3F19F00196A11DB11DB2
:2003E0003FBFBA2FA92F982F8827BC01CD01620F711D811D911D42E0660F771F881F991F66
:200400004A95D1F708958F929F92AF92BF92CF92DF92EF92FF926B017C010E94DE014B011A
:200420005C01C114D104E104F104B9F00E94DE01681979098A099B09683E73408105910502
:2004400080F321E0C21AD108E108F10888EE880E83E0981EA11CB11CE4CFFF90EF90DF90B2
:20046000CF90BF90AF909F908F9008952FB7F8946091CC017091CD018091CE019091CF01D4
:200480002FBF089508954091C0015091C1012091BE013091BF0142175307B4F49091E800AA
:2004A0009570E1F39091E80092FD19C08093F1008091C0019091C10101968F739927892B2C
:2004C00019F48EEF8093E8008091C0019091C10101969093C1018093C00181E0089580E034
:2004E0000895EF92FF920F931F93CF93DF93F82E192FE62E042F81E0860F880F0E944302FC
:2005000083E00E944302CF2DD12FEC0EFD2EF11CCE15DF05B9F007FF13C0FE0184910E9464
:200520004302182F80E00E944302812321968111EFCFDF91CF911F910F91FF90EF90089572
:200540008881EDCF81E0F5CFDF92EF92FF920F931F93CF93DF93D82E8A01EB017B01E40E1B
:20056000F51ECE15DF0559F0D7FE12C0FE0184910E94430221968111F4CF0FEF1FEFC801D5
:20058000DF91CF911F910F91FF90EF90DF9008958881EECF0F931F93CF93DF931F92CDB7FE
:2005A000DEB782E0898342E450E06CEA70E080E80E94A4020E945901DC0112960D911C91C0
:2005C0000115110589F0D801ED91FC910280F381E02DBE016F5F7F4FC801099597FD04C075
:2005E000F80100851185ECCF89810F90DF91CF911F910F910895615030F02091F100FC0156
:2006000020830196F8CF289884E68093E0010895AF92BF92CF92DF92EF92FF920F931F9354
:20062000CF93DF936C017B018B01040F151FEB015E01AE18BF08C017D10759F06991D60189
:20064000ED91FC910190F081E02DC6010995892B79F7C501DF91CF911F910F91FF90EF9003
:20066000DF90CF90BF90AF9008958F929F92AF92BF92CF92DF92EF92FF920F931F93CF9303
:20068000DF936C017B018A0180910B01882309F45CC08091E101882309F457C08091C4010B
:2006A00080FF05C08091E00082608093E000E801B12C8AEFA82E93E0892E2AE3922E20976D
:2006C00011F4BB20D9F10E94480181110AC0AA94AA20D9F161E070E080E090E00E9403024F
:2006E000EECF8C171D0611F00CF08C2F9FB7F8948092E9002091E80025FD02C09FBFDFCF59
:20070000282F30E0C21BD30BF701815020F041914093F100FACFE20EF31EBB2021F0909270
:20072000E800B12CEBCF8091E80085FDE7CF9092E800BB24B394209709F3F3CF5D9884E605
:200740008093C301101611063CF081E090E0F6019383828310E000E0C801DF91CF911F915D
:200760000F91FF90EF90DF90CF90BF90AF909F908F900895CF93DF931F92CDB7DEB76983FA
:20078000DC01ED91FC910280F381E02D41E050E0BE016F5F7F4F09950F90DF91CF91089518
:2007A00083E08093E9008091F200882319F08AE38093E80008950E94480190E00895CF93C4
:2007C000DF931F92CDB7DEB7FC018485958597FD08C02FEF3FEF358724870F90DF91CF913F
:2007E0000895CE0101960E941E01019719F4898190E0F3CF8FEF9FEFF0CF0F931F93CF93D3
:20080000DF931F92CDB7DEB78C01FC018485958597FF0BC0CE0101960E941E01019771F46A
:20082000898190E0F80195878487F801848595850F90DF91CF911F910F9108958FEF9FEF9A
:20084000F1CFFC018485958597FD0BC09FB7F89482E08093E9008091F2009FBF90E00196B1
:2008600008959FB7F89482E08093E9008091F2009FBF90E008958FB7F8948091B9018FBF42
:20088000089561E0FC0184810E946D018091B80181111092B80108958EBD00000DB407FE03
:2008A000FDCF8EB508958FEF0C944C040F931F93CF93DF93EC010E9436028B010E945304AA
:2008C0008F3F69F00E943602601B710B6C177D07A8F380E0DF91CF911F910F91089581E000
:2008E000F9CF8CBD9DBD0895CF93DF93EC018091B801811109C081E08093B8018091350493
:20090000909136040E94710460E08C81DF91CF910C946D018F929F92AF92BF92FF920F9323
:200920001F93CF93DF93EC01F62E49015A018E81882389F08F8198859C012F5F3F4F3887A3
:200940002F838230924018F40E945304F3CFCE010E9441041E82CE010E9474048CE291E07C
:200960000E9456048F2D80640E944C0408E110E0D501C401002E04C0B695A79597958795B4
:200980000A94D2F70E944C0408501109083F8FEF180771F785E9FF2021F028E087E8F21227
:2009A0008FEF0E944C0410E00E9453048A8787FF04C01F3F11F01F5FF7CFDF91CF911F9160
:2009C0000F91FF90BF90AF909F908F900895AF92BF92CF92DF92EF92FF920F931F93CF9343
:2009E000DF93EC016901C801820F931F8130924050F58E81882379F088819981AA81BB81AD
:200A000084179507A607B70731F48F819885C816D90608F042C0488359836A837B838B8589
:200A2000833039F089E0440F551F661F771F8A95D1F79A01AB0161E1CE010E948A04882375
:200A400089F083E08D83CE010E94410480E0DF91CF911F910F91FF90EF90DF90CF90BF9049
:200A6000AF9008950E9436025B010E9453048A878F3F69F40E9436026A197B096D327140FE
:200A8000A0F38FE08D83CE010E944104DCCF8E3F89F418861F8281E08E838F8198858C151A
:200AA0009D0550F40E9453048F819885019698878F83F3CF8DE0E6CF6701E00EF11E0E9477
:200AC0005304F60181936F01EE15FF05C1F78F819885080F191F18870F838985882319F016
:200AE00001151240A0F08E81882389F08F8198859C012F5F3F4F38872F838230924018F4E4
:200B00000E945304F3CFCE010E9441041E8281E09ECFCF92DF92EF92FF920F93CF93DF939C
:200B2000EC01690182E1411551056105710599F08B85833039F089E0440F551F661F771FB3
:200B40008A95D1F79A01AB0168E1CE010E948A04882319F084E08D832DC08EEF0E944C049B
:200B600076018EEFD81AF70181917F010E944C04EC14FD04C1F78FEF0E944C048FEF0E94CA
:200B80004C040E9453048A878F71853071F4011116C0CE010E94410481E0DF91CF910F9172
:200BA000FF90EF90DF90CF90089581E18D83CE010E944104CE010E94410480E0EECF88E554
:200BC00092E00E945604811102C085E1C4CF20E030E0A9016DE0CE010E948A04882311F0A8
:200BE00084E1B9CF0E9453048111FACFD2CF0F934091BA015091BB016091BC017091BD01DB
:200C0000411551056105710599F0082F25EE31E08091E2019091E3010E948905882349F05B
:200C20001092BA011092BB011092BC011092BD0181E00F9108950F93CF93C82F8091E401AB
:200C4000811105C0C1E08C2FCF910F91089540910C0150910D0160910E0170910F010C2F2B
:200C600025EE31E08091E2019091E3010E948905811102C0C0E0E7CFCC2321F381E00E9477
:200C8000F7058823B9F31092E401DDCF8F929F92AF92BF92EF92FF920F931F93CF934B01D6
:200CA0005C01C42F80910C0190910D01A0910E01B0910F0188159905AA05BB0551F181E0B9
:200CC0000E941B0681110BC080E0CF911F910F91FF90EF90BF90AF909F908F90089585EEEA
:200CE000E82E81E0F82E00E012E030E020E0B501A4018091E2019091E3010E94E7048823E9
:200D000019F380920C0190920D01A0920E01B0920F014091E4014C2B4093E40181E0D5CFFB
:200D20008F929F92AF92BF92CF92DF92EF92FF92CF9327E334E03093E3012093E201882383
:200D400009F46DC040E060E070E0CB010E94460681110BC080E0CF91FF90EF90DF90CF9006
:200D6000BF90AF909F908F9008958091A3038F7789F78091AF039091B003A091B103B09100
:200D8000B20384369105A105B10520F3C090AB03D090AC03E090AD03F090AE03C114D104D7
:200DA000E104F104B9F240E0C701B6010E944606882381F28091F0019091F1018115924086
:200DC00049F6A091F501AA2329F26091F3017091F4016115710509F4BDCF2091F20122238C
:200DE00009F4B8CFA09355042093470490E080E030E0E1E0F0E0C82FAF01082E02C0440F82
:200E0000551F0A94E2F72417350769F041E0480F01968930910579F7409350049BCFC12CCB
:200E2000D12C7601C0CF809350042091FB013091FC0150E040E02115310541F42091090230
:200E400030910A0240910B0250910C02209348043093490440934A0450934B0446015701F7
:200E6000860E971EA11CB11C8092560490925704A0925804B0925904E091F601F091F701A8
:200E8000F0935C04E0935B04B0E00E94AF1ADC01CB01880D991DAA1DBB1D80935D04909378
:200EA0005E04A0935F04B093600425E0EE0FFF1F2A95E1F7E150FE4FEF2FFF27E6958E0F02
:200EC0009F1FA11DB11D8093510490935204A0935304B09354048090F8019090F901B12CC2
:200EE000A12C8114910441F48090050290900602A0900702B0900802C81AD90AEA0AFB0A46
:200F0000C80CD91CEA1CFB1C04C0F694E794D794C794CA95D2F7C0924C04D0924D04E0926D
:200F20004E04F0924F0485EFC8168FE0D806E104F10428F48CE080935A0481E00CCF80E17B
:200F400025EFC2162FEFD206E104F104A0F38091110290911202A0911302B0911402809339
:200F60005D0490935E04A0935F04B093600480E2E2CF4F925F926F927F928F929F92AF92C4
:200F8000BF92CF92DF92EF92FF920F931F93CF93DF93EC01423051056105710590F480E07F
:200FA000DF91CF911F910F91FF90EF90DF90CF90BF90AF909F908F907F906F905F904F907D
:200FC000089589859A85AB85BC850196A11DB11D84179507A607B70710F3CB88DC88ED88E2
:200FE000FE888F89803109F042C0BB27A72F962F852F480159012A013B01C80ED91EEA1E97
:20100000FB1E80910C0190910D01A0910E01B0910F01C816D906EA06FB0699F58F898031D4
:20102000C1F5B301A201552766277727440F551F4B515E4FFA01918280828091E401816005
:201040008093E4018A89823080F08D819E81AF81B8858C0D9D1DAE1DBF1D8093BA019093DE
:20106000BB01A093BC01B093BD0181E099CFDB01CA01E7E0B695A79597958795EA95D1F776
:20108000B8CF40E0C701B6010E9446068111C6CF86CFB301A2014F77552766277727440FA9
:2010A000551F440F551F4B515E4FFA0180829182A282B382C2CF8F929F92AF92BF92CF926D
:2010C000DF92EF92FF920F931F93CF93DF93FC0181859285A385B4850196A11DB11D84172C
:2010E0009507A607B70770F480E0DF91CF911F910F91FF90EF90DF90CF90BF90AF909F906C
:201100008F90089583889488A588B6888789803189F5BB27A72F962F852FE9016A017B0140
:201120008F01BC01CD01680D791D8A1D9B1D80900C0190900D01A0900E01B0900F018616B4
:201140009706A806B90601F5F8018789803111F5DD24EE24FF24F601EE0FFF1FEB51FE4FFE
:2011600080819181B0E0A0E088839983AA83BB8381E0BBCFDB01CA01C7E0B695A7959795CE
:201180008795CA95D1F7C9CF40E00E9446068111DBCFAACFE894C7F8DD24EE24FF24F60149
:2011A000EE0FFF1FEE0FFF1FEB51FE4F80819181A281B381BF70D8CF4F925F926F927F924C
:2011C000AF92BF92CF92DF92EF92FF920F931F93CF93DF9300D000D0CDB7DEB78C0149835F
:2011E0005A836B837C835901C12CD12C7601412C82E0582E612C712C49815A816B817C815D
:201200009E012F5F3F4FC8010E945B08882339F1F8018585A301920104C0220F331F441F8C
:20122000551F8A95D2F7DA01C901C80ED91EEA1EFB1E49815A816B817C818789803111F16E
:2012400088EF9FEFAFEFBFE0481759076A077B0798F2F501C082D182E282F38281E00F90AC
:201260000F900F900F90DF91CF911F910F91FF90EF90DF90CF90BF90AF907F906F905F900A
:201280004F90089588EF9FEFA0E0B0E0DDCFCF93DF93FC012581222321F080E0DF91CF9114
:2012A0000895EC0180915A04803159F582E08583178A108E118E128E80915B0490915C045D
:2012C000B0E0A0E025E0880F991FAA1FBB1F2A95D1F7838B948BA58BB68B83E494E09C8FDC
:2012E0008B8F81E08C831E821F82188619861A861B861C861D861E861F86188A198A1A8A2E
:20130000CDCF803251F683E0858340915D0450915E0460915F0470916004478B508F618FFE
:20132000728F9F012D5E3F4F83E494E00E94DC088111D3CFB2CF8F929F92AF92BF92CF9298
:20134000DF92EF92FF920F931F93CF93DF93EC018D8181110EC080E0DF91CF911F910F9107
:20136000FF90EF90DF90CF90BF90AF909F908F9008950B891C892D893E89041715072607FE
:20138000370748F34A015B01823031F48A869B86AC86BD8681E0E0CF81149104A104B1041C
:2013A00049F41E821F82188619861A861B861C861D86F0CF0A851B852C853D85EB8DFC8D8A
:2013C000858590E00996B901A8014150510961097109082E04C076956795579547950A945B
:2013E000D2F775016401E1E0CE1AD108E108F10804C0F694E794D794C7948A95D2F7C41694
:20140000D506E606F70620F0012B022B032B11F58F89988DA98DBA8D8E839F83A887B9870F
:201420008E010A5F1F4FC114D104E104F10409F4ADCF4E815F816885798598018B8D9C8DD5
:201440000E945B0891E0C91AD108E108F1088111EACF81CFC41AD50AE60AF70AE1CF3F92AE
:201460004F925F926F927F928F929F92AF92BF92CF92DF92EF92FF920F931F93CF93DF9398
:20148000CDB7DEB72C970FB6F894DEBF0FBECDBF5C01DC015B968D909C905C9716964D9039
:2014A0005D906D907C901997411451046104710409F468C0BFEF4B1A5B0A6B0A7B0A312C0E
:2014C000F40181859285A385B4859C01AD012F5F3F4F4F4F5F4F29873A874B875C8773014C
:2014E00062011D821E821F821886F40181859285A385B4852D813E814F81588528173907FF
:201500004A075B0708F056C089859A85AB85BC858C159D05AE05BF0550F482E0C82ED12C19
:20152000E12CF12C92E0492E512C612C712C9E012F5F3F4FB701A601C4010E945B08882362
:20154000C9F189819A81AB81BC81892B8A2B8B2B09F1260137019FEF491A590A690A790A81
:201560002D813E814F8158852F5F3F4F4F4F5F4F2D833E834F8358873FEFC31AD30AE30AF2
:20158000F30AB3CFF40140805180628073803324339496CFC414D504E604F70409F70FEF5A
:2015A0001FEF2FEF3FE0B701A601C4010E94B907811119C080E02C960FB6F894DEBF0FBE12
:2015C000CDBFDF91CF911F910F91FF90EF90DF90CF90BF90AF909F908F907F906F905F90AA
:2015E0004F903F900895D50116964D915D916D917C911997411551056105710539F097014E
:201600008601C4010E94B9078823A1F2D5011696CD92DD92ED92FC921997332051F0D70165
:20162000C6010196A11DB11DF40180839183A283B383F5018789908DA18DB28D892B8A2B60
:201640008B2B39F48481C78AD08EE18EF28E80688483F50184818062848381E0ACCF2F9294
:201660003F924F925F926F927F928F929F92AF92BF92CF92DF92EF92FF920F931F93CF9337
:20168000DF93EC015B012A018D81811115C08FEF9FEFDF91CF911F910F91FF90EF90DF9046
:2016A000CF90BF90AF909F908F907F906F905F904F903F902F9008958C8180FFE8CF0B8911
:2016C0001C892D893E894A855B856C857D85C201B0E0A0E068017901C41AD50AE60AF70AE2
:2016E000C816D906EA06FB0618F42801441A550A42011E0126E0220E311C8114910409F43E
:20170000B3C04A855B856C857D856A0181E0D8228B8D9C8D8A019B01E9E03695279517958A
:201720000795EA95D1F7ED81E230E1F5FC01628D738D848D958D600F711F821F931F612C72
:2017400022E0722E6C187D088614970408F434012C8126FD04C06114F2E07F0671F4009122
:201760000C0110910D0120910E0130910F01061717072807390709F053C040E00E94460658
:20178000882309F484CFC6018B519E4FD5019C01260D371DFC012E173F0709F460C041914D
:2017A0004D93F9CFFC0174807A947022C114D10471F471100CC0452B462B472B39F58F89FB
:2017C000988DA98DBA8D8E839F83A887B987EB8DFC8D6E817F8188859985625071098109F4
:2017E0009109258504C0660F771F881F991F2A95D2F70685178520893189600F711F821FC5
:20180000931F670D711D811D911D99CF4E815F816885798591010E945B088111D8CF37CFF0
:20182000750183019601AB01BC018091E2019091E3010E94E704882309F429CFA60CB71C03
:201840008A859B85AC85BD85860D971DA11DB11D8A879B87AC87BD87861897084ECF281BCC
:20186000390BA20EB31EECCFC20113CF1F93CF93DF93FC0125812223D1F1162FEC018481DC
:2018800087FF2AC0668577858089918941E00E944606882361F1EA8980E2E89FF001112440
:2018A000EB51FE4F309719F18D81823040F48B899C89AD89BE89848F958FA68FB78F8F895A
:2018C000988D938F828F8F89988DA98DBA8DB58BA48B8C818F778C83111103C08C818F7E66
:2018E0008C83812FDF91CF911F910C941B0680E0DF91CF911F910895FF920F931F93CF9324
:20190000DF93EC018D81813041F090E080E0DF91CF911F910F91FF9008958C8181FFF5CF0B
:2019200082FD1BC00091E2011091E301C8010E9474040E945304F82EC8010E9441048FEF24
:20194000F812E3CF8C8185FF1BC060E0CE010E94360C8C818F7D8C83D8CF4B895C896D89EE
:201960007E898A859B85AC85BD8584179507A607B707C1F2CE010E949B098111D3CFC5CF8C
:201980004091BA015091BB016091BC017091BD01452B462B472B21F080E00E94F705B5CFCB
:2019A00080618C832A853B85317080E092E0821B930BADCFCF93DF93EC0161E00E94360CB8
:2019C000882311F01D8281E0DF91CF9108952F923F924F925F926F927F928F929F92AF92E5
:2019E000BF92CF92DF92EF92FF920F931F93CF93DF9300D000D01F92CDB7DEB77C015B0147
:201A0000342E5D83DC0115968C911597813009F0CEC014962C9021FECAC022FCB4C0C32C6B
:201A2000DD8022947FE027222094B22DB1702B2ED7011A964D915D916D917C911D97C114F6
:201A4000D10409F428C15B968D919C915C97FC0174807A948A019B0169E0369527951795FA
:201A600007956A95D1F770228A011170711020C001151105E9F416964D915D916D917C9178
:201A80001997411551056105710509F099C057968D919D910D90BC91A02D0097A105B105D9
:201AA00009F0B0C0C7010E942F0A882309F47FC080E092E0801B910B46018C159D0508F4A4
:201AC0004C01D7015B964D915C915C9716968D919D910D90BC91A02D0297A109B109FA018B
:201AE000258504C0880F991FAA1FBB1F2A95D2F74685578560897189840F951FA61FB71F92
:201B00009C01AD01270D311D411D511D29013A01811432E0930609F07BC080910C01909114
:201B20000D01A0910E01B0910F0184159505A605B70559F48FEF9FEFDC0180930C019093F3
:201B40000D01A0930E01B0930F01022D9501B301A2018091E2019091E3010E9489058823F2
:201B600031F19EEFB91AC818D908F70182859385A485B585880D991DA11DB11D82879387AE
:201B8000A487B58755CFF701438954896589768982859385A485B585481759076A077B07F8
:201BA00009F43DCFC7010E949B09811138CF81E090E0D70113969C938E93129780E007C003
:201BC0009E012F5F3F4F0E945B08811102C090E079C089819A81AB81BC81F701238D348D51
:201BE000F901278948EF5FEF60E070E0203121F048EF5FEF6FEF7FE084179507A607B707E0
:201C000008F050CFF70186839783A087B18750CF0115110599F5D7011A964D915D916D9108
:201C20007C911D9753968D919D910D90BC91A02D481759076A077B0708F181E00E941B0628
:201C4000882309F4B4CF40920C0150920D0160920E0170920F018091E40181608093E401A8
:201C6000C8018B519E4FD5019C01280D391DFC012E173F0759F04D914193FACF41E0C301A3
:201C8000B2010E9446068111EBCF91CF281B390BA20EB31E68CFF70183899489A589B6892A
:201CA00084179507A607B70738F48481438B548B658B768B80688483F701848183FD1AC06D
:201CC000832D9D810F900F900F900F900F90DF91CF911F910F91FF90EF90DF90CF90BF90D0
:201CE000AF909F908F907F906F905F904F903F902F90089561E0C7010E94360C882309F4BB
:201D000056CFDECFCF93DF931F92CDB7DEB7698341E050E0BE016F5F7F4F0E94E70C0F9087
:201D2000DF91CF910895DC015996ED91FC91309759F08581823040F0168217821086118609
:201D400012861386148615860895FC01DB0112968D919C9113979383828383E391E0918304
:201D6000808314968C911497848315968C911597858316964D915D916D917C91199746836F
:201D80005783608771871A964D915D916D917C911D9742875387648775871E964D915D9145
:201DA0006D917C91519746875787608B718B52968C915297828B53964D915D916D917C91E3
:201DC0005697438B548B658B768B57964D915D916D917C915A97478B508F618F728F5B9630
:201DE0008D919C91948F838F0895FC01818D928D009719F061E00C94360C0895DC01599670
:201E0000ED91FC913097B9F083899489A589B6894285538564857585841B950BA60BB70B7D
:201E2000811520E89207A105B10538F08FEF9FE7A0E0B0E0089590E080E00895DC015996FD
:201E40008D919C91009739F0DC01ED91FC910480F581E02D099490E080E00895CF93DF93AA
:201E6000EC01E98DFA8D309749F481E090E09B838A8390E080E0DF91CF9108951382128212
:201E8000898D9A8D0E94E70CE98DFA8D22813381232B59F7F0CFCF93DF931F92CDB7DEB721
:201EA0006983DC01ED91FC910280F381E02D41E050E0BE016F5F7F4F09950F90DF91CF9192
:201EC0000895CF93DF931F92CDB7DEB741E050E0BE016F5F7F4F0E942F0B019731F4898178
:201EE00090E00F90DF91CF9108958FEF9FEFF9CFFC01818D928D009711F00C94610F8FEF42
:201F00009FEF08950F931F93CF93DF93EC01898D9A8D10E000E0009799F00E94610F8C01B5
:201F20000F3F100769F0898D9A8DFC01428553856485758541505109610971090E949B0912
:201F4000C801DF91CF911F910F91089590E080E00895FC0101900020E9F73197AF01481B25
:201F6000590BBC0185EE93E00C943503CF93DF930E94A90FEC018DE491E00E94A90F8C0F90
:201F80009D1FDF91CF9108950F931F93CF93DF93EC0180E2689FF0011124EB51FE4F6A8BF6
:201FA00080910C0190910D01A0910E01B0910F018E879F87A88BB98B0489158930E020E056
:201FC0009801112700270F8B188F298F3A8F828D938DB0E0A0E0AC01BD01402B512B622B29
:201FE000732B4F8B588F698F7A8F83858871A9F4848D958DA68DB78D8B8B9C8BAD8BBE8B7B
:2020000081E08D8381E08C831E821F82188619861A861B861C861D8603C0803131F080E0E6
:20202000DF91CF911F910F9108959E012D5E3F4F8B8D9C8D0E94DC08882389F384E0E1CF29
:20204000AF92BF92CF92DF92EF92FF920F931F93CF93DF93CDB7DEB72B970FB6F894DEBF19
:202060000FBECDBF6C01FE013196CE010C967F0120E22193E817F907E1F7DA0120E037E064
:202080009D91B92E9923A9F19E32B9F43A3091F480E02B960FB6F894DEBF0FBECDBFDF9191
:2020A000CF911F910F91FF90EF90DF90CF90BF90AF90089528E03AE0E3CFE8E9F1E08491DE
:2020C000882321F031969813FACFE2CF321700F38FED890F8E35E0F68FE9890F8A3118F498
:2020E00040EEB42EB90EF701E20FF11DB0822F5FC7CF8981803261F28B01FB01838D948DF4
:20210000F601948F838FFB0116821782108611861286138614861586F80182859385A48592
:20212000B585438954896589768984179507A607B70708F0ADCF25E0B695A79597958795E5
:202140002A95D1F7F82FFF70AF2EF8018581823008F49ECFC8010E94610F97FD99CFF8019B
:2021600082859385A485B5854F96A11DB11D82879387A487B587F0E2AF9EB00111246B5121
:202180007E4F6115710509F483CFFB018081882309F1853E19F4B11032C01EC04BE050E0D9
:2021A000C7010E940F1D892B09F0B6CF6A2DC6012B960FB6F894DEBF0FBECDBFDF91CF9121
:2021C0001F910F91FF90EF90DF90CF90BF90AF900C94C40FB1105CCFF601A28A80910C01A5
:2021E00090910D01A0910E01B0910F0186879787A08BB18BFB018081882309F449CFBB24F1
:20220000B3948ACFCF93DF93EC0188819981009711F00E94C41B198218821D821C821B8212
:202220001A82DF91CF910895FC0180819181009711F00C94C41B08950E940A1DFC01248166
:202240003581FB014481558124173507A0F0FC0180819181009779F0FB01608171816115D5
:20226000710549F0241B350B820F931F0E94301D21E0892B09F020E0822F0895EF92FF92F0
:202280000F931F93CF93DF93EC017B018A0188819981009729F02A813B812417350788F4F5
:2022A000B8016F5F7F4F0E944D1C0097C9F0998388831B830A832C813D81232B11F4FC0161
:2022C00010821D830C83B701888199810E94391DCE01DF91CF911F910F91FF90EF900895D0
:2022E000CE010E940211F4CFFC011182108213821282158214826115710551F0FB01019065
:202300000020E9F73197AF01461B570B0C943E110895EF92FF920F931F93CF93DF93EC01CF
:202320007B018A011B821A8288EE93E0A0E0B0E08C839D83AE83BF838FE391E099838883B8
:202340008DE190E00E94281B9A8F898F009779F02DE1F701DC0101900D922A95E1F74CE0A3
:2023600050E0B801CE010C960E94401D188EDF91CF911F910F91FF90EF900895CF92DF92C1
:20238000EF92FF920F931F93CF93DF93CDB7DEB7C756D1090FB6F894DEBF0FBECDBF8C011F
:2023A0007B01DB015996CD90DC90F6018581823008F499C082859385A485B5858F719927C7
:2023C000AA27BB27892B8A2B8B2B09F08CC040E250E0BE016F5F7F4FC6010E942F0B8032E4
:2023E00009F081C08981882309F47DC0853E79F38E3269F38C8583FDEACF22961FAE1EAECE
:20240000229783E391E09FAF8EAF24961FAE2497BE016F5F7F4FE0E080E02EE2DB019D91CA
:20242000BD019032A1F0883049F44BE550E04C0F5D1F4E0F511DDA012C93EF5F4BE550E04C
:202440004C0F5D1F4E0F511DDA019C93EF5F8F5F8B3021F78BE590E08C0F9D1F8E0F911D3F
:20246000FC011082D70159966D917C91AE01455A5F4FCE01CE960E942010882309F1BE0196
:20248000625C7F4FCE0181960E94A50EAE01455A5F4FBE016F5D7F4FC8010E948911C80152
:2024A000C959DF4F0FB6F894DEBF0FBECDBFDF91CF911F910F91FF90EF90DF90CF900895EC
:2024C000F8011382128288EE93E0A0E0B0E084839583A683B7838FE391E091838083128EC5
:2024E000118E1486DCCFD80113961C921E92129788EE93E0A0E0B0E0F801E9CF1F920F9273
:202500000FB60F9211242F933F938F939F93AF93BF938091CC019091CD01A091CE01B09196
:20252000CF013091CB0123E0230F2D3758F50196A11DB11D2093CB018093CC019093CD01E5
:20254000A093CE01B093CF018091D0019091D101A091D201B091D3010196A11DB11D809342
:20256000D0019093D101A093D201B093D301BF91AF919F918F913F912F910F900FBE0F90FD
:202580001F90189526E8230F0296A11DB11DD2CF1F920F920FB60F9211248F939F93809188
:2025A000E1009091E100937F9093E10083FF0FC01092E90091E09093EB001092EC0092E3C4
:2025C0009093ED001092E10198E09093F00082FF22C093E09093E9009091F200992319F022
:2025E0009AE39093E8009091C301992341F09091C30191509093C301911101C05D9A909159
:20260000E001992341F09091E00191509093E001911101C0289A84FF18C08091E2008E7E86
:2026200081608093E2008091E1008F7E8093E1008091C4018E7E80618093C4019F918F91E6
:202640000F900FBE0F901F90189580FFF7CF8091E2008E7E80618093E2008091E1008E7EFB
:202660008093E1008091C4018E7E8160E5CF1F920F920FB60F921124CF92DF92EF92FF921E
:202680000F931F932F933F934F935F936F937F938F939F93AF93BF93EF93FF93CF93DF939A
:2026A000CDB7DEB76C97DEBFCDBF1092E9008091E80083FF25C068E0CE0145960E94FB0259
:2026C00082EF8093E8008D8987FF39C09091E80090FFFCCF982F907609F034C19E894F89DC
:2026E000588D2F89F88C911131C0803861F58091C5018093F1001092F1008EEF8093E80032
:202700006C960FB6F894DEBF0FBECDBFDF91CF91FF91EF91BF91AF919F918F917F916F91A0
:202720005F914F913F912F911F910F91FF90EF90DF90CF900F900FBE0F901F9018959EEF19
:202740009093E800C7CF1092F100D5CF913059F48111D3CF4130510581F68091C5018D7F3E
:202760008093C501CACF933049F48111C6CF4130510519F68091C5018260F2CF953041F476
:202780008091E80080FFFCCF20682093E300B5CF963009F0A9C00B8D1C8D22E01092E9005E
:2027A0001092C1011092C001F2122EC01092BF011092BE010E94CA021F8299E09983FA827D
:2027C00091E09E8390EA98879AEF99872091C0013091C101275F3F4F3C832B838D831092FD
:2027E000E9001092C1011092C0011093BF010093BE0149E050E0BE016F5F7F4F80E00E94BE
:20280000A4020E94CA0279CF1093BF010093BE010E945901DC0112960D911C9101151105AF
:2028200009F451C1D801ED91FC910480F581E02DBE016B5E7F4FC8010995009709F03EC152
:20284000F80100851185EACFF3E0FF120EC08F89882309F440C0823061F440E862E18DE05A
:2028600091E00E947102811148CF81E28093EB0047CF813029F440E868E084E091E0F1CFDF
:20288000833099F70E945901DC011296ED90FC908E010F5F1F4F6801E114F10479F0D7016C
:2028A000ED91FC910680F781E02DB801C7010995080F111DF701E084F184EECFD8011C9289
:2028C000F60101900020E9F73197BF016C197D0940E0C601C6CF6EEE70E0FB01449150E0B4
:2028E00080E80E94A40209CF973009F4BECF983021F481E08093F10000CF993009F0FDCE61
:20290000837009F0B2CFE7E1F1E081E031E096E32191222371F08093E9003093EB00DF01E4
:2029200011972C912093EC009093ED008F5F873079F78EE78093EA001092EA008F89809345
:20294000E101DBCE8B8D9C8D1092E9001092C1011092C0019093BF018093BE01898D8111FC
:2029600092C08E899D89913A49F4813209F07DCF47E050E064E071E080E0B3CF913209F03E
:2029800074CF833269F48F89988DB0E0A0E08093000190930101A0930201B0930301ADCE64
:2029A000803269F48091E80082FFFCCF67E084E091E00E94FB028BEF8093E8009ECE823273
:2029C00009F09BCE8F8980930B01EEEFFFE7859194918B3F9C4D51F1E0E0F8E080910401BD
:2029E00090910501A0910601B0910701803B9440A105B105F1F480910B0180FD1AC0EE3FBE
:202A00008AE0F80789F587E797E791838083809160008093C20188E19BE00FB6F894A89513
:202A2000809360000FBE9093600067CEEEEFFAE0D5CF808191818737974709F05ECEA89532
:202A4000809160008861809360008091C20180936000EE3F2AE0F20789F08091FE0A90917F
:202A6000FF0A9183808349CE808191818737980751F29093FF0A8093FE0AC5CF1092FF0AE6
:202A80001092FE0A3ACE0E945901DC0112960D911C910115110509F4E8CED801ED91FC91F5
:202AA0000190F081E02DBE016B5E7F4FC8010995811123CEF80100851185EBCF18161906AC
:202AC0000CF41BCED2CEF1E0FF12BECE62EF70E004CFE5EEF3E01382128288EE93E0A0E053
:202AE000B0E084839583A683B78321E231E0318320832FEF3FEF35872487E5E3F4E020E505
:202B000020831182E7E3F4E0158216821186138642E050E060E070E044875587668777870E
:202B200013A215A614A623E331E033A722A717A6E0E8F4E01382128284839583A683B783AD
:202B40008FE391E091838083128E118E14860895CF93DF93CDB7DEB7C657D1090FB6F894D0
:202B6000DEBF0FBECDBF789484B5826084BD84B5816084BD85B5826085BD85B5816085BDE1
:202B800080916E00816080936E0010928100809181008260809381008091810081608093A3
:202BA000810080918000816080938000809191008260809391008091910081608093910040
:202BC000809190008160809390008091C10084608093C1008091C10082608093C1008091AD
:202BE000C10081608093C1008091C30081608093C3008091C00082608093C0008091C2007B
:202C000081608093C20080917A00846080937A0080917A00826080937A0080917A0081609C
:202C200080937A0080917A00806880937A001092E1011092C5011092C4018091D7008160EB
:202C40008093D70080EA8093D80089B5806189BD89B5826089BD09B400FEFDCF61E070E052
:202C600080E090E00E9403028091D8008F7C80618093D8008091E000807F8093E000809129
:202C8000E1008E7E8093E1008DE08093E200559A209A8FEF9FEF9093F2038093F10310917C
:202CA0000B016AE070E080E090E00E940302111106C060E070E0CB010E940302F0CF82E5E6
:202CC00091E00E94B60F80916604882321F081E694E00E94DA0C1092420410924004109212
:202CE0003D0410923C048AE080933B040E9436028B0180913B040E94FF0061E080913B040D
:202D00000E946D01FFB6F8948091C601811124C0EBE6F1E08491EAE8F1E09491E82FF0E0AE
:202D2000EE0FFF1FE45BFE4FA591B491EC91E92321F461E081E10E946D0181E10E94FF001D
:202D40008CB580618CBD8CB580648CBD8FE00E94FF0080E10E94FF008091C6018F5F8093AF
:202D6000C601FFBE82E5809335041092360480913504909136040E947104AAE0FA2E8FEF54
:202D80000E944C04FA94F110FACF87E394E00E94740420E030E0A90160E087E394E00E9477
:202DA0008A04F82E8093410481E0F816D1F00E943602601B710B613D774058F381E08093F2
:202DC0003C0487E394E00E9441048AE791E00E94B60F00E010E001151105E9F30E9400002B
:202DE000FACF2AEA31E040E050E068E087E394E00E948A0482FF2AC0F092420480914204B5
:202E0000C12CD12CE12CE0E4FE2E823019F0C12CD12C760120E030E0A90167E387E394E0CD
:202E20000E948A04A701960169E287E394E00E948A04809341048823D1F00E943602601BB1
:202E4000710B613D774030F388E0B9CFF4E0FF2E0E94530480934104FA94F110F9CF8A3A21
:202E600011F082E0ACCF82E080934204C7CF809142048230D1F420E030E0A9016AE387E3E4
:202E800094E00E948A04882311F086E098CF0E945304807C803C19F483E0809342040E94F9
:202EA00053040E9453040E94530487E394E00E94410480E5809335041092360481E00E9474
:202EC0009006882309F43FC081E694E00E944709882309F47ACF82E691E00E94B60F1DA2F8
:202EE0001CA283E391E09BA38AA31FA21C821B829A8389831E826E01B2E2CB0ED11CC6017D
:202F00000E944709FE0131967F01360100E511E0BE2EAF2C6FE270E0C8010E94251D0097C0
:202F200009F46BC0D8012C912F32A1F40F5F1F4F9E2D8F2D7301692E782E962D872D37011A
:202F4000E92EF82EE7CF80E00E949006882309F43CCFBACF801B8D3008F08CE0882E912C7B
:202F6000A401B801CE01845A9F4F0E94401DECE5F0E0EC0FFD1FE80DF91D1082C7010E949A
:202F8000DA0CF7018581882349F123961FAE1EAE239783E391E021969FAF8EAF21972596D0
:202FA0001FAE259710E000E0C801805B9E4F7C01DC018C918E01045A1F4F811126C0BE011E
:202FC000615C7F4F8B2D9A2D0E94A50E40E551E06B2D7A2DC8010E94891135C0AE01445AB6
:202FE0005F4FB301C7010E942010882371F2080D191DC3010E94DA0CA0CF00551140B30167
:20300000CE01CF960E94A50ECFCF1DA21CA283E391E09BA38AA31FA225968FAD25978111C4
:20302000EBC0F8011382128288EE93E0A0E0B0E084839583A683B7838FE391E0918380834E
:20304000128E118E1486D80112968D919C911397909383048093820414968D919D910D904B
:20306000BC91A02D8093840490938504A0938604B0938704F80180859185A285B3858093DE
:20308000880490938904A0938A04B0938B04D8011C96ECE8F4E08D91819384E0E939F80777
:2030A000D1F7D80159968D919C9190939A048093990420918204309183043DA32CA34091C5
:2030C00084045091850460918604709187044EA35FA368A779A74091880450918904609119
:2030E0008A0470918B044AA75BA76CA77DA72FE331E03BA32AA32DE0ECE8F4E0DE019E96F2
:2031000001900D922A95E1F79CAF8BAF1092CA011092C901B6018B2D9A2D0E94BE11EA8D6C
:20312000FB8D309719F08581811196C0C6010E94930E84E991E00E94A90F4090C90150908D
:20314000CA01052C000C6608770877FE6AC06DE285EE93E00E94BA0322273327A9012419BD
:2031600035094609570919A2FE01B1967F017AE0472E512C612C712CCA01B901A3019201AF
:203180000E94001B605DD7016E937D01211531054105510589F7E114F10419F0C7010E9479
:2031A000A90F8DE491E00E94A90FE090C901F090CA018FEF9FEFB6E5EB16B5E1FB0638F42B
:2031C00026E02E9DC0012F9D900D112402960E94281BFC01E192F1924F013F01F1E0EF1AE5
:2031E000F108F7FC69C06FE471E0C3010E94741186E0680E711CF2CFA701BE01615C7F4F0F
:20320000C6010E942010882309F40BCFCE01CF960E94DA0CB6018B2D9A2D0E94A50EA701A4
:20322000D7CEA301920119A2FE01B1967F016AE0462E512C612C712CCA01B901A301920110
:203240000E94001B605DD7016E937D01211531054105510589F79FCFBE01635F7F4FCE0189
:20326000CF960E94741162EA71E0C8010E947411B801CE01CF960E941E11F82EC8010E94E6
:203280001411CE01CF960E941411FF2049F08091C9019091CA0101969093CA018093C9018D
:2032A0008A8D9B8D009709F435CF0E94DA0C8A8D9B8D0E94C41B2ECF9092C8018092C7012D
:2032C000912C812C26E0722EB6018B2D9A2D0E94BE11EA8DFB8D309719F08581811134C0DC
:2032E000C6010E94930E87EA91E00E94A90FF12CE12C96E0B92EC090C901D090CA0100912B
:20330000C7011091C801EC14FD040CF0F0C0BE9CF001BF9CF00D1124E00FF11F448155815C
:203320006081718185EE93E00E943503B1E0CB1AD108EC14FD0424F485EB91E00E94A90F57
:20334000EFEFEE1AFE0AD7CFBE01635F7F4FC8010E94741162EA71E0CE01CF960E947411A2
:20336000BE01615C7F4FC8010E941E11F82ECE01CF960E941411FF2009F4B7C0D801149632
:20338000ED90FC90B4E0EB1AF1086FE471E0CE01CF960E947411F80184819581009729F1CE
:2033A0008E159F0508F47C01D801ED91FC911197EE0DFF1D608010826D917C916115710541
:2033C00009F46DC0FB0101900020E9F73197AF01461B570BCE01CF960E943E11F8018081DC
:2033E0009181E80EF91ED7016C92F8018081918121966EAD7FAD2197009709F457C06115F5
:20340000710509F451C04281538125962EAD3FAD25974217530708F447C00E94391D2596EA
:203420008EAD9FAD2597D80115969C938E93149725961FAE1EAE2597CE01CF960E941411BF
:203440007401FFEFEF1AFF0A789C9001799C300D11248091C7019091C801820F931F80172E
:20346000910761F0D8016D917C91119761157105C9F114964D915C910E943E118A8D9B8D8C
:20348000009741F00E94DA0C8A8D9B8D0E94C41B1B8E1A8EC8010E941411470115CFCE0140
:2034A000CF960E9402119ACF0E94C41B21968EAD9FAD2197F8019183808323968EAD9FADC2
:2034C00023979383828325968EAD9FAD25979583848321961FAE1EAE219723961FAE1EAEA0
:2034E0002397A6CF0E940211C9CF7401C7CF8DE491E00E94A90F0115110509F46ACCF801B1
:2035000032978081918126E0289F7001299FF00C11245801AE0CBF1C65010C151D0539F0D8
:20352000F6E0CF1AD108C6010E941411F6CFF694E7948BEA9AE2E89E9001E99E300DF89E39
:20354000300D11243F774AEF4203C001439F900D112402978A0D9B1D0E94C41B3ACC0E943F
:20356000F11AA59F900DB49F900DA49F800D911D112408952F923F924F925F926F927F92A9
:203580008F929F92AF92BF92CF92DF92EF92FF920F931F93CF93DF93CDB7DEB7CA1BDB0B57
:2035A0000FB6F894DEBF0FBECDBF09942A88398848885F846E847D848C849B84AA84B98474
:2035C000C884DF80EE80FD800C811B81AA81B981CE0FD11D0FB6F894DEBF0FBECDBFED01C7
:2035E0000895A29FB001B39FC001A39F700D811D1124911DB29F700D811D1124911D0895FD
:20360000A1E21A2EAA1BBB1BFD010DC0AA1FBB1FEE1FFF1FA217B307E407F50720F0A21B84
:20362000B30BE40BF50B661F771F881F991F1A9469F760957095809590959B01AC01BD011A
:20364000CF010895EE0FFF1F0590F491E02D09940F931F93CF93DF938230910510F482E048
:2036600090E0E0919D04F0919E0430E020E0B0E0A0E0309799F42115310509F44AC0281B7B
:20368000390B24303105D8F58A819B816115710589F1FB0193838283FE0111C04081518188
:2036A0000281138148175907E0F04817590799F4109761F012960C93129713961C93329610
:2036C000CF01DF91CF911F910F91089500939D0410939E04F4CF2115310551F042175307C1
:2036E00038F0A901DB019A01BD01DF01F801C1CFEF01F9CF90939E0480939D04CDCFFE018E
:20370000E20FF31F819391932250310939832883D7CF20919B0430919C04232B41F42091D0
:2037200012013091130130939C0420939B0420911001309111012115310541F42DB73EB7DD
:203740004091140150911501241B350BE0919B04F0919C04E217F307A0F42E1B3F0B281783
:20376000390778F0AC014E5F5F4F2417350748F04E0F5F1F50939C0440939B0481939193E2
:203780009FCFF0E0E0E09CCFCF93DF930097E9F0FC01329713821282A0919D04B0919E04D8
:2037A000ED0130E020E01097A1F420813181820F931F20919B0430919C042817390709F010
:2037C00061C0F0939C04E0939B04DF91CF910895EA01CE17DF07E8F54A815B819E014115F7
:2037E0005105B1F7E901FB83EA8349915991C40FD51FEC17FD0761F4808191810296840FD1
:20380000951FE90199838883828193819B838A83F0E0E0E012968D919C9113970097B9F52F
:203820002D913C911197CD010296820F931F20919B0430919C042817390739F6309751F540
:2038400010929E0410929D04B0939C04A0939B04BCCFD383C28340815181840F951FC8174D
:20386000D90761F44E5F5F4F88819981480F591F518340838A819B81938382832115310581
:2038800009F0B0CFF0939E04E0939D049ECFFD01DC01C0CF13821282D7CFB0E0A0E0E3E5F9
:2038A000FCE10C94BC1A8C01009751F4CB010E94281B8C01C801CDB7DEB7E0E10C94D81AD9
:2038C000FC01E60FF71F9C0122503109E217F30708F49DC0D901CD91DC911197C617D70743
:2038E00098F0C530D10530F3CE0104978617970708F3C61BD70B2297C193D1936D937C936F
:20390000CF010E94C41BD6CF5B01AC1ABD0A4C018C0E9D1EA0919D04B0919E04512C412C87
:20392000F12CE12C109731F580919B0490919C048815990509F05CC04616570608F058C006
:203940008091100190911101009741F48DB79EB74091140150911501841B950BE817F90792
:2039600008F055C0F0939C04E0939B04F90171836083A0CF8D919C91119712966C90129785
:2039800013967C901397A815B90559F56C0142E0C40ED11CCA14DB0420F1AC014A195B096F
:2039A000DA011296159780F06282738251834083D9016D937C93E114F10471F0D701139643
:2039C000FC93EE93129776CF22968C0F9D1FF90191838083F301EFCFF0939E04E0939D04DE
:2039E00069CF4816590608F42C017D01D3019ACFCB010E94281B7C01009749F0AE01B80188
:203A00000E941C1DC8010E94C41B870153CF10E000E050CF81E090E0F8940C944F1DFB0183
:203A2000DC0104C08D910190801921F441505040C8F7881B990B0895FB01DC0102C0019098
:203A40000D9241505040D8F70895FC018191861721F08823D9F7992708953197CF01089570
:203A6000FB01DC018D91019080190110D9F3990B0895FB01DC0101900D920020E1F7089569
:203A8000FB01DC014150504048F001900D920020C9F701C01D9241505040E0F70895F89453
:203AA000FFCFFFFFFFFF00E1000000000000FFFFFFFF00009F04800000C18081000000007A
:203AC000000000BA033503DB03D0032104DF03FD0300000000820E08037C0C4202000000D2
:203AE000004B0F2E0F1E0FF50EFE0E780F820F0D0A002F0050726F6772616D2073746172E3
:203B000074656400534420696E697469616C697A6174696F6E20646F6E652E0053442069B5
:203B20006E697469616C697A6174696F6E206661696C65642100536F6E677320666F756E7E
:203B4000643A20002E49444C004C697374204D6F746F72733A20002C2000FFFFFFFFFFFFC0
:203B6000FFFFFFFFFFFFFFFFFFFFFFFFFFFFFFFFFFFFFFFFFFFFFFFFFFFFFFFFFFFFFFFF65
:203B80005F934F93D5010E94B41B8B01AC01D7010E94B41BEB01E80FF91FD6010E94F21D05
:203BA0002F913F91D6010E94B41BC60FD71FE81FF91FAF91BF910E94F21D2F913F910E94D0
:203BC000B41BC60FD71FE81FF91FD6010E94B41BE60FF71F9801BE01CF010F911F91CF9101
:203BE000DF9108950E94B41B460F571FC81FD91F08F43196089597FD1094002E083098F017
:203C00000850232F342F452F562F672F782F892F912DF4CF15949795879577956795579543
:203C20004795379527950A95AAF71124002D08952A0D3B1D4C1D5D1D6E1D7F1D801F911FF9
:203C400008952A153B054C055D056E057F058007910708950024A7FD00942A1730054005CB
:203C6000500560057005800590050895F894FFCFFFFFFFFF5803580358035803580300E160
:203C800000000000000000C18081000000000000000000000400040004040404000000004A
:203CA000007004EB03AC04A104F204B004CE04000000000307D6063207AC06CF06BC06ADBC
:203CC00006000000006C0935078007000000001D06140613060D0A004A27616920756E20DB
:203CE0006D657373616765006E616E00696E66006F766600FFFFFFFFFFFFFFFFFFFFFFFF26
:203D0000221F749F3327A00D611D231F849F600D211D822F762F6A2F11249F5750409AF086
:203D2000F1F088234AF0EE0FFF1FBB1F661F771F881F91505040A9F79E3F510580F00C94B2
:203D4000F31D0C943E1E5F3FE4F3983ED4F3869577956795B795F795E7959F5FC1F7FE2BEF
:203D6000880F911D9695879597F908950E94CF1D880B990B0895DB018F939F930E947E1CBC
:203D8000BF91AF91A29F800D911DA39F900DB29F900D1124089597FB072E16F4009407D03C
:203DA00077FD09D00E94781F07FC05D03EF4909581959F4F0895709561957F4F0895EE0F4A
:203DC000FF1F0590F491E02D0994DF93CF931F930F939A9DF02D219FF00D8B9DF00D8A9D7C
:203DE000E02DF10D039FF00D029FE00DF11D4E9DE00DF11D5E9DF00D4F9DF00D7F936F93A2
:203E0000BF92AF925F934F93D5010E94E21C8B01AC01D7010E94E21CEB01E80FF91FD60143
:203E20000E94341F2F913F91D6010E94E21CC60FD71FE81FF91FAF91BF910E94341F2F9157
:203E40003F910E94E21CC60FD71FE81FF91FD6010E94E21CE60FF71F9801BE01CF010F91BE
:203E60001F91CF91DF9108950E94E21C460F571FC81FD91F08F43196089597FD1094002E15
:203E8000083098F00850232F342F452F562F672F782F892F912DF4CF1594979587957795E9
:203EA000679557954795379527950A95AAF71124002D08952A0D3B1D4C1D5D1D6E1D7F1DDE
:203EC000801F911F08952A153B054C055D056E057F058007910708950024A7FD00942A1774
:203EE00030054005500560057005800590050895AA1BBB1B51E107C0AA1FBB1FA617B707B0
:203F000010F0A61BB70B881F991F5A95A9F780959095BC01CD010895B0E0A0E0E2E9FFE113
:203F20000C948B1C8C01009751F4CB010E947F208C01C801CDB7DEB7E0E10C94A71CFC0134
:203F4000E60FF71F9C0122503109E217F30708F49DC0D901CD91DC911197C617D70798F031
:203F6000C530D10530F3CE0104978617970708F3C61BD70B2297C193D1936D937C93CF01A0
:203F80000E941B21D6CF5B01AC1ABD0A4C018C0E9D1EA0915D04B0915E04512C412CF12CD7
:203FA000E12C109731F580915B0490915C048815990509F05CC04616570608F058C080910C
:203FC000160190911701009741F48DB79EB740911A0150911B01841B950BE817F90708F00D
:203FE00055C0F0935C04E0935B04F90171836083A0CF8D919C91119712966C9012971396CE
:204000007C901397A815B90559F56C0142E0C40ED11CCA14DB0420F1AC014A195B09DA01B6
:204020001296159780F06282738251834083D9016D937C93E114F10471F0D7011396FC9308
:20404000EE93129776CF22968C0F9D1FF90191838083F301EFCFF0935E04E0935D0469CF2E
:204060004816590608F42C017D01D3019ACFCB010E947F207C01009749F0AE01B8010E943B
:204080005220C8010E941B21870153CF10E000E050CF803209F091110C94A42180528F5506
:2040A000D8F70895FB01DC0102C001900D9241505040D8F70895FB01DC0101900D92002013
:2040C000E1F70895FB01DC014150504030F08D910190801919F40020B9F7881B990B089548
:2040E000FB01DC014150504048F001900D920020C9F701C01D9241505040E0F708950F93D7
:204100001F93CF93DF938230910510F482E090E0E0915D04F0915E0430E020E0B0E0A0E026
:20412000309799F42115310509F44AC0281B390B24303105D8F58A819B816115710589F14D
:20414000FB0193838283FE0111C0408151810281138148175907E0F04817590799F410974C
:2041600061F012960C93129713961C933296CF01DF91CF911F910F91089500935D041093BA
:204180005E04F4CF2115310551F04217530738F0A901DB019A01BD01DF01F801C1CFEF013A
:2041A000F9CF90935E0480935D04CDCFFE01E20FF31F819391932250310939832883D7CFAF
:2041C00020915B0430915C04232B41F4209118013091190130935C0420935B042091160189
:2041E000309117012115310541F42DB73EB740911A0150911B01241B350BE0915B04F091B3
:204200005C04E217F307A0F42E1B3F0B2817390778F0AC014E5F5F4F2417350748F04E0F29
:204220005F1F50935C0440935B04819391939FCFF0E0E0E09CCFCF93DF930097E9F0FC01A9
:20424000329713821282A0915D04B0915E04ED0130E020E01097A1F420813181820F931F67
:2042600020915B0430915C042817390709F061C0F0935C04E0935B04DF91CF910895EA0167
:20428000CE17DF07E8F54A815B819E0141155105B1F7E901FB83EA8349915991C40FD51F7C
:2042A000EC17FD0761F4808191810296840F951FE90199838883828193819B838A83F0E08D
:2042C000E0E012968D919C9113970097B9F52D913C911197CD010296820F931F20915B0450
:2042E00030915C042817390739F6309751F510925E0410925D04B0935C04A0935B04BCCF1B
:20430000D383C28340815181840F951FC817D90761F44E5F5F4F88819981480F591F5183F3
:2043200040838A819B81938382832115310509F0B0CFF0935E04E0935D049ECFFD01DC0193
:20434000C0CF13821282D7CF992788270895F894FFCFFFFFFFFF7603760376037603760340
:2043600000E100000000000000005F04800000C180810000000000000000000004000400AF
:204380000404040400000000008E040904CA04BF041005CE04EC04000000002107F4065094
:2043A00007CA06ED06DA06CB06000000003E0A53079E07000000003B06320631060D0A0074
:2043C000576861743F0020002D002B005265616479006E616E00696E66006F766600FFFFDA
:2043E000FFFFFFFFFFFFFFFFFFFFFFFFFFFFFFFFFFFFFFFFFFFFFFFFFFFFFFFFFFFFFFFFDD
:2044000084E793E00E94FA0E87E893E00E94FA0E80911408823020F087EC93E00E94FA0E09
:204420008FE194E00E94FA0E8EE394E00E94FA0E81E694E00E94FA0E8BE794E00E94FA0E4A
:2044400084E994E00E94FA0E88EA94E00E94FA0E87EB94E00E94FA0E8DEC94E00E94FA0E1A
:2044600089E195E00E94FA0E88E395E00E94FA0E87EF91E00E94FA0E62C1843409F49EC35F
:204480000CF082C2833409F454C067E474E08AE497E00E943B2D55C1823509F4B9C34CF400
:2044A0008D3409F453C1803509F48AC2883469F79BCF863509F45AC17CF4833531F7809172
:2044C0004B078D3309F05AC280914C07873509F081C10E94040F7BC1883509F454C38935DA
:2044E000A1F680914B078D3381F68CE497E00E941D2D8C0190914D07903209F471C3009330
:204500001508811104C08DED95E00E94FA0E80911508882309F45BC10E94C204882309F48D
:2045200056C111271F930F930BE414E01F930F9301C284E595E00E94FA0E80911408813078
:2045400009F054C08091150881112AC00E94C204882311F18CE695E09F938F9383E795E075
:204560009F938F938AE795E09F938F9389ED93E09F938F931F9284E68F9329E637E03F933B
:204580002F930E944A2D89E697E00E94FA0E0FB6F894DEBF0FBECDBF80911408813031F565
:2045A00080911508882311F10E94C2048823F1F083E895E09F938F938AE795E09F938F93BE
:2045C00088EC93E09F938F931F9284E68F9389E697E09F938F930E944A2D89E697E00E9488
:2045E000FA0E0FB6F894DEBF0FBECDBF80911408823009F04FC080911508811125C00E943E
:20460000C2048823E9F083E895E09F938F938AE795E09F938F9380EA93E09F938F931F9200
:2046200084E68F9309E617E01F930F930E944A2DC8010E94FA0E0FB6F894DEBF0FBECDBFE1
:2046400080911408823031F580911508882311F10E94C2048823F1F083E895E09F938F9352
:204660008AE795E09F938F938FE893E09F938F931F9284E68F9369E677E07F936F930E9429
:204680004A2D89E697E00E94FA0E0FB6F894DEBF0FBECDBF80911408833008F450C08091CF
:2046A0001508811126C00E94C2048823F1F086E895E09F938F938AE795E09F938F9382E599
:2046C00093E09F938F931F9284E68F93E9E6F7E0FF93EF930E944A2D89E697E00E94FA0E73
:2046E0000FB6F894DEBF0FBECDBF80911408833030F180911508882311F10E94C204882384
:20470000F1F086E895E09F938F938AE795E09F938F938BE293E09F938F931F9284E68F93D6
:2047200049E657E05F934F930E944A2D89E697E00E94FA0E0FB6F894DEBF0FBECDBF1092AD
:204740004B078AE497E00E94330F24CC8091DA0791E089278093DA07882319F089E895E0AD
:2047600089CE8CE995E00E94FA0E31C080914B078D3309F08ACE8CE497E00E941D2D7C0199
:204780008FEF8E0D8E31E8F60E94C204870111278823C1F01F930F93ABECB4E0BF93AF93CC
:2047A0001F9284E68F9329E637E03F932F930E944A2D89E697E00E94FA0E0FB6F894DEBF6B
:2047C0000FBECDBFE0920D08C8010E9460090E944D0EB5CF893431F58EE497E00E941D2DEC
:2047E000809314080E94C204882389F3E0911408E150FF0BEE0FFF1FE55BFE4F81818F9367
:2048000080818F9388EB94E09F938F931F9284E68F9389E697E09F938F930E944A2D89E63B
:2048200097E022C0813341F580914D07803279F68EE497E00E941D2D809308080E94C2044F
:20484000882329F2809108081F928F938CEA94E09F938F931F9284E68F9309E617E01F938B
:204860000F930E944A2DC8010E94FA0E0FB6F894DEBF0FBECDBFABCF823301F580914D0739
:20488000803209F0A4CF8EE497E00E941D2D80930A080E94C204882309F499CF80910A0865
:2048A0001F928F938FE994E09F938F931F9284E68F9369E677E07F936F93AFCF833301F5C4
:2048C00080914D07803209F082CF8EE497E00E941D2D809309080E94C204882309F477CF28
:2048E000809109081F928F9382E994E09F938F931F9284E68F93E9E6F7E0FF93EF938DCF3D
:20490000843301F580914D07803209F060CF8EE497E00E941D2D80930B080E94C20488239D
:2049200009F455CF80910B081F928F9380E894E09F938F931F9284E68F9349E657E05F939A
:204940004F936BCF853309F042CF80914D07803209F03DCF8EE497E00E941D2D80930C0861
:204960000E94C204882309F432CF80910C081F928F93AFE6B4E0BF93AF936CCF8F3309F07B
:2049800084CD0E949610DBCE8CE497E00E941D2D863008F07ACD809317080E94C2048823C8
:2049A00009F415CFE0911708F0E0EE0FFF1FE75CFE4F81818F9380818F9381E694E074CFA6
:2049C00080914B078F3309F060CD80914907882309F4BCC08EEA95E00E94FA0E82E40E9468
:2049E00068090E94C204882319F182E490E00E941A10880F991FFC01E55DFE4F81818F9388
:204A000080818F9384E394E09F938F931F9284E68F93E9E6F7E0FF93EF930E944A2D89E6C5
:204A200097E00E94FA0E0FB6F894DEBF0FBECDBF83E40E9468090E94C2048823E1F083E449
:204A400090E00E941A109F938F9381E294E09F938F931F9284E68F9349E657E05F934F9324
:204A60000E944A2D89E697E00E94FA0E0FB6F894DEBF0FBECDBF84E40E94680984E490E0F3
:204A80000E941A100E94C204882309F1E0911708F0E0EE0FFF1FE75CFE4F81818F9380810D
:204AA0008F9380E194E09F938F931F9284E68F93A9E6B7E0BF93AF930E944A2D89E697E0B5
:204AC0000E94FA0E0FB6F894DEBF0FBECDBF88E40E9468090E94C2048823E1F088E490E0A6
:204AE0000E941A109F938F938EEF93E09F938F931F9284E68F9329E637E03F932F930E94B9
:204B00004A2D89E697E00E94FA0E0FB6F894DEBF0FBECDBF8CE40E9468090E94C2048823B1
:204B200009F40DCE8CE490E00E941A109F938F938AEE93E09F938F931F9284E68F9389E6B2
:204B400097E09F938F930E944A2DF0CD8AEC95E091CC80915B078F5F80935B079091560718
:204B6000981710F490935B0780915B0790E00E946409E5CD80915B07815019F080935B0797
:204B8000F3CF81E0FBCF80915807811103C08EE00E94680980915807813009F0D0CD8DE0BE
:204BA0000E946809CCCD80914B078D3339F48CE497E00E941D2D8093180809CE80911508EE
:204BC000882339F08091480791E0892780934807B6CD80915C0791E0892780935C07AFCD14
:204BE000882399F0009315088EE497E00E941D2D80931608A82FA150BB0BFD01EE0FFF1F24
:204C0000EF5CFE4F80819181AECD10921608DFCD8BEE95E00E94FA0E10E000E060E0C80191
:204C20000E9424310F5F1F4F0115B4E01B07B1F782E00E942B0587EF95E01CCC67E088EC6B
:204C400099E00E94F00A882309F4B6C01093E5078091E6079091E7079C01220F331F820FD4
:204C6000931F2091D6093091D7094091D6095091D70924173507A9F7820F931F969587953F
:204C8000969587959093E7078093E60767E086EB99E00E94F00A8823F1F08091E307909147
:204CA000E4079C01220F331F820F931F2091C4093091C5094091C4095091C50924173507D5
:204CC000A9F7820F931F96958795969587959093E4078093E30767E084EA99E00E94F00A8E
:204CE0008823F1F08091E1079091E2079C01220F331F820F931F2091B2093091B309409108
:204D0000B2095091B30924173507A9F7820F931F96958795969587959093E2078093E1074C
:204D200067E082E999E00E94F00A8823F1F08091DF079091E0079C01220F331F820F931FBE
:204D40002091A0093091A1094091A0095091A10924173507A9F7820F931F969587959695BD
:204D600087959093E0078093DF0767E080E899E00E94F00A882309F441C98091DD07909188
:204D8000DE079C01220F331F820F931F20918E0930918F0940918E0950918F0924173507D2
:204DA000A9F7820F931F96958795969587959093DE078093DD0722C91092E50767CF109232
:204DC000E50760C9833081F0843009F083C980E104C080E180930E0981E080930C097AC925
:204DE00084E0FBCF87E0F9CF8EE080930E098CE0F4CF8F3031F400930D0982E080930C0978
:204E000070C910920C096DC980910D09E82FF0E0EA5FF64FF186815080930D098F3F09F098
:204E200060C983E0EBCF811195C080910D098F3F09F090C020E0F12C30E040EB56E1EF2D5C
:204E4000F0E061E070E080E090E0022E04C0660F771F881F991F0A94D2F7688779878A875C
:204E60009B87EE0FFF1FEA5FF64F61A572A5052F10E00A5F164FD80119960C9110E0032E12
:204E800002C0159507950A94E2F78885998500FF5CC0862B972B92A781A73F5F2F5F3830E5
:204EA00011F4515030E02B3011F4F39420E0415031F68FEF8093510981E080930C09809118
:204EC0001508882309F4B4C20E945B1280911608833050F46091080886E099E00E94C20915
:204EE0009093E7078093E607809115088111C6C48091E5078111EAC20E94D10400917A0991
:204F000010917B0920917C0930917D09601B710B820B930B6A3F71058105910508F4DAC2FA
:204F200010911101612F85E00E94010481E01827109311010E94D10460937A0970937B0959
:204F400080937C0990937D09C5C28095909586239723A1CF81E052CF8FE58F0D823008F040
:204F600050CF8CE0113A09F080E180930E0910920D096F2D90E080E00E94970990935009F5
:204F800080934F0985E03ACFE0910D0911E01E0F10930D09F0E0EA5FF64F8187682F8091CC
:204FA0004F09909150090E9497099093500980934F0980910E0990E0880F991F18171906C1
:204FC0000CF48FC886E01ACF10910D091F5F10930D09682F80914F09909150090E94970981
:204FE0009093500980934F09F0900E092F2D30E02F5F3F4F220F331F121713060CF471C8AD
:20500000892B09F0FECE0FE019E0E12CFE14D1F0F801219131918F01322723273227A8E7C7
:20502000B5E00E94B531A30192010E943231205E3C4F4F4F5F4FD8015F963C932E935E976F
:20504000E394E4CF8FEF8093510939CF883A09F0D8CE68EA90E080E00E94970990935009F2
:2050600080934F0988E0CACE8F77813009F0C9CE6F2D80914F09909150090E94970990939A
:20508000500980934F0991E0113809F090E080910A0990FB84F980930A0989E0AFCE8EEF74
:2050A0008F0D8F3008F0ADCE6F2D80914F09909150090E9497099093500980934F09F092F8
:2050C0000E0910920D098AE099CEE0910D0911E01E0F10930D09F0E0EA5FF64F8187682FD5
:2050E00080914F09909150090E9497099093500980934F0980910E0990E0880F991F18178E
:20510000190614F40C947120BBE0B0930C090C94712010910D091F5F10930D09682F80917D
:205120004F09909150090E9497099093500980934F09F0900E092F2D30E02F5F3F4F220F24
:20514000331F1217130614F40C947120892B09F058CE0FE019E0E12CFE1409F473CFF80170
:20516000219131918F0132272327322750E040E020523C4141095109A0EBB4E00E94513109
:20518000A50194010E9432312C573C4F4F4F5F4FD8015F963C932E935E97E394DDCF80324D
:2051A00011F00C947120EFEDFFEFF0935009E0934F09FDE0F0930C090C947120803409F0F9
:2051C00020CE80914F0990915009805491099093500980934F0910920D091EE010930C093B
:2051E0000C947120E0910D0921E02E0F20930D09F0E0EA5FF64F818780914F0990915009A7
:205200008F1991099093500980934F0980910E0990E0880F991F2817190614F40C947120E7
:205220002FE020930C090C94712020910D09E22FF0E0EA5FF64F81872F5F20930D09409100
:205240000E09842F90E00196880F991F2817190614F40C9471208A5F964FDC0117968C9122
:20526000FA821982E981FA81E80FF11D20914F09309150092E173F0709F0C3CDEFE0F9E04E
:2052800020E0421731F081919191978F868F2F5FF8CF8FEF8093510910920C0910CE8E338F
:2052A00009F0AFCD2DEF38ED3093500920934F0931E130930C090C947120833009F0A1CDDC
:2052C00063E080914F09909150090E9471059093500980934F09C0920C090C947120682F7A
:2052E00080914F09909150090E9471059093500980934F09D0920C090C947120682F80917C
:205300004F09909150090E9471059093500980934F09E0920C090C947120813309F071CD19
:2053200061E380914F09909150090E9471059093500980934F0945E140930C090C94712008
:2053400088EF8F0D893108F05CCD8F2D869580930E0910920D096F2D80914F099091500927
:205360000E9471059093500980934F0900930C090C947120E0910D0911E01E0F10930D09F7
:20538000F0E0EA5FF64F8187682F80914F09909150090E9471059093500980934F0980911D
:2053A0000E0990E0880F991F1817190614F40C94712057E150930C090C94712020910D0968
:2053C000E22FF0E0EA5FF64F81872F5F20930D0940910E09842F90E00196880F991F2817CF
:2053E000190614F40C9471208A5F964FDC0117968C91FC821B82EB81FC81E80FF11D209126
:205400004F09309150092E173F0709F0FACCEFE0F9E020E0421709F43CCF8191919163E050
:20542000969587956A95E1F7978F868F2F5FF2CF20915109822F90E0880F892F881F990BFE
:20544000892B09F4B5C22F772093510981E08093E5078091DC078F5F8436A8F58093DC07E2
:205460006091080886E099E00E94C2099093E7078093E60760910A0886E099E00E94C2097F
:205480009093E2078093E1076091090886E099E00E94C2099093E4078093E30760910B08A8
:2054A00086E099E00E94C2099093E0078093DF0760910C0886E099E00E94C2099093DE0744
:2054C0008093DD0711CD1092DC07CACF61E085E00E9401048091DA07882309F47AC08091A7
:2054E000D20781110DC00E94D1046093CE077093CF078093D0079093D10781E08093D2072A
:205500000E94D1040091CE071091CF072091D0073091D107601B710B820B930B6A3F7105D5
:205520008105910508F455C00E94D1046093CE077093CF078093D0079093D1078091E60743
:205540009091E707009709F4AEC18C3DF5E09F0708F097C1209112083091130882179307CB
:2055600020F4909313088093120820911008309111084091120850911308240F351F3695D0
:20558000279530930F0820930E080E94C90E8DE096E00E94FA0E80911208909113080E949D
:2055A000C90E8DE096E00E94FA0E80910E0890910F080E94C90E8DE096E00E94FA0E809111
:2055C0001008909111080E94C90E86EB98E00E942F0F8091610781110DC00E94D1046093F5
:2055E0005D0770935E0780935F079093600781E0809361070E94D10400915D0710915E078E
:2056000020915F0730916007601B710B820B930B653F71408105910508F420C10E94D10464
:2056200060935D0770935E0780935F079093600780915C07882309F450C08091E60790915D
:20564000E7070E94C90E8DE096E00E94FA0E8091E1079091E2070E94C90E8DE096E00E9455
:20566000FA0E8091E3079091E4070E94C90E8DE096E00E94FA0E8091DF079091E0070E9474
:20568000C90E8DE096E00E94FA0E8091DD079091DE070E94C90E8DE096E00E94FA0E0E9403
:2056A000C2048823D1F080915B071F928F9384ED94E09F938F931F9284E68F93E9E6F7E056
:2056C000FF93EF930E944A2D89E697E00E94FA0E0FB6F894DEBF0FBECDBF2091E607309167
:2056E000E707109159072115310509F40EC1C0901208D0901308F12CE12C50E040E02C19DF
:205700003D094E095F09ADE1B0E00E945131209110083091110850E040E02C193D094E096D
:205720005F090E9432312F5F3F4F4F4F5F4F20935A0780915A07811719F090E00E946009F2
:2057400080915A078093590784E00E94D803809358072091E1073091E2072115310599F0D9
:2057600080910E0890910F08885C91092817390708F0CEC01092100180911001813009F0C8
:20578000CBC0809357072091E3073091E4072115310599F080910E0890910F0888539F4FA9
:2057A0008217930708F0D2C010920F0180910F01813009F0CFC0809355072091DD0730915B
:2057C000DE072115310599F080910E0890910F0888539F4F8217930708F0D7C010920E0154
:2057E00080910E01813009F0D4C0809355072091DF073091E00721153105F1F080910E0829
:2058000090910F08885C91092817390718F48EE00E94680980910E0890910F0888539F4F9E
:205820002091DF073091E0078217930728F480915B0790E00E94640905E411E0D8018D9117
:205840008D010E94D803892B31F4B8016554714082E10E94DD040215130581F780E090E0E4
:20586000892B11F40C94AE1F0E94E006882311F40C94AE1F0E9400000C94AE1F8091DB075B
:2058800039CB8C3D05E0900709F46FCE20911008309111082817390708F067CE90931108FA
:2058A0008093100862CE0E94D1046093CE077093CF078093D0079093D1070E94C20488237D
:2058C00009F487CEE0911408E150FF0BEE0FFF1FE55BFE4F81818F9380818F9386EE94E0D7
:2058E0009F938F931F9284E68F9329E637E03F932F930E944A2D89E697E00E94FA0E0FB6EF
:20590000F894DEBF0FBECDBF64CE10935A0711CF81E08093100130CF811135CF8091570766
:20592000882309F430CF80915B07815080935B07811104C08091560780935B0780915B075B
:2059400090E00E946409109257071DCF81E080930F012CCF811131CF80915507882309F4B6
:205960002CCF80915B078F5F80935B0790915607981718F481E080935B0780915B0790E064
:205980000E9464091092550718CF81E080930E0127CF81112CCF80915507882309F427CF02
:2059A00080915B0790E00E946409109255071FCF1092E50799CA8BE891E090935F09809396
:2059C0005E0920916A0948EF420F443040F082EF820F843020F086EE820F833068F5309174
:2059E0006B00822F8450990B443078F087EF2E30A1F08DEF2F3089F08BEF203171F08EEFD5
:205A0000213159F0822F8651990BBC0181E090E001C0880F6A95EAF780958323443048F092
:205A200092EF920F943028F02A51F0E0E0E0233010F4EBE6F0E080830895FC018827992759
:205A4000E89421912032E9F3293010F02E30C8F32B3241F02D3239F4689404C00E94422D8D
:205A6000820F911D219120532A30C0F31EF4909581959F4F0895FB01DC0105900D920020B0
:205A8000E1F708957AE0979F902D879F802D910D11240895AEE0B0E0E0E5FDE20C946A3104
:205AA0000D891E898F89988D2EE02C831A83098397FF02C080E090E801979E838D83AE01DE
:205AC000455E5F4F698D7A8DCE0101960E947A2D4D815E8157FD0AC02F81388542175307DE
:205AE0000CF49A01020F131FF80110822E96E4E00C948631ABE0B0E0E0E8FDE20C945C316F
:205B00007C013B018A01FC0117821682838181FFC8C1CE0101965C01F7019381F30193FDB3
:205B2000859193FF81913F01882309F453C1853239F493FD859193FF81913F01853229F46D
:205B4000B70190E00E946A2FE7CF912C212C312CFFE1F31538F08B3211F190F4803209F1C6
:205B6000833229F137FC3CC020ED280F2A3050F536FE20C08AE0989E200D1124922E06C0A8
:205B80008D3291F0803371F7689430F8F30193FD859193FF81913F018111DACF21C06894F0
:205BA00031F8689432F8F2CF689433F8EFCF689434F8ECCFEAE02E9E200D1124222E6894C9
:205BC00035F8E4CF8E3229F436FC04C1689436F8DDCF8C3619F4689437F8D8CF8836B1F239
:205BE000982F9F7D95549330E0F08336A1F18337C1F1833509F063C02801F2E04F0E511CF6
:205C0000F801C080D180692D70E036FC02C06FEF7FEFC6010E94542F4C01689437F882016D
:205C20000AC00C5F1F4FFFE3F98388248394912C6501E89437F833FE2DC0522C811491040C
:205C400071F5552009F468CFB70180E290E00E946A2F5A94F6CFF801808189830E5F1F4FDC
:205C6000E4CF2801F2E04F0E511CF801C080D180692D70E036FC02C06FEF7FEFC6010E9413
:205C80005F2F4C018201D5CFB70180E290E00E946A2F2A942814190409F0B0F7CECFF601F2
:205CA00037FC859137FE81916F01B70190E00E946A2F51105A94F1E08F1A9108BFCF8436D7
:205CC00019F0893609F077C0F80137FE6BC060817181828193810C5F1F4FF32DFF763F2EAE
:205CE00097FF09C090958095709561957F4F8F4F9F4F689437F82AE030E0A5010E949A2F20
:205D0000C82ECA188C2C432C36FE0CC0E89440F8C91440F434FE05C032FC03C0F32DFE7E3B
:205D20004F2E892C44FE95C0FE01EC0DF11D8081803309F087C0242D297E422E842D88708F
:205D4000582E43FC95C040FE8FC09C2C821418F42C0C922C981844FE91C0B70180E390E06E
:205D60000E946A2F42FE09C088E790E041FE02C088E590E0B7010E946A2FC91408F48AC00C
:205D8000CA94D12C9FEFC91AD90ACA0CDB1CF60182916F01B70190E00E946A2FAC14BD0429
:205DA000B1F74FCF60817181072E000C880B990B0E5F1F4F92CFD32CE894D4F82AE030E035
:205DC000853739F1232D297FD22E8F3601F148F48835A9F0F701868197812B96E2E10C9461
:205DE0007831803749F08837A9F7D4FE02C06894D2F820E130E00DC06894D4F8F6CF34FEB4
:205E000003C0822F8660D82E20E132E002C028E030E0F801D7FE0FC06081718182819381AE
:205E20000C5F1F4FA5010E949A2FC82ECA183D2CE89437F867CF6081718190E080E00E5F46
:205E40001F4FF0CF42FC02C0839478CF8394839475CF842D867809F471CFF6CFB70180E27A
:205E600090E00E946A2F83948214C0F3512C73CF522C5818821408F46ECFF8CF842D867825
:205E800009F47BCF8BE241FE80E247FC8DE2B70190E071CFB70180E390E00E946A2F9A949F
:205EA0006CCF8FEF9FEF99CFFC010590615070400110D8F7809590958E0F9F1F0895FC0131
:205EC0006150704001900110D8F7809590958E0F9F1F08950F931F93CF93DF93182F092F17
:205EE000EB018B8181FD09C01FEF0FEF812F902FDF91CF911F910F91089582FF14C02E8127
:205F00003F818C819D81281739073CF4E881F981CF0101969983888310838E819F8101961D
:205F20009F838E83E3CFE885F985812F0995892BA1F3DACFFA01AA27283051F1203181F129
:205F4000E8946F936E7F6E5F7F4F8F4F9F4FAF4FB1E03ED0B4E03CD0670F781F891F9A1FC4
:205F6000A11D680F791F8A1F911DA11D6A0F711D811D911DA11D20D009F468943F912AE06B
:205F8000269F11243019305D3193DEF6CF010895462F4770405D4193B3E00FD0C9F7F6CF98
:205FA000462F4F70405D4A3318F0495D31FD4052419302D0A9F7EACFB4E0A695979587950F
:205FC00077956795BA95C9F700976105710508959B01AC010A2E069457954795379527952F
:205FE000BA95C9F7620F731F841F951FA01D08950E943A3008F481E00895E89409C097FB01
:206000003EF490958095709561957F4F8F4F9F4F9923A9F0F92F96E9BB279395F6958795D2
:2060200077956795B795F111F8CFFAF4BB0F11F460FF1BC06F5F7F4F8F4F9F4F16C0882363
:2060400011F096E911C0772321F09EE8872F762F05C0662371F096E8862F70E060E02AF0D7
:206060009A95660F771F881FDAF7880F9695879597F90895990F0008550FAA0BE0E8FEEFE5
:2060800016161706E807F907C0F012161306E407F50798F0621B730B840B950B39F40A26E1
:2060A00061F0232B242B252B21F408950A2609F4A140A6958FEF811D811D08950E9471300D
:2060C0000C94E2300E94D43038F00E94DB3020F0952311F00C94CB300C94D13011240C94B9
:2060E00016310E94F33070F3959FC1F3950F50E0551F629FF001729FBB27F00DB11D639F4F
:20610000AA27F00DB11DAA1F649F6627B00DA11D661F829F2227B00DA11D621F739FB00D55
:20612000A11D621F839FA00D611D221F749F3327A00D611D231F849F600D211D822F762F94
:206140006A2F11249F5750409AF0F1F088234AF0EE0FFF1FBB1F661F771F881F9150504073
:20616000A9F79E3F510580F00C94CB300C9416315F3FE4F3983ED4F3869577956795B795D9
:20618000F795E7959F5FC1F7FE2B880F911D9695879597F9089597F99F6780E870E060E0D1
:2061A00008959FEF80EC089500240A941616170618060906089500240A94121613061406B9
:2061C00005060895092E0394000C11F4882352F0BB0F40F4BF2B11F460FF04C06F5F7F4F9F
:2061E0008F4F9F4F089557FD9058440F551F59F05F3F71F04795880F97FB991F61F09F3FFF
:2062000079F087950895121613061406551FF2CF4695F1DF08C0161617061806991FF1CF7A
:2062200086957105610508940895E894BB2766277727CB0197F90895F999FECF92BD81BDC0
:20624000F89A992780B50895262FF999FECF1FBA92BD81BD20BD0FB6F894FA9AF99A0FBEDE
:2062600001960895052E97FB1EF400940E94493157FD07D00E94933107FC03D04EF40C941A
:20628000493150954095309521953F4F4F4F5F4F089590958095709561957F4F8F4F9F4F09
:2062A00008950E94B531A59F900DB49F900DA49F800D911D112408952F923F924F925F9234
:2062C0006F927F928F929F92AF92BF92CF92DF92EF92FF920F931F93CF93DF93CDB7DEB7A3
:2062E000CA1BDB0B0FB6F894DEBF0FBECDBF09942A88398848885F846E847D848C849B84A7
:20630000AA84B984C884DF80EE80FD800C811B81AA81B981CE0FD11D0FB6F894DEBF0FBE68
:20632000CDBFED010895A1E21A2EAA1BBB1BFD010DC0AA1FBB1FEE1FFF1FA217B307E407E9
:20634000F50720F0A21BB30BE40BF50B661F771F881F991F1A9469F760957095809590950B
:206360009B01AC01BD01CF010895A29FB001B39FC001A39F700D811D1124911DB29F700D96
:20638000811D1124911D08955058BB27AA270E94DC310C94E2300E94D43038F00E94DB30A8
:2063A00020F039F49F3F19F426F40C94D1300EF4E095E7FB0C94CB30E92F0E94F33058F3DE
:2063C000BA17620773078407950720F079F4A6F50C9415310EF4E0950B2EBA2FA02D0B0172
:2063E000B90190010C01CA01A0011124FF27591B99F0593F50F4503E68F11A16F040A22F8D
:20640000232F342F4427585FF3CF469537952795A795F0405395C9F77EF41F16BA0B620B93
:20642000730B840BBAF09150A1F0FF0FBB1F661F771F881FC2F70EC0BA0F621F731F841F83
:2064400048F4879577956795B795F7959E3F08F0B0CF9395880F08F09927EE0F97958795F4
:2064600008950E9445320C94E2300E94DB3058F00E94D43040F029F45F3F29F00C94CB307A
:2064800051110C9416310C94D1300E94F33068F39923B1F3552391F3951B550BBB27AA27D3
:2064A00062177307840738F09F5F5F4F220F331F441FAA1FA9F335D00E2E3AF0E0E832D00A
:2064C00091505040E695001CCAF72BD0FE2F29D0660F771F881FBB1F261737074807AB07CA
:2064E000B0E809F0BB0B802DBF01FF2793585F4F3AF09E3F510578F00C94CB300C941631D2
:206500005F3FE4F3983ED4F3869577956795B795F7959F5FC9F7880F911D9695879597F994
:206520000895E1E0660F771F881FBB1F621773078407BA0720F0621B730B840BBA0BEE1FC6
:2065400088F7E09508950E94FB3088F09F5798F0B92F9927B751B0F0E1F0660F771F881F14
:20656000991F1AF0BA95C9F714C0B13091F00E941531B1E008950C941531672F782F88272C
:20658000B85F39F0B93FCCF3869577956795B395D9F73EF490958095709561957F4F8F4FB6
:2065A0009F4F08950E943A3008F48FEF08950E943A30880B990B089597FB072E16F40094E8
:2065C00007D077FD09D00E94F63207FC05D03EF4909581959F4F0895709561957F4F089597
:2065E000EE0FFF1F0590F491E02D0994AA1BBB1B51E107C0AA1FBB1FA617B70710F0A61B49
:20660000B70B881F991F5A95A9F780959095BC01CD01089512E0C7ECD2E004C0FE010E94AC
:20662000F0322196C83CD107C9F7F894FFCFFFFFFFFF8C058C058C058C058C0501010101B6
:206640007EFF06000000000000EF00E100000000000000C180810000000F0617061F0626A8
:20666000062D0635064306520659065D06620667066F06121314150F0E740678067D068291
:206680000687068C0691060000000015077606A3066107D406B206C60600000000060881A8
:2066A0000727081C086D082B08490800000000A609F009A50900000000C10D76065D09ADD4
:2066C00008BC08D408930800000000D80B0B0CA50900000000190BE70AA509446566617527
:2066E0006C74732056616C75652053617665640D0A00392D3136202D2D3E20002E000D0A16
:206700006F4F20454550524F4D2053657474696E6773204F6F0D0A0058616E7920697320B1
:206720004F464620210D0A00566F6C43683A202020202058414E590D0A00582D416E79204C
:206740004D73675B546F744E626C3D005D3D0020543D00416E676C653D002028006E616E33
:2067600000696E66006F766600C2B0292000582D416E79204C656E677468206572726F725D
:20678000210029202D3E20436865636B206578706563746564206D6573736167652021006E
:2067A000582D416E79204C656E677468206F7220436865636B73756D206572726F722100EB
:2067C00020250D0A00582D416E79204661696C7361666521202D3E204F7574707574732085
:2067E0003D2030000D0A496E697469616C697A696E67204446506C61796572202E2E2E0D3C
:206800000A00536F756E64204D6F64756C652056004446506C61796572206F6E6C696E65CD
:206820002E0D0A004446506C61796572206F66666C696E652E0D0A006F4F205553452043A6
:2068400052204F4E20594F5552205445524D494E414C204F6F0D0A0048697420456E746578
:2068600072206F722048202B20456E74657220666F722048656C700D0A000D0A4820486581
:206880006C700D0A00533D572057726974652044656661756C742053657474696E67730D90
:2068A0000A00533F20526561642053657474696E67730D0A00533D49205820583D313D5054
:2068C000574D2C20323D4350504D2C20333D534255532C20343D494255532C20353D5355DA
:2068E0004D442C20363D4A4554492C20373D5352584C0D0A00533D59205A20593D3120741E
:206900006F203420313D566F6C2C20323D507265762C20333D4E6578742C20343D506C6168
:206920007950617573652C353D506C617953616D65202F205A3D3120746F203132202843DE
