:020000040000FA
:100000000C94DB030C9406140C94DF130C94B813BB
:100010000C9491130C9403040C9403040C946A1331
:100020000C9403040C944C150C947F100C94EE105B
:100030000C9403040C9403040C9403040C94030424
:100040000C9403040C9403040C9403040C94030414
:100050000C9403040C9403040C9403040C942013D8
:100060000C9403040C9403040C9403040C940304F4
:100070000C9403040C9403040C9403040C940304E4
:100080000C9403040C9403040C9403040C940304D4
:100090000C942D140C9403040C9403040C9403048A
:1000A0000C9403040C9403040C94030400407A1091
:1000B000F35A00A0724E18090010A5D4E80000E819
:1000C0007648170000E40B54020000CA9A3B000077
:1000D00000E1F505000080969800000040420F0006
:1000E0000000A08601000000102700000000E803C7
:1000F000000000006400000000000A000000000092
:100100000100000000002C76D888DC674F0823DF50
:10011000C1DFAE59E1B1B796E5E3E453C63AE65123
:10012000997696E8E6C28426EB898C9B62ED407C4A
:100130006FFCEFBC9C9F40F2BAA56FA5F490055AE6
:100140002AF75C936B6CF9676DC11BFCE0E40D470B
:10015000FEF520E6B500D0ED902E0300943577052E
:100160000080841E080000204E0A000000C80C33E6
:100170003333330F986E12831141EF8D2114893B75
:10018000E65516CFFEE6DB18D1844B381BF77C1DF5
:10019000901DA4BBE424203284725E228100C9F148
:1001A00024ECA1E53D272E002564004E6F207365E9
:1001B0006E736F7220666F756E640A0053656E739E
:1001C0006F7220706F736974696F6E3A202564C214
:1001D000B0202D2D3E20536572766F2070756C73A4
:1001E000653A20256475530D0A00000000002400C4
:1001F00027002A002D003000000000002500280004
:100200002B002E00310000000000230026002900F2
:100210002C002F000404040404030405020202025B
:10022000040302020202060606060606040402028F
:100230000204040408020110408040102040804065
:10024000800802040180402010020110801020402C
:1002500040200000000200090F0000030401000C10
:10026000000000000000000000000000000000008E
:10027000080B000202020000090400000102020053
:1002800000052400100105240101010424020605D3
:100290002406000107058103100040090401000243
:1002A0000A00000007050202400000070583024023
:1002B00000000403090412010002EF0201404F1B79
:1002C0000692000101020301537061726B46756E64
:1002D00000537061726B46756E2050726F204D69CD
:1002E00063726F0050574D206D6F646520696E20FA
:1002F0007573650D0A000D0A005374617274696E9E
:100300006720776974686F757420636F6E666967BC
:1003100075726174696F6E00436F6E66696775729E
:100320006174696F6E206D6F64652069732061630D
:100330007469766564000D0A002E005761697420A7
:1003400052657475726E000D0A0D0A0043656E7475
:10035000657220736572766F3336303A20256400FB
:100360000D0A00582D416E79204368616E6E656CF0
:100370003A202564004F70656E41565263205861E3
:100380006E793253656E736F723336302056312E6C
:1003900030004552520043656E7465722073657279
:1003A000766F3336303A2025640D0A0D0A00582D39
:1003B000416E79204368616E6E656C3A2025640D4C
:1003C0000A000D0A526573657420454550524F4D21
:1003D00020446F6E650D0A000D0A576169742E2E58
:1003E0002E0D0A0020416E676C652053656E736F99
:1003F000723A20257320536572766F2076616C7592
:10040000653A2025730D0A00582D416E7920436806
:10041000616E6E656C3A20256420696E2075736587
:100420000D0A0D0A004A45544978206D6F64652015
:10043000696E207573650D0A0053554D44206D6F2C
:10044000646520696E207573650D0A0053524C581F
:10045000206D6F646520696E207573650D0A004913
:10046000425553206D6F646520696E207573650D6C
:100470000A0053425553206D6F646520696E2075E4
:1004800073650D0A004350504D206D6F64652069FF
:100490006E207573650D0A0050574D206D6F6465B1
:1004A00020696E207573650D0A0053657420696EAE
:1004B000204A45544978206D6F64650D0A005365E4
:1004C0007420696E2053554D44206D6F64650D0A8C
:1004D0000053657420696E2053524C58206D6F6430
:1004E000650D0A0053657420696E204942555320FA
:1004F0006D6F64650D0A0053657420696E20534268
:100500005553206D6F64650D0A0053657420696E44
:10051000204350504D206D6F64650D0A0053657483
:1005200020696E2050574D206D6F64650D0A00588C
:100530002D416E79204368616E6E656C3A202564AA
:1005400020696E207573650D0A00536572766F2001
:10055000706F736974696F6E2069733A2025640D3A
:100560000A00536561726368203020736572766F8C
:100570003336300D0A0051756974207365617263FA
:1005800068203020736572766F3336300D0A005361
:10059000656172636820302073656E736F720D0A37
:1005A000005175697420736561726368203020732F
:1005B000656E736F720D0A00E4031C041C0454047E
:1005C00054048C048C04C404C404FC04FC043405EA
:1005D00034056C056C05A405A405DC05DC051406D2
:1005E00014064C064C0684068406BC06BC06F406BB
:1005F000F4062C072C07640764079C079C07D407A4
:100600002E002E00C2B0202D2D3E20536572766F35
:1006100020706F736974696F6E3A2025640D0A004B
:1006200053656E736F7220706F736974696F6E3A81
:10063000202564002121212048616C6C2053656EC7
:10064000736F72206E6F7420666F756E64206F6EAC
:100650002061646472657373203078432021212106
:100660000D0A000D0A00536572766F2063656E7483
:1006700065722073617665643A202564000D0A0076
:100680002564000D0A00582D416E79204661696C81
:100690007361666521202D3E204F757470757473EB
:1006A000203D2030000D0A002A2A2A2A2A2A2A2A36
:1006B0002A2A2A2A2A2A2A2A2A2A2A2A2A2A0020CE
:1006C000250D0A002058616E79207175616C69747E
:1006D00079203D202564000D0A002A2A2A2A2A2A88
:1006E0002A2A2A2A2A2A2A2A2A2A2A2A2A2A2A2A6A
:1006F000000D0A00582D416E79204C656E677468B4
:10070000206F7220436F6E7369676E6573756D201D
:100710006572726F72210D0A0029202D3E20436FF1
:100720006E7369676E6520657870656374656420B3
:100730006D65737361676520636F6D706F73697446
:10074000696F6E210D0A0052784E6962626C654CC9
:10075000656E203D256400204578704E6962626CAC
:10076000654C656E3D256400582D416E79204C65C1
:100770006E677468206572726F7221000D0A00C284
:10078000B02920002028256400416E676C653D2556
:10079000640020543D2564005D3D00582D416E7974
:1007A000204D73675B546F744E626C3D2564000D81
:1007B0000A0092153F2111241FBECFEFDAE0DEBF01
:1007C000CDBF12E0A0E0B1E0E6E4F6E502C005909E
:1007D0000D92AA3FB107D9F725E0AAEFB2E001C018
:1007E0001D92A93AB207E1F713E0CAEDD3E004C0C5
:1007F0002197FE010E941629C93DD107C9F70E9421
:100800003F160C94162B0C940000FC0180915504AB
:10081000882311F13FB7F89482E08093E90020919A
:10082000F200822F90E01816190614F481E090E08F
:10083000882339F0289844E6409354044091F1000D
:100840004083222339F02091F200211103C02BE6CE
:100850002093E8003FBF08958FEF9FEF08952FB7D3
:10086000F89483E08093E9009091E800892F8072EA
:1008700095FF04C09091F20080E4891B2FBF08957A
:1008800080914C0481110DC082E08093480484E083
:100890008093490410924B0410924A0481E08093A3
:1008A0004C0488E494E0089589B18F70ECE9F3E09A
:1008B000878B868997898927858B8789868B00888E
:1008C000F189E02D099489B18F70ECE9F3E0878B11
:1008D000868997898927858B8789868B0288F38902
:1008E000E02D099489B18F70ECE9F3E0878B86895C
:1008F00097898927858B8789868B0684F785E02DE4
:10090000099489B18F70ECE9F3E0878B8689978928
:100910008927858B8789868B0484F585E02D09944A
:1009200008950895409190035091910320918E0372
:1009300030918F0342175307B4F49091E8009570FB
:10094000E1F39091E80092FD19C08093F10080914D
:1009500090039091910301968F739927892B19F435
:100960008EEF8093E800809190039091910301961F
:10097000909391038093900381E0089580E008951F
:10098000EF92FF920F931F93CF93DF93F82E192FBF
:10099000E62E042F81E0860F880F0E94920483E0E8
:1009A0000E949204CF2DD12FEC0EFD2EF11CCE15FE
:1009B000DF05B9F007FF13C0FE0184910E94920485
:1009C000182F80E00E949204812321968111EFCF9D
:1009D000DF91CF911F910F91FF90EF900895888143
:1009E000EDCF81E0F5CFDF92EF92FF920F931F934F
:1009F000CF93DF93D82E8A01EB017B01E40EF51E25
:100A0000CE15DF0559F0D7FE12C0FE0184910E9479
:100A1000920421968111F4CF0FEF1FEFC801DF91EF
:100A2000CF911F910F91FF90EF90DF9008958881F3
:100A3000EECF0F931F93CF93DF931F92CDB7DEB707
:100A400082E0898342E450E060E772E080E80E943F
:100A5000F3040E944004DC0112960D911C910115D3
:100A6000110589F0D801ED91FC910280F381E02D10
:100A7000BE016F5F7F4FC801099597FD04C0F80163
:100A800000851185ECCF89810F90DF91CF911F9167
:100A90000F910895615030F02091F100FC01208306
:100AA0000196F8CF289884E6809354040895CF9354
:100AB000DF931F92CDB7DEB76983DC01ED91FC9126
:100AC0000280F381E02D41E050E0BE016F5F7F4F77
:100AD00009950F90DF91CF9108950F931F93CF93B6
:100AE000DF938C01D0E0C0E0F801EC0FFD1F6491B2
:100AF000662341F086EA94E00E945705892B11F0A5
:100B00002196F2CFCE01DF91CF911F910F910895E1
:100B100083E08093E9008091F200882319F08AE352
:100B20008093E80008950E942F0490E00895CF93E9
:100B3000DF931F92CDB7DEB7FC018485958597FDC5
:100B400008C02FEF3FEF358724870F90DF91CF91BB
:100B50000895CE0101960E940504019719F4898138
:100B600090E0F3CF8FEF9FEFF0CF0F931F93CF93D2
:100B7000DF931F92CDB7DEB78C01FC01848595858C
:100B800097FF0BC0CE0101960E940504019771F4F6
:100B9000898190E0F80195878487F801848595859F
:100BA0000F90DF91CF911F910F9108958FEF9FEFDD
:100BB000F1CFFC018485958597FD0BC09FB7F89414
:100BC00082E08093E9008091F2009FBF90E001965F
:100BD00008959FB7F89482E08093E9008091F20035
:100BE0009FBF90E0089581508F3008F047C0E82FF4
:100BF000F0E0E350FA4F0C9416291A061E060C0674
:100C0000120616063E063E063E06210627062B065F
:100C10002F0635063E063906809180008F77809337
:100C200080000895809180008F7DF9CF80918000B1
:100C3000877FF5CF84B58F7784BD089584B58F7D88
:100C4000FBCF809190008F778093900008958091E2
:100C500090008F7DF9CF80919000877FF5CF8091B4
:100C6000C0008F778093C00008958091C0008F7D71
:100C7000F9CF8091C200877F8093C2000895CF93FF
:100C8000DF93282F30E0F901EE5AFD4F8491F901EE
:100C9000ED5CFD4FD491F901EC5EFD4FC491CC2386
:100CA000A1F081110E94F305EC2FF0E0EE0FFF1F81
:100CB000EA5FFD4FA591B491EC91ED2381E090E0C6
:100CC00009F480E0DF91CF91089580E090E0FACFC1
:100CD0001F93CF93DF93282F30E0F901EE5AFD4F99
:100CE0008491F901ED5CFD4FD491F901EC5EFD4F6B
:100CF000C491CC23A9F0162F81110E94F305EC2F8B
:100D0000F0E0EE0FFF1FE850FE4FA591B4918FB7B2
:100D1000F894EC91111108C0D095DE23DC938FBFBD
:100D2000DF91CF911F910895DE2BF8CFCF93DF9302
:100D300090E0FC01ED5CFD4F24918C5E9D4FFC0129
:100D400084918823D1F090E0880F991FFC01E6512F
:100D5000FE4FA591B491FC01E850FE4FC591D4918E
:100D600061110EC09FB7F8948C91E22FE0958E230D
:100D70008C932881E223E8839FBFDF91CF91089570
:100D80008FB7F894EC91E22BEC938FBFF6CF3FB77F
:100D9000F89480918A0390918B03A0918C03B09179
:100DA0008D0326B5A89B05C02F3F19F00196A11D04
:100DB000B11D3FBFBA2FA92F982F8827BC01CD01A5
:100DC000620F711D811D911D42E0660F771F881F04
:100DD000991F4A95D1F708958F929F92AF92BF9233
:100DE000CF92DF92EF92FF924B015C010E94C70607
:100DF0006B017C010E94C7066C197D098E099F0951
:100E0000683E734081059105A8F321E0821A91089C
:100E1000A108B10888EEC80E83E0D81EE11CF11CC1
:100E200081149104A104B10429F7FF90EF90DF90A1
:100E3000CF90BF90AF909F908F900895CF93C09127
:100E400015016AE070E080E090E00E94EC0681E02D
:100E5000C11101C080E0CF9108958F929F92AF920F
:100E6000BF92CF92DF92EF92FF920F931F93CF9397
:100E7000DF936C017B018A0180911501882309F4BD
:100E80005CC080915504882309F457C08091940375
:100E900080FF05C08091E00082608093E000E8015F
:100EA000B12C8AEFA82E93E0892E2AE3922E209768
:100EB00011F4BB20D9F10E942F0481110AC0AA9419
:100EC000AA20D9F161E070E080E090E00E94EC0699
:100ED000EECF8C171D0611F00CF08C2F9FB7F894F5
:100EE0008092E9002091E80025FD02C09FBFDFCF7E
:100EF000282F30E0C21BD30BF701815020F0419125
:100F00004093F100FACFE20EF31EBB2021F0909245
:100F1000E800B12CEBCF8091E80085FDE7CF9092FF
:100F2000E800BB24B394209709F3F3CF5D9884E6DF
:100F300080939303101611063CF081E090E0F601D7
:100F40009383828310E000E0C801DF91CF911F916D
:100F50000F91FF90EF90DF90CF90BF90AF909F9058
:100F60008F9008952FB7F89460918603709187034E
:100F700080918803909189032FBF0895089520914F
:100F80006203260F3327331F21323105ECF4209101
:100F90007C04FC0190E080E0243069F082E0089558
:100FA000A09162032191AC014E5B5C4FA40FB52F61
:100FB000B11D2C930196861798F380916203680FF8
:100FC0006093620380E0089581E0089510927C04AC
:100FD00081E080937B041092560461E082E00E94DD
:100FE000680661E083E00E946806E9EBF0E080813A
:100FF0008E7F808380818D7F808388E48093B8009A
:1010000085E48093BC000895CF93DF9391E09093A3
:1010100041038823B9F0C091B800D091BA00809103
:10102000BC008A7B8093BC0060E082E00E9468067E
:1010300060E083E00E9468060E94E607D093BA0051
:10104000C093B800DF91CF9108958F929F92AF9295
:10105000BF92CF92DF92EF92FF920F931F93CF93A5
:10106000DF93D091A504D13208F0D7C0182FC091DA
:10107000A4040E94C7066B017C0180917C0481114D
:101080006BC082E080937C0410937B048FEF80938D
:101090007A0410927904D0937804A4E8B4E0E8E5E7
:1010A000F4E080E0D81391C0109257048091570467
:1010B000CC0FC82BC093570480915604813009F09F
:1010C00088C0109256040E94C7066B017C01809173
:1010D00057048093BB0080917E0490917F04A0917F
:1010E0008004B0918104892B8A2B8B2BA1F00E9464
:1010F000C70600917E0410917F04209180043091F6
:1011000081046C197D098E099F09061717072807A6
:10111000390708F442C08091BC0083FDD8CF85EC2C
:101120008093BC000E94C7066B017C0180917C0407
:10113000823009F450C080917A048F3F09F46FC067
:1011400080917A04803209F46CC080917A048033F3
:1011500009F469C084E026C080917E0490917F04E8
:10116000A0918004B0918104892B8A2B8B2B09F4E8
:1011700084CF0E94C70680907E0490907F04A09048
:101180008004B09081046C197D098E099F09861630
:101190009706A806B90608F070CF80917D040E94DA
:1011A000040885E0109283041092A5041092820432
:1011B000DF91CF911F910F91FF90EF90DF90CF9033
:1011C000BF90AF909F908F9008959D9191938F5F66
:1011D00069CF85EEA5CF80917E0490917F04A09188
:1011E0008004B0918104892B8A2B8B2B09F49ECF2C
:1011F0000E94C70600917E0410917F042091800414
:10120000309181046C197D098E099F090617170713
:101210002807390708F08ACFC0CF81E0C3CF80E02C
:10122000C1CF82E0BFCF83E0BDCF0895E0919B03A3
:1012300080919A03E81730F4F0E0EF5DFC4F808175
:1012400090E008958FEF9FEF089590919B03809118
:101250009A032FEF3FEF981748F4E92FF0E0EF5D86
:10126000FC4F208130E09F5F90939B03C90108955C
:1012700080919A0390919B03891B990B0895CF92BB
:10128000DF92EF92FF920F931F93CF93DF937C0136
:10129000CB018A0120918204222389F0EB016B01AA
:1012A000C40ED51ECC15DD0569F06991D701ED910D
:1012B000FC910190F081E02DC7010995F3CF642FD7
:1012C0000E94BF07C801DF91CF911F910F91FF903E
:1012D000EF90DF90CF900895CF93DF931F92CDB71B
:1012E000DEB76983209182042223F9F02091A504BE
:1012F000203258F021E030E0FC013383228390E07B
:1013000080E00F90DF91CF91089580918304E82FC2
:10131000F0E0EC57FB4F998190838F5F80938304BB
:101320008093A50481E090E0ECCF61E0CE010196CE
:101330000E94BF07F7CF90E080E0089508956150C4
:10134000603140F5FC0124812F7059F0253010F5F3
:1013500070E0660F771F680F791FFB0181A592A5CA
:10136000089570E0660F771F680F791FFB0121A5B4
:1013700032A5A0E0B5E00E9466282FEF37E040E0FC
:1013800050E00E94E327DA01C90180599C4FAF4F1A
:10139000BF4F08958CED95E00895FC01E55BFF4F8C
:1013A0009081492F50E0062E02C0559547950A942A
:1013B000E2F7DA01A170BB2740FF09C021E030E06D
:1013C00001C0220F6A95EAF72095292320838A2FEE
:1013D000089590E080E00895CF92DF92EF92FF921F
:1013E000CF93DF93EC01CF8030E1C39E60011124E5
:1013F000C601C616D70608F4CB01288530E1239F25
:10140000F0011124AF018E179F0708F4AC0170E0C2
:1014100060E0DB01CA0122E0B595A7959795879515
:101420002A95D1F79E838D830D2C000CEE08FF08C2
:101430009A01AB012C193D094E095F09A4EBB0E0FC
:101440000E9402289F01FF0F440B550B2C193D09E8
:101450004E095F090E94E3272C83DF91CF91FF9013
:10146000EF90DF90CF9008950C94EC09BF92CF924B
:10147000DF92EF92FF920F931F93CF93DF930E941F
:10148000C7066B017C01C091B403D091B50301E0A4
:1014900010E0BB24BA94209709F459C08D81837061
:1014A0008130D1F52091B103422F50E08C818430FE
:1014B00048F48823C1F1813099F18230B9F522E0F6
:1014C00030E01AC098EF980F682F6450770B943073
:1014D00058F08E3029F18F3091F3803121F1813134
:1014E00029F1682F6651770B9B01B80102C0660F86
:1014F000771F2A95E2F79B0124233523232B61F0E4
:101500000E943F069D8192FB992790F9981789F0D8
:10151000CA86DB86EC86FD860A80DB81C02DBBCFC8
:1015200028E030E0E9CF24E030E0E6CF21E030E011
:10153000E3CF8A859B85AC85BD859601281B390B39
:101540003F872E87B88A0E94B207698BE5CFDF916B
:10155000CF911F910F91FF90EF90DF90CF90BF90B0
:101560000895BF92CF92DF92EF92FF920F931F9355
:10157000CF93DF930E94C7066B017C01C091B40337
:10158000D091B503BB24BA9401E010E0209709F490
:1015900058C08D818370D1F52091A503422F50E072
:1015A0008C81843048F48823C1F1813099F18230F4
:1015B000B9F522E030E01AC098EF980F682F645018
:1015C000770B943058F08E3029F18F3091F38031C1
:1015D00021F1813129F1682F6651770B9B01B80108
:1015E00002C0660F771F2A95E2F79B01242335235B
:1015F000232B61F00E943F069D8192FB992790F971
:10160000981789F0CA86DB86EC86FD860A80DB8126
:10161000C02DBCCF28E030E0E9CF24E030E0E6CFB9
:1016200021E030E0E3CF8A859B85AC85BD859601BE
:10163000281B390B3F872E87B88A0E94B207698B17
:10164000E5CFDF91CF911F910F91FF90EF90DF9049
:10165000CF90BF900895FC018685978526853785B4
:1016600082179307C9F70895FC01808990E0062E40
:1016700002C0959587950A94E2F780FF1CC02089E7
:1016800081E090E001C0880F6A95EAF78095822397
:10169000808B268537858685978528173907C9F772
:1016A000868197812817390730F081E04085518580
:1016B0004217530708F480E00895662399F080915B
:1016C0001C03861778F06150E62FF0E0EE0FFF1F45
:1016D000E65FFC4F808191812081318182179307E1
:1016E000C9F708958CED95E008952091090330E045
:1016F000062E02C0359527950A94E2F7C90181703C
:10170000992720FF0CC04091090321E030E001C07F
:10171000220F6A95EAF72095242320930903089560
:10172000CF92DF92EF92FF926B017C010E94B20791
:10173000C60ED71EE81EF91EC0920103D092020306
:10174000E0920303F09204030E94B2076C157D053A
:101750008E059F05C8F3FF90EF90DF90CF9008951E
:101760008F929F92AF92BF92CF92DF92EF92FF92B1
:101770000F931F93CF93DF9381E0809382048CE0DB
:101780008093A404109283041092A50460E286EF73
:1017900094E00E946C0981E00E942508C1E0DFEF1F
:1017A00015EE05EC0E94C7066B017C0180917C045C
:1017B000811161C0C0937C04C0937B04D0937A04F0
:1017C00010927904C0937804C09357048091570411
:1017D00088618093570480915604813009F0ABC032
:1017E000109256040E94C7066B017C018091570439
:1017F0008093BB0080917E0490917F04A09180042F
:10180000B0918104892B8A2B8B2BA1F00E94C706F3
:1018100080907E0490907F04A0908004B09081041A
:101820006C197D098E099F0986169706A806B906C8
:1018300008F442C08091BC0083FDD8CF0093BC0067
:101840000E94C7066B017C0180917C04813009F401
:1018500075C080917904823008F092C0809179043B
:10186000A8E5B4E0E1E2F3E090E0981751F12D91A2
:1018700021939F5FFACF80917E0490917F04A09185
:101880008004B0918104892B8A2B8B2B09F48ECF95
:101890000E94C70680907E0490907F04A0908004F0
:1018A000B09081046C197D098E099F0986169706F0
:1018B000A806B90608F07ACF80917D040E9404083A
:1018C00080E010929B0380939A03823009F06ACFE4
:1018D00086EF94E00E942509C82F86EF94E00E94CD
:1018E000250960E07C2FEB01C80FD11D6AE070E094
:1018F00080E090E00E94EC06DF70BE0190E080E0A6
:101900000E94AB2620E030E044EB53E40E940C2719
:1019100020E030E040E859E30E940C27DF91CF91AE
:101920001F910F91FF90EF90DF90CF90BF90AF90FD
:101930009F908F9008951093BC0082CF80917E0479
:1019400090917F04A0918004B0918104892B8A2B0F
:101950008B2B09F479CF0E94C70680907E0490906B
:101960007F04A0908004B09081046C197D098E09D9
:101970009F0986169706A806B90608F065CF9CCF82
:1019800082E06ECFFC0101900020E9F73197AF01B2
:10199000481B590BBC0186EA94E00C942D070C946B
:1019A000C20CCF93DF930E94C20CEC0186EF92E051
:1019B0000E94C20C8C0F9D1FDF91CF9108950C9453
:1019C000D527CF93DF93D82FC92F84E090E00E94D2
:1019D000CD27D81729F06D2F84E090E00E94D527FD
:1019E00085E090E00E94CD27C81739F06C2F85E084
:1019F00090E0DF91CF910C94D527DF91CF9108959E
:101A00000C94CD27CF9384E090E00E94000DC82F66
:101A100085E090E00E94000D90E0982F88278C0FC1
:101A2000911DCF9108958F929F92AF92BF92CF92C6
:101A3000DF92EF92FF920F931F93CF93DF93962E37
:101A4000D0E0C0E0082F10E087E0A82EB12C98EA83
:101A5000E92E91E0F92E24E6822E31ECC32E33E0FC
:101A6000D32E0E941E07882311F1C5018C1B9D0BEC
:101A7000980102C0359527958A95E2F7C9018170D2
:101A800099279F938F93FF92EF921F928F92DF92ED
:101A9000CF920E94A82181EC93E00E94CF0C8DB7D9
:101AA0009EB708960FB6F8949EBF0FBE8DBFC33089
:101AB00051F491100CC00E941E07882321F086EA81
:101AC00091E00E946D052196C830D10551F6DF9155
:101AD000CF911F910F91FF90EF90DF90CF90BF902B
:101AE000AF909F908F9008950F931F93CF93DF93A4
:101AF000EC0188819981009759F02A813B81261752
:101B0000370730F081E0DF91CF911F910F91089559
:101B10008B016F5F7F4F0E94412A009759F0998394
:101B200088831B830A832C813D81232B59F7FC0179
:101B30001082E8CF80E0E7CFCF93DF93EC0188817C
:101B40009981009711F00E94B829198218821D828C
:101B50001C821B821A82DF91CF910895EF92FF922F
:101B60000F931F93CF93DF93EC017B0119821882AF
:101B70001B821A821D821C82FB0101900020E9F762
:101B800031978F01061B170BB8010E94740D81114C
:101B900009C0CE01DF91CF911F910F91FF90EF907F
:101BA0000C949C0D1D830C83B70188819981DF9172
:101BB000CF911F910F91FF90EF900C940F2BEF920C
:101BC000FF920F931F93CF93DF938C017B01EB0167
:101BD00009900020E9F72197C61BD70BBE010E9490
:101BE000740D811109C0C801DF91CF911F910F9130
:101BF000FF90EF900C949C0DF801D583C483B7013E
:101C000080819181DF91CF911F910F91FF90EF9093
:101C10000C940F2BFC0180819181009711F00C94A2
:101C2000B829089585ED8093BC0080917E04909141
:101C30007F04A0918004B09181040796A11DB11D7D
:101C400023E0B695A795979587952A95D1F720918A
:101C5000BC0024FD03C010927C04089540917E04D2
:101C600050917F046091800470918104452B462B34
:101C7000472B69F30097A105B10541F025E32A95AB
:101C8000F1F700000197A109B109E1CF80917D042E
:101C90000C9404084F925F926F927F928F929F9262
:101CA000AF92BF92CF92DF92EF92FF920F931F936A
:101CB000CF93DF93CDB7DEB7182F4DB65EB60E9437
:101CC000C706111117C0C0901D03D0901E03E090ED
:101CD0001F03F09020039B01AC012C193D094E0914
:101CE0005F0969017A0130E2C3163EE4D306E104DC
:101CF000F104D8F060931D0370931E0380931F03BB
:101D000090932003A0914F05B0915005FD0110E084
:101D1000309741F083818F3F09F01F5F0184F28586
:101D2000E02DF6CF111118C011E0812F0FB6F894F5
:101D30005EBE0FBE4DBEDF91CF911F910F91FF9000
:101D4000EF90DF90CF90BF90AF909F908F907F905B
:101D50006F905F904F900895C12ED12CC601880FCF
:101D6000991F4DB75EB7481B590B0FB6F8945EBF6D
:101D70000FBE4DBF8DB79EB701964C0120E0109766
:101D8000A1F013968C9113978F3F51F0822F90E022
:101D9000880F991F880D991DFC01B183A0832F5FC7
:101DA00019960D90BC91A02DEACFF401A081B181CC
:101DB00012968C9112978E7F12968C937401D40197
:101DC00000E0BB24B394B116F1F012968D919C9172
:101DD0001397FC0122812E7F22832D913D916581F5
:101DE0007681F901458156816417750750F4119683
:101DF0003C932E939D0122503109F90191838083F8
:101E000001E0B394E0CF0111D9CFD40161E01617FE
:101E1000D9F012962D913C911397F9018581968105
:101E2000FD01408151811296FA0145815681841746
:101E3000950721F0841B950B069720F4F901828108
:101E4000816082836F5FE3CFF89454019924939467
:101E5000D501ED91FD915D01628166956170692505
:101E600083810E9468060F5F1013F2CF789406B545
:101E7000AA24A394B12C712C612C802E912CD70113
:101E8000ED91FC9185819681880D991DBC0164506E
:101E90007109402F06B5041708F473949301200FBD
:101EA000311DD701ED91FC911197428140FD09C090
:101EB0006217730730F4F894ED91FC914281416010
:101EC0004283402F8217930728F7D701ED91FC91A9
:101ED00062816695617083810E946806AC14BD04BE
:101EE0003CF4D7011296ED91FC91828180FD01C0F6
:101EF0007894B2E0EB0EF11CEFEFAE1ABE0A8FEF52
:101F00008A0D811708F4BBCF0FCF80E00C944A0EE6
:101F1000CF92DF92EF92FF92CF93DF93EC010E947A
:101F2000B00B6B017C01C0920503D0920603E092D6
:101F30000703F09208030E94E728CE01861B970B47
:101F400097FF03C09195819591090597B4F0BE0163
:101F500090E080E00E94AB269B01AC01C701B60176
:101F60000E94A62668EE73E087FD02C060ED77E070
:101F70008AE995E00E94EC090AC06091B90370916A
:101F8000BA038AE995E00E94EC091092BF0381E050
:101F90000E944A0E0E941E078823A9F180919F0586
:101FA0009091A005880F991F880F991F9F938F9379
:101FB00060910503709106038091070390910803D7
:101FC0000E94E7287F936F938CEB91E09F938F9310
:101FD0001F9284E68F9381EC93E09F938F930E94EE
:101FE000A8218DB79EB70A960FB6F8949EBF0FBE74
:101FF0008DBF81EC93E0DF91CF91FF90EF90DF9068
:10200000CF900C94CF0CDF91CF91FF90EF90DF90A9
:10201000CF9008950F931F93CF93DF93CDB7DEB783
:102020002F970FB6F894DEBF0FBECDBF11E001E0D1
:10203000009382041093A404109283041092A504C8
:1020400081E00E942508811155C01C3009F052C062
:102050001B861A861D861C861F861E8640E1BE01D1
:102060006F5F7F4F8CE090E00E948E21BE016F5F1A
:102070007F4FCE010A960E94DF0D0A851B85011550
:10208000110571F0F80181918F01882349F0082E24
:10209000000C990B0E94FE2AF80131978083F2CF41
:1020A00080E791E00E94CF0C4E855F856A857B8535
:1020B00086EA94E00E942D0781E08093B803CE0168
:1020C0000A960E940A0E8091B803811108C00E94EE
:1020D0001E07882321F08BEA91E00E946D052F9660
:1020E0000FB6F894DEBF0FBECDBFDF91CF911F9129
:1020F0000F9108951F5F1F3709F09ACFE4CF1F9209
:102100000F920FB60F9211248F939F938091E1004D
:102110009091E100937F9093E10083FF0FC01092B4
:10212000E90091E09093EB001092EC0092E3909321
:10213000ED001092550498E09093F00082FF22C0C9
:1021400093E09093E9009091F200992319F09AE3BB
:102150009093E80090919303992341F09091930319
:10216000915090939303911101C05D9A9091540402
:10217000992341F0909154049150909354049111FB
:1021800001C0289A84FF18C08091E2008E7E816091
:102190008093E2008091E1008F7E8093E100809146
:1021A00094038E7E8061809394039F918F910F9012
:1021B0000FBE0F901F90189580FFF7CF8091E2001F
:1021C0008E7E80618093E2008091E1008E7E80931C
:1021D000E100809194038E7E8160E5CF1F920F9283
:1021E0000FB60F921124CF92DF92EF92FF920F93CE
:1021F0001F932F933F934F935F936F937F938F938F
:102200009F93AF93BF93EF93FF93CF93DF93CDB79C
:10221000DEB76C97DEBFCDBF1092E9008091E80079
:1022200083FF25C068E0CE0145960E944A0582EFF3
:102230008093E8008D8987FF39C09091E80090FF76
:10224000FCCF982F907609F034C19E894F89588D24
:102250002F89F88C911131C0803861F580919503F8
:102260008093F1001092F1008EEF8093E8006C965D
:102270000FB6F894DEBF0FBECDBFDF91CF91FF91B7
:10228000EF91BF91AF919F918F917F916F915F91EE
:102290004F913F912F911F910F91FF90EF90DF9001
:1022A000CF900F900FBE0F901F9018959EEF9093B8
:1022B000E800C7CF1092F100D5CF913059F48111C9
:1022C000D3CF4130510581F6809195038D7F809366
:1022D0009503CACF933049F48111C6CF41305105DF
:1022E00019F6809195038260F2CF953041F4809188
:1022F000E80080FFFCCF20682093E300B5CF963044
:1023000009F0A9C00B8D1C8D22E01092E9001092FB
:10231000910310929003F2122EC010928F0310922C
:102320008E030E9419051F8299E09983FA8291E039
:102330009E8390EA98879AEF998720919003309135
:102340009103275F3F4F3C832B838D831092E900DD
:10235000109291031092900310938F0300938E03B9
:1023600049E050E0BE016F5F7F4F80E00E94F304C0
:102370000E94190579CF10938F0300938E030E945A
:102380004004DC0112960D911C910115110509F410
:1023900051C1D801ED91FC910480F581E02DBE0181
:1023A0006B5E7F4FC8010995009709F03EC1F801A7
:1023B00000851185EACFF3E0FF120EC08F898823D4
:1023C00009F440C0823061F440E862E181ED92E0BE
:1023D0000E94C004811148CF81E28093EB0047CF77
:1023E000813029F440E868E088EC92E0F1CF833056
:1023F00099F70E944004DC011296ED90FC908E014A
:102400000F5F1F4F6801E114F10479F0D701ED91DE
:10241000FC910680F781E02DB801C7010995080FEE
:10242000111DF701E084F184EECFD8011C92F60172
:1024300001900020E9F73197BF016C197D0940E058
:10244000C601C6CF62EB72E0FB01449150E080E828
:102450000E94F30409CF973009F4BECF983021F4DD
:1024600081E08093F10000CF993009F0FDCE8370B8
:1024700009F0B2CFEEE1F1E081E031E096E32191A5
:10248000222371F08093E9003093EB00DF01119774
:102490002C912093EC009093ED008F5F873079F7BB
:1024A0008EE78093EA001092EA008F8980935504AA
:1024B000DBCE8B8D9C8D1092E900109291031092CF
:1024C000900390938F0380938E03898D811192C026
:1024D0008E899D89913A49F4813209F07DCF47E098
:1024E00050E06EE071E080E0B3CF913209F074CF3C
:1024F000833269F48F89988DB0E0A0E08093000169
:1025000090930101A0930201B0930301ADCE8032FC
:1025100069F48091E80082FFFCCF67E08EE091E0F3
:102520000E944A058BEF8093E8009ECE823209F02C
:102530009BCE8F8980931501EEEFFFE785919491F3
:102540008B3F9C4D51F1E0E0F8E080910E019091BD
:102550000F01A0911001B0911101803B9440A105A1
:10256000B105F1F48091150180FD1AC0EE3F8AE0BB
:10257000F80789F587E797E791838083809160006A
:102580008093920388E19BE00FB6F894A89580931E
:1025900060000FBE9093600067CEEEEFFAE0D5CFFB
:1025A000808191818737974709F05ECEA895809109
:1025B0006000886180936000809192038093600046
:1025C000EE3F2AE0F20789F08091FE0A9091FF0A1F
:1025D0009183808349CE808191818737980751F21A
:1025E0009093FF0A8093FE0AC5CF1092FF0A1092C3
:1025F000FE0A3ACE0E944004DC0112960D911C9115
:102600000115110509F4E8CED801ED91FC91019076
:10261000F081E02DBE016B5E7F4FC80109958111ED
:1026200023CEF80100851185EBCF181619060CF49E
:102630001BCED2CEF1E0FF12BECE66EB72E004CF2D
:102640001F920F920FB60F9211242F933F938F93E7
:102650009F93AF93BF938091860390918703A0913E
:102660008803B09189033091850323E0230F2D3730
:1026700058F50196A11DB11D209385038093860313
:1026800090938703A0938803B093890380918A0372
:1026900090918B03A0918C03B0918D030196A11DA5
:1026A000B11D80938A0390938B03A0938C03B09306
:1026B0008D03BF91AF919F918F913F912F910F907B
:1026C0000FBE0F901F90189526E8230F0296A11DAC
:1026D000B11DD2CF1F920F920FB60F9211242F93DC
:1026E0003F934F935F936F937F938F939F93AF939A
:1026F000BF93EF93FF93E0910C01F0910D010995C9
:10270000FF91EF91BF91AF919F918F917F916F91C9
:102710005F914F913F912F910F900FBE0F901F909F
:1027200018951F920F920FB60F9211242F933F937B
:102730004F935F936F937F938F939F93AF93BF93C9
:10274000EF93FF93E0910A01F0910B010995FF913E
:10275000EF91BF91AF919F918F917F916F915F9119
:102760004F913F912F910F900FBE0F901F90189592
:102770001F920F920FB60F9211242F933F934F93F6
:102780005F936F937F938F939F93AF93BF93EF93D9
:10279000FF93E0910801F09109010995FF91EF91F4
:1027A000BF91AF919F918F917F916F915F914F9169
:1027B0003F912F910F900FBE0F901F9018951F9271
:1027C0000F920FB60F9211242F933F934F935F9365
:1027D0006F937F938F939F93AF93BF93EF93FF93E9
:1027E000E0910601F09107010995FF91EF91BF91EA
:1027F000AF919F918F917F916F915F914F913F9199
:102800002F910F900FBE0F901F9018951F920F924F
:102810000FB60F9211242F933F934F935F936F93B3
:102820007F938F939F93AF93BF93EF93FF93E09129
:102830000401F09105010995FF91EF91BF91AF91CE
:102840009F918F917F916F915F914F913F912F91C8
:102850000F900FBE0F901F9018951F920F920FB6FA
:102860000F9211242F933F934F935F936F937F9316
:102870008F939F93AF93BF93EF93FF938091B90092
:10288000887F803609F44AC0F0F5883209F4A7C081
:1028900018F5803109F49BC0B8F4882309F4F9C015
:1028A000883009F494C0FF91EF91BF91AF919F914F
:1028B0008F917F916F915F914F913F912F910F90E9
:1028C0000FBE0F901F901895883109F488C0803290
:1028D00051F780937A0414C0803409F49DC040F409
:1028E0008033B9F38833F9F680937A0485ECB0C06D
:1028F000803509F485C0883509F496C0883499F686
:102900000E94120ED0CF883909F48CC038F5883770
:1029100029F050F4883611F0803729F683E080934F
:102920007C041092840357C0883809F47BC0803936
:1029300019F0803809F0B7CF80918403803208F015
:1029400071C0E091840381E08E0F809384038091B5
:10295000BB00F0E0EC59FC4F80833DC0803B39F078
:10296000E0F4803A09F479C0883A09F09CCF84E019
:1029700080937C041092630310926203E0919803A9
:10298000F091990309958091620381110FC081E054
:10299000809362031092420309C0803C09F4A6CFE1
:1029A000883C09F4A3CF883B09F07DCFE091630315
:1029B00081E08E0F80936303F0E0EE5BFC4F80813B
:1029C0008093BB00909163038091620329C0809142
:1029D00057048093BB0085EC8093BC0064CF90913A
:1029E000790480917804981758F5E091790481E092
:1029F0008E0F80937904F0E0E85AFB4F8081E9CF95
:102A0000E091790481E08E0F809379048091BB007E
:102A1000F0E0E85AFB4F808390917904809178042C
:102A20009817C8F285E8D8CFE091790481E08E0F3D
:102A3000809379048091BB00F0E0E85AFB4F8083DB
:102A400080917B0481115CCF81E08093560484EAFD
:102A50008093BC0010927C0426CF85EC8093BC0050
:102A600010927C0480918403803230F4E0918403DE
:102A7000F0E0EC59FC4F10826091840370E0E0912B
:102A80009603F091970384E693E0099510928403EE
:102A90000ACF10927A0434CF1F920F920FB60F9282
:102AA00011242F933F934F935F936F937F938F9353
:102AB0009F93AF93BF93CF93EF93FF9383B1909185
:102AC0006B0089238093A7038091A6039091A703AD
:102AD00089278093A5038091A7038093A603C0E074
:102AE0008091A403C81760F4EC2FF0E0EE0FFF1FF5
:102AF000E456FC4F0190F081E02D0995CF5FF0CFB7
:102B0000FF91EF91CF91BF91AF919F918F917F9165
:102B10006F915F914F913F912F910F900FBE0F904A
:102B20001F901895CF93DF93E6EAF4E013821282A8
:102B300088EE93E0A0E0B0E084839583A683B7831A
:102B400028E231E0318320832FEF3FEF3587248760
:102B5000E6EFF4E01382128284839583A683B78321
:102B60008AE391E091838083E2E0F5E08CE491E0F8
:102B700091838083138212821682108610924D05F3
:102B8000EBE2F5E080E2DF011D928A95E9F7EAE9E0
:102B9000F5E08AE691E0918380838FEF838316824C
:102BA000158280914F059091500592878187F0930F
:102BB0005005E0934F0580914E0591E0980F9F706E
:102BC000807F892B80934E050E94B2070E94B20736
:102BD0006093960570939705809398059093990557
:102BE0000E94B207609392057093930580939405B9
:102BF000909395050E94B20760938E0570938F05A0
:102C00008093900590939105CCE7D5E080E691E024
:102C100099838883E1E8F5E080818B7F80839091C0
:102C20001601E9E7F5E08081A0E7B5E01296DC93B4
:102C3000CE9311979F71906C9C9318961C92189745
:102C400091812281207F2960228380719C7792600C
:102C5000918380628F7E808314961C9214971596C0
:102C60001C9286E591E090936F0580936E0561E577
:102C700075E088E695E0DF91CF910C94AE0DCF938F
:102C8000DF93CDB7DEB7AD970FB6F894DEBF0FBEBA
:102C9000CDBF789484B5826084BD84B5816084BDE5
:102CA00085B5826085BD85B5816085BD80916E00EA
:102CB000816080936E00109281008091810082601B
:102CC0008093810080918100816080938100809158
:102CD0008000816080938000809191008260809369
:102CE000910080919100816080939100809190008B
:102CF0008160809390008091C10084608093C100C6
:102D00008091C10082608093C1008091C100816088
:102D10008093C1008091C30081608093C300809143
:102D2000C00082608093C0008091C2008160809367
:102D3000C20080917A00846080937A0080917A004A
:102D4000826080937A0080917A00816080937A001B
:102D500080917A00806880937A00109255041092D6
:102D60009503109294038091D70081608093D700DF
:102D700080EA8093D80089B5806189BD89B5826079
:102D800089BD09B400FEFDCF61E070E080E090E015
:102D90000E94EC068091D8008F7C80618093D800DF
:102DA0008091E000807F8093E0008091E1008E7E42
:102DB0008093E1008DE08093E200559A209A61E0D3
:102DC00081E10E9496068FEF9FEF9093B30480936A
:102DD000B2040E941E078823E1F385E793E00E9476
:102DE0006D0586EF92E00E94C20C86EF92E00E9491
:102DF000C20C10929B0310929A03109283041092BB
:102E0000A5040E94E60780E994E0909399038093DB
:102E1000980381E994E090939703809396038CE064
:102E20008093B8000E940A1086EF92E00E94C20CC4
:102E300084E080939D058FEF80939E0582E28093CE
:102E4000A10586E98093A20580919C058D7F8093E2
:102E50009C0560E084E00E94680661E080919D0529
:102E60000E9496066091B9037091BA038AE995E0D1
:102E70000E94EC0981E00E944A0E1092260481E033
:102E80008093C00381E090E00E94000D811105C095
:102E900061E081E090E00E94DF0C81E090E00E9420
:102EA000000D8093B70382E090E00E94000D811135
:102EB00005C065E082E090E00E94DF0C82E090E0D7
:102EC0000E94000D809316010E94020D892B21F4AF
:102ED0008CED95E00E94E10C0E94020D9093BA03E4
:102EE0008093B9030E941E078823D1F080911601B8
:102EF0001F928F9383E693E09F938F931F9284E6B4
:102F00008F9381EC93E09F938F930E94A82181EC93
:102F100093E00E94CF0C0FB6F894DEBF0FBECDBF7A
:102F20000E941E07882321F080E693E00E946D0531
:102F30000E941E078823E1F08091BA038F9380914D
:102F4000B9038F938CE493E09F938F931F9284E651
:102F50008F9381EC93E09F938F930E94A82181EC43
:102F600093E00E94CF0C0FB6F894DEBF0FBECDBF2A
:102F70000E941E07882321F087E493E00E946D05DC
:102F800064EF71E080E090E00E94900B80912F044C
:102F900081118AC068EF72E0CE0101960E94AE0DE9
:102FA0000E941E07882321F08BE393E00E946D05A9
:102FB0000E94B207009196051091970520919805FF
:102FC00030919905601B710B820B930B61347F412B
:102FD0008105910508F064C00E94B2070091920536
:102FE000109193052091940530919505601B710B0C
:102FF000820B930B683E73408105910590F00E940F
:103000001E07882321F089E393E00E946D050E944A
:10301000B207609392057093930580939405909303
:10302000950586EA94E00E94D905181619060CF059
:10303000BFCF86EA94E00E949705F82E8AA31BA2D0
:103040000D811E810F5F1F4FB801CE0101960E94B6
:10305000740D882369F029813A818D819E81BE019A
:103060006E5D7F4F820F931F0E940F2B1E830D8377
:10307000EDE0FE129DCFC980DA80C114D10439F091
:10308000ED80FE808601E114F10409F0CEC168EF05
:1030900072E0CE0101960E94DF0D81E080932F0443
:1030A000CE0101960E940A0E0E941E07882321F07D
:1030B00086E393E00E946D0580912F04882309F434
:1030C000EDC10E941E07882321F088E193E00E9451
:1030D0006D050E941E07882321F086EF92E00E9472
:1030E0006D058091B703813009F073C06AEF70E01D
:1030F00080E090E00E94900B61E08DE00E94680605
:103100006DE770E080E090E00E94900B60E08DE061
:103110000E9468060E941E07882321F084EE92E038
:103120000E946D0580912F04811153C0809181050B
:103130008C7F81608093810526E33AE03093AD0374
:103140002093AC0324E534E0309309012093080177
:10315000909169009F7C906190936900EA9A8C7FBE
:103160008160809381051092800588E592E09093BC
:1031700083058093820580E699E09093850580938E
:1031800084058091B4039091B50390937F0580935B
:103190007E058CE795E09093B5038093B40360E0DF
:1031A00080E00E94960661E0809180050E9468069A
:1031B00080918005843008F07FC19DB3882309F495
:1031C00075C1813009F474C1823009F073C1892B53
:1031D0008DBBB1ECEB2EB3E0FB2EF4E82F2EF7E025
:1031E0003F2EA9E8CA2EA7E0DA2E80914004811173
:1031F0000DC00E94B20760933C0470933D0480931D
:103200003E0490933F0481E0809340048091340415
:1032100081110DC00E94B207609330047093310495
:10322000809332049093330481E08093340480913E
:103230002F04882309F4A4C186EA94E00E94D905EA
:1032400018161906ACF486EA94E00E94970590914E
:10325000B603883009F48AC18D3009F079C2E92FAC
:10326000F0E0EF5AFA4F10821092B60397FF7CC23B
:103270008091BF03882331F08091BD039091BE03FC
:103280000E94880F8091BC03882309F478C0809144
:10329000B803882309F4A6C70E94B20700918E05DF
:1032A00010918F052091900530919105601B710B55
:1032B000820B930B623371058105910508F45FC0A1
:1032C0000E94B00B0E94E728162F072F862F902F01
:1032D00097FF03C091958195910905970CF477C7E5
:1032E00068E775E08AE995E00E94EC090E941E07F4
:1032F0008823B1F00F931F9380E296E09F938F9302
:103300001F9284E68F93FF92EF920E94A82181EC96
:1033100093E00E94CF0C0FB6F894DEBF0FBECDBF76
:103320000E941E078823F1F080919F059091A005CF
:10333000880F991F880F991F9F938F9384E096E0C1
:103340009F938F931F9284E68F93FF92EF920E9438
:10335000A82181EC93E00E94CF0C0FB6F894DEBF59
:103360000FBECDBF0E94B20760938E0570938F058C
:10337000809390059093910581E00E944A0E809180
:10338000BB03882309F448C0812C912C540104E824
:1033900013E0A3019201C501B4010E94A62688236F
:1033A00009F42AC70E94B00B2B013C01B8018AE93D
:1033B00095E00E94EC090E94B00B4B015C010E9459
:1033C0001E078823D1F0C501B4010E94E7287F932E
:1033D0006F9360E876E07F936F931F9294E69F93DC
:1033E000FF92EF920E94A82181EC93E00E94CF0C03
:1033F0000FB6F894DEBF0FBECDBF0E941E07882314
:1034000021F08DE796E00E946D0584E10E944A0E4E
:103410008091BB0381112BC780E090E0892B09F4D8
:10342000E4CE0E940000D9CE85015801FFEFAF1A0B
:10343000BF0AD8018C91082E000C990B0E94E92537
:10344000892B91F7B1E0EB1AF108EC0CFD1CF701A8
:103450008081082E000C990B0E94E925892B39F0F8
:10346000E016F10620F0F1E0EF1AF108F0CF2FEFAF
:10347000E21AF20AA701401B510B5E834D83C0166E
:10348000D10620F4B801C6010E94062BE981FA8119
:103490008D819E81E80FF91F1082F9CD0E941E07D1
:1034A000882309F416CE89EF92E011CE84E08FCE06
:1034B00088E08DCE81E08BCE28EF280F243048F0B5
:1034C00092EF980F943028F096EE980F933008F012
:1034D00080CE90916800243050F032EF380F3430B5
:1034E00030F036EE380FF0E0E0E0333010F4E8E68C
:1034F000F0E091609083243050F092EF980F943078
:1035000030F096EE980FF0E0E0E0933010F4EBE648
:10351000F0E030812430C8F491E0682F6450770BDC
:10352000AB0101C0990F4A95EAF7932B243048F07C
:1035300022EF280F243028F08A51F0E0E0E08330B9
:1035400010F4EBE6F0E0908344CE98E08E3069F31F
:1035500092E08F3051F394E0803139F391E0813182
:1035600021F3A82FA651BB0BAD01DBCF992309F4A2
:103570007FCE91509093B60380912F04811178CE25
:1035800080917105909172056091700562956695C4
:103590006770DC01ED91FC910190F081E02D0995BF
:1035A000882309F49CC38091710590917205609104
:1035B00070056F71DC01ED91FC910280F381E02DCB
:1035C0000995AC01909377058093760580917905F4
:1035D00080618093790528EB35E080E0F901659101
:1035E00074914617570708F474C3F9013296659130
:1035F00074916417750708F46CC330917A05432FF2
:10360000441F4427441F90917B05292F2F70220FC0
:10361000242B821397C390917B05292F22952F701D
:103620002F5F2770322F3295307F9F78932B9093A6
:103630007B0530917905432F437050E04F5F5F4F1A
:103640002417150609F04BC390917A05803109F0D3
:1036500085C3329536953770892F8370880F880F10
:10366000880F832B880F880F9378982B90937A0577
:1036700090917A05292F269526952F71322F329514
:10368000330F307E809179058F71832B322F3695E1
:10369000369536959C7F932B90937A059C7794343E
:1036A00009F064C3877F80937905809175059091B7
:1036B000790592FF93C3863008F08EC3E82FF0E0BF
:1036C000E75DFB4F909174059083806810927505BB
:1036D000909179059B7F90937905882309F4FFC227
:1036E000909127049F5F90932704982F9F77B92E7E
:1036F000BB0C87FDB394892F90E0FC01E85DFB4F84
:103700004081EB2DE170AE2EB0FE12C0FC01E75DF2
:10371000FB4F2081022E000C330B64E0359527957A
:103720006A95E1F72F70F0E14F02A0011124422BBE
:1037300050E060E00197262F30E0281739070CF0A1
:1037400056C3275D3B4FD9012C9152276F5FF3CFB2
:10375000963138F4E92FF0E0EF5AFA4F80839F5FFB
:1037600009CF1092B60308CF80915105883451F0EB
:103770000CF047C0833409F48FC0843409F43EC090
:10378000811146C08DE891E00E94D10C84E991E05E
:103790000E94D10C8BE991E00E94D10C8FEA91E05C
:1037A0000E94D10C88ED91E00E94D10C89EE91E04D
:1037B0000E94D10C8BEF91E00E94D10C8DE092E041
:1037C0000E94D10C8FE192E00E94D10C81E392E043
:1037D0000E94D10C83E492E00E94D10C86E592E035
:1037E0000E94D10C84E792E00E94D10C80EA92E022
:1037F0000E94D10C8BEC92E00E94D10C10925205E9
:1038000023C0813509F455C254F48D3409F473C0D2
:1038100062E973E081E595E00E947F2115C0823561
:1038200009F4CAC18A35A1F7809153058133C1F4E7
:103830008091BC03882369F00E941E07882321F031
:1038400081EA95E00E946D0581E595E00E94D10C2A
:1038500093CE0E941E078823B9F38FE895E0F2CF3C
:10386000823391F78091BB03882379F00E941E0771
:10387000882321F086E795E00E946D058091BB03C7
:1038800091E089278093BB03DFCF0E941E07882326
:10389000A9F382E695E0F0CF809152058D3359F57A
:1038A00083E595E00E9461218C018936914008F5FD
:1038B0000E941E078823B1F01F930F938AE495E0BE
:1038C0009F938F931F9284E68F93FF92EF920E94B3
:1038D000A82181EC93E00E94CF0C0FB6F894DEBFD4
:1038E0000FBECDBF1093BE030093BD0381E0809354
:1038F000BF0380E001C081E0909152059D3309F043
:1039000087C083E595E00E946121B92E082F192F09
:103910009801255031092B303105F8F4682F82E0E9
:1039200090E00E94DF0C0E941E078823B1F0BF9236
:103930000F938FE295E09F938F931F9284E68F936E
:10394000FF92EF920E94A82181EC93E00E94CF0C9D
:103950000FB6F894DEBF0FBECDBF80915305803502
:1039600071F40E941E07882321F08DE195E00E94EA
:103970006D0561E081E090E00E94DF0C65CF83344B
:1039800051F40E941E07882321F08AE095E00E94EE
:103990006D0562E0EFCF823451F40E941E07882348
:1039A00021F087EF94E00E946D0563E0E3CF893456
:1039B00051F40E941E07882321F084EE94E00E94B7
:1039C0006D0564E0D7CF883551F40E941E07882327
:1039D00021F081ED94E00E946D0565E0CBCF843449
:1039E00051F40E941E07882321F08EEB94E00E9480
:1039F0006D0566E0BFCF8A3409F026CF0E941E070E
:103A0000882321F08AEA94E00E946D0567E0B2CF36
:103A10009F3309F05BC10E94B00B19A618A61BA624
:103A20001AA61DA61CA68E010F5F1F4F22E044E0C0
:103A30000E944321009709F43AC0BC01CE01889648
:103A40000E94DF0D98A4A9A480919F059091A005E4
:103A50001BA21AA21DA21CA21FA21EA24AE0BE0106
:103A60006F5F7F4F880F991F880F991F0E948E21CB
:103A7000BE016F5F7F4FCE0182960E94DF0DBAA01C
:103A80000BA181E090E00E94000D8093B70381506C
:103A90008730D0F4E82FF0E0E05BF24E0C9416296A
:103AA0005C1DAC1DB41DBC1DC41DCC1DD41DCE01A0
:103AB00088960E949C0DC6CF0E941E07882321F085
:103AC00088E994E00E946D0582E090E00E94000D7C
:103AD000182F809316010E941E078823B1F01F92B1
:103AE0001F9388E094E09F938F931F9284E68F93B7
:103AF000FF92EF920E94A82181EC93E00E94CF0CEC
:103B00000FB6F894DEBF0FBECDBF0E940A100E9410
:103B10001E078823C1F00F93BF92AF929F9284EE4D
:103B200093E09F938F931F9284E68F93FF92EF927F
:103B30000E94A82181EC93E00E94CF0C0FB6F8946C
:103B4000DEBF0FBECDBFCE0182960E940A0ECE010F
:103B500088960E940A0E78CE0E941E07882309F4D8
:103B6000B3CF85E894E0AECF0E941E07882309F406
:103B7000ABCF82E794E0A6CF0E941E07882309F40A
:103B8000A3CF8FE594E09ECF0E941E07882309F4FF
:103B90009BCF8CE494E096CF0E941E07882309F403
:103BA00093CF89E394E08ECF0E941E07882309F407
:103BB0008BCF85E294E086CF0E941E07882321F0F8
:103BC00088ED93E00E946D0510E000E0C8010E94BE
:103BD000CD27882321F060E0C8010E94D5270F5F20
:103BE0001F4F011592E0190789F70E941E078823CD
:103BF00021F082EC93E00E946D0561E081E090E0AD
:103C00000E94DF0C81E090E00E94000D8093B703DA
:103C100065E082E090E00E94DF0C82E090E00E948C
:103C2000000D809316018CED95E00E94E10C0E943E
:103C3000020D9093BA038093B9030E941E07882354
:103C4000C1F0809116011F928F938EEA93E09F93AB
:103C50008F931F9284E68F93FF92EF920E94A82188
:103C600081EC93E00E94CF0C0FB6F894DEBF0FBE3C
:103C7000CDBF0E941E07882309F4E6CD8091BA03C8
:103C80008F938091B9038F9386E993E09F938F93ED
:103C90001F9284E68F93FF92EF920E94A82181ECFD
:103CA00093E00E94CF0C0FB6F894DEBF0FBECDBFDD
:103CB000CBCD8CED92E00E94D10C68EC70E080E0FE
:103CC00090E00E94EC0610922F04BECD8111A0CD91
:103CD000BBCD8F5F2C5F3F4F823109F07FCC0E94BC
:103CE000B20700913C0410913D0420913E043091B4
:103CF0003F04601B710B820B930B613D7740810584
:103D0000910508F4B5CA0E94B20760933C04709311
:103D10003D0480933E0490933F040E941E07882335
:103D200021F086E896E00E946D050E941E07882318
:103D300021F083E896E00E946D0510922A0410920B
:103D4000290496CA80FB37F930937A05282F2695E7
:103D50002F709078922B90937B055DCC8F71880F9C
:103D6000880F9378892B80937A0582CC83FD27C0B6
:103D7000B0E12B9F900111242093740584608093FF
:103D8000790580E020917905922F977F23FF986035
:103D900090937905813009F488CC823009F09FCF67
:103DA000E0917505E63000F581E08E0F8093750592
:103DB000F0E0E75DFB4F80917405808390CF909198
:103DC0007405292B209374058B7F8093790581E0FE
:103DD0008093780582E0D6CF80E078CC882309F400
:103DE0007ECF109275057CCC1092750578CFAA20F5
:103DF00031F0275D3B4FF9018081807F582785E5B1
:103E000085278413D7C10E941E07882321F08FEADB
:103E100097E00E946D050B2D10E080912604869599
:103E2000869590E002960817190709F072C10E9462
:103E3000B20760933C0470933D0480933E049093DA
:103E40003F040E941E078823B1F01F93BF928BE9A5
:103E500097E09F938F931F9284E68F93FF92EF9248
:103E60000E94A82181EC93E00E94CF0C0FB6F89439
:103E7000DEBF0FBECDBF0E941E07882321F088E958
:103E800097E00E946D05B694BA9409E214E0912C73
:103E90009B1490F4992041F00E941E07882321F082
:103EA00082E096E00E946D0560E0D8018D918D0161
:103EB0000E94130D9394ECCFAA2091F0BB2041F007
:103EC0000E941E07882321F080E096E00E946D0585
:103ED000EB2DF0E0E75DFB4F61E080810E94130D68
:103EE0000E941E07882341F10E94B207009130040E
:103EF000109131042091320430913304DC01CB0164
:103F0000801B910BA20BB30BBF93AF939F938F9327
:103F100082E997E09F938F931F9284E68F93FF929D
:103F2000EF920E94A82181EC93E00E94CF0C0FB683
:103F3000F894DEBF0FBECDBF8091C003813009F081
:103F40007CC060912904F0E16F9FB0011124809141
:103F50002A0490E054E0959587955A95E1F7680F0B
:103F6000791F90E080E00E94AB2620E030E044EB37
:103F700053E40E940C2720E030EF4FE755E40E9405
:103F80007528162F072FB82EA92EA8019501652F89
:103F9000742F832F922F0E94E728CB010E94880F55
:103FA0000E941E07882321F18091290420E1829F2D
:103FB000C001112420912A0430E044E03595279572
:103FC0004A95E1F7820F931F9F938F93DF92CF92D1
:103FD0001F9284E68F93FF92EF920E94A82181ECBA
:103FE00093E00E94CF0C0FB6F894DEBF0FBECDBF9A
:103FF0000E941E078823C9F01F9281E08F93AF9221
:10400000BF920F931F933F922F921F9284E68F933C
:10401000FF92EF920E94A82181EC93E00E94CF0CC6
:104020000FB6F894DEBF0FBECDBF0E941E078823D7
:1040300021F08FE797E00E946D050E941E078823FC
:1040400021F08CE797E00E946D050E94B207609313
:104050003004709331048093320490933304809140
:104060002704843608F43BCE0E941E07882321F0E3
:1040700081EF96E00E946D050E941E07882321F0C3
:104080008AED96E00E946D050E941E07882321F0AC
:1040900087ED96E00E946D050E941E078823E1F0DF
:1040A0008091270490912804891B990B9F938F93EB
:1040B000E4ECF6E0FF93EF931F9284E68F93FF9278
:1040C000EF920E94A82181EC93E00E94CF0C0FB6E2
:1040D000F894DEBF0FBECDBF0E941E07882321F0DB
:1040E0008FEB96E00E946D050E941E07882321F049
:1040F00088EA96E00E946D050E941E07882321F041
:1041000085EA96E00E946D0510922704109228041B
:10411000E6CD809128048F5F809328040E941E07BB
:10412000882321F088E697E00E946D050E941E0713
:104130008823E1F0809126048695869590E002968A
:104140009F938F93A7E5B7E0BF93AF931F9284E649
:104150008F93FF92EF920E94A82181EC93E00E943E
:10416000CF0C0FB6F894DEBF0FBECDBF0E941E0766
:104170008823B1F01F930F9367E477E07F936F93E9
:104180001F9284E68F93FF92EF920E94A82181EC08
:1041900093E00E94CF0C0FB6F894DEBF0FBECDBFE8
:1041A0000E941E07882309F45ACF89E197E00E94F4
:1041B0006D0555CF809128048F5F809328040E945D
:1041C0001E07882309F44BCF84EF96E0F0CF60916F
:1041D000B9037091BA038AE995E00E94EC09109244
:1041E000BC0384C80E941E07882309F4C8C884E35E
:1041F00096E00E946D05C3C8B8018AE995E00E9467
:10420000EC090E94B00B1092BB0381E00E944A0EA1
:104210001093BA030093B903C8010E94E10C0E94F5
:104220001E078823D1F08091BA038F938091B90340
:104230008F9386E696E09F938F931F9284E68F93E9
:10424000FF92EF920E94A82181EC93E00E94CF0C94
:104250000FB6F894DEBF0FBECDBF0E941E078823A5
:1042600009F4DAC883E696E00E946D05D5C80F5FB1
:104270001F4F0939F8E01F0709F08BC8CDC888E641
:1042800095E00C940A0EEF920F931F93CF93DF9358
:10429000E80134E047FD34E1042E000C550B57FFD4
:1042A00003C0519541955109E32E022F242FAE01F1
:1042B0000E94B223CE01DF91CF911F910F91EF9019
:1042C0000895FC0188279927E89421912032E9F389
:1042D000293010F02E30C8F32B3241F02D3239F452
:1042E000689404C00E948621820F911D2191205361
:1042F0002A30C0F31EF4909581959F4F0895FB01DD
:10430000DC0105900D920020E1F708957AE0979F77
:10431000902D879F802D910D11240895BB27FB01BF
:104320005527AA27880F991FAA1FA41710F0A41BAE
:1043300083955051B9F7A05DAA3308F0A95DA19308
:10434000009779F7B111B1931192CB010C94082623
:10435000AEE0B0E0EEEAF1E20C941B280D891E8974
:104360008F89988D2EE02C831A83098397FF02C0D2
:1043700080E090E801979E838D83AE01455E5F4F9C
:10438000698D7A8DCE0101960E94D8214D815E8182
:1043900057FD0AC02F813885421753070CF49A0144
:1043A000020F131FF80110822E96E4E00C943728B8
:1043B000ABE0B0E0EEEDF1E20C940D287C013B01A6
:1043C0008A01FC0117821682838181FFC8C1CE0158
:1043D00001965C01F7019381F30193FD859193FFB1
:1043E00081913F01882309F453C1853239F493FD4B
:1043F000859193FF81913F01853229F4B70190E0C7
:104400000E941826E7CF912C212C312CFFE1F315C7
:1044100038F08B3211F190F4803209F1833229F1B6
:1044200037FC3CC020ED280F2A3050F536FE20C066
:104430008AE0989E200D1124922E06C08D3291F0B4
:10444000803371F7689430F8F30193FD859193FF01
:1044500081913F018111DACF21C0689431F86894CD
:1044600032F8F2CF689433F8EFCF689434F8ECCF99
:10447000EAE02E9E200D1124222E689435F8E4CF18
:104480008E3229F436FC04C1689436F8DDCF8C36C0
:1044900019F4689437F8D8CF8836B1F2982F9F7DF9
:1044A00095549330E0F08336A1F18337C1F1833521
:1044B00009F063C02801F2E04F0E511CF801C080E2
:1044C000D180692D70E036FC02C06FEF7FEFC6012E
:1044D0000E94F2254C01689437F882010AC00C5FF3
:1044E0001F4FFFE3F98388248394912C6501E8949E
:1044F00037F833FE2DC0522C8114910471F55520EC
:1045000009F468CFB70180E290E00E9418265A941F
:10451000F6CFF801808189830E5F1F4FE4CF280119
:10452000F2E04F0E511CF801C080D180692D70E07F
:1045300036FC02C06FEF7FEFC6010E94FD254C01E3
:104540008201D5CFB70180E290E00E9418262A941C
:104550002814190409F0B0F7CECFF60137FC859185
:1045600037FE81916F01B70190E00E94182651102B
:104570005A94F1E08F1A9108BFCF843619F089362A
:1045800009F077C0F80137FE6BC0608171818281CC
:1045900093810C5F1F4FF32DFF763F2E97FF09C0CD
:1045A00090958095709561957F4F8F4F9F4F689440
:1045B00037F82AE030E0A5010E944826C82ECA1824
:1045C0008C2C432C36FE0CC0E89440F8C91440F4FF
:1045D00034FE05C032FC03C0F32DFE7E4F2E892C25
:1045E00044FE95C0FE01EC0DF11D8081803309F081
:1045F00087C0242D297E422E842D8870582E43FC9E
:1046000095C040FE8FC09C2C821418F42C0C922C68
:10461000981844FE91C0B70180E390E00E941826EC
:1046200042FE09C088E790E041FE02C088E590E0C4
:10463000B7010E941826C91408F48AC0CA94D12C64
:104640009FEFC91AD90ACA0CDB1CF60182916F01CF
:10465000B70190E00E941826AC14BD04B1F74FCF0B
:1046600060817181072E000C880B990B0E5F1F4F24
:1046700092CFD32CE894D4F82AE030E0853739F192
:10468000232D297FD22E8F3601F148F48835A9F0E9
:10469000F701868197812B96E2E10C9429288037D7
:1046A00049F08837A9F7D4FE02C06894D2F820E117
:1046B00030E00DC06894D4F8F6CF34FE03C0822FEA
:1046C0008660D82E20E132E002C028E030E0F80118
:1046D000D7FE0FC060817181828193810C5F1F4F73
:1046E000A5010E944826C82ECA183D2CE89437F828
:1046F00067CF6081718190E080E00E5F1F4FF0CF47
:1047000042FC02C0839478CF8394839475CF842D28
:10471000867809F471CFF6CFB70180E290E00E946D
:10472000182683948214C0F3512C73CF522C58183E
:10473000821408F46ECFF8CF842D867809F47BCFED
:104740008BE241FE80E247FC8DE2B70190E071CF41
:10475000B70180E390E00E9418269A946CCF8FEF07
:104760009FEF99CFA9E0B0E0E8EBF3E20C941328B7
:104770006A01F22EB02E102FFBE3AF2EA01608F424
:104780001BE31F5F012F27E0AE014F5F5F4F0E94C9
:104790001125BC018981982F9970913009F43FC08F
:1047A0009BE2E1FC04C09E2D9170E0FC3AC05E2DBE
:1047B0005071E82FE87083FF46C084E0911101C07A
:1047C00083E0EF2DE81B8F1508F0E0E0D6018E2F77
:1047D00020E2552351F1992329F0D6019C93C6017B
:1047E00001966C0196012D5F3F4FE2FE24C08EE4DE
:1047F000D6018C9391E411969C93119712968C9309
:10480000D9018E2F90E281111BC0E20FF32FF11D11
:1048100010828EEF9FEF2996ECE00C942F289DE2FA
:10482000C6CF90E2C4CF2D9381508111FCCFCE0E24
:10483000D11CE0E0D0CF8EE6D6018C9391E6DBCFA1
:104840009D938150E0CF482F447082FF3DC084E0AB
:10485000911101C083E08F1510F4EF2DE81BD601F4
:104860008E2F20E2552309F1992329F0D6019C933C
:10487000C60101966C0196012D5F3F4FE2FE1BC001
:1048800089E4D6018C938EE411968C93119786E47B
:1048900012968C93D9018E2F90E2882309F4B5CF1C
:1048A0009D938150FACF2D9381508111FCCFCE0E74
:1048B000D11CE0E0D9CF89E6D6018C938EE6119623
:1048C0008C93119786E6E4CF9B0177FF02C030E01E
:1048D00020E0A1E0B0E0911102C0B0E0A0E0F90159
:1048E0003196AE0FBF1F8B2C912CBB2009F461C0F9
:1048F0005401EFEFAE1ABE0AAA0DBB1DFA161B0635
:1049000019F014F04F2D4A1B511188C0E3FC59C017
:104910007601A42FB0E2A1114FC0C40ED11C99237F
:1049200009F45BC040E0D6011196F60190836D0159
:10493000552309F448C0012F060F9A81582F507152
:1049400084FF03C0913309F4015010160CF047C0E6
:10495000093008F008E0EEE2FE2E5B01A01AB10873
:1049600085019194819491082F3F320729F4D60153
:10497000FC92F60131966F016217730794F10217EA
:1049800013077CF5DB01A21BB30BAA24A394B12C63
:10499000AC0EBD1EAA0DBB1D11968C912150310984
:1049A000D601119628153905F4F0F60180836D01C2
:1049B000DBCFB12CA12CA0CFF701B1937F01A15087
:1049C000AACF9111B0CFD601942F50E302C05D93CE
:1049D00091509111FCCFC40ED11C40E0ACCF01E04E
:1049E000BACF80E3DBCF6217730731F4963388F4D4
:1049F000953311F4552369F0F6018083FD01842F6E
:104A000090E2811108C0A40FB11D1C9290E080E0DB
:104A100002CF81E3F1CF91938150F3CF911183CFF6
:104A20008ACF283008F027E03327DA01990F311DAB
:104A300087FD916000966105710539F432602E5F43
:104A40003D9330E32A95E1F708959F3F30F0803899
:104A50007105610509F03C5F3C5F3D93913008F0C2
:104A60008068911DDF93CF931F930F93FF92EF9276
:104A7000192F987F9695E92F96959695E90FFF2720
:104A8000EA5FFE4F99273327EE24FF24A701E701B1
:104A900005900894079428F4360FE71EF81E491F66
:104AA000511D660F771F881F991F0694A1F7059067
:104AB000079428F4E70EF81E491F561FC11D770FF3
:104AC000881F991F661F0694A1F70590079428F484
:104AD000F80E491F561FC71FD11D880F991F661F4B
:104AE000771F0694A1F70590079420F4490F561FED
:104AF000C71FD81F990F661F771F881F0694A9F735
:104B000084911095177041F0D695C79557954795A4
:104B1000F794E7941A95C1F7ECEAF0E068941590E1
:104B2000159135916591959105907FE27395E11806
:104B3000F10A430B560BC90BD009C0F7E10CF11E6B
:104B4000431F561FC91FD01D7EF4703311F48A9580
:104B5000E6CFE894015030F0080F0AF4002702175E
:104B600008F4202F2395022F7A3328F079E37D93E0
:104B70002A95E9F710C07D932A9589F606949795B2
:104B80006795379517951794E118F10A430B560B63
:104B9000C90BD00998F023957E9173957A3308F06C
:104BA00070E37C932013B8F77E9170617D9330F0B1
:104BB000839571E37D9370E32A95E1F71124EF90DB
:104BC000FF900F911F91CF91DF91992787FD9095CD
:104BD000089591110C947927803219F089508550ED
:104BE000C8F70895FC010590615070400110D8F796
:104BF000809590958E0F9F1F0895FC016150704025
:104C000001900110D8F7809590958E0F9F1F089501
:104C1000DC01FC01672F71917723E1F7329704C023
:104C20007C916D9370836291AE17BF07C8F30895AE
:104C30000F931F93CF93DF93182F092FEB018B81D5
:104C400081FD09C01FEF0FEF812F902FDF91CF91D2
:104C50001F910F91089582FF14C02E813F818C8196
:104C60009D81281739073CF4E881F981CF0101962D
:104C70009983888310838E819F8101969F838E8381
:104C8000E3CFE885F985812F0995892BA1F3DACF48
:104C9000FA01AA27283051F1203181F1E8946F936D
:104CA0006E7F6E5F7F4F8F4F9F4FAF4FB1E03ED013
:104CB000B4E03CD0670F781F891F9A1FA11D680FB1
:104CC000791F8A1F911DA11D6A0F711D811D911DE4
:104CD000A11D20D009F468943F912AE0269F112459
:104CE0003019305D3193DEF6CF010895462F4770BD
:104CF000405D4193B3E00FD0C9F7F6CF462F4F7018
:104D0000405D4A3318F0495D31FD4052419302D075
:104D1000A9F7EACFB4E0A69597958795779567951B
:104D2000BA95C9F700976105710508959B01AC011B
:104D30000A2E06945795479537952795BA95C9F742
:104D4000620F731F841F951FA01D08950E94E826FF
:104D500008F481E00895E89409C097FB3EF490952B
:104D60008095709561957F4F8F4F9F4F9923A9F044
:104D7000F92F96E9BB279395F695879577956795D3
:104D8000B795F111F8CFFAF4BB0F11F460FF1BC017
:104D90006F5F7F4F8F4F9F4F16C0882311F096E9AA
:104DA00011C0772321F09EE8872F762F05C0662358
:104DB00071F096E8862F70E060E02AF09A95660F11
:104DC000771F881FDAF7880F9695879597F90895CA
:104DD000990F0008550FAA0BE0E8FEEF161617060C
:104DE000E807F907C0F012161306E407F50798F074
:104DF000621B730B840B950B39F40A2661F0232B8D
:104E0000242B252B21F408950A2609F4A140A69508
:104E10008FEF811D811D08950E941F270C949327F9
:104E20000E94852738F00E948C2720F0952311F0EE
:104E30000C947C270C94822711240C94C7270E9481
:104E4000A42770F3959FC1F3950F50E0551F629F03
:104E5000F001729FBB27F00DB11D639FAA27F00DD3
:104E6000B11DAA1F649F6627B00DA11D661F829FFA
:104E70002227B00DA11D621F739FB00DA11D621FDF
:104E8000839FA00D611D221F749F3327A00D611DFC
:104E9000231F849F600D211D822F762F6A2F1124DE
:104EA0009F5750409AF0F1F088234AF0EE0FFF1F11
:104EB000BB1F661F771F881F91505040A9F79E3F68
:104EC000510580F00C947C270C94C7275F3FE4F3D6
:104ED000983ED4F3869577956795B795F795E795BE
:104EE0009F5FC1F7FE2B880F911D9695879597F9C7
:104EF000089599278827089597F99F6780E870E0BB
:104F000060E008959FEF80EC089500240A9416163F
:104F1000170618060906089500240A9412161306A7
:104F2000140605060895092E0394000C11F4882335
:104F300052F0BB0F40F4BF2B11F460FF04C06F5F51
:104F40007F4F8F4F9F4F089557FD9058440F551F27
:104F500059F05F3F71F04795880F97FB991F61F0FB
:104F60009F3F79F087950895121613061406551F72
:104F7000F2CF4695F1DF08C0161617061806991FDE
:104F8000F1CF86957105610508940895E894BB27D3
:104F900066277727CB0197F90895F999FECF92BD3F
:104FA00081BDF89A992780B50895262FF999FECFEB
:104FB0001FBA92BD81BD20BD0FB6F894FA9AF99A36
:104FC0000FBE01960895052E97FB1EF400940E94D3
:104FD000FA2757FD07D00E94442807FC03D04EF45F
:104FE0000C94FA2750954095309521953F4F4F4F9F
:104FF0005F4F089590958095709561957F4F8F4F85
:105000009F4F08950E946628A59F900DB49F900D14
:10501000A49F800D911D112408952F923F924F92CD
:105020005F926F927F928F929F92AF92BF92CF9238
:10503000DF92EF92FF920F931F93CF93DF93CDB741
:10504000DEB7CA1BDB0B0FB6F894DEBF0FBECDBFB9
:1050500009942A88398848885F846E847D848C848A
:105060009B84AA84B984C884DF80EE80FD800C8193
:105070001B81AA81B981CE0FD11D0FB6F894DEBF76
:105080000FBECDBFED010895A1E21A2EAA1BBB1BD6
:10509000FD010DC0AA1FBB1FEE1FFF1FA217B30704
:1050A000E407F50720F0A21BB30BE40BF50B661F1A
:1050B000771F881F991F1A9469F7609570958095DE
:1050C00090959B01AC01BD01CF010895A29FB00155
:1050D000B39FC001A39F700D811D1124911DB29F2C
:1050E000700D811D1124911D08950E9489280C9432
:1050F00093270E948C2758F00E94852740F029F4BE
:105100005F3F29F00C947C2751110C94C7270C9415
:1051100082270E94A42768F39923B1F3552391F3C2
:10512000951B550BBB27AA2762177307840738F016
:105130009F5F5F4F220F331F441FAA1FA9F335D073
:105140000E2E3AF0E0E832D091505040E695001C27
:10515000CAF72BD0FE2F29D0660F771F881FBB1FE1
:10516000261737074807AB07B0E809F0BB0B802DBF
:10517000BF01FF2793585F4F3AF09E3F510578F0EB
:105180000C947C270C94C7275F3FE4F3983ED4F33C
:10519000869577956795B795F7959F5FC9F7880FBF
:1051A000911D9695879597F90895E1E0660F771F11
:1051B000881FBB1F621773078407BA0720F0621BA2
:1051C000730B840BBA0BEE1F88F7E09508950E94CD
:1051D000AC2788F09F5798F0B92F9927B751B0F0B6
:1051E000E1F0660F771F881F991F1AF0BA95C9F76B
:1051F00014C0B13091F00E94C627B1E008950C941C
:10520000C627672F782F8827B85F39F0B93FCCF3CE
:10521000869577956795B395D9F73EF490958095E7
:10522000709561957F4F8F4F9F4F0895EE0FFF1F31
:105230000590F491E02D09940F931F93CF93DF9382
:105240008230910510F482E090E0E091A705F091A2
:10525000A80530E020E0B0E0A0E0309799F42115F7
:10526000310509F44AC0281B390B24303105D8F523
:105270008A819B816115710589F1FB01938382838A
:10528000FE0111C0408151810281138148175907E5
:10529000E0F04817590799F4109761F012960C93B3
:1052A000129713961C933296CF01DF91CF911F91E5
:1052B0000F9108950093A7051093A805F4CF211529
:1052C000310551F04217530738F0A901DB019A016B
:1052D000BD01DF01F801C1CFEF01F9CF9093A8051F
:1052E0008093A705CDCFFE01E20FF31F8193919329
:1052F0002250310939832883D7CF2091A5053091D9
:10530000A605232B41F42091190130911A01309305
:10531000A6052093A50520911701309118012115AC
:10532000310541F42DB73EB740911B0150911C014E
:10533000241B350BE091A505F091A605E217F307B4
:10534000A0F42E1B3F0B2817390778F0AC014E5FF5
:105350005F4F2417350748F04E0F5F1F5093A60587
:105360004093A505819391939FCFF0E0E0E09CCF1F
:10537000CF93DF930097E9F0FC01329713821282FA
:10538000A091A705B091A805ED0130E020E01097AD
:10539000A1F420813181820F931F2091A5053091C6
:1053A000A6052817390709F061C0F093A605E09318
:1053B000A505DF91CF910895EA01CE17DF07E8F543
:1053C0004A815B819E0141155105B1F7E901FB83DB
:1053D000EA8349915991C40FD51FEC17FD0761F479
:1053E000808191810296840F951FE90199838883BA
:1053F000828193819B838A83F0E0E0E012968D9115
:105400009C9113970097B9F52D913C911197CD017F
:105410000296820F931F2091A5053091A6052817AB
:10542000390739F6309751F51092A8051092A70563
:10543000B093A605A093A505BCCFD383C2834081BA
:105440005181840F951FC817D90761F44E5F5F4FD4
:1054500088819981480F591F518340838A819B819C
:10546000938382832115310509F0B0CFF093A8050D
:10547000E093A7059ECFFD01DC01C0CF138212820D
:10548000D7CFB0E0A0E0E7E4FAE20C940F288C015B
:10549000009751F4CB010E941C298C01C801CDB7A3
:1054A000DEB7E0E10C942B28FC01E60FF71F9C010E
:1054B00022503109E217F30708F49DC0D901CD91BC
:1054C000DC911197C617D70798F0C530D10530F396
:1054D000CE0104978617970708F3C61BD70B2297B0
:1054E000C193D1936D937C93CF010E94B829D6CFFD
:1054F0005B01AC1ABD0A4C018C0E9D1EA091A70544
:10550000B091A805512C412CF12CE12C109731F5CC
:105510008091A5059091A6058815990509F05CC0B4
:105520004616570608F058C080911701909118014F
:10553000009741F48DB79EB740911B0150911C011B
:10554000841B950BE817F90708F055C0F093A605E2
:10555000E093A505F90171836083A0CF8D919C91A3
:10556000119712966C90129713967C901397A8152A
:10557000B90559F56C0142E0C40ED11CCA14DB0414
:1055800020F1AC014A195B09DA011296159780F0F7
:105590006282738251834083D9016D937C93E114BD
:1055A000F10471F0D7011396FC93EE93129776CF26
:1055B00022968C0F9D1FF90191838083F301EFCF19
:1055C000F093A805E093A70569CF4816590608F49B
:1055D0002C017D01D3019ACFCB010E941C297C01B3
:1055E000009749F0AE01B8010E94062BC8010E9445
:1055F000B829870153CF10E000E050CF91110895F2
:1056000081568A5108F4805285580895FB01DC01C7
:1056100002C001900D9241505040D8F70895FB010F
:10562000DC0101900D920020E1F7089513E0CAED2E
:10563000D3E004C0FE010E9416292196CB3DD1077C
:10564000C9F7F894FFCFFFFFFFFFBE07BE07BE07F5
:10565000BE07BE0700E1000000000000050000A931
:1056600005800000C1808100000000000000570597
:105670002D0793058805D9059705B505000000009D
:105680006C093F099B09150938092509160900000D
:105690000000CD099F099E0900000000750B5D0BFD
:1056A0009E0900000000340B2B0B9E090000000037
:1056B000850FE909340A53656E736F7220466F7562
:1056C0006E64206F6E20616464726573733A20307B
:1056D000783000482048656C7000512071756974FD
:1056E00000433D3020746F2033363020666F7220C7
:1056F00074657374004D3D352C362C372C392C31A4
:10570000302C31312C31322C31332C31342C313599
:105710002058616E79204368616E6E656C004D3D66
:1057200050207365742050574D206D6F6465004D97
:105730003D4320736574204350504D206D6F646568
:10574000004D3D42207365742053425553206D6FC8
:105750006465004D3D4920736574204942555320CE
:105760006D6F6465004D3D58207365742053524C35
:1057700058206D6F6465004D3D442073657420535F
:10578000554D44206D6F6465004D3D4A207365742E
:10579000204A45544978206D6F6465004D3F205282
:1057A0006561642053656E736F7220262073657285
:1057B000766F2076616C756573005A3D31205365B4
:1057C0006172636820302073656E736F7220706F32
:1057D000736974696F6E2076616C756520284F6EF1
:1057E0002F6F666629005A3D3220536561726368E7
:1057F000203020736572766F3336302076616C7599
:105800006520696E20C2B553284F6E2F6F666629DA
:10581000005220736574205245534554206D6F64C7
:1058200065000D0A457869742020636F6E666967AC
:1058300075726174696F6E206D6F64650D0A00008A
:1070000055C000006EC000006CC000006AC00000E7
:1070100068C0000066C0000064C0000062C00000DC
:1070200060C000005EC00000FCC400005AC0000048
:1070300058C0000056C0000054C0000052C00000FC
:1070400050C000005DC000004CC000004AC00000FD
:1070500048C0000046C0000044C0000042C000001C
:1070600040C000003EC000003CC000003AC000002C
:1070700038C0000036C0000034C0000032C000003C
:1070800030C000002EC000002CC000002AC000004C
:1070900028C0000026C0000024C0000022C000005C
:1070A00020C000001EC000001CC0000011241FBE34
:1070B000CFEFDAE0DEBFCDBF11E0A0E0B1E0E6E463
:1070C000FFE702C005900D92A43BB107D9F711E08C
:1070D000A4EBB1E001C01D92AD3CB107E1F74FD385
:1070E00030C78ECFF89410926F001092810081E02B
:1070F00085BF15BE47985D9A289A0C9400000895A4
:107100001F920F920FB60F9211242F938F939F937C
:10711000EF93FF9310928500109284008091B40148
:107120009091B501009741F001979093B50180933C
:10713000B401892B09F45D9A8091B6019091B70151
:10714000009741F001979093B7018093B601892B86
:1071500009F4289A8091BA019091BB01019690930D
:10716000BB018093BA01E0E0F0E0859194918F5FDC
:107170009F4F49F08091B8019091B9010196909389
:10718000B9018093B801FF91EF919F918F912F9159
:107190000F900FBE0F901F90189584E08093E90028
:1071A0000DC08091E8008B778093E80003C08EB318
:1071B000882351F08091E80082FFF9CF8091E800A8
:1071C00085FFEFCF8091F1000895982F83E08093A1
:1071D000E9008091E80085FD0DC08091E8008E7780
:1071E0008093E80003C08EB3882369F08091E800A3
:1071F00080FFF9CF9093F1005D9884E690E0909342
:10720000B5018093B40108954F925F926F927F927F
:107210008F929F92AF92BF92CF92DF92EF92FF92A6
:107220000F931F93CF93DF9384E08093E9008091C5
:10723000E80082FF57C2289884E690E09093B70157
:107240008093B601AADF182F853481F48CE49DE188
:107250009093B9018093B80107B600FCFDCFF9996E
:10726000FECF81E180935700E89503C0843519F47F
:1072700094DF8DE00DC28C34E1F38035D1F3843797
:1072800021F484E4A2DF80E003C2813611F489E5B1
:10729000FFC18134B1F481DF182F7FDF90E0880FC8
