:100000000C94C1000C94E9000C94E9000C94AD1020
:100010000C9467100C94E9000C94E9000C94E9002E
:100020000C94E9000C94E9000C94E9000C941D1068
:100030000C94E9000C94E9000C94E9000C94E9009C
:100040000C94E9000C94E9000C94E9000C94E9008C
:1000500045525200424652454D53382056322E30BA
:10006000000000080B0103050B0206020A04010749
:100070000B0504040B060701090802060B0905031A
:100080000B0B00080B0C03050B0D06020A0F0107F2
:100090000B1004040B110701091302060B140503CE
:1000A0000B000021002400101411131500000001A2
:1000B0000000000000001712160101410202410376
:1000C00003410404410501440602440703440804B3
:1000D000440102050C0B0A0908E4031C041C045427
:1000E0000454048C048C04C404C404FC04FC0434D0
:1000F0000534056C056C05A405A405DC05DC0514B8
:100100000614064C064C0684068406BC06BC06F49F
:1001100006F4062C072C07640764079C079C07D489
:10012000072003E803E803DC05DC0598084661695D
:100130006C7361666521002D3E005261773D00536E
:10014000523F00503F00493F00413F00413F0043C4
:100150003F000000220025000000200023000202D2
:100160000202020101010101010101020202010278
:100170000440088001020408102040801020F31081
:10018000841911241FBECFEFD2E0DEBFCDBF11E036
:10019000A0E0B1E0E6E9F5E302C005900D92AA33D4
:1001A000B107D9F722E0AAE3B1E001C01D92A2385D
:1001B000B207E1F710E0C0ECD0E004C02197FE01E7
:1001C0000E94AD1ACF3BD107C9F70E948B110C9446
:1001D000BE1A0C940000CF92DF92EF92FF920F9321
:1001E0001F93CF93DF936C01EB017B01E40EF51EAF
:1001F00010E000E0CE15DF0561F06991D601ED91C8
:10020000FC910190F081E02DC6010995080F191F9E
:10021000F1CFC801DF91CF911F910F91FF90EF9027
:10022000DF90CF9008953FB7F8948091900190911E
:100230009101A0919201B091930127B5A89B05C0AF
:100240002F3F19F00196A11DB11D3FBFBA2FA92F55
:10025000982F8827BC01CD01620F711D811D911D52
:1002600042E0660F771F881F991F4A95D1F70895BE
:100270002FB7F89460918C0170918D0180918E015F
:1002800090918F012FBF089508952091790130E05A
:10029000062E02C0359527950A94E2F7C9018170B0
:1002A000992720FF0CC04091790121E030E001C086
:1002B000220F6A95EAF72095242320937901089567
:1002C0008BB390917801892B8BBBE8E6F0E08081BD
:1002D00090917801892B80830895CF93DF9380914B
:1002E0008001811109C00E94130170937F01609306
:1002F0007E0181E080938001E0917C01F0917D019D
:10030000808190917B01892391E009F090E08091B8
:100310007A018170981709F453C090916800809118
:1003200078018095892380936800E0917C01F091A9
:100330007D0130917B0190E080E0DFEFC0E048E29A
:100340005AE061E070E0242F2A95F1F72081232301
:1003500009F43FC0DB01082E01C0AA0F0A94EAF796
:10036000CA2B01968930910571F70E9413012091E3
:100370007E0130917F01621B730B683B7B4018F05C
:100380008FEF809300010E94130170937F016093AF
:100390007E018FEFDD2359F180917A0180FDC095B8
:1003A000909100019F3FD1F4CF3051F48091000132
:1003B0008F5F8093000180917A018F7380937A011F
:1003C0008BB390917801892B8BBBDF91CF910C94EB
:1003D0006001D095252F2A95F1F7C3CF90910001A8
:1003E000973141F48FEFC11102C08093790180935E
:1003F0000001E6CF20910001022E000C330B982F54
:1004000096959F719217130609F0BCF4982F907C73
:10041000903C99F0982F9295969596959370E92F28
:10042000F0E0E857FE4FC0839F5F9295990F990FB8
:10043000907C8F73892B80937A01809100018F5F6C
:10044000D6CFE0917701F0E0CF016AE070E00E9442
:10045000741A8A5B9E4FDC0117964C91809176014D
:10046000833008F040C021E030E002C0220F331F8B
:100470008A95E2F7CF016AE070E00E94741A8A5B05
:100480009E4FFC018185482350E024233523232BF4
:1004900009F45AC00E941301209174013091750132
:1004A000AB01421B530B9A01709375016093740169
:1004B000283B5BE03507B0F1209173012093720176
:1004C000109273012FEF209371012091700131E0A0
:1004D000211130E030937001211119C070936F0128
:1004E00060936E0108959AEF980F983018F4865033
:1004F000990BB9CF20E430E0833009F4BBCF20E87A
:1005000030E0843009F0B6CF28E030E0B3CF20915E
:100510006E0130916F01621B730B70936D016093DC
:100520006C01089580917301893070F4E09173013A
:10053000F0E0EE0FFF1FE65AFE4F318320838091DB
:1005400073018F5F809373010895662399F0809102
:100550007201861778F06150E62FF0E0EE0FFF1F72
:10056000E65AFE4F80819181208131818217930765
:10057000C9F708958CED95E008952091710130E060
:10058000062E02C0359527950A94E2F7C9018170BD
:10059000992720FF0CC04091710121E030E001C09B
:1005A000220F6A95EAF7209524232093710108957C
:1005B000FC01868597852685378582179307C9F7BD
:1005C0000895FC01808990E0062E02C095958795DC
:1005D0000A94E2F780FF1CC0208981E090E001C00E
:1005E000880F6A95EAF780958223808B2685378568
:1005F0008685978528173907C9F786819781281737
:10060000390730F081E0408551854217530708F4DF
:1006100080E0089590E080E008958F929F92AF92DD
:10062000BF92CF92DF92EF92FF920F931F93CF93DF
:10063000DF93EC01CF80D12C44E0CC0CDD1C4A953B
:10064000E1F7C601C616D70608F4CB012885022FAC
:1006500010E034E0000F111F3A95E1F7B801801760
:10066000910708F4BC01B0E0A0E04B015D0122E07D
:10067000B694A794979487942A95D1F79E828D82F9
:100680000D2C000CEE08FF08CD016C197D098E09B8
:100690009F0924EB30E040E050E00E941A1A012E3E
:1006A000000C220B330BA90198012C193D094E09AE
:1006B0005F090E94331A2C83DF91CF911F910F9114
:1006C000FF90EF90DF90CF90BF90AF909F908F9072
:1006D00008950C940D039BEF980FECE6F0E0983032
:1006E00010F4EBE6F0E04081833068F421E030E084
:1006F000B90102C0660F771F8A95E2F7CB0180959A
:100700008423808308959AEF980F983050F4682FCF
:100710006650770B81E090E001C0880F6A95EAF798
:10072000EECF833021F0843021F08FE7E9CF8FEBDB
:10073000E7CF87EFE5CF909168004BEF480F51E08E
:10074000483008F450E021E030E001C0220F5A9513
:10075000EAF7922B90936800ECE6F0E0483010F452
:10076000EBE6F0E04081833048F491E001C0990F5E
:100770008A95EAF7892F842B808308959AEF980F42
:10078000983048F4682F6650770B81E001C0880FDD
:100790006A95EAF7F0CF833021F0843021F080E8C9
:1007A000EACF80E4E8CF88E0E6CF0F931F93CF93A2
:1007B000DF93EB01855021E0883008F420E040E031
:1007C00030E0A42F042E000CBB0BC9016AE070E0DE
:1007D0000E94741A8A5B9E4F8C010A5F1F4FFC01B6
:1007E00086818A171B0609F00CF459C0C90165E01F
:1007F00070E00E94741AFC01EA0FFB1FEE0FFF1F4E
:10080000EA5BFE4F808191818C179D0711F04F5F4D
:10081000D8CF47FD44C011821082F80180818150F9
:10082000990BA817B90751F1E42FF0E0C9016AE06C
:1008300070E00E94741A8A5B9E4FDC0116968C91C0
:100840008150990BE817F907CCF4DF011196C90123
:1008500065E070E00E94741AA80FB91FAA0FBB1FB1
:10086000AA5BBE4F6D917C91E80FF91FEE0FFF1F41
:10087000EA5BFE4F718360834F5FD6CFC9016AE0A8
:1008800070E00E94741AFC01EA5BFE4F9681915061
:10089000968381E0DF91CF911F910F91089580E0C1
:1008A000F9CF0F931F93CF93DF93EB01855021E096
:1008B000883008F420E0022F10E0C8016AE070E000
:1008C0000E94741ADC01AA5BBE4F8D919C91119716
:1008D000C817D90751F112968D919C911397C8179B
:1008E000D90719F114968D919C911597C817D907BE
:1008F000E1F016968C9116978330E8F41696EC91F9
:100900001697C80165E070E00E94741AE80FF92F8D
:10091000F11DEE0FFF1FEA5BFE4FD183C0831696D9
:100920003C9116973F5FFD013683822FDF91CF9177
:100930001F910F9108952FEFF8CFDC011E96ED91D6
:10094000FC911F9755968C919081611104C0809500
:10095000892380830895892BFCCF20E001972FEF16
:100960008F3F9207D9F70895EF92FF921F93CF938D
:10097000DF93C091E001D091E101EC85FD8580819C
:100980009C89892391E009F090E08889817098170B
:1009900009F466C08B890E946B038E899F89890F39
:1009A0009927991F0E94AD04EE24E394F12C10E0E6
:1009B0009889987181E009F480E029893A8902C018
:1009C000369527958A95E2F78F892E153F0589F090
:1009D000EC85FD8590812C89922339F01E2990E0C9
:1009E0000E94AD04EE0CFF1CE3CF9E2D90951923C1
:1009F000F6CF992319F090E00E94AD048F8990E022
:100A00000E94AD048B890E949B03888980FF0FC0E0
:100A1000869583708B5F21E030E0A90102C0440F0E
:100A2000551F8A95E2F7CA018150109518238091CD
:100A30003F0120913E0190E001968370992728178D
:100A4000190671F0E0913F01F0E0E65CFE4F108383
:100A500080913F0190E001968370992780933F0138
:100A6000DF91CF911F91FF90EF90089590913E01FB
:100A700080913F01981751F0E0913E01F0E0E65C73
:100A8000FE4F8081082E000C990B08958FEF9FEF89
:100A900008958FB7F89410923F0110923E018FBFD6
:100AA000089580913F0120913E0190E00496821BC1
:100AB000910964E070E00E94991A089590913E01B6
:100AC00080913F01981789F0E0913E01F0E0E65CEB
:100AD000FE4F808120913E0130E02F5F3F4F237019
:100AE000332720933E0190E008958FEF9FEF089504
:100AF000FB01453079F460E177E20E94851A605D80
:100B00006083319668EE73E00E94851A605D6083B1
:100B1000319602C04330B1F764E670E00E94851A56
:100B2000605D60836AE070E00E94851A605D6183A9
:100B3000805D828313820895DF92EF92FF920F937C
:100B40001F93CF93DF93EC014889842F86958370A0
:100B500090E09C012B5F3F4F01E010E0022E01C0AE
:100B6000000F0A94EAF70150062310E0E42FE87121
:100B7000D9F070E050E004967817190609F034F4C3
:100B8000F62FF1705F2766957F5FF6CF81E090E0EA
:100B9000E83011F090E080E0852702C0880F991FAF
:100BA0002A95E2F7082B192B40FF02C000951095FB
:100BB000DFB6F89468896170CE010E949D04888D2B
:100BC00090E00E94AD04EE24E394F12C89899A8987
:100BD0008E159F05A9F0EE85FF858D8998012E2140
:100BE0003F219081232B49F0892B8083888D90E0D1
:100BF0000E94AD04EE0CFF1CE9CF80958923F5CF50
:100C0000688960956170CE010E949D04DFBE888D69
:100C100090E00E94AD04888985FF04C0888D90E033
:100C20000E94AD0481E090E0DF91CF911F910F9180
:100C3000FF90EF90DF900895CF93DF936DE086E013
:100C400092E00E949C05EC016AE086E092E00E943E
:100C50009C058C0F9D1FDF91CF9108950F931F93DB
:100C6000CF93DF938C01D0E0C0E0F801EC0FFD1FC3
:100C70006491662341F086E092E00E949C05892BF6
:100C800011F02196F2CFCE01DF91CF911F910F91FC
:100C9000089587FF0CC08F77893031F1873031F1AB
:100CA000482F4650550B47305105D0F4865090E000
:100CB000FC01E259FE4F2491FC01E25AFE4FE491FF
:100CC000EE23C1F0F0E0EE0FFF1FE85AFE4FA591B2
:100CD000B491EC91E22381E090E071F480E008951A
:100CE0008D3031F08FEFE3CF83E0E1CF85E0DFCFD0
:100CF0008DE0DDCF80E090E00895BF92CF92DF924B
:100D0000EF92FF920F931F93CF93DF930E941301F3
:100D10006B017C01C0914401D091450101E010E0DC
:100D2000BB24BA94209709F452C08D81837081301E
:100D300011F56AE070E0CB018A5B9E4FFC012781D0
:100D400030E08C818330D8F4A801082E02C0440F13
:100D5000551F0A94E2F724233523232B61F00E94C8
:100D600049069D8192FB992790F9981711F1CA863F
:100D7000DB86EC86FD860A80DB81C02DD3CF9AEF1F
:100D8000980F983058F4682F6650770BF80102C01E
:100D9000EE0FFF1F6A95E2F7AF01DDCF40E450E0B0
:100DA0008330C9F240E850E08430A9F648E050E0D2
:100DB000D2CF8A859B85AC85BD859601281B390BD2
:100DC0003F872E87B88A0E943801698BD4CFDF9184
:100DD000CF911F910F91FF90EF90DF90CF90BF9038
:100DE0000895BF92CF92DF92EF92FF920F931F93DD
:100DF000CF93DF930E9413016B017C01C0914401EA
:100E0000D0914501BB24BA9401E010E0209709F489
:100E10004DC08D818370E9F420914D0130E08C81CB
:100E20008330D8F4A801082E02C0440F551F0A943D
:100E3000E2F724233523232B61F00E9449069D818C
:100E400092FB992790F9981719F1CA86DB86EC86F0
:100E5000FD860A80DB81C02DD9CF9AEF980F98309C
:100E600060F4682F6650770BAB01B80102C0660FC3
:100E7000771F4A95E2F7AB01DCCF40E450E08330C6
:100E8000C1F240E850E08430A1F648E050E0D1CF14
:100E90008A859B85AC85BD859601281B390B3F87CC
:100EA0002E87B88A0E943801698BD3CFDF91CF910A
:100EB0001F910F91FF90EF90DF90CF90BF9008951A
:100EC00087FF0EC08F77893009F435C0873009F469
:100ED00034C0482F4650550B4730510540F58650D9
:100EE00090E0FC01E955FF4F3491FC01E259FE4FBF
:100EF0002491FC01E25AFE4FE491EE23B9F0332332
:100F000029F03130F1F485B58F7785BDF0E0EE0F33
:100F1000FF1FEE5AFE4FA591B4918FB7611121C00A
:100F2000F894EC9120952E232C938FBF08958D304B
:100F300031F08FEFD5CF83E0D3CF85E0D1CF8DE0F7
:100F4000CFCF34FFE3CF40918300377081E090E052
:100F500001C0880F3A95EAF7809584238093830037
:100F6000D5CFF894EC912E2BDFCFCF93DF9387FF73
:100F70000EC08F77893009F436C0873009F435C048
:100F8000482F4650550B4730510548F5865090E0A4
:100F9000FC01E259FE4F2491825A9E4FFC0184913C
:100FA0008823D1F090E0880F991FFC01EF55FF4F87
:100FB000A591B491FC01EE5AFE4FC591D4916111F7
:100FC00018C09FB7F8948C91E22FE0958E238C93F4
:100FD0002881E223E8839FBFDF91CF9108958D3070
:100FE00031F08FEFD4CF83E0D2CF85E0D0CF8DE04A
:100FF000CECF8FB7F894EC91E22BEC938FBFECCF70
:10100000809119020E949B0360E0809119020E9466
:10101000B5078091160280FD05C061E0809119023C
:101020000C9460070895CF93DF93C6E0D2E08B89DC
:101030000E946B0361E08B890E94B50760911602E4
:10104000609561708B89DF91CF910C9460078F92CE
:101050009F92AF92BF92EF92FF920F931F93CF9305
:10106000DF93CDB7DEB7A1970FB6F894DEBF0FBE02
:10107000CDBF162F042F19A2423008F40AE07E01DA
:1010800021E2E20EF11C802E912CB12CA12C612FBB
:10109000A50194010E94521A802F622F0E94111AFA
:1010A000181B1A3044F5105DF70112937F01122FBF
:1010B000732FCA01232B242B252B49F701900020E5
:1010C000E9F73197AF014E195F09B70186E092E069
:1010D0000E94EB00A1960FB6F894DEBF0FBECDBF05
:1010E000DF91CF911F910F91FF90EF90BF90AF9044
:1010F0009F908F900895195CD7CFEF92FF920F9336
:101100001F93CF93DF93EB0167E00E94111A8C5F6E
:101110007E0197E0E90EF11C082F10E00C1B1D0B5F
:10112000C8018C0F9D1F0E94F7198993CE15DF050A
:10113000B9F7DF91CF911F910F91FF90EF90089534
:101140000F931F93CF93DF938C01D0E0C0E0CE01CB
:101150000E94F719F80181938F012196C330D105C0
:10116000B1F7DF91CF911F910F910895EF92FF9208
:101170000F931F93CF93DF93962F67E00E94111A6E
:101180008C5F092F172FD0E0C0E0E82EF12CF8017A
:1011900061918F01C7018C0F9D1F0E94FF1921963D
:1011A000C730D105A1F7DF91CF911F910F91FF902B
:1011B000EF9008950F931F93CF93DF938C01D0E0AE
:1011C000C0E0F80161918F01CE010E94FF192196C4
:1011D000C330D105B1F7DF91CF911F910F910895E1
:1011E000CF93DF9300D000D0CDB7DEB7682F70E08B
:1011F000660F771F660F771F635A7F4F44E050E0FA
:10120000CE0101960E94D419E8E8F1E08081418185
:10121000228190E03A8102C0959587953A95E2F750
:1012200050E03B8102C0440F551F3A95E2F7842BF2
:10123000952B30E04C8102C0220F331F4A95E2F714
:10124000822B932B97700F900F900F900F90DF9140
:10125000CF9108958FEF860F803178F4862F0E940A
:10126000F00865E070E00E94741A23E09695879577
:101270002A95E1F780599C4F089590E080E0F1CFE6
:10128000EF92FF920F931F93CF93DF9300D000D084
:1012900000D01F92CDB7DEB78C01CE0105960E941B
:1012A000A0088091B5019091B601892BA1F09D8194
:1012B0009F77F8018081903509F068C08F7780357D
:1012C00051F0F89486E00E946B0361EF76E086E0CF
:1012D0000E94D50378942091B5013091B601F801B0
:1012E0008081232B29F09D8198279F7709F4E0C006
:1012F0009091BA019F7E9093BA018F77803509F45F
:1013000060C0833509F4ECC0833409F09CC080B11F
:1013100090916B00892380934F0180914F018093BE
:101320004E0183B190916C00892380935901809183
:1013300059018093580161E272E086E00E945104F5
:101340008093770187FD1BC090E080E02CED35E0B5
:10135000FC01EE0FFF1FE65AFE4F318320830196FA
:1013600089309105A9F78AE0809373011092720188
:101370001092710186E0809376010E949B0382EFB8
:1013800091E09093B6018093B5015DC0933459F418
:101390008F77833409F49FCFF89486E00E946B0323
:1013A00061E272E094CF933509F095CF8F77833562
:1013B00009F491CFF89486E00E946B036DE671E02A
:1013C00086CF8091F9018C7F8093F90161EF76E0FF
:1013D00086E00E945104982F93708091F9018C7FD0
:1013E000892B8093F90154EFE52E51E0F52E86E02C
:1013F0008093F80188E592E09093FB018093FA01D5
:1014000080E699E09093FD018093FC018091440176
:10141000909145019093F7018093F601F092450178
:10142000E092440160E086E00E94B50761E08091AF
:10143000F8010E9460078091F8010E949B03F092DE
:10144000B601E092B501F801818186958F714091D6
:10145000B5015091B6015093E8014093E701982FF0
:10146000906C9093E6011092EE019091EF01209123
:10147000F0013091F101307F39603093F1019371C7
:101480002C7722602093F00190629F7E9093EF0171
:101490001092EA011092EB015093AB014093AA0124
:1014A000880F880F9091AF019370892B8093AF01C3
:1014B000F80182818695982F93708091EF018C7F3F
:1014C000892B8093EF0127960FB6F894DEBF0FBEED
:1014D000CDBFDF91CF911F910F91FF90EF900895B5
:1014E00080E290E090937D0180937C0181E0809385
:1014F0007B018093780180917A01816080937A01E9
:1015000008986DE671E086E00E94510480916B00BE
:10151000816080936B000E946001F8016181669593
:101520006F7170E0660F771F660F771F635A7F4FEA
:1015300044E050E0CE0101960E94D41989818F7158
:10154000982F990F80917A01817C892B80937A0161
:101550008EED91E09093B6018093B5018091BA0130
:1015600080618093BA016FCF4F925F926F927F92AA
:101570008F929F92AF92BF92CF92DF92EF92FF92A3
:101580000F931F93CF93DF93CDB7DEB7182F4DB6D0
:101590005EB60E941301111117C0C0904001D09097
:1015A0004101E0904201F09043019B01AC012C19F4
:1015B0003D094E095F0969017A0130E2C3163EE434
:1015C000D306E104F104D8F0609340017093410127
:1015D0008093420190934301A091E401B091E50111
:1015E000FD0110E0309741F083818F3F09F01F5FCC
:1015F0000184F285E02DF6CF111118C011E0812F82
:101600000FB6F8945EBE0FBE4DBEDF91CF911F9115
:101610000F91FF90EF90DF90CF90BF90AF909F9091
:101620008F907F906F905F904F900895C12ED12C36
:10163000C601880F991F4DB75EB7481B590B0FB6EF
:10164000F8945EBF0FBE4DBF8DB79EB701964C019B
:1016500020E01097A1F013968C9113978F3F51F0D3
:10166000822F90E0880F991F880D991DFC01B1838E
:10167000A0832F5F19960D90BC91A02DEACFF401A5
:10168000A081B18112968C9112978E7F12968C93C5
:101690007401D40100E0BB24B394B116F1F01296AA
:1016A0008D919C911397FC0122812E7F22832D9195
:1016B0003D9165817681F9014581568164177507F1
:1016C00050F411963C932E939D0122503109F9015B
:1016D0009183808301E0B394E0CF0111D9CFD4018D
:1016E00061E01617D9F012962D913C911397F901EC
:1016F00085819681FD01408151811296FA014581D3
:1017000056818417950721F0841B950B069720F4CA
:10171000F9018281816082836F5FE3CFF894540185
:1017200099249394D501ED91FD915D0162816695B7
:101730006170692583810E9460070F5F1013F2CFEB
:10174000789407B5AA24A394B12C712C612C802E17
:10175000912CD701ED91FC9185819681880D991D81
:10176000BC0164507109402F07B5041708F4739445
:101770009301200F311DD701ED91FC91119742810A
:1017800040FD09C06217730730F4F894ED91FC91A5
:10179000428141604283402F8217930728F7D70187
:1017A000ED91FC9162816695617083810E94600772
:1017B000AC14BD043CF4D7011296ED91FC918281EA
:1017C00080FD01C07894B2E0EB0EF11CEFEFAE1A91
:1017D000BE0A8FEF8A0D811708F4BBCF0FCF80E0D0
:1017E0000C94B40ACF92DF92EF92FF920F931F9363
:1017F000CF937C018B016A01DA011C92FB011182FB
:101800001082138212821582148217821682118628
:101810001086DC018C918823B9F1C0E06BE370E0A5
:10182000C7010E94B31A0097F1F0FC011082D601A3
:10183000EC9121E02E0F2C93F0E0EE0FFF1FE00F54
:10184000F11FF182E0827C01BFEFEB1AFB0ACF5F50
:10185000C53021F78C2FCF911F910F91FF90EF9002
:10186000DF90CF900895F601C081D7018C91882335
:1018700089F38C2F90E0880F991F080F191FF8012A
:10188000F182E082CF5FE6CF80E0E5CF4F925F92BA
:101890006F927F928F929F92AF92BF92CF92DF9280
:1018A000EF92FF920F931F93CF93DF93CDB7DEB7E5
:1018B00065970FB6F894DEBF0FBECDBFCE0142963E
:1018C0000E94A0088091BB01893409F455C034F40A
:1018D000882309F444C060E570E049C0803509F40C
:1018E000CEC08335C1F7A090BC0122E5A21237C15A
:1018F0008091BD018D3309F028C19091BE019E34C5
:1019000011F0993541F721E0993509F020E08C89F3
:10191000382F3170321308C08095817031E09E34C9
:1019200009F030E0831729F08091A9018095809318
:10193000A9018C8920FB80F98C8BCE0142960E94F4
:10194000DA086091A90170E069507F4F660F771F38
:10195000660F771F87E792E00E940D037AC280919D
:10196000BA01816082608093BA0168E570E08BEB18
:1019700091E00E94E6195BC08091BC018D3381F536
:101980008091BD018035C9F0833531F1833409F090
:10199000A2CF8A89807883648A8B8EEB91E00E9443
:1019A000B6199FEF980F903108F095CF8F71880F7F
:1019B0009B89917C892B8B8B04C08A898078806578
:1019C0008A8BCE0142960E944009CE0142960E9427
:1019D000DA081092BC012BC08A8980788365DCCF3D
:1019E0008F3309F078CF8DE38093BC018A898F779C
:1019F0008093BD018035C9F08B8986958F718A30BF
:101A000030F4805D8093BE011092BF0110C090E061
:101A10006AE070E00E94991A605D6093BE01805D8B
:101A20008093BF011092C00102C01092BE014BEB27
:101A300051E0FA0101900020E9F7AF014C5B514001
:101A40006BEB71E086E092E00E94EB000E941C06C6
:101A500065960FB6F894DEBF0FBECDBFDF91CF9174
:101A60001F910F91FF90EF90DF90CF90BF90AF90BC
:101A70009F908F907F906F905F904F90089580918E
:101A8000BC018D3309F041C0AE014B5E5F4FBE011A
:101A90006F5F7F4F8DEB91E00E94F20B9091BD0143
:101AA000923569F0963439F1923461F1953409F048
:101AB00012CF8A8980688A8B8B89816021C08230AD
:101AC00009F009CFEB81FC818081877F863409F0A2
:101AD00002CF8A898F778A8B8B8981608B8B81E09B
:101AE0009081963409F080E0982F990F8C8981704D
:101AF000892B8C8B6ACF8A8980688A8B8B898E7FB1
:101B00008B8B63CF8A898F77F8CF8DE38093BC016D
:101B10008A89982F991F9927991F8B898170880F1F
:101B2000892BE82FF0E0EC5AFF4FE491E093BD01E0
:101B3000823009F07ACF8BE38093BE018C898E7F4F
:101B400011F086E46DCF8EE46BCF8DE38093BD0101
:101B50008C8980FF02C089E555CF8EE453CF00ED1C
:101B60000A0D093008F0B7CE002339F0BE01655FD9
:101B70007F4F8FEC8A0D0E947D088091BD018D33CF
:101B800009F075C1AE014B5E5F4FBE016F5F7F4FC5
:101B90008EEB91E00E94F20B01111DC0813009F023
:101BA0009ACE89819A810E94B6198C5D93408D3FAF
:101BB00033E0930708F08FCE1092BD01969587957C
:101BC000969587958093A9012C8920FF30CF809529
:101BD0008093A9012CCF2091BE01243409F4F8C0D0
:101BE000E4F490ED920F923008F075CE813009F058
:101BF00072CE0150110B81E090E0A0E0B0E004C093
:101C0000880F991FAA1FBB1F0A95D2F73091A80110
:101C1000203309F429C1832B1AC1233509F05BCE87
:101C2000853009F058CEEB81FC81F080FEE4FF1690
:101C300019F020E5F2124FCE83E090E00E94F719F0
:101C40000150110B41E050E060E070E0002E04C054
:101C5000440F551F661F771F0A94D2F73EE4B82E33
:101C6000B42AF31619F0B42EB094B82283E58B870A
:101C70008D819E810E94B6197C019F878E878F81FE
:101C800098850E94B6194C01998B888B89859A8515
:101C90000E94B6196C01C401885592407724739450
:101CA0008930974038F4C701885592408930974071
:101CB00008F4712C8E149F0408F4D0C0F401EE19BE
:101CC000FF097F01C114D10419F4CC24C394D12C91
:101CD000B70190E080E028EC30E040E050E00E9466
:101CE0001A1A960150E040E00E94521A80ED97E0E7
:101CF000213DF7E03F074105510508F0B2C081E002
:101D000090E02115310509F4ACC03D872C87711096
:101D1000E2CDBE01655F7F4F8FEC8A0D0E94B60851
:101D20006B2D83E090E00E94FF19F801EF52FF4F06
:101D3000E491C8016BE070E00E94741A9C01215E7E
:101D40003D4F7901D9011396EC9313972FEF149619
:101D50002C93149722E217962C93179726E918963E
:101D60002C93DC01AF5DBD4F8C9182608C9361E060
:101D70008E2F0E94600761E0F70183810E94B50702
:101D80008091A80190E0002E02C0959587950A9455
:101D9000E2F781709927880F991F21E030E02C0F1E
:101DA0003D1F820F931FDC011D968D919C916AE06F
:101DB00070E00E94741A000F111FF801EB56FE4FDD
:101DC000918380836AE070E00E94851AC701C4CDC8
:101DD000823009F080CDEB81FC81F0808EE4F81632
:101DE00019F090E5F91277CD83E090E00E94F719A1
:101DF0000150110B41E050E060E070E0002E04C0A3
:101E0000440F551F661F771F0A94D2F7E42EE09403
:101E1000AEE4682FFA1220C0642B83E090E00E94A9
:101E2000FF1984E48B87BE01655F7F4F8FEC8A0DBD
:101E30000E94B608C8016BE070E00E94741A815ECF
:101E40009D4F2FEFFC0123838091A8018E21809369
:101E5000A8011092BD01EBCD6E21DFCFE818F90883
:101E600031CF9D878C8753CF80958323F0CF8F33DD
:101E700009F031CD8DE38093BD01002309F493C0B7
:101E8000FB840150110B83E090E00E94F719C82EEB
:101E9000D12C002E02C0D594C7940A94E2F7B1E089
:101EA000CB22DD24E3E5FE12A4C068897989AE84E3
:101EB000BF846A157B0508F497C06A197B0990E016
:101EC00080E028EC30E040E050E00E941A1A2C85B7
:101ED0003D8550E040E00E94521A2901790183E5D6
:101EE0008093BE018BE38093BF018EE4CD2809F47B
:101EF00080E58093C0018BE3D82ED092C10144E0ED
:101F000062EC71E0C5010E947805D092C60144E000
:101F100067EC71E0888999890E947805D092CB019D
:101F200044E030E1E31637E2F30608F045E06CECFC
:101F300071E0C2010E947805E5E1F0E080E1E81679
:101F400087E2F80610F0E6E1F0E0E554FE4F8AE3A0
:101F500080838091A80190E002C0959587950A95AD
:101F6000E2F78170805D26E130E090E1E91697E2CA
:101F7000F90610F027E130E025543E4FD9018C934B
:101F800087E190E0B0E1EB16B7E2FB0610F088E1E4
:101F900090E085549E4FDC011C928091BA0186FF2F
:101FA00046CD108244CD0091A90110E08C8980FFBC
:101FB00017C086EF91E0801B910B880F991F880F47
:101FC000991F44E06EEB71E00E9478058AE38093EC
:101FD000C20143E063EC71E0C8010E94780527CD9F
:101FE000C80189509F4FE9CF9501261B370BB901D6
:101FF00066CF84E48093BE018BE38093BF018EE4BF
:10200000CD2809F480E58093C0018AE38093C10163
:102010008091A80190E002C0959587950A95E2F716
:102020008170805D8093C2011092C3018091BA01DA
:1020300086FFFDCC1092C101FACC1F920F920FB611
:102040000F9211242F933F938F939F93AF93BF933E
:1020500080918C0190918D01A0918E01B0918F01A2
:1020600030918B0123E0230F2D3768F126E8230FF1
:102070000296A11DB11D20938B0180938C0190933A
:102080008D01A0938E01B0938F018091900190916A
:102090009101A0919201B09193010196A11DB11DF2
:1020A0008093900190939101A0939201B09393013A
:1020B000BF91AF919F918F913F912F910F900FBE44
:1020C0000F901F9018950196A11DB11DD4CF1F929E
:1020D0000F920FB60F9211242F933F934F935F935C
:1020E0006F937F938F939F93AF93BF93CF93EF9310
:1020F000FF9383B190916C00892380935901809163
:102100005801909159018927809357018091590175
:1021100080935801C0E080915601C81760F4EC2FFD
:10212000F0E0EE0FFF1FE05BFE4F0190F081E02D2D
:102130000995CF5FF0CFFF91EF91CF91BF91AF9114
:102140009F918F917F916F915F914F913F912F91CF
:102150000F900FBE0F901F9018951F920F920FB601
:102160000F9211242F933F934F935F936F937F931D
:102170008F939F93AF93BF93CF93EF93FF9380B1D0
:1021800090916B00892380934F0180914E01909133
:102190004F01892780934D0180914F0180934E011B
:1021A000C0E080914C01C81760F4EC2FF0E0EE0F16
:1021B000FF1FEA5BFE4F0190F081E02D0995CF5F94
:1021C000F0CFFF91EF91CF91BF91AF919F918F9100
:1021D0007F916F915F914F913F912F910F900FBE23
:1021E0000F901F90189586E091E09093DF01809307
:1021F000DE01EFE1F2E044E351E02FEF5183408351
:102200002383168215828091E4019091E5019287E3
:102210008187F093E501E093E4018091E2018F5F13
:102220008093E2013B9682E0E238F80739F710929A
:1022300009021092080288EE93E0A0E0B0E08093DB
:102240000A0290930B02A0930C02B0930D0284E259
:1022500091E0909307028093060260E080E00E9484
:10226000B5078091160280FD04C061E080E00E9405
:1022700060071092190281E080931A0223E230E095
:10228000309313022093120280931B0285E290E0A8
:10229000909315028093140264EB74E080E00E9436
:1022A000510486E092E09093E1018093E0018AE19D
:1022B00091E09093F5018093F4018091F9018B7F77
:1022C0008093F90180E191E09093F3018093F20112
:1022D0008091EF0124EF31E03093E8012093E70192
:1022E0009FED9093E6011092EE019091F001209104
:1022F000F101207F29602093F10180719C77926029
:102300009093F00180628F7E8093EF011092EA013A
:102310001092EB010895CF93DF93CDB7DEB76297AC
:102320000FB6F894DEBF0FBECDBF93E095BD84E03D
:1023300086BD789480916E00816080936E0081EA02
:10234000809380009093810087E880937A00CE018B
:1023500008960E94A00888858F778F3721F08A859C
:102360008E7F8E3F11F580ED88878985807C8B601C
:1023700089871A86CE0108960E94DA086FEF83E0FB
:1023800090E00E94FF1910E004E4BE016F5F7F4FF0
:10239000812F0E947D080983BE016F5F7F4F812FCF
:1023A0000E94B6081F5F183081F7CE0108960E9480
:1023B000A008CE0108960E94400949EDE42E40E0B5
:1023C000F42E01ED10E0F801849161E00E94B50760
:1023D0000F5F1F4FE016F106B1F761E083E00E9446
:1023E000B50761E087E00E94B50710E000E0DD245A
:1023F000DA9422E2C22E36E9B32EBE016F5F7F4F20
:10240000802F0E947D088981833599F5C8016BE092
:1024100070E00E94741ADC01F801EF52FF4F8491C2
:102420009D01215E3D4F7901F9018383D482C782EA
:10243000B086AF5DBD4F9C9192609C9361E00E941D
:10244000600761E0D70113968C910E94B5076C81FB
:102450007D81C7010E940D03F801EE0FFF1FEB56AF
:10246000FE4F8C819D816AE070E00E94741A918316
:1024700080830F5F1F4F0830110509F0BECF83E046
:1024800080937A028FEF80937B0282E280937E02B8
:1024900086E980937F02809179028D7F8093790213
:1024A00060E083E00E94600761E080917A020E9410
:1024B000B5078091A9019A8590FF03C0809580930C
:1024C000A9016091A90170E069507F4F660F771FE5
:1024D000660F771F87E792E00E940D038091160236
:1024E0008660877C8E7F80931602887121E030E0C1
:1024F00011F430E020E0285F3F4F81E090E002C01F
:10250000880F991F2A95E2F790931802809317027B
:102510008CE280931C0281E780931D0284E7809304
:102520001E0280916800209119023BEF320F91E06A
:10253000383008F490E041E050E001C0440F9A9533
:10254000EAF7842B809368008BEF820FEBE6F0E0D4
:10255000883010F0ECE6F0E09081233008F066C19E
:1025600081E001C0880F2A95EAF7892B808380914A
:102570001E0290E00E94AD0484EF91E09093AB01C5
:102580008093AA0189EB90E09093AD018093AC0118
:102590008091AE01807E88608093AE018091AF0112
:1025A000837080618093AF011092B0018091B3017C
:1025B000807B8093B301FF24F394412C512C320192
:1025C000439405E5E02E8091D601811108C00E9458
:1025D00038017093D5016093D401F092D601CE01F9
:1025E00008960E94A0088091BA0183FD22C0BFE135
:1025F000CB2EB2E0DB2E10E000E0F60183818F3FAE
:1026000081F4F801EF52FF4F84916091A80170E0CE
:10261000002E02C0759567950A94E2F761700E94DA
:1026200060070F5F1F4FFBE0CF0ED11C0830110574
:1026300021F786E092E00E94510518161906ACF4C5
:1026400086E092E00E945E0590919401883009F442
:10265000FEC08D3009F002C1E92FF0E0E554FE4FD5
:1026600010821092940197FF05C18885982F991FB9
:102670009927991F0985802F8170880F892B8130B8
:1026800009F491C208F425C3823009F44BC18330A8
:1026900009F409C40E9438012091D4013091D50178
:1026A000621B730B693E7340F8F00E94380170930F
:1026B000D5016093D4018091BA0184608093BA01FE
:1026C00061E087E00E9460078091BA0180FD0CC044
:1026D0001092A8010E9413088DE291E00E942E063C
:1026E0000E941C060E9400088091B5019091B601DD
:1026F000DC01ED91FC910190F081E02D60E0099505
:10270000811104C08091BA0182FF5DCF0E9438011F
:102710008091A601681B6C3028F08091BA018F7DF2
:102720008093BA010E9438016093A6011091BA010A
:1027300015FB882780F98F2580FB15F91093BA01C6
:1027400014FF05C0812F8073803309F03CCF12FB4A
:10275000882780F98F250E94B40A882309F433CF93
:1027600011FF22C09091A9018091A501981779F0DD
:10277000282F30E0492F50E0891708F08BC5421B05
:10278000530B433051050CF081C59093A501609126
:10279000A50170E069507F4F660F771F660F771FA6
:1027A00087E792E00E940D038FE1A82E82E0B82E09
:1027B00005E911E0D12CC12C8C2CF50183818F3FD0
:1027C00009F490C5BE016F5F7F4F8C2D0E947D087C
:1027D0004C815D812E813F81B22FA32FCA01421708
:1027E000530718F0B42FA52FC9016091A80170E01C
:1027F00002C0759567958A94E2F78A809B8060FF96
:1028000051C54217530708F451C5D8012D913C9189
:102810001197281939096AE070E00E94741A281784
:10282000390708F46DC52D933C9352C58AEF820F8A
:10283000883018F42650330B93CE80E4233009F40B
:1028400094CE88E0243009F490CE80E88ECE99238F
:1028500009F40BCF91509093940107CF983138F43D
:10286000E92FF0E0E554FE4F80839F5FF4CF109294
:102870009401FBCE0E9413086FE471E08BEB91E0B2
:102880000E94DD19892B69F06CE471E08BEB91E01B
:102890000E94DD19892B29F00E94460C0E94000835
:1028A000E4CE69E471E08BEB91E00E94DD19892BA5
:1028B00029F48091BA0180648093BA0166E471E0E2
:1028C0008BEB91E00E94E6190E94460C63E471E0F4
:1028D0008BEB91E00E94E6190E94460C6FE371E0D9
:1028E0008BEB91E00E94E6190E94460C1091BA0110
:1028F00016FB112710F923E52093BB0180E3810F1C
:102900008093BC013FE33093BD011092BE010E9451
:10291000460C1F5F193079F78091BA018F7B809345
:10292000BA01BCCF8091E7019091E801009709F4CA
:10293000B1CE6091E601629566956770DC01ED911C
:10294000FC910190F081E02D0995882309F4A2CE35
:102950008091E7019091E8016091E6016F71DC01DF
:10296000ED91FC910280F381E02D0995AC019093EB
:10297000ED018093EC018091EF0180618093EF0184
:1029800029ED30E080E0F901659174914617570711
:1029900008F494C0F9013296659174916417750733
:1029A00008F48CC03091F001432F441F4427441F8A
:1029B0009091F101292F2F70220F242B281385C00D
:1029C0009091F101292F22952F702F5F2770322FC0
:1029D0003295307F9F78932B9093F1013091EF01E6
:1029E000432F437050E04F5F5F4F2417150609F0E7
:1029F00051CE9091F001803109F073C03295369537
:102A00003770892F8370880F880F880F832B880F6A
:102A1000880F9378982B9093F0019091F001292FD3
:102A2000269526952F71322F3295330F307E809167
:102A3000EF018F71832B322F3695369536959C7F1B
:102A4000932B9093F0019C77943409F052C0877FC8
:102A50008093EF019091EB018091EF0182FF84C0A0
:102A6000933008F07FC0E92FF0E0E954FE4F8091E9
:102A7000EA01808390681092EB018091EF018B7FD7
:102A80008093EF01992309F405CE97FD7BC0692F50
:102A900070E0FB01EA54FE4F308180E020E061509D
:102AA0007109422F50E0461757070CF066C0495491
:102AB0005E4FFA01408184272F5FF3CF8F5F2C5F39
:102AC0003F4F823109F05FCFE5CD80FB37F930937E
:102AD000F001282F26952F709078922B9093F1017A
:102AE0006FCF8F71880F880F9378892B8093F001B7
:102AF00094CF83FD2BC030E0A4E0220F331FAA95B2
:102B0000E1F72093EA0184608093EF0190E08091E7
:102B1000EF0183FB222720F92F2520FB83F98093E7
:102B2000EF01913009F496CF923009F0B3CDE091E6
:102B3000EB01E330F8F481E08E0F8093EB01F0E0DD
:102B4000E954FE4F8091EA018083A4CD9091EA017F
:102B5000292B2093EA018B7F8093EF01F092EE0105
:102B600092E0D5CF90E087CF992309F493CD1092CE
:102B7000EB018BCF1092EB018DCD8E25D92EDD0C84
:102B8000381731F08091BA0188608093BA01D12C56
:102B90008091BA0183FF04C061E087E00E94600772
:102BA000D110FFC077CD06950F711091BA0116951F
:102BB00011708091B5019091B601DC01ED91FC910D
:102BC0000190F081E02D61E00995882309F462CD40
:102BD0008091B5019091B601DC01ED91FC910280EC
:102BE000F381E02D602F0995AC0121E231E090E006
:102BF000F901659174916417750738F4F9013296FB
:102C0000659174914617570740F02C5F3F4F9F5FC7
:102C1000933071F7109201013DCDE12FF0E08091EA
:102C20000101913029F19230C9F1D12C8830E9F4B9
:102C30002091B70130E0C901959587958575220FE0
:102C4000331F2A7A822B90E09C0135952795359584
:102C500027952373880F991F880F991F8C7C822BCF
:102C600082958093B701F4E0DF2E1092010198CF96
:102C7000883008F00FCD91E0980F90930101E9544E
:102C8000FE4FA301920104C0220F331F441F551FA2
:102C90008A95D2F7C9012081822B56CF883008F05F
:102CA000F9CC91E0980F90930101E954FE4FB301E4
:102CB000A20104C0440F551F661F771F8A95D2F7E3
:102CC000DB01CA0180959095A095B0952081822363
:102CD0003BCF8091B5019091B601DC01ED91FC9163
:102CE0000190F081E02D62E00995882309F4D2CCAF
:102CF0000E9413088AE391E00E942E06898586953A
:102D00008F719FEF980F903108F0C7C00E94F008B4
:102D1000BC0190E080E04AE00E9427080E94000881
:102D2000898586958F719FEF980F903158F40E9496
:102D3000F0088E32B7E09B0710F08DE297E08D3CF3
:102D4000910510F48DEC90E06AE070E00E94741A36
:102D500046E0969587954A95E1F78C010052110956
:102D60000E94130887E391E00E942E06B80190E0CC
:102D700080E04AE00E9427080E941C060E9400088A
:102D80008091B40180138CC09091BA019695917096
:102D90009B871C86EB85FC85E954FE4F808334E0DD
:102DA000D32E60E087E00E9460078091BA0186958B
:102DB00081708D871E86ED85FE85E954FE4F10815A
:102DC0008091B7018093A9019A8590FF03C08095F7
:102DD0008093A90183E090E00E94F719F8859F2F66
:102DE000991F9927991FF985F170FF0FF92B909181
:102DF000A701892E912CE091A80130E020E0A12EBE
:102E0000B12C482F50E0588B4F87A22FA501022EDE
:102E100002C0559547950A94E2F7BA016170772789
:102E20007A8B698B6F857889022E02C075956795BC
:102E30000A94E2F760FD03C0F33009F0FFC1B3016B
:102E4000A20104C0440F551F661F771FAA95D2F731
:102E5000CA0169897A89672B09F4ECC1E82B2F5FD5
:102E60003F4F2830310589F6E093A8011093A70160
:102E70000E9438017093D5016093D4018091BA010A
:102E80008B7F96E0D91200C282608093BA01809154
:102E9000BA01877F8093BA01FDCB90E080E038CF04
:102EA0000093B401F7CB8091B5019091B601DC019C
:102EB000ED91FC910190F081E02D62E00995D82E12
:102EC000882311F024E0D22E8091AA019091AB01C9
:102ED000DC01ED91FC910190F081E02D66E0099517
:102EE000882309F45DCE8091AA019091AB01609195
:102EF000AF0166956695DC01ED91FC910280F3814E
:102F0000E02D09958C019091B301892F8F7082304B
:102F100009F4E6C0F0F4882309F493C0813009F085
:102F20003FCEC8018F579440873C910508F0C4C03C
:102F30000E9438012091B1013091B201621B730BE4
:102F40008091B301807B83646834714008F0A0C035
:102F500027CE833009F40AC1843009F021CE9801CC
:102F60002A5A35402536310508F032C10E94380111
:102F70002091B1013091B201621B730B6234710573
:102F800008F40ECE8091B30180628093B3010E9459
:102F900038012091B1013091B201621B730B67308F
:102FA000714008F4FDCD8091B30186FFFCC08F7B9A
:102FB0008093B3018091B0019091B301292F207FBC
:102FC0002093B301882309F4EBCD6091AC0170919B
:102FD000AD016115710509F190719B012E5F3F4FA5
:102FE00050E040E0A82FAF77F901B491B13411F46B
:102FF000911107C0F901B491B43409F012C19111D3
:1030000010C1F9013197E491EA130BC1FB01E40F00
:10301000F51F8491882309F4C3CD9091BA0191FBE7
:10302000222420F8312CF101E954FE4F815021E097
:1030300030E001C0220F8A95EAF7808182278083E1
:10304000AFCDC8018E5794408D3B924020F10E9435
:1030500038017093B2016093B1018091AE018F711C
:103060008093AE018091AF018C7F8093AF018091FE
:10307000B3018F7B8F7D8093B30191E00B331740B9
:1030800008F490E08091B30190FB84F9807F826026
:103090008093B30185CD0F571440073C110508F00C
:1030A0007FCD0E9438017093B2016093B10180918D
:1030B000B301807F8160ECCF0E9438012091B10183
:1030C0003091B201621B730B603D774020F080911C
:1030D000B301807FDDCF0E37144008F061CDF7CF0C
:1030E00094FF10C00B33174080F40E9438012091E8
:1030F000B1013091B201621B730B603D774008F45F
:103100004FCDE5CF0E37144080F70E943801209153
:10311000B1013091B201621B730B6234710508F486
:103120003FCD2091AE01322F329536953770909178
:10313000AF01892F8370880F880F880F832B8F5FD3
:10314000382F3F718295880F807E2F71822B80935C
:10315000AE01832F8695869586959C7F982B9093BC
:10316000AF018091B301807F836092CF0A5A1540EE
:103170000536110558F40E9438017093B20160932E
:10318000B1018091B301807F846082CF0E943801B9
:103190002091B1013091B201621B730B603D774009
:1031A00008F4FECC94CF880F880F880F8078E091C8
:1031B000AE019E2F929596959770E091AF01E370C6
:1031C000EE0FEE0FEE0FE92B8E2B8093B001F4CEB5
:1031D00095FF05C094FF10C00B33174080F40E9488
:1031E00038012091B1013091B201621B730B603D37
:1031F000774008F4D5CC6BCF0E37144080F7809120
:10320000B3018F7D8093B3010E9438017093B201A6
:103210006093B1018091B301807F82608093B3019C
:10322000DECF2D5F3F4F4D5F5F4F4A35510509F0AF
:10323000DBCEF3CE482F4095E42311CE89899A89BD
:10324000892B09F40CCEA401022E02C05595479596
:103250000A94E2F740FD03CEC301B201022E04C07E
:10326000660F771F881F991F0A94D2F74E2F50E0E0
:10327000022E02C0559547950A94E2F740FF02C01E
:10328000462FD9CFE62BEBCD8D7FFFCD8D5F809381
:10329000A5017DCA241B350B233031050CF475CAFA
:1032A0008350F5CF2417350708F0AFCAF8018081A5
:1032B0009181F401E80FF91F8B2F9A2F6AE070E0DB
:1032C0000E94741A8E179F07D8F0D801ED93FC93D3
:1032D000D8018D919C916AE070E00E94851AC50129
:1032E0000E940D03BFEFCB1ADB0AEBE0AE0EB11C60
:1032F0000E5F1F4FF8E0CF16D10409F05DCA63C915
:10330000F80191838083E4CF84E291E090930702F7
:103310008093060264EB74E0809119020E94D50349
:10332000209119028BEF820FECE6F0E0883010F468
:10333000EBE6F0E04081233050F481E090E001C002
:10334000880F2A95EAF780958423808308958AEF71
:10335000820F883018F42650330BEFCF8FEB2330D9
:1033600099F38FE7243081F787EFEECFFC018827B0
:103370009927E89421912032E9F3293010F02E307A
:10338000C8F32B3241F02D3239F4689404C00E9406
:10339000ED19820F911D219120532A30C0F31EF4A4
:1033A000909581959F4F0895FB01DC0102C0059027
:1033B0000D9241505040D8F70895FB01DC018D91EA
:1033C000059080190110D9F3990B0895FB01DC01D8
:1033D00005900D920020E1F70895BC01880F991F18
:1033E000880F991F860F971F880F991F0895F999C5
:1033F000FECF92BD81BDF89A992780B50895262FFA
:10340000F999FECF92BD81BDF89A019700B40216DA
:1034100039F01FBA20BD0FB6F894FA9AF99A0FBE88
:103420000895002480FD060E660F11F08695D1F7F1
:10343000802D0895EE27FF27AA27BB2708C0A20FDB
:10344000B31FE41FF51F220F331F441F551F96950E
:1034500087957795679598F37040A9F7009799F746
:10346000BD01CF010895052E97FB1EF400940E9424
:103470004A1A57FD07D00E94521A07FC03D04EF497
:103480000C944A1A50954095309521953F4F4F4FD7
:103490005F4F089590958095709561957F4F8F4F00
:1034A0009F4F0895A1E21A2EAA1BBB1BFD010DC060
:1034B000AA1FBB1FEE1FFF1FA217B307E407F507E4
:1034C00020F0A21BB30BE40BF50B661F771F881FC0
:1034D000991F1A9469F760957095809590959B0156
:1034E000AC01BD01CF0108950024552704C0080E8A
:1034F000591F880F991F009729F076956795B8F3A3
:103500007105B9F7802D952F0895AA1BBB1B51E1BA
:1035100007C0AA1FBB1FA617B70710F0A61BB70B43
:10352000881F991F5A95A9F780959095BC01CD01E8
:10353000089597FB072E16F4009407D077FD09D065
:103540000E94851A07FC05D03EF4909581959F4F07
:103550000895709561957F4F0895EE0FFF1F0590B8
:10356000F491E02D0994FC018191861721F08823C4
:10357000D9F7992708953197CF01089510E0C0EC4D
:10358000D0E004C0FE010E94AD1A2196C13CD107D3
:06359000C9F7F894FFCF1B
:10359600FF080000000045012A0944010000000060
:1035A600BD02A502440100000000E102D802440168
:1035B600000000009C05EB0051055E053605490537
:0A35C60000000000EF0B0A03690388
:00000001FF
