:100000000C94F7030C941F040C941F040C941F040D
:100010000C941F040C941F040C941F040C941F04D4
:100020000C941F040C941F040C944B220C94B622C5
:100030000C941F040C941F040C941F040C941F04B4
:100040000C948A200C941F040C94FA200C94D42055
:100050000C941F040C941F040C941F040C941F0494
:100060000C942C210C941F0408000000BE9224491B
:10007000123EABAAAA2ABECDCCCC4C3E00000080DA
:10008000BEABAAAAAA3E00000000BF000000803F4D
:100090000000000000084178D3BB4387D1133D190D
:1000A0000E3CC3BD4282AD2B3E68EC8276BED98F3A
:1000B000E1A93E4C80EFFFBE01C4FF7F3F0000007E
:1000C0000000AE2000C840817FA1A6A83FD300D584
:1000D00080D922DA12DB208D14A4AF0000000000CA
:1000E000103878FCCC8404040C040C0CDCFCFC7C84
:1000F0001C080040E0E0F0B0B03030303060E0C0CC
:10010000800000008080808080808080808080806F
:100110008080800080C0C060606060E0C08080003F
:1001200000000000000000000000000000000000CF
:100130000000000808080844443C30202020A0A00B
:10014000E0C8C898F0C0C040F0E0C000187888004F
:10015000E838004868F80040F0E040000000000087
:1001600000000000000000F0F0E0E0C1C3830200E6
:100170000000000006040D0D091B1B1B1B1B0F0FAD
:100180000F000E1F3F3121616161C1C1E1FBFFFF23
:100190000701F8FEFF030000000000000103FFFE5E
:1001A0000003FEFEFC0C0C0C0C0C0C1818B8F0E054
:1001B00000C0E0F0F0B89898999991B1F1E1E08031
:1001C000000031F1E0E0E0606361606040C0838383
:1001D0000000030203010000010000000000000015
:1001E000000000000000E0FFFFFFFFFFFFFFF880BE
:1001F000000000000CFCFCFCFCC000000000000043
:10020000000000E0E0C0C0C0C00000008081818329
:100210008280838FBF387070607030381C1E0F036F
:10022000000E070707070606060606060203030177
:100230000001030707040D0D0D0D0D0D0D05010047
:10024000000000030F1F0E00000000000010180F38
:100250000F0F06000000000000000000000000007A
:100260000000000000F0FFFFFFFF1F1FFFFFFFFF68
:100270008000000000030FFFFFFFFFF00000000000
:10028000000000FFFFFFFFFFFF0000000007FFFF6F
:10029000FFFFFFFFFF0F0F0F0F0F0F0F0F0E0E1EB1
:1002A0003E3CFCFCF8F8F0F0E0C00000000000006C
:1002B000000080C0E0E0F0F0F0F0F8F8F8F8F8F8AE
:1002C000F8F8F8F8F8F0F0F0F0F0F0F0F0F0E0E026
:1002D000C0C080000000000000000000000000001E
:1002E00000000080F0FFFFFF7F03000003FFFFFF1F
:1002F000FFF0000000000007FFFFFFFFFE0000000E
:1003000000E0FEFFFFFF3F0F000000000000FFFFC6
:10031000FFFFFFFFFFF0F0F0F0F0F0F0F0F8F8F87A
:10032000F8FCFFFFFFBF1F1F0F0F0000000000F0D1
:10033000FEFFFFFFFFFFFF3F0F070301010000006B
:1003400000000000000000010101010181818181A4
:10035000818101000000000000000000000000009A
:1003600000C0E0FFFFFFFFFFF8F8F8F8F8FDFFFF1F
:10037000FFFFFE000000000001FFFFFFFFFEE0F8AE
:10038000FFFFFF3F070100000000000080FFFFFFAC
:10039000FFFFFF070303030303030303030307FF35
:1003A000FFFFFFFFFFFFFF00000000000000003F15
:1003B0007FFFFFFFFFFFFFF8F0E0E0E0E0E0E0E0BC
:1003C000E0E0F0F0F0FCFFFFFFFFFFFF7F7F1F0F7B
:1003D00007000000000000000000000000000060B6
:1003E0007C7F7F7F0F010101010101010101017F7C
:1003F0007F7F7F7C0000000000031F7F7F7F7F7F67
:100400007F07010000000000000000203F3F3F3F49
:100410003F3F1F0000000000000000000000001F20
:100420009F9F9F9F9F9F9F9F9C98D0C0C0C0C0C010
:10043000C0C0C1C1C1E3E3E3E3E7E767676767778C
:1004400073737373333333393938383818181C1CC5
:100450001C1C1C0C0C0E0E0E0E0E060000080C0CC4
:100460000C0C0C0C0C0C0C0C0C0C0C0C0C0C0C0CCC
:100470000C0C0C0E0E0E0E0E0E0E0E0E0E0E0E0EA2
:100480000E06060606060606060606060606060604
:10049000060707070707070703030303030303030D
:1004A000030303030303030101010101010101012E
:1004B000010100000000000000000000000000003A
:1004C000000000000000000000000000000000002C
:1004D0000000000000000000000000000102030016
:1004E00001030200020301000302010003010200F4
:1004F00002010301000203010003020200030103E1
:1005000000020103000102020001030201000303D3
:1005100001000203020001020300010103000201C5
:1005200002000303010200020103000102030001B3
:1005300003020002030100030201004F70656E41D7
:10054000565263204A6F79737469635265616465BA
:10055000722056312E310000000008000201000018
:100560000304070000000000000000000000002558
:100570000028002B0000000000240027002A0004AF
:10058000040404040404040202020202020303033A
:100590000303030102040810204080010204081034
:1005A00020010204081020000608200000000000BE
:1005B000000000002F000000000700070000147F6B
:1005C000147F1400242A7F2A120023130864620077
:1005D000364955225000000503000000001C22414E
:1005E00000000041221C000014083E081400080806
:1005F0003E0808000000A060000008080808080085
:100600000060600000002010080402003E514945CF
:100610003E0000427F4000004261514946002141B6
:10062000454B31001814127F10002745454539000D
:100630003C4A4949300001710905030036494949DE
:100640003600064949291E000036360000000056D3
:100650003600000008142241000014141414140081
:100660000041221408000201510906003249595183
:100670003E007C1211127C007F49494936003E4100
:10068000414122007F4141221C007F4949494100EC
:100690007F09090901003E4149497A007F0808089D
:1006A0007F0000417F4100002040413F01007F0862
:1006B000142241007F40404040007F020C027F0036
:1006C0007F0408107F003E4141413E007F09090937
:1006D00006003E4151215E007F0919294600464926
:1006E0004949310001017F0101003F4040403F0086
:1006F0001F2040201F003F4038403F006314081473
:100700006300070870080700615149454300007FF6
:1007100041410000552A552A55000041417F000003
:100720000402010204004040404040000001020475
:1007300000002054545478007F4844443800384422
:1007400044442000384444487F003854545418002E
:10075000087E0901020018A4A4A47C007F080404F8
:10076000780000447D4000004080847D00007F10C0
:100770002844000000417F4000007C0418047800F9
:100780007C0804047800384444443800FC242424C1
:10079000180018242418FC007C080404080048549D
:1007A00054542000043F444020003C4040207C0042
:1007B0001C2040201C003C4030403C0044281028B5
:1007C00044001CA0A0A07C004464544C44000008D9
:1007D0007700000000007F000000007708000000A4
:1007E000100810080014141414141400DE2311242B
:1007F0001FBECFEFD8E0DEBFCDBF12E0A0E0B1E07A
:10080000EAECF5E602C005900D92AA3BB107D9F7D4
:1008100026E0AAEBB2E001C01D92AE36B207E1F7C6
:1008200013E0C7EFD3E004C02197FE010E94E63039
:10083000C63FD107C9F70E94B7250C94E3320C9448
:100840000000E7EAF5E0E491A7EEB3E0EC93E8EA14
:10085000F5E0249111962C931197E9EAF5E0849143
:1008600012968C931297EAEAF5E0E4911396EC93D2
:1008700013974BEA55E018965C934E93179749E906
:1008800058E05093E6034093E50390E0079633E089
:10089000959587953A95E1F715968C931597289F2E
:1008A000E02D11241696EC9316971A961C921E9220
:1008B000199708958CBD9DBD089590E0FC01ED56FB
:1008C000FA4F249181589A4FFC018491882399F022
:1008D00090E0880F991FFC01EB58FA4FA591B49155
:1008E000FC01E559FA4F859194918FB7F894EC91FA
:1008F000E22BEC938FBF089590E0FC01E95AFA4F88
:100900002491FC01ED56FA4F3491FC01E158FA4F65
:10091000E491EE23C9F0222339F0233001F1A8F449
:10092000213019F1223029F1F0E0EE0FFF1FE559D7
:10093000FA4FA591B4918FB7F894EC91611126C04C
:1009400030953E233C938FBF08952730A9F028307F
:10095000C9F0243049F7809180008F7D03C08091D9
:1009600080008F7780938000DFCF84B58F7784BD40
:10097000DBCF84B58F7DFBCF8091B0008F778093E4
:10098000B000D2CF8091B0008F7DF9CF3E2BDACF6F
:100990003FB7F8948091D4039091D503A091D603EA
:1009A000B091D70326B5A89B05C02F3F19F001963B
:1009B000A11DB11D3FBFBA2FA92F982F8827BC01B9
:1009C000CD01620F711D811D911D43E0660F771FE0
:1009D000881F991F4A95D1F708958F929F92AF92E1
:1009E000BF92CF92DF92EF92FF924B015C010E9487
:1009F000C8046B017C010E94C8046C197D098E0932
:100A00009F09683E734081059105A8F321E0821A91
:100A10009108A108B10888EEC80E83E0D81EE11C39
:100A2000F11C81149104A104B10429F7FF90EF9007
:100A3000DF90CF90BF90AF909F908F9008952FB789
:100A4000F8946091D0037091D1038091D20390917A
:100A5000D3032FBF0895FC0122813381FB01318331
:100A60002083FC0184819581FA019183808308951C
:100A700008950895089508950895AF92BF92CF9272
:100A8000DF92EF92FF920F931F93CF93DF936C014E
:100A90007B018B01040F151FEB015E01AE18BF082F
:100AA000C017D10759F06991D601ED91FC910190E1
:100AB000F081E02DC6010995892B79F7C501DF91F9
:100AC000CF911F910F91FF90EF90DF90CF90BF904B
:100AD000AF900895FC01538D448D252F30E0842F75
:100AE00090E0821B930B541710F0CF960895019756
:100AF0000895FC01918D828D981761F0A28DAE0F43
:100B0000BF2FB11D5D968C91928D9F5F9F73928FC9
:100B100090E008958FEF9FEF0895FC01918D828DF5
:100B2000981731F0828DE80FF11D858D90E00895C2
:100B30008FEF9FEF0895FC01918D228D892F90E01A
:100B4000805C9F4F821B91098F739927089582EFD4
:100B500093E00E949B0521E0892B09F420E0822F7D
:100B6000089580E090E0892B29F00E94A70581116B
:100B70000C9400000895FC01A48DA80FB92FB11D9D
:100B8000A35ABF4F2C91848D90E001968F739927C3
:100B9000848FA689B7892C93A089B1898C918370A1
:100BA00080648C93938D848D981306C00288F3899A
:100BB000E02D80818F7D80830895EF92FF920F93C7
:100BC0001F93CF93DF93EC0181E0888F9B8D8C8DF9
:100BD00098131AC0E889F989808185FF15C09FB7ED
:100BE000F894EE89FF896083E889F98980818370B0
:100BF000806480839FBF81E090E0DF91CF911F915F
:100C00000F91FF90EF900895F62E0B8D10E00F5F7F
:100C10001F4F0F731127E02E8C8D8E110CC00FB655
:100C200007FCFACFE889F989808185FFF5CFCE01ED
:100C30000E94BB05F1CFEB8DEC0FFD2FF11DE35AA8
:100C4000FF4FF0829FB7F8940B8FEA89FB89808170
:100C50008062CFCFCF93DF93EC01888D8823B9F0EA
:100C6000AA89BB89E889F9898C9185FD03C08081B7
:100C700086FD0DC00FB607FCF7CF8C9185FFF2CF34
:100C8000808185FFEDCFCE010E94BB05E9CFDF91CA
:100C9000CF91089520914903260F3327331F213226
:100CA0003105ECF420916D03FC0190E080E02430EC
:100CB00069F082E00895A09149032191AC01475D5C
:100CC0005C4FA40FB52FB11D2C930196861798F396
:100CD00080914903680F6093490380E0089581E0A3
:100CE000089510926D0381E080936F0310926E035C
:100CF00061E082E10E947C0461E083E10E947C0467
:100D0000E9EBF0E080818E7F808380818D7F80831E
:100D100080E28093B80085E48093BC000895CF936F
:100D2000DF9391E0909328038823B9F0C091B80035
:100D3000D091BA008091BC008A7B8093BC0060E0B7
:100D400082E10E947C0460E083E10E947C040E94B6
:100D50007106D093BA00C093B800DF91CF91089587
:100D60000895E0919A0380919903E81730F4F0E038
:100D7000ED5FFC4F808190E008958FEF9FEF089525
:100D800090919A03809199032FEF3FEF981748F4C1
:100D9000E92FF0E0ED5FFC4F208130E09F5F909302
:100DA0009A03C90108958091990390919A03891B30
:100DB000990B0895CF92DF92EF92FF920F931F93BA
:100DC000CF93DF937C01CB018A0120910203222380
:100DD00089F0EB016B01C40ED51ECC15DD0569F061
:100DE0006991D701ED91FC910190F081E02DC7014F
:100DF0000995F3CF642F0E944A06C801DF91CF9175
:100E00001F910F91FF90EF90DF90CF900895CF93B7
:100E1000DF931F92CDB7DEB76983209102032223AF
:100E2000F9F020919703203258F021E030E0FC01E6
:100E30003383228390E080E00F90DF91CF9108957B
:100E400080919803E82FF0E0EE51FD4F9981908357
:100E50008F5F809398038093970381E090E0ECCFBD
:100E600061E0CE0101960E944A06F7CFCF92DF9251
:100E7000EF92FF920F931F93CF93DF93D09197033D
:100E8000D13208F094C0C091E0020E94C8046B0106
:100E90007C0180916D03811165C082E080936D03B8
:100EA00081E080936F038FEF80936C031092910326
:100EB000D0939003E2EEF2E0A0E7B3E080E0D81335
:100EC00085C01092920380919203CC0FC82BC093DF
:100ED000920380916E03813009F07CC010926E0302
:100EE0000E94C8046B017C01809192038093BB0037
:100EF0008091240390912503A0912603B0912703AC
:100F0000892B8A2B8B2B99F00E94C8040091240313
:100F10001091250320912603309127036C197D0938
:100F20008E099F090617170728073907E0F18091F6
:100F3000BC0083FDD9CF85EC8093BC000E94C8041F
:100F40006B017C0180916D03823009F445C0809172
:100F50006C038F3F61F180916C03803241F180918D
:100F60006C0325C08091240390912503A091260352
:100F7000B0912703892B8A2B8B2B09F48ACF0E94EF
:100F8000C804009124031091250320912603309179
:100F900027036C197D098E099F0906171707280773
:100FA000390708F076CF809123030E948F061092B4
:100FB00098031092970310920203DF91CF911F9133
:100FC0000F91FF90EF90DF90CF90089591919D93B6
:100FD0008F5F75CF85EEB0CF80912403909125036C
:100FE000A0912603B0912703892B8A2B8B2B09F420
:100FF000A9CF0E94C80400912403109125032091D9
:101000002603309127036C197D098E099F09061765
:1010100017072807390708F095CFC5CF8091000141
:1010200091E0909302038093E00210929803109253
:1010300097031092E1020895CF93C82F8091E102A7
:101040008E3138F00E9436070E940E0880E40E941C
:101050001C0880919B0390919C03DC01ED91FC9115
:101060000190F081E02D6C2F09958091E1028F5F56
:101070008093E102CF9108950F931F93CF93DF9355
:10108000EC018C01060F171FC017D10721F08991C1
:101090000E941C08F9CFDF91CF911F910F91089505
:1010A0004091ED03FC0124913196E491322F2E2FD3
:1010B000FC013296E491E11103C090E080E00895D4
:1010C00003966217730730F0D901AE0FB11D6A178E
:1010D0007B0728F0E49F800D911D1124E3CF621B54
:1010E000730B469F9001479F300D1124820F931F71
:1010F00008956091EE037091EF03282F880F330B52
:101100008091EA03281B31098091ED03829FA001A1
:10111000839F500D11248091E703813039F090E0D6
:1011200080E0840F951F860F971F089583E090E05D
:10113000F8CF0F931F93CF93DF936115710561F182
:10114000EB018C018091E80388838091E903898316
:101150001A828091EE039091EF030038110550F44C
:101160002091E703211106C0892B31F0802F0E94C6
:10117000790810C0009749F48091F0039091F10331
:10118000009779F48091EA03F2CFB8010E945008E9
:10119000009791F39C838B83DF91CF911F910F91E7
:1011A0000895B8010E9450080097A1F7EBCF3F9235
:1011B0004F925F926F927F928F929F92AF92BF9267
:1011C000CF92DF92EF92FF920F931F93CF93DF9313
:1011D00000D000D01F92CDB7DEB7682E6A0159014A
:1011E000062F069506950695E82EF12C40919F0353
:1011F0005091A0034E195F09602F70E0E091A303A6
:10120000F091A403C7010995962C712C512C10E084
:101210002091E80380919F039091A003821B910984
:101220009816190609F030F4F601E10FF11D8081DE
:10123000811132C00F5F802E912C8091A10390917B
:10124000A20343E0969587954A95E1F7E091040162
:10125000F09105018816990608F085C07394809175
:10126000EC03871109C0D601A10FB11D8C91882311
:1012700009F479C0512E712C099540919F0350912A
:10128000A0034E195F09E091A303F091A403B401F8
:10129000C7010995962C152D8091DE029091DF02F1
:1012A000F601E10FF11D20811F5F009769F5822F84
:1012B00090E0203CA8F71092DF021092DE02E0914D
:1012C000E503F091E603BE016F5F7F4F09958980CA
:1012D0004B80480C2A8138E0739EC00111242817E6
:1012E0001906B1F1ACF18C819D81789C800D911D26
:1012F00011249D838C83312C811010C0812C8B8113
:10130000881640F1940C84CF36E0880F991F3A95E7
:10131000E1F7807C97702F73822BCDCFEC81FD811C
:10132000A114B10481F484919091B103E091A703D9
:10133000F091A803892709958C819D8101969D8351
:101340008C838A94D9CFE491832D8E2B3E2EECCFC3
:101350004B82D4CFE091A703F091A8038091B10311
:1013600009958394CCCF0995812F0F900F900F9002
:101370000F900F90DF91CF911F910F91FF90EF9001
:10138000DF90CF90BF90AF909F908F907F906F90A5
:101390005F904F903F9008950F931F93CF93DF93EB
:1013A000E091A303F091A40350E040E070E060E01E
:1013B00090E080E00995C091A103D091A20383E061
:1013C000D695C7958A95E1F7209749F4E0910401F5
:1013D000F0910501DF91CF911F910F910994009138
:1013E0009F031091A0030115110539F4E091A503A5
:1013F000F091A60309952197E7CFE091A703F0911B
:10140000A8038091B103099501501109ECCF0F9306
:101410001F93CF93DF93EC018C01060F171FC017AA
:10142000D10729F4DF91CF911F910F910895E09199
:101430000601F091070189910995F1CF682F85E0A8
:101440000C947C040F931F93CF93DF93182F062FD8
:10145000EA01E0910201F0910301099580910101F7
:10146000882309F442C080E00E941E0AE091060130
:10147000F091070181E20995E0910601F0910701E1
:10148000812F0995E0910601F09107018C2F815081
:10149000810FCD2B19F480919F0381500995E09124
:1014A0000601F091070182E20995E0910601F091B1
:1014B0000701802F09958091A1039091A20323E059
:1014C000969587952A95E1F7E0910601F09107013D
:1014D0008150099580910101882371F081E0DF91AD
:1014E000CF911F910F910C941E0AE0910601F0918B
:1014F000070180E00995BACFE0910401F091050160
:101500000995E0910201F09103010995E09106012E
:10151000F091070180E4DF91CF911F910F91099421
:1015200008956623A1F0FC01258D261780F06150F7
:1015300070E0660F771FE60FF71F84819581248185
:10154000358182179307C9F79695879508958EEE92
:1015500092E0FACFFC01228130E0062E02C03595E0
:1015600027950A94E2F7C9018170992720FF0AC0E4
:10157000428121E030E001C0220F6A95EAF7209510
:1015800024232283089590E080E00895FC012085C3
:1015900030E0062E02C0359527950A94E2F7C9017E
:1015A0008170992720FF0AC0408521E030E001C00A
:1015B000220F6A95EAF720952423208708950F9338
:1015C0001F93CF93DF93DC01662309F448C01B9679
:1015D0008C911B97861708F442C014968D919C91AC
:1015E0001597481B590B440F551F880F991F21E071
:1015F000F0E0E0E01B963C911B973217C0F0E80F3B
:10160000F91F621789F0022F10E0000F111F1696C4
:10161000CD91DC911797C00FD11F0990D881C02DB3
:10162000EC0FFD1F2F5FE6CFE40FF51FFBCF1296E7
:101630002D913C911397220F331F2E1B3F0B281B1C
:10164000390BF8941696ED91FC913183208370E06C
:10165000660F771FE60FF71F518340837894DF9161
:10166000CF911F910F910895242FAB01622F0C94FD
:10167000DF0ACF93DF93EC018A819B81DC01ED913E
:10168000FC910480F581E02D6A8509958A85813475
:1016900039F4EA81FB81EA58FF4F808184608083BE
:1016A0001A861B861C861D861E861F86188A80E069
:1016B000DF91CF91089581E0693009F080E00895CD
:1016C000FC01828508950F931F93CF93DF93FC0154
:1016D0008B01EA0180819181892B31F192819923DB
:1016E00049F128813981232BF9F0D8012D913C91C2
:1016F000D9014C918381682F691B770B808191817F
:10170000860F971FDC014C938281815082838881F0
:101710009981019799838883D8018D919C91119724
:1017200001968D939C93DACF80E0DF91CF911F914A
:101730000F9108958381828381E0F7CF3F924F928A
:101740005F926F927F928F929F92AF92BF92CF9251
:10175000DF92EF92FF920F931F93CF93DF9300D00E
:1017600000D0CDB7DEB76C017A8369835C834B838D
:1017700084E0482E360182E1680E711C93E0392E18
:101780005601A7E0AA0EB11C12E05524539446015D
:10179000B0E18B0E911C29813A812115310509F4A4
:1017A000CBC0F60180A18230F1F0A8F5882309F4BE
:1017B00057C0813091F7AE014F5F5F4FBE016D5F43
:1017C0007F4FC5010E94630B882309F4B5C0D60181
:1017D0001596ED91FC911697808191968C93919737
:1017E000818192968C93F6017682658230A2D60131
:1017F00092968C919297843011F493961C92F601F4
:1018000081A1825084832581368130872783828716
:10181000818740A205C0833051F3843009F0BDCFE9
:10182000D60192968C919297843019F1853009F403
:101830004CC0823009F073C0AE014F5F5F4FBE01F4
:101840006D5F7F4FC5010E94630B882309F474C04C
:10185000F601858984A3F6019682858210A29BCF2A
:10186000148385819681908787831287118750A280
:10187000A2CFAE014F5F5F4FBE016D5F7F4FC501CD
:101880000E94630B882309F457C0D60155968C91AA
:101890005597833001F798968C9198978111DBCFFB
:1018A00093965C92939752968C91529796968C93BE
:1018B000969753968C91539797968C9397975796A4
:1018C0008C91579795968C93C6CFAE014F5F5F4F23
:1018D000BE016D5F7F4FC5010E94630B882361F1DC
:1018E000F60183A1882309F4B6CF82819381009702
:1018F00009F4B1CFDC01ED91FC910190F081E02D74
:101900007401D60195960C91959797962C9197977F
:1019100096964C91969794966C9109959CCFF6016A
:1019200085858823F9F0813041F1D6011E968D918D
:101930009C91892B09F48FCF0F900F900F900F90EF
:10194000DF91CF911F910F91FF90EF90DF90CF909B
:10195000BF90AF909F908F907F906F905F904F90CF
:101960003F90089591968C9191978250990B1F9674
:101970009C938E931E971D965C9229813A818B8150
:101980009C81782F692FF6014685578541155105B1
:1019900081F001962115310539F0415051095787E1
:1019A000468721503109EDCF7B836C831A821982DF
:1019B000BCCF9C838B833A8329831586B6CFCF9384
:1019C000DF93EC018C819D81DC01ED91FC91048021
:1019D000F581E02D6E81099581E08E8F1E821F8E2C
:1019E00018A219A21AA21CA280E0DF91CF9108953B
:1019F000FC01DC01A65ABF4F8C918823A1F087819E
:101A0000681741F0828521E030E0681729F090E006
:101A100080E0089530E020E0C901880F991F820F0F
:101A2000931FE80FF91F808591850895FC01878138
:101A3000811104C080859185892B59F0828581119F
:101A400006C08385948521E030E0892B21F080E079
:101A5000089530E020E0C901880F991F820F931F7D
:101A6000E80FF91F67835187408781E00895089543
:101A7000DF92EF92FF920F931F93CF93DF93EC01CE
:101A800085E0E62EF12CFE01869FE00DF11D11246C
:101A9000908596FF24C0192F177001E085E0D82E9D
:101AA0008FEF800F8F3008F001E0602F70E0062F7D
:101AB000D69EF001D79EF00D1124EC0FFD1F8085FE
:101AC0008695869586958770181701F16F5F7F4F11
:101AD000603168F38D81811302C011501D8385E050
:101AE0008E9DF0018F9DF00D1124EC0FFD1F1086CF
:101AF00081E0818712862296D783C683DF91CF91BA
:101B00001F910F91FF90EF90DF900895CE010E94FA
:101B1000380DC6CFFC0120812EBD9B01215031091B
:101B200041F051810DB407FEFDCF4EB55EBD41932E
:101B3000F5CF61507109860F971F0DB407FEFDCFD9
:101B40002EB5FC0120830895FC0121E0613499F455
:101B50009C01255B3F4F61E0AC014E5F5F4F1586F6
:101B6000668717865487438735962E173F07B9F740
:101B7000FC01158208953585631729F02F5F35968E
:101B80002031C9F70895622F0C94380DCF93DF935D
:101B9000FC0167FD12C0283080F4442319F08581D0
:101BA000873059F0EF01A1E0B0E08D85882349F13D
:101BB00011962596A031B105C1F780E018C085E0E7
:101BC0008A9FE0018B9FD00D1124CE0FDF1F44238D
:101BD00089F081E4888785818F5F858325E02A9F4E
:101BE000C0012B9F900D1124E80FF91F8085DF9114
:101BF000CF91089581E08887F1CF2770687B622BB1
:101C00000FC06623E1F26770660F660F660F44230C
:101C1000A1F3606485818F5F85838770687F682BFF
:101C200025E02A9FC0012B9F900D1124E80FF91F7A
:101C30006087862FDCCFFC0121E0611102C006968F
:101C400008953585631739F02F5F35962031C9F730
:101C500090E080E00895069635E0239F800D911D69
:101C6000112408950F931F93CF93DF93211531050E
:101C700099F0E901042F162F0E941B0EFC0186ED3E
:101C8000309729F01283D183C083038380E0DF91F2
:101C9000CF911F910F91089588EDF9CF90E080E0EA
:101CA0000895CF92DF92EF92FF920F931F93CF93FD
:101CB000DF937801EC012496680127E0C20ED11C65
:101CC000DE01F80131912D9132130CC0EC15FD05A8
:101CD000C9F7DF91CF911F910F91FF90EF90DF90A7
:101CE000CF900895DC0112968D919C91009789F315
:101CF000B801DC01ED91FC910190F081E02D099596
:101D0000F70181917F018993EC15FD05C9F7E1CFBA
:101D10007F928F929F92AF92BF92CF92DF92EF927B
:101D2000FF920F931F93CF93DF93EC010B8D1C8DCC
:101D3000580125E0A21AB108680181E0C81AD1084B
:101D4000772473940230110520F00730110509F053
:101D5000712C7801E3E0EE1AF108DE01A756BF4FBF
:101D60008D919C918130910509F45AC18230910581
:101D700009F40CC1892B09F0FBC0772011F10E94F6
:101D80001F052D8D3E8D4F8D58A1621B730B840B4B
:101D9000950B28853985032E000C440B550B0E94AA
:101DA0001B2FFE01E156FF4F80819181280F391FC3
:101DB000318320838A819B818217930714F4918356
:101DC0008083F3E0EF16F10420F50E941F054E0119
:101DD0002FE9820E911C2D8D3E8D4F8D58A1621BD7
:101DE000730B840B950B28853985032E000C440B4F
:101DF000550B0E941B2FF40180819181821B930B54
:101E0000918380832C813D818217930714F4318361
:101E10002083F3E0AF16B10420F50E941F055E0198
:101E20002DE9A20EB11C2DA13EA14FA158A5621B08
:101E3000730B840B950B28853985032E000C440BFE
:101E4000550B0E941B2FF50180819181821B930B02
:101E5000918380832C813D818217930714F4318311
:101E60002083F3E0CF16D10410F50E941F058DA04A
:101E70009EA0AFA0B8A4681979098A099B09288592
:101E80003985032E000C440B550B0E941B2FFE01BD
:101E9000E356FF4F80819181280F391F31832083C2
:101EA0008A819B818217930714F491838083FE01BA
:101EB000E456FF4F8081882309F45AC071102AC06C
:101EC00023E0E216F10430F13396408151818C8594
:101ED0009D85841795077CF49A01281B390B37FFE1
:101EE00002C02D5F3F4F3595279535952795421BAD
:101EF000530B51834083208131812817390754F4D3
:101F0000821B930B9595879595958795820F931FC7
:101F1000918380830B7F015011090330110540F13B
:101F2000FE01E356FF4F408151818C859D858417CA
:101F300095077CF49A01281B390B37FF02C02D5FEF
:101F40003F4F3595279535952795421B530B518368
:101F50004083208131812817390754F4821B930B69
:101F60009595879595958795820F931F918380838B
:101F7000DF91CF911F910F91FF90EF90DF90CF9065
:101F8000BF90AF909F908F907F900895772039F009
:101F90008A819B81DE01A156BF4F8D939C9383E084
:101FA000E816F10438F48C819D81DE01A156BF4F03
:101FB0008D939C93E3E0AE16B10438F48C819D813F
:101FC000DE01A356BF4F8D939C93F3E0CF16D1044F
:101FD00038F48A819B81DE01A356BF4F8D939C9379
:101FE000DE01A456BF4F8C91882311F2711009C0F5
:101FF00023E0E216F10428F08C859D8513968D93DD
:102000009C930B7F015011090330110508F4B0CFE8
:10201000DE01A356BF4F8C859D858D939C93A8CFE1
:102020007720A1F0DE01A156BF4F8D919C911197B1
:102030002A853B85820F931F11969C938E932A814C
:102040003B812817390714F42D933C9383E0E8165D
:10205000F104A0F4DE01A156BF4F8D919C91119720
:102060002A853B85821B930B11969C938E932C8122
:102070003D818217930714F42D933C93E3E0AE1651
:10208000B104A0F4DE01A356BF4F8D919C9111972E
:102090002A853B85821B930B11969C938E932C81F2
:1020A0003D818217930714F42D933C93F3E0CF16F0
:1020B000D104A0F4DE01A356BF4F8D919C911197DE
:1020C0002A853B85820F931F11969C938E932A81BC
:1020D0003B812817390714F42D933C93DE01A45655
:1020E000BF4F8C91882309F443CF711020C023E0A7
:1020F000E216F104E0F013968D919C9111974C85B6
:102100005D85481759073CF42A853B85821B930B54
:1021100011969C938E932D913C911197241735071E
:1021200034F48A859B85820F931F8D939C930B7F3C
:10213000015011090330110508F41ACFDE01A3562E
:10214000BF4F8D919C9111974C855D85481759071C
:102150003CF42A853B85821B930B11969C938E93AE
:102160002D913C911197241735070CF001CF8A85EA
:102170009B85820F931F51CF0F931F93DC01862FF6
:1021800090E0FC01EE0FFF1FEE0FFF1FEA0FFB1F99
:10219000E759FF4F008111812281338105361105F6
:1021A0002105310570F18A0F9B1FFC0185A5811166
:1021B00028C061506C3028F5E62FF0E0EE51FF4E5C
:1021C0000C94E6301311EE102D1134112811211149
:1021D0000A11FB100D1104111011071116968D91A3
:1021E0009C91179758969C938E9357975A969C93C9
:1021F0008E93599706C088EE93E058969C938E93E1
:1022000057971F910F9108958CED95E0F6CF80EDD3
:1022100097E0F3CF88EE93E0E9CF8CED95E0E6CF41
:1022200080ED97E0E3CF1C962D913C911D97FD0129
:10223000E356FF4F31832083A156BF4F2D933C932C
:10224000E0CFA456BF4F9C9181E098279C93D9CFB3
:10225000A756BF4F1D921C92D4CFA756BF4F82E006
:1022600090E08D939C93CDCFA756BF4F81E090E037
:10227000F8CF0E94CC0930E020E045ED51E060E06D
:1022800080E00E94D70830E020E04EED51E06AE0A7
:1022900080E00C94D7082A9808952A9A0895EF921E
:1022A000FF920F93FC01368D323018F0348D3613C7
:1022B00002C00E941A230F91FF90EF900895EF92B1
:1022C000FF920F9302970E944F110F91FF90EF9092
:1022D00008950895EF92FF920F931F93422F202F9E
:1022E0008701DC01ED91FC9100A0F1A1E02D0995A1
:1022F0001F910F91FF90EF90089581E00895FC01E8
:1023000084A10895FC018681089580E0089581E00C
:10231000089580E0089580E00895089580E008958C
:1023200008950F931F93CF93DF93D82FC62F8A0161
:1023300080E591E00E945A040E944B11D260DEBDFC
:10234000F8018C2F882339F00DB407FEFDCF919151
:102350009EBD8150F7CFC00FD12FD11D0DB407FE08
:10236000FDCF0E944D11CE01DF91CF911F910F91B2
:1023700008950F931F93CF93DF9300D0CDB7DEB7AF
:10238000182F062F80E591E00E945A040E944B11FD
:10239000126019830A8362E070E0CE0101960E9408
:1023A0008A0D0E944D110F900F90DF91CF911F91D8
:1023B0000F9108959F92AF92BF92CF92DF92EF92CA
:1023C000FF920F931F93CF93DF936C01C42FD22FF3
:1023D00099249394E62EF12CEE0CFF1CE80EF91EC6
:1023E00086E5E80EF11CA42EB12CABE2AA0EB11CBE
:1023F000AA0CBB1CAC0CBD1CF70180819181DC01D7
:10240000ED91FC910280F381E02D202F4D2F6C2F58
:102410000995182F803EC9F5C1112BC061E088EEE7
:102420000E94B91166E670E080E090E00E94ED0441
:10243000F70180819181DC01ED91FC910190F081A7
:10244000E02D202F4D2F6C2F0995182F8D30D1F5B1
:102450008FEF890D8330F8F0C11137C061E088EE4D
:102460000E94B91166E670E080E090E00E94ED0401
:102470001CC0F50180819181DC01ED91FC91028409
:10248000F385E02D6D2F0995D3CF8D3061F48FEF5B
:10249000890D833050F464E670E080E090E00E94A3
:1024A000ED049394A9CF882319F2812FDF91CF9166
:1024B0001F910F91FF90EF90DF90CF90BF90AF9062
:1024C0009F900895882389F3C7CF8C2F90E08B9637
:1024D000880F991F8C0D9D1DFC0180819181DC016D
:1024E000ED91FC910284F385E02D6D2F0995DDCFF0
:1024F0008EBD00000DB407FEFDCF8EB50895CF93BD
:10250000C82F80E591E00E945A040E944B118C2F45
:102510000E94781280E00E947812C82F0E944D110C
:102520008C2FCF9108958F929F92AF92BF92CF92AE
:10253000DF92EF92FF920F931F93CF93DF93882E3A
:10254000962E5A010E941F056B017C0128E8C20EDD
:1025500023E1D21EE11CF11C10E000E0D0E0C0E05D
:1025600098280E941F056C197D098E099F0997FF05
:102570001EC0692D80EF0E94B9110E941F056C19C1
:102580007D098E099F0997FF09C088EC0E947F1280
:1025900087FFF3CF60E888EC0E94B91188EF0E94B2
:1025A0007F12C82FCF70C43081F0CE30B9F08C2F9D
:1025B000DF91CF911F910F91FF90EF90DF90CF901F
:1025C000BF90AF909F908F9008950F5F1F4FA11401
:1025D000B10439F20A151B0521F6E9CFDF5FD330CC
:1025E00009F0BFCFE4CFAF92BF92CF92DF92EF92CC
:1025F000FF920F931F93CF93DF93EC01B62EA42E7F
:1026000069010E941B0E7C0186EDE114F10409F4BE
:1026100047C0D701ED91FC91119787ED309709F4F0
:102620003FC013969C9180E0981731F02081A2164C
:1026300029F033968F5FF8CFF0E0E0E0D601ED931C
:10264000FC938BED309761F1228126952695203100
:1026500008F02FE081E090E0A0E0B0E004C0880F37
:10266000991FAA1FBB1F2A95D2F70197F8019183E2
:1026700080836B2D80EE0E94B91188ED0E947F123D
:10268000D70114969C91682F697F992329F0CA5825
:10269000DF4F68816260682B88ED0E94B91180E08D
:1026A000DF91CF911F910F91FF90EF90DF90CF902E
:1026B000BF90AF90089588EF0E947F12807C803495
:1026C000B1F018F4882301F10895803819F0803CA6
:1026D000C9F0089588ED0E947F1281FD0DC069EC5C
:1026E00088ED0E94B91182E08093D803089588EDA7
:1026F0000E947F1281FDF3CF6BEC88ED0E94B9112F
:1027000083E0F2CF81E0F0CF61ED88ED0E94B91156
:102710001092D8030895CF92DF92EF92FF92CF9359
:10272000DF93C82FD62FC090CD05D090CE050D2CAD
:10273000000CEE08FF089A01550F440B550B2C199D
:102740003D094E095F09A6ECB0E00E94D92E209108
:10275000CB053091CC05032E000C440B550B2C19E6
:102760003D094E095F090E94BA2E69017A0183E68C
:10277000C81AD108E108F108F7FC08C030E020E0F1
:1027800048EE51E06D2F8C2F0E94D708D701C6016B
:102790000996A11DB11D4397A105B10540F430E094
:1027A00020E04AEE51E06D2F8C2F0E94D7084AE0BE
:1027B00061EE73E0C6010E94862D30E020E0AC019E
:1027C0006D2F8C2FDF91CF91FF90EF90DF90CF9006
:1027D0000C94D70842E050E06CEE71E082EF93E099
:1027E0000C943D05CF93DF93FC0101900020E9F7A5
:1027F0003197AF01481B590BBC0182EF93E00E9457
:102800003D05EC010E94EA138C0F9D1FDF91CF91D3
:1028100008952F923F924F925F926F927F928F9284
:102820009F92AF92BF92CF92DF92EF92FF920F935F
:102830001F93CF93DF937B013A016901F901A080D7
:10284000B180FB013180F90111821082FB0182818C
:1028500060E181FD60E288EE0E94B9112A2CA3019B
:10286000F701608180E00E949312582EF6E08F13EA
:1028700010C088EF0E947F12F70192819D7F84FF34
:102880009260928360E191FD60E288EE0E94B9114E
:10289000E6CF811150C088EC0E947F1282FF5FC09A
:1028A00080E30E947F12482E8A151B0411F008F065
:1028B000422CF60180819181E501C81BD90BD7FF1D
:1028C00002C0D0E0C0E0842C912C8C169D060CF444
:1028D000E40180E591E00E945A040E944B1188E0D7
:1028E0000E947812AE0170E060E0C8010E94DC3204
:1028F000209721F0BE01C8010E948A0D0C0F1D1FF8
:102900000E944D1164E088EC0E94B911F6018081AB
:102910009181880E991E91828082431420F08A143E
:102920009B0408F49CCF88EF0E947F12F7019281EC
:1029300084FB91F99283852DDF91CF911F910F91A7
:10294000FF90EF90DF90CF90BF90AF909F908F90CF
:102950007F906F905F904F903F902F90089580EF01
:10296000582EE9CFAF92BF92CF92DF92EF92FF92B3
:102970000F931F93CF93DF9300D000D0CDB7DEB776
:102980007C01690158011C821B821A8219828E0106
:102990000F5F1F4F9E012D5F3F4F0E94F312811169
:1029A00009C049815A816B817C8185019601C701EB
:1029B0000E9409140F900F900F900F90DF91CF910C
:1029C0001F910F91FF90EF90DF90CF90BF90AF904D
:1029D00008954F925F926F927F928F929F92AF92E3
:1029E000BF92CF92DF92EF92FF920F931F93CF93FC
:1029F000DF93CDB7DEB7C254D1090FB6F894DEBF6E
:102A00000FBECDBFDC0194962C9121111AC0612C10
:102A1000862DCE5BDF4F0FB6F894DEBF0FBECDBF65
:102A2000DF91CF911F910F91FF90EF90DF90CF90AA
:102A3000BF90AF909F908F907F906F905F904F90DE
:102A400008957C010E941F05F701878C90A0A1A02A
:102A5000B2A0681979098A099B0997FDD8CF0E940D
:102A60001F05D70193962C91620F711D811D911D39
:102A7000F701678F70A381A392A3712C6E01F1E41B
:102A8000CF0ED11C30E4832E912C57018AE5A80E7D
:102A9000B11CD7015D968C91781608F0B8CFE72D60
:102AA000F0E07296EE0FFF1FEE0FFF1FEE0DFF1D01
:102AB0008081E82FF0E0CF01880F991FDC01AE0F75
:102AC000BF1FAE0DBF1D96962C9130E0D6012D9301
:102AD0003C93DE0111962D011D92AC15BD05E1F769
:102AE000E80FF91FEE0DFF1D8201960145A1F701C8
:102AF0006681848195810E94B214682E811188CFED
:102B0000D6018D919C9111978134910510F08D9291
:102B10009C92D701ED91FC9100A0F1A1E02D8201E2
:102B2000D6012C91D5014C91B701C7010995D70168
:102B3000ED91FC910288F389E02DD5018C918111F2
:102B40006980662DC7010995009769F0DC01ED9158
:102B5000FC910190F081E02D8201D6012C91D501EC
:102B60004C91B7010995739494CF3F924F925F9225
:102B70006F927F928F929F92AF92BF92CF92DF928D
:102B8000EF92FF920F931F93CF93DF93CDB7DEB7F2
:102B9000C254D1090FB6F894DEBF0FBECDBFDC0121
:102BA00094962C91222309F4A1C06C010E941F0568
:102BB000F601878C90A0A1A0B2A0681979098A09B2
:102BC0009B0997FD93C00E941F05D60193962C91F7
:102BD000620F711D811D911DF601678F70A381A386
:102BE00092A3312C5E01F1E4AF0EB11C46018AE5DF
:102BF000880E911CD6015D968C91381608F076C02F
:102C0000E32DF0E07296EE0FFF1FEE0FFF1FEC0DAD
:102C1000FD1D6080662009F467C0712C7301EE0C05
:102C2000FF1CF701E60DF71DEC0DFD1D86A190E0E0
:102C3000F50191838083FE0131962F011192EA15EF
:102C4000FB05E1F7F701E60DF71DEC0DFD1D820117
:102C5000950145A1D60116966C91169714968D9103
:102C60009C910E94B214182F81113EC0F501808101
:102C700091810097C9F18134910520F080E490E0C2
:102C800091838083E60CF71CD601AE0DBF1DF601C3
:102C900080819181FC01608C718C7201F501008151
:102CA000F401208195964C91B601C601F301099576
:102CB000D601ED91FC910288F389E02DD4018C912D
:102CC00081111981612FC6010995009769F0DC0116
:102CD000ED91FC910190F081E02D8201D5012C91C4
:102CE000D4014C91B6010995339484CF80E0CE5B3A
:102CF000DF4F0FB6F894DEBF0FBECDBFDF91CF918F
:102D00001F910F91FF90EF90DF90CF90BF90AF9009
:102D10009F908F907F906F905F904F903F9008951D
:102D20002F923F924F925F926F927F928F929F92DB
:102D3000AF92BF92CF92DF92EF92FF920F931F93C9
:102D4000CF93DF93CDB7DEB766970FB6F894DEBFAB
:102D50000FBECDBF3C01442E322E202EEA8ACE8AF1
:102D6000EBA4FCA4CDA4DEA41E861D86188A1F86B3
:102D70008E01015F1F4F9E01235F3F4F0E94F312A0
:102D8000582E81113BC139822A822A892B833E89A0
:102D90003C83BE82AD8298868F82AE014F5F5F4FCB
:102DA00068E080E20E9491114F855889642D80E18E
:102DB0000E949312811140C1C114D10409F453C07F
:102DC0000D851E85D80112968C91129737FE51C041
:102DD000826012968C93540122242394A114B1048E
:102DE00009F42FC1FC86EB864F8558896D857E8559
:102DF00086019E01255F3F4FC3010E940914582E92
:102E0000B6E08B130EC088EF0E947F12ED85FE8521
:102E100085FB882780F98225928180FB91F9928336
:102E2000DDCF8111EBC0EFA5F8A93097A1F06B853C
:102E30007C850190F081E02D0190F081E02DC401AE
:102E40008A199B099A8789879E01275F3F4FA601B0
:102E50008FA598A909958B859C85A81AB90A8E1506
:102E60009F0508F0BBCF4F85588937FEE1C080EA47
:102E7000E0C0816012968C93129711968C908FEF20
:102E8000880D803408F0DAC02F8438880E941F052E
:102E90009B01AC0128573C4E4F4F5F4F2A8B3B8B19
:102EA0004C8B5D8BD80112968C9160E880FF60E4BA
:102EB00088EE0E94B911512C912CE114F10409F40F
:102EC0008CC03401E814F90408F437016E8AA601B5
:102ED000662D80E10E949111662D88E30E94B91150
:102EE000F8016081606280EF0E94B91188EC0E9455
:102EF0007F1287FFFBCF60E888EC0E94B91188EF52
:102F00000E947F128F70582E198AB12CA12C552047
:102F100021F10E941F052A893B894C895D89621B2A
:102F2000730B840B950B97FF18C036E0531609F40A
:102F300040C04EE05416B1F054E0551209C08FEF76
:102F4000A81AB80A2114310491F02A143B0479F428
:102F500060E088E30E94B91142C0E618F708C60C89
:102F6000D71CABCF99899F5F998B933089F360E031
:102F700088E30E94B911D6016C9180E10E94B911D9
:102F80006E8988E30E94B911F8016081606280EF68
:102F90000E94B91188EC0E947F1287FFFBCF60E886
:102FA00088EC0E94B91188EF0E947F128F70582E12
:102FB000AECF88EF0E947F1285FB882780F9A1E0C1
:102FC0008A27F801928180FB90F9928360E890FF54
:102FD00060E488EE0E94B911CACF5110B9CF88EFD2
:102FE0000E947F12D80112969C91129785FB90F94E
:102FF00012969C934F8558895520D1F0852D669661
:103000000FB6F894DEBF0FBECDBFDF91CF911F91F9
:103010000F91FF90EF90DF90CF90BF90AF909F9077
:103020008F907F906F905F904F903F902F9008957A
:1030300080E8642D0E949312582EE0CF8AED582E1E
:10304000DDCF4F855889552009F411CFD7CF8F9206
:103050009F92AF92BF92CF92EF920F93CF931F9216
:103060001F921F921F921F921F92912C812CB12CA4
:10307000A12CC12CE62E05E020E040E060E00E949B
:103080009016C82F6CE271E080E090E00E94ED04A1
:103090000F900F900F900F900F900F908C2FCF915B
:1030A0000F91EF90CF90BF90AF909F908F90089529
:1030B0008F929F92AF92BF92CF92EF920F931F92F7
:1030C0001F923F932F935F934F934A01B12CA12CF2
:1030D000CC24C394E12C06E020E840E00E94901646
:1030E0000F900F900F900F900F900F900F91EF9007
:1030F000CF90BF90AF909F908F9008952F923F9266
:103100004F925F926F927F928F929F92AF92BF92F7
:10311000CF92DF92EF92FF920F931F93CF93DF93A3
:10312000CDB7DEB767970FB6F894DEBF0FBECDBF41
:103130001B8A38E03C8B3CE33D8B8A3F3FEF930793
:10314000D9F406ED802F67960FB6F894DEBF0FBE58
:10315000CDBFDF91CF911F910F91FF90EF90DF9046
:10316000CF90BF90AF909F908F907F906F905F9027
:103170004F903F902F900895122F342E462E7C01B1
:10318000DC011696CD90DC901797CE0143961796EA
:103190009C938E9316971A962C939E012F5F3F4F08
:1031A00042E150E060E0C7010E945818582EF70134
:1031B000D782C682082F8111C5CF89849A846B84F7
:1031C0007C84FD81FE8B3E813F8B670186E5C80EC6
:1031D000D11C5601212CD5018D919C910097F1F5C0
:1031E0002394B2E0AB0EB11CE0E12E12F4CFF60155
:1031F00080819181009709F070C05394F2E0CF0E66
:10320000D11C30E15312F3CFF7018681978107ED8E
:10321000892B09F497CF1287232D40E0642DC70135
:103220000E94C60DD82E04ED882309F48BCF682F99
:10323000C7010E941B0E009709F483CFDC0114968E
:103240001C936D2DC7010E942718082F882309F4AD
:1032500079CF6D2DC7010E94A40D74CFDC01ED91D3
:10326000FC910084F185E02D09958111B9CFF5011C
:1032700080819181DC01ED91FC910088F189E02D44
:103280006F890995882309F4ABCFF501808191817D
:10329000DC01ED91FC910484F585E02DA301B401DE
:1032A0000995882361F0012F232D442D622DC7013C
:1032B0000E94DA11082F813D09F492CF43CFF50126
:1032C00080819181DC01ED91FC910684F785E02DF0
:1032D0006E8909958111E7CF83CFDC01ED91FC91D7
:1032E0000084F185E02D0995811187CFF601808159
:1032F0009181DC01ED91FC910088F189E02D6F89CD
:10330000099581110DC0012F232D442D652DC70175
:103310000E94DA11082F877F813D09F013CF6DCF0E
:10332000F60180819181DC01ED91FC910484F585A9
:10333000E02DA301B401099581115FCFF6018081D1
:103340009181DC01ED91FC910684F785E02D6E8979
:1033500009958823C1F251CF8F929F92AF92BF926D
:10336000CF92EF920F931F931F921F921F930F9371
:103370005F934F934A01B12CA12C32E0C32EE22E71
:1033800006E020E840E00E9490160F900F900F900A
:103390000F900F900F901F910F91EF90CF90BF90D3
:1033A000AF909F908F9008958F929F92AF92BF920F
:1033B000CF92EF920F93A42EB12C1F921F921F92C7
:1033C0001F921F921F92912C812CC12CE62E01E09E
:1033D00023E240E0FC016285828193810E94901685
:1033E0000F900F900F900F900F900F900F91EF9004
:1033F000CF90BF90AF909F908F9008958F929F92A3
:10340000AF92BF92CF92EF920F93A62EB12C1F9244
:103410001F925F934F931F9224E02F9324E0822EFC
:10342000912CC12CE12C00E023EA40E0FC016285F4
:10343000828193810E9490160F900F900F900F90B1
:103440000F900F900F91EF90CF90BF90AF909F9003
:103450008F9008958F929F92AF92BF92CF92EF92EA
:103460000F93A42EB12C1F921F921F921F921F9296
:103470001F92912C812CC12CE62E03E023E240E028
:10348000FC016285828193810E9490160F900F90BB
:103490000F900F900F900F900F91EF90CF90BF90E3
:1034A000AF909F908F900895CF92DF92EF92FF920E
:1034B0001F93CF93DF93EC01162F7A01FA018081DD
:1034C0009181A281B3818130F3E09F07F1E0AF07E2
:1034D000B105C9F170F48115E1E09E07AE07B105B1
:1034E00009F450C081309140A140B10561F180E004
:1034F00041C0833021E0920720E1A207B10529F005
:1035000083309340A041B10591F7412F64E1CE0192
:103510000E94D419412F60E1CE010E94D41964E1C8
:1035200070E080E090E00E94ED046A85F70121815F
:10353000269521706770412F8A819B810E947E1899
:103540001092DC02D4CF8091DC028111D0CF412FC8
:1035500061E1CE010E94D419412F60E1CE010E94A9
:10356000D419412F64E0CE010E942A1A81E0809391
:10357000DC0281EBDF91CF911F91FF90EF90DF9004
:10358000CF900895462F61E1CE010E94D419412FBA
:1035900060E1CE010E94D4191092DC028A85877006
:1035A0001770880F880F880F182B09F4A0CFEA80B6
:1035B000FB806701F6E5CF0ED11CD0E0C0E0D6015C
:1035C0008D919D916D010097C1F0DC01ED91FC9111
:1035D0000084F185E02D099518130FC0AB96CC0F30
:1035E000DD1FCE0DDF1D88819981DC01ED91FC91FD
:1035F0000480F581E02D09957ACF2196C031D1055F
:10360000F1F675CFCF92DF92EF92FF920F931F9357
:10361000CF93DF93CDB7DEB72E970FB6F894DEBF0A
:103620000FBECDBFFC012089211111C010E0812FF8
:103630002E960FB6F894DEBF0FBECDBFDF91CF91AF
:103640001F910F91FF90EF90DF90CF9008957C0134
:103650000E941F05F7010485158526853785601BA7
:10366000710B820B930B97FDE1CF81E090E09E8779
:103670008D878E010F5F1F4F9E01235F3F4F41E0FB
:103680006285828193810E94B214182F811121C01A
:1036900082E0D82E01E089818D2139F119861A86C0
:1036A0001B861C86AE01475F5F4F602FC7010E94DB
:1036B000FE19C82E811119C0AE01475F5F4F602F00
:1036C000C7010E94541A813B19F0882371F0C82E5B
:1036D0001C2D0E941F056C597F4F8F4F9F4FF70184
:1036E0006487758786879787A2CFDD0C0F5F0830C8
:1036F00091F601E0F7018385801758F319861A8641
:103700001B861C86AE01475F5F4F602FC7010E947A
:10371000FE19D82E811117C089859A8587709170FE
:103720008130914081F48B859C8581609C878B875B
:10373000AE01475F5F4F602FC7010E94541A813B63
:1037400029F0811102C00F5FD5CFD82E1D2DC1CF1A
:10375000CF92DF92FF920F931F93CF93DF9300D00E
:1037600000D0CDB7DEB78C01F62E19821A821B82EB
:103770001C82462F61E10E94D4194F2D60E1C801DF
:103780000E94D4194F2D64E0C8010E942A1A83E0D8
:10379000C82ED12CAE014F5F5F4F6F2DC8010E9424
:1037A000FE19811114C089819A81AB81BC819D7FF2
:1037B00083309140A041B10551F064E670E080E0B3
:1037C00090E00E94ED0481E0C81AD10819F74F2D4E
:1037D00064E1C8010E94D4194F2D60E1C8010E9424
:1037E000D41964E170E080E090E00E94ED040F9055
:1037F0000F900F900F90DF91CF911F910F91FF903D
:10380000DF90CF9008952F923F924F925F926F92E8
:103810007F928F929F92AF92BF92CF92DF92EF9260
:10382000FF920F931F93CF93DF93CDB7DEB7E89747
:103830000FB6F894DEBF0FBECDBFDC011A963C91E7
:1038400031112BC1922E242E362E3C01FC01E28038
:10385000F380D701ED91FC910190F081E02D60E0C3
:10386000C70109958C01009709F41AC1FC01C080B9
:10387000D180C114D10409F416C15301F4E0AF0E94
:10388000B11CDC011196BC92AE9214969C92FE0182
:1038900031962F019F0148E050E060E0D30112967D
:1038A0008D919C910E945818982EF80114828111D4
:1038B00000C18D8191ED992E893059F58980D7010C
:1038C000ED91FC910280F381E02D222D41E0632DEA
:1038D000C7010995F3018287882309F4E7C0988519
:1038E0009583682F828193810E942718982ED80192
:1038F000CD92DC92882339F1D701ED91FC910480BF
:10390000F581E02DD3011A966C91C7010995F30159
:103910001286892DE8960FB6F894DEBF0FBECDBF94
:10392000DF91CF911F910F91FF90EF90DF90CF909B
:10393000BF90AF909F908F907F906F905F904F90CF
:103940003F902F900895811088C0950142E0F301C7
:103950006285828193810E94320E982E8111D9CF87
:103960001F921F925F924F921F9288E08F9358E0B0
:10397000852E912CB12CA12C69E2C62EE12C06E0FB
:1039800020EA40E0F3016285828193810E949016D3
:10399000982E0F900F900F900F900F900F90811115
:1039A000B8CF8B81D3011B968C931B97820120E0AB
:1039B00048E050E01A966C911A9712968D919C915E
:1039C0000E94AC19982E8111A4CF4B815C8120E01C
:1039D000F3016285828193810E94AC19982E811136
:1039E00098CF498150E08E010F5D1F4F20E0D30139
:1039F0001A966C911A9712968D919C910E94AC190F
:103A0000982E811186CF1F921F921F921F921F9294
:103A10001F92912C812CC12CEE8009E020E040E027
:103A2000F3016285828193810E949016982E0F90F7
:103A30000F900F900F900F900F9081116ACF11E0AF
:103A4000D3011B968C911B978117D0F0412F68E012
:103A5000C3010E942A1A1F5FF3CF482D413208F09C
:103A600040E250E09201D3011A966C911A97129697
:103A70008D919C910E945818982E81114ACF65CF44
:103A80001296ED91FC911397EA58FF4F8081846064
:103A9000808381E050968C933CCF49ED942E39CFB2
:103AA00036ED932E36CF27ED922E33CF84ED982E20
:103AB00030CFD182C0822DCF2F923F924F925F9212
:103AC0006F927F928F929F92AF92BF92CF92DF922E
:103AD000EF92FF920F931F93CF93DF93CDB7DEB793
:103AE000C258D1090FB6F894DEBF0FBECDBFDC01BE
:103AF00016963C9119ED311114C0B22E942EA62EBB
:103B00003C01FC01C480D580D601ED91FC9101906F
:103B1000F081E02D60E0C60109952C010097E1F4E9
:103B200016ED812FCE57DF4F0FB6F894DEBF0FBED4
:103B3000CDBFDF91CF911F910F91FF90EF90DF905C
:103B4000CF90BF90AF909F908F907F906F905F903D
:103B50004F903F902F900895FC0100811181011535
:103B6000110509F4A3C11301F5E22F0E311CDC018C
:103B700011963C922E921496BC929E0126593F4F6C
:103B800048E050E060E0F301848195810E9458187C
:103B9000F82E81118DC1AB96FFACAB97D2010D937E
:103BA0001C93D601ED91FC910280F381E02D292D2B
:103BB00040E06A2DC6010995F301868314ED882340
:103BC00009F4AFCFE2969FADE29796A3682F848168
:103BD00095810E942718182FD601ED91FC91D201F2
:103BE00014961C92882359F00480F581E02DD301AE
:103BF00016966C91C6010995F301168292CF019039
:103C0000F081E02DD30116966C91C60109950097BD
:103C100009F486CFFC01B482F110A8C0E4968EAD01
:103C20009FADE497F301E35AFF4F91838083E696BB
:103C30008EAD9FADE697329791838083EC96FFAD72
:103C4000EC97C058DF4FF883C058D040910141E055
:103C5000D30116966C91169714968D919C910E94A3
:103C6000320EF82E811197C02E01B1E44B0E511C7B
:103C7000F3013296CF57DF4FF983E883C158D04024
:103C8000C2014096EE969FAF8EAFEE97C058DF4FC1
:103C9000B881C058D040FB1609F489C087E191E093
:103CA000F20191838083CF57DF4FA881B981C1583A
:103CB000D040B383A283148211861286158617869C
:103CC000168610A211A212A210A6EE968EAD9FAD7E
:103CD000EE97968385839087878394878387D30124
:103CE00014960D90BC91A02DC258DF4FB983A883C4
:103CF000CE57D040F301D6808E010F5F1F4F2F2D7E
:103D000049E050E06D2DCD010E94AC1981114DC0EC
:103D10008B809C805F924F921F930F93C401A1E40C
:103D20008A16910410F080E490E09F938F93B12C59
:103D3000A12C32E0C32EEF2C06E020E840E06D2DF0
:103D4000C258DF4F88819981CE57D0400E9490168B
:103D50000F900F900F900F900F900F90811125C032
:103D6000F301868D823018F5F39490CF4F2D4331B7
:103D700008F042E150E09E0126593F4FD3011696CC
:103D80006C91169714968D919C910E945818F82E5C
:103D9000882309F443CFD301ED91FC910480F58190
:103DA000E02DC30109951F2DBCCEF82EF4CFD30111
:103DB0005E964C915E9711ED423008F4B2CE9101BF
:103DC00016966C91169714968D919C910E94320EC6
:103DD0001F921F921F921F921F921F92912C812C53
:103DE000B12CA12CC12CF301E48C09E020E040E0CF
:103DF0006681848195810E949016182F0F900F90F4
:103E00000F900F900F900F9081114EC0D12CD301C5
:103E10005D968C915D97D816E0F58D2D90E0FC01B4
:103E20007296EE0FFF1FEE0FFF1FE60DF71D2081AC
:103E3000211102C0D394EBCFFC01EE0FFF1FEE0F58
:103E4000FF1FE60DF71DEA5BFF4F80818770A82EEC
:103E5000B12C1F921F921F921F921F921F92912CA2
:103E6000812CC12CE12C0AE021E240E0F3016681C3
:103E7000848195810E949016F82E0F900F900F90DC
:103E80000F900F900F908823A9F2F5E08F1791F211
:103E900082CFED91FC910688F789E02DC301099549
:103EA00081E0F30184A33DCEF82E75CF17ED39CE16
:103EB000F201118300836FCF0E94CE3285ED809393
:103EC000BC008091240390912503A0912603B0911A
:103ED00027030796A11DB11D23E0B695A7959795D9
:103EE00087952A95D1F72091BC0024FD03C010923C
:103EF0006D0308954091240350912503609126039A
:103F000070912703452B462B472B69F30097A1059A
:103F1000B10541F025E12A95F1F700000197A109CB
:103F2000B109E1CF809123030C948F062F923F9229
:103F30004F925F926F927F928F929F92AF92BF92B9
:103F4000CF92DF92EF92FF920F931F93CF93DF9365
:103F500000D01F92CDB7DEB71C017B836A83FB01C3
:103F6000828182958F7090E0F10193838283FB01BF
:103F7000648170E090E080E00E94BB2D0E94693077
:103F800028E132E741E35FE30E94B92F20E030E00F
:103F900040E85FE30E944D2F0E942B30F1017583B2
:103FA0006483EA81FB816681F281F9836623C1F033
:103FB00070E090E080E00E94BB2D0E94693028E113
:103FC00032E741E35FE30E94B92F20E030E040E1B7
:103FD00051E40E944D2F0E942B30F10175836483C0
:103FE000F10106811781F80182809380092C000C71
:103FF000AA08BB08C480D5800D2C000CEE08FF0871
:10400000240135014C185D086E087F08EA81FB81A8
:10401000A081B181B370A30192010E94D92E2FEF2C
:1040200033E040E050E00E94BA2E2C0D3D1D4E1DA5
:104030005F1DF801328B218BEA81FB81A1818A2FE0
:1040400086958695A981A295AA0FAA0FA07CA82B78
:10405000B981B695B695B370A30192010E94D92E8D
:104060002FEF33E040E050E00E94BA2E2C0D3D1DB2
:104070004E1D5F1DF801308B2787EA81FB81A581EA
:10408000A7019601281939094A095B09B0E00E9485
:10409000D92E2FEF30E040E050E00E94BA2E820E81
:1040A000931EA41EB51EF801948A838AEA81FB81BF
:1040B000A381B0E0A30192010E94D92E2FEF30E03E
:1040C00040E050E00E94BA2EC20ED31EE41EF51E40
:1040D000F801D68AC58AF1016481C8010E94BC102A
:1040E000F101868197810F900F900F90DF91CF9112
:1040F0001F910F91FF90EF90DF90CF90BF90AF9006
:104100009F908F907F906F905F904F903F902F90F7
:104110000C94880E1F920F920FB60F9211242F93BA
:104120003F938F939F93AF93BF938091D0039091D0
:10413000D103A091D203B091D3033091CF0326E0F5
:10414000230F2D3758F50296A11DB11D2093CF03E3
:104150008093D0039093D103A093D203B093D30361
:104160008091D4039091D503A091D603B091D70349
:104170000196A11DB11D8093D4039093D503A09304
:10418000D603B093D703BF91AF919F918F913F9189
:104190002F910F900FBE0F901F90189529E8230FB5
:1041A0000396A11DB11DD2CF1F920F920FB60F9291
:1041B00011242F933F934F935F936F937F938F932C
:1041C0009F93AF93BF93EF93FF9382EF93E00E948F
:1041D000BB05FF91EF91BF91AF919F918F917F911F
:1041E0006F915F914F913F912F910F900FBE0F9064
:1041F0001F9018951F920F920FB60F9211242F93B4
:104200008F939F93EF93FF93E0910204F091030447
:104210008081E0910804F091090482FD1BC0908127
:1042200080910B048F5F8F7320910C04821741F0F3
:10423000E0910B04F0E0EE50FC4F958F80930B045F
:10424000FF91EF919F918F912F910F900FBE0F9043
:104250001F9018958081F4CF1F920F920FB60F9286
:1042600011242F933F934F935F936F937F938F937B
:104270009F93AF93BF93EF93FF938091B900887F93
:10428000803609F44AC0F0F5883209F4A7C018F561
:10429000803109F49BC0B8F4882309F4F9C0883050
:1042A00009F494C0FF91EF91BF91AF919F918F91CD
:1042B0007F916F915F914F913F912F910F900FBE22
:1042C0000F901F901895883109F488C0803251F7FB
:1042D00080936C0314C0803409F49DC040F4803393
:1042E000B9F38833F9F680936C0385ECB0C0803560
:1042F00009F485C0883509F496C0883499F60E947F
:104300005E1FD0CF883909F48CC038F5883729F082
:1043100050F4883611F0803729F683E080936D03DE
:1043200010926B0357C0883809F47BC0803919F0AC
:10433000803809F0B7CF80916B03803208F071C0EC
:10434000E0916B0381E08E0F80936B038091BB0043
:10435000F0E0E55BFC4F80833DC0803B39F0E0F44A
:10436000803A09F479C0883A09F09CCF84E08093C0
:104370006D0310924A0310924903E0919503F09166
:10438000960309958091490381110FC081E08093C4
:1043900049031092290309C0803C09F4A6CF883C48
:1043A00009F4A3CF883B09F07DCFE0914A0381E077
:1043B0008E0F80934A03F0E0E75DFC4F808180938D
:1043C000BB0090914A038091490329C080919203D8
:1043D0008093BB0085EC8093BC0064CF90919103E7
:1043E00080919003981758F5E091910381E08E0F2A
:1043F00080939103F0E0E059FC4F8081E9CFE09198
:10440000910381E08E0F809391038091BB00F0E0D7
:10441000E059FC4F8083909191038091900398170D
:10442000C8F285E8D8CFE091910381E08E0F8093A8
:1044300091038091BB00F0E0E059FC4F80838091B4
:104440006F0381115CCF81E080936E0384EA8093D7
:10445000BC0010926D0326CF85EC8093BC001092B7
:104460006D0380916B03803230F4E0916B03F0E0D8
:10447000E55BFC4F108260916B0370E0E091930369
:10448000F09194038BE493E0099510926B030ACFAB
:1044900010926C0334CF1F920F920FB60F9211241B
:1044A0002F933F934F935F938F939F93EF93FF933C
:1044B0008091810086FF2FC08091860090918700B7
:1044C0002091B9043091BA04AC01421B530B9A01FC
:1044D0009093BA048093B904203757E1350798F1D7
:1044E0002091B7042093B8041092B7042FEF2093C3
:1044F0009D0423B12095217020939E042091DD021C
:1045000031E0211130E03093DD02211111C0909390
:10451000BC048093BB04FF91EF919F918F915F91B9
:104520004F913F912F910F900FBE0F901F901895B4
:104530002091BB043091BC04821B930B9093BE046A
:104540008093BD04E8CF8091B7048C3020F7E091D0
:10455000B704F0E0EE0FFF1FE156FB4F31832083DD
:104560008091B7048F5F8093B704D5CF1F920F92CD
:104570000FB60F9211242F933F938F939F93EF9336
:10458000FF938091CB04882381F08091C9048F5FD1
:104590008093C9049091C9048091CA04891728F4B2
:1045A0001092C9048FEF8093C7048091C8048823B8
:1045B00011F019992CC08091C804811102C0199B77
:1045C00026C08091C90490E0880F991F2091C504EE
:1045D0003091C604820F931FFC018081918120914C
:1045E000880030918900820F931F909389008093F7
:1045F000880081E08093CB04FF91EF919F918F9190
:104600003F912F910F900FBE0F901F901895209102
:104610008800309189008091C3049091C404880F70
:10462000991F820F931F90938900809388001092A6
:10463000CB04E2CF6F927F928F929F92AF92BF9204
:10464000CF92DF92EF92FF920F931F93CF93DF935E
:10465000EC01842F6C8F4D8D70E060E0A82EB12CA2
:10466000822E912C602E712C641770F565307105C7
:1046700059F1DB01AA0FBB1FAA0FBB1FFE01EA0FF6
:10468000FB1FEA5BFF4F9081392F37703A151B04EF
:1046900009F087C0392F369536953695377038151D
:1046A000190409F07EC0929596959695937096158B
:1046B000170409F076C06E0196E4C90ED11CCA0E2B
:1046C000DB1EC114D104F9F4453008F05BC0A4E04E
:1046D0004A9FA00111246E01B6E4CB0ED11CC40E7A
:1046E000D51E2770220F220F220F982F9770292B8B
:1046F000902F9295990F990F907C292BF60120838A
:104700009D8D9F5F9D8FD70113969C9113979370FA
:1047100010E0933029F412969C9112E097FD11E07D
:10472000402F682FE881F981068CF78DE02DCE01AE
:104730000995882339F1112329F18E8D8B3010F5DD
:10474000282F30E0F901EE0FFF1FE20FF31FEC0FEF
:10475000FD1FD70112969C9112979F7095A31496F6
:104760009C91149796A394E097A3C10ED11CF601D7
:10477000818316968C919BA1981708F48BA38E8D3C
:104780008F5F8E8FDF91CF911F910F91FF90EF90F0
:10479000DF90CF90BF90AF909F908F907F906F9061
:1047A00008956F5F7F4F60CFEF92FF920F93029754
:1047B0000E941A230F91FF90EF900895CF93DF93FB
:1047C0001092F5031092F40388EE93E0A0E0B0E0BD
:1047D0008093F6039093F703A093F803B093F90343
:1047E0002DE131E03093F3032093F20325EC30E028
:1047F0003093FF032093FE0324EC30E03093010458
:104800002093000420EC30E0309303042093020452
:1048100021EC30E0309305042093040422EC30E0D6
:10482000309307042093060426EC30E0309309040B
:104830002093080410920B0410920C0410920D04A3
:1048400010920E041092920410929104809393049B
:1048500090939404A0939504B09396048FE291E012
:104860009093900480938F0481E491E09093C0042E
:104870008093BF041092C6041092C5041092C7041E
:1048800081E08093C8041092C9041092CB042BE4F9
:1048900031E030939C0420939B0420ED37E030936B
:1048A000CC052093CB0528EE33E03093CE05209342
:1048B000CD0526EB33E03093D0052093CF0520E1E2
:1048C00037E23093D2052093D10521E030E03093D8
:1048D000D4052093D3052CED35E03093D6052093F5
:1048E000D50527EC31E03093530520935205109203
:1048F0005A0580935B0510925C0584E595E09093E2
:104900005905809358051092540588E08093550509
:104910008CE38093560510925705E2E5F5E091E0AF
:1049200024E535E0158696871786348723873596E4
:1049300085E0ED39F807B1F71092C80581E1809361
:10494000CC0421EB31E0309342052093410522E570
:1049500035E03093440520934305109251051092A1
:10496000450588E0809346052CE320934705909306
:1049700048058093490584E080934A0510924B05D1
:1049800010924C0510924D0510924E0510924F0555
:1049900010925005A8EAB5E0FD0190E080E0219179
:1049A0003191232B09F0D7C0880F991FFC01E855DE
:1049B000FA4F81E495E09183808382E595E09093BE
:1049C000E7048093E6048BE591E09093E304809301
:1049D000E2048FE791E09093E5048093E404109261
:1049E0000105109202051092030510920405109221
:1049F00005051092060510923C051092E9041092EC
:104A0000EB041092EA041092EC041092EE0410925F
:104A1000ED041092EF041092F1041092F004109241
:104A2000F2041092F4041092F3041092F504109220
:104A3000F7041092F6041092F8041092FA041092FF
:104A4000F9041092FB041092FD041092FC04E9E2B8
:104A5000F5E090E080E0EC01CC0FDD1FCC0FDD1F16
:104A6000C85DDA4F2881287328831082118201964D
:104A700034968530910579F7C2EED4E090E080E07D
:104A80001DA2582F28E0811120E02EA3BC01660F43
:104A9000771F9B01280F391F275F3A4FF90140818B
:104AA0004E7F4D7F40833FE0511131E0FB01E80F25
:104AB000F91FE75FFA4F330F330F20812370232B49
:104AC0002083019623968B309105D1F681E0809367
:104AD00000051092FF041092FE0490E080E02D91FA
:104AE0003D91232BF1F5880F991FFC01E855FA4FF2
:104AF00082EE94E09183808385E891E09093E304D3
:104B00008093E2048BEA91E09093E5048093E404BF
:104B100081ED91E09093DB048093DA041092DD0440
:104B20001092DC041092DF041092DE0485E591E01F
:104B30009093CE048093CD048AED94E09093D004BA
:104B40008093CF0489EC95E09093E1048093E00496
:104B5000DF91CF91089501968031910509F01FCF23
:104B60002CCF01968031910509F0B9CFC5CF78944B
:104B700084B5826084BD84B5816084BD85B5826062
:104B800085BD85B5816085BD80916E008160809313
:104B90006E0010928100809181008260809381007C
:104BA000809181008160809381008091800081608C
:104BB000809380008091B10084608093B1008091E7
:104BC000B00081608093B00080917A00846080930F
:104BD0007A0080917A00826080937A0080917A00D6
:104BE0008E7F80937A0080917A00806880937A002B
:104BF0001092C1000E9421048FE894E090939C03DE
:104C000080939B0310929A03109299031092980339
:104C1000109297030E9471068BE395E090939603A0
:104C2000809395038CE395E0909394038093930392
:104C300082E08093B8008CE3809300011092010120
:104C40008EE098E0909303018093020186E397E061
:104C500090930501809304012CE138E03093070123
:104C6000209306018CE398E090930901809308015A
:104C70004AE355E050930B0140930A0110929E03C2
:104C800010929D0340E450E05093A2034093A1038F
:104C900040E850E05093A00340939F0342E25AE063
:104CA0005093A4034093A30348E355E05093A60315
:104CB0004093A5033093A8032093A7039093AA03DE
:104CC0008093A90389E395E09093B0038093AF03A9
:104CD000C2ECD0E0FE011491E0910201F0910301D9
:104CE000099580910101882309F43FC080E00E946A
:104CF0001E0AE0910601F0910701812F0995E091CC
:104D00000401F091050109952196F0E0CB3DDF0704
:104D100009F768EE73E080E090E00E94ED040E94E5
:104D2000CC0980919F039091A003C0E8C81B8038F4
:104D3000910508F0C0E010E81C1BE12EF12CE09179
:104D4000A303F091A403A70170E060E090E080E08D
:104D50000995D8E0BD2E0BEDC02E00E0D02ECE0D73
:104D6000DF2DD11D7601012F15C0E0910601F091D4
:104D7000070180E00995BDCFF70194918091B103BF
:104D8000E091A703F091A803892709950150FFEF4F
:104D9000EF1AFF0A0111F0CFE091A503F091A603ED
:104DA0000995BA94CC0EDD1EB110DCCFE091040160
:104DB000F0910501099568EE73E080E090E00E94B3
:104DC000ED040E94CC0921E030E04AE052E064E1C9
:104DD00082E10E94D7088FEF8093B10321E030E099
:104DE00048E152E062E380E00E94D7081092B103EC
:104DF00068EE73E080E090E00E94ED04E091020430
:104E0000F091030482E08083E091FE03F091FF03C0
:104E10001082E0910004F091010488E080831092F8
:104E20000A04E0910604F091070486E08083E09193
:104E30000404F0910504808180618083E091040482
:104E4000F0910504808188608083E0910404F091F2
:104E50000504808180688083E0910404F09105045A
:104E600080818F7D8083CBE3D5E0FE016491662352
:104E700039F082EF93E00E94DD052196892BA9F796
:104E80000E94EA138BE292E00E94F213229A0E949F
:104E90004D11CFB7F8948091B203811124C0E9E895
:104EA000F5E08491EDE9F5E09491E82FF0E0EE0F64
:104EB000FF1FEB58FA4FA591B491EC91E92321F42F
:104EC00061E08AE00E947C048AE00E945D048CB567
:104ED00080618CBD8CB580648CBD8DE00E945D04CA
:104EE0008BE00E945D048091B2038F5F8093B203D8
:104EF000CFBF229A0E944D11219868E188E80E9454
:104F0000B91160E288E70E94B91160E088E70E9469
:104F1000B911D0E0C0E088E60E947F12219680FFA0
:104F2000F7C061EC88ED0E94B91160E680ED0E9447
:104F3000B91164E088EE0E94B91188EE0E947F12D8
:104F400082FFFBCF0E945B1360E288EC0E94B911E4
:104F500061E080E80E94B91168EC70E080E090E0C8
:104F60000E94ED044DEC54E060E082EE94E00E947B
:104F7000160D8111E0C00E94CC0930E020E041E331
:104F800052E060E080E00E94D70868EC70E080E0CA
:104F900090E00E94ED04E3E2F5E0E491E093CC03BD
:104FA000E4E2F5E0E491E093BB03E6E2F5E0E491AE
:104FB000E093B903E5E2F5E0E491E093BA03809170
:104FC000D5059091D6059093D9058093D8059093F7
:104FD000DF058093DE059093DB058093DA05209151
:104FE000CF053091D0053093DD052093DC0530935B
:104FF000E1052093E0053093E3052093E2059093CB
:10500000690680936806909367068093660690E031
:1050100080E00E94B22E80936406813009F493C030
:1050200008F48CC0823009F495C081E090E00E94C1
:10503000B22E91E0811101C090E09093650610922C
:10504000C8041092C2041092C10488E08093CA047C
:105050008091C5049091C604009709F07EC08091AC
:10506000CA0490E00196880F991F0E94EC3090933B
:10507000C6048093C5048091C5049091C604892B11
:1050800009F4A0C08091CA048093C90484EE97E516
:105090009093C2048093C1048CE291E09093C40485
:1050A0008093C3044091CA0420ED37E0429FC001C1
:1050B000439F900D11248455924F853E974568F08B
:1050C0004091CA04429FC001439F900D1124845512
:1050D000924F9093C2048093C1048091C104909137
:1050E000C20481349C4930F080E49CE99093C2046E
:1050F0008093C104C1E08091CA048C17C0F14CEDCB
:1051000055E06C2F8FEB94E00E94DF0ACF5FF3CF66
:10511000CF3FDC0709F0FFCE86E992E00E94F21350
:105120000E94CC0930E020E049EA52E060E080E0F3
:105130000E94D70811CF0E94391127CF1092630621
:105140001092620672CF81E090E0909363068093A4
:1051500062066BCF82E090E0F8CF6091CA0470E005
:105160006F5F7F4F660F771F0E94113280CF809153
:10517000C80461E0811160E089E00E947C0489E05C
:105180000E945D048091B303811116C080E4809376
:10519000800082E8809381001092820080918800D4
:1051A00090918900885A9D4F909389008093880040
:1051B000B09A81E08093B303B19A80916F008260CE
:1051C00080936F004424439458EC652E55E0752E6F
:1051D00060E0C62E60E0D62E5524539470E2272E50
:1051E000E3E13E2E82EF93E00E949B05892BB9F00C
:1051F00082EF93E00E9479058434910519F084369A
:10520000910569F48091B403882389F18FEE91E0D0
:105210000E94F2138091B40384258093B40380919B
:10522000CD039091CE0301969093CE038093CD034E
:1052300083B1C82FC27081FD0CC088EC0E947F1220
:1052400085FF03C00E945B13C0E26C2F88EC0E94B4
:10525000B9118091D803813009F435C308F436C3FD
:10526000823041F0833009F43BC3F12C19C08DEF3B
:1052700091E0CECFF12C8091CC04807F803181F4FD
:105280000E941F0568537F4F8F4F9F4F6093B50358
:105290007093B6038093B7039093B8032092CC0425
:1052A00008EA15E0E80189919991009739F0DC014D
:1052B000ED91FC910680F781E02D09956C167D0635
:1052C00091F78091CC04803409F443C308F00BC3F8
:1052D000803209F428C3803309F435C38131A9F43D
:1052E0001092C805F801819191918F01009739F0D2
:1052F000DC01ED91FC910480F581E02D0995C0174A
:10530000D10781F782E18093CC0480910C019091C8
:10531000CC04903909F0D6C3811112C050920C010F
:105320005092D7058FE392E00E94F2130E94391148
:1053300068EC70E080E090E00E94ED040E94CC09EF
:105340008091CD039091CE0340970CF452C180918F
:105350000C01882309F449C1F0906506E0906206CB
:10536000C091E005D091E1050091E2051091E305BF
:105370008091D9039091DA030817190771F480918D
:10538000DB039091DC03C817D90739F48091DD0362
:10539000E81203C08091DE03F8120E94CC0910933A
:1053A000DA030093D903D093DC03C093DB03E092CC
:1053B000DD03F092DE030E94210430E020E04BE7A1
:1053C00052E060E080E00E94D7084AE061EE73E0BE
:1053D000C8010E94862D30E020E0AC0160E08EE143
:1053E0000E94D708C83E33E0D3070CF0EAC230E091
:1053F00020E045E752E060E08EE40E94D7084AE0F2
:1054000061EE73E0CE010E94862D30E020E0AC0119
:1054100060E086E60E94D70830E020E04AE752E0EC
:1054200064E180E00E94D7084AE061EE73E08E2DCF
:1054300090E00E94862D30E020E0AC0164E183E240
:105440000E94D708FF2041F030E020E041E852E020
:1054500064E184E60E94D70830E020E046E152E0B3
:1054600063E280E00E94D7084AE061EE73E0809139
:10547000E2059091E3050E94862D30E020E0AC012A
:1054800063E28AE00E94D7088091E0059091E105EF
:1054900030E020E0883E934009F0A7C245E852E0A2
:1054A00063E288E20E94D7088091620690916306C9
:1054B0008130910509F49CC28230910509F4A1C2A2
:1054C00030E020E047E852E0892B09F495C2809152
:1054D000650630E020E045E852E0811102C047EA6D
:1054E00052E063E28CE30E94D70840916606509137
:1054F000670663E280E50E948B1340916806509135
:10550000690663E284E60E948B134091D8055091AE
:10551000D90562E380E00E948B134091DA05509137
:10552000DB0562E38EE10E948B138090CD059090A5
:10553000CE05092C000CAA08BB082091DC0530918F
:10554000DD05032E000C440B550B281939094A09B7
:105550005B09A3E6B0E00E94D92E2091CB053091E3
:10556000CC05032E000C440B550B281939094A09A8
:105570005B090E94BA2E49015A01B7FC08C030E00D
:1055800020E04AEE51E062E38CE30E94D708D501A7
:10559000C4010996A11DB11D4397A105B10540F4B1
:1055A00030E020E048EE51E062E38CE30E94D7084F
:1055B0004AE061EE73E0C4010E94862D30E020E0F5
:1055C000AC0162E38CE30E94D7084091DE05509164
:1055D000DF0562E38AE50E948B1364E670E080E0F9
:1055E00090E00E94ED040E94CC091092CE0310922C
:1055F000CD03C091DC04D091DD040091DE04109154
:10560000DF048091D705811108C08091CF0590916A
:10561000D0059093DD058093DC058091E4059091A1
:10562000E5059C01235031092330310528F08230F3
:10563000910510F0079751F40E941F056093E6054D
:105640007093E7058093E8059093E9058091E40560
:105650009091E5059C01255031092330310518F062
:105660000297029750F40E941F056093EE05709315
:10567000EF058093F0059093F1058091E4059091FA
:10568000E505089781F41092E6051092E70510925F
:10569000E8051092E9051092EE051092EF051092C0
:1056A000F0051092F105D093E505C093E40589EC6F
:1056B00095E00E94880E602F89EC95E00E94BC1056
:1056C000E801DD27CE0187539A4F7C01DC019D96CE
:1056D0001C920E941F05672B682B692B09F496C149
:1056E0000E941F05CC0FDD1FCC0FDD1FFE01E7530D
:1056F000FA4F81AC92ACA3ACB4AC86169706A80660
:10570000B90609F497C10E941F05672B682B692B06
:1057100009F486C10E941F05FE01E753FA4F81ACD0
:1057200092ACA3ACB4ACDC01CB0188199909AA09ED
:10573000BB09AE0147535A4F5A01FA01E759FF4FCF
:1057400080839183A283B3830E941F05D501D996DC
:105750006D937D938D939C93DC97602F89EC95E0FE
:105760000E94BC10F70145A60E941F05672B682BFD
:10577000692B09F47AC10E941F05FE01E753FA4F15
:1057800081AC92ACA3ACB4AC86169706A806B90659
:1057900009F47FC10E941F05672B682B692B09F450
:1057A0006EC10E941F05FE01E753FA4F81AC92AC17
:1057B000A3ACB4AC9B01AC01281939094A095B09B7
:1057C00049015A01C753DA4FFE01E759FF4F808262
:1057D0009182A282B3820E941F0569AF7AAF8BAF1C
:1057E0009CAF602F89EC95E00E94BC10E091CC0347
:1057F000F0E0EE0FFF1FE454FC4F8091DA0590912A
:10580000DB0591838083E091BB03F0E0EE0FFF1F87
:10581000E454FC4F8091D8059091D9059183808301
:10582000E091BA03F0E0EE0FFF1FE454FC4F8091CB
:10583000DC059091DD0591838083E091B903F0E070
:10584000EE0FFF1FE454FC4F8091DE059091DF05C1
:10585000918380838091E0059091E1059093C50349
:105860008093C4038091E2059091E3059093C70370
:105870008093C60380916806909169069093C9034E
:105880008093C80380916606909167069093CB033E
:105890008093CA03CCEBD3E010E0499159911F5F8C
:1058A000612F8FEB94E00E94DF0A1830B1F7C1142A
:1058B000D10409F497CC0E94A705882309F492CC5F
:1058C0000E9400008FCC3092CC04CFCC8091CC04CD
:1058D000807F803109F4C9CC81E18093CC04C5CCB0
:1058E000FF24F394C8CC813509F444C0803809F40E
:1058F00054C0803509F009CD88EC0E947F1286FFE4
:10590000DFC081E58093CC040E941F056C5E7F4F51
:105910008F4F9F4F6093B5037093B6038093B70387
:105920009093B803F2CC0E941F050091B50310912B
:10593000B6032091B7033091B803601B710B820B43
:10594000930B97FDBDC061E088EE0E94B91180E421
:10595000DACC88EE0E947F1280FDB2C088ED0E94F2
:105960007F12682F686088ED0E94B911B0E5B0938E
:10597000CC04CBCC0E941F050091B5031091B60357
:105980002091B7033091B803601B710B820B930B0E
:1059900097FD96C0E0E8E093CC042F2D40E060E056
:1059A00082E595E00E947E18882339F0823D09F453
:1059B000ACCCF0EAF093CC04A8CC20E92093CC0442
:1059C000A4CC30E020E045E752E060E086E40E94AD
:1059D000D7084AE061EE73E0CE010E94862D30E0E8
:1059E00020E0AC0160E080E615CD4AE852E058CDF9
:1059F00030E020E04CE852E063E28CE30E94D708FC
:105A000066CD30E020E041E952E0F6CF0E941F056C
:105A100090958095709561957F4F8F4F9F4F62CE87
:105A20000E941F0590958095709561957F4F8F4FCF
:105A30009F4F72CE0E941F05672B682B692B59F070
:105A40000E941F05A5019401261B370B480B590B1B
:105A5000DA01C9016ECE0E941F0590958095709560
:105A600061957F4F8F4F9F4FEDCF0E941F059095FF
:105A70008095709561957F4F8F4F9F4F7ECE0E948E
:105A80001F0590958095709561957F4F8F4F9F4F23
:105A90008ACE0E941F05672B682B692B39F00E9464
:105AA0001F05861A970AA80AB90A8CCE0E941F05FC
:105AB00090958095709561957F4F8F4F9F4FF1CF57
:105AC00080910C01882309F43BCC10920C011092B8
:105AD000D70582E592E00E94F2130E94CC0930E0E3
