:100000000C94FD030C9425040C9425040C94D1222B
:100010000C94D1220C94D1220C9425040C94250428
:100020000C9425040C9425040C9425040C942504AC
:100030000C9425040C9425040C9425040C9425049C
:100040000C9410210C9425040C9480210C945A21BA
:100050000C9425040C9425040C9425040C9425047C
:100060000C94B2210C94250408000000BE9224498F
:10007000123EABAAAA2ABECDCCCC4C3E00000080DA
:10008000BEABAAAAAA3E00000000BF000000803F4D
:100090000000000000084178D3BB4387D1133D190D
:1000A0000E3CC3BD4282AD2B3E68EC8276BED98F3A
:1000B000E1A93E4C80EFFFBE01C4FF7F3F0000007E
:1000C0000000AE2000C840817FA1A6A83FD300D584
:1000D00080D922DA12DB208D14A4AF0000000000CA
:1000E000103878FCCC8404040C040C0CDCFCFC7C84
:1000F0001C080040E0E0F0B0B03030303060E0C0CC
:10010000800000008080808080808080808080806F
:100110008080800080C0C060606060E0C08080003F
:1001200000000000000000000000000000000000CF
:100130000000000808080844443C30202020A0A00B
:10014000E0C8C898F0C0C040F0E0C000187888004F
:10015000E838004868F80040F0E040000000000087
:1001600000000000000000F0F0E0E0C1C3830200E6
:100170000000000006040D0D091B1B1B1B1B0F0FAD
:100180000F000E1F3F3121616161C1C1E1FBFFFF23
:100190000701F8FEFF030000000000000103FFFE5E
:1001A0000003FEFEFC0C0C0C0C0C0C1818B8F0E054
:1001B00000C0E0F0F0B89898999991B1F1E1E08031
:1001C000000031F1E0E0E0606361606040C0838383
:1001D0000000030203010000010000000000000015
:1001E000000000000000E0FFFFFFFFFFFFFFF880BE
:1001F000000000000CFCFCFCFCC000000000000043
:10020000000000E0E0C0C0C0C00000008081818329
:100210008280838FBF387070607030381C1E0F036F
:10022000000E070707070606060606060203030177
:100230000001030707040D0D0D0D0D0D0D05010047
:10024000000000030F1F0E00000000000010180F38
:100250000F0F06000000000000000000000000007A
:100260000000000000F0FFFFFFFF1F1FFFFFFFFF68
:100270008000000000030FFFFFFFFFF00000000000
:10028000000000FFFFFFFFFFFF0000000007FFFF6F
:10029000FFFFFFFFFF0F0F0F0F0F0F0F0F0E0E1EB1
:1002A0003E3CFCFCF8F8F0F0E0C00000000000006C
:1002B000000080C0E0E0F0F0F0F0F8F8F8F8F8F8AE
:1002C000F8F8F8F8F8F0F0F0F0F0F0F0F0F0E0E026
:1002D000C0C080000000000000000000000000001E
:1002E00000000080F0FFFFFF7F03000003FFFFFF1F
:1002F000FFF0000000000007FFFFFFFFFE0000000E
:1003000000E0FEFFFFFF3F0F000000000000FFFFC6
:10031000FFFFFFFFFFF0F0F0F0F0F0F0F0F8F8F87A
:10032000F8FCFFFFFFBF1F1F0F0F0000000000F0D1
:10033000FEFFFFFFFFFFFF3F0F070301010000006B
:1003400000000000000000010101010181818181A4
:10035000818101000000000000000000000000009A
:1003600000C0E0FFFFFFFFFFF8F8F8F8F8FDFFFF1F
:10037000FFFFFE000000000001FFFFFFFFFEE0F8AE
:10038000FFFFFF3F070100000000000080FFFFFFAC
:10039000FFFFFF070303030303030303030307FF35
:1003A000FFFFFFFFFFFFFF00000000000000003F15
:1003B0007FFFFFFFFFFFFFF8F0E0E0E0E0E0E0E0BC
:1003C000E0E0F0F0F0FCFFFFFFFFFFFF7F7F1F0F7B
:1003D00007000000000000000000000000000060B6
:1003E0007C7F7F7F0F010101010101010101017F7C
:1003F0007F7F7F7C0000000000031F7F7F7F7F7F67
:100400007F07010000000000000000203F3F3F3F49
:100410003F3F1F0000000000000000000000001F20
:100420009F9F9F9F9F9F9F9F9C98D0C0C0C0C0C010
:10043000C0C0C1C1C1E3E3E3E3E7E767676767778C
:1004400073737373333333393938383818181C1CC5
:100450001C1C1C0C0C0E0E0E0E0E060000080C0CC4
:100460000C0C0C0C0C0C0C0C0C0C0C0C0C0C0C0CCC
:100470000C0C0C0E0E0E0E0E0E0E0E0E0E0E0E0EA2
:100480000E06060606060606060606060606060604
:10049000060707070707070703030303030303030D
:1004A000030303030303030101010101010101012E
:1004B000010100000000000000000000000000003A
:1004C000000000000000000000000000000000002C
:1004D00000000000000000000000000006082000EE
:1004E00000000000000000002F00000000070007CF
:1004F0000000147F147F1400242A7F2A1200231383
:1005000008646200364955225000000503000000CF
:10051000001C224100000041221C000014083E087B
:10052000140008083E0808000000A0600000080849
:1005300008080800006060000000201008040200A5
:100540003E5149453E0000427F4000004261514912
:1005500046002141454B31001814127F10002745F9
:10056000454539003C4A49493000017109050300FD
:10057000364949493600064949291E0000363600E9
:100580000000005636000000081422410000141438
:10059000141414000041221408000201510906003D
:1005A000324959513E007C1211127C007F49494961
:1005B00036003E41414122007F4141221C007F49DB
:1005C000494941007F09090901003E4149497A0032
:1005D0007F0808087F0000417F4100002040413F24
:1005E00001007F08142241007F40404040007F020C
:1005F0000C027F007F0408107F003E4141413E0015
:100600007F09090906003E4151215E007F09192931
:10061000460046494949310001017F0101003F4040
:1006200040403F001F2040201F003F4038403F0017
:1006300063140814630007087008070061514945F6
:100640004300007F41410000552A552A55000041D2
:10065000417F00000402010204004040404040008D
:100660000001020400002054545478007F484444A0
:100670003800384444442000384444487F0038540B
:1006800054541800087E0901020018A4A4A47C0098
:100690007F080404780000447D4000004080847D91
:1006A00000007F102844000000417F4000007C04CF
:1006B000180478007C080404780038444444380066
:1006C000FC242424180018242418FC007C080404AA
:1006D0000800485454542000043F444020003C404B
:1006E00040207C001C2040201C003C4030403C004E
:1006F0004428102844001CA0A0A07C004464544C52
:10070000440000087700000000007F000000007730
:100710000800000010081008001414141414140029
:1007200000010203000103020002030100030201B1
:1007300000030102000201030100020301000302A1
:100740000200030103000201030001020200010391
:100750000201000303010002030200010203000181
:100760000103000201020003030102000201030071
:100770000102030001030200020301000302010061
:100780004F70656E41565263204A6F797374696386
:100790005265616465722056312E31000000000000
:1007A000240027002A0000000008000201000003C6
:1007B000040700000000000000000000000023000B
:1007C0002600290000000000250028002B0004045A
:1007D00004040404040402020202020203030303E9
:1007E00003030102040810204080010204081020C5
:1007F0000102040810200D242A2A11241FBECFEF65
:10080000D8E0DEBFCDBF13E0A0E0B1E0E2EBFAE557
:1008100002C005900D92A635B107D9F727E0A6E5ED
:10082000B3E001C01D92AE30B207E1F713E0CCEFA8
:10083000D3E004C02197FE010E943A2DCB3FD1079F
:10084000C9F70E9433260C944C2D0C9400008CBDEB
:100850009DBD08959B01AC0110920A0710920907F3
:1008600010920807109207071092060710920507CA
:1008700060E874E88EE190E00E94452BC90103977F
:1008800090930C0780930B079091FB06963108F02C
:1008900058C0B901769567956431710508F481C037
:1008A000635171097093060760930507B90165509C
:1008B00071097093080760930707B901660F771FE6
:1008C000260F371F36952795369527952C503109D9
:1008D00030930A07209309072091680084E098303C
:1008E00048F031E09E3008F430E081E001C0880F2C
:1008F0003A95EAF7822B809368002DE630E0983035
:1009000050F02BE630E09E3030F02CE630E09631AF
:1009100010F030E020E03093030720930207292FE6
:1009200030E0983008F040C081E001C0880F9A950F
:10093000EAF78093040780910B0790910C070197C9
:10094000F1F78091090790910A07892B49F1E0910D
:10095000A704F091A80486E0EF3EF80709F130976C
:1009600039F0A389B4899C918589809589238C93DA
:1009700080910D078E7F80930D071092A604109230
:10098000A5048FEE96E09093A8048093A704E091CD
:100990000207F0910307808190910407892B8083DF
:1009A000089561E070E07ECF9E3040F42850310918
:1009B00081E001C0880F2A95EAF7BBCF2E5031099C
:1009C000F7CF90E0FC01EA55F84F2491FC01EE517D
:1009D000F84F3491FC01E253F84FE491EE23C9F053
:1009E000222339F0233001F1A8F4213019F122300B
:1009F00029F1F0E0EE0FFF1FEC53F84FA591B491F1
:100A00008FB7F894EC91611126C030953E233C934A
:100A10008FBF08952730A9F02830C9F0243049F756
:100A2000809180008F7D03C0809180008F778093BC
:100A30008000DFCF84B58F7784BDDBCF84B58F7D19
:100A4000FBCF8091B0008F778093B000D2CF8091A0
:100A5000B0008F7DF9CF3E2BDACFCF93DF9390E0BC
:100A6000FC01EE51F84F24918253984FFC01849180
:100A70008823D1F090E0880F991FFC01E456F84FCD
:100A8000A591B491FC01EC53F84FC591D49161113B
:100A90000EC09FB7F8948C91E22FE0958E238C9333
:100AA0002881E223E8839FBFDF91CF9108958FB71C
:100AB000F894EC91E22BEC938FBFF6CF3FB7F8940C
:100AC0008091A1049091A204A091A304B091A404E8
:100AD00026B5A89B05C02F3F19F00196A11DB11D99
:100AE0003FBFBA2FA92F982F8827BC01CD01620FD5
:100AF000711D811D911D43E0660F771F881F991F8F
:100B00004A95D1F708958F929F92AF92BF92CF925C
:100B1000DF92EF92FF924B015C010E945E056B0138
:100B20007C010E945E056C197D098E099F09683E53
:100B3000734081059105A8F321E0821A9108A1086C
:100B4000B10888EEC80E83E0D81EE11CF11C8114A8
:100B50009104A104B10429F7FF90EF90DF90CF90AA
:100B6000BF90AF909F908F9008952FB7F8946091A9
:100B70009D0470919E0480919F049091A0042FBFCA
:100B8000089508950895089508950895AF92BF9225
:100B9000CF92DF92EF92FF920F931F93CF93DF9349
:100BA0006C017B018B01040F151FEB015E01AE1878
:100BB000BF08C017D10759F06991D601ED91FC919A
:100BC0000190F081E02DC6010995892B79F7C501C7
:100BD000DF91CF911F910F91FF90EF90DF90CF9019
:100BE000BF90AF900895FC01538D448D252F30E0C8
:100BF000842F90E0821B930B541710F0CF9608952A
:100C000001970895FC01918D828D981761F0A28D56
:100C1000AE0FBF2FB11D5D968C91928D9F5F9F731C
:100C2000928F90E008958FEF9FEF0895FC01918DD2
:100C3000828D981731F0828DE80FF11D858D90E03F
:100C400008958FEF9FEF0895FC01918D228D892FDC
:100C500090E0805C9F4F821B91098F7399270895C4
:100C600089EA94E00E94240621E0892B09F420E01F
:100C7000822F089580E090E0892B29F00E943006B1
:100C800081110C9400000895FC01A48DA80FB92FC8
:100C9000B11DA35ABF4F2C91848D90E001968F73A4
:100CA0009927848FA689B7892C93A089B1898C91C3
:100CB000837080648C93938D848D981306C0028812
:100CC000F389E02D80818F7D80830895EF92FF92DC
:100CD0000F931F93CF93DF93EC0181E0888F9B8D5F
:100CE0008C8D98131AC0E889F989808185FF15C019
:100CF0009FB7F894EE89FF896083E889F98980813C
:100D00008370806480839FBF81E090E0DF91CF910A
:100D10001F910F91FF90EF900895F62E0B8D10E02C
:100D20000F5F1F4F0F731127E02E8C8D8E110CC09B
:100D30000FB607FCFACFE889F989808185FFF5CFE6
:100D4000CE010E944406F1CFEB8DEC0FFD2FF11D7B
:100D5000E35AFF4FF0829FB7F8940B8FEA89FB8923
:100D600080818062CFCFCF93DF93EC01888D882381
:100D7000B9F0AA89BB89E889F9898C9185FD03C0FE
:100D8000808186FD0DC00FB607FCF7CF8C9185FFE3
:100D9000F2CF808185FFEDCFCE010E944406E9CFDE
:100DA000DF91CF91089520912404260F3327331F1C
:100DB00021323105ECF420914804FC0190E080E000
:100DC000243069F082E00895A09124042191AC01BF
:100DD0004C5F5B4FA40FB52FB11D2C930196861766
:100DE00098F380912404680F6093240480E00895B0
:100DF00081E008951092480481E080934A041092A3
:100E0000490461E082E10E94E10461E083E10E9423
:100E1000E104E9EBF0E080818E7F808380818D7F2B
:100E2000808380E28093B80085E48093BC000895BD
:100E3000CF93DF9391E0909303048823B9F0C0919E
:100E4000B800D091BA008091BC008A7B8093BC002E
:100E500060E082E10E94E10460E083E10E94E1043D
:100E60000E94FA06D093BA00C093B800DF91CF91E8
:100E700008950895E091820480918104E81730F488
:100E8000F0E0E252FC4F808190E008958FEF9FEFF9
:100E9000089590918204809181042FEF3FEF98177D
:100EA00048F4E92FF0E0E252FC4F208130E09F5FF0
:100EB00090938204C90108958091810490918204E5
:100EC000891B990B0895CF92DF92EF92FF920F93B7
:100ED0001F93CF93DF937C01CB018A012091DD0327
:100EE000222389F0EB016B01C40ED51ECC15DD0564
:100EF00069F06991D701ED91FC910190F081E02DAD
:100F0000C7010995F3CF642F0E94D306C801DF9172
:100F1000CF911F910F91FF90EF90DF90CF900895A8
:100F2000CF93DF931F92CDB7DEB769832091DD03A6
:100F30002223F9F020917F04203258F021E030E0A4
:100F4000FC013383228390E080E00F90DF91CF910A
:100F5000089580918004E82FF0E0E354FC4F9981DC
:100F600090838F5F8093800480937F0481E090E082
:100F7000ECCF61E0CE0101960E94D306F7CFCF926D
:100F8000DF92EF92FF920F931F93CF93DF93D09155
:100F90007F04D13208F094C0C091BB030E945E056B
:100FA0006B017C0180914804811165C082E08093CF
:100FB000480481E080934A048FEF809347041092A5
:100FC0006C04D0936B04EDEBF3E0ABE4B4E080E0B1
:100FD000D81385C010926D0480916D04CC0FC82B7E
:100FE000C0936D0480914904813009F07CC0109257
:100FF00049040E945E056B017C0180916D04809321
:10100000BB008091FF0390910004A0910104B09176
:101010000204892B8A2B8B2B99F00E945E0500918C
:10102000FF031091000420910104309102046C1917
:101030007D098E099F090617170728073907E0F170
:101040008091BC0083FDD9CF85EC8093BC000E94C9
:101050005E056B017C0180914804823009F445C033
:10106000809147048F3F61F180914704803241F1C4
:101070008091470425C08091FF0390910004A091C6
:101080000104B0910204892B8A2B8B2B09F48ACF9F
:101090000E945E050091FF0310910004209101045D
:1010A000309102046C197D098E099F0906171707F4
:1010B0002807390708F076CF8091FE030E941807B1
:1010C0001092800410927F041092DD03DF91CF9183
:1010D0001F910F91FF90EF90DF90CF900895919125
:1010E0009D938F5F75CF85EEB0CF8091FF03909178
:1010F0000004A0910104B0910204892B8A2B8B2B50
:1011000009F4A9CF0E945E050091FF03109100042D
:1011100020910104309102046C197D098E099F0908
:10112000061717072807390708F095CFC5CF809114
:10113000000191E09093DD038093BB031092800443
:1011400010927F041092BC030895CF93C82F809112
:10115000BC038E3138F00E94BF070E94970880E4DC
:101160000E94A5088091830490918404DC01ED9194
:10117000FC910190F081E02D6C2F09958091BC03CA
:101180008F5F8093BC03CF9108950F931F93CF93EC
:10119000DF93EC018C01060F171FC017D10721F058
:1011A00089910E94A508F9CFDF91CF911F910F91EE
:1011B000089540917604FC0124913196E491322FF8
:1011C0002E2FFC013296E491E11103C090E080E003
:1011D000089503966217730730F0D901AE0FB11D61
:1011E0006A177B0728F0E49F800D911D1124E3CF3F
:1011F000621B730B469F9001479F300D1124820F95
:10120000931F08956091770470917804282F880FB8
:10121000330B80917304281B310980917604829FDF
:10122000A001839F500D112480917004813039F00A
:1012300090E080E0840F951F860F971F089583E04C
:1012400090E0F8CF0F931F93CF93DF936115710553
:1012500061F1EB018C0180917104888380917204AB
:1012600089831A828091770490917804003811055F
:1012700050F420917004211106C0892B31F0802F89
:101280000E94020910C0009749F48091790490915E
:101290007A04009779F480917304F2CFB8010E9428
:1012A000D908009791F39C838B83DF91CF911F9195
:1012B0000F910895B8010E94D9080097A1F7EBCFCC
:1012C0003F924F925F926F927F928F929F92AF92D6
:1012D000BF92CF92DF92EF92FF920F931F93CF9323
:1012E000DF9300D000D01F92CDB7DEB7682E6A0121
:1012F0005901062F069506950695E82EF12C40918A
:101300008704509188044E195F09602F70E0E091C6
:101310008B04F0918C04C7010995962C712C512CEB
:1013200010E0209171048091870490918804821BC1
:1013300091099816190609F030F4F601E10FF11D34
:101340008081811132C00F5F802E912C80918904A1
:1013500090918A0443E0969587954A95E1F7E0914C
:101360000401F09105018816990608F085C0739470
:1013700080917504871109C0D601A10FB11D8C9110
:10138000882309F479C0512E712C09954091870466
:10139000509188044E195F09E0918B04F0918C0400
:1013A000B401C7010995962C152D8091B903909130
:1013B000BA03F601E10FF11D20811F5F009769F567
:1013C000822F90E0203CA8F71092BA031092B90344
:1013D000E0916E04F0916F04BE016F5F7F4F09953D
:1013E00089804B80480C2A8138E0739EC00111240B
:1013F00028171906B1F1ACF18C819D81789C800D84
:10140000911D11249D838C83312C811010C0812C5F
:101410008B81881640F1940C84CF36E0880F991F99
:101420003A95E1F7807C97702F73822BCDCFEC81BA
:10143000FD81A114B10481F4849190919904E0910B
:101440008F04F0919004892709958C819D810196E4
:101450009D838C838A94D9CFE491832D8E2B3E2E4D
:10146000ECCF4B82D4CFE0918F04F0919004809127
:10147000990409958394CCCF0995812F0F900F90F3
:101480000F900F900F90DF91CF911F910F91FF90D0
:10149000EF90DF90CF90BF90AF909F908F907F9014
:1014A0006F905F904F903F9008950F931F93CF934D
:1014B000DF93E0918B04F0918C0450E040E070E009
:1014C00060E090E080E00995C0918904D0918A04A1
:1014D00083E0D695C7958A95E1F7209749F4E09186
:1014E0000401F0910501DF91CF911F910F910994B3
:1014F00000918704109188040115110539F4E091D9
:101500008D04F0918E0409952197E7CFE0918F0427
:10151000F091900480919904099501501109ECCF44
:101520000F931F93CF93DF93EC018C01060F171FCE
:10153000C017D10729F4DF91CF911F910F91089522
:10154000E0910601F091070189910995F1CF682F8B
:1015500085E00C94E1040F931F93CF93DF93182F32
:10156000062FEA01E0910201F091030109958091B3
:101570000101882309F442C080E00E94A70AE0919B
:101580000601F091070181E20995E0910601F091D1
:101590000701812F0995E0910601F09107018C2F39
:1015A0008150810FCD2B19F48091870481500995CA
:1015B000E0910601F091070182E20995E0910601B0
:1015C000F0910701802F09958091890490918A04F8
:1015D00023E0969587952A95E1F7E0910601F09131
:1015E00007018150099580910101882371F081E004
:1015F000DF91CF911F910F910C94A70AE091060102
:10160000F091070180E00995BACFE0910401F091D3
:1016100005010995E0910201F09103010995E0911E
:101620000601F091070180E4DF91CF911F910F91A6
:1016300009942091A7043091A8042817390771F460
:101640009091A5048091A604981741F0E091A5041B
:10165000F0E0E758FC4F808190E008958FEF9FEF16
:101660000895EF92FF920F931F93CF93DF93DC01C6
:101670005C96ED90FC905D97E114F10479F481E0C3
:1016800090E013969C938E93129790E080E0DF9108
:10169000CF911F910F91FF90EF9008955196ED918A
:1016A000FC91529750968C915097982F90950FB728
:1016B0005E962C915E97122F127021FD6095F89422
:1016C0002081112319F1282B2083E7012197F1F7BD
:1016D00028E0462F50E0308160FF1AC0382B30835D
:1016E000E7012197F1F7BA0175956795215089F7C0
:1016F000112381F08081892380830FBF5C968D91B7
:101700009C910197F1F781E090E0C1CF2923DCCFD4
:101710003923E5CF9081892BEFCF2091A704309119
:10172000A8042817390761F48091A6042091A50424
:1017300090E0805C9F4F821B91098F7399270895D9
:1017400090E080E008952091A7043091A804281724
:101750003907B9F49091A5048091A604981789F0EF
:10176000E091A504F0E0E758FC4F80812091A504AA
:1017700030E02F5F3F4F2F7333272093A50490E075
:1017800008958FEF9FEF0895CF92DF92EF92FF922F
:101790001F93CF93DF930E94B5056B017C01D0E0CE
:1017A000C0E08FEE96E00E948D0B892B89F08FEEC2
:1017B00096E00E94A30B182F682F89EA94E00E94FC
:1017C0006606FE01E453FE4F8081811301C021961D
:1017D0000E94B5056C197D098E099F09613D77400E
:1017E0008105910518F4C430D105D9F681E024971C
:1017F00009F080E0DF91CF911F91FF90EF90DF9093
:10180000CF900895CF93DF93EC018A819B81DC0117
:10181000ED91FC910480F581E02D6A8509958A851A
:10182000813439F4EA81FB81EA58FF4F808184607A
:1018300080831A861B861C861D861E861F86188A34
:1018400080E0DF91CF91089581E0693009F080E078
:101850000895FC01828508950F931F93CF93DF9322
:10186000FC018B01EA0180819181892B31F1928108
:10187000992349F128813981232BF9F0D8012D9141
:101880003C91D9014C918381682F691B770B808132
:101890009181860F971FDC014C9382818150828356
:1018A00088819981019799838883D8018D919C9132
:1018B000119701968D939C93DACF80E0DF91CF91C1
:1018C0001F910F9108958381828381E0F7CF3F922A
:1018D0004F925F926F927F928F929F92AF92BF9240
:1018E000CF92DF92EF92FF920F931F93CF93DF93EC
:1018F00000D000D0CDB7DEB76C017A8369835C83FA
:101900004B8384E0482E360182E1680E711C93E01F
:10191000392E5601A7E0AA0EB11C12E055245394AB
:101920004601B0E18B0E911C29813A8121153105C8
:1019300009F4CBC0F60180A18230F1F0A8F588232C
:1019400009F457C0813091F7AE014F5F5F4FBE0180
:101950006D5F7F4FC5010E942C0C882309F4B5C030
:10196000D6011596ED91FC911697808191968C93F6
:101970009197818192968C93F6017682658230A24E
:10198000D60192968C919297843011F493961C9282
:10199000F60181A182508483258136813087278397
:1019A0008287818740A205C0833051F3843009F0DB
:1019B000BDCFD60192968C919297843019F18530E3
:1019C00009F44CC0823009F073C0AE014F5F5F4F25
:1019D000BE016D5F7F4FC5010E942C0C882309F466
:1019E00074C0F601858984A3F6019682858210A2CF
:1019F0009BCF148385819681908787831287118777
:101A000050A2A2CFAE014F5F5F4FBE016D5F7F4F0F
:101A1000C5010E942C0C882309F457C0D6015596A5
:101A20008C915597833001F798968C9198978111F6
:101A3000DBCF93965C92939752968C9152979696A1
:101A40008C93969753968C91539797968C939797E0
:101A500057968C91579795968C93C6CFAE014F5F52
:101A60005F4FBE016D5F7F4FC5010E942C0C882324
:101A700061F1F60183A1882309F4B6CF82819381B5
:101A8000009709F4B1CFDC01ED91FC910190F08158
:101A9000E02D7401D60195960C91959797962C910F
:101AA000979796964C91969794966C9109959CCFA2
:101AB000F60185858823F9F0813041F1D6011E9623
:101AC0008D919C91892B09F48FCF0F900F900F90DF
:101AD0000F90DF91CF911F910F91FF90EF90DF90CA
:101AE000CF90BF90AF909F908F907F906F905F90BE
:101AF0004F903F90089591968C9191978250990BB9
:101B00001F969C938E931E971D965C9229813A8115
:101B10008B819C81782F692FF60146855785411569
:101B2000510581F001962115310539F041505109D7
:101B30005787468721503109EDCF7B836C831A820A
:101B40001982BCCF9C838B833A8329831586B6CFB9
:101B5000CF93DF93EC018C819D81DC01ED91FC91B1
:101B60000480F581E02D6E81099581E08E8F1E82C3
:101B70001F8E18A219A21AA21CA280E0DF91CF9199
:101B80000895FC01DC01A65ABF4F8C918823A1F077
:101B90008781681741F0828521E030E0681729F0DD
:101BA00090E080E0089530E020E0C901880F991F9F
:101BB000820F931FE80FF91F808591850895FC011E
:101BC0008781811104C080859185892B59F0828598
:101BD000811106C08385948521E030E0892B21F0B6
:101BE00080E0089530E020E0C901880F991F820F3E
:101BF000931FE80FF91F67835187408781E008959D
:101C00000895DF92EF92FF920F931F93CF93DF938C
:101C1000EC0185E0E62EF12CFE01869FE00DF11D22
:101C20001124908596FF24C0192F177001E085E0DC
:101C3000D82E8FEF800F8F3008F001E0602F70E01A
:101C4000062FD69EF001D79EF00D1124EC0FFD1F3C
:101C500080858695869586958770181701F16F5F48
:101C60007F4F603168F38D81811302C011501D8355
:101C700085E08E9DF0018F9DF00D1124EC0FFD1F6E
:101C8000108681E0818712862296D783C683DF91F2
:101C9000CF911F910F91FF90EF90DF900895CE01AB
:101CA0000E94010EC6CFFC0120812EBD9B01215058
:101CB000310941F051810DB407FEFDCF4EB55EBD37
:101CC0004193F5CF61507109860F971F0DB407FE40
:101CD000FDCF2EB5FC0120830895FC0121E0613485
:101CE00099F49C01255B3F4F61E0AC014E5F5F4F73
:101CF0001586668717865487438735962E173F07C4
:101D0000B9F7FC01158208953585631729F02F5F17
:101D100035962031C9F70895622F0C94010ECF93A8
:101D2000DF93FC0167FD12C0283080F4442319F0D2
:101D30008581873059F0EF01A1E0B0E08D858823DF
:101D400049F111962596A031B105C1F780E018C080
:101D500085E08A9FE0018B9FD00D1124CE0FDF1FFD
:101D6000442389F081E4888785818F5F858325E01E
:101D70002A9FC0012B9F900D1124E80FF91F808529
:101D8000DF91CF91089581E08887F1CF2770687B3C
:101D9000622B0FC06623E1F26770660F660F660F55
:101DA0004423A1F3606485818F5F85838770687F9A
:101DB000682B25E02A9FC0012B9F900D1124E80F6E
:101DC000F91F6087862FDCCFFC0121E0611102C082
:101DD000069608953585631739F02F5F35962031C3
:101DE000C9F790E080E00895069635E0239F800DC6
:101DF000911D112408950F931F93CF93DF93211505
:101E0000310599F0E901042F162F0E94E40EFC0120
:101E100086ED309729F01283D183C083038380E05D
:101E2000DF91CF911F910F91089588EDF9CF90E048
:101E300080E00895FC0122813381FB0131832083FE
:101E4000FC0184819581FA01918380830895CF926A
:101E5000DF92EF92FF920F931F93CF93DF9378015E
:101E6000EC012496680127E0C20ED11CDE01F801C6
:101E700031912D9132130CC0EC15FD05C9F7DF919E
:101E8000CF911F910F91FF90EF90DF90CF90089529
:101E9000DC0112968D919C91009789F3B801DC01C9
:101EA000ED91FC910190F081E02D0995F701819170
:101EB0007F018993EC15FD05C9F7E1CF2A980895B4
:101EC0002A9A0895EF92FF920F93FC01368D3230DB
:101ED00018F0348D361302C00E9449230F91FF90F1
:101EE000EF900895EF92FF920F9302970E94620F76
:101EF0000F91FF90EF9008950895EF92FF920F9346
:101F00001F93422F202F8701DC01ED91FC9100A04F
:101F1000F1A1E02D09951F910F91FF90EF90089589
:101F200081E00895FC0184A10895FC018681089553
:101F300080E0089581E0089580E0089580E00895AC
:101F4000089580E0089508950F931F93CF93DF9332
:101F5000D82FC62F8A0180E591E00E9427040E94B5
:101F60005E0FD260DEBDF8018C2F882339F00DB4EE
:101F700007FEFDCF91919EBD8150F7CFC00FD12FAD
:101F8000D11D0DB407FEFDCF0E94600FCE01DF9181
:101F9000CF911F910F9108950F931F93CF93DF93CC
:101FA00000D0CDB7DEB7182F062F80E591E00E9454
:101FB00027040E945E0F126019830A8362E070E0BA
:101FC000CE0101960E94530E0E94600F0F900F9059
:101FD000DF91CF911F910F9108959F92AF92BF9281
:101FE000CF92DF92EF92FF920F931F93CF93DF93E5
:101FF0006C01C42FD22F99249394E62EF12CEE0C71
:10200000FF1CE80EF91E86E5E80EF11CA42EB12C8B
:10201000ABE2AA0EB11CAA0CBB1CAC0CBD1CF70198
:1020200080819181DC01ED91FC910280F381E02DB2
:10203000202F4D2F6C2F0995182F803EC9F5C11107
:102040002BC061E088EE0E94CC0F66E670E080E075
:1020500090E00E948305F70180819181DC01ED9180
:10206000FC910190F081E02D202F4D2F6C2F0995D0
:10207000182F8D30D1F58FEF890D8330F8F0C11115
:1020800037C061E088EE0E94CC0F66E670E080E029
:1020900090E00E9483051CC0F50180819181DC01E4
:1020A000ED91FC910284F385E02D6D2F0995D3CF3E
:1020B0008D3061F48FEF890D833050F464E670E069
:1020C00080E090E00E9483059394A9CF882319F2C1
:1020D000812FDF91CF911F910F91FF90EF90DF90B3
:1020E000CF90BF90AF909F900895882389F3C7CF7A
:1020F0008C2F90E08B96880F991F8C0D9D1DFC01F5
:1021000080819181DC01ED91FC910284F385E02DC9
:102110006D2F0995DDCF8EBD00000DB407FEFDCFFC
:102120008EB50895CF93C82F80E591E00E942704D3
:102130000E945E0F8C2F0E948B1080E00E948B10FB
:10214000C82F0E94600F8C2FCF910895AF92BF923D
:10215000CF92DF92EF92FF920F931F93CF93DF9373
:10216000EC01B62EA42E69010E94E40E7C0186EDDE
:10217000E114F10409F447C0D701ED91FC911197E6
:1021800087ED309709F43FC013969C9180E0981733
:1021900031F02081A21629F033968F5FF8CFF0E05E
:1021A000E0E0D601ED93FC938BED309761F1228155
:1021B00026952695203108F02FE081E090E0A0E000
:1021C000B0E004C0880F991FAA1FBB1F2A95D2F741
:1021D0000197F801918380836B2D80EE0E94CC0FD4
:1021E00088ED0E949210D70114969C91682F697F08
:1021F000992329F0CA58DF4F68816260682B88ED07
:102200000E94CC0F80E0DF91CF911F910F91FF9042
:10221000EF90DF90CF90BF90AF9008958F929F92F4
:10222000AF92BF92CF92DF92EF92FF920F931F93E4
:10223000CF93DF93882E962E5A010E94B5056B012D
:102240007C0128E8C20E23E1D21EE11CF11C10E043
:1022500000E0D0E0C0E098280E94B5056C197D0927
:102260008E099F0997FF1EC0692D80EF0E94CC0F39
:102270000E94B5056C197D098E099F0997FF09C059
:1022800088EC0E94921087FFF3CF60E888EC0E94F0
:10229000CC0F88EF0E949210C82FCF70C43081F00D
:1022A000CE30B9F08C2FDF91CF911F910F91FF901D
:1022B000EF90DF90CF90BF90AF909F908F90089558
:1022C0000F5F1F4FA114B10439F20A151B0521F647
:1022D000E9CFDF5FD33009F0BFCFE4CFFB0101903E
:1022E0000020E9F73197AF01461B570BDC01ED9158
:1022F000FC910280F381E02D0994CF93DF93BC0120
:1023000089EA94E00E946E11EC0166EC72E089EAC1
:1023100094E00E946E118C0F9D1FDF91CF91089564
:102320000C946E112F923F924F925F926F927F9218
:102330008F929F92AF92BF92CF92DF92EF92FF92D5
:102340000F931F93CF93DF937B013A016901F9014A
:10235000A080B180FB013180F90111821082FB0164
:10236000828160E181FD60E288EE0E94CC0F2A2C20
:10237000A301F701608180E00E940E11582EF6E063
:102380008F1310C088EF0E949210F70192819D7FF9
:1023900084FF9260928360E191FD60E288EE0E948A
:1023A000CC0FE6CF811150C088EC0E94921082FFC2
:1023B0005FC080E30E949210482E8A151B0411F022
:1023C00008F0422CF60180819181E501C81BD90BF0
:1023D000D7FF02C0D0E0C0E0842C912C8C169D0663
:1023E0000CF4E40180E591E00E9427040E945E0F56
:1023F00088E00E948B10AE0170E060E0C8010E948E
:10240000452D209721F0BE01C8010E94530E0C0FEC
:102410001D1F0E94600F64E088EC0E94CC0FF60143
:1024200080819181880E991E91828082431420F0D0
:102430008A149B0408F49CCF88EF0E949210F70145
:10244000928184FB91F99283852DDF91CF911F9129
:102450000F91FF90EF90DF90CF90BF90AF909F9043
:102460008F907F906F905F904F903F902F90089546
:1024700080EF582EE9CFAF92BF92CF92DF92EF92CA
:10248000FF920F931F93CF93DF9300D000D0CDB76F
:10249000DEB77C01690158011C821B821A821982F5
:1024A0008E010F5F1F4F9E012D5F3F4F0E94A610B0
:1024B000811109C049815A816B817C818501960116
:1024C000C7010E9492110F900F900F900F90DF9113
:1024D000CF911F910F91FF90EF90DF90CF90BF9021
:1024E000AF9008954F925F926F927F928F929F92DA
:1024F000AF92BF92CF92DF92EF92FF920F931F9312
:10250000CF93DF93CDB7DEB7C254D1090FB6F8949D
:10251000DEBF0FBECDBFDC0194962C9121111AC0F5
:10252000612C862DCE5BDF4F0FB6F894DEBF0FBE59
:10253000CDBFDF91CF911F910F91FF90EF90DF9072
:10254000CF90BF90AF909F908F907F906F905F9053
:102550004F9008957C010E94B505F701878C90A0EB
:10256000A1A0B2A0681979098A099B0997FDD8CF63
:102570000E94B505D70193962C91620F711D811DA4
:10258000911DF701678F70A381A392A3712C6E0137
:10259000F1E4CF0ED11C30E4832E912C57018AE553
:1025A000A80EB11CD7015D968C91781608F0B8CFB3
:1025B000E72DF0E07296EE0FFF1FEE0FFF1FEE0DFE
:1025C000FF1D8081E82FF0E0CF01880F991FDC010B
:1025D000AE0FBF1FAE0DBF1D96962C9130E0D601F9
:1025E0002D933C93DE0111962D011D92AC15BD0576
:1025F000E1F7E80FF91FEE0DFF1D8201960145A1DD
:10260000F7016681848195810E943B12682E8111B9
:1026100088CFD6018D919C9111978134910510F04E
:102620008D929C92D701ED91FC9100A0F1A1E02D3B
:102630008201D6012C91D5014C91B701C7010995B2
:10264000D701ED91FC910288F389E02DD5018C91A1
:1026500081116980662DC7010995009769F0DC0139
:10266000ED91FC910190F081E02D8201D6012C9139
:10267000D5014C91B7010995739494CF3F924F9235
:102680005F926F927F928F929F92AF92BF92CF9202
:10269000DF92EF92FF920F931F93CF93DF93CDB70B
:1026A000DEB7C254D1090FB6F894DEBF0FBECDBF5E
:1026B000DC0194962C91222309F4A1C06C010E94A4
:1026C000B505F601878C90A0A1A0B2A06819790980
:1026D0008A099B0997FD93C00E94B505D601939680
:1026E0002C91620F711D811D911DF601678F70A3E2
:1026F00081A392A3312C5E01F1E4AF0EB11C46011F
:102700008AE5880E911CD6015D968C91381608F0EA
:1027100076C0E32DF0E07296EE0FFF1FEE0FFF1F65
:10272000EC0DFD1D6080662009F467C0712C7301FB
:10273000EE0CFF1CF701E60DF71DEC0DFD1D86A14B
:1027400090E0F50191838083FE0131962F01119273
:10275000EA15FB05E1F7F701E60DF71DEC0DFD1D90
:102760008201950145A1D60116966C911697149693
:102770008D919C910E943B12182F81113EC0F50152
:10278000808191810097C9F18134910520F080E426
:1027900090E091838083E60CF71CD601AE0DBF1D3F
:1027A000F60180819181FC01608C718C7201F501D0
:1027B0000081F401208195964C91B601C601F30188
:1027C0000995D601ED91FC910288F389E02DD401A1
:1027D0008C9181111981612FC6010995009769F0CB
:1027E000DC01ED91FC910190F081E02D8201D50199
:1027F0002C91D4014C91B6010995339484CF80E09B
:10280000CE5BDF4F0FB6F894DEBF0FBECDBFDF91BA
:10281000CF911F910F91FF90EF90DF90CF90BF90DD
:10282000AF909F908F907F906F905F904F903F9070
:1028300008952F923F924F925F926F927F928F9264
:102840009F92AF92BF92CF92DF92EF92FF920F933F
:102850001F93CF93DF93CDB7DEB766970FB6F8948B
:10286000DEBF0FBECDBF3C01442E322E202EEA8AA1
:10287000CE8AEBA4FCA4CDA4DEA41E861D86188AF5
:102880001F868E01015F1F4F9E01235F3F4F0E94F5
:10289000A610582E81113BC139822A822A892B83A6
:1028A0003E893C83BE82AD8298868F82AE014F5FA7
:1028B0005F4F68E080E20E94A40F4F855889642D25
:1028C00080E10E940E11811140C1C114D10409F4AC
:1028D00053C00D851E85D80112968C91129737FE34
:1028E00051C0826012968C93540122242394A11427
:1028F000B10409F42FC1FC86EB864F8558896D859C
:102900007E8586019E01255F3F4FC3010E94921183
:10291000582EB6E08B130EC088EF0E949210ED8502
:10292000FE8585FB882780F98225928180FB91F9BD
:102930009283DDCF8111EBC0EFA5F8A93097A1F00C
:102940006B857C850190F081E02D0190F081E02D78
:10295000C4018A199B099A8789879E01275F3F4F87
:10296000A6018FA598A909958B859C85A81AB90AF7
:102970008E159F0508F0BBCF4F85588937FEE1C003
:1029800080EAE0C0816012968C93129711968C9029
:102990008FEF880D803408F0DAC02F8438880E94C9
:1029A000B5059B01AC0128573C4E4F4F5F4F2A8B1A
:1029B0003B8B4C8B5D8BD80112968C9160E880FF2D
:1029C00060E488EE0E94CC0F512C912CE114F104AC
:1029D00009F48CC03401E814F90408F437016E8A54
:1029E000A601662D80E10E94A40F662D88E30E9457
:1029F000CC0FF8016081606280EF0E94CC0F88EC00
:102A00000E94921087FFFBCF60E888EC0E94CC0FF9
:102A100088EF0E9492108F70582E198AB12CA12C29
:102A2000552021F10E94B5052A893B894C895D8991
:102A3000621B730B840B950B97FF18C036E053167F
:102A400009F440C04EE05416B1F054E0551209C0EC
:102A50008FEFA81AB80A2114310491F02A143B040C
:102A600079F460E088E30E94CC0F42C0E618F708D2
:102A7000C60CD71CABCF99899F5F998B933089F394
:102A800060E088E30E94CC0FD6016C9180E10E9447
:102A9000CC0F6E8988E30E94CC0FF80160816062E0
:102AA00080EF0E94CC0F88EC0E94921087FFFBCF32
:102AB00060E888EC0E94CC0F88EF0E9492108F7023
:102AC000582EAECF88EF0E94921085FB882780F9A0
:102AD000A1E08A27F801928180FB90F9928360E857
:102AE00090FF60E488EE0E94CC0FCACF5110B9CF9E
:102AF00088EF0E949210D80112969C91129785FB44
:102B000090F912969C934F8558895520D1F0852DC8
:102B100066960FB6F894DEBF0FBECDBFDF91CF91A2
:102B20001F910F91FF90EF90DF90CF90BF90AF90EB
:102B30009F908F907F906F905F904F903F902F90DD
:102B4000089580E8642D0E940E11582EE0CF8AED82
:102B5000582EDDCF4F855889552009F411CFD7CF96
:102B60008F929F92AF92BF92CF92EF920F931F924C
:102B70001F923F932F935F934F934A01B12CA12C47
:102B8000CC24C394E12C06E020E840E00E94191414
:102B90000F900F900F900F900F900F900F91EF905C
:102BA000CF90BF90AF909F908F9008958F929F92FB
:102BB000AF92BF92CF92EF920F931F931F921F92EB
:102BC0001F930F935F934F934A01B12CA12C32E0D6
:102BD000C32EE22E06E020E840E00E9419140F9078
:102BE0000F900F900F900F900F901F910F91EF90FB
:102BF000CF90BF90AF909F908F9008958F929F92AB
:102C0000AF92BF92CF92EF920F93CF931F921F92EA
:102C10001F921F921F921F92912C812CB12CA12CDC
:102C2000C12CE62E05E020E040E060E00E9419148F
:102C3000C82F6CE271E080E090E00E9483050F9065
:102C40000F900F900F900F900F908C2FCF910F91AE
:102C5000EF90CF90BF90AF909F908F9008958F92FC
:102C60009F92AF92BF92CF92EF920F93A42EB12C6E
:102C70001F921F921F921F921F921F92912C812CC4
:102C8000C12CE62E01E023E240E0FC016285828156
:102C900093810E9419140F900F900F900F900F9036
:102CA0000F900F91EF90CF90BF90AF909F908F902B
:102CB00008958F929F92AF92BF92CF92EF920F930F
:102CC000A62EB12C1F921F925F934F931F9224E068
:102CD0002F9324E0822E912CC12CE12C00E023EADA
:102CE00040E0FC016285828193810E9419140F905B
:102CF0000F900F900F900F900F900F91EF90CF903B
:102D0000BF90AF909F908F9008958F929F92AF92B7
:102D1000BF92CF92EF920F93A42EB12C1F921F92CD
:102D20001F921F921F921F92912C812CC12CE62E74
:102D300003E023E240E0FC016285828193810E94EE
:102D400019140F900F900F900F900F900F900F91FC
:102D5000EF90CF90BF90AF909F908F9008952F925B
:102D60003F924F925F926F927F928F929F92AF921B
:102D7000BF92CF92DF92EF92FF920F931F93CF9368
:102D8000DF93CDB7DEB767970FB6F894DEBF0FBEFF
:102D9000CDBF7C01162F6A01FA0180819181A28149
:102DA000B3818130F3E09F07F1E0AF07B10509F48B
:102DB000B0C078F48115E1E09E07AE07B10509F4D3
:102DC000D8C081309140A140B10509F4A2C080E093
:102DD000B7C0833021E0920720E1A207B10529F0B6
:102DE00083309340A041B10591F7412F64E1C701C1
:102DF0000E942F16412F60E1C7010E942F1664E147
:102E000070E080E090E00E948305D7011A968C91D3
:102E10001A971296ED90FC90F60151808770482E1B
:102E20001B8A88E08C8B8CE38D8BFAEFEF16FFEF1B
:102E3000FF0609F417C151FA552450F8D701169628
:102E4000CD90DC901797CE01439617969C938E9366
:102E500016971A965C929E012F5F3F4F42E150E019
:102E600060E0C7010E94B015382EF701D782C682F4
:102E70008111F8C089849A846B847C84FD81FE8BE7
:102E80002E812F8B670186E5C80ED11C5601212C9F
:102E9000D5018D919C91009709F0B5C02394B2E0C3
:102EA000AB0EB11CE0E12E12F3CFF60180819181CF
:102EB000009709F0E8C03394F2E0CF0ED11C20E176
:102EC0003212F3CFF70186819781892B09F4CAC0AA
:102ED0005286212F40E0642DC7010E948F0E182FCB
:102EE000882309F4BFC0682FC7010E94E40E009731
:102EF00009F4B8C0DC0114965C92612FC7010E94EE
:102F0000FE15882309F4AEC0612FC7010E946D0E23
:102F1000A9C08091780381115ACF412F61E1C70187
:102F20000E942F16412F60E1C7010E942F16412FEA
:102F300064E0C7010E94851681E08093780381EBED
:102F400067960FB6F894DEBF0FBECDBFDF91CF916D
:102F50001F910F91FF90EF90DF90CF90BF90AF90B7
:102F60009F908F907F906F905F904F903F902F90A9
:102F70000895462F61E1C7010E942F16412F60E19D
:102F8000C7010E942F1610927803D7011A968C91D0
:102F90001A978770912F9770182F110F110F110F1B
:102FA000192B09F414CF1296CD90DC905601B6E59A
:102FB000AB0EB11CF12CE12CF501819191915F01D7
:102FC0000097C9F0DC01ED91FC910084F185E02DC2
:102FD0000995181310C0F701BB96EE0FFF1FEC0DFB
:102FE000FD1D80819181DC01ED91FC910480F581D2
:102FF000E02D0995ECCEBFEFEB1AFB0AE0E1EE16EF
:10300000F104D1F6E4CEDC01ED91FC910084F18570
:10301000E02D0995811142CFF50180819181DC017C
:10302000ED91FC910088F189E02D6F890995882345
:1030300009F434CFF50180819181DC01ED91FC919F
:103040000484F585E02DA301B4010995882369F076
:10305000052D212F442D622DC7010E94ED0F813DCA
:1030600009F41CCF10927803B2CEF50180819181D2
:10307000DC01ED91FC910684F785E02D6E890995C0
:103080008111E6CF0BCFDC01ED91FC910084F1853D
:10309000E02D099581110FCFF60180819181DC012E
:1030A000ED91FC910088F189E02D6F8909958111DE
:1030B0000BC0052D212F442D632DC7010E94ED0F5C
:1030C000877F813D79F6F7CEF60180819181DC0121
:1030D000ED91FC910484F585E02DA301B4010995DF
:1030E0008111E9CEF60180819181DC01ED91FC91A5
:1030F0000684F785E02D6E8909958823D1F2DBCE11
:10310000CF92DF92EF92FF920F931F93CF93DF93B3
:10311000CDB7DEB72E970FB6F894DEBF0FBECDBF8A
:10312000FC012089211111C010E0812F2E960FB6CD
:10313000F894DEBF0FBECDBFDF91CF911F910F91ED
:10314000FF90EF90DF90CF9008957C010E94B5052D
:10315000F7010485158526853785601B710B820B69
:10316000930B97FDE1CF81E090E09E878D878E01E4
:103170000F5F1F4F9E01235F3F4F41E062858281B9
:1031800093810E943B12182F811121C082E0D82E1A
:1031900001E089818D2139F119861A861B861C86EA
:1031A000AE01475F5F4F602FC7010E945916C82EBE
:1031B000811119C0AE01475F5F4F602FC7010E94A8
:1031C000AF16813B19F0882371F0C82E1C2D0E9488
:1031D000B5056C597F4F8F4F9F4FF70164877587F7
:1031E00086879787A2CFDD0C0F5F083091F601E04C
:1031F000F7018385801758F319861A861B861C866B
:10320000AE01475F5F4F602FC7010E945916D82E4D
:10321000811117C089859A8587709170813091409E
:1032200081F48B859C8581609C878B87AE01475F8D
:103230005F4F602FC7010E94AF16813B29F08111BB
:1032400002C00F5FD5CFD82E1D2DC1CFCF92DF92F8
:10325000FF920F931F93CF93DF9300D000D0CDB791
:10326000DEB78C01F62E19821A821B821C82462F31
:1032700061E10E942F164F2D60E1C8010E942F16B8
:103280004F2D64E0C8010E94851683E0C82ED12C22
:10329000AE014F5F5F4F6F2DC8010E94591681111B
:1032A00014C089819A81AB81BC819D7F833091401C
:1032B000A041B10551F064E670E080E090E00E942A
:1032C000830581E0C81AD10819F74F2D64E1C801C0
:1032D0000E942F164F2D60E1C8010E942F1664E155
:1032E00070E080E090E00E9483050F900F900F90B7
:1032F0000F90DF91CF911F910F91FF90DF90CF90B2
:1033000008952F923F924F925F926F927F928F9289
:103310009F92AF92BF92CF92DF92EF92FF920F9364
:103320001F93CF93DF93CDB7DEB7E8970FB6F8942E
:10333000DEBF0FBECDBFDC011A963C9131112BC10F
:10334000922E242E362E3C01FC01E280F380D70120
:10335000ED91FC910190F081E02D60E0C7010995AD
:103360008C01009709F41AC1FC01C080D180C114FE
:10337000D10409F416C15301F4E0AF0EB11CDC0115
:103380001196BC92AE9214969C92FE0131962F013A
:103390009F0148E050E060E0D30112968D919C912E
:1033A0000E94B015982EF8011482811100C18D8100
:1033B00091ED992E893059F58980D701ED91FC91D5
:1033C0000280F381E02D222D41E0632DC701099594
:1033D000F3018287882309F4E7C098859583682FD5
:1033E000828193810E94FE15982ED801CD92DC92A5
:1033F000882339F1D701ED91FC910480F581E02D0E
:10340000D3011A966C91C7010995F3011286892D93
:10341000E8960FB6F894DEBF0FBECDBFDF91CF9117
:103420001F910F91FF90EF90DF90CF90BF90AF90E2
:103430009F908F907F906F905F904F903F902F90D4
:103440000895811088C0950142E0F3016285828170
:1034500093810E94FB0E982E8111D9CF1F921F924B
:103460005F924F921F9288E08F9358E0852E912CA7
:10347000B12CA12C69E2C62EE12C06E020EA40E046
:10348000F3016285828193810E941914982E0F9016
:103490000F900F900F900F900F908111B8CF8B81EC
:1034A000D3011B968C931B97820120E048E050E0EB
:1034B0001A966C911A9712968D919C910E94D6152E
:1034C000982E8111A4CF4B815C8120E0F3016285AD
:1034D000828193810E94D615982E811198CF4981BF
:1034E00050E08E010F5D1F4F20E0D3011A966C91C2
:1034F0001A9712968D919C910E94D615982E811143
:1035000086CF1F921F921F921F921F921F92912C83
:10351000812CC12CEE8009E020E040E0F3016285BF
:10352000828193810E941914982E0F900F900F9012
:103530000F900F900F9081116ACF11E0D3011B966D
:103540008C911B978117D0F0412F68E0C3010E9436
:1035500085161F5FF3CF482D413208F040E250E05E
:103560009201D3011A966C911A9712968D919C91A3
:103570000E94B015982E81114ACF65CF1296ED9119
:10358000FC911397EA58FF4F80818460808381E02B
:1035900050968C933CCF49ED942E39CF36ED932E37
:1035A00036CF27ED922E33CF84ED982E30CFD182B7
:1035B000C0822DCF2F923F924F925F926F927F9257
:1035C0008F929F92AF92BF92CF92DF92EF92FF9233
:1035D0000F931F93CF93DF93CDB7DEB7C258D109B6
:1035E0000FB6F894DEBF0FBECDBFDC0116963C913E
:1035F00019ED311114C0B22E942EA62E3C01FC01FF
:10360000C480D580D601ED91FC910190F081E02D30
:1036100060E0C60109952C010097E1F416ED812FB9
:10362000CE57DF4F0FB6F894DEBF0FBECDBFDF9190
:10363000CF911F910F91FF90EF90DF90CF90BF90AF
:10364000AF909F908F907F906F905F904F903F9042
:103650002F900895FC01008111810115110509F4D5
:10366000A3C11301F5E22F0E311CDC0111963C922F
:103670002E921496BC929E0126593F4F48E050E08E
:1036800060E0F301848195810E94B015F82E8111CC
:103690008DC1AB96FFACAB97D2010D931C93D601B5
:1036A000ED91FC910280F381E02D292D40E06A2DFF
:1036B000C6010995F301868314ED882309F4AFCF81
:1036C000E2969FADE29796A3682F848195810E9430
:1036D000FE15182FD601ED91FC91D20114961C9283
:1036E000882359F00480F581E02DD30116966C9162
:1036F000C6010995F301168292CF0190F081E02D69
:10370000D30116966C91C6010995009709F486CFEE
:10371000FC01B482F110A8C0E4968EAD9FADE49791
:10372000F301E35AFF4F91838083E6968EAD9FAD00
:10373000E697329791838083EC96FFADEC97C05863
:10374000DF4FF883C058D040910141E0D301169675
:103750006C91169714968D919C910E94FB0EF82EF9
:10376000811197C02E01B1E44B0E511CF30132962A
:10377000CF57DF4FF983E883C158D040C20140964C
:10378000EE969FAF8EAFEE97C058DF4FB881C0580E
:10379000D040FB1609F489C080E191E0F2019183E9
:1037A0008083CF57DF4FA881B981C158D040B38300
:1037B000A28314821186128615861786168610A299
:1037C00011A212A210A6EE968EAD9FADEE97968333
:1037D00085839087878394878387D30114960D9080
:1037E000BC91A02DC258DF4FB983A883CE57D040DB
:1037F000F301D6808E010F5F1F4F2F2D49E050E05F
:103800006D2DCD010E94D61581114DC08B809C80FD
:103810005F924F921F930F93C401A1E48A16910403
:1038200010F080E490E09F938F93B12CA12C32E0B4
:10383000C32EEF2C06E020E840E06D2DC258DF4F8C
:1038400088819981CE57D0400E9419140F900F9013
:103850000F900F900F900F90811125C0F301868D6E
:10386000823018F5F39490CF4F2D433108F042E1A8
:1038700050E09E0126593F4FD30116966C91169742
:1038800014968D919C910E94B015F82E882309F40E
:1038900043CFD301ED91FC910480F581E02DC3016C
:1038A00009951F2DBCCEF82EF4CFD3015E964C9116
:1038B0005E9711ED423008F4B2CE910116966C91EC
:1038C000169714968D919C910E94FB0E1F921F9249
:1038D0001F921F921F921F92912C812CB12CA12C10
:1038E000C12CF301E48C09E020E040E06681848192
:1038F00095810E941914182F0F900F900F900F9020
:103900000F900F9081114EC0D12CD3015D968C91F8
:103910005D97D816E0F58D2D90E0FC017296EE0FC4
:10392000FF1FEE0FFF1FE60DF71D2081211102C0C2
:10393000D394EBCFFC01EE0FFF1FEE0FFF1FE60D40
:10394000F71DEA5BFF4F80818770A82EB12C1F9274
:103950001F921F921F921F921F92912C812CC12C9B
:10396000E12C0AE021E240E0F30166818481958147
:103970000E941914F82E0F900F900F900F900F9037
:103980000F908823A9F2F5E08F1791F282CFED9185
:10399000FC910688F789E02DC301099581E0F301C8
:1039A00084A33DCEF82E75CF17ED39CEF2011183E9
:1039B00000836FCF0E94402D85ED8093BC008091E5
:1039C000FF0390910004A0910104B09102040796B6
:1039D000A11DB11D23E0B695A795979587952A95CA
:1039E000D1F72091BC0024FD03C010924804089533
:1039F0004091FF0350910004609101047091020412
:103A0000452B462B472B69F30097A105B10541F0E3
:103A100025E12A95F1F700000197A109B109E1CF4D
:103A20008091FE030C9418072F923F924F925F9261
:103A30006F927F928F929F92AF92BF92CF92DF92BE
:103A4000EF92FF920F931F93CF93DF93CDB7DEB723
:103A50002A970FB6F894DEBF0FBECDBF9C838B8331
:103A60008B01DB0112968C91129782958F7090E0FA
:103A7000EB81FC819383828314966C9170E090E0DB
:103A800080E00E94462A0E94BD2C28E132E741E3F3
:103A90005FE30E940D2C20E030E040E85FE30E94ED
:103AA000A12B0E947F2CAB81BC8115967C936E93D9
:103AB0001497F80166816623D9F070E090E080E009
:103AC0000E94462A0E94BD2C28E132E741E35FE3D1
:103AD0000E940D2C20E030E040E151E40E94A12B37
:103AE0000E947F2CAB81BC8115967C936E931497BA
:103AF000EB81FC810680F781E02DFA87E98722813E
:103B000033813A832983B901072E000C880B990B66
:103B10006D837E838F839887248035806101032C99
:103B2000000CEE08FF084B015C018C189D08AE08E4
:103B3000BF08F801A081B181B370A50194010E9472
:103B4000642B44244A94B3E05B2E612C712CA301B6
:103B500092010E94452B2C0D3D1D4E1D5F1DA98518
:103B6000BA8552963C932E935197F801A1818A2FE2
:103B700086958695B281AB2FA295AA0FAA0FA07C3D
:103B8000A82BB695B695B370A50194010E94642B3D
:103B9000A30192010E94452B2C0D3D1D4E1D5F1D62
:103BA000A985BA8550963C932E931F97F801A5815D
:103BB000A70196016D817E818F819885261B370B29
:103BC000480B590BB0E00E94642B412C512C320160
:103BD0004A94A30192010E94452B8D819E81AF8161
:103BE000B885280F391F4A1F5B1FA985BA855496CF
:103BF0003C932E935397F801A381B0E0A501940163
:103C00000E94642BA30192010E94452BC20ED31E79
:103C1000E41EF51EA985BA855696DC92CE9255977C
:103C2000EB81FC8104811581C8019927DC01AA0F71
:103C3000BB1FAA0FBB1F29853A85A20FB31FA75927
:103C4000BF4F4D915D916D917C91D901A756BF4FAA
:103C5000453651056105710550F1820F931FFC0136
:103C600085A5811124C0EFEFE00FEC3000F5F0E006
:103C7000E45CF14E0C943A2DB61F481ED21FD81F9B
:103C8000CE1FC51FAB1F511EB01FA51FB31FA81FFE
:103C9000E985FA8586819781908F878B928F818FB6
:103CA00006C088EE93E0E985FA85908F878BE985D9
:103CB000FA85038D148D5801F5E0AF1AB10868013B
:103CC00021E0C21AD108772473940230110520F044
:103CD0000730110509F0712C780133E0E31AF1087F
:103CE0008D919C918130910509F4D1C1823091056B
:103CF00009F461C1892B09F0B1C1772059F10E9403
:103D0000B505A985BA855D962D913D914D915C9142
:103D10009097621B730B840B950B18962D913C9119
:103D2000032E000C440B550B0E946F2BE985FA857E
:103D3000E156FF4F80819181280F391F3183208305
:103D4000A985BA8512968D919C918217930714F4D8
:103D500091838083B3E0EB16F10468F50E94B5050A
:103D600089849A84EFE98E0E911CA985BA855D96A7
:103D70002D913D914D915C919097621B730B840B3B
:103D8000950B18962D913C91032E000C440B550B6E
:103D90000E946F2BF40180819181821B930B918390
:103DA0008083A985BA8514962D913C91821793073B
:103DB00014F431832083B3E0AB16B10468F50E949C
:103DC000B505A984BA84EDE9AE0EB11CA985BA8502
:103DD00095962D913D914D915C919897621B730B37
:103DE000840B950B18962D913C91032E000C440BDF
:103DF000550B0E946F2BF50180819181821B930BE3
:103E000091838083A985BA8514962D913C91821760
:103E1000930714F431832083B3E0CB16D10440F52B
:103E20000E94B505E985FA8585A096A0A7A0B0A453
:103E3000681979098A099B0920853185032E000CB0
:103E4000440B550B0E946F2BE985FA85E356FF4F13
:103E500080819181280F391F31832083A985BA85FC
:103E600012968D919C918217930714F4918380830D
:103E7000E985FA85E456FF4F8081882309F4EEC076
:103E8000711030C0B3E0EB16F10460F1E985FA85FA
:103E9000E156FF4F40815181A985BA851C968D91CD
:103EA0009C91841795077CF49A01281B390B37FFE6
:103EB00002C02D5F3F4F3595279535952795421BBD
:103EC000530B51834083208131812817390754F4E3
:103ED000821B930B9595879595958795820F931FD8
:103EE000918380830B7F015011090330110508F481
:103EF000B5C0E985FA85E356FF4F40815181A98518
:103F0000BA851C968D919C91841795077CF49A0133
:103F1000281B390B37FF02C02D5F3F4F3595279582
:103F200035952795421B530B518340832081318166
:103F3000281739070CF092C0821B930B9595879533
:103F400095958795820F931F87C08CED95E0ABCE3A
:103F500080ED97E0A8CE88EE93E0E985FA859ECEC5
:103F60008CED95E0FACF80ED97E0F7CFE985FA8503
:103F700084859585E356FF4F91838083E985FA8593
:103F8000E156FF4F9183808392CEE985FA85E4560E
:103F9000FF4F808191E08927808389CE11961C9202
:103FA0001E9285CE82E090E011969C938E937FCEF8
:103FB00081E090E0F9CF772041F0E985FA85E1567C
:103FC000FF4F29813A813183208333E0E316F104E6
:103FD00030F4E985FA85E156FF4F3182208263E0B3
:103FE000A616B10430F4E985FA85E356FF4F318215
:103FF000208273E0C716D10440F4E985FA85E356C0
:10400000FF4F89819A8191838083E985FA85E456FF
:10401000FF4F8081882311F171100FC093E0E916E2
:10402000F10458F0A985BA851C968D919C911D9735
:10403000FD01E156FF4F918380830B7F01501109F1
:104040000330110558F0E985FA85E356FF4FA9853D
:10405000BA851C968D919C91918380832A960FB688
:10406000F894DEBF0FBECDBFDF91CF911F910F91AE
:10407000FF90EF90DF90CF90BF90AF909F908F9088
:104080007F906F905F904F903F902F900895772092
:10409000A9F0E985FA85E156FF4F80819181A985D4
:1040A000BA851A962D913C91820F931F29813A81EE
:1040B000281739070CF4A4C09183808373E0E716B6
:1040C000F10498F4E985FA85E156FF4F80819181EA
:1040D000A985BA851A962D913C91821B930B821566
:1040E00093050CF492C091838083B3E0AB16B104C6
:1040F00098F4E985FA85E356FF4F80819181A9857F
:10410000BA851A962D913C91821B930B82159305CB
:104110000CF47EC091838083B3E0CB16D104A8F465
:10412000E985FA85E356FF4F80819181A985BA859B
:104130001A962D913C91820F931F29813A8128175D
:1041400039070CF468C091838083E985FA85E456C9
:10415000FF4F8081882309F481CF711028C073E05C
:10416000E716F10420F1E985FA85E156FF4F8081D9
:104170009181A985BA851C964D915C911D97481730
:1041800059073CF41A962D913C91821B930B918315
:10419000808320813181241735074CF4A985BA85A5
:1041A0001A968D919C91820F931F918380830B7F30
:1041B000015011090330110508F450CFE985FA8543
:1041C000E356FF4F80819181A985BA851C964D9158
:1041D0005C911D97481759073CF41A962D913C9114
:1041E000821B930B918380832081318124173507B3
:1041F0000CF034CFA985BA851A968D919C91A2CEE8
:1042000069817A817183608359CF318220826DCF39
:104210003182208281CF69817A817183608395CFD9
:104220001F920F920FB60F9211242F933F938F93EB
:104230009F93AF93BF9380919D0490919E04A09112
:104240009F04B091A00430919C0426E0230F2D37E9
:1042500058F50296A11DB11D20939C0480939D04E6
:1042600090939E04A0939F04B093A0048091A10416
:104270009091A204A091A304B091A4040196A11D61
:10428000B11D8093A1049093A204A093A304B093C2
:10429000A404BF91AF919F918F913F912F910F9067
:1042A0000FBE0F901F90189529E8230F0396A11DAC
:1042B000B11DD2CF1F920F920FB60F9211242F93E0
:1042C0003F934F935F936F937F938F939F93AF939E
:1042D000BF93EF93FF9389EA94E00E944406FF9115
:1042E000EF91BF91AF919F918F917F916F915F916E
:1042F0004F913F912F910F900FBE0F901F901895E7
:104300001F920F920FB60F9211242F938F939F93AA
:10431000EF93FF93E091B904F091BA048081E091AA
:10432000BF04F091C00482FD1BC090818091C20443
:104330008F5F8F732091C304821741F0E091C20414
:10434000F0E0E755FB4F958F8093C204FF91EF910A
:104350009F918F912F910F900FBE0F901F901895E6
:104360008081F4CF1F920F920FB60F9211242F93DA
:104370003F934F935F936F937F938F939F93AF93ED
:10438000BF93EF93FF938091B900887F803609F443
:104390004AC0F0F5883209F4A7C018F5803109F455
:1043A0009BC0B8F4882309F4F9C0883009F494C09C
:1043B000FF91EF91BF91AF919F918F917F916F91FD
:1043C0005F914F913F912F910F900FBE0F901F90D3
:1043D0001895883109F488C0803251F780934704DA
:1043E00014C0803409F49DC040F48033B9F388339D
:1043F000F9F68093470485ECB0C0803509F485C098
:10440000883509F496C0883499F60E94DC1CD0CF18
:10441000883909F48CC038F5883729F050F488368B
:1044200011F0803729F683E0809348041092460407
:1044300057C0883809F47BC0803919F0803809F0FA
:10444000B7CF80914604803208F071C0E0914604F5
:1044500081E08E0F809346048091BB00F0E0EA5D1E
:10446000FB4F80833DC0803B39F0E0F4803A09F493
:1044700079C0883A09F09CCF84E080934804109278
:10448000250410922404E0917D04F0917E040995A6
:104490008091240481110FC081E080932404109244
:1044A000040409C0803C09F4A6CF883C09F4A3CFDA
:1044B000883B09F07DCFE091250481E08E0F809349
:1044C0002504F0E0EC5FFB4F80818093BB0090916E
:1044D00025048091240429C080916D048093BB0041
:1044E00085EC8093BC0064CF90916C0480916B0448
:1044F000981758F5E0916C0481E08E0F80936C045E
:10450000F0E0E55BFB4F8081E9CFE0916C0481E056
:104510008E0F80936C048091BB00F0E0E55BFB4F55
:10452000808390916C0480916B049817C8F285E8A1
:10453000D8CFE0916C0481E08E0F80936C04809161
:10454000BB00F0E0E55BFB4F808380914A04811162
:104550005CCF81E08093490484EA8093BC00109290
:10456000480426CF85EC8093BC00109248048091CB
:104570004604803230F4E0914604F0E0EA5DFB4FFF
:1045800010826091460470E0E0917B04F0917C041D
:1045900086E294E00995109246040ACF10924704EF
:1045A00034CF1F920F920FB60F9211242F933F9387
:1045B0004F935F936F937F938F939F93AF93BF932B
:1045C000EF93FF93E091A704F091A804309749F08E
:1045D000A685B7858585968D91FF14C09C9189230A
:1045E000A1F4FF91EF91BF91AF919F918F917F9136
:1045F0006F915F914F913F912F910F900FBE0F9050
:104600001F9018959C91892361F7A389B4899C9187
:104610008589809589238C93868997890197F1F7FD
:10462000608D718DA685B785558538E020E0CB017A
:104630000197F1F7822F90E095958795282F4C915F
:10464000452309F02068315091F7868D81FD209532
:104650008091A60490E001968F7399273091A5046C
:10466000381799F0A091A604B0E0A758BC4F2C933E
:104670008093A604828D938D0197F1F7A389B48965
:104680008C919589892B8C93ACCF868D8160868F98
:10469000F1CF6F927F928F929F92AF92BF92CF9203
:1046A000DF92EF92FF920F931F93CF93DF93EC0172
:1046B000842F6C8F4D8D70E060E0A82EB12C822E7F
:1046C000912C602E712C641770F56530710559F1CD
:1046D000DB01AA0FBB1FAA0FBB1FFE01EA0FFB1FC6
:1046E000EA5BFF4F9081392F37703A151B0409F0B0
:1046F00087C0392F36953695369537703815190499
:1047000009F07EC09295969596959370961517042C
:1047100009F076C06E0196E4C90ED11CCA0EDB1EEC
:10472000C114D104F9F4453008F05BC0A4E04A9FFD
:10473000A00111246E01B6E4CB0ED11CC40ED51E0F
:104740002770220F220F220F982F9770292B902F5E
:104750009295990F990F907C292BF60120839D8DBE
:104760009F5F9D8FD70113969C911397937010E0D4
:10477000933029F412969C9112E097FD11E0402F9E
:10478000682FE881F981068CF78DE02DCE0109951F
:10479000882339F1112329F18E8D8B3010F5282FC4
:1047A00030E0F901EE0FFF1FE20FF31FEC0FFD1FCA
:1047B000D70112969C9112979F7095A314969C9185
:1047C000149796A394E097A3C10ED11CF6018183A0
:1047D00016968C919BA1981708F48BA38E8D8F5FF2
:1047E0008E8FDF91CF911F910F91FF90EF90DF900F
:1047F000CF90BF90AF909F908F907F906F900895D3
:104800006F5F7F4F60CFEF92FF920F9302970E94EE
:1048100049230F91FF90EF900895CF93DF9310926B
:10482000AC041092AB0488EE93E0A0E0B0E080937B
:10483000AD049093AE04A093AF04B093B00426E10E
:1048400031E03093AA042093A90425EC30E03093A2
:10485000B6042093B50424EC30E03093B8042093E0
:10486000B70420EC30E03093BA042093B90421EC73
:1048700030E03093BC042093BB0422EC30E0309352
:10488000BE042093BD0426EC30E03093C004209396
:10489000BF041092C2041092C3041092C404109278
:1048A000C504109249051092480580934A059093DB
:1048B0004B05A0934C05B0934D0528E231E03093B1
:1048C0004705209346051092F2061092F106809358
:1048D000F3069093F406A093F506B093F60686EBE4
:1048E00091E09093F0068093EF06109206071092E5
:1048F0000507109208071092070710920A071092F6
:10490000090710920C0710920B0760910D076E7F3C
:104910006D7F60930D076695617081E0682788E080
:104920000E94E10461E088E00E942D05EAEEF7E0D4
:10493000E491E093FF06E6EDF7E0E491F0E0EE0F9E
:10494000FF1FEC53F84F859194919093010780934A
:10495000000760E087E00E942D0580910D0781FD32
:1049600004C061E087E00E94E10487E08093FB06D9
:10497000E9EEF7E0E491E093FC06E5EDF7E0E49181
:10498000F0E0EE0FFF1FE654F84F8591949190935D
:10499000FE068093FD0680ED97E09093510680938C
:1049A000500688EE93E0909353068093520686EB70
:1049B00093E0909355068093540680E197E290939C
:1049C00057068093560681E090E0909359068093B5
:1049D00058068CED95E090935B0680935A068CEA1E
:1049E00091E09093D8058093D7051092DF0581E080
:1049F0008093E0051092E10589ED95E09093DE0546
:104A00008093DD051092D90588E08093DA058CE368
:104A10008093DB051092DC05E7EDF5E091E029EDF0
:104A200035E015869687178634872387359686E086
:104A3000E232F807B1F710924D0626E931E03093E3
:104A4000C7052093C60527ED35E03093C9052093AF
:104A5000C8051092D6051092CA0588E08093CB0550
:104A60002CE32093CC059093CD058093CE0584E074
:104A70008093CF051092D0051092D1051092D205E7
:104A80001092D3051092D4051092D505ADE2B6E090
:104A9000FD0190E080E021913191232B09F0D7C0F6
:104AA000880F991FFC01E35DF94F86EC95E0918337
:104AB000808387ED95E090936C0580936B0580E48F
:104AC00091E0909368058093670584E691E0909368
:104AD0006A058093690510928605109287051092E9
:104AE00088051092890510928A0510928B05109204
:104AF000C10510926E051092700510926F0510920C
:104B0000710510927305109272051092740510923F
:104B1000760510927505109277051092790510921E
:104B2000780510927A0510927C0510927B05109200
:104B30007D0510927F0510927E05109280051092DF
:104B4000820510928105EEEAF5E090E080E0EC014C
:104B5000CC0FDD1FCC0FDD1FC355DA4F2881287322
:104B6000288310821182019634968530910579F759
:104B7000C7E6D5E090E080E01DA2582F28E0811123
:104B800020E02EA3BC01660F771F9B01280F391F61
:104B900022573A4FF90140814E7F4D7F40833FE0DD
:104BA000511131E0FB01E80FF91FE257FA4F330FC3
:104BB000330F20812370232B2083019623968B3083
:104BC0009105D1F681E080938505109284051092BD
:104BD000830590E080E02D913D91232BF1F5880F26
:104BE000991FFC01E35DF94F87E695E0918380838F
:104BF0008AE691E0909368058093670580E991E0EB
:104C000090936A058093690588EC91E09093600524
:104C100080935F0510926205109261051092640501
:104C2000109263058AE391E09093530580935205B7
:104C30008FE595E090935505809354058EE496E0BA
:104C40009093660580936505DF91CF910895019655
:104C50008031910509F01FCF2CCF0196803191054D
:104C600009F0B9CFC5CF789484B5826084BD84B58E
:104C7000816084BD85B5826085BD85B5816085BD57
:104C800080916E00816080936E001092810080910F
:104C90008100826080938100809181008160809397
:104CA0008100809180008160809380008091B100BC
:104CB00084608093B1008091B00081608093B000E7
:104CC00080917A00846080937A0080917A0082607B
:104CD00080937A0080917A008E7F80937A00809111
:104CE0007A00806880937A001092C100EBEDF4E0C6
:104CF000E491E0937004ECEDF4E0249120937104CE
:104D0000EDEDF4E0849180937204EEEDF4E0E49133
:104D1000E09373044FED54E050937804409377048C
:104D200042E259E050936F0440936E0490E007967E
:104D300033E0959587953A95E1F780937504289F20
:104D4000E02D1124E093760410927A0410927904F5
:104D500086E495E090938404809383041092820407
:104D6000109281041092800410927F040E94FA062F
:104D700084EC95E090937E0480937D0485EC95E02F
:104D800090937C0480937B0482E08093B8008CE352
:104D9000809300011092010187E998E0909303014C
:104DA000809302018FEB97E09093050180930401BB
:104DB00025EA38E0309307012093060185EC98E05E
:104DC000909309018093080143EC55E050930B0147
:104DD00040930A01109286041092850440E450E04A
:104DE00050938A044093890440E850E0509388042B
:104DF000409387044BEA5AE050938C0440938B0411
:104E000041EC55E050938E0440938D043093900410
:104E100020938F04909392048093910482EC95E008
:104E20009093980480939704C2ECD0E0FE01149113
:104E3000E0910201F091030109958091010188231D
:104E400009F43FC080E00E94A70AE0910601F091BA
:104E50000701812F0995E0910401F0910501099561
:104E60002196F0E0CB3DDF0709F768EE73E080E0C4
:104E700090E00E9483050E94550A809187049091DA
:104E80008804C0E8C81B8038910508F0C0E010E82D
:104E90001C1BE12EF12CE0918B04F0918C04A701F6
:104EA00070E060E090E080E0099598E0B92E2BED8D
:104EB000C22E20E0D22ECE0DDF2DD11D7601012F86
:104EC00015C0E0910601F091070180E00995BDCF82
:104ED000F701949180919904E0918F04F0919004EE
:104EE000892709950150FFEFEF1AFF0A0111F0CF52
:104EF000E0918D04F0918E040995BA94CC0EDD1EDC
:104F0000B110DCCFE0910401F0910501099568EE44
:104F100073E080E090E00E9483050E94550A21E042
:104F200030E04CEE51E064E182E10E9460098FEFD5
:104F30008093990421E030E04AEF51E062E380E0A1
:104F40000E9460091092990468EE73E080E090E09E
:104F50000E948305E091B904F091BA0482E0808355
:104F6000E091B504F091B6041082E091B704F0919D
:104F7000B80488E080831092C104E091BD04F091F0
:104F8000BE0486E08083E091BB04F091BC04808184
:104F900080618083E091BB04F091BC0480818860D3
:104FA0008083E091BB04F091BC04808180688083A1
:104FB000E091BB04F091BC0480818F7D8083C0E8C8
:104FC000D7E0FE016491662339F089EA94E00E94FB
:104FD00066062196892BA9F766EC72E089EA94E0CF
:104FE0000E946E118DE092E00E947D11229A0E9433
:104FF000600FCFB7F89480919A04811127C0E8ED33
:10500000F7E08491ECEEF7E09491E82FF0E0EE0FFA
:10501000FF1FE456F84FA591B491EC91E92321F4D8
:1050200061E08AE00E94E10461E08AE00E942D05CF
:105030008CB580618CBD8CB580648CBD61E08DE0E9
:105040000E942D0561E08BE00E942D0580919A045D
:105050008F5F80939A04CFBF229A0E94600F21989D
:1050600068E188E80E94CC0F60E288E70E94CC0FDC
:1050700060E088E70E94CC0FD0E0C0E088E60E94A4
:105080009210219680FF1EC061EC88ED0E94CC0F2B
:1050900060E680ED0E94CC0F64E088EE0E94CC0FA9
:1050A00088EE0E94921082FFFBCF88EF0E94921040
:1050B000807C803409F4A5C18038B1F081111DC015
:1050C00061ED18C0CF3FDC07C9F682E393E00E9490
:1050D0007D110E94550A30E020E045E453E060E095
:1050E00080E00E94600911C088ED0E94921081FD4D
:1050F0008DC169EC88ED0E94CC0F60E288EC0E94C3
:10510000CC0F61E080E80E94CC0F68EC70E080E09A
:1051100090E00E94830542E555E060E087E695E077
:105120000E94DF0D811174C10E94550A30E020E019
:1051300043E152E060E080E00E94600968EC70E0CA
:1051400080E090E00E948305E8E6F7E0E491E9E67C
:10515000F7E0E491EBE6F7E0E491EAE6F7E0E491CA
:1051600080915A0690915B0690935E0680935D064F
:1051700090936406809363069093600680935F0625
:1051800020915406309155063093620620936106B3
:105190003093660620936506309368062093670671
:1051A0009093EE068093ED069093EC068093EB06C9
:1051B00090E080E00E943D2B8093E906813009F465
:1051C0003CC108F435C1823009F43EC181E090E071
:1051D0000E943D2B91E0811101C090E09093EA067E
:1051E000E091B904F091BA0482E08083E091B504C3
:1051F000F091B6041082E091B704F091B80487E60C
:1052000080831092C104E091BD04F091BE0486E059
:105210008083E091BB04F091BC0480818061808335
:10522000E091BB04F091BC04808188608083E091B0
:10523000BB04F091BC04808180688083E091BB0452
:10524000F091BC0480818F7D808360E076E980E00E
:1052500090E00E942A0464E372E089EA94E00E94EC
:10526000901169E372E08FEE96E00E9490110E9427
:10527000C40B811104C08EE392E00E947D1160E5B1
:1052800072E089EA94E00E94901167E572E08FEE87
:1052900096E00E9490110E94C40B811104C08BE61D
:1052A00092E00E947D1162E872E089EA94E00E9437
:1052B000901169E872E08FEE96E00E9490110E94D2
:1052C000C40B811104C08AE992E00E947D1161EB58
:1052D00072E089EA94E00E94901168EB72E08FEE30
:1052E00096E00E9490110E94C40B811104C089ECC9
:1052F00092E00E947D1160EE72E089EA94E00E94E3
:10530000901167EE72E08FEE96E00E9490110E947D
:10531000C40B811104C083EF92E00E947D1164EF01
:1053200071E080E090E00E94830569E372E08FEE17
:1053300096E00E9490116AE073E08FEE96E00E9482
:10534000901164E173E08FEE96E00E9490116EE19F
:1053500073E08FEE96E00E94901168E273E08FEEAA
:1053600096E00E94901160E071EE80E090E00E9473
:105370002A0411E0C0E0D0E089EA94E00E9424060B
:10538000892BB9F089EA94E00E94020684349105E1
:1053900019F08436910569F480919B04811157C0FE
:1053A0008FED91E00E947D1180919B048127809375
:1053B0009B048FEE96E00E948D0B892B49F08FEEB7
:1053C00096E00E94A30B682F89EA94E00E9466068B
:1053D00089EA94E00E942406892B49F089EA94E046
:1053E0000E940206682F8FEE96E00E94310B2097F4
:1053F00019F20E943006882309F4BECF0E940000F3
:10540000BBCF88ED0E94921081FD73CE6BEC72CE03
:105410000E94550A30E020E041E252E060E080E086
:105420000E94600930E020E04AE252E06AE083CE68
:105430001092E8061092E706C9CE81E090E09093C2
:10544000E8068093E706C2CE82E090E0F8CF81EDD7
:1054500091E0A8CF86EB91E09093F0068093EF0661
:105460008091A7049091A8048F5E964071F4E0911A
:105470000207F091030790818091040780958923AA
:1054800080831092A8041092A7040895E89409C09C
:1054900097FB3EF490958095709561957F4F8F4F67
:1054A0009F4F9923A9F0F92F96E9BB279395F6957D
:1054B000879577956795B795F111F8CFFAF4BB0FFB
:1054C00011F460FF1BC06F5F7F4F8F4F9F4F16C05F
:1054D000882311F096E911C0772321F09EE8872FE9
:1054E000762F05C0662371F096E8862F70E060E0A5
:1054F0002AF09A95660F771F881FDAF7880F96951E
:10550000879597F908950E94F52A38F00E94FC2AA1
:1055100020F0952311F00C94EC2A0C94F22A11241B
:105520000C94372B0E94142B70F3959FC1F3950FA9
:1055300050E0551F629FF001729FBB27F00DB11D17
:10554000639FAA27F00DB11DAA1F649F6627B00DA7
:10555000A11D661F829F2227B00DA11D621F739F90
:10556000B00DA11D621F839FA00D611D221F749F9E
:105570003327A00D611D231F849F600D211D822FE5
:10558000762F6A2F11249F5750409AF0F1F088230C
:105590004AF0EE0FFF1FBB1F661F771F881F915039
:1055A0005040A9F79E3F510580F00C94EC2A0C94D2
:1055B000372B5F3FE4F3983ED4F386957795679554
:1055C000B795F795E7959F5FC1F7FE2B880F911D63
:1055D0009695879597F9089597F99F6780E870E009
:1055E00060E008959FEF80EC089500240A94161659
:1055F000170618060906089500240A9412161306C1
:10560000140605060895092E0394000C11F488234E
:1056100052F0BB0F40F4BF2B11F460FF04C06F5F6A
:105620007F4F8F4F9F4F089557FD9058440F551F40
:1056300059F05F3F71F04795880F97FB991F61F014
:105640009F3F79F087950895121613061406551F8B
:10565000F2CF4695F1DF08C0161617061806991FF7
:10566000F1CF86957105610508940895E894BB27EC
:1056700066277727CB0197F90895F999FECF92BD58
:1056800081BDF89A992780B50895052E97FB1EF4E1
:1056900000940E945C2B57FD07D00E946F2B07FCE3
:1056A00003D04EF40C945C2B509540953095219589
:1056B0003F4F4F4F5F4F089590958095709561953E
:1056C0007F4F8F4F9F4F08950E94912BA59F900D64
:1056D000B49F900DA49F800D911D11240895A1E207
:1056E0001A2EAA1BBB1BFD010DC0AA1FBB1FEE1F5C
:1056F000FF1FA217B307E407F50720F0A21BB30BA7
:10570000E40BF50B661F771F881F991F1A9469F722
:1057100060957095809590959B01AC01BD01CF017E
:105720000895A29FB001B39FC001A39F700D811D7A
:105730001124911DB29F700D811D1124911D08959A
:105740005058BB27AA270E94B82B0C94032B0E9409
:10575000F52A38F00E94FC2A20F039F49F3F19F412
:1057600026F40C94F22A0EF4E095E7FB0C94EC2A54
:10577000E92F0E94142B58F3BA17620773078407A6
:10578000950720F079F4A6F50C94362B0EF4E095ED
:105790000B2EBA2FA02D0B01B90190010C01CA01EB
:1057A000A0011124FF27591B99F0593F50F4503E96
:1057B00068F11A16F040A22F232F342F4427585F88
:1057C000F3CF469537952795A795F0405395C9F7A0
:1057D0007EF41F16BA0B620B730B840BBAF0915058
:1057E000A1F0FF0FBB1F661F771F881FC2F70EC0F7
:1057F000BA0F621F731F841F48F4879577956795CA
:10580000B795F7959E3F08F0B0CF9395880F08F0B5
:105810009927EE0F9795879508950E94212C0C9457
:10582000032B0E94FC2A58F00E94F52A40F029F42C
:105830005F3F29F00C94EC2A51110C94372B0C94F7
:10584000F22A0E94142B68F39923B1F3552391F3A4
:10585000951B550BBB27AA2762177307840738F0DF
:105860009F5F5F4F220F331F441FAA1FA9F335D03C
:105870000E2E3AF0E0E832D091505040E695001CF0
:10588000CAF72BD0FE2F29D0660F771F881FBB1FAA
:10589000261737074807AB07B0E809F0BB0B802D88
:1058A000BF01FF2793585F4F3AF09E3F510578F0B4
:1058B0000C94EC2A0C94372B5F3FE4F3983ED4F31E
:1058C000869577956795B795F7959F5FC9F7880F88
:1058D000911D9695879597F90895E1E0660F771FDA
:1058E000881FBB1F621773078407BA0720F0621B6B
:1058F000730B840BBA0BEE1F88F7E09508950E9496
:10590000862C6894B1110C94372B08950E941C2B9F
:1059100088F09F5798F0B92F9927B751B0F0E1F070
:10592000660F771F881F991F1AF0BA95C9F714C020
:10593000B13091F00E94362BB1E008950C94362BD3
:10594000672F782F8827B85F39F0B93FCCF3869559
:1059500077956795B395D9F73EF4909580957095B6
:1059600061957F4F8F4F9F4F089516F00C94052D32
:105970000C94F22A68940C94EC2A0E941C2BA8F335
:105980009923C1F3AEF3DF93CF931F930F93FF924D
:10599000C92FDD2788232AF02197660F771F881FDC
:1059A000DAF720E030E040E85FEB9FE3883920F051
:1059B000803E38F021968F770E94A12BE8E6F0E038
:1059C00004C00E94A12BE5E9F0E00E94132D8B0199
:1059D000BE01EC01FB2E6F5771097595771F880B7F
:1059E000990B0E94482A28E132E741E35FE30E94D5
:1059F000922AAF2D9801AE01FF900F911F91CF9188
:105A0000DF910E94B82B0C94032B9F3F31F09150F3
:105A100020F4879577956795B795880F911D969592
:105A2000879597F90895DF93CF931F930F93FF9274
:105A3000EF92DF927B018C01689406C0DA2EEF01B1
:105A40000E94922AFE01E894A591259135914591F5
:105A50005591A6F3EF010E94B82BFE019701A80112
:105A6000DA9469F7DF90EF90FF900F911F91CF913B
:105A7000DF910895EE0FFF1F0590F491E02D09943A
:105A800081E090E0F8940C944C2DDC0101C06D9302
:105A900041505040E0F7089513E0CCEFD3E004C04C
:105AA000FE010E943A2D2196CD3FD107C9F7F89407
:025AB000FFCF26
:105AB2003C00000000000000900A0000000000000E
:105AC200670C000000006606C605F305B30624064F
:105AD200020616060000000090076307170F390739
