:100000000C94F7030C941F040C941F040C941F040D
:100010000C941F040C941F040C941F040C941F04D4
:100020000C941F040C941F040C941F040C941F04C4
:100030000C941F040C941F040C941F040C941F04B4
:100040000C9424200C941F040C9494200C946E2087
:100050000C941F040C941F040C941F040C941F0494
:100060000C94C6200C941F0408000000BE92244982
:10007000123EABAAAA2ABECDCCCC4C3E00000080DA
:10008000BEABAAAAAA3E00000000BF000000803F4D
:100090000000000000084178D3BB4387D1133D190D
:1000A0000E3CC3BD4282AD2B3E68EC8276BED98F3A
:1000B000E1A93E4C80EFFFBE01C4FF7F3F0000007E
:1000C0000000AE2000C840817FA1A6A83FD300D584
:1000D00080D922DA12DB208D14A4AF0000000000CA
:1000E000103878FCCC8404040C040C0CDCFCFC7C84
:1000F0001C080040E0E0F0B0B03030303060E0C0CC
:10010000800000008080808080808080808080806F
:100110008080800080C0C060606060E0C08080003F
:1001200000000000000000000000000000000000CF
:100130000000000808080844443C30202020A0A00B
:10014000E0C8C898F0C0C040F0E0C000187888004F
:10015000E838004868F80040F0E040000000000087
:1001600000000000000000F0F0E0E0C1C3830200E6
:100170000000000006040D0D091B1B1B1B1B0F0FAD
:100180000F000E1F3F3121616161C1C1E1FBFFFF23
:100190000701F8FEFF030000000000000103FFFE5E
:1001A0000003FEFEFC0C0C0C0C0C0C1818B8F0E054
:1001B00000C0E0F0F0B89898999991B1F1E1E08031
:1001C000000031F1E0E0E0606361606040C0838383
:1001D0000000030203010000010000000000000015
:1001E000000000000000E0FFFFFFFFFFFFFFF880BE
:1001F000000000000CFCFCFCFCC000000000000043
:10020000000000E0E0C0C0C0C00000008081818329
:100210008280838FBF387070607030381C1E0F036F
:10022000000E070707070606060606060203030177
:100230000001030707040D0D0D0D0D0D0D05010047
:10024000000000030F1F0E00000000000010180F38
:100250000F0F06000000000000000000000000007A
:100260000000000000F0FFFFFFFF1F1FFFFFFFFF68
:100270008000000000030FFFFFFFFFF00000000000
:10028000000000FFFFFFFFFFFF0000000007FFFF6F
:10029000FFFFFFFFFF0F0F0F0F0F0F0F0F0E0E1EB1
:1002A0003E3CFCFCF8F8F0F0E0C00000000000006C
:1002B000000080C0E0E0F0F0F0F0F8F8F8F8F8F8AE
:1002C000F8F8F8F8F8F0F0F0F0F0F0F0F0F0E0E026
:1002D000C0C080000000000000000000000000001E
:1002E00000000080F0FFFFFF7F03000003FFFFFF1F
:1002F000FFF0000000000007FFFFFFFFFE0000000E
:1003000000E0FEFFFFFF3F0F000000000000FFFFC6
:10031000FFFFFFFFFFF0F0F0F0F0F0F0F0F8F8F87A
:10032000F8FCFFFFFFBF1F1F0F0F0000000000F0D1
:10033000FEFFFFFFFFFFFF3F0F070301010000006B
:1003400000000000000000010101010181818181A4
:10035000818101000000000000000000000000009A
:1003600000C0E0FFFFFFFFFFF8F8F8F8F8FDFFFF1F
:10037000FFFFFE000000000001FFFFFFFFFEE0F8AE
:10038000FFFFFF3F070100000000000080FFFFFFAC
:10039000FFFFFF070303030303030303030307FF35
:1003A000FFFFFFFFFFFFFF00000000000000003F15
:1003B0007FFFFFFFFFFFFFF8F0E0E0E0E0E0E0E0BC
:1003C000E0E0F0F0F0FCFFFFFFFFFFFF7F7F1F0F7B
:1003D00007000000000000000000000000000060B6
:1003E0007C7F7F7F0F010101010101010101017F7C
:1003F0007F7F7F7C0000000000031F7F7F7F7F7F67
:100400007F07010000000000000000203F3F3F3F49
:100410003F3F1F0000000000000000000000001F20
:100420009F9F9F9F9F9F9F9F9C98D0C0C0C0C0C010
:10043000C0C0C1C1C1E3E3E3E3E7E767676767778C
:1004400073737373333333393938383818181C1CC5
:100450001C1C1C0C0C0E0E0E0E0E060000080C0CC4
:100460000C0C0C0C0C0C0C0C0C0C0C0C0C0C0C0CCC
:100470000C0C0C0E0E0E0E0E0E0E0E0E0E0E0E0EA2
:100480000E06060606060606060606060606060604
:10049000060707070707070703030303030303030D
:1004A000030303030303030101010101010101012E
:1004B000010100000000000000000000000000003A
:1004C000000000000000000000000000000000002C
:1004D0000000000000000000000000000102030016
:1004E00001030200020301000302010003010200F4
:1004F00002010301000203010003020200030103E1
:1005000000020103000102020001030201000303D3
:1005100001000203020001020300010103000201C5
:1005200002000303010200020103000102030001B3
:1005300003020002030100030201004F70656E41D7
:10054000565263204A6F79737469635265616465BA
:10055000722056312E310000000008000201000018
:100560000304070000000000000000000000002558
:100570000028002B0000000000240027002A0004AF
:10058000040404040404040202020202020303033A
:100590000303030102040810204080010204081034
:1005A00020010204081020000608200000000000BE
:1005B000000000002F000000000700070000147F6B
:1005C000147F1400242A7F2A120023130864620077
:1005D000364955225000000503000000001C22414E
:1005E00000000041221C000014083E081400080806
:1005F0003E0808000000A060000008080808080085
:100600000060600000002010080402003E514945CF
:100610003E0000427F4000004261514946002141B6
:10062000454B31001814127F10002745454539000D
:100630003C4A4949300001710905030036494949DE
:100640003600064949291E000036360000000056D3
:100650003600000008142241000014141414140081
:100660000041221408000201510906003249595183
:100670003E007C1211127C007F49494936003E4100
:10068000414122007F4141221C007F4949494100EC
:100690007F09090901003E4149497A007F0808089D
:1006A0007F0000417F4100002040413F01007F0862
:1006B000142241007F40404040007F020C027F0036
:1006C0007F0408107F003E4141413E007F09090937
:1006D00006003E4151215E007F0919294600464926
:1006E0004949310001017F0101003F4040403F0086
:1006F0001F2040201F003F4038403F006314081473
:100700006300070870080700615149454300007FF6
:1007100041410000552A552A55000041417F000003
:100720000402010204004040404040000001020475
:1007300000002054545478007F4844443800384422
:1007400044442000384444487F003854545418002E
:10075000087E0901020018A4A4A47C007F080404F8
:10076000780000447D4000004080847D00007F10C0
:100770002844000000417F4000007C0418047800F9
:100780007C0804047800384444443800FC242424C1
:10079000180018242418FC007C080404080048549D
:1007A00054542000043F444020003C4040207C0042
:1007B0001C2040201C003C4030403C0044281028B5
:1007C00044001CA0A0A07C004464544C44000008D9
:1007D0007700000000007F000000007708000000A4
:1007E000100810080014141414141400A922112461
:1007F0001FBECFEFD8E0DEBFCDBF12E0A0E0B1E07A
:10080000EEEFFEE502C005900D92A03AB107D9F7D0
:1008100026E0A0EAB2E001C01D92A335B207E1F7DD
:1008200013E0C7EFD3E004C02197FE010E946B2FB5
:10083000C63FD107C9F70E946A240C947D2F0C94FF
:100840000000E7EAF5E0E491A1E0B4E0EC93E8EA27
:10085000F5E0249111962C931197E9EAF5E0849143
:1008600012968C931297EAEAF5E0E4911396EC93D2
:1008700013974BEA55E018965C934E9317974CEDFF
:1008800058E0509300044093FF0390E0079633E054
:10089000959587953A95E1F715968C931597289F2E
:1008A000E02D11241696EC9316971A961C921E9220
:1008B000199708958CBD9DBD089590E0FC01ED56FB
:1008C000FA4F249181589A4FFC018491882399F022
:1008D00090E0880F991FFC01EB58FA4FA591B49155
:1008E000FC01E559FA4F859194918FB7F894EC91FA
:1008F000E22BEC938FBF0895282F30E048E090E082
:10090000582F5170952786954150D1F7A901592B41
:10091000CA012091CD03222311F080959095EFB765
:10092000F8946091CD03662321F1599A20E32A952A
:10093000F1F729E030E041E050E0F0E3DC01A423EE
:10094000B523AB2BC1F0599A7F2F7A95F1F7440F5D
:10095000551F2150310991F7662379F05998EFBF5F
:1009600080E3982F9A95F1F78A95F1F781E090E06E
:1009700008955998DBCF5998E7CF599AF0CF90E076
:10098000FC01E95AFA4F2491FC01ED56FA4F3491DB
:10099000FC01E158FA4FE491EE23C9F0222339F02B
:1009A000233001F1A8F4213019F1223029F1F0E0CF
:1009B000EE0FFF1FE559FA4FA591B4918FB7F89448
:1009C000EC91611126C030953E233C938FBF089572
:1009D0002730A9F02830C9F0243049F780918000F1
:1009E0008F7D03C0809180008F7780938000DFCF60
:1009F00084B58F7784BDDBCF84B58F7DFBCF8091AD
:100A0000B0008F778093B000D2CF8091B0008F7DFF
:100A1000F9CF3E2BDACF3FB7F8948091C80390917D
:100A2000C903A091CA03B091CB0326B5A89B05C00A
:100A30002F3F19F00196A11DB11D3FBFBA2FA92F5D
:100A4000982F8827BC01CD01620F711D811D911D5A
:100A500043E0660F771F881F991F4A95D1F70895C5
:100A60008F929F92AF92BF92CF92DF92EF92FF92BE
:100A70004B015C010E940B056B017C010E940B0580
:100A80006C197D098E099F09683E734081059105A7
:100A9000A8F321E0821A9108A108B10888EEC80ED7
:100AA00083E0D81EE11CF11C81149104A104B1045F
:100AB00029F7FF90EF90DF90CF90BF90AF909F907D
:100AC0008F9008952FB7F8946091C4037091C50377
:100AD0008091C6039091C7032FBF0895FC01228126
:100AE0003381FB0131832083FC0184819581FA01EC
:100AF0009183808308950895089508950895089531
:100B0000AF92BF92CF92DF92EF92FF920F931F931B
:100B1000CF93DF936C017B018B01040F151FEB0159
:100B20005E01AE18BF08C017D10759F06991D60110
:100B3000ED91FC910190F081E02DC6010995892B82
:100B400079F7C501DF91CF911F910F91FF90EF9041
:100B5000DF90CF90BF90AF900895FC01538D448DEE
:100B6000252F30E0842F90E0821B930B541710F058
:100B7000CF96089501970895FC01918D828D981765
:100B800061F0A28DAE0FBF2FB11D5D968C91928D3D
:100B90009F5F9F73928F90E008958FEF9FEF08956E
:100BA000FC01918D828D981731F0828DE80FF11D37
:100BB000858D90E008958FEF9FEF0895FC01918D52
:100BC000228D892F90E0805C9F4F821B91098F734B
:100BD000992708958CE094E00E94DE0521E0892B9E
:100BE00009F420E0822F089580E090E0892B29F01D
:100BF0000E94EA0581110C9400000895FC01A48D67
:100C0000A80FB92FB11DA35ABF4F2C91848D90E02E
:100C100001968F739927848FA689B7892C93A08911
:100C2000B1898C91837080648C93938D848D98139B
:100C300006C00288F389E02D80818F7D808308952E
:100C4000EF92FF920F931F93CF93DF93EC0181E01C
:100C5000888F9B8D8C8D98131AC0E889F9898081C3
:100C600085FF15C09FB7F894EE89FF896083E889F6
:100C7000F98980818370806480839FBF81E090E0E8
:100C8000DF91CF911F910F91FF90EF900895F62E75
:100C90000B8D10E00F5F1F4F0F731127E02E8C8D0F
:100CA0008E110CC00FB607FCFACFE889F989808154
:100CB00085FFF5CFCE010E94FE05F1CFEB8DEC0F45
:100CC000FD2FF11DE35AFF4FF0829FB7F8940B8F71
:100CD000EA89FB8980818062CFCFCF93DF93EC01DB
:100CE000888D8823B9F0AA89BB89E889F9898C9114
:100CF00085FD03C0808186FD0DC00FB607FCF7CFD0
:100D00008C9185FFF2CF808185FFEDCFCE010E94CF
:100D1000FE05E9CFDF91CF91089520912E03260F94
:100D20003327331F21323105ECF420915203FC01AB
:100D300090E080E0243069F082E00895A0912E03D5
:100D40002191AC01425F5C4FA40FB52FB11D2C93D4
:100D50000196861798F380912E03680F60932E03F7
:100D600080E0089581E008951092520381E080931D
:100D700054031092530361E082E10E94BF0461E0DA
:100D800083E10E94BF04E9EBF0E080818E7F8083E5
:100D900080818D7F808380E28093B80085E480939A
:100DA000BC000895CF93DF9391E090930D038823C7
:100DB000B9F0C091B800D091BA008091BC008A7B94
:100DC0008093BC0060E082E10E94BF0460E083E1A8
:100DD0000E94BF040E94B406D093BA00C093B8002A
:100DE000DF91CF9108950895E0917F0380917E0374
:100DF000E81730F4F0E0E851FD4F808190E008956D
:100E00008FEF9FEF089590917F0380917E032FEFE6
:100E10003FEF981748F4E92FF0E0E851FD4F2081AB
:100E200030E09F5F90937F03C901089580917E0316
:100E300090917F03891B990B0895CF92DF92EF92D7
:100E4000FF920F931F93CF93DF937C01CB018A0115
:100E50002091E702222389F0EB016B01C40ED51E1D
:100E6000CC15DD0569F06991D701ED91FC910190F8
:100E7000F081E02DC7010995F3CF642F0E948D0604
:100E8000C801DF91CF911F910F91FF90EF90DF90FC
:100E9000CF900895CF93DF931F92CDB7DEB76983CC
:100EA0002091E7022223F9F020917C03203258F0B0
:100EB00021E030E0FC013383228390E080E00F905A
:100EC000DF91CF91089580917D03E82FF0E0E95301
:100ED000FD4F998190838F5F80937D0380937C0386
:100EE00081E090E0ECCF61E0CE0101960E948D069A
:100EF000F7CFCF92DF92EF92FF920F931F93CF9392
:100F0000DF93D0917C03D13208F094C0C091C50228
:100F10000E940B056B017C0180915203811165C019
:100F200082E08093520381E0809354038FEF80939B
:100F3000510310927603D0937503E7ECF2E0A5E538
:100F4000B3E080E0D81385C01092770380917703D7
:100F5000CC0FC82BC093770380915303813009F0E5
:100F60007CC0109253030E940B056B017C018091A1
:100F700077038093BB008091090390910A03A091AD
:100F80000B03B0910C03892B8A2B8B2B99F00E94B9
:100F90000B050091090310910A0320910B03309176
:100FA0000C036C197D098E099F090617170728077E
:100FB0003907E0F18091BC0083FDD9CF85EC8093A7
:100FC000BC000E940B056B017C01809152038230B2
:100FD00009F445C0809151038F3F61F18091510325
:100FE000803241F18091510325C080910903909195
:100FF0000A03A0910B03B0910C03892B8A2B8B2B36
:1010000009F48ACF0E940B050091090310910A038D
:1010100020910B0330910C036C197D098E099F09F7
:10102000061717072807390708F076CF80910803BD
:101030000E94D20610927D0310927C031092E70268
:10104000DF91CF911F910F91FF90EF90DF90CF90A4
:10105000089591919D938F5F75CF85EEB0CF80916C
:10106000090390910A03A0910B03B0910C03892B03
:101070008A2B8B2B09F4A9CF0E940B050091090341
:1010800010910A0320910B0330910C036C197D0918
:101090008E099F09061717072807390708F095CF0B
:1010A000C5CF8091000191E09093E7028093C50243
:1010B00010927D0310927C031092C6020895CF9384
:1010C000C82F8091C6028E3138F00E9479070E94A5
:1010D000510880E40E945F08809180039091810311
:1010E000DC01ED91FC910190F081E02D6C2F0995D0
:1010F0008091C6028F5F8093C602CF9108950F93AF
:101100001F93CF93DF93EC018C01060F171FC017BD
:10111000D10721F089910E945F08F9CFDF91CF912B
:101120001F910F91089540910704FC01249131967D
:10113000E491322F2E2FFC013296E491E11103C08D
:1011400090E080E0089503966217730730F0D901AC
:10115000AE0FB11D6A177B0728F0E49F800D911D2B
:101160001124E3CF621B730B469F9001479F300D04
:101170001124820F931F089560910804709109044F
:10118000282F880F330B80910404281B310980918C
:101190000704829FA001839F500D112480910104B8
:1011A000813039F090E080E0840F951F860F971F03
:1011B000089583E090E0F8CF0F931F93CF93DF93D0
:1011C0006115710561F1EB018C0180910204888346
:1011D0008091030489831A82809108049091090404
:1011E0000038110550F420910104211106C0892B0B
:1011F00031F0802F0E94BC0810C0009749F4809104
:101200000A0490910B04009779F480910404F2CFC2
:10121000B8010E949308009791F39C838B83DF9120
:10122000CF911F910F910895B8010E9493080097E4
:10123000A1F7EBCF3F924F925F926F927F928F9286
:101240009F92AF92BF92CF92DF92EF92FF920F9355
:101250001F93CF93DF9300D000D01F92CDB7DEB79E
:10126000682E6A015901062F069506950695E82E07
:10127000F12C40918403509185034E195F09602F32
:1012800070E0E0918803F0918903C7010995962CDD
:10129000712C512C10E020910204809184039091D4
:1012A0008503821B91099816190609F030F4F6019E
:1012B000E10FF11D8081811132C00F5F802E912CD2
:1012C000809186039091870343E0969587954A9590
:1012D000E1F7E0910401F09105018816990608F004
:1012E00085C0739480910604871109C0D601A10FAF
:1012F000B11D8C91882309F479C0512E712C099568
:1013000040918403509185034E195F09E091880351
:10131000F0918903B401C7010995962C152D809190
:10132000C3029091C402F601E10FF11D20811F5FFD
:10133000009769F5822F90E0203CA8F71092C40234
:101340001092C302E091FF03F0910004BE016F5FB1
:101350007F4F099589804B80480C2A8138E0739E25
:10136000C001112428171906B1F1ACF18C819D81BF
:10137000789C800D911D11249D838C83312C8110CC
:1013800010C0812C8B81881640F1940C84CF36E0FC
:10139000880F991F3A95E1F7807C97702F73822B05
:1013A000CDCFEC81FD81A114B10481F484919091A1
:1013B0009603E0918C03F0918D03892709958C8128
:1013C0009D8101969D838C838A94D9CFE491832D4E
:1013D0008E2B3E2EECCF4B82D4CFE0918C03F0913C
:1013E0008D038091960309958394CCCF0995812F25
:1013F0000F900F900F900F900F90DF91CF911F9152
:101400000F91FF90EF90DF90CF90BF90AF909F90A3
:101410008F907F906F905F904F903F9008950F93C3
:101420001F93CF93DF93E0918803F091890350E0FD
:1014300040E070E060E090E080E00995C0918603B4
:10144000D091870383E0D695C7958A95E1F72097D9
:1014500049F4E0910401F0910501DF91CF911F91D2
:101460000F910994009184031091850301151105D2
:1014700039F4E0918A03F0918B0309952197E7CF26
:10148000E0918C03F0918D038091960309950150B2
:101490001109ECCF0F931F93CF93DF93EC018C01D5
:1014A000060F171FC017D10729F4DF91CF911F91A5
:1014B0000F910895E0910601F09107018991099536
:1014C000F1CF682F85E00C94BF040F931F93CF9347
:1014D000DF93182F062FEA01E0910201F09103013A
:1014E000099580910101882309F442C080E00E949F
:1014F000610AE0910601F091070181E20995E0910E
:101500000601F0910701812F0995E0910601F09104
:1015100007018C2F8150810FCD2B19F4809184030A
:1015200081500995E0910601F091070182E2099549
:10153000E0910601F0910701802F099580918603C3
:101540009091870323E0969587952A95E1F7E0919E
:101550000601F091070181500995809101018823CE
:1015600071F081E0DF91CF911F910F910C94610A8E
:10157000E0910601F091070180E00995BACFE09172
:101580000401F09105010995E0910201F091030138
:101590000995E0910601F091070180E4DF91CF9178
:1015A0001F910F910994CF93DF93EC018A819B8166
:1015B000DC01ED91FC910480F581E02D6A850995AF
:1015C0008A85813439F4EA81FB81EA58FF4F8081B2
:1015D000846080831A861B861C861D861E861F8655
:1015E000188A80E0DF91CF91089581E0693009F099
:1015F00080E00895FC01828508950F931F93CF9397
:10160000DF93FC018B01EA0180819181892B31F10B
:101610009281992349F128813981232BF9F0D8014E
:101620002D913C91D9014C918381682F691B770BD7
:1016300080819181860F971FDC014C9382818150BC
:10164000828388819981019799838883D8018D91BC
:101650009C91119701968D939C93DACF80E0DF9156
:10166000CF911F910F9108958381828381E0F7CFFD
:101670003F924F925F926F927F928F929F92AF9222
:10168000BF92CF92DF92EF92FF920F931F93CF936F
:10169000DF9300D000D0CDB7DEB76C017A836983C9
:1016A0005C834B8384E0482E360182E1680E711C16
:1016B00093E0392E5601A7E0AA0EB11C12E0552482
:1016C00053944601B0E18B0E911C29813A8121157A
:1016D000310509F4CBC0F60180A18230F1F0A8F504
:1016E000882309F457C0813091F7AE014F5F5F4FF7
:1016F000BE016D5F7F4FC5010E94FD0A882309F47A
:10170000B5C0D6011596ED91FC9116978081919602
:101710008C939197818192968C93F6017682658263
:1017200030A2D60192968C919297843011F49396C0
:101730001C92F60181A182508483258136813087F5
:1017400027838287818740A205C0833051F384308C
:1017500009F0BDCFD60192968C919297843019F101
:10176000853009F44CC0823009F073C0AE014F5F80
:101770005F4FBE016D5F7F4FC5010E94FD0A882348
:1017800009F474C0F601858984A3F60196828582E6
:1017900010A29BCF148385819681908787831287BF
:1017A000118750A2A2CFAE014F5F5F4FBE016D5FA8
:1017B0007F4FC5010E94FD0A882309F457C0D60156
:1017C00055968C915597833001F798968C91989700
:1017D0008111DBCF93965C92939752968C9152979E
:1017E00096968C93969753968C91539797968C9345
:1017F000979757968C91579795968C93C6CFAE0135
:101800004F5F5F4FBE016D5F7F4FC5010E94FD0AB4
:10181000882361F1F60183A1882309F4B6CF828180
:101820009381009709F4B1CFDC01ED91FC91019017
:10183000F081E02D7401D60195960C9195979796BD
:101840002C91979796964C91969794966C910995B2
:101850009CCFF60185858823F9F0813041F1D601CE
:101860001E968D919C91892B09F48FCF0F900F902C
:101870000F900F90DF91CF911F910F91FF90EF90FC
:10188000DF90CF90BF90AF909F908F907F906F90A0
:101890005F904F903F90089591968C9191978250D0
:1018A000990B1F969C938E931E971D965C9229818F
:1018B0003A818B819C81782F692FF6014685578567
:1018C0004115510581F001962115310539F041503E
:1018D00051095787468721503109EDCF7B836C83AF
:1018E0001A821982BCCF9C838B833A832983158605
:1018F000B6CFCF93DF93EC018C819D81DC01ED911C
:10190000FC910480F581E02D6E81099581E08E8F38
:101910001E821F8E18A219A21AA21CA280E0DF91BB
:10192000CF910895FC01DC01A65ABF4F8C9188230A
:10193000A1F08781681741F0828521E030E06817C7
:1019400029F090E080E0089530E020E0C901880FA0
:10195000991F820F931FE80FF91F808591850895C5
:10196000FC018781811104C080859185892B59F004
:101970008285811106C08385948521E030E0892B22
:1019800021F080E0089530E020E0C901880F991F20
:10199000820F931FE80FF91F67835187408781E00B
:1019A00008950895DF92EF92FF920F931F93CF93C4
:1019B000DF93EC0185E0E62EF12CFE01869FE00D21
:1019C000F11D1124908596FF24C0192F177001E096
:1019D00085E0D82E8FEF800F8F3008F001E0602F68
:1019E00070E0062FD69EF001D79EF00D1124EC0F6B
:1019F000FD1F80858695869586958770181701F15D
:101A00006F5F7F4F603168F38D81811302C0115089
:101A10001D8385E08E9DF0018F9DF00D1124EC0F4C
:101A2000FD1F108681E0818712862296D783C683A8
:101A3000DF91CF911F910F91FF90EF90DF9008956C
:101A4000CE010E94D20CC6CFFC0120812EBD9B018D
:101A50002150310941F051810DB407FEFDCF4EB543
:101A60005EBD4193F5CF61507109860F971F0DB48C
:101A700007FEFDCF2EB5FC0120830895FC0121E077
:101A8000613499F49C01255B3F4F61E0AC014E5FEE
:101A90005F4F1586668717865487438735962E17BE
:101AA0003F07B9F7FC01158208953585631729F0C2
:101AB0002F5F35962031C9F70895622F0C94D20C10
:101AC000CF93DF93FC0167FD12C0283080F44423DC
:101AD00019F08581873059F0EF01A1E0B0E08D85E4
:101AE000882349F111962596A031B105C1F780E010
:101AF00018C085E08A9FE0018B9FD00D1124CE0F86
:101B0000DF1F442389F081E4888785818F5F858387
:101B100025E02A9FC0012B9F900D1124E80FF91F8B
:101B20008085DF91CF91089581E08887F1CF27707C
:101B3000687B622B0FC06623E1F26770660F660F49
:101B4000660F4423A1F3606485818F5F858387706E
:101B5000687F682B25E02A9FC0012B9F900D1124E0
:101B6000E80FF91F6087862FDCCFFC0121E06111AF
:101B700002C0069608953585631739F02F5F3596B4
:101B80002031C9F790E080E00895069635E0239F64
:101B9000800D911D112408950F931F93CF93DF9310
:101BA0002115310599F0E901042F162F0E94B50D7A
:101BB000FC0186ED309729F01283D183C083038323
:101BC00080E0DF91CF911F910F91089588EDF9CFBB
:101BD00090E080E00895CF92DF92EF92FF920F9312
:101BE0001F93CF93DF937801EC012496680127E0DF
:101BF000C20ED11CDE01F80131912D9132130CC0BF
:101C0000EC15FD05C9F7DF91CF911F910F91FF9062
:101C1000EF90DF90CF900895DC0112968D919C910A
:101C2000009789F3B801DC01ED91FC910190F081FE
:101C3000E02D0995F70181917F018993EC15FD0550
:101C4000C9F7E1CF7F928F929F92AF92BF92CF92CE
:101C5000DF92EF92FF920F931F93CF93DF93EC01EC
:101C60000B8D1C8D580125E0A21AB108680181E096
:101C7000C81AD108772473940230110520F0073078
:101C8000110509F0712C7801E3E0EE1AF108DE018C
:101C9000A756BF4F8D919C918130910509F45AC18F
:101CA0008230910509F40CC1892B09F0FBC0772023
:101CB00011F10E9462052D8D3E8D4F8D58A1621B42
:101CC000730B840B950B28853985032E000C440B70
:101CD000550B0E94A02DFE01E156FF4F808191819E
:101CE000280F391F318320838A819B8182179307B4
:101CF00014F491838083F3E0EF16F10420F50E9441
:101D000062054E012FE9820E911C2D8D3E8D4F8D67
:101D100058A1621B730B840B950B28853985032E04
:101D2000000C440B550B0E94A02DF4018081918181
:101D3000821B930B918380832C813D8182179307B3
:101D400014F431832083F3E0AF16B10420F50E9430
:101D500062055E012DE9A20EB11C2DA13EA14FA18D
:101D600058A5621B730B840B950B28853985032EB0
:101D7000000C440B550B0E94A02DF5018081918130
:101D8000821B930B918380832C813D818217930763
:101D900014F431832083F3E0CF16D10410F50E94B0
:101DA00062058DA09EA0AFA0B8A4681979098A0920
:101DB0009B0928853985032E000C440B550B0E9486
:101DC000A02DFE01E356FF4F80819181280F391F1E
:101DD000318320838A819B818217930714F4918336
:101DE0008083FE01E456FF4F8081882309F45AC0A6
:101DF00071102AC023E0E216F10430F133964081DD
:101E000051818C859D85841795077CF49A01281B48
:101E1000390B37FF02C02D5F3F4F3595279535951C
:101E20002795421B530B5183408320813181281712
:101E3000390754F4821B930B959587959595879553
:101E4000820F931F918380830B7F01501109033010
:101E5000110540F1FE01E356FF4F408151818C8511
:101E60009D85841795077CF49A01281B390B37FF51
:101E700002C02D5F3F4F3595279535952795421B1D
:101E8000530B51834083208131812817390754F443
:101E9000821B930B9595879595958795820F931F38
:101EA00091838083DF91CF911F910F91FF90EF90ED
:101EB000DF90CF90BF90AF909F908F907F900895CC
:101EC000772039F08A819B81DE01A156BF4F8D9327
:101ED0009C9383E0E816F10438F48C819D81DE0147
:101EE000A156BF4F8D939C93E3E0AE16B10438F436
:101EF0008C819D81DE01A356BF4F8D939C93F3E0AF
:101F0000CF16D10438F48A819B81DE01A356BF4FDE
:101F10008D939C93DE01A456BF4F8C91882311F2C0
:101F2000711009C023E0E216F10428F08C859D852C
:101F300013968D939C930B7F01501109033011056B
:101F400008F4B0CFDE01A356BF4F8C859D858D93DD
:101F50009C93A8CF7720A1F0DE01A156BF4F8D91B1
:101F60009C9111972A853B85820F931F11969C9314
:101F70008E932A813B812817390714F42D933C93C3
:101F800083E0E816F104A0F4DE01A156BF4F8D9165
:101F90009C9111972A853B85821B930B11969C93EC
:101FA0008E932C813D818217930714F42D933C93DB
:101FB000E3E0AE16B104A0F4DE01A356BF4F8D914D
:101FC0009C9111972A853B85821B930B11969C93BC
:101FD0008E932C813D818217930714F42D933C93AB
:101FE000F3E0CF16D104A0F4DE01A356BF4F8D91CC
:101FF0009C9111972A853B85820F931F11969C9384
:102000008E932A813B812817390714F42D933C9332
:10201000DE01A456BF4F8C91882309F443CF711081
:1020200020C023E0E216F104E0F013968D919C911C
:1020300011974C855D85481759073CF42A853B85E7
:10204000821B930B11969C938E932D913C9111972B
:102050002417350734F48A859B85820F931F8D934F
:102060009C930B7F015011090330110508F41ACF1E
:10207000DE01A356BF4F8D919C9111974C855D85D4
:10208000481759073CF42A853B85821B930B119610
:102090009C938E932D913C911197241735070CF04A
:1020A00001CF8A859B85820F931F51CF0F931F937A
:1020B000DC01862F90E0FC01EE0FFF1FEE0FFF1FEB
:1020C000EA0FFB1FE759FF4F008111812281338105
:1020D000053611052105310570F18A0F9B1FFC01A2
:1020E00085A5811128C061506C3028F5E62FF0E0FD
:1020F000E458FF4E0C946B2FAD108810C710CE1013
:10210000C210BB10A4109510A7109E10AA10A11009
:1021100016968D919C91179758969C938E935797EE
:102120005A969C938E93599706C088EE93E05896E2
:102130009C938E9357971F910F9108958CED95E086
:10214000F6CF80ED97E0F3CF88EE93E0E9CF8CED0A
:1021500095E0E6CF80ED97E0E3CF1C962D913C9182
:102160001D97FD01E356FF4F31832083A156BF4FDA
:102170002D933C93E0CFA456BF4F9C9181E09827CC
:102180009C93D9CFA756BF4F1D921C92D4CFA75670
:10219000BF4F82E090E08D939C93CDCFA756BF4F69
:1021A00081E090E0F8CF0E940F0A30E020E04BEB96
:1021B00051E060E080E00E941A0930E020E044EC49
:1021C00051E06AE080E00C941A092A9808952A9A4E
:1021D0000895EF92FF920F93FC01368D323018F084
:1021E000348D361302C00E94E5210F91FF90EF90CD
:1021F0000895EF92FF920F9302970E94E9100F91BA
:10220000FF90EF9008950895EF92FF920F931F9320
:10221000422F202F8701DC01ED91FC9100A0F1A15C
:10222000E02D09951F910F91FF90EF90089581E0A7
:102230000895FC0184A10895FC018681089580E041
:10224000089581E0089580E0089580E0089508955C
:1022500080E0089508950F931F93CF93DF93D82FB5
:10226000C62F8A0180E591E00E945A040E94E51081
:10227000D260DEBDF8018C2F882339F00DB407FE43
:10228000FDCF91919EBD8150F7CFC00FD12FD11DB1
:102290000DB407FEFDCF0E94E710CE01DF91CF9174
:1022A0001F910F9108950F931F93CF93DF9300D049
:1022B000CDB7DEB7182F062F80E591E00E945A04B3
:1022C0000E94E510126019830A8362E070E0CE017B
:1022D00001960E94240D0E94E7100F900F90DF914D
:1022E000CF911F910F9108959F92AF92BF92CF927D
:1022F000DF92EF92FF920F931F93CF93DF936C01C6
:10230000C42FD22F99249394E62EF12CEE0CFF1CAF
:10231000E80EF91E86E5E80EF11CA42EB12CABE206
:10232000AA0EB11CAA0CBB1CAC0CBD1CF701808111
:102330009181DC01ED91FC910280F381E02D202F51
:102340004D2F6C2F0995182F803EC9F5C1112BC058
:1023500061E088EE0E94531166E670E080E090E054
:102360000E943005F70180819181DC01ED91FC91A3
:102370000190F081E02D202F4D2F6C2F0995182F03
:102380008D30D1F58FEF890D8330F8F0C11137C052
:1023900061E088EE0E94531166E670E080E090E014
:1023A0000E9430051CC0F50180819181DC01ED9116
:1023B000FC910284F385E02D6D2F0995D3CF8D30EC
:1023C00061F48FEF890D833050F464E670E080E0B3
:1023D00090E00E9430059394A9CF882319F2812FB1
:1023E000DF91CF911F910F91FF90EF90DF90CF90F1
:1023F000BF90AF909F900895882389F3C7CF8C2F0B
:1024000090E08B96880F991F8C0D9D1DFC0180819B
:102410009181DC01ED91FC910284F385E02D6D2F1B
:102420000995DDCF8EBD00000DB407FEFDCF8EB542
:102430000895CF93C82F80E591E00E945A040E942E
:10244000E5108C2F0E94121280E00E941212C82FF9
:102450000E94E7108C2FCF9108958F929F92AF9298
:10246000BF92CF92DF92EF92FF920F931F93CF9381
:10247000DF93882E962E5A010E9462056B017C0123
:1024800028E8C20E23E1D21EE11CF11C10E000E09E
:10249000D0E0C0E098280E9462056C197D098E0981
:1024A0009F0997FF1EC0692D80EF0E9453110E9463
:1024B00062056C197D098E099F0997FF09C088EC98
:1024C0000E94191287FFF3CF60E888EC0E94531135
:1024D00088EF0E941912C82FCF70C43081F0CE301F
:1024E000B9F08C2FDF91CF911F910F91FF90EF905A
:1024F000DF90CF90BF90AF909F908F9008950F5F27
:102500001F4FA114B10439F20A151B0521F6E9CFBA
:10251000DF5FD33009F0BFCFE4CFAF92BF92CF924D
:10252000DF92EF92FF920F931F93CF93DF93EC0113
:10253000B62EA42E69010E94B50D7C0186EDE11432
:10254000F10409F447C0D701ED91FC91119787ED93
:10255000309709F43FC013969C9180E0981731F0B2
:102560002081A21629F033968F5FF8CFF0E0E0E0EB
:10257000D601ED93FC938BED309761F12281269586
:102580002695203108F02FE081E090E0A0E0B0E057
:1025900004C0880F991FAA1FBB1F2A95D2F7019765
:1025A000F801918380836B2D80EE0E94531188ED9A
:1025B0000E941912D70114969C91682F697F992364
:1025C00029F0CA58DF4F68816260682B88ED0E944D
:1025D000531180E0DF91CF911F910F91FF90EF9009
:1025E000DF90CF90BF90AF90089588EF0E941912AE
:1025F000807C8034B1F018F4882301F1089580388C
:1026000019F0803CC9F0089588ED0E94191281FDEF
:102610000DC069EC88ED0E94531182E08093F203B3
:10262000089588ED0E94191281FDF3CF6BEC88EDBF
:102630000E94531183E0F2CF81E0F0CF61ED88ED8D
:102640000E9453111092F2030895CF92DF92EF92FD
:10265000FF92CF93DF93C82FD62FC090B605D090AE
:10266000B7050D2C000CEE08FF089A01550F440B1E
:10267000550B2C193D094E095F09A6ECB0E00E94EC
:10268000952D2091B4053091B505032E000C440B17
:10269000550B2C193D094E095F090E94762D6901E1
:1026A0007A0183E6C81AD108E108F108F7FC08C0EE
:1026B00030E020E04EEC51E06D2F8C2F0E941A0983
:1026C000D701C6010996A11DB11D4397A105B1050A
:1026D00040F430E020E040ED51E06D2F8C2F0E945F
:1026E0001A094AE06BEF73E0C6010E94422C30E009
:1026F00020E0AC016D2F8C2FDF91CF91FF90EF90F8
:10270000DF90CF900C941A0942E050E062ED71E046
:102710008CE094E00C948005CF93DF93FC01019052
:102720000020E9F73197AF01481B590BBC018CE041
:1027300094E00E948005EC010E9484138C0F9D1F81
:10274000DF91CF9108952F923F924F925F926F92B7
:102750007F928F929F92AF92BF92CF92DF92EF9231
:10276000FF920F931F93CF93DF937B013A0169018F
:10277000F901A080B180FB013180F9011182108242
:10278000FB01828160E181FD60E288EE0E945311CD
:102790002A2CA301F701608180E00E942D12582E9F
:1027A000F6E08F1310C088EF0E941912F701928192
:1027B0009D7F84FF9260928360E191FD60E288EEEC
:1027C0000E945311E6CF811150C088EC0E9419126B
:1027D00082FF5FC080E30E941912482E8A151B04F5
:1027E00011F008F0422CF60180819181E501C81BAF
:1027F000D90BD7FF02C0D0E0C0E0842C912C8C16FE
:102800009D060CF4E40180E591E00E945A040E94C8
:10281000E51088E00E941212AE0170E060E0C8018D
:102820000E94762F209721F0BE01C8010E94240D3E
:102830000C0F1D1F0E94E71064E088EC0E945311EA
:10284000F60180819181880E991E918280824314C5
:1028500020F08A149B0408F49CCF88EF0E94191280
:10286000F701928184FB91F99283852DDF91CF91BD
:102870001F910F91FF90EF90DF90CF90BF90AF909E
:102880009F908F907F906F905F904F903F902F9090
:10289000089580EF582EE9CFAF92BF92CF92DF928A
:1028A000EF92FF920F931F93CF93DF9300D000D04E
:1028B000CDB7DEB77C01690158011C821B821A82E8
:1028C00019828E010F5F1F4F9E012D5F3F4F0E94A7
:1028D0008D12811109C049815A816B817C818501EA
:1028E0009601C7010E94A3130F900F900F900F90B5
:1028F000DF91CF911F910F91FF90EF90DF90CF90DC
:10290000BF90AF9008954F925F926F927F928F9297
:102910009F92AF92BF92CF92DF92EF92FF920F936E
:102920001F93CF93DF93CDB7DEB7C254D1090FB653
:10293000F894DEBF0FBECDBFDC0194962C9121111F
:102940001AC0612C862DCE5BDF4F0FB6F894DEBF28
:102950000FBECDBFDF91CF911F910F91FF90EF90F0
:10296000DF90CF90BF90AF909F908F907F906F90AF
:102970005F904F9008957C010E946205F701878C5B
:1029800090A0A1A0B2A0681979098A099B0997FDB6
:10299000D8CF0E946205D70193962C91620F711DCA
:1029A000811D911DF701678F70A381A392A3712CE4
:1029B0006E01F1E4CF0ED11C30E4832E912C57012F
:1029C0008AE5A80EB11CD7015D968C91781608F0A7
:1029D000B8CFE72DF0E07296EE0FFF1FEE0FFF1F4E
:1029E000EE0DFF1D8081E82FF0E0CF01880F991FC9
:1029F000DC01AE0FBF1FAE0DBF1D96962C9130E0CF
:102A0000D6012D933C93DE0111962D011D92AC153C
:102A1000BD05E1F7E80FF91FEE0DFF1D82019601DC
:102A200045A1F7016681848195810E944C14682E2E
:102A3000811188CFD6018D919C9111978134910598
:102A400010F08D929C92D701ED91FC9100A0F1A124
:102A5000E02D8201D6012C91D5014C91B701C7011F
:102A60000995D701ED91FC910288F389E02DD501FC
:102A70008C9181116980662DC7010995009769F0D5
:102A8000DC01ED91FC910190F081E02D8201D601F5
:102A90002C91D5014C91B7010995739494CF3F9235
:102AA0004F925F926F927F928F929F92AF92BF925E
:102AB000CF92DF92EF92FF920F931F93CF93DF930A
:102AC000CDB7DEB7C254D1090FB6F894DEBF0FBE42
:102AD000CDBFDC0194962C91222309F4A1C06C0196
:102AE0000E946205F601878C90A0A1A0B2A068198F
:102AF00079098A099B0997FD93C00E946205D60156
:102B000093962C91620F711D811D911DF601678FA7
:102B100070A381A392A3312C5E01F1E4AF0EB11C2E
:102B200046018AE5880E911CD6015D968C91381677
:102B300008F076C0E32DF0E07296EE0FFF1FEE0F67
:102B4000FF1FEC0DFD1D6080662009F467C0712C2D
:102B50007301EE0CFF1CF701E60DF71DEC0DFD1DDA
:102B600086A190E0F50191838083FE0131962F01CB
:102B70001192EA15FB05E1F7F701E60DF71DEC0DE3
:102B8000FD1D8201950145A1D60116966C911697FF
:102B900014968D919C910E944C14182F81113EC067
:102BA000F501808191810097C9F18134910520F070
:102BB00080E490E091838083E60CF71CD601AE0D93
:102BC000BF1DF60180819181FC01608C718C7201C6
:102BD000F5010081F401208195964C91B601C60162
:102BE000F3010995D601ED91FC910288F389E02D5E
:102BF000D4018C9181111981612FC601099500972B
:102C000069F0DC01ED91FC910190F081E02D8201F1
:102C1000D5012C91D4014C91B6010995339484CF00
:102C200080E0CE5BDF4F0FB6F894DEBF0FBECDBFA6
:102C3000DF91CF911F910F91FF90EF90DF90CF9098
:102C4000BF90AF909F908F907F906F905F904F90CC
:102C50003F9008952F923F924F925F926F927F9292
:102C60008F929F92AF92BF92CF92DF92EF92FF929C
:102C70000F931F93CF93DF93CDB7DEB766970FB651
:102C8000F894DEBF0FBECDBF3C01442E322E202E65
:102C9000EA8ACE8AEBA4FCA4CDA4DEA41E861D86FF
:102CA000188A1F868E01015F1F4F9E01235F3F4FD1
:102CB0000E948D12582E81113BC139822A822A89A5
:102CC0002B833E893C83BE82AD8298868F82AE0183
:102CD0004F5F5F4F68E080E20E942B114F8558895B
:102CE000642D80E10E942D12811140C1C114D104D4
:102CF00009F453C00D851E85D80112968C91129748
:102D000037FE51C0826012968C9354012224239482
:102D1000A114B10409F42FC1FC86EB864F855889B4
:102D20006D857E8586019E01255F3F4FC3010E9410
:102D3000A313582EB6E08B130EC088EF0E94191211
:102D4000ED85FE8585FB882780F98225928180FBB1
:102D500091F99283DDCF8111EBC0EFA5F8A93097EF
:102D6000A1F06B857C850190F081E02D0190F081D0
:102D7000E02DC4018A199B099A8789879E01275FE4
:102D80003F4FA6018FA598A909958B859C85A81A08
:102D9000B90A8E159F0508F0BBCF4F85588937FEBD
:102DA000E1C080EAE0C0816012968C931297119680
:102DB0008C908FEF880D803408F0DAC02F8438882B
:102DC0000E9462059B01AC0128573C4E4F4F5F4F5C
:102DD0002A8B3B8B4C8B5D8BD80112968C9160E8D3
:102DE00080FF60E488EE0E945311512C912CE11475
:102DF000F10409F48CC03401E814F90408F4370133
:102E00006E8AA601662D80E10E942B11662D88E353
:102E10000E945311F8016081606280EF0E9453119B
:102E200088EC0E94191287FFFBCF60E888EC0E94B3
:102E3000531188EF0E9419128F70582E198AB12CE5
:102E4000A12C552021F10E9462052A893B894C89D9
:102E50005D89621B730B840B950B97FF18C036E0DE
:102E6000531609F440C04EE05416B1F054E0551228
:102E700009C08FEFA81AB80A2114310491F02A145E
:102E80003B0479F460E088E30E94531142C0E618E5
:102E9000F708C60CD71CABCF99899F5F998B9330ED
:102EA00089F360E088E30E945311D6016C9180E1C0
:102EB0000E9453116E8988E30E945311F8016081CA
:102EC000606280EF0E94531188EC0E94191287FF04
:102ED000FBCF60E888EC0E94531188EF0E94191222
:102EE0008F70582EAECF88EF0E94191285FB88276D
:102EF00080F9A1E08A27F801928180FB90F9928302
:102F000060E890FF60E488EE0E945311CACF511030
:102F1000B9CF88EF0E941912D80112969C9112978E
:102F200085FB90F912969C934F8558895520D1F0D6
:102F3000852D66960FB6F894DEBF0FBECDBFDF912C
:102F4000CF911F910F91FF90EF90DF90CF90BF90A6
:102F5000AF909F908F907F906F905F904F903F9039
:102F60002F90089580E8642D0E942D12582EE0CFF6
:102F70008AED582EDDCF4F855889552009F411CFA1
:102F8000D7CF8F929F92AF92BF92CF92EF920F9333
:102F9000CF931F921F921F921F921F921F92912CEC
:102FA000812CB12CA12CC12CE62E05E020E040E0C4
:102FB00060E00E942A16C82F6CE271E080E090E089
:102FC0000E9430050F900F900F900F900F900F9070
:102FD0008C2FCF910F91EF90CF90BF90AF909F909B
:102FE0008F9008958F929F92AF92BF92CF92EF925F
:102FF0000F931F921F923F932F935F934F934A011A
:10300000B12CA12CCC24C394E12C06E020E840E0B4
:103010000E942A160F900F900F900F900F900F9014
:103020000F91EF90CF90BF90AF909F908F900895A9
:103030002F923F924F925F926F927F928F929F92C8
:10304000AF92BF92CF92DF92EF92FF920F931F93B6
:10305000CF93DF93CDB7DEB767970FB6F894DEBF97
:103060000FBECDBF1B8A38E03C8B3CE33D8B8A3FD3
:103070003FEF9307D9F406ED802F67960FB6F894CB
:10308000DEBF0FBECDBFDF91CF911F910F91FF909B
:10309000EF90DF90CF90BF90AF909F908F907F90F8
:1030A0006F905F904F903F902F900895122F342E85
:1030B000462E7C01DC011696CD90DC901797CE0150
:1030C000439617969C938E9316971A962C939E016F
:1030D0002F5F3F4F42E150E060E0C7010E94F217CE
:1030E000582EF701D782C682082F8111C5CF898457
:1030F0009A846B847C84FD81FE8B3E813F8B6701CB
:1031000086E5C80ED11C5601212CD5018D919C91CC
:103110000097F1F52394B2E0AB0EB11CE0E12E1262
:10312000F4CFF60180819181009709F070C053942B
:10313000F2E0CF0ED11C30E15312F3CFF7018681BC
:10314000978107ED892B09F497CF1287232D40E053
:10315000642DC7010E94600DD82E04ED882309F468
:103160008BCF682FC7010E94B50D009709F483CF5C
:10317000DC0114961C936D2DC7010E94C117082F06
:10318000882309F479CF6D2DC7010E943E0D74CFBD
:10319000DC01ED91FC910084F185E02D0995811110
:1031A000B9CFF50180819181DC01ED91FC9100881E
:1031B000F189E02D6F890995882309F4ABCFF501DA
:1031C00080819181DC01ED91FC910484F585E02DF5
:1031D000A301B4010995882361F0012F232D442D0B
:1031E000622DC7010E947411082F813D09F492CF0E
:1031F00043CFF50180819181DC01ED91FC91068442
:10320000F785E02D6E8909958111E7CF83CFDC0129
:10321000ED91FC910084F185E02D0995811187CF16
:10322000F60180819181DC01ED91FC910088F189AA
:10323000E02D6F89099581110DC0012F232D442D9B
:10324000652DC7010E947411082F877F813D09F009
:1032500013CF6DCFF60180819181DC01ED91FC915E
:103260000484F585E02DA301B401099581115FCF98
:10327000F60180819181DC01ED91FC910684F78556
:10328000E02D6E8909958823C1F251CF8F929F92CC
:10329000AF92BF92CF92EF920F931F931F921F9204
:1032A0001F930F935F934F934A01B12CA12C32E0EF
:1032B000C32EE22E06E020E840E00E942A160F907E
:1032C0000F900F900F900F900F901F910F91EF9014
:1032D000CF90BF90AF909F908F9008958F929F92C4
:1032E000AF92BF92CF92EF920F93A42EB12C1F9268
:1032F0001F921F921F921F921F92912C812CC12C02
:10330000E62E01E023E240E0FC01628582819381A8
:103310000E942A160F900F900F900F900F900F9011
:103320000F91EF90CF90BF90AF909F908F900895A6
:103330008F929F92AF92BF92CF92EF920F93A62E51
:10334000B12C1F921F925F934F931F9224E02F93F3
:1033500024E0822E912CC12CE12C00E023EA40E0F5
:10336000FC016285828193810E942A160F900F9042
:103370000F900F900F900F900F91EF90CF90BF9004
:10338000AF909F908F9008958F929F92AF92BF922F
:10339000CF92EF920F93A42EB12C1F921F921F92E7
:1033A0001F921F921F92912C812CC12CE62E03E0BC
:1033B00023E240E0FC016285828193810E942A160B
:1033C0000F900F900F900F900F900F900F91EF9024
:1033D000CF90BF90AF909F908F900895CF92DF9243
:1033E000EF92FF921F93CF93DF93EC01162F7A0198
:1033F000FA0180819181A281B3818130F3E09F073E
:10340000F1E0AF07B105C9F170F48115E1E09E0765
:10341000AE07B10509F450C081309140A140B1051B
:1034200061F180E041C0833021E0920720E1A207F2
:10343000B10529F083309340A041B10591F7412FA8
:1034400064E1CE010E946E19412F60E1CE010E941D
:103450006E1964E170E080E090E00E9430056A85BA
:10346000F7012181269521706770412F8A819B8108
:103470000E9418181092C202D4CF8091C20281110A
:10348000D0CF412F61E1CE010E946E19412F60E142
:10349000CE010E946E19412F64E0CE010E94C41932
:1034A00081E08093C20281EBDF91CF911F91FF9069
:1034B000EF90DF90CF900895462F61E1CE010E94FA
:1034C0006E19412F60E1CE010E946E191092C20266
:1034D0008A8587701770880F880F880F182B09F45A
:1034E000A0CFEA80FB806701F6E5CF0ED11CD0E0CB
:1034F000C0E0D6018D919D916D010097C1F0DC0176
:10350000ED91FC910084F185E02D099518130FC011
:10351000AB96CC0FDD1FCE0DDF1D88819981DC01BC
:10352000ED91FC910480F581E02D09957ACF2196EB
:10353000C031D105F1F675CFCF92DF92EF92FF92B5
:103540000F931F93CF93DF93CDB7DEB72E970FB6B0
:10355000F894DEBF0FBECDBFFC012089211111C040
:1035600010E0812F2E960FB6F894DEBF0FBECDBFB0
:10357000DF91CF911F910F91FF90EF90DF90CF904F
:1035800008957C010E946205F70104851585268552
:103590003785601B710B820B930B97FDE1CF81E0A8
:1035A00090E09E878D878E010F5F1F4F9E01235FE6
:1035B0003F4F41E06285828193810E944C14182F15
:1035C000811121C082E0D82E01E089818D2139F15D
:1035D00019861A861B861C86AE01475F5F4F602FD7
:1035E000C7010E949819C82E811119C0AE01475F0A
:1035F0005F4F602FC7010E94EE19813B19F08823AD
:1036000071F0C82E1C2D0E9462056C597F4F8F4FA0
:103610009F4FF7016487758786879787A2CFDD0C58
:103620000F5F083091F601E0F7018385801758F3AA
:1036300019861A861B861C86AE01475F5F4F602F76
:10364000C7010E949819D82E811117C089859A85C3
:10365000877091708130914081F48B859C85816069
:103660009C878B87AE01475F5F4F602FC7010E9429
:10367000EE19813B29F0811102C00F5FD5CFD82E02
:103680001D2DC1CFCF92DF92FF920F931F93CF9347
:10369000DF9300D000D0CDB7DEB78C01F62E1982B3
:1036A0001A821B821C82462F61E10E946E194F2DE7
:1036B00060E1C8010E946E194F2D64E0C8010E94AC
:1036C000C41983E0C82ED12CAE014F5F5F4F6F2D20
:1036D000C8010E949819811114C089819A81AB8117
:1036E000BC819D7F83309140A041B10551F064E6DB
:1036F00070E080E090E00E94300581E0C81AD108B7
:1037000019F74F2D64E1C8010E946E194F2D60E139
:10371000C8010E946E1964E170E080E090E00E94B0
:1037200030050F900F900F900F90DF91CF911F9168
:103730000F91FF90DF90CF9008952F923F924F927C
:103740005F926F927F928F929F92AF92BF92CF9231
:10375000DF92EF92FF920F931F93CF93DF93CDB73A
:10376000DEB7E8970FB6F894DEBF0FBECDBFDC0121
:103770001A963C9131112BC1922E242E362E3C01EB
:10378000FC01E280F380D701ED91FC910190F08182
:10379000E02D60E0C70109958C01009709F41AC17A
:1037A000FC01C080D180C114D10409F416C15301B9
:1037B000F4E0AF0EB11CDC011196BC92AE921496EF
:1037C0009C92FE0131962F019F0148E050E060E09D
:1037D000D30112968D919C910E94F217982EF801B8
:1037E0001482811100C18D8191ED992E893059F596
:1037F0008980D701ED91FC910280F381E02D222D8B
:1038000041E0632DC7010995F3018287882309F4FC
:10381000E7C098859583682F828193810E94C117A4
:10382000982ED801CD92DC92882339F1D701ED9101
:10383000FC910480F581E02DD3011A966C91C701AB
:103840000995F3011286892DE8960FB6F894DEBF2C
:103850000FBECDBFDF91CF911F910F91FF90EF90E1
:10386000DF90CF90BF90AF909F908F907F906F90A0
:103870005F904F903F902F900895811088C09501E0
:1038800042E0F3016285828193810E94CC0D982EE3
:103890008111D9CF1F921F925F924F921F9288E0A1
:1038A0008F9358E0852E912CB12CA12C69E2C62E65
:1038B000E12C06E020EA40E0F301628582819381F9
:1038C0000E942A16982E0F900F900F900F900F9035
:1038D0000F908111B8CF8B81D3011B968C931B97CE
:1038E000820120E048E050E01A966C911A971296F7
:1038F0008D919C910E944619982E8111A4CF4B81E5
:103900005C8120E0F3016285828193810E944619E7
:10391000982E811198CF498150E08E010F5D1F4F85
:1039200020E0D3011A966C911A9712968D919C9172
:103930000E944619982E811186CF1F921F921F92C6
:103940001F921F921F92912C812CC12CEE8009E0B6
:1039500020E040E0F3016285828193810E942A1673
:10396000982E0F900F900F900F900F900F90811145
:103970006ACF11E0D3011B968C911B978117D0F071
:10398000412F68E0C3010E94C4191F5FF3CF482D87
:10399000413208F040E250E09201D3011A966C9156
:1039A0001A9712968D919C910E94F217982E811170
:1039B0004ACF65CF1296ED91FC911397EA58FF4FCD
:1039C00080818460808381E050968C933CCF49ED68
:1039D000942E39CF36ED932E36CF27ED922E33CF5E
:1039E00084ED982E30CFD182C0822DCF2F923F927E
:1039F0004F925F926F927F928F929F92AF92BF92FF
:103A0000CF92DF92EF92FF920F931F93CF93DF93AA
:103A1000CDB7DEB7C258D1090FB6F894DEBF0FBEDE
:103A2000CDBFDC0116963C9119ED311114C0B22EB8
:103A3000942EA62E3C01FC01C480D580D601ED91C8
:103A4000FC910190F081E02D60E0C60109952C0108
:103A50000097E1F416ED812FCE57DF4F0FB6F894A3
:103A6000DEBF0FBECDBFDF91CF911F910F91FF90B1
:103A7000EF90DF90CF90BF90AF909F908F907F900E
:103A80006F905F904F903F902F900895FC010081C0
:103A900011810115110509F4A3C11301F5E22F0EDF
:103AA000311CDC0111963C922E921496BC929E0120
:103AB00026593F4F48E050E060E0F3018481958152
:103AC0000E94F217F82E81118DC1AB96FFACAB9717
:103AD000D2010D931C93D601ED91FC910280F381EC
:103AE000E02D292D40E06A2DC6010995F30186835A
:103AF00014ED882309F4AFCFE2969FADE29796A329
:103B0000682F848195810E94C117182FD601ED91ED
:103B1000FC91D20114961C92882359F00480F581FF
:103B2000E02DD30116966C91C6010995F30116821A
:103B300092CF0190F081E02DD30116966C91C601D1
:103B40000995009709F486CFFC01B482F110A8C052
:103B5000E4968EAD9FADE497F301E35AFF4F918356
:103B60008083E6968EAD9FADE697329791838083F2
:103B7000EC96FFADEC97C058DF4FF883C058D040AB
:103B8000910141E0D30116966C91169714968D9190
:103B90009C910E94CC0DF82E811197C02E01B1E4AA
:103BA0004B0E511CF3013296CF57DF4FF983E88358
:103BB000C158D040C2014096EE969FAF8EAFEE97AF
:103BC000C058DF4FB881C058D040FB1609F489C0F7
:103BD00081E191E0F20191838083CF57DF4FA8818B
:103BE000B981C158D040B383A28314821186128652
:103BF00015861786168610A211A212A210A6EE969E
:103C00008EAD9FADEE97968385839087878394874B
:103C10008387D30114960D90BC91A02DC258DF4F1D
:103C2000B983A883CE57D040F301D6808E010F5FB1
:103C30001F4F2F2D49E050E06D2DCD010E944619F8
:103C400081114DC08B809C805F924F921F930F9388
:103C5000C401A1E48A16910410F080E490E09F93DF
:103C60008F93B12CA12C32E0C32EEF2C06E020E87C
:103C700040E06D2DC258DF4F88819981CE57D040EA
:103C80000E942A160F900F900F900F900F900F9098
:103C9000811125C0F301868D823018F5F39490CF01
:103CA0004F2D433108F042E150E09E0126593F4F2D
:103CB000D30116966C91169714968D919C910E9443
:103CC000F217F82E882309F443CFD301ED91FC912C
:103CD0000480F581E02DC30109951F2DBCCEF82E7F
:103CE000F4CFD3015E964C915E9711ED423008F40B
:103CF000B2CE910116966C91169714968D919C9167
:103D00000E94CC0D1F921F921F921F921F921F9212
:103D1000912C812CB12CA12CC12CF301E48C09E055
:103D200020E040E06681848195810E942A16182F48
:103D30000F900F900F900F900F900F9081114EC029
:103D4000D12CD3015D968C915D97D816E0F58D2D21
:103D500090E0FC017296EE0FFF1FEE0FFF1FE60DC5
:103D6000F71D2081211102C0D394EBCFFC01EE0F8F
:103D7000FF1FEE0FFF1FE60DF71DEA5BFF4F80816F
:103D80008770A82EB12C1F921F921F921F921F9214
:103D90001F92912C812CC12CE12C0AE021E240E001
:103DA000F3016681848195810E942A16F82E0F9076
:103DB0000F900F900F900F900F908823A9F2F5E0CD
:103DC0008F1791F282CFED91FC910688F789E02D53
:103DD000C301099581E0F30184A33DCEF82E75CF90
:103DE00017ED39CEF201118300836FCF0E94712F3E
:103DF00085ED8093BC008091090390910A03A09106
:103E00000B03B0910C030796A11DB11D23E0B695DD
:103E1000A795979587952A95D1F72091BC0024FD09
:103E200003C01092520308954091090350910A0370
:103E300060910B0370910C03452B462B472B69F3C4
:103E40000097A105B10541F025E12A95F1F70000A1
:103E50000197A109B109E1CF809108030C94D20622
:103E60002F923F924F925F926F927F928F929F928A
:103E7000AF92BF92CF92DF92EF92FF920F931F9378
:103E8000CF93DF9300D01F92CDB7DEB71C017B83A9
:103E90006A83FB01828182958F7090E0F1019383A8
:103EA0008283FB01648170E090E080E00E94772CC7
:103EB0000E94EE2E28E132E741E35FE30E943E2EAE
:103EC00020E030E040E85FE30E94D22D0E94B02E57
:103ED000F10175836483EA81FB816681F281F98354
:103EE0006623C1F070E090E080E00E94772C0E9491
:103EF000EE2E28E132E741E35FE30E943E2E20E010
:103F000030E040E151E40E94D22D0E94B02EF10138
:103F100075836483F10106811781F80182809380A3
:103F2000092C000CAA08BB08C480D5800D2C000CFD
:103F3000EE08FF08240135014C185D086E087F0863
:103F4000EA81FB81A081B181B370A30192010E943B
:103F5000952D2FEF33E040E050E00E94762D2C0DA0
:103F60003D1D4E1D5F1DF801328B218BEA81FB81C7
:103F7000A1818A2F86958695A981A295AA0FAA0F5D
:103F8000A07CA82BB981B695B695B370A301920118
:103F90000E94952D2FEF33E040E050E00E94762DF7
:103FA0002C0D3D1D4E1D5F1DF801308B2787EA81CA
:103FB000FB81A581A7019601281939094A095B09E6
:103FC000B0E00E94952D2FEF30E040E050E00E94DD
:103FD000762D820E931EA41EB51EF801948A838A44
:103FE000EA81FB81A381B0E0A30192010E94952D9B
:103FF0002FEF30E040E050E00E94762DC20ED31E3D
:10400000E41EF51EF801D68AC58AF1016481C80153
:104010000E945610F101868197810F900F900F90AA
:10402000DF91CF911F910F91FF90EF90DF90CF9094
:10403000BF90AF909F908F907F906F905F904F90C8
:104040003F902F900C94220E1F920F920FB60F925A
:1040500011242F933F938F939F93AF93BF9380919E
:10406000C4039091C503A091C603B091C7033091DA
:10407000C30326E0230F2D3758F50296A11DB11D6D
:104080002093C3038093C4039093C503A093C603F6
:10409000B093C7038091C8039091C903A091CA034C
:1040A000B091CB030196A11DB11D8093C8039093DD
:1040B000C903A093CA03B093CB03BF91AF919F9163
:1040C0008F913F912F910F900FBE0F901F901895D9
:1040D00029E8230F0396A11DB11DD2CF1F920F9285
:1040E0000FB60F9211242F933F934F935F936F93CB
:1040F0007F938F939F93AF93BF93EF93FF938CE046
:1041000094E00E94FE05FF91EF91BF91AF919F91C6
:104110008F917F916F915F914F913F912F910F9070
:104120000FBE0F901F9018951F920F920FB60F920F
:1041300011242F938F939F93EF93FF93E0911C048F
:10414000F0911D048081E0912204F091230482FD0E
:104150001BC09081809125048F5F8F73209126046E
:10416000821741F0E0912504F0E0E45FFB4F958F6A
:1041700080932504FF91EF919F918F912F910F9044
:104180000FBE0F901F9018958081F4CF1F920F9251
:104190000FB60F9211242F933F934F935F936F931A
:1041A0007F938F939F93AF93BF93EF93FF938091F0
:1041B000B900887F803609F44AC0F0F5883209F4E6
:1041C000A7C018F5803109F49BC0B8F4882309F41E
:1041D000F9C0883009F494C0FF91EF91BF91AF917D
:1041E0009F918F917F916F915F914F913F912F910F
:1041F0000F900FBE0F901F901895883109F488C05A
:10420000803251F78093510314C0803409F49DC06B
:1042100040F48033B9F38833F9F68093510385EC89
:10422000B0C0803509F485C0883509F496C088345B
:1042300099F60E94F81ED0CF883909F48CC038F561
:10424000883729F050F4883611F0803729F683E05A
:10425000809352031092500357C0883809F47BC0F2
:10426000803919F0803809F0B7CF8091500380323F
:1042700008F071C0E091500381E08E0F80935003ED
:104280008091BB00F0E0E05DFC4F80833DC0803B4F
:1042900039F0E0F4803A09F479C0883A09F09CCF0B
:1042A00084E08093520310922F0310922E03E0912A
:1042B0007A03F0917B03099580912E0381110FC041
:1042C00081E080932E0310920E0309C0803C09F414
:1042D000A6CF883C09F4A3CF883B09F07DCFE091BD
:1042E0002F0381E08E0F80932F03F0E0E25FFC4FFD
:1042F00080818093BB0090912F0380912E0329C071
:10430000809177038093BB0085EC8093BC0064CFE1
:104310009091760380917503981758F5E091760394
:1043200081E08E0F80937603F0E0EB5AFC4F8081A2
:10433000E9CFE091760381E08E0F80937603809140
:10434000BB00F0E0EB5AFC4F8083909176038091A4
:1043500075039817C8F285E8D8CFE091760381E01D
:104360008E0F809376038091BB00F0E0EB5AFC4FF8
:1043700080838091540381115CCF81E0809353034B
:1043800084EA8093BC001092520326CF85EC809380
:10439000BC001092520380915003803230F4E091BF
:1043A0005003F0E0E05DFC4F10826091500370E03C
:1043B000E0917803F091790380E393E009951092FE
:1043C00050030ACF1092510334CF6F927F928F9295
:1043D0009F92AF92BF92CF92DF92EF92FF920F9394
:1043E0001F93CF93DF93EC01842F6C8F4D8D70E082
:1043F00060E0A82EB12C822E912C602E712C6417B7
:1044000070F56530710559F1DB01AA0FBB1FAA0FCA
:10441000BB1FFE01EA0FFB1FEA5BFF4F9081392FA4
:1044200037703A151B0409F087C0392F3695369539
:10443000369537703815190409F07EC09295969517
:10444000969593709615170409F076C06E0196E460
:10445000C90ED11CCA0EDB1EC114D104F9F44530BB
:1044600008F05BC0A4E04A9FA00111246E01B6E4ED
:10447000CB0ED11CC40ED51E2770220F220F220F87
:10448000982F9770292B902F9295990F990F907CC8
:10449000292BF60120839D8D9F5F9D8FD701139659
:1044A0009C911397937010E0933029F412969C918D
:1044B00012E097FD11E0402F682FE881F981068C0A
:1044C000F78DE02DCE010995882339F1112329F1CB
:1044D0008E8D8B3010F5282F30E0F901EE0FFF1F85
:1044E000E20FF31FEC0FFD1FD70112969C9112975C
:1044F0009F7095A314969C91149796A394E097A30C
:10450000C10ED11CF601818316968C919BA1981740
:1045100008F48BA38E8D8F5F8E8FDF91CF911F91CB
:104520000F91FF90EF90DF90CF90BF90AF909F9052
:104530008F907F906F9008956F5F7F4F60CFEF9265
:10454000FF920F9302970E94E5210F91FF90EF9049
:104550000895CF93DF9310920F0410920E0488EE0B
:1045600093E0A0E0B0E08093100490931104A09336
:104570001204B093130427E131E030930D0420932B
:104580000C0425EC30E0309319042093180424EC3B
:1045900030E030931B0420931A0420EC30E0309379
:1045A0001D0420931C0421EC30E030931F04209361
:1045B0001E0422EC30E0309321042093200426ECEA
:1045C00030E03093230420932204109225041092AB
:1045D000260410922704109228041092AC04109222
:1045E000AB048093AD049093AE04A093AF04B0935A
:1045F000B00489E291E09093AA048093A90480ED2D
:1046000097E09093B5058093B40588EE93E090937E
:10461000B7058093B60586EB93E09093B905809338
:10462000B80580E197E29093BB058093BA0581E0DD
:1046300090E09093BD058093BC058CED95E0909340
:10464000BF058093BE058DEA91E090933C05809371
:104650003B051092430581E0809344051092450587
:104660008DE395E0909342058093410510923D05BE
:1046700088E080933E058CE380933F0510924005CF
:10468000EBE3F5E091E02DE335E01586968717869C
:1046900034872387359685E0E638F807B1F710921E
:1046A000B10581E18093B50427E931E030932B0512
:1046B00020932A052BE335E030932D0520932C051C
:1046C00010923A0510922E0588E080932F052CE376
:1046D00020933005909331058093320584E08093D8
:1046E000330510923405109235051092360510925C
:1046F00037051092380510923905A1E9B5E0FD01A2
:1047000090E080E021913191232B09F0D7C0880FF0
:10471000991FFC01EF56FA4F8AE295E0918380835E
:104720008BE395E09093D0048093CF0481E491E0F3
:104730009093CC048093CB0485E691E09093CE04D3
:104740008093CD041092EA041092EB041092EC04D2
:104750001092ED041092EE041092EF0410922505D1
:104760001092D2041092D4041092D3041092D50463
:104770001092D7041092D6041092D8041092DA0442
:104780001092D9041092DB041092DD041092DC0424
:104790001092DE041092E0041092DF041092E10403
:1047A0001092E3041092E2041092E4041092E604E2
:1047B0001092E504E2E1F5E090E080E0EC01CC0F3E
:1047C000DD1FCC0FDD1FCF5EDA4F288128732883D1
:1047D00010821182019634968530910579F7CBECE1
:1047E000D4E090E080E01DA2582F28E0811120E065
:1047F0002EA3BC01660F771F9B01280F391F2E5077
:104800003B4FF90140814E7F4D7F40833FE0511186
:1048100031E0FB01E80FF91FEE50FB4F330F330F70
:1048200020812370232B2083019623968B309105C2
:10483000D1F681E08093E9041092E8041092E70435
:1048400090E080E02D913D91232BF1F5880F991F89
:10485000FC01EF56FA4F8BEC94E0918380838BE65A
:1048600091E09093CC048093CB0481E991E0909304
:10487000CE048093CD0487EB91E09093C4048093A1
:10488000C3041092C6041092C5041092C80410927A
:10489000C7048BE391E09093B7048093B60483EC54
:1048A00094E09093B9048093B80482EB95E09093E0
:1048B000CA048093C904DF91CF9108950196803195
:1048C000910509F01FCF2CCF01968031910509F099
:1048D000B9CFC5CF789484B5826084BD84B581603A
:1048E00084BD85B5826085BD85B5816085BD8091BB
:1048F0006E00816080936E00109281008091810033
:10490000826080938100809181008160809381002A
:10491000809180008160809380008091B1008460EC
:104920008093B1008091B00081608093B00080914D
:104930007A00846080937A0080917A00826080930C
:104940007A0080917A008E7F80937A0080917A003D
:10495000806880937A001092C1000E94210489EA45
:1049600094E0909381038093800310927F031092D0
:104970007E0310927D0310927C030E94B4068EE7A2
:1049800095E090937B0380937A038FE795E0909373
:1049900079038093780382E08093B8008CE380935E
:1049A00000011092010181E598E09093030180934A
:1049B000020189E797E090930501809304012FE5B8
:1049C00038E030930701209306018FE798E0909339
:1049D0000901809308014DE755E050930B01409386
:1049E0000A01109283031092820340E450E0509336
:1049F00087034093860340E850E05093850340933B
:104A0000840345E65AE050938903409388034BE7BB
:104A100055E050938B0340938A0330938D0320938A
:104A20008C0390938F0380938E038CE795E0909393
:104A3000950380939403C2ECD0E0FE011491E091C1
:104A40000201F0910301099580910101882309F485
:104A50003FC080E00E94610AE0910601F0910701E9
:104A6000812F0995E0910401F091050109952196A6
:104A7000F0E0CB3DDF0709F768EE73E080E090E0FF
:104A80000E9430050E940F0A809184039091850353
:104A9000C0E8C81B8038910508F0C0E010E81C1B76
:104AA000E12EF12CE0918803F0918903A70170E0D9
:104AB00060E090E080E00995D8E0BD2E0BEDC02EBF
:104AC00000E0D02ECE0DDF2DD11D7601012F15C0B7
:104AD000E0910601F091070180E00995BDCFF70153
:104AE000949180919603E0918C03F0918D03892736
:104AF00009950150FFEFEF1AFF0A0111F0CFE09185
:104B00008A03F0918B030995BA94CC0EDD1EB11087
:104B1000DCCFE0910401F0910501099568EE73E0A6
:104B200080E090E00E9430050E940F0A21E030E012
:104B300040EF51E064E182E10E941A098FEF809317
:104B4000960321E030E04EEF51E062E380E00E9406
:104B50001A091092960368EE73E080E090E00E94DC
:104B60003005E0911C04F0911D0482E08083E09107
:104B70001804F09119041082E0911A04F0911B04BA
:104B800088E0808310922404E0912004F0912104B5
:104B900086E08083E0911E04F0911F048081806193
:104BA0008083E0911E04F0911F04808188608083DF
:104BB000E0911E04F0911F04808180688083E09161
:104BC0001E04F0911F0480818F7D8083CBE3D5E0AC
:104BD000FE016491662339F08CE094E00E94200687
:104BE0002196892BA9F70E94841381E192E00E940B
:104BF0008C13229A0E94E710CFB7F8948091970304
:104C0000811124C0E9E8F5E08491EDE9F5E09491A3
:104C1000E82FF0E0EE0FFF1FEB58FA4FA591B4918B
:104C2000EC91E92321F461E08AE00E94BF048AE06C
:104C30000E945D048CB580618CBD8CB580648CBD98
:104C40008DE00E945D048BE00E945D0480919703DB
:104C50008F5F80939703CFBF229A0E94E71021981D
:104C600068E188E80E94531160E288E70E945311CE
:104C700060E088E70E945311D0E0C0E088E60E941F
:104C80001912219680FFF3C061EC88ED0E94531148
:104C900060E680ED0E94531164E088EE0E9453119B
:104CA00088EE0E94191282FFFBCF0E94F51260E28B
:104CB00088EC0E94531161E080E80E94531168EC77
:104CC00070E080E090E00E94300546EB54E060E048
:104CD0008BEC94E00E94B00C8111DCC00E940F0AA2
:104CE00030E020E047E152E060E080E00E941A09F5
:104CF00068EC70E080E090E00E943005E3E2F5E0CF
:104D0000E491E093C003E4E2F5E0E491E0939F03D3
:104D1000E6E2F5E0E491E0939D03E5E2F5E0E4915D
:104D2000E0939E038091BE059091BF059093C205CC
:104D30008093C1059093C8058093C7059093C405DF
:104D40008093C3052091B8053091B9053093C6050D
:104D50002093C5053093CA052093C9053093CC052F
:104D60002093CB0590935206809351069093500662
:104D700080934F0690E080E00E946E2D80934D0658
:104D8000813009F48FC008F488C0823009F491C0E2
:104D900081E090E00E946E2D91E0811101C090E0D1
:104DA00090934E068EE08093CC0381E08093CD03F8
:104DB0000E9462056093CE037093CF038093D0036B
:104DC0009093D103519A8091CD03882309F474C044
:104DD0005998A0EC2A2EA3E03A2E992493940CED36
:104DE00015E08CE094E00E94DE05892BC1F08CE098
:104DF00094E00E94BC058434910519F08436910535
:104E000071F480919803882309F458C085ED91E0EE
:104E10000E948C1380919803892580939803809138
:104E2000C1039091C20301969093C2038093C10382
:104E300083B1C82FC27081FD0CC088EC0E9419128A
:104E400085FF03C00E94F512C0E26C2F88EC0E941F
:104E500053118091F203813009F484C008F486C0B4
:104E6000823079F1833009F489C0D12C41C0CF3F21
:104E7000DC0709F003CF8CE792E00E948C130E94BC
:104E80000F0A30E020E04FE852E060E080E00E944E
:104E90001A0915CF0E94D3102BCF10924C061092F6
:104EA0004B0676CF81E090E090934C0680934B06C2
:104EB0006FCF82E090E0F8CF599A8BCF83EE91E0EC
:104EC000A7CFD12C8091B504807F803189F40E94D6
:104ED000620568537F4F8F4F9F4F60939903709384
:104EE0009A0380939B0390939C0380E28093B50484
:104EF000F1E9EF2EF5E0FF2EE701899199910097F6
:104F000039F0DC01ED91FC910680F781E02D0995E7
:104F1000E1EBF5E0EC17FD0781F78091B5048034F3
:104F200009F4E5C370F5803209F4CBC3803309F48A
:104F3000D8C3813109F043C01092B105D7018D91DA
:104F40009D917D01009739F0DC01ED91FC91048089
:104F5000F581E02D0995CE15DF0581F782E180937B
:104F6000B5042DC083E18093B5047FCF8091B50453
:104F7000807F803109F479CF81E1F5CFDD24D394AE
:104F8000A1CF813509F4C2C3803809F4D2C380357A
:104F9000B1F488EC0E94191286FF4EC481E580931B
:104FA000B5040E9462056C5E7F4F8F4F9F4F6093E8
:104FB000990370939A0380939B0390939C03809131
:104FC0000C019091B504903909F038C4811112C0D8
:104FD00090920C019092C00585E292E00E948C13A1
:104FE0000E94D31068EC70E080E090E00E943005F1
:104FF0000E940F0A8091C1039091C20340970CF464
:1050000053C180910C01882309F44AC1D0904E0607
:10501000C0904B06C091C905D091CA05E090CB0560
:10502000F090CC058091F3039091F403E816F90613
:1050300071F48091F5039091F603C817D90739F4FC
:105040008091F703C81203C08091F803D8120E9420
:105050000F0AF092F403E092F303D093F603C093A7
:10506000F503C092F703D092F8030E94210430E0C8
:1050700020E041E652E060E080E00E941A094AE048
:105080006BEF73E0C7010E94422C30E020E0AC01DE
:1050900060E08EE10E941A0930E020E04BE552E02A
:1050A00060E0C83EB3E0DB070CF053C38EE40E941F
:1050B0001A094AE06BEF73E0CE010E94422C30E007
:1050C00020E0AC0160E086E60E941A0930E020E0B2
:1050D00040E652E064E180E00E941A094AE06BEF8A
:1050E00073E08C2D90E00E94422C30E020E0AC0177
:1050F00064E183E20E941A09DD2041F030E020E003
:1051000047E652E064E184E60E941A0930E020E0BC
:105110004CEF51E063E280E00E941A094AE06BEF35
:1051200073E08091CB059091CC050E94422C30E039
:1051300020E0AC0163E28AE00E941A098091C9056F
:105140009091CA0530E020E04BE652E0883E934063
:1051500011F040E752E063E288E20E941A09809170
:105160004B0690914C068130910509F401C38230C1
:10517000910509F406C330E020E04DE652E0892BAA
:1051800009F4FAC280914E0630E020E04BE652E08E
:10519000811102C04DE852E063E28CE30E941A09DB
:1051A00040914F065091500663E280E50E9425131E
:1051B000409151065091520663E284E60E94251305
:1051C0004091C1055091C20562E380E00E94251321
:1051D0004091C3055091C40562E38EE10E942513FE
:1051E000C090B605D090B7050D2C000CEE08FF0856
:1051F0002091C5053091C605032E000C440B550BBC
:105200002C193D094E095F09A3E6B0E00E94952DD7
:105210002091B4053091B505032E000C440B550BBD
:105220002C193D094E095F090E94762D69017A010A
:10523000F7FC08C030E020E040ED51E062E38CE391
:105240000E941A09D701C6010996A11DB11D4397F5
:10525000A105B10540F430E020E04EEC51E062E3FE
:105260008CE30E941A094AE06BEF73E0C6010E94CA
:10527000422C30E020E0AC0162E38CE30E941A098A
:105280004091C7055091C80562E38AE50E94251345
:1052900064E670E080E090E00E9430050E940F0A12
:1052A0001092C2031092C103C091C504D091C604EC
:1052B000A090C704B090C8048091C005811108C0B7
:1052C0008091B8059091B9059093C6058093C50566
:1052D0008091CD059091CE059C012350310923305A
:1052E000310528F08230910510F0079751F40E94A3
:1052F00062056093CF057093D0058093D10590939C
:10530000D2058091CD059091CE059C0125503109A3
:105310002330310518F00297029750F40E9462057D
:105320006093D7057093D8058093D9059093DA05DB
:105330008091CD059091CE05089781F41092CF050C
:105340001092D0051092D1051092D2051092D70577
:105350001092D8051092D9051092DA05D093CE0597
:10536000C093CD0582EB95E00E94220E6A2D82EB60
:1053700095E00E945610E501DD279E012E543A4F1C
:105380007901D9019D961C920E946205672B682BBA
:10539000692B09F4FBC10E946205CC0FDD1FCC0F05
:1053A000DD1FFE01EE54FA4F41AC52AC63AC74AC5D
:1053B000461657066806790609F4FCC10E94620584
:1053C000672B682B692B09F4EBC10E946205FE0173
:1053D000EE54FA4F41AC52AC63AC74AC9B01AC01DF
:1053E000241935094609570929013A01AE014E54DD
:1053F0005A4F6A01FA01E759FF4F40825182628297
:1054000073820E946205D601D9966D937D938D9328
:105410009C93DC976A2D82EB95E00E945610F70171
:1054200095A60E946205672B682B692B09F4D9C1E8
:105430000E946205FE01EE54FA4FC1ACD2ACE3AC5F
:10544000F4ACC616D706E806F90609F4DEC10E94D8
:105450006205672B682B692B09F4CDC10E94620598
:10546000FE01EE54FA4FC1ACD2ACE3ACF4AC9B01FC
:10547000AC012C193D094E095F0969017A01CE542E
:10548000DA4FFE01E759FF4FC082D182E282F382F8
:105490000E94620569AF7AAF8BAF9CAF6A2D82EB39
:1054A00095E00E945610E091C003F0E0EE0FFF1F60
:1054B000E056FC4F8091C3059091C4059183808391
:1054C000E0919F03F0E0EE0FFF1FE056FC4F80914C
:1054D000C1059091C20591838083E0919E03F0E025
:1054E000EE0FFF1FE056FC4F8091C5059091C60559
:1054F00091838083E0919D03F0E0EE0FFF1FE05663
:10550000FC4F8091C7059091C8059183808380915D
:10551000C9059091CA059093A9038093A80380912F
:10552000CB059091CC059093AB038093AA03809117
:105530005106909152069093AD038093AC038091F5
:105540004F06909150069093AF038093AE03109353
:10555000B1030093B0031093B3030093B20310930D
:10556000B5030093B4031093B7030093B6031093ED
:10557000B9030093B8031093BB030093BA031093CD
:10558000BD030093BC031093BF030093BE030E94AE
:105590006205C090CE03D090CF03E090D003F0908E
:1055A000D103AB01BC014C195D096E097F098091E3
:1055B000CC0390E0B0E0A0E0481759076A077B07EA
:1055C00008F472C00E9462056093CE037093CF030B
:1055D0008093D0039093D1038FE00E947C0422ED4E
:1055E000A22E23E0B22EE501712C80E090E0DC01D8
:1055F00038EF632EC990D990F12CE12C072C04C010
:10560000CC0CDD1CEE1CFF1C0A94D2F7C82AD92A48
:10561000EA2AFB2A8C2D0E947C04BB27AF2D9E2DED
:105620008D2D33E0730E47E0471528F40E947C046B
:10563000C701AA27BB27272D269526952695269DA7
:10564000700C1124E2EFF3E0EC17FD0799F680E00F
:105650000E947C0480E00E947C04C0EAD3E029918F
:1056600039912137F8E03F0710F020E738E0203784
:1056700043E0340710F420E733E050E040E02057E7
:10568000334041095109AFEFB7E00E94952D20E06A
:1056900035E040E050E00E94762DD5012D933D93FA
:1056A0005D012C163D06D9F6E0E0F0E0EF2B09F4A1
:1056B00098CB0E94EA05882309F48FCB0E94000052
:1056C0008CCB0E946205C0909903D0909A03E09021
:1056D0009B03F0909C036C197D098E099F0997FD2F
:1056E000ABC061E088EE0E94531180E438CC88EEB4
:1056F0000E94191280FDA0C088ED0E941912682F27
:10570000686088ED0E94531180E529CC0E946205F3
:105710004090990350909A0360909B0370909C0373
:10572000641975098609970997FD86C080E88093FA
:10573000B5042D2D40E060E08BE395E00E94181841
:10574000882329F0823D09F43ACC80EA08CC80E92C
:1057500006CC86E40E941A094AE06BEF73E0CE01A2
:105760000E94422C30E020E0AC0160E080E6ACCC4E
:1057700030E020E042E752E063E28CE30E941A0945
:1057800001CD30E020E047E752E0F6CF0E9462050D
:1057900090958095709561957F4F8F4F9F4FFDCD70
:1057A0000E94620590958095709561957F4F8F4F0F
:1057B0009F4F0DCE0E946205672B682B692B39F035
:1057C0000E946205461A570A680A790A0FCE0E949B
:1057D000620590958095709561957F4F8F4F9F4F93
:1057E000F1CF0E94620590958095709561957F4FED
:1057F0008F4F9F4F1FCE0E946205909580957095A8
:1058000061957F4F8F4F9F4F2BCE0E946205672B74
:10581000682B692B39F00E946205C61AD70AE80A7C
:10582000F90A2DCE0E94620590958095709561953C
:105830007F4F8F4F9F4FF1CF80910C01882309F448
:10584000D9CB10920C011092C00588E392E00E941F
:105850008C130E940F0A30E020E04BEB51E060E037
:1058600080E00E941A0930E020E04EE452E06AE055
:1058700080E00E941A0968EC70E080E090E00E94ED
:105880003005B8CBBB274A3031F4992322F4BDE26E
:10589000909581959F4F0C944E2CBB27FB0155276B
:1058A000AA27880F991FAA1FA41710F0A41B83957D
:1058B0005051B9F7A05DAA3308F0A95DA1930097F4
:1058C00079F7B111B1931192CB010C94672CDC01E3
:1058D000FC01672F71917723E1F7329704C07C9127
:1058E0006D9370836291AE17BF07C8F30895E89473
:1058F00009C097FB3EF490958095709561957F4F18
:105900008F4F9F4F9923A9F0F92F96E9BB279395C5
:10591000F695879577956795B795F111F8CFFAF4D5
:10592000BB0F11F460FF1BC06F5F7F4F8F4F9F4F06
:1059300016C0882311F096E911C0772321F09EE864
:10594000872F762F05C0662371F096E8862F70E0CA
:1059500060E02AF09A95660F771F881FDAF7880FA4
:105960009695879597F908950E94262D38F00E9404
:105970002D2D20F0952311F00C941D2D0C94232D2A
:1059800011240C94682D0E94452D70F3959FC1F34E
:10599000950F50E0551F629FF001729FBB27F00DDD
:1059A000B11D639FAA27F00DB11DAA1F649F662732
:1059B000B00DA11D661F829F2227B00DA11D621F81
:1059C000739FB00DA11D621F839FA00D611D221F3B
:1059D000749F3327A00D611D231F849F600D211D1F
:1059E000822F762F6A2F11249F5750409AF0F1F0A2
:1059F00088234AF0EE0FFF1FBB1F661F771F881F0B
:105A000091505040A9F79E3F510580F00C941D2DF8
:105A10000C94682D5F3FE4F3983ED4F38695779518
:105A20006795B795F795E7959F5FC1F7FE2B880FB0
:105A3000911D9695879597F9089597F99F6780E846
:105A400070E060E008959FEF80EC089500240A94D0
:105A50001616170618060906089500240A94121649
:105A60001306140605060895092E0394000C11F47C
:105A7000882352F0BB0F40F4BF2B11F460FF04C029
:105A80006F5F7F4F8F4F9F4F089557FD9058440F82
:105A9000551F59F05F3F71F04795880F97FB991F8D
:105AA00061F09F3F79F0879508951216130614064A
:105AB000551FF2CF4695F1DF08C0161617061806D7
:105AC000991FF1CF86957105610508940895E894B2
:105AD000BB2766277727CB0197F90895F999FECF61
