:1000000028C042C041C040C03FC0FFC13DC03CC04D
:100010003BC03AC039C038C037C0F0C240C200004F
:10002000000038000000000037000301F700000066
:10003000003600020202020202020202020102046F
:100040000810202004100801020000040000000035
:10005000000011241FBECFE5D2E0DEBFCDBF10E00F
:10006000A0E6B0E0E8EEFDE002C005900D92A436F7
:10007000B107D9F720E0A4E6B0E001C01D92A23C90
:10008000B207E1F7D8D2AEC6BBCFCF93DF93EAE297
:10009000F0E0E491E330B9F4282FC09163006C2FB5
:1000A00070E090E080E030E050E040E033D62FEFA9
:1000B00030E040E050E047D6D0E02C173D0708F490
:1000C000E901C093C100DF91CF910895823089F09A
:1000D00018F4813051F00895833019F0843009F01C
:1000E00008958CB58F7D8CBD08958AB58F778ABDB4
:1000F00008958AB58F7DFBCFCF93DF93E8E4F0E0DE
:100100008491EEE3F0E0D491E4E3F0E0C491CC23F9
:1001100099F08111DBDFEC2FF0E0EE0FFF1FE35DC4
:10012000FF4FA591B491EC91ED2381E090E009F4AB
:1001300080E0DF91CF91089580E090E0FACF1F93A7
:10014000CF93DF93282F30E0F901E95BFF4F8491D3
:10015000F901E35CFF4FD491F901ED5CFF4FC491CD
:10016000CC23A1F0162F8111B1DFEC2FF0E0EE0FC0
:10017000FF1FE25EFF4FA591B4918FB7F894EC9109
:10018000111108C0D095DE23DC938FBFDF91CF9192
:100190001F910895DE2BF8CF3FB7F89480918E0021
:1001A00090918F00A0919000B091910022B708B675
:1001B00001FE05C02F3F19F00196A11DB11D3FBFE3
:1001C000BA2FA92F982F8827BC01CD01620F711D6E
:1001D000811D911D42E0660F771F881F991F4A9568
:1001E000D1F708958F929F92AF92BF92CF92DF92F4
:1001F000EF92FF924B015C01CFDF6B017C01CCDF02
:100200006C197D098E099F09683E7340810591052F
:10021000B0F321E0821A9108A108B10888EEC80E57
:1002200083E0D81EE11CF11C81149104A104B104E7
:1002300031F7FF90EF90DF90CF90BF90AF909F90FD
:100240008F9008952FB7F89460918A0070918B0079
:1002500080918C0090918D002FBF0895909199000E
:1002600080919A00981791F09091990080919A004E
:10027000981738F48091990090919A00805F891BBB
:1002800008958091990090919A00F9CF80E00895A7
:10029000CF93DF93C0919C00D0919D00209749F0AF
:1002A000759B07C0DBDF882321F0FE01DF91CF9132
:1002B0000994DF91CF91089580919300809590915A
:1002C00094008927809361009091930088B3892BD3
:1002D00088BB9091610088B3892388BB80916000BE
:1002E0008F5F809360009091630089130AC0109221
:1002F00060008091C100809392008091940080936F
:1003000093009091920080916000981308C0ECE2F5
:10031000F0E0E49180919300E823E0939300089546
:10032000FF920F931F93CF93DF93082F20E1F22EBC
:10033000813011F494E0F92E10E0D0E0C0E080911B
:1003400095008295807F826087B9369A3699FECF74
:1003500094B185B1892798278927C80FD91F98DFBD
:1003600080916200811101C0A7DF1F5FF112E7CF0A
:10037000023021F4D695C795D695C795CE01DF9169
:10038000CF911F910F91FF900895909199008091C6
:100390009A009817D1F380919A008F5F8F708093A5
:1003A0009A0080919A00109266000895E09166008C
:1003B000F0E0EC59FF4F9081809197008F5F8F7034
:1003C000209198008217E1F3E82FF0E0E958FF4F01
:1003D000908380939700809166008F5F8093660082
:1003E00080916600823070F08091AD009091AE00F7
:1003F000909364008091AD009091AE008093650071
:1004000010926600089578C46FC41F920F920FB6C1
:100410000F9211242F933F938F939F93AF93BF938A
:1004200080918A0090918B00A0918C00B0918D00FA
:100430003091890023E0230F2D3758F50196A11D37
:10044000B11D2093890080938A0090938B00A09324
:100450008C00B0938D0080918E0090918F00A091C0
:100460009000B09191000196A11DB11D80938E0066
:1004700090938F00A0939000B0939100BF91AF91A3
:100480009F918F913F912F910F900FBE0F901F90D2
:10049000189526E8230F0296A11DB11DD2CF1F92F9
:1004A0000F920FB60F9211242F933F934F935F93A8
:1004B0006F937F938F939F93AF93BF93CF93DF936C
:1004C000EF93FF938091870090918800823091058F
:1004D00009F482C0C0F4009769F1019709F444C09F
:1004E000FF91EF91DF91CF91BF91AF919F918F914C
:1004F0007F916F915F914F913F912F910F900FBE20
:100500000F901F9018958430910509F46FC030F159
:10051000059731F7809199008F5F8F7080939900D4
:10052000E09199008FB1F0E0E959FF4F808384E0BA
:1005300090E00DC08FB1882331F08FB186959091F6
:100540009B0089130EC0789BF2CF81E090E09093DE
:100550008800809387001FB8B89A46C08FB188235F
:1005600019F088EA8DB930C0C0919C00D0919D00EF
:10057000209749F09091990080919A00981719F06E
:100580006DDEFE010995E0919E00F0919F0030978D
:1005900009F0099590919700809198009817B9F00B
:1005A000809198008F5F8F7080939800E091980001
:1005B000F0E0E958FF4F80818FB982E090E090939E
:1005C000880080938700B89A80E78EB989CFB89861
:1005D0001FB88EE78EB9C5CF83E090E09093880076
:1005E00080938700B8981FB88EE7EFCF85E090E042
:1005F0009093880080938700B898E6CF1F920F925F
:100600000FB60F9211248F931092880010928700DA
:10061000B898B29B02C0B09BFCCFB0990AC088EFDB
:100620008DB980EF8EB98F910F900FBE0F901F90F4
:10063000189588EAF5CFCF93DF9300D000D01F92B2
:10064000CDB7DEB778948AB582608ABD8AB58160FD
:100650008ABD83B7826083BF83B7816083BF89B758
:10066000826089BF80B7826080BF80B7816080BFB1
:10067000329A319A309A379A8CB580648CBD9FB784
:10068000F894BB9A809194008860809394002FEF37
:100690002093630080939300109292001092C10007
:1006A0009FBFEEE3F0E02491E4E3F0E0849188233F
:1006B000C9F090E0880F991FFC01EC5DFF4F659138
:1006C0007491FC01E25EFF4FA591B4919FB7F8943D
:1006D000FB0180812095822380838C91E22FE82387
:1006E000EC939FBF61E081E02ADDE0E4F0E024913B
:1006F000E6E3F0E08491882399F090E0880F991F59
:10070000FC01EC5DFF4FA591B491FC01E25EFF4F4F
:10071000859194918FB7F894EC91E22BEC938FBF75
:1007200060E083E00CDD109295008CDD6B017C01B4
:1007300089DD4B015C0110E0F1E0FB8304E0809176
:1007400096002B81222309F463C1823009F49BC0F7
:1007500098F5882309F45DC08130B9F7CDDC892B89
:1007600009F08BC06FDDDC01CB018C199D09AE094E
:10077000BF092C013D0148EE441A43E0540A6108C8
:10078000710851ED451657E055066104710408F0F3
:1007900059C080919600823059F061E083E0CFDC4F
:1007A0006EE170E080E090E01DDD60E083E0C7DC9A
:1007B00082E080939600D2CF833009F407C1843061
:1007C00021F681E090E020DE898382E090E01CDE6B
:1007D0004981242F30E0322F2227820F932F911D41
:1007E0009093B2008093B10083E090E00DDE8983A6
:1007F00084E090E009DE5981252F30E0322F222756
:10080000820F932F911D9093B4008093B3001B82AD
:1008100096CF6AE070E080E090E0E4DC90E080E079
:10082000F3DD8F3F21F4612F90E080E0ECDD64DCAC
:10083000892B09F0C8C006DD6B017C0131E03093E3
:1008400096007DCF803A9F40A105B10598F0809138
:100850009600833059F061E083E071DC6EE170E076
:1008600080E090E0BFDC60E083E069DCF3E0F093DF
:10087000960074CF0093960071CF6EE170E080E037
:1008800090E0B0DC5CCFDEDC6B017C012FEF3FE061
:100890003093B2002093B1001092B4001092B300D4
:1008A00081E03EDD9D838C838091B1009091B20008
:1008B0004C815D814817590720F45093B200409352
:1008C000B1008091B3009091B400EC81FD818E174E
:1008D0009F0720F4F093B400E093B3002091B1009F
:1008E0003091B2003A8329832090B3003090B40055
:1008F00022153305C8F5A6DC681979098A099B0910
:10090000643671058105910570F19CDC4B015C0139
:1009100049815A812A01712C612CEC81FD81BF0132
:1009200090E080E064197509860997092FEF3FE090
:1009300040E050E0EFD1910150E040E0241935094A
:100940004609570900D22115F0E13F0710F02FEFBB
:100950003FE0B901E4E076956795EA95E1F7CB01D0
:1009600030D2892F92DBA8DC6DDC6C197D098E09F1
:100970009F09603177428105910508F491CF60E0CD
:1009800083E0DDDB89819A8101969093B2008093A8
:10099000B1009101215031093093B4002093B3008C
:1009A000692F81E090E02FDD6091B10082E090E05E
:1009B0002ADD6091B40083E090E025DD6091B30012
:1009C00084E090E020DD00939600B9CE3BDC6B0123
:1009D0007C0192DB892B71F462E370E080E090E0AF
:1009E00001DC8ADB892BE9F362E370E080E090E0D0
:1009F000F9DB1F5F27DC6C197D098E099F096031C7
:100A000077428105910528F3612F90E080E0DACFED
:100A100090E080E0F9DC10929A0010929900109218
:100A2000980010929700845F80939B0087B3856045
:100A300087BBC29AC09AB89888EA8DB980EF8EB900
:100A400085EC91E090939D0080939C0086ED91E071
:100A500090939F0080939E0005E090E0A92E90E087
:100A6000B92E11E024E0922E36E0832E43E0742E5E
:100A700052E0652E8091A500811107C090E080E0D2
:100A8000C3DC8093A4001093A500809162008330A2
:100A900009F4E0C008F088C0813009F4A3C08230B6
:100AA00009F4AFC0F5DB8091B90081110BC0CADB3E
:100AB0006093B5007093B6008093B7009093B80030
:100AC0001093B90082E02CDCC090B100D090B2004D
:100AD0008C159D0508F4C6014091B3005091B400F7
:100AE0005A834983F12CE12C4817590708F4CA01AD
:100AF000B0E0A0E0BC01CD016C197D098E099F0911
:100B00002FEF3FE040E050E005D1E981FA819F01FD
:100B100050E040E02C193D094E095F0914D13A8399
:100B200029832115304120F02FEF3FE03A832983BC
:100B300049815A815093B0004093AF0083DBC0904D
:100B4000B500D090B600E090B700F090B8006C19F6
:100B50007D098E099F096A3F710581059105A0F005
:100B600071DB6093B5007093B6008093B7009093EB
:100B7000B80069817A8184E0769567958A95E1F776
:100B8000CB011FD1892F81DAF8948091AF00909129
:100B9000B0009093AE008093AD007894A114B1049E
:100BA00009F468CF2DDA66CF853009F478C008F4EF
:100BB00067C0863009F076CF45DBC090A000D090AA
:100BC000A100E090A200F090A3006C197D098E09AD
:100BD0009F09603D77408105910508F463CF10922D
:100BE000620060CF61E083E0AADA2CDB6093A000B2
:100BF0007093A1008093A2009093A3006092620082
:100C000051CF20DBC090A000D090A100E090A200C6
:100C1000F090A3006C197D098E099F096E31710552
:100C20008105910508F43ECF60E083E088DA0ADBB5
:100C30006093A0007093A1008093A2009093A30002
:100C40008091A400882319F0709262002BCF8092CB
:100C5000620028CFF7DAC090A000D090A100E09009
:100C6000A200F090A3006C197D098E099F09683ECF
:100C700073408105910508F415CF9092620012CF60
:100C800061E083E05CDADEDA6093A0007093A1009B
:100C90008093A2009093A3000093620003CFD2DA66
:100CA000C090A000D090A100E090A200F090A3001E
:100CB0006C197D098E099F09643F7140810591057A
:100CC00008F4F0CE60E083E03ADABCDA6093A0008A
:100CD0007093A1008093A2009093A3008091A40040
:100CE00081508093A400AECFE199FECF9FBB8EBB15
:100CF000E09A99278DB30895262FE199FECF1CBA6B
:100D00009FBB8EBB2DBB0FB6F894E29AE19A0FBE43
:100D100001960895EE27FF27AA27BB2708C0A20F38
:100D2000B31FE41FF51F220F331F441F551F969555
:100D300087957795679598F37040A9F7009799F78D
:100D4000BD01CF010895052E97FB16F400940FD036
:100D500057FD05D014D007FC02D046F408C05095CA
:100D60004095309521953F4F4F4F5F4F0895909597
:100D70008095709561957F4F8F4F9F4F0895A1E2A9
:100D80001A2EAA1BBB1BFD010DC0AA1FBB1FEE1F05
:100D9000FF1FA217B307E407F50720F0A21BB30B50
:100DA000E40BF50B661F771F881F991F1A9469F7CC
:100DB00060957095809590959B01AC01BD01CF0128
:100DC00008950024552704C0080E591F880F991F45
:100DD000009729F076956795B8F37105B9F7802DDE
:080DE000952F0895F894FFCF50
:040DE800FFFF01FF09
:00000001FF
