:020000040000FA
:100000000C949C030C9434130C940D130C94E61272
:100010000C94BF120C94C4030C94C4030C94981257
:100020000C94C4030C945B130C94550F0C94C40FE4
:100030000C94C4030C94C4030C94C4030C94C40324
:100040000C94C4030C94C4030C94C4030C94C40314
:100050000C94C4030C94C4030C94C4030C944E126B
:100060000C94C4030C941C120C94F6110C94C4034D
:100070000C94C4030C94C4030C94C4030C94C403E4
:100080000C94C4030C94C4030C94C4030C94C403D4
:100090000C94C4030C94C4030C94C4030C94C403C4
:1000A0000C94C4030C94C4030C94C4032E002E00BF
:1000B00000000000240027002A002D00300000006E
:1000C000000200090F0000030401000C0000000002
:1000D000000000000000000000000000080B00020B
:1000E00002020000090400000102020000052400D1
:1000F0001001052401010104240206052406000163
:100100000705810310004009040100020A000000F5
:1001100007050202400000070583024000000403B7
:10012000090412010002EF0201404F1B0692000178
:1001300001020301537061726B46756E005370616A
:10014000726B46756E2050726F204D6963726F003E
:1001500000C2010000000E000E000C0000E10000D3
:100160000500220022002000009600000F0036004B
:1001700036003400127A00001700430043004100AB
:10018000807000001A004A004A004800004B00003E
:100190002C00710071007000403800004A009C0083
:1001A00099009900802500007200EA00EA00E90049
:1001B000C0120000E900DA01DA01D701600900008D
:1001C000D701AC03AC03B103B0040000B3036E0766
:1001D0006E0767072C010000DC0EC11DC11DBE1D8E
:1001E0000D0A000D0A004572726F7221204E6F20B9
:1001F000736F756E642066696C65732077657265D0
:1002000020666F756E642021000D0A00536F756EB5
:10021000642066696C657320696E20626F61726428
:10022000206D656D6F72793A202564000D0A0053C8
:100230006F756E642066696C657320696E20534427
:1002400020636172643A202564000D0A004A455417
:100250004978206D6F646520696E207573650D0A9D
:100260000053554D44206D6F646520696E20757391
:10027000650D0A0053524C58206D6F646520696EFD
:10028000207573650D0A0049425553206D6F6465F2
:1002900020696E207573650D0A0053425553206D19
:1002A0006F646520696E207573650D0A00435050B8
:1002B0004D206D6F646520696E207573650D0A00B1
:1002C00050574D206D6F646520696E207573650D04
:1002D0000A000D0A005368696674206D6F6465201A
:1002E0006973204F6E005368696674206D6F646592
:1002F000206973204F6666005468726F74746C6571
:10030000204368616E6E656C3A2025640D0A0058C2
:100310002D416E79204368616E6E656C3A202564CC
:100320000D0A00582D416E792053573A2025640D4F
:100330000A000D0A005374617274696E6720776950
:1003400074686F757420636F6E6669677572617427
:10035000696F6E00436F6E66696775726174696F6D
:100360006E206D6F646520697320616374697665C2
:1003700064000D0A002E005761697420526574757F
:10038000726E0058616E7932536F756E64732056C9
:10039000312E3300455252000D0A526573657420A8
:1003A000454550524F4D20446F6E650D0A000D0AB1
:1003B000576169742E2E2E0D0A004A455449782043
:1003C0006D6F646520696E207573650D0A00535565
:1003D0004D44206D6F646520696E207573650D0A4C
:1003E0000053524C58206D6F646520696E20757300
:1003F000650D0A0049425553206D6F646520696E92
:10040000207573650D0A0053425553206D6F646566
:1004100020696E207573650D0A004350504D206DA4
:100420006F646520696E207573650D0A0050574D25
:10043000206D6F646520696E207573650D0A005428
:1004400068726F74746C65204368616E6E656C3A97
:100450002025640D0A00582D416E79204368616E95
:100460006E656C3A2025640D0A00582D416E792086
:1004700053573A2025640D0A000D0A005365742075
:10048000696E204A45544978206D6F64650D0A00F5
:1004900053657420696E2053554D44206D6F64651B
:1004A0000D0A0053657420696E2053524C58206D1C
:1004B0006F64650D0A0053657420696E20494255CA
:1004C00053206D6F64650D0A0053657420696E20BA
:1004D00053425553206D6F64650D0A0053657420B7
:1004E000696E204350504D206D6F64650D0A0053B6
:1004F000657420696E2050574D206D6F64650D0A3C
:1005000000582D416E79204368616E6E656C3A200B
:10051000256420696E207573650D0A005468726F3A
:1005200074746C65204368616E6E656C3A20256456
:1005300020696E207573650D0A00E4031C041C0419
:10054000540454048C048C04C404C404FC04FC044B
:10055000340534056C056C05A405A405DC05DC0533
:10056000140614064C064C0684068406BC06BC061B
:10057000F406F4062C072C07640764079C079C0705
:10058000D4070D0A00582D416E79204661696C73BD
:1005900061666521202D3E204F757470757473203F
:1005A0003D2030000D0A002A2A2A2A2A2A2A2A2A2D
:1005B0002A2A2A2A2A2A2A2A2A2A2A2A2A002025D4
:1005C0000D0A002058616E79207175616C6974792B
:1005D000203D202564000D0A002A2A2A2A2A2A2AD8
:1005E0002A2A2A2A2A2A2A2A2A2A2A2A2A2A2A0095
:1005F0000D0A000D0A00582D416E79204C656E677A
:100600007468206F7220436865636B73756D206535
:1006100072726F7221000D0A0029202D3E2043685E
:1006200065636B206578706563746564206D6573C0
:100630007361676520636F6D706F736974696F6E46
:100640002100202852784E6962626C654C656E20EC
:100650003D256400204578704E6962626C654C658A
:100660006E3D256400582D416E79204C656E67748F
:1006700068206572726F7221000D0A000D0A000D6C
:100680000A000D0A0021212120436865636B205870
:100690002D416E79204D657373616765202121219D
:1006A0000053656C656374206F6E6C79206F6E65A6
:1006B00020582D416E792073776974636820210D6D
:1006C0000A000D0A003A2025640058616E79204224
:1006D0007574746F6E2023256400000000002500EF
:1006E00028002B002E00310000000000230026000F
:1006F00029002C002F000404040404030405020252
:1007000002020403020202020606060606060404AA
:10071000020202040404080201104080401020403C
:1007200080408008020401804020100201108010E7
:1007300020404020A113E72411241FBECFEFDAE0B0
:10074000DEBFCDBF13E0A0E0B1E0EEEDF7E502C003
:1007500005900D92A032B107D9F725E0A0E2B3E0F1
:1007600001C01D92A93FB207E1F713E0CBE9D3E046
:1007700004C02197FE010E94CF29CA39D107C9F7C9
:100780000E9401150C94E22B0C94000089B18F702B
:10079000E6E7F5E0878B868997898927858B8789A6
:1007A000868B0088F189E02D099489B18F70E6E786
:1007B000F5E0878B868997898927858B8789868B42
:1007C0000288F389E02D099489B18F70E6E7F5E09E
:1007D000878B868997898927858B8789868B06846D
:1007E000F785E02D099489B18F70E6E7F5E0878BF6
:1007F000868997898927858B8789868B0484F585E7
:10080000E02D09948F929F92AF92BF92FF920F9327
:100810001F93CF93DF934B015C01F42ECDE3D4E023
:10082000E889F98982E08083EC85FD8510820E8558
:100830001F8560E079E08DE390E0A50194010E94BE
:100840002929215031094109510956954795379574
:100850002795F8012083188EEC89FD89F082EA89BA
:10086000FB89808180618083EA89FB89808188603F
:100870008083EA89FB89808180688083EA89FB899B
:1008800080818F7D8083DF91CF911F910F91FF90A9
:10089000BF90AF909F908F900895FC018091D503F9
:1008A000882311F13FB7F89482E08093E90020910A
:1008B000F200822F90E01816190614F481E090E0FF
:1008C000882339F0289844E64093D4034091F100FE
:1008D0004083222339F02091F200211103C02BE63E
:1008E0002093E8003FBF08958FEF9FEF08952FB743
:1008F000F89483E08093E9009091E800892F80725A
:1009000095FF04C09091F20080E4891B2FBF0895E9
:100910008091CC0381110DC082E08093C80384E0F4
:100920008093C9031092CB031092CA0381E0809395
:10093000CC0388EC93E00895862720E1829FB001E4
:1009400011248627482F50E0292F382FCA0164E050
:10095000959587956A95E1F728273927CA0173E0AD
:10096000880F991F7A95E1F7822793270895409180
:1009700081035091820320917F03309180034217BD
:100980005307B4F49091E8009570E1F39091E8007A
:1009900092FD19C08093F1008091810390918203B0
:1009A00001968F739927892B19F48EEF8093E800B5
:1009B00080918103909182030196909382038093AA
:1009C000810381E0089580E00895EF92FF920F93F4
:1009D0001F93CF93DF93F82E192FE62E042F81E07B
:1009E000860F880F0E94B70483E00E94B704CF2DC2
:1009F000D12FEC0EFD2EF11CCE15DF05B9F007FF4F
:100A000013C0FE0184910E94B704182F80E00E9459
:100A1000B704812321968111EFCFDF91CF911F91F0
:100A20000F91FF90EF9008958881EDCF81E0F5CF91
:100A3000DF92EF92FF920F931F93CF93DF93D82E05
:100A40008A01EB017B01E40EF51ECE15DF0559F09E
:100A5000D7FE12C0FE0184910E94B7042196811135
:100A6000F4CF0FEF1FEFC801DF91CF911F910F91CE
:100A7000FF90EF90DF9008958881EECF0F931F9342
:100A8000CF93DF931F92CDB7DEB782E0898342E434
:100A900050E06CED70E080E80E9418050E94880428
:100AA000DC0112960D911C910115110589F0D801F8
:100AB000ED91FC910280F381E02DBE016F5F7F4FCD
:100AC000C801099597FD04C0F80100851185ECCF98
:100AD00089810F90DF91CF911F910F9108956150FF
:100AE00030F02091F100FC0120830196F8CF289886
:100AF00084E68093D4030895AF92BF92CF92DF92A1
:100B0000EF92FF920F931F93CF93DF936C017B01C2
:100B10008B01040F151FEB015E01AE18BF08C01753
:100B2000D10759F06991D601ED91FC910190F081C6
:100B3000E02DC6010995892B79F7C501DF91CF9189
:100B40001F910F91FF90EF90DF90CF90BF90AF90EB
:100B50000895FC01538D448D252F30E0842F90E0C3
:100B6000821B930B541710F0CF96089501970895A8
:100B7000FC01918D828D981761F0A28DAE0FBF2F71
:100B8000B11D5D968C91928D9F5F9F73928F90E0C7
:100B900008958FEF9FEF0895FC01918D828D981736
:100BA00031F0828DE80FF11D858D90E008958FEF73
:100BB0009FEF0895FC01918D228D892F90E0805C3C
:100BC0009F4F821B91098F73992708958DE394E0BD
:100BD0000E94DA0521E0892B09F420E0822F089594
:100BE00080E090E0892B29F00E94E60581110C94A9
:100BF00000000895FC01A48DA80FB92FB11DA35AC0
:100C0000BF4F2C91848D90E001968F739927848F2C
:100C1000A689B7892C93A089B1898C9182748C9311
:100C2000938D848D981306C00288F389E02D80810E
:100C30008F7D80830895EF92FF920F931F93CF9340
:100C4000DF93EC0181E0888F9B8D8C8D981319C008
:100C5000E889F989808185FF14C09FB7F894EE89EF
:100C6000FF896083E889F9898081827480839FBFCE
:100C700081E090E0DF91CF911F910F91FF90EF9075
:100C80000895F62E0B8D10E00F5F1F4F0F73112785
:100C9000E02E8C8D8E110CC00FB607FCFACFE889C0
:100CA000F989808185FFF5CFCE010E94FA05F1CF49
:100CB000EB8DEC0FFD2FF11DE35AFF4FF0829FB734
:100CC000F8940B8FEA89FB8980818062CFCFCF9324
:100CD000DF93EC01888D8823B9F0AA89BB89E88964
:100CE000F9898C9185FD03C0808186FD0DC00FB60A
:100CF00007FCF7CF8C9185FFF2CF808185FFEDCF88
:100D0000CE010E94FA05E9CFDF91CF910895CF93EC
:100D1000DF931F92CDB7DEB76983DC01ED91FC91C3
:100D20000280F381E02D41E050E0BE016F5F7F4F14
:100D300009950F90DF91CF9108950F931F93CF9353
:100D4000DF938C01D0E0C0E0F801EC0FFD1F64914F
:100D5000662341F08AED94E00E948706892B11F00A
:100D60002196F2CFCE01DF91CF911F910F9108957F
:100D700083E08093E9008091F200882319F08AE3F0
:100D80008093E80008950E94770490E00895CF933F
:100D9000DF931F92CDB7DEB7FC018485958597FD63
:100DA00008C02FEF3FEF358724870F90DF91CF9159
:100DB0000895CE0101960E944D04019719F489818E
:100DC00090E0F3CF8FEF9FEFF0CF0F931F93CF9370
:100DD000DF931F92CDB7DEB78C01FC01848595852A
:100DE00097FF0BC0CE0101960E944D04019771F44C
:100DF000898190E0F80195878487F801848595853D
:100E00000F90DF91CF911F910F9108958FEF9FEF7A
:100E1000F1CFFC018485958597FD0BC09FB7F894B1
:100E200082E08093E9008091F2009FBF90E00196FC
:100E300008959FB7F89482E08093E9008091F200D2
:100E40009FBF90E0089581508F3008F047C0E82F91
:100E5000F0E0E35DF84F0C94CF294A074E073C07BA
:100E6000420746076E076E076E07510757075B0775
:100E70005F0765076E076907809180008F77809311
:100E800080000895809180008F7DF9CF809180004F
:100E9000877FF5CF84B58F7784BD089584B58F7D26
:100EA000FBCF809190008F77809390000895809180
:100EB00090008F7DF9CF80919000877FF5CF809152
:100EC000C0008F778093C00008958091C0008F7D0F
:100ED000F9CF8091C200877F8093C2000895CF939D
:100EE000DF93282F30E0F901E254FF4F8491F9019C
:100EF000EB5EF84FD491F901EA50F94FC491CC233D
:100F0000A1F081110E942307EC2FF0E0EE0FFF1FEC
:100F1000E851F94FA591B491EC91ED2381E090E077
:100F200009F480E0DF91CF91089580E090E0FACF5E
:100F30001F93CF93DF93282F30E0F901E254FF4F46
:100F40008491F901EB5EF84FD491F901EA50F94F21
:100F5000C491CC23A9F0162F81110E942307EC2FF6
:100F6000F0E0EE0FFF1FE652F94FA591B4918FB755
:100F7000F894EC91111108C0D095DE23DC938FBF5B
:100F8000DF91CF911F910895DE2BF8CFCF93DF93A0
:100F900090E0FC01EB5EF84F24918A50994FFC01E0
:100FA00084918823D1F090E0880F991FFC01E055CF
:100FB000FF4FA591B491FC01E652F94FC591D49130
:100FC00061110EC09FB7F8948C91E22FE0958E23AB
:100FD0008C932881E223E8839FBFDF91CF9108950E
:100FE0008FB7F894EC91E22BEC938FBFF6CF3FB71D
:100FF000F89480917B0390917C03A0917D03B09144
:101000007E0326B5A89B05C02F3F19F00196A11DB0
:10101000B11D3FBFBA2FA92F982F8827BC01CD0142
:10102000620F711D811D911D42E0660F771F881FA1
:10103000991F4A95D1F708958F929F92AF92BF92D0
:10104000CF92DF92EF92FF924B015C010E94F70773
:101050006B017C010E94F7076C197D098E099F09BD
:10106000683E734081059105A8F321E0821A91083A
:10107000A108B10888EEC80E83E0D81EE11CF11C5F
:1010800081149104A104B10429F7FF90EF90DF903F
:10109000CF90BF90AF909F908F900895CF93C091C5
:1010A00010016AE070E080E090E00E941C0881E09E
:1010B000C11101C080E0CF9108958F929F92AF92AD
:1010C000BF92CF92DF92EF92FF920F931F93CF9335
:1010D000DF936C017B018A0180911001882309F460
:1010E0005CC08091D503882309F457C080918503A3
:1010F00080FF05C08091E00082608093E000E801FD
:10110000B12C8AEFA82E93E0892E2AE3922E209705
:1011100011F4BB20D9F10E94770481110AC0AA946E
:10112000AA20D9F161E070E080E090E00E941C0804
:10113000EECF8C171D0611F00CF08C2F9FB7F89492
:101140008092E9002091E80025FD02C09FBFDFCF1B
:10115000282F30E0C21BD30BF701815020F04191C2
:101160004093F100FACFE20EF31EBB2021F09092E3
:10117000E800B12CEBCF8091E80085FDE7CF90929D
:10118000E800BB24B394209709F3F3CF5D9884E67D
:1011900080938403101611063CF081E090E0F60184
:1011A0009383828310E000E0C801DF91CF911F910B
:1011B0000F91FF90EF90DF90CF90BF90AF909F90F6
:1011C0008F9008952FB7F89460917703709178030A
:1011D0008091790390917A032FBF08950895DC01DF
:1011E0005196ED91FC915297908150968C918095FB
:1011F0008923808308952091A2033091A3032817A7
:10120000390781F49091A0038091A103981751F0C0
:10121000E091A003F0E0EA5CFC4F8081082E000C16
:10122000990B08958FEF9FEF08952091A2033091BD
:10123000A3032817390739F48FB7F8941092A10344
:101240001092A0038FBF08952091A2033091A303B1
:101250002817390771F48091A1032091A00390E031
:10126000805C9F4F821B910960E470E00E94BB2963
:10127000089590E080E008958F929F92AF92BF9280
:10128000CF92DF92EF92FF92CF93DF936B017C01BD
:101290000E94E2084B015C0187ED95E00E94240961
:1012A000EC01892B59F40E94E208681979098A092E
:1012B0009B096C157D058E059F0570F3CE01DF91AE
:1012C000CF91FF90EF90DF90CF90BF90AF909F9025
:1012D0008F9008952091A2033091A3032817390716
:1012E000B9F49091A0038091A103981789F0E0913F
:1012F000A003F0E0EA5CFC4F80812091A00330E085
:101300002F5F3F4F2F7333272093A00390E0089562
:101310008FEF9FEF089520E001972FEF8F3F920707
:10132000D9F70895EF92FF920F931F93CF93DF9316
:10133000C091A203D091A303209749F0EE85FF85C9
:101340009D858B8D81FF0AC08081892351F4DF91B7
:10135000CF911F910F91FF90EF9008958081892385
:10136000B1F78B899C890E948B0988E0E82EF12CCB
:1013700010E001E08D899E890E948B09EE85FF8532
:1013800080819D85892339F1102B000F81E0E81AB7
:10139000F10881F78F89988D0E948B098B8D81FDD3
:1013A00010958091A1032091A00390E001968F7386
:1013B00099272817190699F0E091A103F0E0EA5C5B
:1013C000FC4F10838091A10390E001968F739927C1
:1013D0008093A103BCCF802F80951823D6CF8B8D0F
:1013E00081608B8FB4CF962728E0AC01880F991FBE
:1013F00057FF04C031E2832730E193272150A9F73A
:10140000089508956150603140F5FC0124812F70EA
:1014100059F0253010F570E0660F771F680F791FBF
:10142000FB0181A592A5089570E0660F771F680FF4
:10143000791FFB0121A532A5A0E0B5E00E94AC29EF
:101440002FEF37E040E050E00E944B29DA01C9015C
:1014500080599C4FAF4FBF4F08958CED95E0089594
:10146000FC01E55BFF4F9081492F50E0062E02C042
:10147000559547950A94E2F7DA01A170BB2740FF22
:1014800009C021E030E001C0220F6A95EAF72095FB
:10149000292320838A2F0895BF92CF92DF92EF9263
:1014A000FF920F931F93CF93DF930E94F7076B0177
:1014B0007C01C0918703D0918803BB24BA9401E0DA
:1014C00010E0209709F458C08D818370D1F52091E8
:1014D0007F05422F50E08C81843048F48823C1F18D
:1014E000813099F18230B9F522E030E01AC098EFEE
:1014F000980F682F6450770B943058F08E3029F194
:101500008F3091F3803121F1813129F1682F6651BB
:10151000770B9B01B80102C0660F771F2A95E2F78F
:101520009B0124233523232B61F00E946F079D81AB
:1015300092FB992790F9981789F0CA86DB86EC868A
:10154000FD860A80DB81C02DBCCF28E030E0E9CFEA
:1015500024E030E0E6CF21E030E0E3CF8A859B85D0
:10156000AC85BD859601281B390B3F872E87B88A2D
:101570000E94E208698BE5CFDF91CF911F910F9117
:10158000FF90EF90DF90CF90BF900895BF92CF92E1
:10159000DF92EF92FF920F931F93CF93DF930E94FE
:1015A000F7076B017C01C0918703D091880301E0AC
:1015B00010E0BB24BA94209709F459C08D81837040
:1015C0008130D1F520918B05422F50E08C81843001
:1015D00048F48823C1F1813099F18230B9F522E0D5
:1015E00030E01AC098EF980F682F6450770B943052
:1015F00058F08E3029F18F3091F3803121F1813113
:1016000029F1682F6651770B9B01B80102C0660F64
:10161000771F2A95E2F79B0124233523232B61F0C2
:101620000E946F079D8192FB992790F9981789F086
:10163000CA86DB86EC86FD860A80DB81C02DBBCFA7
:1016400028E030E0E9CF24E030E0E6CF21E030E0F0
:10165000E3CF8A859B85AC85BD859601281B390B18
:101660003F872E87B88A0E94E208698BE5CFDF9119
:10167000CF911F910F91FF90EF90DF90CF90BF908F
:101680000895FC01868597852685378582179307FF
:10169000C9F70895FC01808990E0062E02C0959557
:1016A00087950A94E2F780FF1CC0208981E090E0D2
:1016B00001C0880F6A95EAF780958223808B268582
:1016C00037858685978528173907C9F786819781D9
:1016D0002817390730F081E04085518542175307BC
:1016E00008F480E00895E0919F036E2F70E04CE0D5
:1016F000E49FF0011124EA58FA4F41858091890353
:10170000843060F4882309F464C0813009F45BC03C
:10171000823009F45BC081E090E010C098EF980F30
:10172000943008F044C08450990B21E030E0F90176
:1017300002C0EE0FFF1F8A95E2F7CF012CE0269F33
:10174000F001279FF00D1124EA58FA4F2385242336
:1017500030E082239323892B09F45BC00E94F707B2
:101760002091340330913503AB01421B530B9A0196
:101770007093350360933403283B5BE03507B8F181
:1017800020918C0320938B0310928C032FEF2093D6
:101790008A032091330331E0211130E03093330389
:1017A00021111AC0709332036093310308958E3073
:1017B00051F08F3059F0803161F0813109F4ABCFB5
:1017C0008651990BB2CF88E090E0B8CF82E090E0EC
:1017D000B5CF84E090E0B2CF209131033091320355
:1017E000621B730B7093300360932F0308958091F5
:1017F0008C03893070F4E0918C03F0E0EE0FFF1F52
:10180000E357FC4F3183208380918C038F5F80935B
:101810008C030895662399F080918B03861778F0E6
:101820006150E62FF0E0EE0FFF1FE357FC4F808181
:1018300091812081318182179307C9F708958CED3A
:1018400095E0089520918A0330E0062E02C0359578
:1018500027950A94E2F7C9018170992720FF0CC0EF
:1018600040918A0321E030E001C0220F6A95EAF737
:101870002095242320938A030895CF92DF92EF923C
:10188000FF926B017C010E94E208C60ED71EE81E83
:10189000F91EC0922B03D0922C03E0922D03F092FC
:1018A0002E030E94E2086C157D058E059F05C8F386
:1018B000FF90EF90DF90CF9008950F931F93CF93F9
:1018C0008C01C0E0C017110684F46AEF70E080E07C
:1018D00090E00E943D0C28986DE770E080E090E079
:1018E0000E943D0C289ACF5FEDCFCF911F910F91B1
:1018F000089590E080E00895DF92EF92FF920F93B9
:101900001F93CF93DF93EC01898D9A8D892B71F40E
:1019100081E090E09B838A8390E080E0DF91CF912B
:101920001F910F91FF90EF90DF900895162FDFB673
:10193000F8948B8D81FD28C0CE010E94EF08898D1F
:101940009A8D0E948B098B8D98E0E92EF12C01E095
:1019500081FF28C0812F8023F1F0CE010E94EF0883
:10196000898D9A8D0E948B09000F81E0E81AF10899
:1019700089F7CE010E94EF08DFBE898D9A8D0E9403
:101980008B0981E090E0CACFE989FA898081988942
:10199000892B8083D4CFE989FA8980819889892B22
:1019A0008083DECF812F8023B1F0E989FA8980819D
:1019B0009889892B8083898D9A8D0E948B09000FCD
:1019C00081E0E81AF10871F7E989FA89808198893C
:1019D000892B8083D1CFCE010E94EF08ECCFCF922C
:1019E000DF92EF92FF920F931F93CF93DF93E82E36
:1019F000C62ED42EE901EDEFE80FF12CE03120F4F2
:101A0000F0E0E75DFE4FF0806AE070E080E090E09B
:101A10000E943C09892B29F087ED95E00E946A0914
:101A2000F3CF6EE787ED95E00E947C0C62E06F0DCE
:101A300087ED95E00E947C0C6E2D87ED95E00E946D
:101A40007C0CFF2069F06C2D87ED95E00E947C0CEA
:101A500082E0F81205C06D2D87ED95E00E947C0CA8
:101A60006FEE87ED95E00E947C0C209749F0011500
:101A7000110531F0A80170E060E0CE010E94D42B86
:101A800068EE73E080E090E00E943C09F12CE12CCC
:101A90000150110966E970E080E090E00E943C0985
:101AA000892B89F087ED95E00E946A09209791F3D0
:101AB000E016F10678F7FE01EE0DFF1D8083C701E9
:101AC00001967C01E7CFDF91CF911F910F91FF909D
:101AD000EF90DF90CF9008950F931F9310E000E0F8
:101AE00030E020E0482F692F83E00E94EF0C1F9127
:101AF0000F9108950F931F93CF93DF9300D000D0E1
:101B00001F92CDB7DEB705E010E09E012F5F3F4F7B
:101B100040E060E00E94EF0C40E150E070E060E0E7
:101B2000CE0101960E943125CB010F900F900F90AE
:101B30000F900F90DF91CF911F910F910895FC01AD
:101B400001900020E9F73197AF01481B590BBC0108
:101B50008AED94E00C945D080C949F0DCF93DF9375
:101B60000E949F0DEC018DE193E00E949F0D8C0F70
:101B70009D1FDF91CF9108958F929F92AF92BF9258
:101B8000CF92DF92EF92FF920F931F93CF93DF9349
:101B9000C82F10E000E08AECC82E86E0D82ED4E6EC
:101BA00097EDE92E93E0F92E8C2E912C25ECA22EA8
:101BB00026E0B22E00933C040E944E080F5F1F4F98
:101BC0008823B9F01F930F93DF92CF921F92DF9378
:101BD000FF92EF920E94522687ED93E00E94AC0D97
:101BE0002DB73EB7285F3F4F0FB6F8943EBF0FBEEC
:101BF0002DBF0E944E08882309F180913C04940176
:101C000002C0359527958A95E2F7C9018170992719
:101C10009F938F93BF92AF921F92DF93FF92EF92A9
:101C20000E94522687ED93E00E94AC0D8DB79EB7BF
:101C300008960FB6F8949EBF0FBE8DBF0E944E0847
:101C4000882321F082EC96E00E949D060830110561
:101C500009F0B0CF04E010E082E40E947A0D8823FE
:101C600061F0180F0150C1F7143011F0183091F7DE
:101C700016951695113009F44FC08FEF8C0F8230F6
:101C800088F0C43029F1C83041F1C03159F1C03277
:101C900071F1C03489F1C038A1F58091D60390E08C
:101CA000089606C08091D60390E0C23079F0019684
:101CB000DF91CF911F910F91FF90EF90DF90CF9028
:101CC000BF90AF909F908F900C946C0D0296F0CFC8
:101CD0008091D60390E00396EBCF8091D60390E0FD
:101CE0000496E6CF8091D60390E00596E1CF8091EF
:101CF000D60390E00696DCCF8091D60390E007965D
:101D0000D7CFC11116C010E000E030E020E040E085
:101D100060E08EE00E94EF0CDF91CF911F910F9158
:101D2000FF90EF90DF90CF90BF90AF909F908F90FB
:101D300008950E944E08882379F381EA96E0DF91A6
:101D4000CF911F910F91FF90EF90DF90CF90BF90B8
:101D5000AF909F908F900C949D06DF92EF92FF9230
:101D60000F931F93CF93DF938C01D62ED42F7C013A
:101D7000C0E0CD1589F0CC2341F00E944E088823A5
:101D800021F08EEA90E00E949D06F70181917F018B
:101D90000E94BC0DCF5FEDCFDD23B9F0CC2341F025
:101DA0000E944E08882321F08CEA90E00E949D0654
:101DB000C00FD12FD11D8881DF91CF911F910F913D
:101DC000FF90EF90DF900C94BC0DDF91CF911F91AD
:101DD0000F91FF90EF90DF9008950C940B290C94D5
:101DE00003290F931F93CF93DF93EC01888199818F
:101DF000009759F02A813B812617370730F081E0A0
:101E0000DF91CF911F910F9108958B016F5F7F4FED
:101E10000E940E2B009759F0998388831B830A83B5
:101E20002C813D81232B59F7FC011082E8CF80E003
:101E3000E7CFEF92FF920F931F93CF93DF93EC01C5
:101E40007B01198218821B821A821D821C82FB016F
:101E500001900020E9F731978F01061B170BB8019D
:101E60000E94F10E28813981811113C0211531059D
:101E700019F0C9010E94852A198218821D821C82CC
:101E80001B821A82DF91CF911F910F91FF90EF90EB
:101E900008951D830C83B701C901DF91CF911F9174
:101EA0000F91FF90EF900C94DB2B1F920F920FB6C7
:101EB0000F9211248F939F938091E1009091E10004
:101EC000937F9093E10083FF0FC01092E90091E0AF
:101ED0009093EB001092EC0092E39093ED0010923F
:101EE000D50398E09093F00082FF22C093E0909396
:101EF000E9009091F200992319F09AE39093E80099
:101F000090918403992341F0909184039150909390
:101F10008403911101C05D9A9091D403992341F0FB
:101F20009091D40391509093D403911101C0289AB9
:101F300084FF18C08091E2008E7E81608093E20071
:101F40008091E1008F7E8093E100809185038E7EF9
:101F50008061809385039F918F910F900FBE0F90AA
:101F60001F90189580FFF7CF8091E2008E7E8061F0
:101F70008093E2008091E1008E7E8093E100809169
:101F800085038E7E8160E5CF1F920F920FB60F9270
:101F90001124CF92DF92EF92FF920F931F932F9312
:101FA0003F934F935F936F937F938F939F93AF93E1
:101FB000BF93EF93FF93CF93DF93CDB7DEB76C97CB
:101FC000DEBFCDBF1092E9008091E80083FF25C0FD
:101FD00068E0CE0145960E946F0582EF8093E8008D
:101FE0008D8987FF39C09091E80090FFFCCF982F32
:101FF000907609F034C19E894F89588D2F89F88CCD
:10200000911131C0803861F5809186038093F10091
:102010001092F1008EEF8093E8006C960FB6F89462
:10202000DEBF0FBECDBFDF91CF91FF91EF91BF918A
:10203000AF919F918F917F916F915F914F913F9160
:102040002F911F910F91FF90EF90DF90CF900F9005
:102050000FBE0F901F9018959EEF9093E800C7CF8A
:102060001092F100D5CF913059F48111D3CF413086
:10207000510581F6809186038D7F80938603CACFB8
:10208000933049F48111C6CF4130510519F6809142
:1020900086038260F2CF953041F48091E80080FFA2
:1020A000FCCF20682093E300B5CF963009F0A9C09B
:1020B0000B8D1C8D22E01092E90010928203109289
:1020C0008103F2122EC01092800310927F030E94AF
:1020D0003E051F8299E09983FA8291E09E8390EAFF
:1020E00098879AEF99872091810330918203275F27
:1020F0003F4F3C832B838D831092E9001092820323
:10210000109281031093800300937F0349E050E015
:10211000BE016F5F7F4F80E00E9418050E943E0560
:1021200079CF1093800300937F030E948804DC0121
:1021300012960D911C910115110509F451C1D80198
:10214000ED91FC910480F581E02DBE016B5E7F4F27
:10215000C8010995009709F03EC1F8010085118575
:10216000EACFF3E0FF120EC08F89882309F440C044
:10217000823061F440E862E18DE391E00E94E50481
:10218000811148CF81E28093EB0047CF813029F461
:1021900040E868E084E391E0F1CF833099F70E9452
:1021A0008804DC011296ED90FC908E010F5F1F4FAA
:1021B0006801E114F10479F0D701ED91FC910680FA
:1021C000F781E02DB801C7010995080F111DF7012E
:1021D000E084F184EECFD8011C92F601019000203A
:1021E000E9F73197BF016C197D0940E0C601C6CF00
:1021F0006EE171E0FB01449150E080E80E94180517
:1022000009CF973009F4BECF983021F481E0809354
:10221000F10000CF993009F0FDCE837009F0B2CF04
:10222000E3E2F1E081E031E096E32191222371F0D5
:102230008093E9003093EB00DF0111972C912093FC
:10224000EC009093ED008F5F873079F78EE78093F5
:10225000EA001092EA008F898093D503DBCE8B8D44
:102260009C8D1092E900109282031092810390934A
:10227000800380937F03898D811192C08E899D890F
:10228000913A49F4813209F07DCF47E050E069E0AE
:1022900071E080E0B3CF913209F074CF833269F4FA
:1022A0008F89988DB0E0A0E08093040190930501A0
:1022B000A0930601B0930701ADCE803269F48091FE
:1022C000E80082FFFCCF67E089E091E00E946F05A3
:1022D0008BEF8093E8009ECE823209F09BCE8F89EF
:1022E00080931001EEEFFFE7859194918B3F9C4D19
:1022F00051F1E0E0F8E08091090190910A01A0918C
:102300000B01B0910C01803B9440A105B105F1F4A3
:102310008091100180FD1AC0EE3F8AE0F80789F530
:1023200087E797E7918380838091600080938303A0
:1023300088E19BE00FB6F894A895809360000FBEEB
:102340009093600067CEEEEFFAE0D5CF8081918167
:102350008737974709F05ECEA89580916000886125
:10236000809360008091830380936000EE3F2AE0B9
:10237000F20789F08091FE0A9091FF0A9183808391
:1023800049CE808191818737980751F29093FF0A57
:102390008093FE0AC5CF1092FF0A1092FE0A3ACE31
:1023A0000E948804DC0112960D911C910115110503
:1023B00009F4E8CED801ED91FC910190F081E02D77
:1023C000BE016B5E7F4FC8010995811123CEF801D4
:1023D00000851185EBCF181619060CF41BCED2CE52
:1023E000F1E0FF12BECE62E271E004CF1F920F92C5
:1023F0000FB60F9211242F933F934F935F936F93D8
:102400007F938F939F93AF93BF93EF93FF938DE34E
:1024100094E00E94FA05FF91EF91BF91AF919F91D7
:102420008F917F916F915F914F913F912F910F907D
:102430000FBE0F901F9018951F920F920FB60F921C
:1024400011242F938F939F93EF93FF93E0914D046B
:10245000F0914E048081E0915304F091540482FD88
:102460001BC09081809156048F5F8F732091570419
:10247000821741F0E0915604F0E0E35CFB4F958F4A
:1024800080935604FF91EF919F918F912F910F9020
:102490000FBE0F901F9018958081F4CF1F920F925E
:1024A0000FB60F9211242F933F938F939F93AF9367
:1024B000BF938091770390917803A0917903B091B5
:1024C0007A033091760323E0230F2D3758F50196D8
:1024D000A11DB11D20937603809377039093780319
:1024E000A0937903B0937A0380917B0390917C034E
:1024F000A0917D03B0917E030196A11DB11D809333
:102500007B0390937C03A0937D03B0937E03BF91E4
:10251000AF919F918F913F912F910F900FBE0F9090
:102520001F90189526E8230F0296A11DB11DD2CF4A
:102530001F920F920FB60F9211242F933F934F9338
:102540005F936F937F938F939F93AF93BF93EF931B
:10255000FF93E0911901F0911A010995FF91EF9114
:10256000BF91AF919F918F917F916F915F914F91AB
:102570003F912F910F900FBE0F901F9018951F92B3
:102580000F920FB60F9211242F933F934F935F93A7
:102590006F937F938F939F93AF93BF93EF93FF932B
:1025A000E0911701F09118010995FF91EF91BF910A
:1025B000AF919F918F917F916F915F914F913F91DB
:1025C0002F910F900FBE0F901F9018951F920F9292
:1025D0000FB60F9211242F933F934F935F936F93F6
:1025E0007F938F939F93AF93BF93EF93FF93E0916C
:1025F0001501F09116010995FF91EF91BF91AF91EF
:102600009F918F917F916F915F914F913F912F910A
:102610000F900FBE0F901F9018951F920F920FB63C
:102620000F9211242F933F934F935F936F937F9358
:102630008F939F93AF93BF93EF93FF93E091130119
:10264000F09114010995FF91EF91BF91AF919F9186
:102650008F917F916F915F914F913F912F910F904B
:102660000FBE0F901F9018951F920F920FB60F92EA
:1026700011242F933F934F935F936F937F938F9387
:102680009F93AF93BF93EF93FF93E0911101F0916C
:1026900012010995FF91EF91BF91AF919F918F9199
:1026A0007F916F915F914F913F912F910F900FBE4E
:1026B0000F901F9018951F920F920FB60F92112432
:1026C0002F933F934F935F936F937F938F939F933A
:1026D000AF93BF93CF93EF93FF9383B190916B0030
:1026E00089238093810580918005909181058927B8
:1026F00080937F058091810580938005C0E0809163
:102700007E05C81760F4EC2FF0E0EE0FFF1FEA58CB
:10271000FA4F0190F081E02D0995CF5FF0CFFF9146
:10272000EF91CF91BF91AF919F918F917F916F91D9
:102730005F914F913F912F910F900FBE0F901F907F
:102740001895CF93DF931092400410923F0488EEC7
:1027500093E0A0E0B0E08093410490934204A09302
:102760004304B09344042DE331E030933E042093BE
:102770003D042DEC30E030934A04209349042CECC6
:1027800030E030934C0420934B0428EC30E030933D
:102790004E0420934D0429EC30E0309350042093F4
:1027A0004F042AEC30E030935204209351042EEC75
:1027B00030E0309354042093530410925604109246
:1027C000570410925804109259041092DD0410928C
:1027D000DC048093DE049093DF04A093E004B093C4
:1027E000E1042FE431E03093DB042093DA042FEF8F
:1027F0003FEF3093E7042093E60421E631E0309385
:102800002B0520932A0510922D0510922C0510926D
:1028100030051092320510927505E3E5F5E020E2EF
:10282000EF0119922A95E9F71092DA051092D9056D
:102830008093DB059093DC05A093DD05B093DE0566
:102840008FE791E09093D8058093D7051092EB0520
:102850001092EA051092ED051092EC051092EF052A
:102860001092EE051092F1051092F0058091F2059C
:102870008E7F8D7F8093F20560E088E00E94C6071E
:102880008091F20581FD04C061E088E00E94980714
:1028900088E08093E305EDE1F7E084918093E4051F
:1028A000EEEFF6E0E491F0E0EE0FFF1FE851F94F94
:1028B000259134913093E6052093E505EEE1F7E0AC
:1028C000E491E093E705E81741F061E089E00E94B8
:1028D000C60761E089E00E949807EFEFF6E0E49117
:1028E000F0E0EE0FFF1FE652F94F8591949190931F
:1028F000E9058093E80590E080E0FC01EE0FFF1F02
:10290000EA58FA4F2081318122593940C1F00196AD
:102910008430910591F780917E05843080F4E091B8
:102920007E05F0E0EE0FFF1FEA58FA4F82E999E0CA
:102930009183808380917E058F5F80937E058FE7F2
:1029400091E09093D8058093D7050E94E2086093A8
:10295000D3057093D4058093D5059093D6050E9436
:10296000E2086093CF057093D0058093D1059093D2
:10297000D2050E94E2086093CB057093CC0580934A
:10298000CD059093CE0585E791E09093BA058093AD
:10299000B9058091BE058B7F8093BE0590911B0188
:1029A0008091B60529EB35E03093AF052093AE0555
:1029B0009F71906C9093AD051092B5059091B705FD
:1029C0002091B805207F29602093B80580719C77FD
:1029D00092609093B70580628F7E8093B6051092C7
:1029E000B1051092B2058BE691E09093AC0580930F
:1029F000AB0560E975E085EA95E0DF91CF910C9435
:102A0000190FCF93DF93CDB7DEB7A9970FB6F89420
:102A1000DEBF0FBECDBF789484B5826084BD84B51F
:102A2000816084BD85B5826085BD85B5816085BDC9
:102A300080916E00816080936E0010928100809181
:102A40008100826080938100809181008160809309
:102A5000810080918000816080938000809191004E
:102A600082608093910080919100816080939100B9
:102A7000809190008160809390008091C10084607B
:102A80008093C1008091C10082608093C1008091D9
:102A9000C10081608093C1008091C30081608093F8
:102AA000C3008091C00082608093C0008091C2000A
:102AB00081608093C20080917A00846080937A0064
:102AC00080917A00826080937A0080917A008160A0
:102AD00080937A0080917A00806880937A001092C7
:102AE000D50310928603109285038091D7008160F0
:102AF0008093D70080EA8093D80089B5806189BD32
:102B000089B5826089BD09B400FEFDCF61E070E047
:102B100080E090E00E941C088091D8008F7C80614A
:102B20008093D8008091E000807F8093E0008091C6
:102B3000E1008E7E8093E1008DE08093E200559A63
:102B4000209A61E081E10E94C6078FEF9FEF90938A
:102B5000E7048093E6040E944E088823E1F383E8AB
:102B600093E00E949D068DE193E00E949F0D90E00E
:102B700080E00E94EF0E8093A80381E090E00E9425
:102B8000EF0E8093B20382E090E00E94EF0E8093FC
:102B90001B0183E090E00E94EF0E8093A703811158
:102BA00045C11092D60384E090E00E94EF0E80931E
:102BB00008018091B30381119CC06FE173E0CE01E5
:102BC00001960E94190F0E944E08882321F087E782
:102BD00093E00E949D060E94E2080091CF051091AB
:102BE000D0052091D1053091D205601B710B820B6D
:102BF000930B693873418105910508F074C00E94F8
:102C0000E2080091CB051091CC052091CD053091C3
:102C1000CE05601B710B820B930B683E73408105E0
:102C2000910590F00E944E08882321F085E793E0FB
:102C30000E949D060E94E2086093CB057093CC052C
:102C40008093CD059093CE058AED94E00E9409070C
:102C5000181619060CF0BFCF8AED94E00E94C70643
:102C6000F82E8AA31BA20D811E810F5F1F4FB80192
:102C7000CE0101960E94F10E882369F029813A81E4
:102C80008D819E81BE016E5D7F4F820F931F0E94DA
:102C9000DB2B1E830D834DE0F4129DCFC980DA80BB
:102CA000C114D10439F00D811E8176010115110581
:102CB00009F0C1C070E060E0CE0101960E94F10E03
:102CC00029813A818111EDC02115310519F0C90121
:102CD0000E94852A1A8219821E821D821C821B82F2
:102CE00081E08093B30389819A81009711F00E945B
:102CF000852A0E944E08882321F082E793E00E94F3
:102D00009D068091B303882309F4D3C00E944E0826
:102D1000882321F084E593E00E949D060E944E08DE
:102D2000882321F082E393E00E949D060E944E08D2
:102D30008823D1F08091A8031F928F9383E293E0C0
:102D40009F938F931F9284E68F9387ED93E09F93D9
:102D50008F930E94522687ED93E00E94AC0D0FB630
:102D6000F894DEBF0FBECDBF0E944E088823D1F07D
:102D700080911B011F928F938FE093E09F938F931D
:102D80001F9284E68F9387ED93E09F938F930E9429
:102D9000522687ED93E00E94AC0D0FB6F894DEBF8B
:102DA0000FBECDBF0E944E088823D1F0809108014C
:102DB0001F928F9388EF92E09F938F931F9284E6E8
:102DC0008F9387ED93E09F938F930E94522687ED18
:102DD00093E00E94AC0D0FB6F894DEBF0FBECDBFDE
:102DE0008091A70381116DC00E944E08882321F0B5
:102DF00086EE92E00E949D060E944E08882321F0F4
:102E000082ED92E00E949D06E091B203E150E7302E
:102E100008F0E5C0F0E0E15FF84E0C94CF296917A7
:102E2000231A9A1AE21A231B641BA51B85E08093C0
:102E3000D603B9CE750157015FEFA51AB50AD701C0
:102E40008C91082E000C990B0E943A26892B91F741
:102E5000015011090C0D1D1DF8018081082E000C78
:102E6000990B0E943A26892B31F00E151F0518F098
:102E700001501109F1CF0F5F1F4FA8014E195F09D3
:102E80005E834D83CE14DF0420F4B701C6010E9497
:102E9000CB2BE981FA818D819E81E80FF91F108289
:102EA00009CF1E821D826FE173E0C9010E94DB2BF6
:102EB00017CF0E944E08882309F430CF85E393E0B2
:102EC0002BCF0E944E08882309F496CF85ED92E01F
:102ED00091CF81E090E00E945D0C0E944E08882313
:102EE00021F080EC92E00E949D068091B303811155
:102EF000CBC180911B0129EB35E03093AF052093C6
:102F0000AE058F71806C8093AD051092B5058091F0
:102F1000B6059091B7054091B805407F4960409350
:102F2000B80583719C7792609093B70580628F7E1D
:102F30008093B6051092B1051092B2058091BE053E
:102F40008C7F81608093BE0546EC5AE050938705E4
:102F50004093860546EC53E05093160140931501CB
:102F6000909169009F7C906190936900EA9A8C7FB0
:102F700081608093BE051092BD0588E592E0909334
:102F8000C0058093BF0580E699E09093C2058093C9
:102F9000C10580918703909188039093BC0580932D
:102FA000BB05309388032093870360E080E00E9494
:102FB000C60761E08091BD050E9498078091BD051C
:102FC000843008F0E6C19DB3882309F4DCC1813068
:102FD00009F4DBC1823009F0DAC1892B8DBB809105
:102FE000B303811151C11092F1051092F0051092B6
:102FF000EF051092EE051092ED051092EC0510927F
:10300000EB051092EA0590E080E0FC01E05BFE4FEA
:10301000459155916591749140385542610571050E
:1030200009F0D4C3FC01EC5AFE4F25913491309342
:10303000EB052093EA05FC01EA5AFE4F25913491F5
:103040003093ED052093EC05FC01E85AFE4F2591E5
:1030500034913093EF052093EE05FC01E65AFE4FC4
:10306000859194919093F1058093F0058091EE0500
:103070009091EF05892B09F454C08091E30528EF66
:10308000280F243048F092EF980F943028F096EEF5
:10309000980F933008F03FC090916800243048F0BA
:1030A00022EF280F243028F08A51F0E0E0E083304E
:1030B00010F4E8E6F0E0916090839091E30538EF3A
:1030C000390F343050F082EF890F843030F086EEC3
:1030D000890FF0E0E0E0833010F4EBE6F0E02081CF
:1030E000343008F079C381E0692F6450770BAB016D
:1030F00001C0880F4A95EAF7822B343048F022EF5E
:10310000290F243028F09A51F0E0E0E0933010F4D9
:10311000EBE6F0E080838091F0059091F1050E944C
:103120008B098091A2039091A303875D954091F054
:103130008091F2058E7F8093F2058FB7F8941092FC
:10314000A1031092A00327ED35E03093A303209351
:10315000A2038FBF2CE0A22E22E0B22E34E6732E03
:1031600047EDE42E43E0F42E5FE2852E52E0952EEB
:103170008091A4039091A503892B09F085C010E0EC
:1031800000E030E020E040E060E08CE00E94EF0CE6
:1031900064EF71E080E090E00E941C0830E020E0E5
:1031A00040E06EE186E00E94EF0C30E020E040E07D
:1031B00064E081E10E94EF0C8DE891E00E94AE0D89
:1031C00087E40E947A0D9093A5038093A4030E9444
:1031D0004E08882321F08AE492E00E949D06C09068
:1031E000A403D090A50310E000E030E020E040E030
:1031F000C114D10409F405C361E089E00E94EF0C19
:103200000E944E08882399F0DF92CF929F928F926E
:103210001F927F92FF92EF920E94522687ED93E0D9
:103220000E94AC0D0FB6F894DEBF0FBECDBF0E945A
:103230004E08882321F08CE292E00E949D06809146
:10324000A4039091A503892B09F092CF0E944E0808
:10325000882321F086EE91E00E949D060E944E0890
:10326000882321F083EE91E00E949D060E944E0883
:10327000882321F080EE91E00E949D0660ED77E0CA
:1032800080E090E00E941C0880E8882E85E2982E5D
:10329000A12CB12C44244A949FE0592E612C712C0E
:1032A00007EDE02E03E0F02E8091C00381110DC0E8
:1032B0000E94E2086093BC037093BD038093BE0339
:1032C0009093BF0381E08093C0038091B403811188
:1032D00005C00E94E20881E08093B4038091B303AB
:1032E000882309F4C4C28AED94E00E9409071816E5
:1032F0001906ACF48AED94E00E94C7069091A603EB
:10330000883009F4AAC28D3009F01DC3E92FF0E01E
:10331000E257FA4F10821092A60397FF20C30E9433
:10332000E2080091D3051091D4052091D505309184
:10333000D605601B710B820B930B683E73408105B1
:103340009105A0F081E10E946F0761E0892B09F0EF
:1033500060E081E10E9498070E94E2086093D30533
:103360007093D4058093D5059093D60580E090E0C6
:10337000892B09F499CF0E94E605882309F490CFA0
:103380000E9400008DCF84E028CE88E026CE81E028
:1033900024CE28EF280F243048F092EF980F943075
:1033A00028F096EE980F933008F019CE90916800AF
:1033B000243050F032EF380F343030F036EE380F22
:1033C000F0E0E0E0333010F4E8E6F0E09160908364
:1033D000243050F092EF980F943030F096EE980F22
:1033E000F0E0E0E0933010F4EBE6F0E030812430E0
:1033F000C8F491E0A82FA450BB0BAD0101C0990FF8
:103400004A95EAF7932B243048F022EF280F243016
:1034100028F08A51F0E0E0E0833010F4EBE6F0E0D1
:103420009083DDCD98E08E3069F392E08F3051F3D8
:1034300094E0803139F391E0813121F3E82FE651B6
:10344000FF0BAF01DBCF82E090E00E945D0C0E9499
:103450004E08882321F08DEA92E00E949D0680911B
:10346000B303811111CF80911B012BEA35E030931A
:10347000AF052093AE058F7180628093AD051092E9
:10348000B5058091B6059091B7052091B805207FCC
:1034900029602093B80583719C7792609093B7055B
:1034A00080628F7E8093B6051092B1051092B205AE
:1034B00083B190916B008923809381058091810570
:1034C0008093800589B18F7080938D0580918D05E3
:1034D00080938C0583E79BE0909387058093860516
:1034E00086EC93E09093160180931501809169001A
:1034F0008F7C806180936900EA9A81E080939F03CA
:1035000090E080E02CED35E0FC01EE0FFF1FE3576B
:10351000FC4F31832083019689309105A9F78AE019
:1035200080938C0310928B0310928A03109289036C
:10353000EA9A55CD83E090E00E945D0C0E944E080F
:10354000882321F08AE992E00E949D068091B303CE
:1035500081119ACE80911B012AE235E03093AF05AC
:103560002093AE058F7180628093AD051092B505F2
:103570008091B6059091B7052091B805207F29600C
:103580002093B80583719C7792609093B705806211
:103590008F7E8093B6051092B1051092B2054EE26F
:1035A00060EA76E881E090E00E94020480912E05B6
:1035B000807F80932E058DE394E090932D0580937A
:1035C0002C050DCD84E090E00E945D0C0E944E0819
:1035D000882321F087E892E00E949D068091B30342
:1035E000811152CE80911B012AE235E03093AF0564
:1035F0002093AE058F7180628093AD051092B50562
:103600008091B6059091B7052091B805207F29607B
:103610002093B80583719C7792609093B705806280
:103620008F7E8093B6051092B1051092B20546E0E8
:1036300060E072EC81E090E00E94020480912E052F
:10364000807F8360B6CF85E090E00E945D0C0E9491
:103650004E08882321F084E792E00E949D06809125
:10366000B303811111CE80911B012AE235E0309322
:10367000AF052093AE058F7180628093AD051092E7
:10368000B5058091B6059091B7052091B805207FCA
:1036900029602093B80583719C7792609093B70559
:1036A00080628F7E8093B6051092B1051092B205AC
:1036B00046E060E072EC81E090E00E9402048091BC
:1036C0002E05807F816075CF86E090E00E945D0CC2
:1036D0000E944E08882321F081E692E00E949D0618
:1036E0008091B3038111D0CD80911B012AE235E096
:1036F0003093AF052093AE058F7180628093AD0546
:103700001092B5058091B6059091B7052091B80546
:10371000207F29602093B80583719C7792609093F5
:10372000B70580628F7E8093B6051092B105109226
:10373000B20546E060E072EC81E090E00E94020495
:1037400080912E05807F826034CF87E090E00E94D8
:103750005D0C0E944E08882321F08DE492E00E94C7
:103760009D068091B30381118FCD80911B012AE2C8
:1037700035E03093AF052093AE058F718062809362
:10378000AD051092B5058091B6059091B7052091D1
:10379000B805207F29602093B80583719C779260DB
:1037A0009093B70580628F7E8093B6051092B10525
:1037B0001092B20546E068E478EE81E090E00E9465
:1037C000020480912E05807F8460F3CE0C968039B0
:1037D000910509F01ACC4ACC88E09E3009F48CCCD3
:1037E00082E09F3009F488CC84E0903109F484CCE5
:1037F00081E0913109F480CCA92FA651BB0BAD011A
:1038000077CC64E089E00E94EF0C89E40E947A0D95
:10381000182F092F8093A4039093A5030E944E08AC
:10382000882399F00F931F93BF92AF921F927F92BC
:10383000FF92EF920E94522687ED93E00E94AC0D1A
:103840000FB6F894DEBF0FBECDBF0E944E0888238E
:1038500009F4F5CC89E092E0F0CC992309F45FCD2E
:1038600091509093A6038091B303811158CD80911C
:10387000B2038350853008F082C380912C0590916B
:103880002D05892B09F47BC30E94E20880912F0546
:10389000681B770B6430710594F00E94E208609316
:1038A0002F0580912E058F70823009F4FBC208F03D
:1038B000E9C2882309F4EDC2813009F4F1C2B7E10D
:1038C000CB2E16E1D12E80912C0590912D05DC0197
:1038D000ED91FC910084F185E02D099518161906EB
:1038E0000CF04DC30E94E20860932F0580912C05D7
:1038F00090912D05DC01ED91FC910284F385E02D82
:103900000995182FE0913005E150E731E0F6F0E03D
:10391000E457F34E0C94CF29591F641F731FC7201F
:10392000DF20FF20432151216C218221A421EB21A2
:10393000F8210B222C2264226F227F228C229B22D0
:10394000AD22C622E722963138F4E92FF0E0E257A3
:10395000FA4F80839F5F85CF1092A60384CF80911A
:103960008E058D3409F42FC10CF054C0833409F452
:10397000C4C04CF4882359F064E973E08EE895E004
:103980000E94432642C08434F1F18834A9F787EAC3
:1039900091E00E94AE0D8EEA91E00E94AE0D85EBA3
:1039A00091E00E94AE0D80ED91E00E94AE0D89EF96
:1039B00091E00E94AE0D84E192E00E94AE0D80E3A2
:1039C00092E00E94AE0D81E492E00E94AE0D83E58C
:1039D00092E00E94AE0D85E692E00E94AE0D87E770
:1039E00092E00E94AE0D89E892E00E94AE0D8BE954
:1039F00092E00E94AE0D8EEA92E00E94AE0D8CEC39
:103A000092E00E94AE0D10928F058EE895E00E9424
:103A1000AE0D29CF823509F4FDC19CF48E3409F432
:103A20008BC0813509F0A8CF85E093E00E94AE0DF0
:103A300068EC70E080E090E00E941C081092B303F4
:103A4000E4CF8335C9F1843509F096CF80918F0595
:103A50008D3309F091CF80E995E00E941C268C01FE
:103A60008FEF800F843088F6602F84E090E00E9412
:103A7000ED0E84E090E00E94EF0E809308010E941A
:103A80004E08882309F4BFCF11271F930F938CE1B1
:103A900095E09F938F931F9284E68F93FF92EF920E
:103AA0000E94522687ED93E00E94AC0D0FB6F89469
:103AB000DEBF0FBECDBFA7CF80918F058D3309F03C
:103AC0005BCF80E995E00E941C26182F823008F019
:103AD0009CCF8DED92E0112311F08FEE92E00E94C9
:103AE000AE0D612F83E090E00E94ED0E83E090E048
:103AF0000E94EF0E8093A70386CF80918F058D33B0
:103B000009F03ACF80E995E00E941C268C018BEFEA
:103B1000800F8B3008F079CF602F82E090E00E9418
:103B2000ED0E0E944E08882309F46DCF11271F93D4
:103B30000F9381E095E0ADCF80918F058D3309F033
:103B40001BCF80E995E00E941C26D82E74E08717D1
:103B500031F088E0D81619F090E1D91256CF80E004
:103B600093E00E94AC0D2D2D30E050E040E019A212
:103B70008E010F5D1F4FCA01B9012AE030E040E01D
:103B800050E00E942929605DD8016E938D012115B6
:103B900031054105510579F7109719F0CD010E94C3
:103BA0009F0D8DE193E00E949F0D6D2D90E080E0D0
:103BB0000E94ED0E10928F0590E080E00E94EF0EC3
:103BC0008093A80322CF80918F058D3309F05BC0CD
:103BD00080919005803571F40E944E08882321F071
:103BE0008FEE94E00E949D0661E081E090E00E94EB
:103BF000ED0E0BCF833451F40E944E08882321F040
:103C00008CED94E00E949D0662E0EFCF823451F487
:103C10000E944E08882321F089EC94E00E949D06C2
:103C200063E0E3CF893451F40E944E08882321F0E9
:103C300086EB94E00E949D0664E0D7CF883551F46E
:103C40000E944E08882321F083EA94E00E949D069A
:103C500065E0CBCF843451F40E944E08882321F0D4
:103C600080E994E00E949D0666E0BFCF8A3409F0A7
:103C7000CCCE0E944E08882321F08CE794E00E946D
:103C80009D0667E0B2CF8F3309F076CE90E080E0FA
:103C90000E94EF0E8093A80382E090E00E94EF0E56
:103CA00080931B0181E090E00E94EF0E8093B203AD
:103CB0000E944E08882321F089E794E00E949D0627
:103CC0000E944E088823C1F08091A8031F928F9311
:103CD0008AE694E09F938F931F9284E68F93FF92DE
:103CE000EF920E94522687ED93E00E94AC0D0FB632
:103CF000F894DEBF0FBECDBF0E944E088823C1F0EE
:103D000080911B011F928F9386E594E09F938F9380
:103D10001F9284E68F93FF92EF920E94522687EDC6
:103D200093E00E94AC0D0FB6F894DEBF0FBECDBF7E
:103D300084E090E00E94EF0E182F809308010E940B
:103D40004E088823B1F01F921F938FE394E09F9356
:103D50008F931F9284E68F93FF92EF920E945226D8
:103D600087ED93E00E94AC0D0FB6F894DEBF0FBE56
:103D7000CDBFE091B203E150E730A0F4F0E0ED53A5
:103D8000F14E0C94CF29CA1EDD1EE41EEB1EF21E5E
:103D9000F91E001F0E944E08882321F08DE294E056
:103DA0000E949D0683E090E00E94EF0E81112FC0DB
:103DB0008DED92E00E94AE0D28CE0E944E08882321
:103DC00089F38AE194E0ECCF0E944E08882351F3F6
:103DD00087E094E0E5CF0E944E08882319F384EF32
:103DE00093E0DECF0E944E088823E1F281EE93E05B
:103DF000D7CF0E944E088823A9F28EEC93E0D0CF53
:103E00000E944E08882371F28AEB93E0C9CF8FEEAF
:103E100092E0D0CF0E944E08882321F08EEA93E0F2
:103E20000E949D0610E000E0C8010E94032988233B
:103E300021F060E0C8010E940B290F5F1F4F0115A0
:103E400052E0150789F70E944E08882321F088E97F
:103E500093E00E949D0661E081E090E00E94ED0EFB
:103E600081E090E00E94EF0E8093B20365E082E073
:103E700090E00E94ED0E82E090E00E94EF0E8093B1
:103E80001B01C3CD833081F0843009F018CD80E16F
:103E900004C080E18093320581E0809330050FCD2E
:103EA00084E0FBCF87E0F9CF8EE0809332058CE091
:103EB000F4CF8F3031F4D092310582E08093300519
:103EC00002CD10923005FFCC80913105E82FF0E053
:103ED000E65DFA4F11878150809331058F3F09F0DD
:103EE000F2CC83E0EBCF811150C1809131058F3F3F
:103EF00009F04BC130E0D12C20E040EB56E1ED2D34
:103F0000F0E061E070E080E090E0032E04C0660F16
:103F1000771F881F991F0A94D2F76EA37FA388A7E3
:103F200099A7EE0FFF1FE65DFA4F61A572A5052F59
:103F300010E0065D1A4FD80119960C9110E0022E80
:103F400002C0159507950A94E2F78EA19FA100FF84
:103F500017C1862B972B92A781A72F5F3F5F283031
:103F600011F4515020E03B3011F4D39430E0415033
:103F700031F68FEF8093750581E080933005809155
:103F8000B103811113C00E944E08882321F085E8F7
:103F900096E00E949D060E944E08882321F082E848
:103FA00096E00E949D0681E08093B1038091AE056A
:103FB0009091AF056091AD05629566956770DC01E3
:103FC000ED91FC910190F081E02D0995882309F491
:103FD0003DC38091AE059091AF056091AD056F71C5
:103FE000DC01ED91FC910280F381E02D0995AC019B
:103FF0009093B4058093B3058091B605806180935A
:10400000B6052AE335E090E0F90165917491461711
:10401000570708F415C3F901329665917491641736
:10402000750708F40DC33091B705432F441F44278B
:10403000441F8091B805282F2F70220F242B29139D
:104040003AC38091B805282F22952F702F5F2770D3
:10405000322F3295307F8F78832B8093B805309143
:10406000B605432F437050E04F5F5F4F241715068E
:1040700009F0ECC28091B705903109F028C3329560
:1040800036953770982F9370990F990F990F932B3E
:10409000990F990F8378892B8093B7059091B70575
:1040A000292F269526952F71322F3295330F307E8A
:1040B0008091B6058F71832B322F369536953695C4
:1040C0009C7F932B9093B7059C77943409F007C39A
:1040D000877F8093B6058091B2059091B60592FFD7
:1040E00036C3863008F031C3E82FF0E0E555FC4FC9
:1040F0009091B105908380681092B2059091B605B9
:104100009B7F9093B605882309F4A0C29091A903E0
:104110009F5F9093A903982F9F77D92EDD0C87FD81
:10412000D394892F90E0FC01E655FC4F4081ED2DA2
:10413000E170CE2E342FD0FE13C0FC01E555FC4FAC
:104140002081022E000C330B54E0359527955A95AB
:10415000E1F72F70F0E14F02A0011124322F342B30
:1041600020E060E00197462F50E0481759070CF017
:10417000F7C245555C4FDA014C9124276F5FF3CFAE
:104180008095909586239723E6CE81E097CE8FE5A4
:10419000810F823008F095CE8CE0113A09F080E171
:1041A0008093320510923105612F90E080E00E94EB
:1041B000F309909374058093730585E07FCEE091B9
:1041C000310501E00E0F00933105F0E0E65DFA4F96
:1041D0008187682F80917305909174050E94F3097F
:1041E00090937405809373058091320590E0880F59
:1041F000991F081719060CF466CB86E05FCE009174
:1042000031050F5F00933105682F80917305909100
:1042100074050E94F30990937405809373051091BF
:104220003205212F30E02F5F3F4F220F331F02173F
:1042300013060CF448CB892B09F043CE63E3C62E5A
:1042400065E0D62E00E01017D1F0F60121913191F2
:104250006F01322723273227A8E7B5E00E94AC2957
:10426000A30192010E944B29205E3C4F4F4F5F4FAC
:10427000D6015F963C932E935E970F5FE4CF8FEF4E
:10428000809375057CCE883A09F01BCE68EA90E0F1
:1042900080E00E94F309909374058093730588E091
:1042A0000DCE8F77813009F00CCE612F8091730590
:1042B000909174050E94F30990937405809373059F
:1042C00091E0113809F090E080912E0590FB84F97F
:1042D00080932E0589E0F2CD8EEF810F8F3008F0AC
:1042E000F0CD612F80917305909174050E94F309C0
:1042F00090937405809373051093320510923105E5
:104300008AE0DCCDE091310501E00E0F009331052C
:10431000F0E0E65DFA4F8187682F809173059091F8
:1043200074050E94F309909374058093730580913E
:10433000320590E0880F991F081719060CF4C3CABC
:10434000BBE0B0933005BFCA009131050F5F009309
:104350003105682F80917305909174050E94F309CF
:10436000909374058093730510913205212F30E0EE
:104370002F5F3F4F220F331F021713060CF4A3CAFF
:10438000892B09F09ECDB3E3CB2EB5E0DB2E00E008
:10439000101709F474CFF601219131916F01322782
:1043A0002327322750E040E020523C414109510987
:1043B000A0EBB4E00E946A29A50194010E944B2958
:1043C0002C573C4F4F4F5F4FD6015F963C932E9337
:1043D0005E970F5FDDCF803209F075CAEFEDFFEF1A
:1043E000F0937405E0937305FDE0F09330056BCA1C
:1043F000803409F066CD80917305909174058054E6
:1044000091099093740580937305109231052EE005
:104410002093300558CAE091310521E02E0F2093FA
:104420003105F0E0E65DFA4F818780917305909148
:104430007405811B91099093740580937305809195
:10444000320590E0880F991F3FE0281719060CF4F9
:104450003ACA3093300537CA20913105E22FF0E097
:10446000E65DFA4F81872F5F209331053091320549
:10447000832F90E00196880F991F281719060CF4D6
:1044800022CA865D9A4FDC0117968C91312E212C21
:10449000820D932D911D409173055091740548171D
:1044A000590709F00ECDE3E3F5E080E0381731F06D
:1044B00041915191578F468F8F5FF8CF8FEF809347
:1044C0007505109230055BCD8E3309F0FACCEDEF17
:1044D000F8EDF0937405E0937305F1E186CF833036
:1044E00009F0EFCC63E080917305909174050E9410
:1044F0009C04909374058093730522E189CF682F03
:1045000080917305909174050E949C0490937405AA
:104510008093730533E19DCF682F8091730590914F
:1045200074050E949C04909374058093730544E184
:1045300040933005C8C9813309F0C3CC61E3809151
:104540007305909174050E949C0490937405809368
:10455000730555E150933005B6C988EF810F893155
:1045600008F0AFCC812F86958093320510923105EB
:10457000612F80917305909174050E949C04909323
:10458000740580937305D09230059DC9E091310583
:1045900001E00E0F00933105F0E0E65DFA4F8187F0
:1045A000682F80917305909174050E949C049093EC
:1045B0007405809373058091320590E0880F991FF0
:1045C000081719060CF47FC9C09230057CC92091E8
:1045D0003105E22FF0E0E65DFA4F81872F5F2093EF
:1045E000310530913205832F90E00196880F991F95
:1045F000281719060CF467C9865D9A4FDC011796D7
:104600008C911DA31CA2ECA1FDA1E80FF11D40910E
:104610007305509174054E175F0709F052CCE3E320
:10462000F5E080E0381709F449CF4191519163E0FA
:10463000569547956A95E1F7578F468F8F5FF2CF72
:104640009F5F2C5F3F4F923109F0DECC0E94E20861
:104650000091BC031091BD032091BE033091BF03B4
:10466000601B710B820B930B613D774081059105B7
:1046700010F40C948F190E94E2086093BC037093AD
:10468000BD038093BE039093BF030E944E0888230E
:1046900021F085E895E00E949D060E944E0888233F
:1046A00021F082E895E00E949D061092AC031092E2
:1046B000AB030C948F1990FB37F93093B705292F72
:1046C00026952F708078822B8093B805BACC9F7185
:1046D000990F990F8378982B9093B705DFCC83FDC2
:1046E00027C0B0E12B9F900111242093B105846075
:1046F0008093B60580E02091B605922F977F23FF27
:1047000098609093B605813009F4E5CC823009F0C9
:104710009DCFE091B205E63000F581E08E0F8093E9
:10472000B205F0E0E555FC4F8091B10580838ECF56
:104730009091B105292B2093B1058B7F8093B6050D
:1047400081E08093B50582E0D6CF80E0D5CC882388
:1047500009F47CCF1092B205D9CC1092B20576CF75
:10476000CC2031F045555C4FFA018081807F2827AD
:1047700085E52827231316C10E944E08882321F0BF
:104780008FE796E00E949D060D2D10E08091A80312
:104790008695869590E002960817190709F0A9C03A
:1047A0000E94E2086093BC037093BD038093BE0334
:1047B0009093BF036D2D669561504C2D8BEA93E06D
:1047C0000E94AD0E0E944E08882321F08CE796E0EF
:1047D0000E949D066091A8036623D9F08091AB03E7
:1047E000603108F07AC090E0643031F482958F70C7
:1047F000F0E18F9FC00111249A83898341E06430E6
:1048000009F040E0669566956695CE0101960E9496
:10481000AD0E0E944E08882321F089E796E00E94A1
:104820009D060E94E2088091A903843608F40ECF09
:104830000E944E08882321F080EF95E00E949D069B
:104840000E944E08882321F089ED95E00E949D0684
:104850000E944E08882321F086ED95E00E949D0677
:104860000E944E088823E1F08091A9039091AA0349
:10487000891B990B9F938F9363EC75E07F936F93E4
:104880001F9284E68F93FF92EF920E94522687ED4B
:1048900093E00E94AC0D0FB6F894DEBF0FBECDBF03
:1048A0000E944E08882321F08EEB95E00E949D0621
:1048B0000E944E08882321F087EA95E00E949D0619
:1048C0000E944E08882321F084EA95E00E949D060C
:1048D0001092A9031092AA03B9CE9091AC03892734
:1048E00098278927603109F087CF9827892798274B
:1048F00083CF8091AA038F5F8093AA030E944E0802
:10490000882321F085E696E00E949D060E944E08CD
:104910008823E1F08091A8038695869590E0029621
:104920009F938F9384E596E09F938F931F9284E6E5
:104930008F93FF92EF920E94522687ED93E00E94A0
:10494000AC0D0FB6F894DEBF0FBECDBF0E944E086F
:104950008823B1F01F930F9382E496E09F938F9387
:104960001F9284E68F93FF92EF920E94522687ED6A
:1049700093E00E94AC0D0FB6F894DEBF0FBECDBF22
:104980000E944E08882321F089E196E00E949D064E
:104990000E944E08882309F446CF86E196E00E94E3
:1049A0009D0641CF8091AA038F5F8093AA030E9446
:1049B0004E08882321F086EF95E00E949D060E9414
:1049C0004E08882309F42FCF83EF95E0E8CF80913C
:1049D000A5059091A605009711F00E94852A8FE702
:1049E00091E09093D8058093D7052091E30548EF97
:1049F000420F443040F082EF820F843020F086EE88
:104A0000820F833068F530916B00822F8450990BB0
:104A1000443078F087EF2E30A1F08DEF2F3089F001
:104A20008BEF203171F08EEF213159F0822F8651BA
:104A3000990BBC0181E090E001C0880F6A95EAF70C
:104A400080958323443048F092EF920F943028F001
:104A50002A51F0E0E0E0233010F4EBE6F0E0808350
:104A60000895B0E0A0E0E7E3F5E20C9476295C015C
:104A70006B017A016115710519F0FB019183808347
:104A8000E114F10449F0C7010297839728F060E030
:104A900070E0CB019CC05E01E5012196F50110811B
:104AA000812F90E00E943A26892BA9F71D3209F048
:104AB00056C02196F501118101E0E114F10409F4D9
:104AC000AEC0F0E1EF16F10409F08EC0103341F4EE
:104AD00088818F7D883509F083C019812296026014
:104AE000E0E1EE2EF12C88248A94982CA82CFFE08B
:104AF000BF2E20E060E070E0CB0127010F2C000CFE
:104B000066087708FE0150ED352E310E39E0331579
:104B100038F43FEB310F3A31A0F549EC342E310E29
:104B20003E141F04BCF52F3FB9F086169706A80661
:104B3000B90670F1A30192010E941929232D30E0DA
:104B400050E040E0620F731F841F951F62177307C8
:104B500084079507E8F021E021961081D3CF1B321E
:104B600021F4E5012296F501118100E0A6CF78E05D
:104B7000E72EF12C88248A94982CA82C6FE1B62E6D
:104B8000B8CF3FE9310F3A3128F439EA332EC7CF95
:104B90002FEFE2CFC114D10431F02223E9F02197A5
:104BA000F601D183C08300FF07C090958095709572
:104BB00061957F4F8F4F9F4F2F3F49F482E290E0E6
:104BC0009093F4058093F3056FEF7FEFCB01CDB7A2
:104BD000DEB7E1E10C94922901FFE5CF2297E0CF07
:104BE00010E3E114F10419F23AE0E316F104E9F0FC
:104BF00080E1E816F10409F473CFE8E0EE16F10461
:104C000009F4B8CF6FEF7FEFCB0197010F2C000CA9
:104C1000440B550B0E94292949015A016ACF1033D0
:104C200009F456CF9AE0E92EF12C89E9882E982CC8
:104C3000A82C89E1B82E5DCFFC0188279927E8943C
:104C400021912032E9F3293010F02E30C8F32B32B5
:104C500041F02D3239F4689404C00E944A26820F34
:104C6000911D219120532A30C0F31EF49095819517
:104C70009F4F089591110C945C28803219F089504F
:104C80008550C8F70895FB01DC0105900D920020C6
:104C9000E1F708957AE0979F902D879F802D910DE1
:104CA00011240895AEE0B0E0E8E5F6E20C94832923
:104CB0000D891E898F89988D2EE02C831A83098394
:104CC00097FF02C080E090E801979E838D83AE013C
:104CD000455E5F4F698D7A8DCE0101960E948226D6
:104CE0004D815E8157FD0AC02F81388542175307D9
:104CF0000CF49A01020F131FF80110822E96E4E0C3
:104D00000C949F29ABE0B0E0E8E8F6E20C9475293A
:104D10007C013B018A01FC0117821682838181FF9D
:104D2000C8C1CE0101965C01F7019381F30193FDA7
:104D3000859193FF81913F01882309F453C1853206
:104D400039F493FD859193FF81913F01853229F4D8
:104D5000B70190E00E947528E7CF912C212C312CCF
:104D6000FFE1F31538F08B3211F190F4803209F144
:104D7000833229F137FC3CC020ED280F2A3050F552
:104D800036FE20C08AE0989E200D1124922E06C087
:104D90008D3291F0803371F7689430F8F30193FD10
:104DA000859193FF81913F018111DACF21C06894F1
:104DB00031F8689432F8F2CF689433F8EFCF689402
:104DC00034F8ECCFEAE02E9E200D1124222E6894B8
:104DD00035F8E4CF8E3229F436FC04C1689436F8F5
:104DE000DDCF8C3619F4689437F8D8CF8836B1F215
:104DF000982F9F7D95549330E0F08336A1F183374F
:104E0000C1F1833509F063C02801F2E04F0E511C57
:104E1000F801C080D180692D70E036FC02C06FEFD0
:104E20007FEFC6010E945F284C01689437F8820129
:104E30000AC00C5F1F4FFFE3F98388248394912CF1
:104E40006501E89437F833FE2DC0522C811491048B
:104E500071F5552009F468CFB70180E290E00E9417
:104E600075285A94F6CFF801808189830E5F1F4F11
:104E7000E4CF2801F2E04F0E511CF801C080D18030
:104E8000692D70E036FC02C06FEF7FEFC6010E9413
:104E90006A284C018201D5CFB70180E290E00E94E0
:104EA00075282A942814190409F0B0F7CECFF6011A
:104EB00037FC859137FE81916F01B70190E00E9428
:104EC000752851105A94F1E08F1A9108BFCF84369B
:104ED00019F0893609F077C0F80137FE6BC06081A0
:104EE0007181828193810C5F1F4FF32DFF763F2EDE
:104EF00097FF09C090958095709561957F4F8F4F72
:104F00009F4F689437F82AE030E0A5010E94A52859
:104F1000C82ECA188C2C432C36FE0CC0E89440F8DE
:104F2000C91440F434FE05C032FC03C0F32DFE7EEC
:104F30004F2E892C44FE95C0FE01EC0DF11D8081A1
:104F4000803309F087C0242D297E422E842D88705D
:104F5000582E43FC95C040FE8FC09C2C821418F440
:104F60002C0C922C981844FE91C0B70180E390E07D
:104F70000E94752842FE09C088E790E041FE02C009
:104F800088E590E0B7010E947528C91408F48AC02A
:104F9000CA94D12C9FEFC91AD90ACA0CDB1CF6019E
:104FA00082916F01B70190E00E947528AC14BD0496
:104FB000B1F74FCF60817181072E000C880B990BE0
:104FC0000E5F1F4F92CFD32CE894D4F82AE030E044
:104FD000853739F1232D297FD22E8F3601F148F400
:104FE0008835A9F0F701868197812B96E2E10C9430
:104FF0009129803749F08837A9F7D4FE02C0689418
:10500000D2F820E130E00DC06894D4F8F6CF34FE39
:1050100003C0822F8660D82E20E132E002C028E053
:1050200030E0F801D7FE0FC06081718182819381E9
:105030000C5F1F4FA5010E94A528C82ECA183D2C41
:10504000E89437F867CF6081718190E080E00E5F6F
:105050001F4FF0CF42FC02C0839478CF8394839497
:1050600075CF842D867809F471CFF6CFB70180E231
:1050700090E00E94752883948214C0F3512C73CF62
:10508000522C5818821408F46ECFF8CF842D8678ED
:1050900009F47BCF8BE241FE80E247FC8DE2B70151
:1050A00090E071CFB70180E390E00E9475289A9458
:1050B0006CCF8FEF9FEF99CF992788270895FC0138
:1050C0000590615070400110D8F7809590958E0F33
:1050D0009F1F0895FC016150704001900110D8F7A6
:1050E000809590958E0F9F1F08950F931F93CF93D8
:1050F000DF93182F092FEB018B8181FD09C01FEF72
:105100000FEF812F902FDF91CF911F910F91089575
:1051100082FF14C02E813F818C819D812817390721
:105120003CF4E881F981CF0101969983888310834B
:105130008E819F8101969F838E83E3CFE885F985D9
:10514000812F0995892BA1F3DACFFA01AA272830FC
:1051500051F1203181F1E8946F936E7F6E5F7F4F44
:105160008F4F9F4FAF4FB1E03ED0B4E03CD0670FC0
:10517000781F891F9A1FA11D680F791F8A1F911D13
:10518000A11D6A0F711D811D911DA11D20D009F463
:1051900068943F912AE0269F11243019305D3193A5
:1051A000DEF6CF010895462F4770405D4193B3E08E
:1051B0000FD0C9F7F6CF462F4F70405D4A3318F035
:1051C000495D31FD4052419302D0A9F7EACFB4E0E6
:1051D000A6959795879577956795BA95C9F700979E
:1051E0006105710508959B01AC010A2E069457953F
:1051F000479537952795BA95C9F7620F731F841F96
:10520000951FA01D0895F999FECF92BD81BDF89A12
:10521000992780B50895262FF999FECF1FBA92BD20
:1052200081BD20BD0FB6F894FA9AF99A0FBE019687
:105230000895DB018F939F930E946A29BF91AF91DC
:10524000A29F800D911DA39F900DB29F900D1124E0
:105250000895A1E21A2EAA1BBB1BFD010DC0AA1FB7
:10526000BB1FEE1FFF1FA217B307E407F50720F0CF
:10527000A21BB30BE40BF50B661F771F881F991F4A
:105280001A9469F760957095809590959B01AC0193
:10529000BD01CF010895052E97FB1EF400940E94D6
:1052A000622957FD07D00E94292907FC03D04EF43C
:1052B0000C94622950954095309521953F4F4F4F62
:1052C0005F4F089590958095709561957F4F8F4FB2
:1052D0009F4F08950E94AC29A59F900DB49F900DFB
:1052E000A49F800D911D112408952F923F924F92FB
:1052F0005F926F927F928F929F92AF92BF92CF9266
:10530000DF92EF92FF920F931F93CF93DF93CDB76E
:10531000DEB7CA1BDB0B0FB6F894DEBF0FBECDBFE6
:1053200009942A88398848885F846E847D848C84B7
:105330009B84AA84B984C884DF80EE80FD800C81C0
:105340001B81AA81B981CE0FD11D0FB6F894DEBFA3
:105350000FBECDBFED010895A29FB001B39FC00164
:10536000A39F700D811D1124911DB29F700D811D91
:105370001124911D089597FB072E16F4009407D071
:1053800077FD09D00E94D52907FC05D03EF4909501
:1053900081959F4F0895709561957F4F0895EE0F09
:1053A000FF1F0590F491E02D0994AA1BBB1B51E14E
:1053B00007C0AA1FBB1FA617B70710F0A61BB70B85
:1053C000881F991F5A95A9F780959095BC01CD012A
:1053D00008950F931F93CF93DF938230910510F4BC
:1053E00082E090E0E091F705F091F80530E020E0F0
:1053F000B0E0A0E0309799F42115310509F44AC0D6
:10540000281B390B24303105D8F58A819B81611521
:10541000710589F1FB0193838283FE0111C04081F4
:1054200051810281138148175907E0F04817590745
:1054300099F4109761F012960C93129713961C939F
:105440003296CF01DF91CF911F910F910895009374
:10545000F7051093F805F4CF2115310551F04217E7
:10546000530738F0A901DB019A01BD01DF01F80102
:10547000C1CFEF01F9CF9093F8058093F705CDCF19
:10548000FE01E20FF31F819391932250310939837A
:105490002883D7CF2091F5053091F605232B41F4D1
:1054A00020911E0130911F013093F6052093F505E0
:1054B00020911C0130911D012115310541F42DB7BA
:1054C0003EB74091200150912101241B350BE09102
:1054D000F505F091F605E217F307A0F42E1B3F0B3C
:1054E0002817390778F0AC014E5F5F4F2417350756
:1054F00048F04E0F5F1F5093F6054093F5058193DA
:1055000091939FCFF0E0E0E09CCFCF93DF930097A3
:10551000E9F0FC01329713821282A091F705B09155
:10552000F805ED0130E020E01097A1F420813181F1
:10553000820F931F2091F5053091F6052817390742
:1055400009F061C0F093F605E093F505DF91CF9186
:105550000895EA01CE17DF07E8F54A815B819E01D5
:1055600041155105B1F7E901FB83EA83499159914E
:10557000C40FD51FEC17FD0761F48081918102965D
:10558000840F951FE90199838883828193819B838E
:105590008A83F0E0E0E012968D919C91139700973A
:1055A000B9F52D913C911197CD010296820F931F71
:1055B0002091F5053091F6052817390739F630970F
:1055C00051F51092F8051092F705B093F605A093E7
:1055D000F505BCCFD383C28340815181840F951FD1
:1055E000C817D90761F44E5F5F4F88819981480FD2
:1055F000591F518340838A819B8193838283211524
:10560000310509F0B0CFF093F805E093F7059ECF90
:10561000FD01DC01C0CF13821282D7CFB0E0A0E041
:10562000E4E1FBE20C9477298C01009751F4CB0163
:105630000E94E9298C01C801CDB7DEB7E0E10C94E6
:105640009329FC01E60FF71F9C0122503109E21754
:10565000F30708F49DC0D901CD91DC911197C617CD
:10566000D70798F0C530D10530F3CE0104978617DF
:10567000970708F3C61BD70B2297C193D1936D935D
:105680007C93CF010E94852AD6CF5B01AC1ABD0A5C
:105690004C018C0E9D1EA091F705B091F805512C80
:1056A000412CF12CE12C109731F58091F50590916A
:1056B000F6058815990509F05CC04616570608F0EE
:1056C00058C080911C0190911D01009741F48DB745
:1056D0009EB74091200150912101841B950BE81742
:1056E000F90708F055C0F093F605E093F505F901C8
:1056F00071836083A0CF8D919C91119712966C90CD
:10570000129713967C901397A815B90559F56C015B
:1057100042E0C40ED11CCA14DB0420F1AC014A19CA
:105720005B09DA011296159780F0628273825183C9
:105730004083D9016D937C93E114F10471F0D7019A
:105740001396FC93EE93129776CF22968C0F9D1FA3
:10575000F90191838083F301EFCFF093F805E09393
:10576000F70569CF4816590608F42C017D01D301CD
:105770009ACFCB010E94E9297C01009749F0AE0144
:10578000B8010E94CB2BC8010E94852A870153CF04
:1057900010E000E050CFFB01DC0102C001900D924F
:1057A00041505040D8F70895DC0101C06D9341503D
:1057B0005040E0F70895FB01DC0101900D920020BC
:1057C000E1F7089513E0CBE9D3E004C0FE010E94A5
:1057D000CF292196CC39D107C9F7F894FFCF803E65
:1057E000E803FFFFFFFF0300E1000000000000EE00
:1057F00008EE08EE08EE08EE08050000F905800046
:1058000000C18081000000020000010100010000D1
:1058100000000001000102000000001B067C05A939
:10582000056706DA05B805CC050000000087065DAF
:1058300008C306B8060907C706E5060000000030E1
:105840000A020A010A00000000220C0A0C010A00E8
:105850000000004A0B410B010A000000007C0C7C98
:1058600005790C150924096A09FB084E6F6E65203D
:1058700028706C61792066696C6520616E642073A4
:10588000746F702900482048656C70005120717554
:105890006974004E3D34206F722038206F722031C1
:1058A0003620536F756E6473206D6F646500433DE1
:1058B000352C362C372C392C31302C31312C3132DF
:1058C0002C31332C31342C31352058616E79204302
:1058D00068616E6E656C00543D312C322C332C3473
:1058E000205468726F74746C65204368616E6E65D5
:1058F0006C00533D302C31207365742073686966E9
:1059000074206D6F6465204F6E2F4F6666004D3DAD
:1059100050207365742050574D206D6F6465004DA5
:105920003D4320736574204350504D206D6F646576
:10593000004D3D42207365742053425553206D6FD6
:105940006465004D3D4920736574204942555320DC
:105950006D6F6465004D3D58207365742053524C43
:1059600058206D6F6465004D3D442073657420536D
:10597000554D44206D6F6465004D3D4A207365743C
:10598000204A45544978206D6F6465004D3F205290
:105990006561642053656E736F7220262073657293
:1059A000766F2076616C7565730052207365742084
:1059B0005245534554206D6F6465005368696674A1
:1059C000206D6F6465206973204F666600536869B7
:1059D0006674206D6F6465206973204F6E005357A5
:1059E0003A2000457869742020636F6E6669677598
:0E59F000726174696F6E206D6F64650D0A0040
:1070000055C000006EC000006CC000006AC00000E7
:1070100068C0000066C0000064C0000062C00000DC
:1070200060C000005EC00000FCC400005AC0000048
:1070300058C0000056C0000054C0000052C00000FC
:1070400050C000005DC000004CC000004AC00000FD
:1070500048C0000046C0000044C0000042C000001C
:1070600040C000003EC000003CC000003AC000002C
:1070700038C0000036C0000034C0000032C000003C
:1070800030C000002EC000002CC000002AC000004C
:1070900028C0000026C0000024C0000022C000005C
:1070A00020C000001EC000001CC0000011241FBE34
:1070B000CFEFDAE0DEBFCDBF11E0A0E0B1E0E6E463
:1070C000FFE702C005900D92A43BB107D9F711E08C
:1070D000A4EBB1E001C01D92AD3CB107E1F74FD385
