:100000000C94D3020C94E3110C94BC110C94951134
:100010000C946E110C94FB020C94FB020C9447118F
:100020000C94FB020C940A120C94040E0C94730EA4
:100030000C94FB020C94FB020C94FB020C94FB024C
:100040000C94FB020C94FB020C94FB020C94FB023C
:100050000C94FB020C94FB020C94FB020C94FD101C
:100060000C94FB020C94CB100C94A5100C94FB0286
:100070000C94FB020C94FB020C94FB020C94FB020C
:100080000C94FB020C94FB020C94FB020C94FB02FC
:100090000C94FB020C94FB020C94FB020C94FB02EC
:1000A0000C94FB020C94FB020C94FB022E002E001D
:1000B00000000000240027002A002D00300000006E
:1000C000000200090F0000030401000C0000000002
:1000D000000000000000000000000000080B00020B
:1000E00002020000090400000102020000052400D1
:1000F0001001052401010104240206052406000163
:100100000705810310004009040100020A000000F5
:1001100007050202400000070583024000000403B7
:10012000090412010002EF0201404F1B0692000178
:1001300001020301537061726B46756E005370616A
:10014000726B46756E2050726F204D6963726F003E
:1001500000C2010000000E000E000C0000E10000D3
:100160000500220022002000009600000F0036004B
:1001700036003400127A00001700430043004100AB
:10018000807000001A004A004A004800004B00003E
:100190002C00710071007000403800004A009C0083
:1001A00099009900802500007200EA00EA00E90049
:1001B000C0120000E900DA01DA01D701600900008D
:1001C000D701AC03AC03B103B0040000B3036E0766
:1001D0006E0767072C010000DC0EC11DC11DBE1D8E
:1001E0000D0A000D0A004572726F7221204E6F20B9
:1001F000736F756E642066696C65732077657265D0
:1002000020666F756E642021000D0A00536F756EB5
:10021000642066696C657320696E20626F61726428
:10022000206D656D6F72793A202564000D0A0053C8
:100230006F756E642066696C657320696E20534427
:1002400020636172643A202564000D0A004A455417
:100250004978206D6F646520696E207573650D0A9D
:100260000053554D44206D6F646520696E20757391
:10027000650D0A0053524C58206D6F646520696EFD
:10028000207573650D0A0049425553206D6F6465F2
:1002900020696E207573650D0A0053425553206D19
:1002A0006F646520696E207573650D0A00435050B8
:1002B0004D206D6F646520696E207573650D0A00B1
:1002C00050574D206D6F646520696E207573650D04
:1002D0000A000D0A005368696674206D6F6465201A
:1002E0006973204F6E005368696674206D6F646592
:1002F000206973204F666600582D416E792043684F
:10030000616E6E656C3A2025640D0A00582D416EB1
:10031000792053573A2025640D0A000D0A005374C2
:10032000617274696E6720776974686F7574206391
:100330006F6E66696775726174696F6E00436F6E88
:1003400066696775726174696F6E206D6F64652090
:1003500069732061637469766564000D0A002E007C
:10036000576169742052657475726E0058616E79B8
:1003700032536F756E64732056312E3500455252DC
:10038000000D0A526573657420454550524F4D204B
:10039000446F6E650D0A000D0A576169742E2E2E8A
:1003A0000D0A004A45544978206D6F646520696ED6
:1003B000207573650D0A0053554D44206D6F6465BB
:1003C00020696E207573650D0A0053524C58206DDC
:1003D0006F646520696E207573650D0A004942558A
:1003E00053206D6F646520696E207573650D0A007A
:1003F00053425553206D6F646520696E2075736597
:100400000D0A004350504D206D6F646520696E20C9
:100410007573650D0A0050574D206D6F6465206936
:100420006E207573650D0A00582D416E7920436862
:10043000616E6E656C3A2025640D0A00582D416E80
:10044000792053573A2025640D0A000D0A005365A0
:100450007420696E204A45544978206D6F64650D9B
:100460000A0053657420696E2053554D44206D6F0A
:1004700064650D0A0053657420696E2053524C5810
:10048000206D6F64650D0A0053657420696E204904
:10049000425553206D6F64650D0A005365742069E1
:1004A0006E2053425553206D6F64650D0A005365ED
:1004B0007420696E204350504D206D6F64650D0AA5
:1004C0000053657420696E2050574D206D6F646530
:1004D0000D0A00582D416E79204368616E6E656C7F
:1004E0003A20256420696E207573650D0A00506CF2
:1004F000617920536F756E643A2025640D0A00E41B
:10050000031C041C04540454048C048C04C404C44C
:1005100004FC04FC04340534056C056C05A405A436
:1005200005DC05DC05140614064C064C068406841E
:1005300006BC06BC06F406F4062C072C0764076408
:10054000079C079C07D40700000000250028002B0B
:10055000002E003100000000002300260029002C9E
:10056000002F000404040404030405020202020430
:10057000030202020206060606060604040202023E
:100580000404040802011040804010204080408094
:100590000802040180402010020110801020404019
:1005A000200050122F2211241FBECFEFDAE0DEBF51
:1005B000CDBF13E0A0E0B1E0EEE6F2E502C00590A9
:1005C0000D92A231B107D9F725E0A2E1B3E001C055
:1005D0001D92A83DB207E1F712E0C2EDD2E004C0DF
:1005E0002197FE010E941727C13DD107C9F70E943C
:1005F000B0130C942A290C94000089B18F70E5E5A2
:10060000F5E0878B868997898927858B8789868BF3
:100610000088F189E02D099489B18F70E5E5F5E056
:10062000878B868997898927858B8789868B02881E
:10063000F389E02D099489B18F70E5E5F5E0878BAA
:10064000868997898927858B8789868B0684F78594
:10065000E02D099489B18F70E5E5F5E0878B8689F7
:1006600097898927858B8789868B0484F585E02D7A
:1006700009948F929F92AF92BF92FF920F931F9314
:10068000CF93DF934B015C01F42ECCE1D4E0E889F9
:10069000F98982E08083EC85FD8510820E851F85B7
:1006A00060E079E08DE390E0A50194010E9471265D
:1006B000215031094109510956954795379527959C
:1006C000F8012083188EEC89FD89F082EA89FB8984
:1006D000808180618083EA89FB8980818860808352
:1006E000EA89FB89808180688083EA89FB8980812F
:1006F0008F7D8083DF91CF911F910F91FF90BF90ED
:10070000AF909F908F900895FC0180911A048823E8
:1007100011F13FB7F89482E08093E9002091F20054
:10072000822F90E01816190614F481E090E08823D7
:1007300039F0289844E6409319044091F100408331
:10074000222339F02091F200211103C02BE62093DF
:10075000E8003FBF08958FEF9FEF08952FB7F894FB
:1007600083E08093E9009091E800892F807295FFE3
:1007700004C09091F20080E4891B2FBF08958091FE
:10078000110481110DC082E080930D0484E08093F8
:100790000E041092100410920F0481E08093110453
:1007A0008DE094E00895862720E1829FB001112416
:1007B0008627482F50E0292F382FCA0164E09595ED
:1007C00087956A95E1F728273927CA0173E0880FD2
:1007D000991F7A95E1F7822793270895409168033E
:1007E00050916903209166033091670342175307C4
:1007F000B4F49091E8009570E1F39091E80092FDD7
:1008000019C08093F100809168039091690301966B
:100810008F739927892B19F48EEF8093E8008091CC
:10082000680390916903019690936903809368032C
:1008300081E0089580E00895EF92FF920F931F9357
:10084000CF93DF93F82E192FE62E042F81E0860F29
:10085000880F0E94EE0383E00E94EE03CF2DD12F7C
:10086000EC0EFD2EF11CCE15DF05B9F007FF13C00D
:10087000FE0184910E94EE03182F80E00E94EE0397
:10088000812321968111EFCFDF91CF911F910F919D
:10089000FF90EF9008958881EDCF81E0F5CFDF9252
:1008A000EF92FF920F931F93CF93DF93D82E8A017D
:1008B000EB017B01E40EF51ECE15DF0559F0D7FEE6
:1008C00012C0FE0184910E94EE0321968111F4CFA3
:1008D0000FEF1FEFC801DF91CF911F910F91FF9094
:1008E000EF90DF9008958881EECF0F931F93CF9301
:1008F000DF931F92CDB7DEB782E0898342E450E0F8
:100900006CED70E080E80E944F040E94BF03DC01A0
:1009100012960D911C910115110589F0D801ED91E8
:10092000FC910280F381E02DBE016F5F7F4FC80113
:10093000099597FD04C0F80100851185ECCF8981E8
:100940000F90DF91CF911F910F910895615030F07A
:100950002091F100FC0120830196F8CF289884E6CD
:10096000809319040895AF92BF92CF92DF92EF92D5
:10097000FF920F931F93CF93DF936C017B018B0149
:10098000040F151FEB015E01AE18BF08C017D10799
:1009900059F06991D601ED91FC910190F081E02D23
:1009A000C6010995892B79F7C501DF91CF911F9178
:1009B0000F91FF90EF90DF90CF90BF90AF90089590
:1009C000FC01538D448D252F30E0842F90E0821B55
:1009D000930B541710F0CF96089501970895FC01DA
:1009E000918D828D981761F0A28DAE0FBF2FB11D32
:1009F0005D968C91928D9F5F9F73928F90E008958A
:100A00008FEF9FEF0895FC01918D828D981731F043
:100A1000828DE80FF11D858D90E008958FEF9FEF97
:100A20000895FC01918D228D892F90E0805C9F4F6D
:100A3000821B91098F73992708958CE194E00E949D
:100A4000110521E0892B09F420E0822F089580E030
:100A500090E0892B29F00E941D0581110C94000063
:100A60000895FC01A48DA80FB92FB11DA35ABF4F43
:100A70002C91848D90E001968F739927848FA6899D
:100A8000B7892C93A089B1898C9182748C93938DB2
:100A9000848D981306C00288F389E02D80818F7DB4
:100AA00080830895EF92FF920F931F93CF93DF936C
:100AB000EC0181E0888F9B8D8C8D981319C0E8899B
:100AC000F989808185FF14C09FB7F894EE89FF896A
:100AD0006083E889F9898081827480839FBF81E087
:100AE00090E0DF91CF911F910F91FF90EF900895CB
:100AF000F62E0B8D10E00F5F1F4F0F731127E02EA6
:100B00008C8D8E110CC00FB607FCFACFE889F989DD
:100B1000808185FFF5CFCE010E943105F1CFEB8DAD
:100B2000EC0FFD2FF11DE35AFF4FF0829FB7F894B1
:100B30000B8FEA89FB8980818062CFCFCF93DF93CF
:100B4000EC01888D8823B9F0AA89BB89E889F989E5
:100B50008C9185FD03C0808186FD0DC00FB607FC1A
:100B6000F7CF8C9185FFF2CF808185FFEDCFCE014D
:100B70000E943105E9CFDF91CF910895CF93DF93A4
:100B80001F92CDB7DEB76983DC01ED91FC91028045
:100B9000F381E02D41E050E0BE016F5F7F4F09958A
:100BA0000F90DF91CF9108950F931F93CF93DF9311
:100BB0008C01D0E0C0E0F801EC0FFD1F64916623CA
:100BC00041F089EB94E00E94BE05892B11F021963B
:100BD000F2CFCE01DF91CF911F910F91089583E065
:100BE0008093E9008091F200882319F08AE38093D2
:100BF000E80008950E94AE0390E00895CF93DF933C
:100C00001F92CDB7DEB7FC018485958597FD08C09E
:100C10002FEF3FEF358724870F90DF91CF91089515
:100C2000CE0101960E948403019719F4898190E016
:100C3000F3CF8FEF9FEFF0CF0F931F93CF93DF93FF
:100C40001F92CDB7DEB78C01FC018485958597FF97
:100C50000BC0CE0101960E948403019771F4898133
:100C600090E0F80195878487F801848595850F9039
:100C7000DF91CF911F910F9108958FEF9FEFF1CFEB
:100C8000FC018485958597FD0BC09FB7F89482E0A1
:100C90008093E9008091F2009FBF90E00196089553
:100CA0009FB7F89482E08093E9008091F2009FBFA3
:100CB00090E0089581508F3008F047C0E82FF0E0B1
:100CC000EC59F94F0C9417278106850673067906AF
:100CD0007D06A506A506A50688068E06920696063A
:100CE0009C06A506A006809180008F7780938000E7
:100CF0000895809180008F7DF9CF80918000877F5B
:100D0000F5CF84B58F7784BD089584B58F7DFBCFF3
:100D1000809190008F77809390000895809190004B
:100D20008F7DF9CF80919000877FF5CF8091C000B3
:100D30008F778093C00008958091C0008F7DF9CF98
:100D40008091C200877F8093C2000895CF93DF9384
:100D5000282F30E0F901E254FF4F8491F901EE575A
:100D6000FA4FD491F901ED59FA4FC491CC23A1F077
:100D700081110E945A06EC2FF0E0EE0FFF1FEB5A94
:100D8000FA4FA591B491EC91ED2381E090E009F444
:100D900080E0DF91CF91089580E090E0FACF1F933B
:100DA000CF93DF93282F30E0F901E254FF4F849175
:100DB000F901EE57FA4FD491F901ED59FA4FC49168
:100DC000CC23A9F0162F81110E945A06EC2FF0E0D7
:100DD000EE0FFF1FE95BFA4FA591B4918FB7F8941E
:100DE000EC91111108C0D095DE23DC938FBFDF9109
:100DF000CF911F910895DE2BF8CFCF93DF9390E032
:100E0000FC01EE57FA4F24918D599A4FFC018491C1
:100E10008823D1F090E0880F991FFC01E055FF4F27
:100E2000A591B491FC01E95BFA4FC591D491611190
:100E30000EC09FB7F8948C91E22FE0958E238C938F
:100E40002881E223E8839FBFDF91CF9108958FB778
:100E5000F894EC91E22BEC938FBFF6CF3FB7F89468
:100E60008091620390916303A0916403B091650344
:100E700026B5A89B05C02F3F19F00196A11DB11DF5
:100E80003FBFBA2FA92F982F8827BC01CD01620F31
:100E9000711D811D911D42E0660F771F881F991FEC
:100EA0004A95D1F708958F929F92AF92BF92CF92B9
:100EB000DF92EF92FF924B015C010E942E076B01C3
:100EC0007C010E942E076C197D098E099F09683EDE
:100ED000734081059105A8F321E0821A9108A108C9
:100EE000B10888EEC80E83E0D81EE11CF11C811405
:100EF0009104A104B10429F7FF90EF90DF90CF9007
:100F0000BF90AF909F908F900895CF93C0910B01A9
:100F10006AE070E080E090E00E94530781E0C11138
:100F200001C080E0CF9108958F929F92AF92BF92BF
:100F3000CF92DF92EF92FF920F931F93CF93DF93A5
:100F40006C017B018A0180910B01882309F45CC04C
:100F500080911A04882309F457C080916C0380FFA4
:100F600005C08091E00082608093E000E801B12C30
:100F70008AEFA82E93E0892E2AE3922E209711F46F
:100F8000BB20D9F10E94AE0381110AC0AA94AA2005
:100F9000D9F161E070E080E090E00E945307EECF6D
:100FA0008C171D0611F00CF08C2F9FB7F8948092CF
:100FB000E9002091E80025FD02C09FBFDFCF282F68
:100FC00030E0C21BD30BF701815020F041914093D8
:100FD000F100FACFE20EF31EBB2021F09092E80060
:100FE000B12CEBCF8091E80085FDE7CF9092E8002F
:100FF000BB24B394209709F3F3CF5D9884E68093E4
:101000006B03101611063CF081E090E0F60193832B
:10101000828310E000E0C801DF91CF911F910F9112
:10102000FF90EF90DF90CF90BF90AF909F908F9008
:1010300008952FB7F89460915E0370915F038091DB
:101040006003909161032FBF08950895DC015196CC
:10105000ED91FC915297908150968C9180958923C7
:10106000808308952091890330918A0328173907D6
:1010700081F49091870380918803981751F0E09153
:101080008703F0E0E35EFC4F8081082E000C990B93
:1010900008958FEF9FEF08952091890330918A037F
:1010A0002817390739F48FB7F894109288031092F3
:1010B00087038FBF08952091890330918A032817F1
:1010C000390771F4809188032091870390E0805C58
:1010D0009F4F821B910960E470E00E9403270895EE
:1010E00090E080E008958F929F92AF92BF92CF924E
:1010F000DF92EF92FF92CF93DF936B017C010E940E
:1011000019084B015C0186EB95E00E945B08EC013D
:10111000892B59F40E941908681979098A099B09D1
:101120006C157D058E059F0570F3CE01DF91CF9183
:10113000FF90EF90DF90CF90BF90AF909F908F90F7
:1011400008952091890330918A0328173907B9F44B
:101150009091870380918803981789F0E091870325
:10116000F0E0E35EFC4F80812091870330E02F5F49
:101170003F4F2F7333272093870390E008958FEF1D
:101180009FEF089520E001972FEF8F3F9207D9F747
:101190000895EF92FF920F931F93CF93DF93C09127
:1011A0008903D0918A03209749F0EE85FF859D85BC
:1011B0008B8D81FF0AC08081892351F4DF91CF910B
:1011C0001F910F91FF90EF90089580818923B1F7CF
:1011D0008B899C890E94C20888E0E82EF12C10E0DF
:1011E00001E08D899E890E94C208EE85FF8580817D
:1011F0009D85892339F1102B000F81E0E81AF10851
:1012000081F78F89988D0E94C2088B8D81FD109582
:10121000809188032091870390E001968F7399272E
:101220002817190699F0E0918803F0E0E35EFC4F7F
:1012300010838091880390E001968F7399278093A3
:101240008803BCCF802F80951823D6CF8B8D8160EB
:101250008B8FB4CF962728E0AC01880F991F57FFDA
:1012600004C031E2832730E193272150A9F7089584
:1012700008956150603140F5FC0124812F7059F0D0
:10128000253010F570E0660F771F680F791FFB019E
:1012900081A592A5089570E0660F771F680F791FEA
:1012A000FB0121A532A5A0E0B5E00E94F4262FEFB6
:1012B00037E040E050E00E949326DA01C9018059EE
:1012C0009C4FAF4FBF4F08958CED95E00895FC0102
:1012D000E55BFF4F9081492F50E0062E02C05595E7
:1012E00047950A94E2F7DA01A170BB2740FF09C0D5
:1012F00021E030E001C0220F6A95EAF7209529230A
:1013000020838A2F0895BF92CF92DF92EF92FF92AF
:101310000F931F93CF93DF930E942E076B017C01E5
:10132000C0916E03D0916F03BB24BA9401E010E02A
:10133000209709F458C08D818370D1F520915E0506
:10134000422F50E08C81843048F48823C1F18130F1
:1013500099F18230B9F522E030E01AC098EF980F89
:10136000682F6450770B943058F08E3029F18F300D
:1013700091F3803121F1813129F1682F6651770B8A
:101380009B01B80102C0660F771F2A95E2F79B0107
:1013900024233523232B61F00E94A6069D8192FB16
:1013A000992790F9981789F0CA86DB86EC86FD8626
:1013B0000A80DB81C02DBCCF28E030E0E9CF24E0FB
:1013C00030E0E6CF21E030E0E3CF8A859B85AC8535
:1013D000BD859601281B390B3F872E87B88A0E944E
:1013E0001908698BE5CFDF91CF911F910F91FF9085
:1013F000EF90DF90CF90BF900895BF92CF92DF9291
:10140000EF92FF920F931F93CF93DF930E942E07CB
:101410006B017C01C0916E03D0916F0301E010E07D
:10142000BB24BA94209709F459C08D818370813010
:10143000D1F520916A05422F50E08C81843048F428
:101440008823C1F1813099F18230B9F522E030E092
:101450001AC098EF980F682F6450770B943058F0AB
:101460008E3029F18F3091F3803121F1813129F1D2
:10147000682F6651770B9B01B80102C0660F771F7A
:101480002A95E2F79B0124233523232B61F00E9448
:10149000A6069D8192FB992790F9981789F0CA8634
:1014A000DB86EC86FD860A80DB81C02DBBCF28E081
:1014B00030E0E9CF24E030E0E6CF21E030E0E3CFD8
:1014C0008A859B85AC85BD859601281B390B3F8796
:1014D0002E87B88A0E941908698BE5CFDF91CF91DA
:1014E0001F910F91FF90EF90DF90CF90BF900895E4
:1014F000FC01868597852685378582179307C9F76E
:101500000895FC01808990E0062E02C0959587958C
:101510000A94E2F780FF1CC0208981E090E001C0BE
:10152000880F6A95EAF780958223808B2685378518
:101530008685978528173907C9F7868197812817E7
:10154000390730F081E0408551854217530708F490
:1015500080E00895E09186036E2F70E04CE0E49FF8
:10156000F0011124EB5AFA4F4185809170038430C9
:1015700060F4882309F464C0813009F45BC08230D0
:1015800009F45BC081E090E010C098EF980F9430B0
:1015900008F044C08450990B21E030E0F90102C00A
:1015A000EE0FFF1F8A95E2F7CF012CE0269FF00196
:1015B000279FF00D1124EB5AFA4F2385242330E0A6
:1015C00082239323892B09F45BC00E942E0720916C
:1015D0001B0330911C03AB01421B530B9A01709308
:1015E0001C0360931B03283B5BE03507B8F1209197
:1015F000730320937203109273032FEF20937103F0
:1016000020911A0331E0211130E030931A032111A7
:101610001AC0709319036093180308958E3051F027
:101620008F3059F0803161F0813109F4ABCF8651B0
:10163000990BB2CF88E090E0B8CF82E090E0B5CFD0
:1016400084E090E0B2CF2091180330911903621B1F
:10165000730B7093170360931603089580917303BF
:10166000893070F4E0917303F0E0EE0FFF1FEC5847
:10167000FC4F31832083809173038F5F80937303CA
:101680000895662399F080917203861778F061506F
:10169000E62FF0E0EE0FFF1FEC58FC4F80819181A8
:1016A0002081318182179307C9F708958CED95E069
:1016B00008952091710330E0062E02C035952795DC
:1016C0000A94E2F7C9018170992720FF0CC040916C
:1016D000710321E030E001C0220F6A95EAF72095FE
:1016E0002423209371030895CF92DF92EF92FF920B
:1016F0006B017C010E941908C60ED71EE81EF91E58
:10170000C0921203D0921303E0921403F0921503D7
:101710000E9419086C157D058E059F05C8F3FF9082
:10172000EF90DF90CF9008950F931F93CF938C018C
:10173000C0E0C017110684F46AEF70E080E090E02A
:101740000E94740B28986DE770E080E090E00E94A2
:10175000740B289ACF5FEDCFCF911F910F91089511
:1017600090E080E00895DF92EF92FF920F931F9335
:10177000CF93DF93EC01898D9A8D892B71F481E0F1
:1017800090E09B838A8390E080E0DF91CF911F916E
:101790000F91FF90EF90DF900895162FDFB6F89429
:1017A0008B8D81FD28C0CE010E942608898D9A8DDF
:1017B0000E94C2088B8D98E0E92EF12C01E081FF98
:1017C00028C0812F8023F1F0CE010E942608898D48
:1017D0009A8D0E94C208000F81E0E81AF10889F78B
:1017E000CE010E942608DFBE898D9A8D0E94C20814
:1017F00081E090E0CACFE989FA8980819889892BB4
:101800008083D4CFE989FA8980819889892B808364
:10181000DECF812F8023B1F0E989FA898081988910
:10182000892B8083898D9A8D0E94C208000F81E0E8
:10183000E81AF10871F7E989FA8980819889892B7A
:101840008083D1CFCE010E942608ECCFCF92DF92C9
:10185000EF92FF920F931F93CF93DF93E82EC62E44
:10186000D42EE901EDEFE80FF12CE03120F4F0E0A7
:10187000EC5DFE4FF0806AE070E080E090E00E9456
:101880007308892B29F086EB95E00E94A108F3CF1D
:101890006EE786EB95E00E94B30B62E06F0D86EB7E
:1018A00095E00E94B30B6E2D86EB95E00E94B30B82
:1018B000FF2069F06C2D86EB95E00E94B30B82E06F
:1018C000F81205C06D2D86EB95E00E94B30B6FEE0C
:1018D00086EB95E00E94B30B209749F001151105A6
:1018E00031F0A80170E060E0CE010E941C2968EE92
:1018F00073E080E090E00E947308F12CE12C01502D
:10190000110966E970E080E090E00E947308892B7D
:1019100089F086EB95E00E94A108209791F3E016EC
:10192000F10678F7FE01EE0DFF1D8083C7010196D9
:101930007C01E7CFDF91CF911F910F91FF90EF9046
:10194000DF90CF9008950F931F9310E000E030E0F8
:1019500020E0482F692F83E00E94260C1F910F91F1
:1019600008950F931F93CF93DF9300D000D01F9261
:10197000CDB7DEB705E010E09E012F5F3F4F40E09E
:1019800060E00E94260C40E150E070E060E0CE0193
:1019900001960E947922CB010F900F900F900F902B
:1019A0000F90DF91CF911F910F910895CF93DF9307
:1019B000D4E0C0E082E40E94B10C982F882351F05B
:1019C000C80FD150B9F7C43011F0C83089F79C2F37
:1019D00096959695892FDF91CF9108950F931F9338
:1019E000CF93C82F0E94D60C813009F446C08FEFE8
:1019F0008C0F823088F0C430E1F0C830F9F0C0318B
:101A000011F1C03229F1C03441F1C03859F580914B
:101A10001B0490E0089606C080911B0490E0C23041
:101A200031F00196CF911F910F910C94A30C029667
:101A3000F9CF80911B0490E00396F4CF80911B04B2
:101A400090E00496EFCF80911B0490E00596EACFDA
:101A500080911B0490E00696E5CF80911B0490E0F6
:101A60000796E0CFC11109C010E000E030E020E0AF
:101A700040E060E08EE00E94260CCF911F910F9114
:101A80000895DF92EF92FF920F931F93CF93DF930E
:101A90008C01D62ED42F7C01C0E0CD1589F0CC234B
:101AA00041F00E948507882321F08EEA90E00E9491
:101AB000D405F70181917F010E94EE0CCF5FEDCF3D
:101AC000DD23B9F0CC2341F00E948507882321F063
:101AD0008CEA90E00E94D405C00FD12FD11D8881DF
:101AE000DF91CF911F910F91FF90EF90DF900C94B9
:101AF000EE0CDF91CF911F910F91FF90EF90DF904F
:101B00000895FC0101900020E9F73197AF01481BCF
:101B1000590BBC0189EB94E00C949407CF93DF93AD
:101B20000E94810DEC018FE093E00E94810D8C0FEB
:101B30009D1FDF91CF9108950C9453260C944B2652
:101B40000F931F93CF93DF93EC01888199810097C6
:101B500059F02A813B812617370730F081E0DF9169
:101B6000CF911F910F9108958B016F5F7F4F0E945E
:101B70005628009759F0998388831B830A832C8108
:101B80003D81232B59F7FC011082E8CF80E0E7CF9D
:101B9000EF92FF920F931F93CF93DF93EC017B01A2
:101BA000198218821B821A821D821C82FB010190FD
:101BB0000020E9F731978F01061B170BB8010E942F
:101BC000A00D28813981811113C02115310519F02B
:101BD000C9010E94CD27198218821D821C821B8296
:101BE0001A82DF91CF911F910F91FF90EF9008958E
:101BF0001D830C83B701C901DF91CF911F910F9114
:101C0000FF90EF900C9423291F920F920FB60F9222
:101C100011248F939F938091E1009091E100937F35
:101C20009093E10083FF0FC01092E90091E0909340
:101C3000EB001092EC0092E39093ED0010921A04E6
:101C400098E09093F00082FF22C093E09093E90027
:101C50009091F200992319F09AE39093E800909103
:101C60006B03992341F090916B03915090936B0318
:101C7000911101C05D9A90911904992341F09091BE
:101C80001904915090931904911101C0289A84FF6E
:101C900018C08091E2008E7E81608093E200809186
:101CA000E1008F7E8093E10080916C038E7E8061E5
:101CB00080936C039F918F910F900FBE0F901F9098
:101CC000189580FFF7CF8091E2008E7E806180932F
:101CD000E2008091E1008E7E8093E10080916C03B0
:101CE0008E7E8160E5CF1F920F920FB60F92112466
:101CF000CF92DF92EF92FF920F931F932F933F9318
:101D00004F935F936F937F938F939F93AF93BF9303
:101D1000EF93FF93CF93DF93CDB7DEB76C97DEBF22
:101D2000CDBF1092E9008091E80083FF25C068E0F4
:101D3000CE0145960E94A60482EF8093E8008D892B
:101D400087FF39C09091E80090FFFCCF982F9076E4
:101D500009F034C19E894F89588D2F89F88C9111D3
:101D600031C0803861F580916D038093F10010924D
:101D7000F1008EEF8093E8006C960FB6F894DEBF0A
:101D80000FBECDBFDF91CF91FF91EF91BF91AF918A
:101D90009F918F917F916F915F914F913F912F9183
:101DA0001F910F91FF90EF90DF90CF900F900FBE9B
:101DB0000F901F9018959EEF9093E800C7CF109258
:101DC000F100D5CF913059F48111D3CF4130510575
:101DD00081F680916D038D7F80936D03CACF933020
:101DE00049F48111C6CF4130510519F680916D0338
:101DF0008260F2CF953041F48091E80080FFFCCF03
:101E000020682093E300B5CF963009F0A9C00B8D70
:101E10001C8D22E01092E900109269031092680371
:101E2000F2122EC010926703109266030E9475048E
:101E30001F8299E09983FA8291E09E8390EA9887C5
:101E40009AEF99872091680330916903275F3F4F8C
:101E50003C832B838D831092E900109269031092CA
:101E60006803109367030093660349E050E0BE01E6
:101E70006F5F7F4F80E00E944F040E94750479CF0E
:101E800010936703009366030E94BF03DC01129660
:101E90000D911C910115110509F451C1D801ED9165
:101EA000FC910480F581E02DBE016B5E7F4FC8017F
:101EB0000995009709F03EC1F80100851185EACF28
:101EC000F3E0FF120EC08F89882309F440C08230EE
:101ED00061F440E862E18DE391E00E941C0481110D
:101EE00048CF81E28093EB0047CF813029F440E86E
:101EF00068E084E391E0F1CF833099F70E94BF035B
:101F0000DC011296ED90FC908E010F5F1F4F68016F
:101F1000E114F10479F0D701ED91FC910680F7818D
:101F2000E02DB801C7010995080F111DF701E084E4
:101F3000F184EECFD8011C92F60101900020E9F760
:101F40003197BF016C197D0940E0C601C6CF6EE133
:101F500071E0FB01449150E080E80E944F0409CFFA
:101F6000973009F4BECF983021F481E08093F100DE
:101F700000CF993009F0FDCE837009F0B2CFEEE1C9
:101F8000F1E081E031E096E32191222371F080932A
:101F9000E9003093EB00DF0111972C912093EC00C6
:101FA0009093ED008F5F873079F78EE78093EA009A
:101FB0001092EA008F8980931A04DBCE8B8D9C8D62
:101FC0001092E900109269031092680390936703DE
:101FD00080936603898D811192C08E899D89913A83
:101FE00049F4813209F07DCF47E050E064E071E0D0
:101FF00080E0B3CF913209F074CF833269F48F89D6
:10200000988DB0E0A0E08093000190930101A0932F
:102010000201B0930301ADCE803269F48091E800F3
:1020200082FFFCCF67E084E091E00E94A6048BEF82
:102030008093E8009ECE823209F09BCE8F898093F8
:102040000B01EEEFFFE7859194918B3F9C4D51F191
:10205000E0E0F8E08091040190910501A091060173
:10206000B0910701803B9440A105B105F1F4809146
:102070000B0180FD1AC0EE3F8AE0F80789F587E77B
:1020800097E7918380838091600080936A0388E161
:102090009BE00FB6F894A895809360000FBE9093D4
:1020A000600067CEEEEFFAE0D5CF8081918187376F
:1020B000974709F05ECEA895809160008861809373
:1020C000600080916A0380936000EE3F2AE0F2078F
:1020D00089F08091FE0A9091FF0A9183808349CE16
:1020E000808191818737980751F29093FF0A8093FE
:1020F000FE0AC5CF1092FF0A1092FE0A3ACE0E9445
:10210000BF03DC0112960D911C910115110509F414
:10211000E8CED801ED91FC910190F081E02DBE0157
:102120006B5E7F4FC8010995811123CEF8010085B0
:102130001185EBCF181619060CF41BCED2CEF1E0A8
:10214000FF12BECE62E271E004CF1F920F920FB673
:102150000F9211242F933F934F935F936F937F932D
:102160008F939F93AF93BF93EF93FF938CE194E092
:102170000E943105FF91EF91BF91AF919F918F9197
:102180007F916F915F914F913F912F910F900FBE73
:102190000F901F9018951F920F920FB60F92112457
:1021A0002F938F939F93EF93FF93E0912C04F091E3
:1021B0002D048081E0913204F091330482FD1BC034
:1021C0009081809135048F5F8F7320913604821740
:1021D00041F0E0913504F0E0E45EFB4F958F809391
:1021E0003504FF91EF919F918F912F910F900FBE2A
:1021F0000F901F9018958081F4CF1F920F920FB609
:102200000F9211242F933F938F939F93AF93BF937C
:1022100080915E0390915F03A0916003B091610390
:1022200030915D0323E0230F2D3758F50196A11D52
:10223000B11D20935D0380935E0390935F03A09391
:102240006003B09361038091620390916303A09156
:102250006403B09165030196A11DB11D80936203D3
:1022600090936303A0936403B0936503BF91AF9110
:102270009F918F913F912F910F900FBE0F901F90C4
:10228000189526E8230F0296A11DB11DD2CF1F92EB
:102290000F920FB60F9211242F933F934F935F939A
:1022A0006F937F938F939F93AF93BF93EF93FF931E
:1022B000E0911401F09115010995FF91EF91BF9103
:1022C000AF919F918F917F916F915F914F913F91CE
:1022D0002F910F900FBE0F901F9018951F920F9285
:1022E0000FB60F9211242F933F934F935F936F93E9
:1022F0007F938F939F93AF93BF93EF93FF93E0915F
:102300001201F09113010995FF91EF91BF91AF91E7
:102310009F918F917F916F915F914F913F912F91FD
:102320000F900FBE0F901F9018951F920F920FB62F
:102330000F9211242F933F934F935F936F937F934B
:102340008F939F93AF93BF93EF93FF93E09110010F
:10235000F09111010995FF91EF91BF91AF919F917C
:102360008F917F916F915F914F913F912F910F903E
:102370000FBE0F901F9018951F920F920FB60F92DD
:1023800011242F933F934F935F936F937F938F937A
:102390009F93AF93BF93EF93FF93E0910E01F09162
:1023A0000F010995FF91EF91BF91AF919F918F918F
:1023B0007F916F915F914F913F912F910F900FBE41
:1023C0000F901F9018951F920F920FB60F92112425
:1023D0002F933F934F935F936F937F938F939F932D
:1023E000AF93BF93EF93FF93E0910C01F0910D0138
:1023F0000995FF91EF91BF91AF919F918F917F913F
:102400006F915F914F913F912F910F900FBE0F9061
:102410001F9018951F920F920FB60F9211242F93B1
:102420003F934F935F936F937F938F939F93AF935C
:10243000BF93CF93EF93FF9383B190916B00892368
:102440008093600580915F05909160058927809356
:102450005E058091600580935F05C0E080915D0519
:10246000C81760F4EC2FF0E0EE0FFF1FEB5AFA4FA5
:102470000190F081E02D0995CF5FF0CFFF91EF91B2
:10248000CF91BF91AF919F918F917F916F915F910C
:102490004F913F912F910F900FBE0F901F90189565
:1024A000CF93DF9310921F0410921E0488EE93E0E6
:1024B000A0E0B0E08093200490932104A093220434
:1024C000B093230428E331E030931D0420931C04CF
:1024D0002DEC30E030932904209328042CEC30E0DC
:1024E00030932B0420932A0428EC30E030932D0401
:1024F00020932C0429EC30E030932F0420932E04F9
:102500002AEC30E030933104209330042EEC30E09C
:102510003093330420933204109235041092360421
:1025200010923704109238041092BC041092BB042D
:102530008093BD049093BE04A093BF04B093C004E5
:102540002AE431E03093BA042093B9042FEF3FEF2F
:102550003093C6042093C5042CE531E030930A057E
:102560002093090510920C0510920B0510920F058F
:102570001092110510925405E2E3F5E020E2EF011C
:1025800019922A95E9F71092B9051092B80580932F
:10259000BA059093BB05A093BC05B093BD058AE72F
:1025A00091E09093B7058093B6051092CA051092FA
:1025B000C9051092CC051092CB051092CE05109251
:1025C000CD051092D0051092CF058091D1058E7F58
:1025D0008D7F8093D10560E088E00E94FD068091A8
:1025E000D10581FD04C061E088E00E94CF0688E04B
:1025F0008093C205EAE8F5E084918093C305EBE699
:10260000F5E0E491F0E0EE0FFF1FEB5AFA4F259151
:1026100034913093C5052093C405EBE8F5E0E491CF
:10262000E093C605E81741F061E089E00E94FD06ED
:1026300061E089E00E94CF06ECE6F5E0E491F0E08D
:10264000EE0FFF1FE95BFA4F859194919093C805B7
:102650008093C70590E080E0FC01EE0FFF1FEB5A6E
:10266000FA4F20813181295C3840C1F001968430D5
:10267000910591F780915D05843080F4E0915D05CE
:10268000F0E0EE0FFF1FEB5AFA4F89EC98E09183D0
:10269000808380915D058F5F80935D058AE791E07F
:1026A0009093B7058093B6050E9419086093B20510
:1026B0007093B3058093B4059093B5050E941908F3
:1026C0006093AE057093AF058093B0059093B1050C
:1026D0000E9419086093AA057093AB058093AC051E
:1026E0009093AD0580E791E09093990580939805CC
:1026F00080919D058B7F80939D059091160180911F
:10270000950528E935E030938E0520938D059F715E
:10271000906C90938C051092940590919605209161
:102720009705207F29602093970580719C779260A0
:102730009093960580628F7E809395051092900508
:102740001092910586E691E090938B0580938A051F
:102750006FE675E084E895E0DF91CF910C94C80DA9
:10276000CF93DF93CDB7DEB7A7970FB6F894DEBF50
:102770000FBECDBF789484B5826084BD84B581607E
:1027800084BD85B5826085BD85B5816085BD80913C
:102790006E00816080936E001092810080918100B4
:1027A00082608093810080918100816080938100AC
:1027B0008091800081608093800080919100826090
:1027C000809391008091910081608093910080912D
:1027D00090008160809390008091C100846080931C
:1027E000C1008091C10082608093C1008091C100CE
:1027F00081608093C1008091C30081608093C30099
:102800008091C00082608093C0008091C20081608E
:102810008093C20080917A00846080937A008091D6
:102820007A00826080937A0080917A008160809340
:102830007A0080917A00806880937A0010921A045E
:1028400010926D0310926C038091D7008160809389
:10285000D70080EA8093D80089B5806189BD89B5A9
:10286000826089BD09B400FEFDCF61E070E080E0C8
:1028700090E00E9453078091D8008F7C8061809304
:10288000D8008091E000807F8093E0008091E1009B
:102890008E7E8093E1008DE08093E200559A209A2D
:1028A00061E081E10E94FD068FEF9FEF9093C604E7
:1028B0008093C5040E948507811113C00E941908E6
:1028C0000091AA051091AB052091AC053091AD05A2
:1028D000601B710B820B930B683E73408105910561
:1028E00048F38CE693E00E94D4058FE093E00E94C9
:1028F000810D90E080E00E949E0D8093F40381E0C2
:1029000090E00E949E0D8093FB0382E090E00E9485
:102910009E0D8093160183E090E00E949E0D8093AF
:10292000F303811121C110921B048091FC038111DA
:102930009CC061E173E0CE0101960E94C80D0E9427
:102940008507882321F080E693E00E94D4050E9449
:1029500019080091AE051091AF052091B005309196
:10296000B105601B710B820B930B693873418105B4
:10297000910508F074C00E9419080091AA051091F1
:10298000AB052091AC053091AD05601B710B820B3E
:10299000930B683E73408105910590F00E94850776
:1029A000882321F08EE593E00E94D4050E94190847
:1029B0006093AA057093AB058093AC059093AD0529
:1029C00089EB94E00E944006181619060CF0BFCF60
:1029D00089EB94E00E94FE05F82E8AA31BA20D81CC
:1029E0001E810F5F1F4FB801CE0101960E94A00DFE
:1029F000882369F029813A818D819E81BE016E5DB7
:102A00007F4F820F931F0E9423291E830D83BDE0F9
:102A1000FB129DCFC980DA80C114D10439F00D8139
:102A20001E8176010115110509F0A3C070E060E078
:102A3000CE0101960E94A00D29813A818111CFC05B
:102A40002115310519F0C9010E94CD271A8219827A
:102A50001E821D821C821B8281E08093FC0389817F
:102A60009A81009711F00E94CD270E948507882344
:102A700021F08BE593E00E94D4058091FC0388232C
:102A800009F4B5C00E948507882321F08DE393E007
:102A90000E94D4050E948507882321F08BE193E0F2
:102AA0000E94D4050E9485078823D1F08091F40309
:102AB0001F928F938CE093E09F938F931F9284E6F5
:102AC0008F938EE893E09F938F930E949A238EE8D2
:102AD00093E00E94810D0FB6F894DEBF0FBECDBF0C
:102AE0000E9485078823D1F0809116011F928F9351
:102AF00088EF92E09F938F931F9284E68F938EE8E6
:102B000093E09F938F930E949A238EE893E00E9414
:102B1000810D0FB6F894DEBF0FBECDBF8091F303D9
:102B200081116DC00E948507882321F086EE92E016
:102B30000E94D4050E948507882321F082ED92E04F
:102B40000E94D405E091FB03E150E73008F0E5C0B6
:102B5000F0E0E355FA4E0C9417270716B4182B191A
:102B60007319B419F519361A85E080931B04DDCE6C
:102B700075015701EFEFAE1ABE0AD7018C91082EEE
:102B8000000C990B0E948223892B91F701501109A7
:102B90000C0D1D1DF8018081082E000C990B0E9460
:102BA0008223892B31F00E151F0518F001501109F1
:102BB000F1CF0F5F1F4FA8014E195F095E834D8350
:102BC000CE14DF0420F4B701C6010E941329E98165
:102BD000FA818D819E81E80FF91F108227CF1E8216
:102BE0001D8261E173E0C9010E94232935CF0E9453
:102BF0008507882309F44ECF8EE193E049CF0E94E8
:102C00008507882309F496CF85ED92E091CF81E086
:102C100090E00E94940B0E948507882321F080ECAD
:102C200092E00E94D4058091FC038111CBC1809178
:102C3000160128E935E030938E0520938D058F71BC
:102C4000806C80938C0510929405809195059091ED
:102C5000960540919705407F4960409397058371A1
:102C60009C7792609093960580628F7E8093950505
:102C7000109290051092910580919D058C7F816046
:102C800080939D054DEF59E050936605409365058F
:102C90004DEF52E050931101409310019091690063
:102CA0009F7C906190936900EA9A8C7F8160809309
:102CB0009D0510929C0588E592E090939F05809376
:102CC0009E0580E699E09093A1058093A0058091F0
:102CD0006E0390916F0390939B0580939A053093B8
:102CE0006F0320936E0360E080E00E94FD0661E0C8
:102CF00080919C050E94CF0680919C05843008F04D
:102D0000D9C19DB3882309F4CFC1813009F4CEC164
:102D1000823009F0CDC1892B8DBB8091FC038111DC
:102D200051C11092D0051092CF051092CE0510928D
:102D3000CD051092CC051092CB051092CA051092C9
:102D4000C90590E080E0FC01E05BFE4F45915591A4
:102D500065917491403855426105710509F0C7C30A
:102D6000FC01EC5AFE4F259134913093CA05209313
:102D7000C905FC01EA5AFE4F259134913093CC05E8
:102D80002093CB05FC01E85AFE4F259134913093F6
:102D9000CE052093CD05FC01E65AFE4F8591949116
:102DA0009093D0058093CF058091CD059091CE056D
:102DB000892B09F454C08091C20528EF280F2430D4
:102DC00048F092EF980F943028F096EE980F9330D9
:102DD00008F03FC090916800243048F022EF280F9F
:102DE000243028F08A51F0E0E0E0833010F4E8E687
:102DF000F0E0916090839091C20538EF390F343044
:102E000050F082EF890F843030F086EE890FF0E0C9
:102E1000E0E0833010F4EBE6F0E02081343008F09D
:102E20006CC381E0692F6450770BAB0101C0880F40
:102E30004A95EAF7822B343048F022EF290F2430EC
:102E400028F09A51F0E0E0E0933010F4EBE6F0E087
:102E500080838091CF059091D0050E94C208809117
:102E6000890390918A03865B954091F08091D1050A
:102E70008E7F8093D1058FB7F894109288031092BB
:102E8000870326EB35E030938A03209389038FBFB5
:102E90009CE0A92E92E0B92E24E6722E3EE8E32EA5
:102EA00033E0F32E4FE2842E42E0942E80918B0388
:102EB00090918C03892B09F085C010E000E030E090
:102EC00020E040E060E08CE00E94260C64EF71E0BE
:102ED00080E090E00E94530730E020E040E06EE1A7
:102EE00086E00E94260C30E020E040E064E081E1D2
:102EF0000E94260C88E891E00E948E0D87E40E94D3
:102F0000B10C90938C0380938B030E9485078823D8
:102F100021F08AE492E00E94D405C0908B03D09007
:102F20008C0310E000E030E020E040E0C114D10468
:102F300009F4F8C261E089E00E94260C0E9485072E
:102F4000882399F0DF92CF929F928F921F927F9267
:102F5000FF92EF920E949A238EE893E00E94810DE7
:102F60000FB6F894DEBF0FBECDBF0E948507882341
:102F700021F08CE292E00E94D40580918B03909125
:102F80008C03892B09F092CF0E948507882321F0BA
:102F900086EE91E00E94D4050E948507882321F0E7
:102FA00083EE91E00E94D4050E948507882321F0DA
:102FB00080EE91E00E94D40560ED77E080E090E043
:102FC0000E94530700E8602E05E2702E812C912CA0
:102FD0008AE0C82ED12CE12CF12C809105048111BE
:102FE00005C00E94190881E0809305048091FD03CB
:102FF000811105C00E94190881E08093FD03809132
:10300000FC03882309F4C4C289EB94E00E944006C3
:1030100018161906ACF489EB94E00E94FE05909115
:103020008D03883009F4AAC28D3009F01DC3E92F41
:10303000F0E0E359FA4F108210928D0397FF20C3FE
:103040000E9419080091B2051091B3052091B405B2
:103050003091B505601B710B820B930B683E73407A
:1030600081059105A0F081E10E94A60661E0892B0F
:1030700009F060E081E10E94CF060E941908609388
:10308000B2057093B3058093B4059093B50580E0C5
:1030900090E0892B09F4A1CF0E941D05882309F433
:1030A0009CCF0E94000099CF84E035CE88E033CEDB
:1030B00081E031CE28EF280F243048F092EF980FAE
:1030C000943028F096EE980F933008F026CE909129
:1030D0006800243050F032EF380F343030F036EEE4
:1030E000380FF0E0E0E0333010F4E8E6F0E0916013
:1030F0009083243050F092EF980F943030F096EE99
:10310000980FF0E0E0E0933010F4EBE6F0E030816F
:103110002430C8F491E0A82FA450BB0BAD0101C02E
:10312000990F4A95EAF7932B243048F022EF280FA5
:10313000243028F08A51F0E0E0E0833010F4EBE630
:10314000F0E09083EACD98E08E3069F392E08F3022
:1031500051F394E0803139F391E0813121F3E82F8C
:10316000E651FF0BAF01DBCF82E090E00E94940BB1
:103170000E948507882321F08DEA92E00E94D40501
:103180008091FC0381111ECF809116012AE835E061
:1031900030938E0520938D058F71806280938C050E
:1031A0001092940580919505909196052091970530
:1031B000207F29602093970583719C77926090937C
:1031C000960580628F7E80939505109290051092EF
:1031D000910583B190916B00892380936005809164
:1031E000600580935F0589B18F7080936C05809135
:1031F0006C0580936B058AEA9AE09093660580934C
:1032000065058DEF92E090931101809310018091FC
:1032100069008F7C806180936900EA9A81E08093E5
:10322000860390E080E02CED35E0FC01EE0FFF1FFF
:10323000EC58FC4F31832083019689309105A9F722
:103240008AE08093730310927203109271031092BC
:103250007003EA9A62CD83E090E00E94940B0E9492
:103260008507882321F08AE992E00E94D4058091A5
:10327000FC038111A7CE8091160129E035E030933F
:103280008E0520938D058F71806280938C0510923E
:103290009405809195059091960520919705207F42
:1032A00029602093970583719C779260909396058F
:1032B00080628F7E80939505109290051092910503
:1032C0004EE260EA76E881E090E00E943903809166
:1032D0000D05807F80930D058CE194E090930C05A3
:1032E00080930B051ACD84E090E00E94940B0E941D
:1032F0008507882321F087E892E00E94D405809119
:10330000FC0381115FCE8091160129E035E03093F6
:103310008E0520938D058F71806280938C051092AD
:103320009405809195059091960520919705207FB1
:1033300029602093970583719C77926090939605FE
:1033400080628F7E80939505109290051092910572
:1033500046E060E072EC81E090E00E9439038091E9
:103360000D05807F8360B6CF85E090E00E94940BCE
:103370000E948507882321F084E792E00E94D4050B
:103380008091FC0381111ECE8091160129E035E069
:1033900030938E0520938D058F71806280938C050C
:1033A000109294058091950590919605209197052E
:1033B000207F29602093970583719C77926090937A
:1033C000960580628F7E80939505109290051092ED
:1033D000910546E060E072EC81E090E00E943903E4
:1033E00080910D05807F816075CF86E090E00E941E
:1033F000940B0E948507882321F081E692E00E94C9
:10340000D4058091FC038111DDCD8091160129E066
:1034100035E030938E0520938D058F718062809307
:103420008C051092940580919505909196052091B8
:103430009705207F29602093970583719C77926080
:103440009093960580628F7E8093950510929005EB
:103450001092910546E060E072EC81E090E00E94FD
:10346000390380910D05807F826034CF87E090E042
:103470000E94940B0E948507882321F08DE492E03E
:103480000E94D4058091FC0381119CCD809116018E
:1034900029E035E030938E0520938D058F71806291
:1034A00080938C05109294058091950590919605D6
:1034B00020919705207F29602093970583719C7741
:1034C00092609093960580628F7E8093950510920E
:1034D00090051092910546E068E478EE81E090E076
:1034E0000E94390380910D05807F8460F3CE0C9695
:1034F0008039910509F027CC57CC88E09E3009F43B
:1035000099CC82E09F3009F495CC84E0903109F4A5
:1035100091CC81E0913109F48DCCA92FA651BB0B40
:10352000AD0184CC64E089E00E94260C89E40E940D
:10353000B10C182F092F80938B0390938C030E945A
:103540008507882399F00F931F93BF92AF921F9224
:103550007F92FF92EF920E949A238EE893E00E945E
:10356000810D0FB6F894DEBF0FBECDBF0E94850758
:10357000882309F402CD89E092E0FDCC992309F477
:103580005FCD915090938D038091FC03811158CDB4
:103590008091FB038350853008F074C380910B0544
:1035A00090910C05892B09F46DC30E941908809134
:1035B0000E05681B770B6430710594F00E941908A2
:1035C00060930E0580910D058F70823009F4EDC275
:1035D00008F0DBC2882309F4DFC2813009F4E3C2BA
:1035E000B6E1BB2E15E1A12E80910B0590910C0543
:1035F000DC01ED91FC910084F185E02D0995181610
:1036000019060CF03FC30E94190860930E058091C3
:103610000B0590910C05DC01ED91FC910284F38582
:10362000E02D0995182FE0910F05E150E731E0F604
:10363000F0E0E35EF44E0C941727DC1DE71DF61D49
:103640002A1F421F621FA81FB61FD11FE71F092094
:1036500050205D2070209120C920D420E420F1204A
:10366000002111212A214C21963138F4E92FF0E074
:10367000E359FA4F80839F5F85CF10928D0384CFEB
:1036800080916D058D3409F431C10CF054C0833440
:1036900009F4B4C04CF4882359F06DE773E08DE66B
:1036A00095E00E948B2342C08434F1F18834A9F75D
:1036B00082EA91E00E948E0D89EA91E00E948E0DCF
:1036C00080EB91E00E948E0D8BEC91E00E948E0DBC
:1036D00084EF91E00E948E0D83E192E00E948E0DB6
:1036E0008FE292E00E948E0D80E492E00E948E0DA7
:1036F00082E592E00E948E0D84E692E00E948E0D9B
:1037000086E792E00E948E0D88E892E00E948E0D7E
:103710008AE992E00E948E0D8DEA92E00E948E0D61
:103720008EEB92E00E948E0D10926E058DE695E074
:103730000E948E0D29CF813509F41AC2C4F58E344A
:1037400009F48FC0803509F0A8CF80916E058D33C4
:1037500009F0A3CF8FE695E00E9464238C018130AD
:1037600029F70E9485078823C9F011271F930F931B
:103770008EEE94E09F938F931F9284E68F938EE852
:1037800093E09F938F930E949A238EE893E00E9488
:10379000810D0FB6F894DEBF0FBECDBF0E94D60CD0
:1037A000813011F281E090E00E94A30CBDCF823500
:1037B00009F4A6C1833509F070CF80916E058D3371
:1037C00009F06BCF8FE695E00E946423182F8230BA
:1037D00008F0ACCF8FEC92E0112311F081EE92E073
:1037E0000E948E0D612F83E090E00E949C0D83E08B
:1037F00090E00E949E0D8093F30396CF80916E051A
:103800008D3309F04ACF8FE695E00E9464238C0146
:103810008BEF800F8B3008F089CF602F82E090E033
:103820000E949C0D0E948507882309F47DCF1127F3
:103830001F930F9383ED94E09F938F931F9284E6E1
:103840008F938EE893E09F938F930E949A238EE844
:1038500093E00E94810D0FB6F894DEBF0FBECDBF7E
:1038600063CF80916E058D3309F017CF8FE695E019
:103870000E946423B82EB4E08B1731F0E8E08E1775
:1038800019F0F0E18F1352CF82EF92E00E94810D88
:103890002B2D30E050E040E019A28E010F5D1F4F4C
:1038A000CA01B901A70196010E947126605DD80185
:1038B0006E938D01211531054105510589F710974A
:1038C00019F0CD010E94810D8FE093E00E94810DDF
:1038D0006B2D90E080E00E949C0D10926E0590E0B0
:1038E00080E00E949E0D8093F40320CF80916E05AE
:1038F0008D3309F05BC080916F05803571F40E94B3
:103900008507882321F081EC94E00E94D40561E0D2
:1039100081E090E00E949C0D09CF833451F40E9415
:103920008507882321F08EEA94E00E94D40562E0A6
:10393000EFCF823451F40E948507882321F08BE970
:1039400094E00E94D40563E0E3CF893451F40E94EF
:103950008507882321F088E894E00E94D40564E07C
:10396000D7CF883551F40E948507882321F085E759
:1039700094E00E94D40565E0CBCF843451F40E94DA
:103980008507882321F082E694E00E94D40566E052
:10399000BFCF8A3409F0CACE0E948507882321F060
:1039A0008EE494E00E94D40567E0B2CF8F3309F033
:1039B00074CE90E080E00E949E0D8093F40382E03C
:1039C00090E00E949E0D8093160181E090E00E949D
:1039D0009E0D8093FB030E948507882321F08BE4D2
:1039E00094E00E94D4050E9485078823D1F080913D
:1039F000F4031F928F938CE394E09F938F931F9215
:103A000084E68F938EE893E09F938F930E949A238E
:103A10008EE893E00E94810D0FB6F894DEBF0FBED2
:103A2000CDBF0E9485078823D1F0809116011F9297
:103A30008F9388E294E09F938F931F9284E68F93F5
:103A40008EE893E09F938F930E949A238EE893E0F1
:103A50000E94810D0FB6F894DEBF0FBECDBFE0917E
:103A6000FB03E150E730A0F4F0E0E75CF24E0C9489
:103A70001727401D531D5A1D611D681D6F1D761DA2
:103A80000E948507882321F086E194E00E94D405F6
:103A900083E090E00E949E0D81112FC08FEC92E098
:103AA0000E948E0D43CE0E948507882389F383E010
:103AB00094E0ECCF0E948507882351F380EF93E0D8
:103AC000E5CF0E948507882319F38DED93E0DECFC3
:103AD0000E9485078823E1F28AEC93E0D7CF0E9409
:103AE00085078823A9F287EB93E0D0CF0E94850752
:103AF000882371F283EA93E0C9CF81EE92E0D0CFC0
:103B00000E948507882321F087E993E00E94D4056D
:103B100010E000E0C8010E944B26882321F060E0FD
:103B2000C8010E9453260F5F1F4F011572E017074F
:103B300089F70E948507882321F081E893E00E949D
:103B4000D40561E081E090E00E949C0D81E090E06E
:103B50000E949E0D8093FB0365E082E090E00E944E
:103B60009C0D82E090E00E949E0D80931601DECDB8
:103B700087EF92E00E948E0D68EC70E080E090E0AC
:103B80000E9453071092FC03D1CD833081F0843022
:103B900009F026CD80E104C080E18093110581E029
:103BA00080930F051DCD84E0FBCF87E0F9CF8EE039
:103BB000809311058CE0F4CF8F3031F4B092100572
:103BC00082E080930F0510CD10920F050DCD8091EE
:103BD0001005E82FF0E0E75FFA4F118781508093DE
:103BE00010058F3F09F000CD83E0EBCF811130C18C
:103BF000809110058F3F09F02BC130E0B12C20E0FF
:103C000010EB06E1EB2DF0E061E070E080E090E089
:103C1000032E04C0660F771F881F991F0A94D2F7DE
:103C20006CA37DA38EA39FA3EE0FFF1FE75FFA4F48
:103C300061A572A5402F50E0475F5A4FDA011996EF
:103C40004C9150E0022E02C0559547950A94E2F738
:103C50008CA19DA140FFF7C0862B972B92A781A72F
:103C60002F5F3F5F283011F4015020E03B3011F40A
:103C7000B39430E0115031F68FEF8093540581E01A
:103C800080930F0580918D0590918E0560918C0534
:103C9000629566956770DC01ED91FC910190F08171
:103CA000E02D0995882309F4CBC980918D05909169
:103CB0008E0560918C056F71DC01ED91FC910280A5
:103CC000F381E02D0995AC019093930580939205C3
:103CD000809195058061809395052FEF34E090E009
:103CE000F901659174914617570708F40DC3F9015E
:103CF0003296659174916417750708F405C3309185
:103D00009605432F441F4427441F80919705282F71
:103D10002F70220F242B9213FFC280919705282F1A
:103D200022952F702F5F2770322F3295307F8F783A
:103D3000832B8093970530919505432F437050E076
:103D40004F5F5F4F2417150609F07AC980919605D9
:103D5000903109F0EDC2329536953770982F9370F7
:103D6000990F990F990F932B990F990F8378892B9E
:103D70008093960590919605292F269526952F716B
:103D8000322F3295330F307E809195058F71832BC2
:103D9000322F3695369536959C7F932B90939605CA
:103DA0009C77943409F0CCC2877F809395058091ED
:103DB00091059091950592FFFDC2863008F0F8C2FA
:103DC000E82FF0E0EB50FC4F9091900590838068D5
:103DD00010929105909195059B7F9093950588236E
:103DE00009F42EC9982F9F77692F660F87FD6F5FA3
:103DF000892F90E0FC01EC50FC4F2081462F417050
:103E000060FF12C0FC01EB50FC4FE0810E2E000C55
:103E1000FF0B34E0F595E7953A95E1F7EF70F0E1A7
:103E20002F02900111242E2B30E050E00197E52F56
:103E3000F0E0E817F9070CF0C8C2EB50FC4F7081B6
:103E400037275F5FF4CF809590958623972306CF21
:103E500081E0B7CE8FE5810F823008F0B5CE8CE0DF
:103E6000113A09F080E18093110510921005612F3D
:103E700090E080E00E942A099093530580935205B8
:103E800085E09FCEE091100501E00E0F0093100534
:103E9000F0E0E75FFA4F8187682F8091520590919B
:103EA00053050E942A0990935305809352058091EF
:103EB000110590E0880F991F081719060CF494CB90
:103EC00086E07FCE009110050F5F00931005682FEC
:103ED00080915205909153050E942A0990935305B1
:103EE0008093520510911105212F30E02F5F3F4F35
:103EF000220F331F021713060CF476CB892B09F01F
:103F000063CE62E1A62E65E0B62E00E01017E1F068
:103F1000F501219131915F01322723273227A8E74C
:103F2000B5E00E94F4262FEF3FE040E050E00E9411
:103F30009326205E3C4F4F4F5F4FD5015F963C93D9
:103F40002E935E970F5FE2CF8FEF809354059ACE4A
:103F5000883A09F039CE68EA90E080E00E942A09A8
:103F6000909353058093520588E02BCE8F77813054
:103F700009F02ACE612F80915205909153050E943D
:103F80002A09909353058093520591E0113809F066
:103F900090E080910D0590FB84F980930D0589E0F8
:103FA00010CE8EEF810F8F3008F00ECE612F8091F2
:103FB0005205909153050E942A09909353058093CE
:103FC000520510931105109210058AE0FACDE09188
:103FD000100501E00E0F00931005F0E0E75FFA4FC7
:103FE0008187682F80915205909153050E942A097C
:103FF00090935305809352058091110590E0880FAE
:10400000991F081719060CF4EFCABBE0B0930F050F
:10401000EBCA009110050F5F00931005682F809187
:104020005205909153050E942A099093530580935D
:10403000520510911105212F30E02F5F3F4F220FC5
:10404000331F021713060CF4CFCA892B09F0BCCD1D
:10405000B2E1AB2EB5E0BB2E00E0101709F474CF2F
:10406000F501219131915F0132272327322750E05A
:1040700040E020523C4141095109A0EBB4E00E94CC
:10408000B226A40193010E9493262C573C4F4F4F18
:104090005F4FD5015F963C932E935E970F5FDDCF08
:1040A000803209F0A1CAEFEDFFEFF0935305E093E2
:1040B0005205FDE0F0930F0597CA803409F084CDD6
:1040C0008091520590915305805491099093530526
:1040D00080935205109210052EE020930F0584CA9C
:1040E000E091100521E02E0F20931005F0E0E75F2E
:1040F000FA4F81878091520590915305811B910958
:1041000090935305809352058091110590E0880F9C
:10411000991F5FE0281719060CF466CA50930F0523
:1041200063CA20911005E22FF0E0E75FFA4F818724
:104130002F5F2093100530911105832F90E0019699
:10414000880F991F281719060CF44ECA875F9A4FDB
:10415000DC0117968C91512E412C840D952D911DCB
:1041600040915205509153054817590709F02CCD3D
:10417000E2E1F5E080E0381731F041915191578F3D
:10418000468F8F5FF8CF8FEF8093540510920F0505
:1041900079CD8E3309F018CDEDEFF8EDF09353059E
:1041A000E0935205F1E186CF833009F00DCD63E055
:1041B00080915205909153050E94D303909353052B
:1041C0008093520522E189CF682F8091520590910A
:1041D00053050E94D303909353058093520553E1F6
:1041E0009DCF682F80915205909153050E94D30373
:1041F000909353058093520564E160930F05F4C9D1
:10420000813309F0E1CC61E380915205909153052F
:104210000E94D3039093530580935205A0920F05FB
:10422000E3C988EF810F893108F0CECC812F8695C4
:104230008093110510921005612F80915205909185
:1042400053050E94D3039093530580935205B09277
:104250000F05CAC9E091100501E00E0F009310058B
:10426000F0E0E75FFA4F8187682F809152059091C7
:1042700053050E94D3039093530580935205809178
:10428000110590E0880F991F081719060CF4ACC9A6
:1042900077E170930F05A8C920911005E22FF0E097
:1042A000E75FFA4F81872F5F20931005309111054A
:1042B000832F90E00196880F991F281719060CF498
:1042C00093C9875F9A4FDC0117968C91312E212C70
:1042D000820D932D911D4091520550915305481721
:1042E000590709F071CCE2E1F5E080E0381709F4F4
:1042F0004ACF4191519163E0569547956A95E1F710
:10430000578F468F8F5FF2CF9F5F2C5F3F4F923169
:1043100009F0E6CC0C94201890FB37F93093960501
:10432000292F26952F708078822B80939705F5CCC6
:104330009F71990F990F8378982B909396051ACDBA
:1043400083FD29C0B0E12B9F90011124209390059B
:1043500084608093950580E020919505922F977F4A
:1043600023FF986090939505813009F420CD823029
:1043700011F00C942018E0919105E63010F581E0E1
:104380008E0F80939105F0E0EB50FC4F80919005EB
:1043900080830C94201890919005292B20939005F0
:1043A0008B7F8093950581E08093940582E0D4CF44
:1043B00080E00ECD882311F40C9420181092910502
:1043C00011CD109291050C942018442329F0EB5044
:1043D000FC4F8081807F382785E5382732130C9485
:1043E00020188091F4038695869590E002966817D0
:1043F000190611F00C9420186695615085EF93E032
:104400000E94410D6091F403662311F40C9420186E
:104410008091F5036031C0F490E0643031F482950E
:104420008F7020E1829FC00111249A83898341E02B
:10443000643009F040E0669566956695CE01019678
:104440000E94410D0C9420189091F603892798271B
:104450008927603151F7982789279827E6CF8091DF
:10446000840590918505009711F00E94CD278AE779
:1044700091E09093B7058093B6052091C20548EF6F
:10448000420F443040F082EF820F843020F086EEFD
:10449000820F833068F530916B00822F8450990B26
:1044A000443078F087EF2E30A1F08DEF2F3089F077
:1044B0008BEF203171F08EEF213159F0822F865130
:1044C000990BBC0181E090E001C0880F6A95EAF782
:1044D00080958323443048F092EF920F943028F077
:1044E0002A51F0E0E0E0233010F4EBE6F0E08083C6
:1044F0000895B0E0A0E0EFE7F2E20C94BE265C0184
:104500006B017A016115710519F0FB0191838083BC
:10451000E114F10449F0C7010297839728F060E0A5
:1045200070E0CB019CC05E01E5012196F501108190
:10453000812F90E00E948223892BA9F71D3209F078
:1045400056C02196F501118101E0E114F10409F44E
:10455000AEC0F0E1EF16F10409F08EC0103341F463
:1045600088818F7D883509F083C019812296026089
:10457000E0E1EE2EF12C88248A94982CA82CFFE000
:10458000BF2E20E060E070E0CB0127010F2C000C73
:1045900066087708FE0150ED352E310E39E03315EF
:1045A00038F43FEB310F3A31A0F549EC342E310E9F
:1045B0003E141F04BCF52F3FB9F086169706A806D7
:1045C000B90670F1A30192010E946126232D30E00B
:1045D00050E040E0620F731F841F951F621773073E
:1045E00084079507E8F021E021961081D3CF1B3294
:1045F00021F4E5012296F501118100E0A6CF78E0D3
:10460000E72EF12C88248A94982CA82C6FE1B62EE2
:10461000B8CF3FE9310F3A3128F439EA332EC7CF0A
:104620002FEFE2CFC114D10431F02223E9F021971A
:10463000F601D183C08300FF07C0909580957095E7
:1046400061957F4F8F4F9F4F2F3F49F482E290E05B
:104650009093D3058093D2056FEF7FEFCB01CDB759
:10466000DEB7E1E10C94DA2601FFE5CF2297E0CF37
:1046700010E3E114F10419F23AE0E316F104E9F071
:1046800080E1E816F10409F473CFE8E0EE16F104D6
:1046900009F4B8CF6FEF7FEFCB0197010F2C000C1F
:1046A000440B550B0E94712649015A016ACF103301
:1046B00009F456CF9AE0E92EF12C89E9882E982C3E
:1046C000A82C89E1B82E5DCFFC0188279927E894B2
:1046D00021912032E9F3293010F02E30C8F32B322B
:1046E00041F02D3239F4689404C00E949223820F65
:1046F000911D219120532A30C0F31EF4909581958D
:104700009F4F089591110C94A425803219F089507F
:104710008550C8F70895FB01DC0105900D9200203B
:10472000E1F708957AE0979F902D879F802D910D56
:1047300011240895AEE0B0E0E0EAF3E20C94CB2659
:104740000D891E898F89988D2EE02C831A83098309
:1047500097FF02C080E090E801979E838D83AE01B1
:10476000455E5F4F698D7A8DCE0101960E94CA2306
:104770004D815E8157FD0AC02F813885421753074E
:104780000CF49A01020F131FF80110822E96E4E038
:104790000C94E726ABE0B0E0E0EDF3E20C94BD262C
:1047A0007C013B018A01FC0117821682838181FF13
:1047B000C8C1CE0101965C01F7019381F30193FD1D
:1047C000859193FF81913F01882309F453C185327C
:1047D00039F493FD859193FF81913F01853229F44E
:1047E000B70190E00E94BD25E7CF912C212C312C00
:1047F000FFE1F31538F08B3211F190F4803209F1BA
:10480000833229F137FC3CC020ED280F2A3050F5C7
:1048100036FE20C08AE0989E200D1124922E06C0FC
:104820008D3291F0803371F7689430F8F30193FD85
:10483000859193FF81913F018111DACF21C0689466
:1048400031F8689432F8F2CF689433F8EFCF689477
:1048500034F8ECCFEAE02E9E200D1124222E68942D
:1048600035F8E4CF8E3229F436FC04C1689436F86A
:10487000DDCF8C3619F4689437F8D8CF8836B1F28A
:10488000982F9F7D95549330E0F08336A1F18337C4
:10489000C1F1833509F063C02801F2E04F0E511CCD
:1048A000F801C080D180692D70E036FC02C06FEF46
:1048B0007FEFC6010E94A7254C01689437F882015A
:1048C0000AC00C5F1F4FFFE3F98388248394912C67
:1048D0006501E89437F833FE2DC0522C8114910401
:1048E00071F5552009F468CFB70180E290E00E948D
:1048F000BD255A94F6CFF801808189830E5F1F4F42
:10490000E4CF2801F2E04F0E511CF801C080D180A5
:10491000692D70E036FC02C06FEF7FEFC6010E9488
:10492000B2254C018201D5CFB70180E290E00E9410
:10493000BD252A942814190409F0B0F7CECFF6014A
:1049400037FC859137FE81916F01B70190E00E949D
:10495000BD2551105A94F1E08F1A9108BFCF8436CB
:1049600019F0893609F077C0F80137FE6BC0608115
:104970007181828193810C5F1F4FF32DFF763F2E53
:1049800097FF09C090958095709561957F4F8F4FE7
:104990009F4F689437F82AE030E0A5010E94ED258A
:1049A000C82ECA188C2C432C36FE0CC0E89440F854
:1049B000C91440F434FE05C032FC03C0F32DFE7E62
:1049C0004F2E892C44FE95C0FE01EC0DF11D808117
:1049D000803309F087C0242D297E422E842D8870D3
:1049E000582E43FC95C040FE8FC09C2C821418F4B6
:1049F0002C0C922C981844FE91C0B70180E390E0F3
:104A00000E94BD2542FE09C088E790E041FE02C039
:104A100088E590E0B7010E94BD25C91408F48AC05A
:104A2000CA94D12C9FEFC91AD90ACA0CDB1CF60113
:104A300082916F01B70190E00E94BD25AC14BD04C6
:104A4000B1F74FCF60817181072E000C880B990B55
:104A50000E5F1F4F92CFD32CE894D4F82AE030E0B9
:104A6000853739F1232D297FD22E8F3601F148F475
:104A70008835A9F0F701868197812B96E2E10C94A5
:104A8000D926803749F08837A9F7D4FE02C0689448
:104A9000D2F820E130E00DC06894D4F8F6CF34FEAF
:104AA00003C0822F8660D82E20E132E002C028E0C9
:104AB00030E0F801D7FE0FC060817181828193815F
:104AC0000C5F1F4FA5010E94ED25C82ECA183D2C72
:104AD000E89437F867CF6081718190E080E00E5FE5
:104AE0001F4FF0CF42FC02C0839478CF839483940D
:104AF00075CF842D867809F471CFF6CFB70180E2A7
:104B000090E00E94BD2583948214C0F3512C73CF92
:104B1000522C5818821408F46ECFF8CF842D867862
:104B200009F47BCF8BE241FE80E247FC8DE2B701C6
:104B300090E071CFB70180E390E00E94BD259A9488
:104B40006CCF8FEF9FEF99CF992788270895FC01AD
:104B50000590615070400110D8F7809590958E0FA8
:104B60009F1F0895FC016150704001900110D8F71B
:104B7000809590958E0F9F1F08950F931F93CF934D
:104B8000DF93182F092FEB018B8181FD09C01FEFE7
:104B90000FEF812F902FDF91CF911F910F910895EB
:104BA00082FF14C02E813F818C819D812817390797
:104BB0003CF4E881F981CF010196998388831083C1
:104BC0008E819F8101969F838E83E3CFE885F9854F
:104BD000812F0995892BA1F3DACFFA01AA27283072
:104BE00051F1203181F1E8946F936E7F6E5F7F4FBA
:104BF0008F4F9F4FAF4FB1E03ED0B4E03CD0670F36
:104C0000781F891F9A1FA11D680F791F8A1F911D88
:104C1000A11D6A0F711D811D911DA11D20D009F4D8
:104C200068943F912AE0269F11243019305D31931A
:104C3000DEF6CF010895462F4770405D4193B3E003
:104C40000FD0C9F7F6CF462F4F70405D4A3318F0AA
:104C5000495D31FD4052419302D0A9F7EACFB4E05B
:104C6000A6959795879577956795BA95C9F7009713
:104C70006105710508959B01AC010A2E06945795B4
:104C8000479537952795BA95C9F7620F731F841F0B
:104C9000951FA01D0895F999FECF92BD81BDF89A88
:104CA000992780B50895262FF999FECF1FBA92BD96
:104CB00081BD20BD0FB6F894FA9AF99A0FBE0196FD
:104CC0000895DB018F939F930E94B226BF91AF910D
:104CD000A29F800D911DA39F900DB29F900D112456
:104CE0000895A1E21A2EAA1BBB1BFD010DC0AA1F2D
:104CF000BB1FEE1FFF1FA217B307E407F50720F045
:104D0000A21BB30BE40BF50B661F771F881F991FBF
:104D10001A9469F760957095809590959B01AC0108
:104D2000BD01CF010895052E97FB1EF400940E944B
:104D3000AA2657FD07D00E94712607FC03D04EF427
:104D40000C94AA2650954095309521953F4F4F4F92
:104D50005F4F089590958095709561957F4F8F4F27
:104D60009F4F08950E94F426A59F900DB49F900D2B
:104D7000A49F800D911D112408952F923F924F9270
:104D80005F926F927F928F929F92AF92BF92CF92DB
:104D9000DF92EF92FF920F931F93CF93DF93CDB7E4
:104DA000DEB7CA1BDB0B0FB6F894DEBF0FBECDBF5C
:104DB00009942A88398848885F846E847D848C842D
:104DC0009B84AA84B984C884DF80EE80FD800C8136
:104DD0001B81AA81B981CE0FD11D0FB6F894DEBF19
:104DE0000FBECDBFED010895A29FB001B39FC001DA
:104DF000A39F700D811D1124911DB29F700D811D07
:104E00001124911D089597FB072E16F4009407D0E6
:104E100077FD09D00E941D2707FC05D03EF4909530
:104E200081959F4F0895709561957F4F0895EE0F7E
:104E3000FF1F0590F491E02D0994AA1BBB1B51E1C3
:104E400007C0AA1FBB1FA617B70710F0A61BB70BFA
:104E5000881F991F5A95A9F780959095BC01CD019F
:104E600008950F931F93CF93DF938230910510F431
:104E700082E090E0E091D605F091D70530E020E0A7
:104E8000B0E0A0E0309799F42115310509F44AC04B
:104E9000281B390B24303105D8F58A819B81611597
:104EA000710589F1FB0193838283FE0111C040816A
:104EB00051810281138148175907E0F048175907BB
:104EC00099F4109761F012960C93129713961C9315
:104ED0003296CF01DF91CF911F910F9108950093EA
:104EE000D6051093D705F4CF2115310551F042179F
:104EF000530738F0A901DB019A01BD01DF01F80178
:104F0000C1CFEF01F9CF9093D7058093D605CDCFD0
:104F1000FE01E20FF31F81939193225031093983EF
:104F20002883D7CF2091D4053091D505232B41F488
:104F30002091190130911A013093D5052093D405A1
:104F400020911701309118012115310541F42DB739
:104F50003EB740911B0150911C01241B350BE09181
:104F6000D405F091D505E217F307A0F42E1B3F0BF3
:104F70002817390778F0AC014E5F5F4F24173507CB
:104F800048F04E0F5F1F5093D5054093D405819391
:104F900091939FCFF0E0E0E09CCFCF93DF93009719
:104FA000E9F0FC01329713821282A091D605B091EC
:104FB000D705ED0130E020E01097A1F42081318188
:104FC000820F931F2091D4053091D50528173907FA
:104FD00009F061C0F093D505E093D405DF91CF913E
:104FE0000895EA01CE17DF07E8F54A815B819E014B
:104FF00041155105B1F7E901FB83EA8349915991C4
:10500000C40FD51FEC17FD0761F4808191810296D2
:10501000840F951FE90199838883828193819B8303
:105020008A83F0E0E0E012968D919C9113970097AF
:10503000B9F52D913C911197CD010296820F931FE6
:105040002091D4053091D5052817390739F63097C6
:1050500051F51092D7051092D605B093D505A093BF
:10506000D405BCCFD383C28340815181840F951F67
:10507000C817D90761F44E5F5F4F88819981480F47
:10508000591F518340838A819B8193838283211599
:10509000310509F0B0CFF093D705E093D6059ECF48
:1050A000FD01DC01C0CF13821282D7CFB0E0A0E0B7
:1050B000ECE5F8E20C94BF268C01009751F4CB018B
:1050C0000E9431278C01C801CDB7DEB7E0E10C9416
:1050D000DB26FC01E60FF71F9C0122503109E21785
:1050E000F30708F49DC0D901CD91DC911197C61743
:1050F000D70798F0C530D10530F3CE010497861755
:10510000970708F3C61BD70B2297C193D1936D93D2
:105110007C93CF010E94CD27D6CF5B01AC1ABD0A8C
:105120004C018C0E9D1EA091D605B091D705512C37
:10513000412CF12CE12C109731F58091D405909100
:10514000D5058815990509F05CC04616570608F084
:1051500058C08091170190911801009741F48DB7C4
:105160009EB740911B0150911C01841B950BE817C1
:10517000F90708F055C0F093D505E093D405F9017F
:1051800071836083A0CF8D919C91119712966C9042
:10519000129713967C901397A815B90559F56C01D1
:1051A00042E0C40ED11CCA14DB0420F1AC014A1940
:1051B0005B09DA011296159780F06282738251833F
:1051C0004083D9016D937C93E114F10471F0D70110
:1051D0001396FC93EE93129776CF22968C0F9D1F19
:1051E000F90191838083F301EFCFF093D705E0932A
:1051F000D60569CF4816590608F42C017D01D30164
:105200009ACFCB010E9431277C01009749F0AE0173
:10521000B8010E941329C8010E94CD27870153CFEE
:1052200010E000E050CFFB01DC0102C001900D92C4
:1052300041505040D8F70895DC0101C06D934150B2
:105240005040E0F70895FB01DC0101900D92002031
:10525000E1F7089512E0C2EDD2E004C0FE010E9421
:0E52600017272196C33DD107C9F7F894FFCF59
:10526E00FFFFFFFF00E100000000000025082508F9
:10527E00250825082508050000D805800000C180F6
:10528E00810000000200000101000100000000008A
:10529E0001000102000000005205B304E0049E0567
:1052AE001105EF04030500000000BE059407FA0582
:1052BE00EF054006FE051C060000000067093909CF
:1052CE00380900000000590B410B3809000000009E
:1052DE00810A780A380900000000B30BB304B00B42
:1052EE004C085B08A10832084E6F6E652028706C62
:1052FE0061792066696C6520616E642073746F70CD
:10530E002900482048656C70005120717569740041
:10531E004E3D34206F722038206F7220313620536C
:10532E006F756E6473206D6F646500433D352C366A
:10533E002C372C392C31302C31312C31322C31335D
:10534E002C31342C31352058616E79204368616ED2
:10535E006E656C00503D3120506C617920736F7515
:10536E006E6420312028436F6E666967204D6F642E
:10537E00652900533D302C312073657420736869A4
:10538E006674206D6F6465204F6E2F4F6666004DFC
:10539E003D50207365742050574D206D6F6465002D
:1053AE004D3D4320736574204350504D206D6F6406
:1053BE0065004D3D42207365742053425553206D58
:1053CE006F6465004D3D4920736574204942555305
:1053DE00206D6F6465004D3D5820736574205352E7
:1053EE004C58206D6F6465004D3D442073657420EC
:1053FE0053554D44206D6F6465004D3D4A207365D5
:10540E0074204A45544978206D6F6465004D3F20E5
:10541E0052657475726E20636F6E666967005220F6
:10542E00736574205245534554206D6F6465005367
:10543E0068696674206D6F6465206973204F6666B7
:10544E00005368696674206D6F6465206973204F20
:10545E006E0053573A2000457869742020636F6EB2
:10546E0066696775726174696F6E206D6F64650D24
:02547E000A0022
:00000001FF
