:100000000C942C020C94CC260C94A5260C947E26E1
:100010000C9457260C9454020C9454020C943026E1
:100020000C9454020C94F3260C94ED220C945C2353
:100030000C9454020C9454020C9454020C945402E8
:100040000C9454020C9454020C9454020C945402D8
:100050000C9454020C9454020C9454020C94E62513
:100060000C9454020C94B4250C948E250C945402D8
:100070000C9454020C9454020C9454020C945402A8
:100080000C9454020C9454020C9454020C94540298
:100090000C9454020C9454020C9454020C9439277E
:1000A0000C9454020C9454020C945402485750522D
:1000B000494F00564F4C004551004E4200545241AA
:1000C000434B00415454454E0053454C004C49535A
:1000D00054004D4158004D494E004D4F4445005A83
:1000E00045524F0046494C54455200544553540024
:1000F0004155580054485200454E4700534D4F4B10
:100100004500524300434F4E4600EB00E400DF0041
:10011000DA00D600D200CD00C900C300BD00BA008D
:10012000B700B300AC0005010201FC00F800F400C8
:10013000F00000000000250028002B002E003100F8
:10014000000000002300260029002C002F000000E2
:10015000000200090F0000030401000C0000000071
:1001600000000000000000000000000000080B007C
:10017000020202000009040000010202000005243E
:1001800000100105240101010424020605240600D3
:10019000010705810310004009040100020A000064
:1001A000000705020240000007058302400000042A
:1001B00003090412010002EF0201404123368000CE
:1001C000010102030141726475696E6F204C4C435A
:1001D0000041726475696E6F204C656F6E61726468
:1001E0006F0000000000240027002A002D003000CE
:1001F0000408020110408040102040804080080226
:100200000401804020100201108010204040200492
:1002100004040404030405020202020403020202AD
:1002200002060606060606040402020204042E491B
:10023000444C002E53544100121314150708415525
:10024000582E48575052494F3F004155582E564F4F
:100250004C3F004155582E45513F004155582E54B2
:100260005241434B3F004155582E4E423F00534DA3
:100270004F4B452E4D41583F00534D4F4B452E4D52
:10028000494E3F00534D4F4B452E4D4F44453F0087
:10029000454E472E415454454E3F00454E472E5340
:1002A000454C3F00454E472E4C4953543F0054485F
:1002B000522E5A45524F3F0052435F534F554E44C2
:1002C0005F534D4F4B452056302E35205B454B4DEF
:1002D00046415D20284329205243204E6176790013
:1002E000434F4E46002C20002E5354410043616E74
:1002F0006E6F74206F70656E20726F6F7421000ACC
:100300000045525200434F4E5445585420455252D6
:1003100000554E4B4E4F574E20434D44004C454EDA
:10032000005052494F002575004F5554204F46202C
:1003300052414E4745002575004F5554204F4620E9
:1003400052414E4745002575002575004F555420F4
:100350004F462052414E4745002E535441000A005B
:100360004F5554204F462052414E4745004D41586D
:10037000203C3D204D494E004F5554204F462052C1
:10038000414E4745004D494E203E3D204D415800CD
:100390004F5554204F462052414E4745001D6301A2
:1003A00000326701005F6B0100A56F0100CD810184
:1003B00000A0860100918B0100A4900100D8950156
:1003C000002F9B0100AAA001004CA6010015AC0162
:1003D000004F4646000000FF010101020402030233
:1003E00000040203050204060205070306080307CA
:1003F0000903080A050A0B05090C050B0D050C0E6F
:10040000050D2601060A010E52435F534F554E4417
:100410005F534D4F4B452056302E35205B454B4D9D
:1004200046415D20284329205243204E61767900C1
:1004300041726700496400436D64005E2D2D457272
:1004400072200020007C3C3E5E2B3D3F2F5B5D3BDD
:100450002C2A225C0000AD2911241FBECFEFDAE068
:10046000DEBFCDBF11E0A0E0B1E0EEE6FFE602C0E6
:1004700005900D92A438B107D9F726E0A4E8B1E0C1
:1004800001C01D92AC3CB207E1F712E0CCE2D2E031
:1004900004C02197FE010E944D36CB32D107C9F727
:1004A0000E94282A0C94B5370C9400001092850005
:1004B00010928400E0E8F0E08081806480830895F9
:1004C0008F929F92AF92BF92CF92DF92EF92FF9264
:1004D000CF939B01AC0160E072E18AE790E00E945B
:1004E000D8352115310581E04807510508F449C088
:1004F0002115310588E04807510508F446C021154B
:10050000310580E44807510508F443C0C4E080E0A9
:1005100091E06C01F12CE12C9695879549015A01E7
:10052000880E991EA11CB11CC501B401A70196013A
:100530000E94D835C901019710928000C860C0930D
:100540008100109282009093890080938800442754
:100550005527C701B6010E9409369B01AC0160E036
:1005600072E18AE790E00E94D835CA01B901CF91C3
:10057000FF90EF90DF90CF90BF90AF909F908F90C3
:100580000895C1E081E090E0C4CFC2E088E090E04F
:10059000C0CFC3E080E490E0BCCFFC018091EB01D0
:1005A000882311F13FB7F89482E08093E90020910D
:1005B000F200822F90E01816190614F481E090E002
:1005C000882339F0289844E64093EA014091F100ED
:1005D0004083222339F02091F200211103C02BE641
:1005E0002093E8003FBF08958FEF9FEF08952FB746
:1005F000F89483E08093E9009091E800892F80725D
:1006000095FF04C09091F20080E4891B2FBF0895EC
:100610008091E20181110DC082E08093DE0184E0CF
:100620008093DF011092E1011092E00181E080935C
:10063000E2018EED91E008954091BD015091BE011F
:100640002091BB013091BC0142175307B4F4909143
:10065000E8009570E1F39091E80092FD19C0809355
:10066000F1008091BD019091BE0101968F73992791
:10067000892B19F48EEF8093E8008091BD01909151
:10068000BE0101969093BE018093BD0181E0089563
:1006900080E00895DF92EF92FF920F931F93CF9324
:1006A000DF93D82E8A01EB017B01E40EF51ECE15F7
:1006B000DF0559F0D7FE12C0FE0184910E941C0391
:1006C00021968111F4CF0FEF1FEFC801DF91CF9179
:1006D0001F910F91FF90EF90DF9008958881EECFEA
:1006E0000F931F93CF93DF931F92CDB7DEB782E0B6
:1006F000898342E450E06DE671E080E80E944A039D
:100700000E940803DC0112960D911C910115110540
:1007100089F0D801ED91FC910280F381E02DBE01BA
:100720006F5F7F4FC801099597FD04C0F8010085F0
:100730001185ECCF89810F90DF91CF911F910F919F
:100740000895615030F02091F100FC012083019662
:10075000F8CF289884E68093EA010895EF92FF92FB
:100760000F931F93CF93DF938C017B01D0E0C0E008
:10077000F701EC0FFD1F6491662361F0D801ED9144
:10078000FC910190F081E02DC8010995892B11F0B1
:100790002196EECFCE01DF91CF911F910F91FF9067
:1007A000EF900895AF92BF92CF92DF92EF92FF92B7
:1007B0000F931F93CF93DF936C017B018B01040F89
:1007C000151FEB015E01AE18BF08C017D10759F025
:1007D0006991D601ED91FC910190F081E02DC60167
:1007E0000995892B79F7C501DF91CF911F910F9161
:1007F000FF90EF90DF90CF90BF90AF900895FC01F5
:10080000538D448D252F30E0842F90E0821B930B75
:10081000541710F0CF96089501970895FC01918D1B
:10082000828D981761F0A28DAE0FBF2FB11D5D961E
:100830008C91928D9F5F9F73928F90E008958FEFC0
:100840009FEF0895FC01918D828D981731F0828D74
:10085000E80FF11D858D90E008958FEF9FEF0895CB
:10086000FC01918D228D892F90E0805C9F4F821B2F
:1008700091098F73992708958DE294E00E943004C6
:1008800021E0892B09F420E0822F089580E090E098
:10089000892B29F00E943C0481110C9400000895DA
:1008A000FC01A48DA80FB92FB11DA35ABF4F2C91E5
:1008B000848D90E001968F739927848FA689B789DC
:1008C0002C93A089B1898C9182748C93938D848DA3
:1008D000981306C00288F389E02D80818F7D808384
:1008E0000895EF92FF920F931F93CF93DF93EC0144
:1008F00081E0888F9B8D8C8D981319C0E889F989C8
:10090000808185FF14C09FB7F894EE89FF896083CA
:10091000E889F9898081827480839FBF81E090E0BB
:10092000DF91CF911F910F91FF90EF900895F62ED8
:100930000B8D10E00F5F1F4F0F731127E02E8C8D72
:100940008E110CC00FB607FCFACFE889F9898081B7
:1009500085FFF5CFCE010E945004F1CFEB8DEC0F57
:10096000FD2FF11DE35AFF4FF0829FB7F8940B8FD4
:10097000EA89FB8980818062CFCFCF93DF93EC013E
:10098000888D8823B9F0AA89BB89E889F9898C9177
:1009900085FD03C0808186FD0DC00FB607FCF7CF33
:1009A0008C9185FFF2CF808185FFEDCFCE010E9433
:1009B0005004E9CFDF91CF910895CF93DF931F9239
:1009C000CDB7DEB76983DC01ED91FC910280F38144
:1009D000E02D41E050E0BE016F5F7F4F09950F9021
:1009E000DF91CF91089583E08093E9008091F20038
:1009F000882319F08AE38093E80008950E94F702A3
:100A000090E00895CF93DF931F92CDB7DEB7FC013E
:100A10008485958597FD08C02FEF3FEF35872487A4
:100A20000F90DF91CF910895CE0101960E94CD02E3
:100A3000019719F4898190E0F3CF8FEF9FEFF0CF0A
:100A40000F931F93CF93DF931F92CDB7DEB78C0127
:100A5000FC018485958597FF0BC0CE0101960E940D
:100A6000CD02019771F4898190E0F8019587848720
:100A7000F801848595850F90DF91CF911F910F919B
:100A800008958FEF9FEFF1CFFC018485958597FD49
:100A90000BC09FB7F89482E08093E9008091F20048
:100AA0009FBF90E0019608959FB7F89482E08093ED
:100AB000E9008091F2009FBF90E0089581508F304F
:100AC00008F047C0E82FF0E0E859FA4F0C944D3693
:100AD0008505890577057D058105A905A905A90570
:100AE0008C05920596059A05A005A905A405809197
:100AF00080008F77809380000895809180008F7DA3
:100B0000F9CF80918000877FF5CF84B58F7784BD42
:100B1000089584B58F7DFBCF809190008F7780936F
:100B200090000895809190008F7DF9CF8091900082
:100B3000877FF5CF8091C0008F778093C0000895A4
:100B40008091C0008F7DF9CF8091C200877F809314
:100B5000C2000895CF93DF93282F30E0F901E25BC4
:100B6000FE4F8491F901E051FE4FD491F901E15F0C
:100B7000FD4FC491CC23A1F081110E945E05EC2FA2
:100B8000F0E0EE0FFF1FE05CFE4FA591B491EC91F9
:100B9000ED2381E090E009F480E0DF91CF910895AA
:100BA00080E090E0FACF1F93CF93DF93282F30E0BF
:100BB000F901E25BFE4F8491F901E051FE4FD491BF
:100BC000F901E15FFD4FC491CC23A9F0162F8111EB
:100BD0000E945E05EC2FF0E0EE0FFF1FEE5CFE4F73
:100BE000A591B4918FB7F894EC91111108C0D095EC
:100BF000DE23DC938FBFDF91CF911F910895DE2B11
:100C0000F8CFCF93DF9390E0FC01E051FE4F2491A9
:100C1000815F9D4FFC0184918823D1F090E0880F83
:100C2000991FFC01EE51FE4FA591B491FC01EE5CC1
:100C3000FE4FC591D49161110EC09FB7F8948C916D
:100C4000E22FE0958E238C932881E223E8839FBFD7
:100C5000DF91CF9108958FB7F894EC91E22BEC934C
:100C60008FBFF6CF3FB7F8948091B7019091B8014C
:100C7000A091B901B091BA0126B5A89B05C02F3F3C
:100C800019F00196A11DB11D3FBFBA2FA92F982FB2
:100C90008827BC01CD01620F711D811D911D42E0AD
:100CA000660F771F881F991F4A95D1F708958F9275
:100CB0009F92AF92BF92CF92DF92EF92FF924B0141
:100CC0005C010E9432066B017C010E9432066C19A5
:100CD0007D098E099F09683E734081059105A8F33F
:100CE00021E0821A9108A108B10888EEC80E83E0BD
:100CF000D81EE11CF11C81149104A104B10429F750
:100D0000FF90EF90DF90CF90BF90AF909F908F902B
:100D100008958F929F92AF92BF92CF92DF92EF92FF
:100D2000FF920F931F93CF93DF936C017B018A0196
:100D300080911501882309F45CC08091EB01882320
:100D400009F457C08091C10180FF05C08091E00087
:100D500082608093E000E801B12C8AEFA82E93E036
:100D6000892E2AE3922E209711F4BB20D9F10E94FC
:100D7000F70281110AC0AA94AA20D9F161E070E0BB
:100D800080E090E00E945706EECF8C171D0611F010
:100D90000CF08C2F9FB7F8948092E9002091E80026
:100DA00025FD02C09FBFDFCF282F30E0C21BD30B31
:100DB000F701815020F041914093F100FACFE20E0B
:100DC000F31EBB2021F09092E800B12CEBCF809174
:100DD000E80085FDE7CF9092E800BB24B39420970C
:100DE00009F3F3CF5D9884E68093C00110161106D5
:100DF0003CF081E090E0F6019383828310E000E014
:100E0000C801DF91CF911F910F91FF90EF90DF907C
:100E1000CF90BF90AF909F908F9008952FB7F89488
:100E20006091B3017091B4018091B5019091B601C8
:100E30002FBF0895089589B18F70EAE9F1E0878B9B
:100E4000868997898927858B8789868B0288F3898C
:100E5000E02D099489B18F70EAE9F1E0878B8689EA
:100E600097898927858B8789868B0088F189E02D72
:100E7000099489B18F70EAE9F1E0878B86899789B7
:100E80008927858B8789868B0684F785E02D0994D1
:100E900089B18F70EAE9F1E0878B86899789892784
:100EA000858B8789868B0484F585E02D09948230B3
:100EB00099F47093A9016093A80189E397E0909356
:100EC00003018093020180916900837F8460809395
:100ED0006900E99A81E008957093A7016093A601E3
:100EE00088E497E09093010180930001809169006C
:100EF0008C7F816080936900E89AECCF1F93CF9339
:100F0000DF93EC01162F8D818C7F81608D836DE1E5
:100F100078E0812F0E945707982F93708D818C7FE6
:100F2000892B8D831C8388E592E09F838E8380E6E6
:100F300099E09987888780912202909123029B8370
:100F40008A83D0932302C093220260E0812F0E9403
:100F5000010661E08C810E94D3058C818430B0F45D
:100F60009DB3882369F0813069F0823069F081E0B7
:100F7000892B8DBB8D818370DF91CF911F91089557
:100F800084E0F6CF88E0F4CF82E0F2CF28EF280F9C
:100F9000243040F092EF980F943020F096EE980FA6
:100FA000933040F790916800243050F032EF380FC2
:100FB000343030F036EE380FF0E0E0E0333010F44B
:100FC000E8E6F0E091609083243050F092EF980FC3
:100FD000943030F096EE980FF0E0E0E0933010F4AB
:100FE000EBE6F0E030812430C0F491E0682F6450EB
:100FF000770B01C0990F6A95EAF7932B243048F0DC
:1010000022EF280F243028F08A51F0E0E0E083300E
:1010100010F4EBE6F0E09083ADCF98E08E3069F30A
:1010200092E08F3051F394E0803139F391E08131D7
:1010300021F3682F6651770BDCCFBF92CF92DF92FE
:10104000EF92FF920F931F93CF93DF930E9432068C
:101050006B017C01C0912202D091230201E010E0DB
:10106000BB24BA94209709F459C08D8183708130D4
:10107000D1F52091AF01422F50E08C81843048F4AB
:101080008823C1F1813099F18230B9F522E030E056
:101090001AC098EF980F682F6450770B943058F06F
:1010A0008E3029F18F3091F3803121F1813129F196
:1010B000682F6651770B9B01B80102C0660F771F3E
:1010C0002A95E2F79B0124233523232B61F00E940C
:1010D000AA059D8192FB992790F9981789F0CA86F5
:1010E000DB86EC86FD860A80DB81C02DBBCF28E045
:1010F00030E0E9CF24E030E0E6CF21E030E0E3CF9C
:101100008A859B85AC85BD859601281B390B3F8759
:101110002E87B88A0E940E07698BE5CFDF91CF91A9
:101120001F910F91FF90EF90DF90CF90BF900895A7
:10113000BF92CF92DF92EF92FF920F931F93CF93C4
:10114000DF930E9432066B017C01C0912202D09194
:101150002302BB24BA9401E010E0209709F458C0A0
:101160008D818370D1F52091A301422F50E08C81B5
:10117000843048F48823C1F1813099F18230B9F587
:1011800022E030E01AC098EF980F682F6450770B78
:10119000943058F08E3029F18F3091F3803121F165
:1011A000813129F1682F6651770B9B01B80102C08C
:1011B000660F771F2A95E2F79B0124233523232B03
:1011C00061F00E94AA059D8192FB992790F99817DA
:1011D00089F0CA86DB86EC86FD860A80DB81C02D1D
:1011E000BCCF28E030E0E9CF24E030E0E6CF21E0DA
:1011F00030E0E3CF8A859B85AC85BD859601281BB1
:10120000390B3F872E87B88A0E940E07698BE5CF7E
:10121000DF91CF911F910F91FF90EF90DF90CF90D2
:10122000BF9008950895FC018685978526853785AA
:1012300082179307C9F70895FC01808990E0062E74
:1012400002C0959587950A94E2F780FF1CC020891B
:1012500081E090E001C0880F6A95EAF780958223CB
:10126000808B268537858685978528173907C9F7A6
:10127000868197812817390730F081E040855185B4
:101280004217530708F480E008958F929F92AF921F
:10129000BF92CF92DF92EF92FF926C010E940E07F5
:1012A0004B015C01F12CE12C0E940E0768197909B1
:1012B0008A099B096C157D058E059F0540F4E09118
:1012C000C401F091C501309779F30995EDCFFF90F6
:1012D000EF90DF90CF90BF90AF909F908F90089548
:1012E0008F929F92AF92BF92CF92DF92EF92FF9236
:1012F000CF93DF93D82FC62F0E940E076B017C017E
:101300008090290490902A04A0902B04B0902C0483
:10131000C814D904EA04FB0409F44AC00E940E0769
:101320006B017C01C818D908EA08FB0882E3C816DB
:10133000D104E104F10430F482E390E08C199D09BA
:101340000E944509D0931E0110922001C0932101F3
:1013500080911C0190911D01890F9927991F8D0F74
:10136000911D60911F01680F792F711D6C0F711D08
:1013700071956195710970932201609323018091A9
:10138000270490912804DC01ED91FC910084F18503
:10139000E02D0995892B99F08091270490912804DC
:1013A000DC01ED91FC910284F385E02D0995E7CFF6
:1013B0000E940E07C61AD70AE80AF90AB7CFCBE18E
:1013C000D1E080912704909128046991DC01ED918E
:1013D000FC910190F081E02D0995B1E0C532DB0769
:1013E00081F70E940E076093290470932A0480936A
:1013F0002B0490932C04DF91CF91FF90EF90DF901E
:10140000CF90BF90AF909F908F900895BC0186E0E1
:101410000C94700970E060E00C9470098FB7F89438
:10142000809189018FBF089561E0FC0184810E9451
:10143000D3058091880181111092880108958EBD95
:1014400000000DB407FEFDCF8EB508958FEF0C940C
:101450001F0A0F931F93CF93DF93EC010E940E0797
:101460008B010E94260A8F3F69F00E940E07601BC5
:10147000710B6C177D07A8F380E0DF91CF911F916E
:101480000F91089581E0F9CF8CBD9DBD0895CF9354
:10149000DF93EC0180918801811109C081E0809384
:1014A000880180911A0590911B050E94440A60E012
:1014B0008C81DF91CF910C94D3058F929F92AF9244
:1014C000BF92FF920F931F93CF93DF93EC01F62E01
:1014D00049015A018E81882389F08F8198859C016A
:1014E0002F5F3F4F38872F838230924018F40E943D
:1014F000260AF3CFCE010E94140A1E82CE010E945A
:10150000470A8CE291E00E94290A8F2D80640E9494
:101510001F0A08E110E0D501C401002E04C0B695F1
:10152000A795979587950A94D2F70E941F0A0850AD
:101530001109083F8FEF180771F785E9FF2021F0A7
:1015400028E087E8F2128FEF0E941F0A10E00E9445
:10155000260A8A8787FF04C01F3F11F01F5FF7CF5D
:10156000DF91CF911F910F91FF90BF90AF909F900F
:101570008F900895AF92BF92CF92DF92EF92FF9239
:101580000F931F93CF93DF93EC016901C801820F82
:10159000931F8130924050F58E81882379F08881A5
:1015A0009981AA81BB8184179507A607B70731F4F3
:1015B0008F819885C816D90608F042C048835983A0
:1015C0006A837B838B85833039F089E0440F551F14
:1015D000661F771F8A95D1F79A01AB0161E1CE01B1
:1015E0000E945D0A882389F083E08D83CE010E94EA
:1015F000140A80E0DF91CF911F910F91FF90EF903F
:10160000DF90CF90BF90AF9008950E940E075B01CE
:101610000E94260A8A878F3F69F40E940E076A1982
:101620007B096D327140A0F38FE08D83CE010E9463
:10163000140ADCCF8E3F89F418861F8281E08E83E6
:101640008F8198858C159D0550F40E94260A8F8104
:101650009885019698878F83F3CF8DE0E6CF670159
:10166000E00EF11E0E94260AF60181936F01EE152D
:10167000FF05C1F78F819885080F191F18870F8301
:101680008985882319F001151240A0F08E818823E6
:1016900089F08F8198859C012F5F3F4F38872F837A
:1016A0008230924018F40E94260AF3CFCE010E94A5
:1016B000140A1E8281E09ECFCF92DF92EF92FF92BA
:1016C0000F93CF93DF93EC01690182E1411551053E
:1016D0006105710599F08B85833039F089E0440FFD
:1016E000551F661F771F8A95D1F79A01AB0168E1F4
:1016F000CE010E945D0A882319F084E08D832DC0FD
:101700008EEF0E941F0A76018EEFD81AF7018191A1
:101710007F010E941F0AEC14FD04C1F78FEF0E94A5
:101720001F0A8FEF0E941F0A0E94260A8A878F7164
:10173000853071F4011116C0CE010E94140A81E0B7
:10174000DF91CF910F91FF90EF90DF90CF900895B0
:1017500081E18D83CE010E94140ACE010E94140AF9
:1017600080E0EECF88E592E00E94290A811102C054
:1017700085E1C4CF20E030E0A9016DE0CE010E94F8
:101780005D0A882311F084E1B9CF0E94260A8111F5
:10179000FACFD2CF0F9340918A0150918B01609183
:1017A0008C0170918D01411551056105710599F00C
:1017B000082F27E232E080912402909125020E94B6
:1017C0005C0B882349F010928A0110928B011092D1
:1017D0008C0110928D0181E00F9108950F93CF93AA
:1017E000C82F80912602811105C0C1E08C2FCF91B6
:1017F0000F910895409117015091180160911901BE
:1018000070911A010C2F27E232E08091240290910E
:1018100025020E945C0B811102C0C0E0E7CFCC23FF
:1018200021F381E00E94CA0B8823B9F310922602AB
:10183000DDCF8F929F92AF92BF92EF92FF920F9364
:101840001F93CF934B015C01C42F8091170190919E
:101850001801A0911901B0911A0188159905AA05DE
:10186000BB0551F181E00E94EE0B81110BC080E0BD
:10187000CF911F910F91FF90EF90BF90AF909F90ED
:101880008F90089587E2E82E82E0F82E00E012E0C3
:1018900030E020E0B501A40180912402909125025E
:1018A0000E94BA0A882319F38092170190921801B6
:1018B000A0921901B0921A01409126024C2B40933C
:1018C000260281E0D5CF8F929F92AF92BF92CF92A6
:1018D000DF92EF92FF92CF932CE135E03093250217
:1018E00020932402882309F46DC040E060E070E09A
:1018F000CB010E94190C81110BC080E0CF91FF90A9
:10190000EF90DF90CF90BF90AF909F908F90089511
:101910008091E5038F7789F78091F1039091F2032D
:10192000A091F303B091F40384369105A105B105AC
:1019300020F3C090ED03D090EE03E090EF03F09021
:10194000F003C114D104E104F104B9F240E0C7018D
:10195000B6010E94190C882381F280913202909185
:1019600033028115924049F6A0913702AA2329F249
:1019700060913502709136026115710509F4BDCF91
:1019800020913402222309F4B8CFA0933A05209382
:101990002C0590E080E030E0E1E0F0E0C82FAF01FE
:1019A000082E02C0440F551F0A94E2F7241735078A
:1019B00069F041E0480F01968930910579F740932D
:1019C00035059BCFC12CD12C7601C0CF8093350536
:1019D00020913D0230913E0250E040E0211531055A
:1019E00041F420914B0230914C0240914D025091B4
:1019F0004E0220932D0530932E0540932F055093D2
:101A0000300546015701860E971EA11CB11C80921D
:101A10003B0590923C05A0923D05B0923E05E091B9
:101A20003802F0913902F0934105E0934005B0E0AF
:101A30000E949635DC01CB01880D991DAA1DBB1DA6
:101A40008093420590934305A0934405B0934505C8
:101A500025E0EE0FFF1F2A95E1F7E150FE4FEF2F33
:101A6000FF27E6958E0F9F1FA11DB11D80933605A0
:101A700090933705A0933805B093390580903A02CA
:101A800090903B02B12CA12C8114910441F48090E0
:101A9000470290904802A0904902B0904A02C81AAA
:101AA000D90AEA0AFB0AC80CD91CEA1CFB1C04C0B0
:101AB000F694E794D794C794CA95D2F7C0923105AB
:101AC000D0923205E0923305F092340585EFC816C6
:101AD0008FE0D806E104F10428F48CE080933F0500
:101AE00081E00CCF80E125EFC2162FEFD206E10492
:101AF000F104A0F38091530290915402A0915502F9
:101B0000B09156028093420590934305A0934405FB
:101B1000B093450580E2E2CF4F925F926F927F9241
:101B20008F929F92AF92BF92CF92DF92EF92FF92ED
:101B30000F931F93CF93DF93EC0142305105610562
:101B4000710590F480E0DF91CF911F910F91FF908C
:101B5000EF90DF90CF90BF90AF909F908F907F904D
:101B60006F905F904F90089589859A85AB85BC856D
:101B70000196A11DB11D84179507A607B70710F39D
:101B8000CB88DC88ED88FE888F89803109F042C0DF
:101B9000BB27A72F962F852F480159012A013B010A
:101BA000C80ED91EEA1EFB1E8091170190911801E4
:101BB000A0911901B0911A01C816D906EA06FB06D0
:101BC00099F58F898031C1F5B301A20155276627A8
:101BD0007727440F551F495D5D4FFA01918280823E
:101BE000809126028160809326028A89823080F06B
:101BF0008D819E81AF81B8858C0D9D1DAE1DBF1D51
:101C000080938A0190938B01A0938C01B0938D01F6
:101C100081E099CFDB01CA01E7E0B695A7959795DA
:101C20008795EA95D1F7B8CF40E0C701B6010E9489
:101C3000190C8111C6CF86CFB301A2014F7755276A
:101C400066277727440F551F440F551F495D5D4F89
:101C5000FA0180829182A282B382C2CF8F929F9238
:101C6000AF92BF92CF92DF92EF92FF920F931F93AA
:101C7000CF93DF93FC0181859285A385B48501967E
:101C8000A11DB11D84179507A607B70770F480E062
:101C9000DF91CF911F910F91FF90EF90DF90CF9048
:101CA000BF90AF909F908F90089583889488A58867
:101CB000B6888789803189F5BB27A72F962F852F76
:101CC000E9016A017B018F01BC01CD01680D791D1D
:101CD0008A1D9B1D8090170190901801A0901901FA
:101CE000B0901A0186169706A806B90601F5F80104
:101CF0008789803111F5DD24EE24FF24F601EE0FF3
:101D0000FF1FE95DFD4F80819181B0E0A0E08883F5
:101D10009983AA83BB8381E0BBCFDB01CA01C7E003
:101D2000B695A79597958795CA95D1F7C9CF40E005
:101D30000E94190C8111DBCFAACFE894C7F8DD24EB
:101D4000EE24FF24F601EE0FFF1FEE0FFF1FE95DEB
:101D5000FD4F80819181A281B381BF70D8CF4F9216
:101D60005F926F927F92AF92BF92CF92DF92EF928B
:101D7000FF920F931F93CF93DF9300D000D0CDB786
:101D8000DEB78C0149835A836B837C835901C12C54
:101D9000D12C7601412C82E0582E612C712C498186
:101DA0005A816B817C819E012F5F3F4FC8010E9449
:101DB0002E0E882339F1F8018585A301920104C014
:101DC000220F331F441F551F8A95D2F7DA01C9012C
:101DD000C80ED91EEA1EFB1E49815A816B817C8187
:101DE0008789803111F188EF9FEFAFEFBFE048178F
:101DF00059076A077B0798F2F501C082D182E28217
:101E0000F38281E00F900F900F900F90DF91CF91B0
:101E10001F910F91FF90EF90DF90CF90BF90AF9008
:101E20007F906F905F904F90089588EF9FEFA0E0B4
:101E3000B0E0DDCFCF93DF93FC012581222321F099
:101E400080E0DF91CF910895EC0180913F058031D2
:101E500059F582E08583178A108E118E128E80913B
:101E6000400590914105B0E0A0E025E0880F991F62
:101E7000AA1FBB1F2A95D1F7838B948BA58BB68B9A
:101E800088E295E09C8F8B8F81E08C831E821F827D
:101E9000188619861A861B861C861D861E861F8636
:101EA000188A198A1A8ACDCF803251F683E0858349
:101EB000409142055091430560914405709145055C
:101EC000478B508F618F728F9F012D5E3F4F88E24D
:101ED00095E00E94AF0E8111D3CFB2CF8F929F9227
:101EE000AF92BF92CF92DF92EF92FF920F931F9328
:101EF000CF93DF93EC018D8181110EC080E0DF91E3
:101F0000CF911F910F91FF90EF90DF90CF90BF90F6
:101F1000AF909F908F9008950B891C892D893E89E1
:101F2000041715072607370748F34A015B0182307B
:101F300031F48A869B86AC86BD8681E0E0CF811431
:101F40009104A104B10449F41E821F8218861986E7
:101F50001A861B861C861D86F0CF0A851B852C855C
:101F60003D85EB8DFC8D858590E00996B901A80132
:101F70004150510961097109082E04C07695679591
:101F8000579547950A94D2F775016401E1E0CE1A9E
:101F9000D108E108F10804C0F694E794D794C794F7
:101FA0008A95D2F7C416D506E606F70620F0012B6F
:101FB000022B032B11F58F89988DA98DBA8D8E83F5
:101FC0009F83A887B9878E010A5F1F4FC114D10470
:101FD000E104F10409F4ADCF4E815F816885798514
:101FE00098018B8D9C8D0E942E0E91E0C91AD1080C
:101FF000E108F1088111EACF81CFC41AD50AE60AB7
:10200000F70AE1CFFC01818D928D009749F04CE2F7
:1020100050E060E070E00E946E0F91E0811101C01D
:1020200090E0892F08953F924F925F926F927F9236
:102030008F929F92AF92BF92CF92DF92EF92FF92D8
:102040000F931F93CF93DF93CDB7DEB72C970FB6C7
:10205000F894DEBF0FBECDBF5C01DC015B968D90B6
:102060009C905C9716964D905D906D907C90199722
:10207000411451046104710409F468C0BFEF4B1AA4
:102080005B0A6B0A7B0A312CF40181859285A3855A
:10209000B4859C01AD012F5F3F4F4F4F5F4F2987A4
:1020A0003A874B875C87730162011D821E821F8203
:1020B0001886F40181859285A385B4852D813E81A2
:1020C0004F815885281739074A075B0708F056C023
:1020D00089859A85AB85BC858C159D05AE05BF05A8
:1020E00050F482E0C82ED12CE12CF12C92E0492E44
:1020F000512C612C712C9E012F5F3F4FB701A6011F
:10210000C4010E942E0E8823C9F189819A81AB8176
:10211000BC81892B8A2B8B2B09F1260137019FEF7C
:10212000491A590A690A790A2D813E814F815885D9
:102130002F5F3F4F4F4F5F4F2D833E834F83588715
:102140003FEFC31AD30AE30AF30AB3CFF401408086
:102150005180628073803324339496CFC414D504A5
:10216000E604F70409F70FEF1FEF2FEF3FE0B70189
:10217000A601C4010E948C0D811119C080E02C962B
:102180000FB6F894DEBF0FBECDBFDF91CF911F9188
:102190000F91FF90EF90DF90CF90BF90AF909F9006
:1021A0008F907F906F905F904F903F900895D501F2
:1021B00016964D915D916D917C9119974115510540
:1021C0006105710539F097018601C4010E948C0DEB
:1021D0008823A1F2D5011696CD92DD92ED92FC9264
:1021E0001997332051F0D701C6010196A11DB11DE9
:1021F000F40180839183A283B383F5018789908D55
:10220000A18DB28D892B8A2B8B2B39F48481C78ABF
:10221000D08EE18EF28E80688483F50184818062A5
:10222000848381E0ACCF2F923F924F925F926F9266
:102230007F928F929F92AF92BF92CF92DF92EF9256
:10224000FF920F931F93CF93DF93EC015B012A0161
:102250008D81811115C08FEF9FEFDF91CF911F917D
:102260000F91FF90EF90DF90CF90BF90AF909F9035
:102270008F907F906F905F904F903F902F90089538
:102280008C8180FFE8CF0B891C892D893E894A8586
:102290005B856C857D85C201B0E0A0E068017901B5
:1022A000C41AD50AE60AF70AC816D906EA06FB06D2
:1022B00018F42801441A550A42011E0126E0220E94
:1022C000311C8114910409F4B3C04A855B856C8587
:1022D0007D856A0181E0D8228B8D9C8D8A019B01CE
:1022E000E9E03695279517950795EA95D1F7ED81A1
:1022F000E230E1F5FC01628D738D848D958D600F68
:10230000711F821F931F612C22E0722E6C187D08B2
:102310008614970408F434012C8126FD04C061144E
:10232000F2E07F0671F400911701109118012091DD
:10233000190130911A01061717072807390709F004
:1023400053C040E00E94190C882309F484CFC601D1
:10235000895D9D4FD5019C01260D371DFC012E176F
:102360003F0709F460C041914D93F9CFFC0174809F
:102370007A947022C114D10471F471100CC0452BF1
:10238000462B472B39F58F89988DA98DBA8D8E8371
:102390009F83A887B987EB8DFC8D6E817F818885AF
:1023A00099856250710981099109258504C0660FDC
:1023B000771F881F991F2A95D2F7068517852089D0
:1023C0003189600F711F821F931F670D711D811D61
:1023D000911D99CF4E815F816885798591010E9419
:1023E0002E0E8111D8CF37CF750183019601AB0135
:1023F000BC0180912402909125020E94BA0A882390
:1024000009F429CFA60CB71C8A859B85AC85BD85B0
:10241000860D971DA11DB11D8A879B87AC87BD873F
:10242000861897084ECF281B390BA20EB31EECCF8F
:10243000C20113CF1F93CF93DF93FC012581222389
:10244000D1F1162FEC01848187FF2AC0668577853C
:102450008089918941E00E94190C882361F1EA8901
:1024600080E2E89FF0011124E95DFD4F309719F1FA
:102470008D81823040F48B899C89AD89BE89848F9F
:10248000958FA68FB78F8F89988D938F828F8F8925
:10249000988DA98DBA8DB58BA48B8C818F778C8309
:1024A000111103C08C818F7E8C83812FDF91CF919E
:1024B0001F910C94EE0B80E0DF91CF911F91089556
:1024C000FF920F931F93CF93DF93EC018D818130A7
:1024D00041F090E080E0DF91CF911F910F91FF904C
:1024E00008958C8181FFF5CF82FD1BC000912402ED
:1024F00010912502C8010E94470A0E94260AF82E60
:10250000C8010E94140A8FEFF812E3CF8C8185FF77
:102510001BC060E0CE010E941A128C818F7D8C83DB
:10252000D8CF4B895C896D897E898A859B85AC85EE
:10253000BD8584179507A607B707C1F2CE010E9493
:102540006E0F8111D3CFC5CF40918A0150918B017D
:1025500060918C0170918D01452B462B472B21F00A
:1025600080E00E94CA0BB5CF80618C832A853B85B1
:10257000317080E092E0821B930BADCFCF93DF935D
:10258000EC0161E00E941A12882311F01D8281E0A3
:10259000DF91CF9108952F923F924F925F926F9269
:1025A0007F928F929F92AF92BF92CF92DF92EF92E3
:1025B000FF920F931F93CF93DF9300D000D01F9211
:1025C000CDB7DEB77C015B01342E5D83DC0115964F
:1025D0008C911597813009F0CEC014962C9021FE75
:1025E000CAC022FCB4C0C32CDD8022947FE0272225
:1025F0002094B22DB1702B2ED7011A964D915D917A
:102600006D917C911D97C114D10409F428C15B968A
:102610008D919C915C97FC0174807A948A019B0156
:1026200069E036952795179507956A95D1F7702239
:102630008A011170711020C001151105E9F4169678
:102640004D915D916D917C911997411551056105F1
:10265000710509F099C057968D919D910D90BC918F
:10266000A02D0097A105B10509F0B0C0C7010E94D7
:102670001310882309F47FC080E092E0801B910B47
:1026800046018C159D0508F44C01D7015B964D91D0
:102690005C915C9716968D919D910D90BC91A02DAB
:1026A0000297A109B109FA01258504C0880F991F75
:1026B000AA1FBB1F2A95D2F7468557856089718965
:1026C000840F951FA61FB71F9C01AD01270D311D5B
:1026D000411D511D29013A01811432E0930609F090
:1026E0007BC08091170190911801A0911901B091C0
:1026F0001A0184159505A605B70559F48FEF9FEFCC
:10270000DC018093170190931801A0931901B093F5
:102710001A01022D9501B301A2018091240290912A
:1027200025020E945C0B882331F19EEFB91AC8186C
:10273000D908F70182859385A485B585880D991DF3
:10274000A11DB11D82879387A487B58755CFF70157
:10275000438954896589768982859385A485B58561
:10276000481759076A077B0709F43DCFC7010E9444
:102770006E0F811138CF81E090E0D70113969C93C2
:102780008E93129780E007C09E012F5F3F4F0E94FB
:102790002E0E811102C090E079C089819A81AB81AF
:1027A000BC81F701238D348DF901278948EF5FEF54
:1027B00060E070E0203121F048EF5FEF6FEF7FE0E5
:1027C00084179507A607B70708F050CFF70186834F
:1027D0009783A087B18750CF0115110599F5D701CF
:1027E0001A964D915D916D917C911D9753968D91A7
:1027F0009D910D90BC91A02D481759076A077B0742
:1028000008F181E00E94EE0B882309F4B4CF4092D6
:102810001701509218016092190170921A0180916B
:102820002602816080932602C801895D9D4FD501F3
:102830009C01280D391DFC012E173F0759F04D91C1
:102840004193FACF41E0C301B2010E94190C8111FA
:10285000EBCF91CF281B390BA20EB31E68CFF70127
:1028600083899489A589B68984179507A607B70730
:1028700038F48481438B548B658B768B806884839A
:10288000F701848183FD1AC0832D9D810F900F90E5
:102890000F900F900F90DF91CF911F910F91FF90AC
:1028A000EF90DF90CF90BF90AF909F908F907F90F0
:1028B0006F905F904F903F902F90089561E0C70117
:1028C0000E941A12882309F456CFDECFCF93DF93EC
:1028D0001F92CDB7DEB7698341E050E0BE016F5F64
:1028E0007F4F0E94CB120F90DF91CF910895FC0192
:1028F000DB0112968D919C911397938382838AE5D5
:1029000091E09183808314968C911497848315961B
:102910008C911597858316964D915D916D917C9163
:10292000199746835783608771871A964D915D91F9
:102930006D917C911D9742875387648775871E969A
:102940004D915D916D917C91519746875787608B32
:10295000718B52968C915297828B53964D915D91CB
:102960006D917C915697438B548B658B768B5796E4
:102970004D915D916D917C915A97478B508F618FEE
:10298000728F5B968D919C91948F838F089508959B
:10299000FC01818D928D009719F061E00C941A1260
:1029A0000895DC015996ED91FC913097B9F0838937
:1029B0009489A589B6894285538564857585841B6C
:1029C000950BA60BB70B811520E89207A105B10561
:1029D00038F08FEF9FE7A0E0B0E0089590E080E04E
:1029E0000895DC0159968D919C91009739F0DC0196
:1029F000ED91FC910480F581E02D099490E080E058
:102A00000895CF93DF93EC01E98DFA8D309749F467
:102A100081E090E09B838A8390E080E0DF91CF911A
:102A2000089513821282898D9A8D0E94CB12E98DAE
:102A3000FA8D22813381232B59F7F0CFCF93DF9387
:102A40001F92CDB7DEB76983DC01ED91FC91028066
:102A5000F381E02D41E050E0BE016F5F7F4F0995AB
:102A60000F90DF91CF910895CF93DF931F92CDB751
:102A7000DEB741E050E0BE016F5F7F4F0E9413114F
:102A8000019731F4898190E00F90DF91CF91089503
:102A90008FEF9FEFF9CFFC01818D928D009711F0A0
:102AA0000C9434158FEF9FEF08950F931F93CF93DE
:102AB000DF93EC01898D9A8D10E000E0009799F08A
:102AC0000E9434158C010F3F100769F0898D9A8D93
:102AD000FC01428553856485758541505109610922
:102AE00071090E946E0FC801DF91CF911F910F9164
:102AF0000895CF93DF938091C706C1E08111C0E0B4
:102B0000D0E08DE88C9FB0018D9F700D1124FB01EA
:102B1000E75CF94F8081811116C08091A3059091E7
:102B2000A405009731F063557A4F4CE850E00E94BD
:102B300013118DE88C9FF0018D9FF00D1124E75C3F
:102B4000F94F81E08083DF91CF910895CF93DF9398
:102B5000FB0122813381DC0113963C932E93129763
:102B6000448155816681778114964D935D936D9371
:102B70007C931797408551856285738518964D9390
:102B80005D936D937C931B971C96EF012C969C0193
:102B9000275E3F4F49914D93A217B307D9F7218D77
:102BA000328DFC01328F218FDF91CF9108950F93E9
:102BB0001F93CF93DF93EC0180E2689FF001112413
:102BC000E95DFD4F6A8B8091170190911801A091EA
:102BD0001901B0911A018E879F87A88BB98B048940
:102BE000158930E020E09801112700270F8B188FFE
:102BF000298F3A8F828D938DB0E0A0E0AC01BD01AA
:102C0000402B512B622B732B4F8B588F698F7A8FF0
:102C100083858871A9F4848D958DA68DB78D8B8B56
:102C20009C8BAD8BBE8B81E08D8381E08C831E827B
:102C30001F82188619861A861B861C861D8603C06D
:102C4000803131F080E0DF91CF911F910F91089595
:102C50009E012D5E3F4F8B8D9C8D0E94AF0E882371
:102C600089F384E0E1CFAF92BF92CF92DF92EF92EF
:102C7000FF920F931F93CF93DF93CDB7DEB72B97C0
:102C80000FB6F894DEBF0FBECDBF7C01FC0185817D
:102C9000811115C0FE013196CE010C966F0120E224
:102CA0002193E817F907E1F7DA0120E037E09D9179
:102CB000B92E9923A9F19E32B9F43A3091F480E00B
:102CC0002B960FB6F894DEBF0FBECDBFDF91CF912C
:102CD0001F910F91FF90EF90DF90CF90BF90AF903A
:102CE000089528E03AE0E3CFE5E4F4E08491882316
:102CF00021F031969813FACFE2CF321700F38FED1F
:102D0000890F8E35E0F68FE9890F8A3118F440EE8D
:102D1000B42EB90EF601E20FF11DB0822F5FC7CFBE
:102D20008981803261F28B01FB01838D948DF701E3
:102D3000948F838FFB01168217821086118612866C
:102D4000138614861586F80182859385A485B5853A
:102D5000438954896589768984179507A607B7073B
:102D600008F0ADCF25E0B695A795979587952A955C
:102D7000D1F7F82FFF70AF2EF8018581823008F46B
:102D80009ECFC8010E94341597FD99CFF801828526
:102D90009385A485B5854F96A11DB11D8287938724
:102DA000A487B587F0E2AF9EB0011124695D7D4F25
:102DB0006115710509F483CFFB018081882309F136
:102DC000853E19F4B11032C01EC04BE050E0C60180
:102DD0000E948737892B09F0B6CF6A2DC7012B9641
:102DE0000FB6F894DEBF0FBECDBFDF91CF911F911C
:102DF0000F91FF90EF90DF90CF90BF90AF900C9429
:102E0000D715B1105CCFF701A28A8091170190917C
:102E10001801A0911901B0911A0186879787A08B9C
:102E2000B18BFB018081882309F449CFBB24B39483
:102E30008ACFFF920F931F93CF93DF9300D0CDB72C
:102E4000DEB7F82E8B0141E050E06CE070E0CE017F
:102E500001960E94393541E050E06DE070E0CE010E
:102E600002960E9439356A81898141E0F4121CC0C2
:102E7000681B770B8CEC91E00E943936C8010E94E8
:102E800025368981482F460F5527551F4D3051054E
:102E900014F06CE0681B860F0F900F90DF91CF91BC
:102EA0001F910F91FF90089570E0860F972F911D4D
:102EB00095958795898398010135110510F020E5D6
:102EC00030E045E0429FF001439FF00D1124681B64
:102ED000790B80E991E00E943936CF01D0CFCF93B2
:102EE000DF9300D0CDB7DEB742E050E06EE070E097
:102EF000CE0101960E94393589819A819C012F501B
:102F000031093093F8012093F701225E3F4F30934F
:102F1000FA012093F901813B24E09207F8F09C012B
:102F2000225C31403093FC012093FB012C573C4F35
:102F30003093FE012093FD019C012C5B32403093C5
:102F400000022093FF0184549D4F909302028093CE
:102F500001020F900F90DF91CF9108959093FC01A3
:102F60008093FB019C012C573C4FE2CF1F93CF93E2
:102F7000DF931F92CDB7DEB7182F41E050E06AE033
:102F800070E0CE0101960E943935183071F48981C4
:102F9000882359F09091EE01911180E08093EE0129
:102FA0000F90DF91CF911F91089541E050E061E1D2
:102FB00070E086E891E00E94393584E00E94AA051D
:102FC000892B19F580918501982F9F739930E8F02E
:102FD000193030F32091860130E0612F70E0AB01B1
:102FE0004950510902C0359527954A95E2F720FFCF
:102FF000D7CF86FDD5CF1F73807C182B106410931C
:10300000850183E00E947009CBCF912F9F7380913F
:103010008501807C892B612F70E0193080F0209130
:10302000860130E0AB014950510902C03595279522
:103030004A95E2F720FB86F980938501E2CF8F7BEA
:10304000FBCFFB0101900020E9F73197AF01461B50
:10305000570BDC01ED91FC910280F381E02D099486
:103060008F929F92AF92BF92EF92FF920F931F9316
:10307000CF93DF93CDB7DEB7A1970FB6F894DEBF3D
:103080000FBECDBF7C01FA01CB0119A2223008F49A
:103090002AE08E010F5D1F4F822E912CB12CA12CA6
:1030A000BF01A50194010E94D835F901CA016A3017
:1030B0000CF5605DD8016E938D01232B242B252BFD
:1030C00079F790E080E0109721F0BD01C7010E94E0
:1030D0002118A1960FB6F894DEBF0FBECDBFDF91C9
:1030E000CF911F910F91FF90EF90BF90AF909F9065
:1030F0008F900895695CDECFFF920F931F93CF935B
:10310000DF93FC01042FE9014130F1F170F042300E
:1031100009F449C04A3000F182859385825092407B
:1031200016EF140F180F02E00BC0862F90E0880FE7
:10313000991FE80FF91F4081518143505240142FCD
:10314000112351F0F12C63E474E08AEC94E00E94C6
:10315000AE03F3941F11F7CF6BE374E08AEC94E0B5
:103160000E94AE03209789F5013049F108F1023041
:1031700049F16EE771E08AEC94E0DF91CF911F9105
:103180000F91FF900C94211870E0DB01AA0FBB1F78
:10319000AE0FBF1FE60FF71F40858D919C91480F22
:1031A000592F511DCACF4285538542505240C7CF37
:1031B00067E374E08AEC94E00E94AE03DACF64E344
:1031C00074E0F8CF60E374E0F5CFBE018AEC94E0E0
:1031D0000E942118CECF0F931F93CF93DF93EC0162
:1031E0000E94AE038C016EE771E0CE010E942118AF
:1031F000800F911FDF91CF911F910F9108958F92B2
:103200009F92AF92BF92CF92DF92EF92FF920F9375
:103210001F93CF93DF93D82F0E940E074B015C01C1
:10322000C0E098E9C92E91E0D92E0E940E076819D6
:1032300079098A099B09683E734081059105D8F098
:103240001092980110929901209198018091990112
:1032500090E0FFEF2F9F800D911D1124DF91CF9102
:103260001F910F91FF90EF90DF90CF90BF90AF90A4
:103270009F908F90089585E090E00E9445098EE828
:10328000E82E81E0F82E8701D8011D928D01CA1623
:10329000DB06D1F78091270490912804DC01ED91A1
:1032A000FC910084F185E02D09950A9724F1809125
:1032B000270490912804DC01ED91FC910284F385B0
:1032C000E02D09958F3F9807B1F0F70181937F01B9
:1032D0000E171F0761F7C0919101C03409F4A5CF03
:1032E000DC13A3CF80919301809398018091940186
:1032F00080939901A9CF82E390E00E944509DC13F5
:1033000094CFA2CFCF93DF93EC01898D9A8D009754
:1033100041F00E94BE12898D9A8D0E94FE361A8E4F
:10332000198EDF91CF910895EF92FF920F931F9323
:10333000CF93DF93EC017B018A011B821A8288EE16
:1033400093E0A0E0B0E08C839D83AE83BF8380E7F1
:1033500091E0998388838DE190E00E9462369A8F94
:10336000898F009779F02DE1F701DC0101900D9232
:103370002A95E1F74CE050E0B801CE010C960E948E
:10338000A637188EDF91CF911F910F91FF90EF908C
:1033900008952F923F924F925F926F927F928F92F9
:1033A0009F92AF92BF92CF92DF92EF92FF920F93D4
:1033B0001F93CF93DF93CDB7DEB7C656D1090FB6B3
:1033C000F894DEBF0FBECDBF5C013B0119A218A26D
:1033D0008AE591E09F8F8E8F1BA21C821B829A83AD
:1033E00089831E824E018EE1880E911CC4010E94C9
:1033F0001A0F63018E010F5F1F4F240118016FE246
:1034000070E0C6010E949437009709F458C0F60195
:1034100020812F3271F4FFEFCF1ADF0A902F812F16
:103420008201492E582E942D852D2801092F182F01
:10343000E6CF8C198D3008F08CE0E82EF12CA70136
:10344000B601CE01885A9F4F0E94A637E8E5F0E00A
:10345000EC0FFD1FEE0DFF1D1082C8010E94BE1271
:10346000AE01485A5F4FB201C8010E943316811164
:1034700020C01EAE1DAE8AE591E09CAF8BAF2196B9
:103480001FAE2197A796EEADFFADA7976E0E7F1EDC
:10349000F3018081811120C0BE01655C7F4FC101B5
:1034A0000E94771441E851E0B101C5010E949419CE
:1034B00031C0CE0CDF1CC2010E94BE12B4CFC601C7
:1034C00086199709A7969FAF8EAFA797B201CE0135
:1034D000CB960E947714D6CF19A218A28AE591E064
:1034E0009F8F8E8F1BA221968FAD219781112DC0AA
:1034F000F5011382128288EE93E0A0E0B0E08483AD
:103500009583A683B78380E791E091838083128EB1
:10351000118E1486C501CA59DF4F0FB6F894DEBF6D
:103520000FBECDBFDF91CF911F910F91FF90EF9014
:10353000DF90CF90BF90AF909F908F907F906F90D3
:103540005F904F903F902F900895A301BE01655C5E
:103550007F4FC4010E943316882351F2CE01CB96CF
:103560000E94BE12B401C1010E947714A3019CCF36
:10357000CF92DF92EF92FF920F931F93CF93DF933F
:10358000CDB7DEB7C754D1090FB6F894DEBF0FBE72
:10359000CDBF7C01162FE091A305F091A4053097D3
:1035A00039F08581882321F08AE895E00E9482190C
:1035B000E9E8F5E08FE391E0DF019C011D922150E5
:1035C0003040E1F71093890518AA1FA688EE93E012
:1035D000A0E0B0E089AB9AABABABBCAB80E791E0CD
:1035E0009EA78DA728961FAE1EAE289719AEB701CD
:1035F000CE0101960E94C9196E013DE2C30ED11C95
:10360000BE016F5F7F4FC6010E94A6152896EEADE2
:10361000FFAD2897309709F463C08581882309F4AA
:103620005FC08E010F5F1F4FC6010E944B15D8016E
:103630008D938D01AC15BD05B9F7CD010E9482199E
:1036400089A59AA5ABA5BCA58093A5059093A605D1
:10365000A093A705B093A8058093A9059093AA0508
:10366000A093AB05B093AC05B701CE0101960E94C3
:10367000C919BE016F5F7F4F8AE895E00E94A615C9
:103680008AE895E00E9402108091A3059091A4051C
:10369000009761F06091C706BDE86B9FB0011124EF
:1036A00063557A4F4CE850E00E941311E091C70631
:1036B0002DE8E29FF0011124E75CF94F81E080835F
:1036C000C95BDF4F0FB6F894DEBF0FBECDBFDF91F1
:1036D000CF911F910F91FF90EF90DF90CF900895C1
:1036E00080E090E0DC01B0CF2F923F924F925F924A
:1036F0006F927F928F929F92AF92BF92CF92DF9202
:10370000EF92FF920F931F93CF93DF93CDB7DEB766
:10371000C35CD1090FB6F894DEBF0FBECDBF809158
:103720000302811120C068E074E08AEC94E00E94FA
:10373000EB18CD53DF4F0FB6F894DEBF0FBECDBFF1
:10374000DF91CF911F910F91FF90EF90DF90CF907D
:10375000BF90AF909F908F907F906F905F904F90B1
:103760003F902F9008952DB73EB7C154DF4F398356
:103770002883CF5BD0406DE370E083E092E00E944D
:1037800094376C01009711F0DC011C927E01BBEABA
:10379000EB0EF11CF7011182108213821282158246
:1037A000148280910302882309F40DC78701712CCC
:1037B00083E0A82E82E0B82E6EE270E0C5010E9480
:1037C0009437009709F4E0C0DC011C9266246394EE
:1037D000670CF801A192B1928F015C01FFEFAF1A63
:1037E000BF0A762C23E06212E7CFC114D10409F09E
:1037F000F0C6F3E0EDEF6F1609F407C18FEF898390
:10380000D70116968C93169718961C9218971B96AC
:103810001C921E921A978A8317968C931797199663
:103820001C92199780910302811104C083E092E0F9
:103830008D939C93C554DF4FF982E882CB5BD040D7
:10384000FE013196C354DF4FF983E883CD5BD0404E
:1038500012E0412E14E0512E170110E000E0862DF9
:10386000062C000C990B9C0121503109CE53DF4FDF
:1038700039832883C25CD040061508F0DDC0F20110
:10388000A590B490F20132963491CF53DF4F388334
:10389000C15CD040C554DF4FA881B981CB5BD0401B
:1038A0008D909D90C554DF4FB983A883CB5BD040EA
:1038B000C854DF4F1882C85BD040CF53DF4FB88168
:1038C000C15CD040C854DF4FE881C85BD040BE1710
:1038D00009F478C0F501859194910E948732C7540C
:1038E000DF4F99838883C95BD040F501659174915E
:1038F000AC015527C4010E945F32F2E0AF0EB11C4B
:10390000892B09F053C0C754DF4FA880C95BD04052
:10391000C854DF4F8881C85BD040C354DF4FA881B3
:10392000B981CD5BD0408D93C354DF4FB983A88359
:10393000CD5BD04087FD67C0F101A086A80CB92CF3
:10394000B11CD5018C91882309F458C0C5010E948F
:103950004132F1018683CE53DF4F28813981C25C29
:10396000D0402017310709F04AC06FE370E0C4016E
:103970000E9494376C01892B41F1CB54DF4FD982DF
:10398000C882C55BD04031C0D5018C91672C88239B
:1039900009F42BCFE72DF0E0EE0FFF1FEE0DFF1D1A
:1039A000B182A08266246394670C1FCFC854DF4F96
:1039B0002881C85BD0402F5FC854DF4F2883C85B85
:1039C000D0407BCFA12C8FEFA8CF6DE370E0C40176
:1039D0000E9494376C01892B81F6CB54DF4FB9825A
:1039E000A882C55BD040D12CC12C0F5F1F4FBFEF09
:1039F0002B1A3B0AE3E04E0E511C3ECF1682C11437
:103A0000D10499F7EACFE02FE0959E0125553F4F6D
:103A100080E089019EE2781639F1D9014D915D91DE
:103A20009D014115510531F0DA010D900020E9F7B3
:103A300011979C938F5FEFCFB6EDCB2EB3E0DB2ECB
:103A400000E042E050E0B601CE0101960E945F32F4
:103A5000892B11F4E02FD9CF0F5FF3E0CF0ED11CEB
:103A60000F3079F7EFEFD1CF0FB6F894DEBF0FBE6E
:103A7000CDBFE7FF09C06E2F609530E020E040E049
:103A8000C8010E947C1855CEE250ED3008F02DC1DF
:103A90000E2E000CFF0BE15BF24E0C944D365C1DBC
:103AA000A51DEA1DB11E031F4D1FB62068219921D7
:103AB000BD21E1211B224222D8011A96ED91FC91F1
:103AC00080818D33E1F48181833409F05EC5828188
:103AD000813409F05AC583818C3409F056C542E01F
:103AE00050E06EE070E085EF91E00E944F350E945B
:103AF0006F17D8011A96ED91FC911082F6C08DE3F4
:103B0000808342E050E06EE070E0CE0101960E94BA
:103B10003935D8011A96ED91FC9189819A8168EE28
:103B200073E00E942536605D618364E670E00E9468
:103B30002536605D62836AE070E00E942536605D34
:103B40006383805D84831582D0C0D8011A96ED917D
:103B5000FC911B9780818D3399F57F01BFEFEB1AA4
:103B6000FB0A61ED73E0C7010E947732892B31F4C3
:103B7000809180008F7B80938000BBCFC7010E9423
:103B800041328D3088F4FC01FF27EE0FFF1FEE0F4E
:103B9000FF1FE356FC4F65917591859194910E94AA
:103BA00060020E945602A5CF60E973E0CE01019643
:103BB0000E9480329E012F5F3F4F42E060E060CF65
:103BC0008DE380831A96ED91FC9180E3818382835B
:103BD00013828BC0D8011A96ED91FC9180818D33B0
:103BE00009F04BC08181813411F58281833409F061
:103BF000CCC48381833409F0C8C48481853409F03E
:103C0000C4C485818C3409F0C0C482E0C954DF4F3C
:103C10008883C75BD0400E94560241E050E06BE0D1
:103C200070E0CE0189549F4F0E944F3562CF80359E
:103C300071F48281823509F0A8C483818F3409F040
:103C4000A4C48481803509F0A0C481E0DFCF8F3423
:103C500009F09BC48281863409F097C4838186343D
:103C600009F093C4C954DF4F1882C75BD0408091DC
:103C700080008F7B80938000D0CF8DE3808341E0F4
:103C800050E06BE070E0CE0189549F4F0E943935BF
:103C9000C954DF4F8881C75BD040813079F108F487
:103CA00049C0823011F5D8011A96ED91FC911B970D
:103CB00081E481831A96ED91FC911B9783E48283C2
:103CC0001A96ED91FC911B9783831A96ED91FC91C6
:103CD0001B9785E484831A96ED91FC911B978CE4E5
:103CE00085831A96ED91FC91168263E072E08AEC6E
:103CF00094E00E9421186FEF72E033C2D8011A9647
:103D0000ED91FC911B9780E581831A96ED91FC91D2
:103D10001B9792E592831A96ED91FC911B979FE475
:103D200093831A96ED91FC911B9784831A96ED91DB
:103D3000FC9109CFD8011A96ED91FC911B978FE465
:103D400081831A96ED91FC911B9786E482831A96E3
:103D5000ED91FC911B9783831A96ED91FC9114824F
:103D6000C4CFD8011A96ED91FC9180818D3371F505
:103D7000CF0101960E944132C256DF4F8883CE594F
:103D8000D0408C3000F541E050E06DE070E0CE01B5
:103D90008F569F4F0E943935C256DF4F9881CE59BA
:103DA000D040CF56DF4F8881C159D04065E873E0DD
:103DB000981708F0FBCE41E050E06CE070E0CE01D7
:103DC00082569F4F31CF68E773E0F0CE8DE380835A
:103DD00041E050E06CE070E0CE0182569F4F0E94BF
:103DE0003935D8011A96ED91FC91C256DF4F888182
:103DF000CE59D04090E06AE070E00E942536605DC8
:103E00006183805DE4CED8011A96ED91FC918081AA
:103E10008D3371F5CF0101960E944132CF56DF4FAD
:103E20008883C159D0408D3000F541E050E06CE00E
:103E300070E0CE0182569F4F0E943935CF56DF4F3A
:103E40009881C159D040C256DF4F8881CE59D040A9
:103E50006DE673E0891708F0A9CE41E050E06DE00F
:103E600070E0CE018F569F4FDFCE60E673E09ECEAE
:103E70008DE3808341E050E06DE070E0CE018F562D
:103E80009F4F0E943935D8011A96ED91FC91CF567B
:103E9000DF4F8881C159D040ADCF8091ED0165E001
:103EA00073E0811174C3D7011A96ED91FC911B97B1
:103EB0008DE380831A96ED91FC91118263E072E0AC
:103EC0008AEC94E00E942118EA961FAE1EAEEA9793
:103ED00088EE93E0A0E0B0E0EE968CAF9DAFAEAF81
:103EE000BFAFEE9780E791E0E8969FAF8EAFE8977F
:103EF000C157DF4F19821882CF58D040CE57DF4FBD
:103F00001882C258D04061E871E0CE0101960E944B
:103F1000C919BE016F5F7F4FCE018A589F4F0E9423
:103F2000A615C157DF4FE881F981CF58D0403097AF
:103F300019F08581811106C06DEE72E08AEC94E083
:103F40000E94EB18C157DF4FE881F981CF58D0406C
:103F5000309759F08581823040F0168217821086A2
:103F6000118612861386148615863324339448EE00
:103F7000442E43E0542E612C712C50E7C52E51E0A5
:103F8000D52E6AE5862E61E0962E7EE2272EEBE5A1
:103F9000AE2EB12CAC0EBD1EBCE0AB0EB11C7E0132
:103FA000EEE9EE0EF11CC157DF4F08811981CF58A1
:103FB000D040D80115968C911597823008F4B4C082
:103FC0001A968D919D910D90BC91A02D8F7199277E
:103FD000AA27BB27892B8A2B8B2B09F0A5C040E28F
:103FE00050E0BE016F5F7F4FC8010E941311803205
:103FF00009F09AC08981882309F496C0853E79F337
:104000008E3269F38C8583FDEACF22961FAE1EAEF9
:1040100022979FAE8EAE24961FAE2497AE014F5FBF
:104020005F4FE0E080E0DA019D91AD019032A1F0B8
:10403000883049F421E930E02C0F3D1F2E0F311D4F
:10404000D9012C92EF5F21E930E02C0F3D1F2E0F9C
:10405000311DD9019C93EF5F8F5F8B3021F721E9F0
:1040600030E02C0F3D1F2E0F311DF9011082C1577A
:10407000DF4F68817981CF58D040AE014F565F4FF6
:10408000CE01CE960E943316882309F44DC0BE019E
:10409000625C7F4FCE0181960E947714AE014F562D
:1040A0005F4FBE016F5D7F4FCE01855A9F4F0E94CB
:1040B0009419E696EEADFFADE697309709F44AC045
:1040C0008581882309F446C0B501C7010E949F3746
:1040D000F70101900020E9F731978F010E191F09B0
:1040E0001127C801049768EE72E08E0D9F1D0E9493
:1040F0007732892B99F4311006C065EE72E08AECB4
:1041000094E00E94AE030E0D1F1DF801349710823B
:10411000B7018AEC94E00E942118312CCE01855A17
:104120009F4F0E9482193FCF6F961FAE1EAE6F97B2
:10413000A3964CAE5DAE6EAE7FAEA3976D96DFAE2E
:10414000CEAE6D97E6961FAE1EAEE697A8961FAE52
:10415000A897AFCFCE018A589F4F0E9482196EE573
:1041600073E08AEC94E00E94AE03E3CAD8011A9689
:10417000ED91FC9180818D3309F09DC0BF016F5F8F
:104180007F4F6E01B6E7CB0ED11C48E050E0C60170
:104190000E94A637F601108669E573E0C6010E9409
:1041A0006C3222961FAE1EAE22978AE591E09FAF39
:1041B0008EAF24961FAE24971CA21BA29AA389A39C
:1041C0001EA2512C412C5E01FEE3AF0EB11C36E461
:1041D000E32E35E0F32E3C01852D942DF601E80FFA
:1041E000F91F20812F3209F40196D601A80FB91FBB
:1041F000FE01E55AFF4F30E020E04F014D914F3274
:1042000049F0442339F001962F5F3F4F41932C3002
:104210003105A1F7280D391DD9011C92F601E80FCF
:10422000F91F20812F3209F40196582E492E8C0D4A
:104230009D1DFC0130801C821B827A8269821E8255
:10424000A401B701CE0101960E943316882309F418
:10425000A3C1CE0101960E94BE1231101AC026E4FD
:10426000E21625E0F20619F0C7010E94BE12F6011F
:1042700001900020E9F73197EC19FD09EC0DFD2DB7
:10428000F11D3497108249E050E061E070E0C60112
:10429000CBCCA401B701C5010E943316982EF6E4D9
:1042A000EF16F5E0FF0609F482C1C7010E94BE12B5
:1042B000911083C179C18DE38083F8018285938554
:1042C00049E050E061E070E001960E9439350DCD83
:1042D000D8011A96ED91FC9180818D3379F481811A
:1042E000805389A3843038F441E050E06AE070E004
:1042F000CE01819699CC6CE473E058CC41E050E05B
:104300006AE070E0CE0181960E943935D8011A9694
:10431000ED91FC911B978DE380831A96ED91FC91B2
:104320001B9789A1805D81831A96ED91FC91128281
:10433000DCCC88E40E940A0A88E490E00E94FF181E
:10434000D7011A96ED91FC911B972DE320839927B5
:104350009F938F9389E493E09F938F931A968D9107
:104360009C9101969F938F930E9498320F900F908B
:104370000F900F900F900F90B8CCF8018285938525
:10438000DC012C912D3349F401960E944132BC018D
:10439000772783E00E947009ACCB8CE40E940A0A64
:1043A0008CE490E00E94FF18D8011A96ED91FC91E0
:1043B0001B972DE3208399279F938F9386E493E0A7
:1043C000CBCFF80182859385DC012C912D33D1F47C
:1043D00001960E9441326C968FAF6C97863078F4CC
:1043E00041E050E060E170E0CE01855A9F4F0E94AD
:1043F0004F356C966FAD6C9770E087E0CBCF69E37B
:1044000073E0D4CB84E40E940A0A84E490E00E9422
:10441000FF186C968FAF6C97D8011A96ED91FC91AE
:104420001B978DE380836C968FAD6C971F928F9353
:1044300086E393E091CFF80182859385DC012C918E
:104440002D3361F401960E9441328F3120F4992777
:104450000E94060A4ECB69E273E0A8CB83E40E9477
:104460000A0A83E490E00E94FF18D8011A96ED91A1
:10447000FC911B972DE3208399279F938F9386E2CE
:1044800093E06ACFF801A284B3846501FFEFCF1AED
:10449000DF0AD5018C918D3309F050C0F6010190EF
:1044A0000020E9F7E750EC1141C0F60190E080E010
:1044B000812C912C5401839431913E34D1F03035CC
:1044C00031F52EADB501A401082E04C0440F551FCF
:1044D000661F771F0A94D2F7242B2EAF01968630E1
:1044E000910551F741E050E061E170E0CE01CE96D8
:1044F0009BCBB501A401082E04C0440F551F661FB5
:10450000771F0A94D2F740952EAD2423E6CF1AE008
:10451000180F61E273E0CE0101960E9480329E0185
:104520002F5F3F4F412F60E0C701ABCA6DE173E0E1
:10453000CE0101960E9480321AE0F1CF41E050E0B6
:1045400061E170E0CE01CE960E943935D8011A960D
:10455000ED91FC918DE38083F60130E020E08EAD9B
:1045600090E0022E02C0959587950A94E2F780FFAD
:104570000AC080E581932F5F3F4F2630310579F7E0
:10458000F5011782B2CB8EE4F5CF61E173E083E0F1
:1045900092E00E948032A9CBF6E4EF16F5E0FF0628
:1045A00019F0C7010E94BE1261E073E0F0CF8823CA
:1045B000D9F39E012F5D3F4F79019E2D8F2D7501FF
:1045C000A92EB82E09CE712C612CC114D10409F486
:1045D00015C98DE3F60180830CC91F920F920FB6A7
:1045E0000F9211248F939F938091E1009091E100AD
:1045F000937F9093E10083FF0FC01092E90091E058
:104600009093EB001092EC0092E39093ED001092E7
:10461000EB0198E09093F00082FF22C093E090932A
:10462000E9009091F200992319F09AE39093E80041
:104630009091C001992341F09091C00191509093C5
:10464000C001911101C05D9A9091EA01992341F056
:104650009091EA0191509093EA01911101C0289A3A
:1046600084FF18C08091E2008E7E81608093E2001A
:104670008091E1008F7E8093E1008091C1018E7E68
:1046800080618093C1019F918F910F900FBE0F9019
:104690001F90189580FFF7CF8091E2008E7E806199
:1046A0008093E2008091E1008E7E8093E100809112
:1046B000C1018E7E8160E5CF1F920F920FB60F92DF
:1046C0001124CF92DF92EF92FF920F931F932F93BB
:1046D0003F934F935F936F937F938F939F93AF938A
:1046E000BF93EF93FF93CF93DF93CDB7DEB76C9774
:1046F000DEBFCDBF1092E9008091E80083FF25C0A6
:1047000068E0CE0145960E94A10382EF8093E80005
:104710008D8987FF39C09091E80090FFFCCF982FDA
:10472000907609F034C19E894F89588D2F89F88C75
:10473000911131C0803861F58091C2018093F10000
:104740001092F1008EEF8093E8006C960FB6F8940B
:10475000DEBF0FBECDBFDF91CF91FF91EF91BF9133
:10476000AF919F918F917F916F915F914F913F9109
:104770002F911F910F91FF90EF90DF90CF900F90AE
:104780000FBE0F901F9018959EEF9093E800C7CF33
:104790001092F100D5CF913059F48111D3CF41302F
:1047A000510581F68091C2018D7F8093C201CACFED
:1047B000933049F48111C6CF4130510519F68091EB
:1047C000C2018260F2CF953041F48091E80080FF11
:1047D000FCCF20682093E300B5CF963009F0A9C044
:1047E0000B8D1C8D22E01092E9001092BE011092F8
:1047F000BD01F2122EC01092BC011092BB010E94AA
:1048000070031F8299E09983FA8291E09E8390EA77
:1048100098879AEF99872091BD013091BE01275F5B
:104820003F4F3C832B838D831092E9001092BE0191
:104830001092BD011093BC010093BB0149E050E010
:10484000BE016F5F7F4F80E00E944A030E947003A9
:1048500079CF1093BC010093BB010E940803DC01D7
:1048600012960D911C910115110509F451C1D80141
:10487000ED91FC910480F581E02DBE016B5E7F4FD0
:10488000C8010995009709F03EC1F801008511851E
:10489000EACFF3E0FF120EC08F89882309F440C0ED
:1048A000823061F440E860E181ED91E00E947A2974
:1048B000811148CF81E28093EB0047CF813029F40A
:1048C00040E86BE085EC91E0F1CF833099F70E94EE
:1048D0000803DC011296ED90FC908E010F5F1F4FD4
:1048E0006801E114F10479F0D701ED91FC910680A3
:1048F000F781E02DB801C7010995080F111DF701D7
:10490000E084F184EECFD8011C92F60101900020E2
:10491000E9F73197BF016C197D0940E0C601C6CFA8
:104920006FEA71E0FB01449150E080E80E944A0385
:1049300009CF973009F4BECF983021F481E08093FD
:10494000F10000CF993009F0FDCE837009F0B2CFAD
:10495000ECE2F1E081E031E096E32191222371F075
:104960008093E9003093EB00DF0111972C912093A5
:10497000EC009093ED008F5F873079F78EE780939E
:10498000EA001092EA008F898093EB01DBCE8B8DD9
:104990009C8D1092E9001092BE011092BD0190937F
:1049A000BC018093BB01898D811192C08E899D8944
:1049B000913A49F4813209F07DCF47E050E06EE052
:1049C00071E080E0B3CF913209F074CF833269F4A3
:1049D0008F89988DB0E0A0E080930A0190930B013D
:1049E000A0930C01B0930D01ADCE803269F480919B
:1049F000E80082FFFCCF67E08EE091E00E94A10317
:104A00008BEF8093E8009ECE823209F09BCE8F8997
:104A100080931501EEEFFFE7859194918B3F9C4DBC
:104A200051F1E0E0F8E080910E0190910F01A0912A
:104A30001001B0911101803B9440A105B105F1F442
:104A40008091150180FD1AC0EE3F8AE0F80789F5D4
:104A500087E797E791838083809160008093BF010F
:104A600088E19BE00FB6F894A895809360000FBE94
:104A70009093600067CEEEEFFAE0D5CF8081918110
:104A80008737974709F05ECEA895809160008861CE
:104A9000809360008091BF0180936000EE3F2AE028
:104AA000F20789F08091FE0A9091FF0A918380833A
:104AB00049CE808191818737980751F29093FF0A00
:104AC0008093FE0AC5CF1092FF0A1092FE0A3ACEDA
:104AD0000E940803DC0112960D911C91011511052D
:104AE00009F4E8CED801ED91FC910190F081E02D20
:104AF000BE016B5E7F4FC8010995811123CEF8017D
:104B000000851185EBCF181619060CF41BCED2CEFA
:104B1000F1E0FF12BECE63EB71E004CF1F920F9263
:104B20000FB60F9211242F933F934F935F936F9380
:104B30007F938F939F93AF93BF93EF93FF938DE2F8
:104B400094E00E945004FF91EF91BF91AF919F912B
:104B50008F917F916F915F914F913F912F910F9026
:104B60000FBE0F901F9018951F920F920FB60F92C5
:104B700011242F938F939F93EF93FF93E0913D0424
:104B8000F0913E048081E0914304F091440482FD61
:104B90001BC09081809146048F5F8F7320914704E2
:104BA000821741F0E0914604F0E0E35DFB4F958F02
:104BB00080934604FF91EF919F918F912F910F90D9
:104BC0000FBE0F901F9018958081F4CF1F920F9207
:104BD0000FB60F9211242F933F938F939F93AF9310
:104BE000BF938091B3019091B401A091B501B091B0
:104BF000B6013091B20123E0230F2D3758F501960D
:104C0000A11DB11D2093B2018093B3019093B40113
:104C1000A093B501B093B6018091B7019091B8010E
:104C2000A091B901B091BA010196A11DB11D809367
:104C3000B7019093B801A093B901B093BA01BF91A5
:104C4000AF919F918F913F912F910F900FBE0F9039
:104C50001F90189526E8230F0296A11DB11DD2CFF3
:104C60001F920F920FB60F9211242F933F934F93E1
:104C70005F936F937F938F939F93AF93BF93EF93C4
:104C8000FF93E0910801F09109010995FF91EF91DF
:104C9000BF91AF919F918F917F916F915F914F9154
:104CA0003F912F910F900FBE0F901F9018951F925C
:104CB0000F920FB60F9211242F933F934F935F9350
:104CC0006F937F938F939F93AF93BF93EF93FF93D4
:104CD000E0910601F09107010995FF91EF91BF91D5
:104CE000AF919F918F917F916F915F914F913F9184
:104CF0002F910F900FBE0F901F9018951F920F923B
:104D00000FB60F9211242F933F934F935F936F939E
:104D10007F938F939F93AF93BF93EF93FF93E09114
:104D20000401F09105010995FF91EF91BF91AF91B9
:104D30009F918F917F916F915F914F913F912F91B3
:104D40000F900FBE0F901F9018951F920F920FB6E5
:104D50000F9211242F933F934F935F936F937F9301
:104D60008F939F93AF93BF93EF93FF93E0910201D3
:104D7000F09103010995FF91EF91BF91AF919F9140
:104D80008F917F916F915F914F913F912F910F90F4
:104D90000FBE0F901F9018951F920F920FB60F9293
:104DA00011242F933F934F935F936F937F938F9330
:104DB0009F93AF93BF93EF93FF93E0910001F09126
:104DC00001010995FF91EF91BF91AF919F918F9153
:104DD0007F916F915F914F913F912F910F900FBEF7
:104DE0000F901F9018951F920F920FB60F921124DB
:104DF0002F933F934F935F936F937F938F939F93E3
:104E0000AF93BF93CF93EF93FF9383B190916B00D8
:104E100089238093A5018091A4019091A501892700
:104E20008093A3018091A5018093A401C0E08091AB
:104E3000A201C81760F4EC2FF0E0EE0FFF1FE6565A
:104E4000FE4F0190F081E02D0995CF5FF0CFFF91EB
:104E5000EF91CF91BF91AF919F918F917F916F9182
:104E60005F914F913F912F910F900FBE0F901F9028
:104E700018951F920F920FB60F9211242F933F9304
:104E80004F935F936F937F938F939F93AF93BF9352
:104E9000EF93FF938091BE009091BF002091EF01AE
:104EA0003091F001820F8093D0009091870181E0D2
:104EB000911180E08093870180918701882359F0C8
:104EC0008091ED018130B1F1B8F0833009F4A0C0D8
:104ED000843009F445C1FF91EF91BF91AF919F914B
:104EE0008F917F916F915F914F913F912F910F9093
:104EF0000FBE0F901F9018951092D2008091EC0178
:104F0000882349F31092F2011092F1018091A505D6
:104F10009091A605A091A705B091A8058093A90539
:104F20009093AA05A093AB05B093AC0581E0809364
:104F3000ED01D1CF2091C7068091F1019091F2014E
:104F4000AC014F5F5F4F5093F2014093F1013DE898
:104F5000239F800D911D1124FC01E757FA4F84A176
:104F60002091EE0190E002C0959587952A95E2F791
:104F70008093D2008091A9059091AA05A091AB05DC
:104F8000B091AC050197A109B1098093A90590934F
:104F9000AA05A093AB05B093AC058091F101909167
:104FA000F2018C38910568F48091A9059091AA05C9
:104FB000A091AB05B091AC05892B8A2B8B2B09F006
:104FC0008ACF1092F2011092F101E091C7068DE8AC
:104FD000E89FF0011124E75CF94F10829091C70619
:104FE00081E0911180E08093C7068091A90590919E
:104FF000AA05A091AB05B091AC05892B8A2B8B2B10
:1050000009F069CF1092F2011092F10182E08FCF86
:105010008091EC0181110EC02091EE0181E090E0C1
:1050200001C0880F2A95EAF78093F3011092F401EA
:1050300084E07DCFE091C7063DE8E39FF0011124B5
:10504000E75CF94F8081882309F445CF8091A90559
:105050009091AA05A091AB05B091AC058C38910553
:10506000A105B10521F48AE895E00E940210209183
:10507000C7068091F1019091F201AC014F5F5F4F43
:105080005093F2014093F1013DE8239F800D911D63
:105090001124FC01E757FA4F84A12091EE0190E022
:1050A00002C0959587952A95E2F78093D20080916A
:1050B000A9059091AA05A091AB05B091AC05019707
:1050C000A109B1098093A9059093AA05A093AB0506
:1050D000B093AC058091F1019091F2018C3891056B
:1050E00068F48091A9059091AA05A091AB05B091B3
:1050F000AC05892B8A2B8B2B09F0EDCE1092F20197
:105100001092F101E091C7068DE8E89FF0011124AB
:10511000E75CF94F10829091C70681E0911180E021
:105120008093C7068091A9059091AA05A091AB052F
:10513000B091AC05892B8A2B8B2B09F0CCCE8091BA
:10514000A5059091A605A091A705B091A80580930B
:10515000A9059093AA05A093AB05B093AC05BBCE6F
:105160008091A9059091AA05A091AB05B091AC05DD
:105170008C389105A105B10521F48AE895E00E94DB
:1051800002102091C7068091F1019091F201AC01CB
:105190004F5F5F4F5093F2014093F1013DE8239F31
:1051A000800D911D1124FC01E757FA4F84A16091F5
:1051B000F3010E9419368093D2008091A905909145
:1051C000AA05A091AB05B091AC050197A109B10961
:1051D0008093A9059093AA05A093AB05B093AC0565
:1051E0008091F1019091F2018C38910568F48091E1
:1051F000A9059091AA05A091AB05B091AC05892BAA
:105200008A2B8B2B09F043C01092F2011092F1010E
:10521000E091C7068DE8E89FF0011124E75CF94FA3
:1052200010822091C70681E090E0222311F090E0E7
:1052300080E02DE8289FF001299FF00D1124E75C04
:10524000F94F8081882339F09091C70681E0911150
:1052500080E08093C7068091A9059091AA05A0914E
:10526000AB05B091AC05892B8A2B8B2B81F48091F7
:10527000A5059091A605A091A705B091A8058093DA
:10528000A9059093AA05A093AB05B093AC058091B6
:10529000F301803108F41FCE1092F2011092F10157
:1052A000E091C7063DE8E39FF0011124E75CF94F68
:1052B00010829091C70681E0911180E08093C7062B
:1052C0008091A5059091A605A091A705B091A8058C
:1052D0008093A9059093AA05A093AB05B093AC0564
:1052E0001092EC01809180008F7B8093800010925F
:1052F000ED01F1CDEF92FF920F931F93CF93DF93C8
:10530000F82E192FE62E042F81E0860F880F0E94B9
:105310001C0383E00E941C03CF2DD12FEC0EFD2E29
:10532000F11CCE15DF05B9F007FF13C0FE01849113
:105330000E941C03182F80E00E941C0381232196E9
:105340008111EFCFDF91CF911F910F91FF90EF90DF
:1053500008958881EDCF81E0F5CFEDE2F4E013828E
:10536000128288EE93E0A0E0B0E084839583A68368
:10537000B78326E331E0318320832DEC30E035879D
:1053800024872CEC30E03787268728EC30E0318BFF
:10539000208B29EC30E0338B228B2AEC30E0358BEC
:1053A000248B2EEC30E0378B268B118E128E138ED1
:1053B000148EEAECF4E01382128284839583A68330
:1053C000B78328E431E0318320832FEF3FEF358727
:1053D0002487EAE1F5E020E520831182ECE1F5E0A5
:1053E000158216821186138642E050E060E070E07C
:1053F000448755876687778713A215A614A62AE5E2
:1054000031E033A722A717A6E9E8F5E0148213825A
:1054100085839683A783B08780E791E09283818319
:10542000138E128E158686E691E090937805809310
:105430007705ECE7F5E020812B7F208390936605CC
:1054400080936505EAE6F5E080818B7F808308958F
:10545000CF93DF93CDB7DEB763970FB6F894DEBF77
:105460000FBECDBF789484B5826084BD84B5816061
:1054700084BD85B5826085BD85B5816085BD80911F
:105480006E00816080936E00109281008091810097
:10549000826080938100809181008160809381008F
:1054A0008091800081608093800080919100826073
:1054B0008093910080919100816080939100809110
:1054C00090008160809390008091C10084608093FF
:1054D000C1008091C10082608093C1008091C100B1
:1054E00081608093C1008091C30081608093C3007C
:1054F0008091C00082608093C0008091C200816072
:105500008093C20080917A00846080937A008091B9
:105510007A00826080937A0080917A008160809323
:105520007A0080917A00806880937A001092EB0173
:105530001092C2011092C1018091D70081608093C6
:10554000D70080EA8093D80089B5806189BD89B58C
:10555000826089BD09B400FEFDCF61E070E080E0AB
:1055600090E00E9457068091D8008F7C80618093E4
:10557000D8008091E000807F8093E0008091E1007E
:105580008E7E8093E1008DE08093E200559A209A10
:105590008FEF9FEF9093D7048093D60441E050E0C3
:1055A00070E060E0CE0143960E9439358B898230ED
:1055B00008F444C01B8A41E050E070E060E0CE0196
:1055C00043960E944F351A8A41E050E06AE070E04D
:1055D000CE0142960E944F35198A41E050E06CE0BE
:1055E00070E0CE0141960E944F358CE0888B41E0FF
:1055F00050E06DE070E0CE0140960E944F358CED9A
:1056000095E09A83898342E050E06EE070E0CE013D
:1056100001960E944F3584E08F8741E050E060E1C1
:1056200070E0CE010F960E944F351E8641E050E09B
:1056300061E170E0CE010E960E944F3561E085E099
:105640000E94010661E089E00E94010662E087E7AE
:1056500095E00E947E0763E085E695E00E947E0764
:1056600082E190E09093C7018093C60160E971E008
:105670000E9471358091C6019091C70164E670E087
:1056800002960E9471358091C6019091C70162E334
:1056900070E004960E9471358091C6019091C70117
:1056A00062E370E006960E9471351092D701109265
:1056B000D6018091D801807E8093D80185E695E05F
:1056C0009093D5018093D4018091D90183708C6728
:1056D0008093D9011092DA018091DD01807B809363
:1056E000DD010EE3C02E02E0D02E88E3E82E82E03A
:1056F000F82EF701849161E00E94D305FFEFEF1AC5
:10570000FF0ACE14DF04A9F78CED95E09093F60123
:105710008093F5010E946F171092EC011092ED0139
:1057200082EB90E09093F0018093EF0141E050E034
:105730006AE070E0CE0142960E9439358A898093F2
:10574000EE0180914B05882321F086E495E00E94CC
:10575000BE12109227051092250510922205109274
:1057600021058AE0809320050E940E077B0161E0FD
:10577000809120050E94010661E0809120050E9431
:10578000D3050FB7F8948091C301811127C0E0E2DF
:10579000F2E08491E1E0F2E09491E82FF0E0EE0F86
:1057A000FF1FEE51FE4FA591B491EC91E92321F436
:1057B00061E081E10E94D30561E081E10E94010680
:1057C0008CB580618CBD8CB580648CBD61E08FE050
:1057D0000E94010661E080E10E9401068091C30100
:1057E0008F5F8093C3010FBF82E580931A051092EB
:1057F0001B0580911A0590911B050E94440A0AE03E
:105800008FEF0E941F0A0150D9F78CE195E00E94AA
:10581000470A20E030E0A90160E08CE195E00E94B9
:105820005D0A082F80932605813019F10E940E072A
:105830006E197F09613D774060F381E08093210517
:105840008CE195E00E94140A61E085E00E94D30596
:105850006AEF70E080E090E00E94570660E085E02B
:105860000E94D3056AEF70E080E090E00E94570646
:10587000EBCF2AEA31E040E050E068E08CE195E0CF
:105880000E945D0A82FF2AC00093270580912705A8
:10589000812C912CA12CA0E4BA2E823019F0812CFD
:1058A000912C540120E030E0A90167E38CE195E000
:1058B0000E945D0AA501940169E28CE195E00E94D5
:1058C0005D0A809326058823C1F00E940E076E1999
:1058D0007F09613D774030F388E0B0CF04E00E945B
:1058E000260A809326050150D1F78A3A11F082E00A
:1058F000A5CF82E080932705C9CF8091270582300C
:10590000D1F420E030E0A9016AE38CE195E00E9447
:105910005D0A882311F086E091CF0E94260A807CE0
:10592000803C19F483E0809327050E94260A0E9498
:10593000260A0E94260A8CE195E00E94140A80E55E
:1059400080931A0581E080931B050E94630C8823D5
:1059500009F4C2C086E495E00E941A0F882309F476
:1059600073CF82B7806382BF1092C30002E00093BE
:10597000C00084E08093C1008091C200807C80934D
:10598000C2008FEF8093D10082EB8093D00080E241
:10599000809372001092D20061E086E00E940106BE
:1059A0008091C20089608093C200E0913D04F09133
:1059B0003E040083E0913904F0913A041082E091B2
:1059C0003B04F0913C048FEC808310924504E091FD
:1059D0004104F091420486E08083E0913F04F0911D
:1059E0004004808180618083E0913F04F091400415
:1059F000808188608083E0913F04F0914004808141
:105A000080688083E0913F04F091400480818F7D25
:105A100080838DE294E0909328048093270489E7A3
:105A200095E19093C5018093C4016CED75E080E031
:105A300090E00E94570641E050E060E170E0CE0146
:105A40000F960E9439356F8570E087E00E947009DB
:105A500088E190E00E94060A812C912C54018A94DE
:105A60009394412C512C320143948091D401909114
:105A7000D501DC01ED91FC910190F081E02D66E013
:105A800009958823F1F08091D4019091D50160911E
:105A9000D90166956695DC01ED91FC910280F38158
:105AA000E02D09957C019091DD01892F8F70823066
:105AB00009F442C1C0F4882309F4C3C0813009F459
:105AC00000C180E09FE7980F943008F0EFC1880F85
:105AD00081500E94B61796C080E00E94630C882314
