:100000000C941B060C9443060C9443060C94351870
:100010000C94EF170C94A9170C9443060C94430608
:100020000C9443060C9443060C9443060C9443062C
:100030000C9443060C9443060C9443060C9443061C
:100040000C945F170C9443060C942D170C9407170F
:100050000C9443060C9443060C9443060C944306FC
:100060000C9443060C9443060D000A006A006800D5
:100070002020202020202020202020202020202080
:10008000202020546F207377697463682062616355
:100090006B20746F205465726D696E616C204D6FBA
:1000A00064652C2073696D706C79206869742045D3
:1000B0006E746572005120202020202020202020F6
:1000C00020202020202D3E20517569742074686501
:1000D000205465726D696E616C204D6F646520619E
:1000E0006E642073776974636820746F20524320B4
:1000F0004D6F64652E00202020202020202020200D
:100100002020202020202020203820427574746F69
:100110006E733A20423D787878782C787878782C0D
:10012000787878782C787878782C787878782C7833
:100130007878782C787878782C7878787800423FBE
:1001400020202020202020202020202020202D3E84
:100150002052657475726E207468652070756C73BA
:10016000652077696474682028696E20757329207A
:100170006173736F63696174656420746F20656176
:100180006368206F662074686500423D432020202C
:10019000202020202020202020202D3E205374616C
:1001A00072742074686520427574746F6E204361A8
:1001B0006C6962726174696F6E2070726F636573CF
:1001C00073002020202020202020202020202020FC
:1001D000202020202069732053383D413B4E2F4979
:1001E0003A50776D50657243656E74253A50726F60
:1001F0007056616C7565202865673A2053383D411B
:100200003B493A313030253A303030290053383FBD
:10021000202020202020202020202020202D3E20B3
:100220005768656E20533820636F6E666967757214
:10023000656420617320416E616C6F672C20746867
:100240006520616E7377657220746F207468652015
:1002500053383F20636F6D6D616E64002020202055
:100260002020202020202020202020202020202886
:10027000302D32353529206F722053383D7878780B
:1002800025207365747320746865207065726365DA
:100290006E74616765206F662070776D2028302549
:1002A0002D31303025290053383D7878785B255D35
:1002B000202020202020202D3E205768656E2053CE
:1002C0003820636F6E66696775726564206173209C
:1002D000416E616C6F672C2053383D7878782073BD
:1002E0006574732074686520436D642050726F706C
:1002F0002056616C756500202020202020202020C1
:100300002020202020202020202061732070776D65
:1003100020416E616C6F67206F7574707574207703
:10032000697468204E6F726D616C284E29206F725F
:1003300020496E7665727465642028492920706FA3
:100340006C61726974790053383D413B4E2F4920EE
:10035000202020202020202D3E20416464697469E3
:100360006F6E616C7920746F204469676974616C89
:1003700020616E6420536572766F20547970652C0D
:100380002053382063616E20626520636F6E66695A
:100390006775726564002020202020202020202006
:1003A00020202020202020202053303D5858583A2B
:1003B00043434320666F722050726F702053657202
:1003C000766F2028432069732074686520637572F6
:1003D00072656E7420436F6D6D616E64207374611D
:1003E0007475732900202020202020202020202028
:1003F000202020202020202053783D533B4D3B508F
:100400006F73413B506F73423B4132424475723BC4
:100410004232414475723A43206966206F757470A8
:1004200075742078206973206120536572766F2C73
:10043000206F720053783F20202020202020202091
:10044000202020202D3E2052657475726E20537836
:100450003D443B4D3A43206966206F757470757456
:100460002078206973204469676974616C2C206F5F
:10047000720053783D302F31202020202020202072
:1004800020202D3E2053696D756C617465206120BC
:10049000436D643D302F3120636F6D6D616E64205C
:1004A000666F7220537820284E69636520666F72EC
:1004B000207465737420776974686F757420524373
:1004C0002900202020202020202020202020202043
:1004D00020202020206265747765656E20506F7340
:1004E000204120262042206172652041324244751D
:1004F0007220262042324144757220283634303032
:1005000030206D73204D617829002020202020208C
:100510002020202020202020202020202050756C0A
:10052000736564292E20506F73412075732077689E
:10053000656E20436D643D302C20506F73422075F2
:1005400073207768656E20436D643D312C204475BF
:10055000726174696F6E0053783D533B4D3B506F31
:1005600073413B506F73423B4132424475725B3B77
:100570004232414475725D202D3E205378206973CC
:10058000206120536572766F206F757470757420CA
:10059000696E206D6F6465204D20284D3D4E6F7251
:1005A0006D616C206F7200202020202020202020F0
:1005B00020202020202020202020746865207072B8
:1005C0006F7020536572766F290020202020202034
:1005D00020202020202020202020202020287820BB
:1005E000697320746865206964206F66207468658B
:1005F000206F757075742066726F6D203120746F76
:1006000020382C2078203D203020697320726573BB
:10061000657276656420666F720053783D443B4D89
:10062000202020202020202020202D3E2053782014
:1006300069732061204469676974616C206F757407
:1006400070757420696E206D6F6465204D20284D93
:100650003D4E6F726D616C206F722050756C7365CA
:1006600064290053523D4E2F592020202020202065
:100670002020202D3E204170706C792072657665B7
:1006800072736520285929206F72206E6F20726561
:10069000766572736520284E2920666F722050722D
:1006A0006F7020536572766F2028533029005330C5
:1006B0003D585858582020202020202020202D3E12
:1006C000205365742050726F7020536572766F20CE
:1006D000746F20746865205858585820706F73697B
:1006E00074696F6E20696E20757300503F20202062
:1006F00020202020202020202020202D3E20526558
:100700007475726E2074686520636F6E66696775B4
:10071000726564204D756C74692D537769746368D4
:100720002050726F746F636F6C0020202020202097
:100730002020202020202020202020202028666F1C
:1007400072204F545820616E6420455458292C2043
:100750005020666F7220507573682D427574746FE7
:100760006E20616E64204520666F7220454B4D46B9
:10077000412900202020202020202020202020206F
:100780002020202020204E6F6E2066696C746572D8
:1007900065642C204620666F722066696C746572F1
:1007A00065642C204620666F72204D5338204675B4
:1007B000746162612C20422062696E61727900501E
:1007C0003D4D7350726F746F5B3B4E2F465D202D15
:1007D0003E2053657420746865204D756C74692DD6
:1007E0005377697463682050726F746F636F6C2005
:1007F000284D7350726F746F3A205220666F7220CA
:100800005243554C2077697468204E20666F720001
:10081000493F202020202020202020202020202090
:100820002D3E2052657475726E2074686520636F6A
:100830006E6669677572656420496E74657266617B
:100840006365002020202020202020202020202040
:100850002020202020205820666F72205352584CB0
:100860002C204420666F722053554D442C20492083
:10087000666F722049425553292C204368206973C2
:10088000206368616E6E656C00493D496E746572E7
:10089000666163655B43685D202D3E20536574206F
:1008A00074686520524320496E74657266616365A1
:1008B00020285020666F722050574D2C2043206610
:1008C0006F72204350504D2C205320666F7220537E
:1008D0004255532C00543F2020202020202020204F
:1008E00020202020202D3E2052657475726E2074C9
:1008F000686520636F6E66696775726564204C6910
:100900006E65205465726D696E61746F7200543D3E
:1009100043524C462F4352202020202020202D3EA1
:100920002053657420746865204C696E6520546599
:10093000726D696E61746F7220746F2043524C4601
:10094000206F7220746F204352002020202020202E
:100950002020202020202020202020202028616C02
:100960006C2074686520636F6D6D616E6473206CBC
:1009700069737465642062656C6F772900433F205A
:10098000202020202020202020202020202D3E203C
:100990005468697320636F6D6D616E642064697360
:1009A000706C617973207468652066756C6C204387
:1009B0006F6E66696775726174696F6E20776974AE
:1009C000682073746174757300202020202020201B
:1009D00020202020202020202020202057656C630C
:1009E0006F6D65204D65737361676520224D5338C7
:1009F0002056782E792220696E207468652054650F
:100A0000726D696E616C0020202020202020202043
:100A10002020202020202020202041646469746947
:100A20006F6E616C6C792C207468697320636F6DD4
:100A30006D616E6420747269676765727320746893
:100A40006520646973706C6179206F6620746865D5
:100A500000202020202020202020202020202020B6
:100A6000202020206661696C7361666520697320AF
:100A700064697361626C656420286E6963652C200B
:100A8000666F7220636F6E66696720616E642074A2
:100A900065737429003C2D2D272020202020202044
:100AA00020202020202D3E20496620456E7465724E
:100AB0002069732073656E742C204D53382056784E
:100AC0002E7920737461797320696E205465726D7C
:100AD000696E616C204D6F646520616E6400483FF3
:100AE00020202020202020202020202020202D3EDB
:100AF0002052657475726E7320746869732068651E
:100B00006C7000455252000D003B005042313A20BB
:100B10000042465250455043535844494A43524C70
:100B2000460043520043520043524C46004D533856
:100B30002056332E524331000000000024002700CD
:100B40002A0001014102024103034104044105015D
:100B500044060244070344080444E4031C041C0440
:100B6000540454048C048C04C404C404FC04FC0425
:100B7000340534056C056C05A405A405DC05DC050D
:100B8000140614064C064C0684068406BC06BC06F5
:100B9000F406F4062C072C07640764079C079C07DF
:100BA000D4072003E803E803DC05DC05980800000F
:100BB000000800020100000304070000000000001C
:100BC0000000030405060708090A4661696C7361A1
:100BD0006665210053523F00423F00503F00493FAD
:100BE00000543F00413F00413F00433F003A200096
:100BF0005042000D0000000000250028002B0000DE
:100C00000000002300260029000404040404040456
:100C100004020202020202030303030303010204AB
:100C2000081020408001020408102001020408106E
:100C300020007B18DD2411241FBECFEFD8E0DEBFDB
:100C4000CDBF11E0A0E0B1E0ECE5FCE402C005900E
:100C50000D92AE34B107D9F723E0AEE4B1E001C0A4
:100C60001D92A63BB207E1F716E0CAE1D6E004C048
:100C70002197FE010E941026C931D107C9F70E94B1
:100C800086190C9421260C940000AF92BF92CF924B
:100C9000DF92EF92FF920F931F93CF93DF936C013C
:100CA0007B018B01040F151FEB015E01AE18BF081D
:100CB000C017D10759F06991D601ED91FC910190CF
:100CC000F081E02DC6010995892B79F7C501DF91E7
:100CD000CF911F910F91FF90EF90DF90CF90BF9039
:100CE000AF900895FC01538D448D252F30E0842F63
:100CF00090E0821B930B541710F0CF960895019744
:100D00000895FC01918D828D981761F0A28DAE0F30
:100D1000BF2FB11D5D968C91928D9F5F9F73928FB7
:100D200090E008958FEF9FEF0895FC01918D828DE3
:100D3000981731F0828DE80FF11D858D90E00895B0
:100D40008FEF9FEF0895FC01918D228D892F90E008
:100D5000805C9F4F821B91098F73992708958BE2C6
:100D600092E00E94A30621E0892B09F420E0822F63
:100D7000089580E090E0892B29F00E94AF06811150
:100D80000C9400000895FC01A48DA80FB92FB11D8B
:100D9000A35ABF4F2C91848D90E001968F739927B1
:100DA000848FA689B7892C93A089B1898C9183708F
:100DB00080648C93938D848D981306C00288F38988
:100DC000E02D80818F7D80830895EF92FF920F93B5
:100DD0001F93CF93DF93EC0181E0888F9B8D8C8DE7
:100DE00098131AC0E889F989808185FF15C09FB7DB
:100DF000F894EE89FF896083E889F989808183709E
:100E0000806480839FBF81E090E0DF91CF911F914C
:100E10000F91FF90EF900895F62E0B8D10E00F5F6D
:100E20001F4F0F731127E02E8C8D8E110CC00FB643
:100E300007FCFACFE889F989808185FFF5CFCE01DB
:100E40000E94C306F1CFEB8DEC0FFD2FF11DE35A8D
:100E5000FF4FF0829FB7F8940B8FEA89FB8980815E
:100E60008062CFCFCF93DF93EC01888D8823B9F0D8
:100E7000AA89BB89E889F9898C9185FD03C08081A5
:100E800086FD0DC00FB607FCF7CF8C9185FFF2CF22
:100E9000808185FFEDCFCE010E94C306E9CFDF91AF
:100EA000CF910895833081F028F4813099F0823019
:100EB000A9F008958730A9F08830C9F08430B1F4E2
:100EC000809180008F7D03C0809180008F77809318
:100ED0008000089584B58F7784BD089584B58F7D93
:100EE000FBCF8091B0008F778093B0000895809100
:100EF000B0008F7DF9CFCF93DF93282F30E0F90139
:100F0000E255F44F8491F901E35EF34FD491F90176
:100F1000E75FF34FC491CC23A1F081110E945207E7
:100F2000EC2FF0E0EE0FFF1FE150F44FA591B491CC
:100F3000EC91ED2381E090E009F480E0DF91CF9126
:100F4000089580E090E0FACF1F93CF93DF93282F8E
:100F500030E0F901E255F44F8491F901E35EF34F7B
:100F6000D491F901E75FF34FC491CC23A9F0162F78
:100F700081110E945207EC2FF0E0EE0FFF1FEB50A3
:100F8000F44FA591B4918FB7F894EC91111108C06A
:100F9000D095DE23DC938FBFDF91CF911F91089511
:100FA000DE2BF8CFCF93DF9390E0FC01E35EF34FAD
:100FB0002491875F934FFC0184918823D1F090E0C6
:100FC000880F991FFC01E85CF44FA591B491FC01D6
:100FD000EB50F44FC591D49161110EC09FB7F894B6
:100FE0008C91E22FE0958E238C932881E223E88375
:100FF0009FBFDF91CF9108958FB7F894EC91E22BCA
:10100000EC938FBFF6CF3FB7F8948091C3019091D6
:10101000C401A091C501B091C60126B5A89B05C029
:101020002F3F19F00196A11DB11D3FBFBA2FA92F67
:10103000982F8827BC01CD01620F711D811D911D64
:1010400042E0660F771F881F991F4A95D1F70895D0
:101050002FB7F8946091BF017091C0018091C101D8
:101060009091C2012FBF089508956150603140F5FD
:10107000FC0124812F7059F0263010F570E0660FC6
:10108000771F680F791FFB0181A592A5089570E075
:10109000660F771F680F791FFB0121A532A5A0E01D
:1010A000B5E00E94D9252FEF37E040E050E00E94E4
:1010B0008D25DA01C90180599C4FAF4FBF4F08956C
:1010C0008CED95E00895FC01E55BFF4F9081492F81
:1010D00050E0062E02C0559547950A94E2F7DA01D2
:1010E000A170BB2740FF09C021E030E001C0220F02
:1010F0006A95EAF72095292320838A2F0895E091A5
:10110000BD013AE0E39FF0011124EE56FE4F278126
:101110008091BC01883008F046C03091BC0181E06C
:1011200090E002C0880F991F3A95E2F7E091BD0167
:101130004AE0E49FF0011124EE56FE4F318523234F
:1011400030E082239323892B09F460C00E940308B6
:101150002091BA013091BB01AB01421B530B9A01A4
:101160007093BB016093BA01283B5BE03507C8F17F
:101170002091B9012093B8011092B9012FEF20936B
:10118000B7013091B6012091B6012E7F30FF21606A
:101190002093B6012091B60120FF18C07093B501CD
:1011A0006093B40108958091BC014091BC018E30E0
:1011B00050F44850550B81E090E002C0880F991F11
:1011C0004A95E2F7B3CF4E50550BF5CF2091B401BD
:1011D0003091B501621B730B7093B3016093B20140
:1011E00008958091B901893088F48091B60186957F
:1011F0008F719091B901891304C03093B10120938C
:10120000B0018091B9018F5F8093B9010895662381
:1012100081F08091B801861760F08091B0019091C3
:10122000B1012091B0013091B10182179307A9F764
:1012300008958CED95E008952091B70130E0062ED9
:1012400002C0359527950A94E2F7C9018170992764
:1012500020FF0CC04091B70121E030E001C0220F17
:101260006A95EAF7209524232093B7010895BF9249
:10127000CF92DF92EF92FF920F931F93CF93DF9362
:101280000E9403086B017C01C0919001D0919101F3
:10129000BB24BA9401E010E0209709F445C08D8189
:1012A0008370823001F52091AD01422F50E08C8196
:1012B000282F30E08830D8F49801082E02C0220F81
:1012C000331F0A94E2F724233523232B61F00E9475
:1012D0007B079D8192FB992790F99817B9F0CA86F0
:1012E000DB86EC86FD860A80DB81C02DD5CF8E3073
:1012F00050F428503109B80102C0660F771F2A95B3
:10130000E2F79B01E0CF2E503109F5CF8A859B850E
:10131000AC85BD859601281B390B3F872E87B88A7F
:101320000E942808698BDFCFDF91CF911F910F9129
:10133000FF90EF90DF90CF90BF900895BF92CF9233
:10134000DF92EF92FF920F931F93CF93DF930E9450
:1013500003086B017C01C0919001D091910101E0E3
:1013600010E0BB24BA94209709F445C08D818370A6
:10137000813001F52091A301422F50E08C81282F6C
:1013800030E08830D8F49801082E02C0220F331FB5
:101390000A94E2F724233523232B61F00E947B0774
:1013A0009D8192FB992790F99817B9F0CA86DB8640
:1013B000EC86FD860A80DB81C02DD5CF8E3050F4BF
:1013C00028503109B80102C0660F771F2A95E2F74D
:1013D0009B01E0CF2E503109F5CF8A859B85AC85E6
:1013E000BD859601281B390B3F872E87B88A0E943E
:1013F0002808698BDFCFDF91CF911F910F91FF906C
:10140000EF90DF90CF90BF900895BF92CF92DF9280
:10141000EF92FF920F931F93CF93DF930E940308E5
:101420006B017C01C0919001D0919101BB24BA94D1
:1014300001E010E0209709F444C08D81837001F52C
:1014400020919901422F50E08C81282F30E0883084
:10145000D8F49801082E02C0220F331F0A94E2F735
:1014600024233523232B61F00E947B079D8192FB6F
:10147000992790F99817B9F0CA86DB86EC86FD8625
:101480000A80DB81C02DD6CF8E3050F42850310930
:10149000B80102C0660F771F2A95E2F79B01E0CFE3
:1014A0002E503109F5CF8A859B85AC85BD85960187
:1014B000281B390B3F872E87B88A0E942808698B22
:1014C000DFCFDF91CF911F910F91FF90EF90DF90D1
:1014D000CF90BF900895FC01868597852685378536
:1014E00082179307C9F70895FC01808990E0062EC2
:1014F00002C0959587950A94E2F780FF1CC0208969
:1015000081E090E001C0880F6A95EAF78095822318
:10151000808B268537858685978528173907C9F7F3
:10152000868197812817390730F081E04085518501
:101530004217530708F480E0089590E080E0089592
:101540002091C80130E0062E02C0359527950A94F7
:10155000E2F7C9018170992720FF0CC04091C801B2
:1015600021E030E001C0220F6A95EAF7209524239C
:101570002093C8010895CF92DF92EF92FF92CF930C
:10158000DF93EC01CF8030E1C39E60011124C601DE
:10159000C616D70608F4CB01288530E1239FF00159
:1015A0001124AF018E179F0708F4AC0170E060E0D2
:1015B000DB01CA0122E0B595A795979587952A95F5
:1015C000D1F79E838D830D2C000CEE08FF089A0145
:1015D000AB012C193D094E095F09A4EBB0E00E9454
:1015E000AC259F01FF0F440B550B2C193D094E09EB
:1015F0005F090E948D252C83DF91CF91FF90EF90A2
:10160000DF90CF9008950C94BB0A2091680094E07D
:10161000883048F031E08E3008F430E091E001C0CD
:10162000990F3A95EAF7922B90936800EDE6F0E077
:10163000883030F0EBE6F0E08E3010F0ECE6F0E0D1
:101640004081282F30E0883048F491E001C0990FA4
:101650008A95EAF7892F842B808308958E3040F491
:101660002850310981E001C0880F2A95EAF7F3CFAD
:101670002E503109F7CF0F931F93CF93DF9392E052
:10168000883028F08E5091E0883008F090E040E0FB
:101690005AE0959FD0011124A856BE4F292F092E3C
:1016A000000C330B55E0959FC0011124C42F042E6C
:1016B000000CDD0B5C915C171D0609F00CF453C0A7
:1016C000FC01EC0FFD1FEE0FFF1FEE56FE4F0081D9
:1016D00011810617170711F04F5FE8CF47FD43C090
:1016E000118210828C918150990BC817D90751F142
:1016F0008AE0829FE001839FD00D1124C856DE4FFF
:1017000055E0529FC001539F900D1124E42FF0E04B
:1017100068816150770BE617F707A4F4DF01119693
:10172000A80FB91FAA0FBB1FAE56BE4F6D917C917B
:10173000E80FF91FEE0FFF1FEE56FE4F7183608317
:101740004F5FE4CF8AE0829FF001839FF00D112468
:10175000EE56FE4F86818150868381E0DF91CF91E6
:101760001F910F91089580E0F9CF883090F180E0CB
:10177000482F082E000C550B9AE08902F001112425
:10178000EE56FE4F208131816217730729F12281C5
:1017900033816217730701F1248135816217730762
:1017A000D9F096819330B8F4A68195E0949F90018A
:1017B000959F300D1124A20FB32FB11DAA0FBB1F8F
:1017C000AE56BE4F11967C936E9396819F5F968323
:1017D000089582E0CDCF8FEF0895DC011E96ED9144
:1017E000FC911F9755968C919081611104C0809552
:1017F000892380830895892BFCCF20E001972FEF68
:101800008F3F9207D9F70895EF92FF921F93CF93DE
:10181000DF93C0911403D0911503EC85FD85808181
:101820009C89892391E009F090E08889817098175C
:1018300009F48EC02B892631C0F4EDE6F0E02830A3
:1018400030F0EBE6F0E02E3010F0ECE6F0E0308126
:10185000422F50E0283088F581E090E001C0880FE9
:101860002A95EAF78095832380838E899F89890F43
:101870009927991F0E94FD0BEE24E394F12C10E0B0
:101880009889987181E009F480E029893A8902C039
:10189000369527958A95E2F78F892E153F05F9F041
:1018A000EC85FD8590812C899223A9F01E2990E07A
:1018B0000E94FD0BEE0CFF1CE3CF2E3048F4485085
:1018C000510981E090E001C0880F4A95EAF7CACF3C
:1018D0004E505109F6CF9E2D90951923E8CF9923AC
:1018E00019F090E00E94FD0B8F8990E00E94FD0BA3
:1018F0008B89863110F40E94050B888980FF0FC008
:10190000869583708B5F21E030E0A90102C0440F0F
:10191000551F8A95E2F7CA018150109518238091CE
:101920008F0120918E0190E001968F7399272817DF
:10193000190671F0E0918F01F0E0E25BFE4F108339
:1019400080918F0190E001968F73992780938F018A
:10195000DF91CF911F91FF90EF90089590918E01AC
:1019600080918F01981751F0E0918E01F0E0E25BD9
:10197000FE4F8081082E000C990B08958FEF9FEF8A
:1019800008958FB7F89410928F0110928E018FBF37
:10199000089580918F0120918E0190E0805C9F4F8F
:1019A000821B910960E470E00E94FC2508959091EB
:1019B0008E0180918F01981789F0E0918E01F0E0FF
:1019C000E25BFE4F808120918E0130E02F5F3F4F20
:1019D0002F73332720938E0190E008958FEF9FEFB0
:1019E000089590E080E00895FB01453079F460E1CE
:1019F00077E20E94E825605D6083319668EE73E0CF
:101A00000E94E825605D6083319602C04330B1F7E3
:101A100064E670E00E94E825605D60836AE070E043
:101A20000E94E825605D6183805D82831382089552
:101A30008F929F92AF92BF92FF920F931F93CF937B
:101A4000DF934B015C01F42ECBE2D2E0E889F98907
:101A500082E08083EC85FD8510820E851F8560E025
:101A600079E08DE390E0A50194010E94B725215013
:101A70003109410951095695479537952795F80140
:101A80002083188EEC89FD89F082EA89FB898081A8
:101A900080618083EA89FB89808188608083EA890C
:101AA000FB89808180688083EA89FB8980818F7DC2
:101AB0008083E1ECF0E08081877B808361E081E0DE
:101AC0000E94D207589ADF91CF911F910F91FF90FA
:101AD000BF90AF909F908F900895DF92EF92FF920A
:101AE0000F931F93CF93DF93EC014889842F869542
:101AF000837090E09C012B5F3F4F01E010E0022ECD
:101B000001C0000F0A94EAF70150062310E0E42F09
:101B1000E871D9F070E050E004967817190609F0E2
:101B200034F4F62FF1705F2766957F5FF6CF81E082
:101B300090E0E83011F090E080E0852702C0880F47
:101B4000991F2A95E2F7082B192B40FF02C0009538
:101B50001095DFB6F89468896170CE010E94ED0B94
:101B6000888D90E00E94FD0BEE24E394F12C89898E
:101B70009A898E159F05A9F0EE85FF858D899801BC
:101B80002E213F219081232B49F0892B8083888D42
:101B900090E00E94FD0BEE0CFF1CE9CF809589239D
:101BA000F5CF688960956170CE010E94ED0BDFBEB4
:101BB000888D90E00E94FD0B888985FF04C0888D88
:101BC00090E00E94FD0B81E090E0DF91CF911F91AA
:101BD0000F91FF90EF90DF9008950F931F93CF9395
:101BE000DF938C01D0E0C0E0F801EC0FFD1F6491A1
:101BF000662341F08AE393E00E946D0D892B11F07A
:101C00002196F2CFCE01DF91CF911F910F910895D0
:101C10008F929F92AF92BF920F931F93CF93DF93B8
:101C2000CDB7DEB7A1970FB6F894DEBF0FBECDBF1C
:101C300019A2423008F44AE08E010F5D1F4F842E36
:101C4000912CB12CA12CA50194010E94B725E62F5F
:101C5000B901CA01EA3044F5E05DD801EE938D0187
:101C6000232B242B252B79F790E080E0109769F047
:101C7000FD0101900020E9F73197AF014A1B5B0B92
:101C8000BD018AE393E00E944506A1960FB6F89441
:101C9000DEBF0FBECDBFDF91CF911F910F91BF90DF
:101CA000AF909F908F900895E95CD7CF42E052E0CB
:101CB000FA0101900020E9F7AF014350524062E081
:101CC00072E08AE393E00C944506EF92FF920F9343
:101CD0001F93CF93DF93C9E08C9FC02D1124CD5F5C
:101CE0007B0110E000E0D0E0F70161917F01CE01BF
:101CF000800F911F0E9458250F5F1F4F093011055B
:101D000099F7DF91CF911F910F91FF90EF90089578
:101D1000CF93DF93EC01688190E080E00E9458252A
:101D2000698181E090E0DF91CF910C945825EF928A
:101D3000FF920F931F93CF93DF93C9E08C9FC02D29
:101D40001124CD5F7B0189E0E80EF11C8B01D0E00E
:101D5000C61BD70BCE01800F911F0E944A25F801A8
:101D600081938F01EE15FF05A9F7DF91CF911F91A8
:101D70000F91FF90EF90089582E090E00C944A2537
:101D8000CF93DF93EC0190E080E00E944A258883A6
:101D900081E090E00E944A258983DF91CF910895E8
:101DA0000F931F93CF93DF9300D0CDB7DEB78C0195
:101DB000CE0101960E94C00E8091F5019091F6012E
:101DC000892BB9F02981922F907ED8018C919111A5
:101DD00034C0382F307E09F43FC0F89480916D00F4
:101DE0008E7F80936D0065E07AE080E00E943B0B7F
:101DF00078948091F5019091F601D801EC91892BAE
:101E000029F089818E27807E09F4A1C08091F70195
:101E10008F7E8093F701E295E695E770E73008F052
:101E200096C0F0E0EA5EF04F0C941026630FF60FB8
:101E30003710551061106D107910903269F4382FF9
:101E4000307E303249F0F89480916D008E7F80931F
:101E50006D006FE778E0C9CF203458F2903E09F466
:101E6000C8CF803408F0C5CFF8948BE292E00E948E
:101E70003207E0913D02F0913E0280818F7E8083A7
:101E8000E0913D02F0913E028081877F8083E09166
:101E90003D02F0913E0280818F778083E0913D0288
:101EA000F0913E0280818F7D8083809145028093F6
:101EB00044028091C100877B8093C10061E081E092
:101EC0000E94D20795CF80912D038C7F82608093F2
:101ED0002D0367E379E080E00E94B50B982F9370A3
:101EE00080912D038C7F892B80932D0310922C03DE
:101EF00088E592E090932F0380932E0380E699E08B
:101F000090933103809330038091900190919101DF
:101F100090932B0380932A0388E293E0909391019E
:101F20008093900160E080E00E94D20761E08091A0
:101F30002C030E94A40780912C03863110F40E9488
:101F4000050B88E293E09093F6018093F501F894F5
:101F5000F80180818F714091F5015091F601509305
:101F60001C0340931B03982F906C90931A031092BC
:101F700022039091240320912503207F2960209340
:101F800025039C7792609093240310921E03109275
:101F90001F039181929593709062909323035093C5
:101FA000E4014093E301282F220F220F9091E801D2
:101FB0009370922B9093E8011092E9019091EC01BB
:101FC000907B9093EC018150893040F48F71880FA1
:101FD0009091B601917C892B8093B60178940F90F3
:101FE0000F90DF91CF911F910F91089583B1909140
:101FF0006B00892380939B0180919B0180939A01C0
:1020000086B190916C0089238093A5018091A501F0
:102010008093A40189B190916D0089238093AF01D1
:102020008091AF018093AE016FE778E080E00E947D
:10203000B50B8093BD018091BD0187FD15C08CED6E
:1020400095E09093B1018093B0018AE08093B9014B
:102050001092B8011092B7011092BC018091BC019E
:10206000863110F40E94050B86E293E06CCF4EE2BD
:1020700060EA76E881E090E00E94180D8091CC0241
:10208000807F8093CC028BE292E09093CB0280938E
:10209000CA0288EC92E09093F6018093F50180915A
:1020A000F70180618093F70152CF46E060E072EC67
:1020B00081E090E00E94180D8091CC02807F8160C9
:1020C000E0CF46E060E072EC81E090E00E94180D05
:1020D0008091CC02807F8360D4CF46E060E072ECD8
:1020E00081E090E00E94180D8091CC02807F846096
:1020F000C8CF46E068E478EE81E090E00E94180DD9
:102100008091CC02807F8560BCCF0F931F93CF93CB
:10211000DF9300D0CDB7DEB7CE0101960E94C00E8E
:102120008A8186FB002700F910E0F801EE0FFF1FFF
:10213000E459FF4F859194910E94ED0D0F900F90FF
:10214000DF91CF911F910F910895CF92DF92EF927F
:10215000FF920F931F93CF937C018B016A01DA01E9
:102160001C92FB01CB010C9611921192E817F90712
:10217000D9F7F70180818823B9F1C0E06BE370E003
:10218000C7010E9416260097F1F0DC011C92D601CF
:10219000EC9121E02E0F2C93F0E0EE0FFF1FE00FEB
:1021A000F11FF182E0827C01BFEFEB1AFB0ACF5FE7
:1021B000C63021F78C2FCF911F910F91FF90EF9098
:1021C000DF90CF900895F601C081D7018C918823CC
:1021D00089F38C2F90E0880F991F080F191FF801C1
:1021E000F182E082CF5FE6CF80E0E5CF2F923F9291
:1021F0004F925F926F927F928F929F92AF92BF9217
:10220000CF92DF92EF92FF920F931F93CF93DF93C2
:10221000CDB7DEB768970FB6F894DEBF0FBECDBF5F
:10222000CE0146960E94C00E80910202893409F4C4
:1022300040C194F4823409F48DC58834A1F1811130
:1022400012C08091F701816082608093F7016DE296
:102250007BE082E092E02AC1813509F4D2C534F4F2
:10226000803509F4ADC163E07BE0F3CF833509F439
:1022700005C28435C1F7809103028D3309F00AC18C
:1022800068E27BE084E092E00E943225892B09F02D
:10229000F5C08F898F7B8F8BCE0146960E94880E6A
:1022A000109203028AC18EED9AE00E94ED0D0E9409
:1022B000851085E99AE00E94ED0D0E94851081E568
:1022C0009AE00E94ED0D0E94851087E09AE00E943E
:1022D000ED0D0E94851089EC99E00E94ED0D0E94A1
:1022E00085108DE799E00E94ED0D0E9485108AE42B
:1022F00099E00E94ED0D0E9485108EE099E00E9409
:10230000ED0D0E94851085ED98E00E94ED0D0E9474
:10231000851089E898E00E94ED0D0E94851083E405
:1023200098E00E94ED0D0E94851080E198E00E94E7
:10233000ED0D0E9485108FEB97E00E94ED0D0E943D
:10234000851083E797E00E94ED0D0E9485108AE2D8
:1023500097E00E94ED0D0E9485108BEE96E00E94A2
:10236000ED0D0E9485108EEA96E00E94ED0D0E9410
:10237000851083E696E00E94ED0D0E9485108AE1AB
:1023800096E00E94ED0D0E9485108AEC95E00E9477
:10239000ED0D0E94851087EA95E00E94ED0D0E94E8
:1023A000851087E595E00E94ED0D0E9485108AE07A
:1023B00095E00E94ED0D0E94851082EC94E00E9451
:1023C000ED0D0E94851082E794E00E94ED0D0E94C1
:1023D000851084E394E00E94ED0D0E94851085EE47
:1023E00093E00E94ED0D0E94851086E993E00E9423
:1023F000ED0D0E94851087E493E00E94ED0D0E9490
:10240000851087EF92E00E94ED0D0E94851087EA0B
:1024100092E00E94ED0D0E9485108CE592E00E94F2
:10242000ED0D0E9485108DE092E00E94ED0D0E945E
:10243000851082EC91E00E94ED0D0E9485108AE8E3
:1024400091E00E94ED0D0E9485108EE391E00E94C4
:10245000ED0D0E94851086EF90E00E94ED0D0E9428
:10246000851085EB90E00E94ED0D0E94851080E7BD
:1024700090E00E94ED0D0E94851083C465E27BE030
:1024800084E092E00E943225892B09F0ECCE8F89FE
:10249000806401CF8DE3809303028F8962E27BE049
:1024A00086FD02C06DE17BE084E092E00E943B2566
:1024B00084C0809103028D3309F052C0E091040280
:1024C000E354E63108F0CFCE0E2E000CFF0BE55999
:1024D000FD4E0C9410268912A412331133113311BE
:1024E0003311A812AC1233113311331133113311DC
:1024F0008112331133119C12331133113311331103
:10250000A0128E898F718E8BCE0146960E94D00EBE
:10251000C3CE8E898F7180628E8B85E092E00E949F
:1025200014259FEF980F903108F09DCE982F9F7142
:102530008E89807E892BE7CF8E898F718064ECCF66
:102540008E898F718066E8CF8E898F718068E4CF25
:102550008E898F71806AE0CF8E898F71806CDCCF1D
:102560008F3309F080CE8DE3809303028E89E82FAC
:10257000E295E695E770F0E0EA5EF44FE491E093CF
:102580000402982F907EB9F08F718A3030F4805D0C
:10259000809305021092060210C090E06AE070E09D
:1025A0000E94FC25605D60930502805D80930602B9
:1025B0001092070202C0109205020E94560E5BCFD5
:1025C000809103028D3309F040C0AE01485E5F4F39
:1025D000BE016F5F7F4F84E092E00E94A510909152
:1025E0000402923569F0963429F1923439F190352C
:1025F00041F1953409F037CE8F89887F84604BCEC6
:10260000823009F030CEEB81FC818081877F863477
:1026100009F029CE8F89887F82608F8B81E090813D
:10262000963409F080E0982F9295907F8F898F7C67
:10263000892B31CE8F89887F81602DCE8F89887FCD
:102640002ACE8F89887F836026CE8DE38093030214
:102650008F89982F9770E92FF0E0EF5EF44FE491A7
:10266000E0930402923009F0A6CF9BE39093050219
:10267000807311F086E49ACF8EE498CFC090030265
:1026800022E5C21224C0809104028D33B1F48091FE
:1026900005028E3419F0893509F0E5CD91E08935D0
:1026A00009F090E08F8990FB83F98F8BCE014696DD
:1026B0000E94880E1092040280CF8DE38093040262
:1026C0008F8983FF02C089E563CF8EE461CF00ED7F
:1026D0000C0D093008F0C7CD002339F0BE01635F4F
:1026E0007F4F8FEC8C0D0E94970E809104028D33EA
:1026F00009F0FDC1AE01485E5F4FBE016F5F7F4FC5
:1027000085E092E00E94A510A82E01111DC031E0C5
:102710008313A9CD89819A810E9414258C5D9340F1
:102720008D3F43E0940708F09ECD109204029695E9
:102730008795969587958093E2012F8923FF3DCF5A
:1027400080958093E20139CF20910502243431F045
:10275000233509F46BC0213409F06AC152E0A51297
:1027600082CD243409F03FC0EB81FC81F0808EE4FF
:10277000F81619F090E5F91276CD0E94BC0E0150C2
:10278000110B41E050E060E070E0002E04C0440F07
:10279000551F661F771F0A94D2F7E42EE094EEE4EB
:1027A000682FFE121EC0642B82E090E00E94582524
:1027B00084E48D87BE01635F7F4F8FEC8C0D0E9498
:1027C000650E8BE0809FF001819FF00D1124ED5A82
:1027D000FC4F8FEF83838091E1018E218093E10193
:1027E00069CF6E21E1CF083009F03DCDEB81FC814E
:1027F00010811E3419F0193409F035CD0E94BC0E39
:10280000682F1E3489F4606882E090E00E945825A9
:1028100081E48D87BE01635F7F4F87E00E94650E74
:102820008FEF8093A30346CF6F77EECF8BEF8A0DA8
:10283000823008F018CDEB81FC81F080FEE4FF16B9
:1028400019F020E5F2120FCD0E94BC0E0150110BC1
:1028500041E050E060E070E0002E04C0440F551FDE
:10286000661F771F0A94D2F73EE4D82ED42AF316B7
:1028700019F0D42ED094D82283E58D878D819E8146
:102880000E9414257C019B8B8A8B8F8198850E94E6
:1028900014254C019D8B8C8B89859A850E9414256B
:1028A000940128553240BB24B3942930374038F482
:1028B000B701685572406930774008F4B12C940133
:1028C0002E193F098E149F0418F49701281939090D
:1028D00041E050E0009739F0AC0141308AEF5807F1
:1028E00010F040E05AEFA8ECB0E00E94D9252B018F
:1028F0003C019A0150E040E00E94B725213D97E05D
:1029000039074105510528F080ED97E09F878E87B4
:1029100007C081E090E021153105C1F33F872E8784
:10292000E6E08E859F85AE1219C08B859C850E943E
:1029300014258130FAEF9F07A0F40097A9F09C01BD
:1029400050E040E0C301B2010E94B725213D87E07D
:1029500038074105510558F080ED97E0998B888B39
:102960000CC080E09AEFEBCF81E090E0E8CF398BAC
:10297000288B81E090E0232B89F3B11074CCBE0149
:10298000635F7F4F8FEC8C0D0E94650E6D2D82E092
:1029900090E00E945825F801EE53F44F84919BE09B
:1029A000909FD001919FB00D1124FD01ED5AFC4F75
:1029B0007F0183839FEF948392E2978396E99087C8
:1029C000AB5ABC4F9C9192609C9361E00E94A4071B
:1029D00061E0F70183810E94D2078091E10190E0DC
:1029E000002E02C0959587950A94E2F78170992789
:1029F000880F991F21E030E02C0F3D1F820F931F9D
:102A0000FC01218932894AE0429FC001439F900D19
:102A10001124000F111FF801E353FE4F91838083AF
:102A20006AE070E00E94E825C7010E94BB0A42CE1E
:102A3000F1E08F1318CC0830E1F080ED820F823086
:102A400008F011CC8091060281110DCC0150110BC0
:102A500081E090E0A0E0B0E004C0880F991FAA1FB9
:102A6000BB1F0A95D2F73091E1012033E9F1832BA6
:102A7000B5CE81E48D870E94BC0EF82E09811A81A3
:102A8000C8010E941425F80101900020E9F732974F
:102A90002081253209F59C018536910510F024E648
:102AA00030E08F2D90E0880F892F881F990B892B9C
:102AB00031F484E690E0AC01421B530B9A01AFEF76
:102AC000B0E00E94D92524E630E040E050E00E94CA
:102AD000B7252093E201EECD9C018F3F9105C9F30C
:102AE000C0F32FEF30E0F5CF8095832377CE8F337F
:102AF00009F0B9CB8DE380930402002309F4A7C049
:102B0000FD84202E312C53E5F512C9C02C893D8956
:102B1000EA88FB882E153F0508F4BAC02E193F0934
:102B2000A8ECB0E00E94D9254B015C012E853F85C1
:102B300050E040E00E94B7252901890128893989A0
:102B400050E040E0C501B4010E94B7254901690188
:102B50000E94BC0E93E5909305029BE390930602BE
:102B600091E0291A310890E0022C02C095958795D2
:102B70000A94E2F780FF91C08EE480930702EBE3B2
:102B8000E093080244E069E072E0C7010E94F40C9F
:102B9000FBE3F0930D0244E06EE072E08C899D89C6
:102BA0000E94F40C2BE32093120244E0003137E240
:102BB000130708F045E063E172E0C2010E94F40CE3
:102BC00085E190E0003147E2140710F086E190E0E3
:102BD0008E5F9D4F2BE3FC01208344E0F0E1CF1694
:102BE000F7E2DF0608F045E068E172E0003127E235
:102BF000120710F069E172E0C4010E94F40CE6E1F2
:102C0000F0E00031174210F0E7E1F0E084E090E0FE
:102C100040E1C41647E2D40610F085E090E0E80FEA
:102C2000F91FEE5FFD4F8AE380838091E10190E020
:102C300002C0959587952A94E2F78170805D818323
:102C400012828091F70186FFB8CC1082B6CC009139
:102C5000E20110E08F8983FF17C086EF91E0801BAF
:102C6000910B880F991F880F991F44E065E072E06F
:102C70000E94F40C8AE38093090243E06AE072E068
:102C8000C8010E94F40C99CCC80189509F4FE9CF2C
:102C9000C701821B930B9C0143CF80E56ECF0830A8
:102CA00019F411E051E4F51210E00E94BC0EF0920C
:102CB00005029BE39093060291E0291A310890E007
:102CC000022C02C0959587950A94E2F780FD05C015
:102CD00089E4111103C080E501C08EE480930702EE
:102CE0000AE300930802111115C08091E10190E000
:102CF00002C0959587952A94E2F78170805D809354
:102D0000090210920A028091F70186FF56CC1092B8
:102D1000080253CC8091DE01E4E68E9FC0011124AD
:102D20006FEF70E00E94FC25CB0143E069E072E0A8
:102D30000E94F40C85E280930C0200930D028091B6
:102D4000E20143E06EE072E090E00E94F40C109229
:102D50001102D9CF809103028D3361F58091040275
:102D6000833409F080CA8091F70180688093F7016D
:102D70008091F1018F708093F1018BE09BE00E94C4
:102D8000ED0D68960FB6F894DEBF0FBECDBFDF9194
:102D9000CF911F910F91FF90EF90DF90CF90BF9058
:102DA000AF909F908F907F906F905F904F903F90EB
:102DB0002F9008958F3309F056CA8DE38093030254
:102DC000109204020E94560E8CE4E82EF12C10E0C2
:102DD000C7010E94522544E062E072E00E94F40CB8
:102DE0000E94560E89E09BE0173011F487E09BE0CB
:102DF0000E94ED0D1F5FF2E0EF0EF11C183041F75D
:102E0000C0CF8091F7018E7F8093F70149CA1F924E
:102E10000F920FB60F9211242F933F934F935F930E
:102E20006F937F938F939F93AF93BF93EF93FF9392
:102E30008BE292E00E94C306FF91EF91BF91AF91A8
:102E40009F918F917F916F915F914F913F912F91C2
:102E50000F900FBE0F901F9018951F920F920FB6F4
:102E60000F9211242F938F939F93EF93FF93E091F1
:102E70003B02F0913C028081E0914102F0914202DC
:102E800082FD1BC09081809144028F5F8F732091DF
:102E90004502821741F0E0914402F0E0E55DFD4F0C
:102EA000958F80934402FF91EF919F918F912F9185
:102EB0000F900FBE0F901F9018958081F4CF1F9236
:102EC0000F920FB60F9211242F933F938F939F93DE
:102ED000AF93BF938091BF019091C001A091C101B8
:102EE000B091C2013091BE0123E0230F2D3758F578
:102EF0000196A11DB11D2093BE018093BF01909347
:102F0000C001A093C101B093C2018091C30190910F
:102F1000C401A091C501B091C6010196A11DB11DCA
:102F20008093C3019093C401A093C501B093C601DF
:102F3000BF91AF919F918F913F912F910F900FBEB5
:102F40000F901F90189526E8230F0296A11DB11D22
:102F5000D2CF1F920F920FB60F9211242F933F934F
:102F60004F935F936F937F938F939F93AF93BF9391
:102F7000CF93EF93FF9389B190916D008923809354
:102F8000AF018091AE019091AF0189278093AD018F
:102F90008091AF018093AE01C0E08091AC01C81771
:102FA00060F4EC2FF0E0EE0FFF1FEA55FE4F0190AA
:102FB000F081E02D0995CF5FF0CFFF91EF91CF9198
:102FC000BF91AF919F918F917F916F915F914F9141
:102FD0003F912F910F900FBE0F901F9018951F9249
:102FE0000F920FB60F9211242F933F934F935F933D
:102FF0006F937F938F939F93AF93BF93CF93EF93F1
:10300000FF9386B190916C0089238093A5018091F4
:10301000A4019091A50189278093A3018091A50126
:103020008093A401C0E08091A201C81760F4EC2F46
:10303000F0E0EE0FFF1FE456FE4F0190F081E02D0F
:103040000995CF5FF0CFFF91EF91CF91BF91AF91F5
:103050009F918F917F916F915F914F913F912F91B0
:103060000F900FBE0F901F9018951F920F920FB6E2
:103070000F9211242F933F934F935F936F937F93FE
:103080008F939F93AF93BF93CF93EF93FF9383B1AE
:1030900090916B00892380939B0180919A0190917C
:1030A0009B0189278093990180919B0180939A01CC
:1030B000C0E080919801C81760F4EC2FF0E0EE0FAB
:1030C000FF1FEE56FE4F0190F081E02D0995CF5F76
:1030D000F0CFFF91EF91CF91BF91AF919F918F91E1
:1030E0007F916F915F914F913F912F910F900FBE04
:1030F0000F901F90189510922E0210922D0288EEBC
:1031000093E0A0E0B0E080932F0290933002A09370
:103110003102B093320285E091E090932C028093CB
:103120002B0285EC90E0909338028093370284EC78
:1031300090E090933A028093390280EC90E0909373
:103140003C0280933B0281EC90E090933E0280939E
:103150003D0282EC90E09093400280933F0286EC27
:1031600090E09093420280934102109244021092A8
:103170004502109246021092470287E191E0909337
:10318000C9028093C8021092CB021092CA02109218
:10319000CE021092D00210921303E1EFF2E080E22F
:1031A000DF011D928A95E9F7E3E5F3E047E451E09A
:1031B0002FEF518340832383168215828091180359
:1031C0009091190392878187F0931903E093180374
:1031D000809116038F5F809316033B96B3E0E63B26
:1031E000FB0739F710923D0310923C0388EE93E001
:1031F000A0E0B0E080933E0390933F03A093400390
:10320000B093410385E391E090933B0380933A03AD
:1032100060E08CE00E94D20780914A0380FD04C0E8
:1032200061E08CE00E94A4078CE080934D03E9E20A
:10323000FCE0849180934E03E5E1FCE0E491F0E052
:10324000EE0FFF1FE150F44F259134913093470367
:1032500020934603EEE1FCE0E491E0934F03E8178E
:1032600041F061E081E00E94D20761E081E00E94CC
:10327000A407EAE0FCE0E491F0E0EE0FFF1FEB5062
:10328000F44F85919491909349038093480364E0AF
:103290007CE08CE00E94B50B8AE393E090931503E9
:1032A000809314038BE291E0909329038093280389
:1032B00080912D038B7F80932D0381E291E0909389
:1032C0002703809326038091230328E233E0309381
:1032D0001C0320931B039FED90931A03109222036B
:1032E0009091240320912503207F296020932503BA
:1032F00080719C7792609093240380628F7E80938C
:10330000230310921E0310921F030895CF93DF939F
:10331000CDB7DEB769970FB6F894DEBF0FBECDBF4D
:10332000789484B5826084BD84B5816084BD85B5A0
:10333000826085BD85B5816085BD80916E008160AC
:1033400080936E0010928100809181008260809352
:103350008100809181008160809381008091800054
:103360008160809380008091B10084608093B1007F
:103370008091B00081608093B00080917A00846079
:1033800080937A0080917A00826080937A008091A5
:103390007A00816080937A0080917A0080688093BF
:1033A0007A001092C10080914A038660877C8E7FEC
:1033B00080934A03887121E030E011F430E020E08E
:1033C000285F3F4F81E090E002C0880F991F2A9547
:1033D000E2F790934C0380934B038CE2809350036D
:1033E00081E78093510384E78093520390914D03CA
:1033F000963160F52091680084E0983048F031E023
:103400009E3008F430E081E001C0880F3A95EAF779
:10341000822B80936800EDE6F0E0983050F0EBE608
:10342000F0E09E3030F0ECE6F0E0963110F0F0E0A5
:10343000E0E04081292F30E0983008F003C281E0BD
:1034400001C0880F9A95EAF7842B808380915203FC
:1034500090E00E94FD0BCE010A960E94C00E8A8564
:103460008F718F3111F58B8595E09A87807C846010
:1034700080648B87CE010A960E94880E6FEF82E0EF
:1034800090E00E94582510E004E4BE016F5F7F4F7A
:10349000812F0E94970E0983BE016F5F7F4F812F9E
:1034A0000E94650E1F5F183081F782E49BE09093C5
:1034B000E6018093E5018091E701807E886080933A
:1034C000E70188E293E09093E4018093E301809127
:1034D000E801837080618093E8011092E901809196
:1034E000EC01807B8093EC01CE010A960E94C00E15
:1034F000CE010A960E94D00E5AECE52E5BE0F52E26
:1035000002EC1BE0F801849161E00E94D2070F5F9A
:103510001F4FE016F106B1F761E08FE00E94D2077D
:1035200061E08EE00E94D20710E000E09BE0D92E1F
:10353000CC24CA9422E2B22E36E9A32E4AE0942E7D
:10354000BE016F5F7F4F802F0E94970E8981833568
:1035500099F5D09ED001D19EB00D1124F801EE5303
:10356000F44F84919D012D5A3C4F7901F9018383D9
:10357000C482B782A086AB5ABC4F9C9192609C9348
:1035800061E00E94A40761E0D70113968C910E942C
:10359000D2076E817F81C7010E94BB0AF801EE0F3E
:1035A000FF1FE353FE4F2E813F81929EC001939EE9
:1035B000900D1124918380830F5F1F4F08301105F8
:1035C00009F0BECF8FE08093AE038FEF8093AF03FF
:1035D00082E28093B20386E98093B3038091AD03C6
:1035E0008D7F8093AD0360E08FE00E94A40761E0CF
:1035F0008091AE030E94D2078B8583FF05C0809126
:10360000E20180958093DD016091DD0170E06950F9
:103610007F4F660F771F660F771F8BEA93E00E943C
:10362000BB0A88E08093F1018091F2018F70809352
:10363000F2011092F3011092F401412C512C32014D
:10364000439499249394AFE38A2E8091FA018111D7
:1036500008C00E9428087093F9016093F8019092C5
:10366000FA01CE010C960E94C00ED090F701D3FC57
:103670002BC0BE016F5F7F4F87E00E94970EF3E57E
:10368000EF2EF3E0FF2E10E000E089818134A1F0FD
:10369000F70183818F3F81F4F801EE53F44F849159
:1036A0006091E10170E0002E02C0759567950A9463
:1036B000E2F761700E94A4070F5F1F4FFBE0EF0E5F
:1036C000F11C0830110509F78AE393E00E94C90C48
:1036D00018161906ACF48AE393E00E94D70C909177
:1036E000C701883009F4BBC08D3009F0BFC0E92F95
:1036F000F0E0EE5FFD4F10821092C70197FFC2C04D
:103700008D858770823009F4E5C108F088C188236F
:1037100009F4B4C3813009F41CC30E942808209125
:10372000F8013091F901621B730B693E7340D8F0C8
:103730000E9428087093F9016093F8018091F701C5
:1037400084608093F70161E08EE00E94A40780917D
:10375000F70180FD08C01092E1018AEC9BE00E9415
:10376000ED0D0E9485108091F5019091F601DC012C
:10377000ED91FC910190F081E02D60E009958111BF
:1037800006C08091F70182FD02C00C94C3240E9400
:1037900028088091DF01681B6C3028F08091F701C8
:1037A0008F7D8093F7010E9428086093DF011091BC
:1037B000F70115FB882780F9892580FB15F91093FF
:1037C000F70114FF06C0812F8073803311F00C9431
:1037D000C3242DB63EB60E94030812FF17C0009105
:1037E000C9011091CA012091CB013091CC016B012C
:1037F0007C01C01AD10AE20AF30A9701860100325D
:103800001E442105310510F40C94C3242FEF20939E
:10381000C8016093C9017093CA018093CB01909352
:10382000CC01A0911803B0911903FD0110E030976D
:1038300009F499C683818F3F09F01F5F0184F285E7
:10384000E02DF5CF9E3040F42850310981E001C0D1
:10385000880F2A95EAF7F8CD2E503109F7CF992332
:1038600009F44ECF91509093C7014ACF983238F463
:10387000E92FF0E0EE5FFD4F80839F5FF4CF109261
:10388000C7013ECFD7FE60C080910202811138CFC0
:103890008091F5019091F601DC01ED91FC91019090
:1038A000F081E02D63E00995882309F429CF809108
:1038B000F5019091F6016C856F71DC01ED91FC9141
:1038C0000280F381E02D09958C01BC0190E080E03D
:1038D0004AE00E94080E83EF9BE00E94ED0D80916C
:1038E000F10182958F7090E0880F991FB801845B79
:1038F0009F4F0E946A251091F10112951F70173099
:10390000E8F480EF9BE00E94ED0D612F70E06E5FA8
:103910007F4F072E000C880B990B4AE00E94080E7F
:103920008DEE9BE00E94ED0D8091F101982F907F2C
:10393000905F8F70892B8093F101E2CE8091F70127
:103940008F778093F701F0CF6AEE7BE082E092E020
:103950000E943225892B59F067EE7BE082E092E0ED
:103960000E943225892B19F00E94F610C9CE64EE10
:103970007BE082E092E00E943225892B29F480913D
:10398000F70180648093F70161EE7BE082E092E0D2
:103990000E943B250E94F6106EED7BE082E092E0F3
:1039A0000E943B250E94F6106BED7BE082E092E0E6
:1039B0000E943B250E94F6108091F70186FD0CC005
:1039C0008D858770833041F468ED7BE082E092E082
:1039D0000E943B250E94F61064ED7BE082E092E0BD
:1039E0000E943B250E94F6101091F70116FB11274B
:1039F00010F9B3E5B093020280E3810F80930302D4
:103A000080920402109205020E94F6101F5F193086
:103A100081F78091F7018F7B8093F70171CE83301E
:103A200009F467C4843009F078CE8091F501909153
:103A3000F601DC01ED91FC910190F081E02D62E056
:103A40000995182F811114E08091E3019091E40110
:103A5000DC01ED91FC910190F081E02D66E009958B
:103A6000882309F473C18091E3019091E40160918E
:103A7000E80166956695DC01ED91FC910280F38189
:103A8000E02D09957C019091EC01892F8F70823097
:103A900009F47EC308F0A7C2882309F423C3813048
:103AA00009F054C1C7018F579440873C910508F035
:103AB00059C30E9428082091EA013091EB01621B52
:103AC000730B8091EC01807B83646834714008F053
:103AD00032C33CC180911B0390911C03009709F4F1
:103AE0001CCE60911A03629566956770DC01ED91BA
:103AF000FC910190F081E02D0995882309F40DCE09
:103B000080911B0390911C0360911A036F71DC017B
:103B1000ED91FC910280F381E02D0995AC01909329
:103B200021038093200380912303806180932303EA
:103B30002AE53BE080E0F90165917491461757074B
:103B400008F494C0F9013296659174916417750771
:103B500008F48CC030912403432F441F4427441F92
:103B600090912503292F2F70220F242B281385C015
:103B700090912503292F22952F702F5F2770322FC8
:103B80003295307F9F78932B9093250330912303B8
:103B9000432F437050E04F5F5F4F2417150609F025
:103BA000BCCD90912403803109F073C032953695D5
:103BB0003770892F8370880F880F880F832B880FA9
:103BC000880F9378982B9093240390912403292FA6
:103BD000269526952F71322F3295330F307E8091A6
:103BE00023038F71832B322F3695369536959C7F24
:103BF000932B909324039C77943409F052C0877FD1
:103C00008093230310911F038091230382FF82C0BE
:103C1000133008F07DC0E12FF0E0E251FE4F8091BB
:103C20001E038083106810921F03809123038B7FF3
:103C300080932303112309F470CD17FD79C0412F20
:103C400050E0FA01E351FE4F608180E090E0415086
:103C50005109292F30E0241735070CF064C0225198
:103C60003E4FF901208182279F5FF3CF8F5F2C5F4A
:103C70003F4F823109F05FCF50CD80FB37F9309351
:103C80002403282F26952F709078922B909325034C
:103C90006FCF8F71880F880F9378892B80932403BF
:103CA00094CF83FD29C0B0E12B9F90011124209374
:103CB0001E0384608093230390E08091230383FBA1
:103CC000222720F9292520FB83F9809323039130B3
:103CD00009F498CF923009F020CDE0911F03E33032
:103CE000F8F481E08E0F80931F03F0E0E251FE4F65
:103CF00080911E03808311CD90911E03292B209368
:103D00001E038B7F809323039092220392E0D5CFF2
:103D100010E089CF112309F400CD10921F038DCF3D
:103D200010921F03FACC95E58927110F681731F01F
:103D30008091F70188608093F70110E08091F7018E
:103D400083FF04C061E08EE00E94A4071111F6C059
:103D5000E4CC0C850F711091F701169511708091CC
:103D6000F5019091F601DC01ED91FC910190F0815B
:103D7000E02D61E00995882309F4CFCC8091F5010D
:103D80009091F601DC01ED91FC910280F381E02D30
:103D9000602F0995AC0122EA3BE090E0F9016591C2
:103DA00074916417750738F4F9013296659174912E
:103DB0004617570740F02C5F3F4F9F5F933071F7D6
:103DC00010920001AACCE12FF0E080910001913027
:103DD00021F19230C1F110E08830E1F42091EE0140
:103DE00030E0C901959587958575220F331F2A7A92
:103DF000822B90E09C013595279535952795237367
:103E0000880F991F880F991F8C7C822B8295809335
:103E1000EE0114E01092000199CF883008F07DCCBB
:103E200091E0980F90930001E251FE4F73016201FF
:103E300004C0CC0CDD1CEE1CFF1C8A95D2F7C60119
:103E40002081822B57CF883008F067CC91E0980F03
:103E500090930001E251FE4FA301920104C0220F92
:103E6000331F441F551F8A95D2F7DA01C901809587
:103E70009095A095B095208182233CCF8091F5014B
:103E80009091F601DC01ED91FC910190F081E02D23
:103E900062E00995882309F440CCEC85EF71E1F0EC
:103EA0008091D0028E17C0F0E1508091CC028F70CB
:103EB000843068F4813098F0F0E0EE0FFF1FEF528D
:103EC000FD4F808191819827892798270FC08430E2
:103ED00031F0853009F47CC08DE297E012C0F0E04B
:103EE000EE0FFF1FE853FD4F81A592A58E32B7E07C
:103EF0009B0710F08DE297E08D3C910510F48DEC5E
:103F000090E04AE0489F9001499F300D1124C9017B
:103F1000A6E096958795AA95E1F780972091ED0107
:103F200028135EC08091F701869581708A8B1B8A69
:103F3000EA89FB89E251FE4F208314E060E08EE0C5
:103F40000E94A4078091F701869581708E8B1F8A4D
:103F5000EE89FF89E251FE4F00818091EE0180934E
:103F6000E2010E94BC0E9D8597707DEFE72EE90E61
:103F70006091E00170E0F090E10130E020E0E02F9E
:103F8000F0E0282E312CD22EAF01022E02C0559522
:103F900047950A94E2F741705527D101022E02C0DD
:103FA000B595A7950A94E2F7A0FD04C081E08E15AF
:103FB00008F4B4C2D301C20104C0880F991FAA1F1C
:103FC000BB1FDA94D2F7452B09F487C2F82A88C2BE
:103FD000F0E0EE0FFF1FEF52FD4F8081918186CF01
:103FE0008093ED019ACB833009F41CC1843009F031
:103FF000ADCE97012A5A35402536310508F048C123
:104000000E9428082091EA013091EB01621B730B9A
:104010006234710508F49ACE8091EC01806280933D
:10402000EC010E9428082091EA013091EB01621B0B
:10403000730B6730714008F489CE8091EC0186FFE4
:1040400011C18F7B8093EC018091E9014091EC01DB
:10405000942F907F9093EC01882309F477CE6091A0
:10406000E5017091E6016115710539F1A091E70153
:10407000AF7140719B0150E0B82FBF77A51709F4CD
:1040800065CEC901861B970BF90132960491013464
:1040900011F4411106C0E491E43409F026C1411144
:1040A00024C1F9013196E491EB131FC1860F971FCC
:1040B000FC018491882309F449CE9091F7019695EB
:1040C0009170988B198AE889F989E251FE4F8150E5
:1040D00021E030E001C0220F8A95EAF78081822733
:1040E000808334CEC7018E5794408D3B924030F18F
:1040F0000E9428087093EB016093EA018091E70128
:104100008F718093E7018091E8018C7F8093E801B3
:104110008091EC018F7B8F7D8093EC0191E0EBE34C
:10412000EE16E7E0FE0608F490E08091EC0190FBCB
:1041300084F9807F82608093EC0108CEFFE7EF1A5C
:10414000F4E0FF0A27ECE216F10408F0FFCD0E942C
:1041500028087093EB016093EA018091EC01807F65
:104160008160E9CF0E9428082091EA013091EB019B
:10417000621B730B603D774020F08091EC01807FE3
:10418000DACF5EE7E51654E0F50608F0DFCDF5CFAF
:1041900094FF12C08BE3E81687E0F80690F40E94C3
:1041A00028082091EA013091EB01621B730B603DFE
:1041B000774008F4CBCDE1CF9EE7E91694E0F9060D
:1041C00070F70E9428082091EA013091EB01621BF0
:1041D000730B6234710508F4B9CD2091E701322FD9
:1041E0003295369537709091E801892F8370880F4A
:1041F000880F880F832B8F5F382F3F718295880F30
:10420000807E2F71822B8093E701832F8695869580
:1042100086959C7F982B9093E8018091EC01807F9C
:10422000836089CFBAEAEB1AB5E0FB0AE5E6EE1641
:10423000F10458F40E9428087093EB016093EA019E
:104240008091EC01807F846076CF0E9428082091C5
:10425000EA013091EB01621B730B603D774008F47B
:1042600075CD8BCF38E0839FC00111248078B09149
:10427000E7016B2F629566956770B091E801B370A6
:10428000BB0FBB0FBB0FB62B8B2B8093E901DECE90
:1042900095FF07C094FF12C04BE3E41647E0F40615
:1042A00090F40E9428082091EA013091EB01621BF2
:1042B000730B603D774008F449CD5FCF5EE7E516AC
:1042C00054E0F50670F78091EC018F7D8093EC014E
:1042D0000E9428087093EB016093EA018091EC0141
:1042E000807F82608093EC01DCCF5F5F2D5F3F4F6A
:1042F000C5CE8091F70187FD10CA8091F50190919C
:10430000F601DC01ED91FC910190F081E02D63E07C
:104310000995882309F401CA0E94BC0EC82E809119
:10432000F301982F969596959695943140F49F5F5A
:10433000990F990F990F8770892B8093F3018091C2
:10434000F5019091F6016C856F71DC01ED91FC91A6
:104350000280F381E02D09957C010CE410E0D12C62
:10436000C8010E9452259C012E513109E216F30624
:1043700020F04E968E159F0540F4D3940E5F1F4F8C
:10438000B8E0DB12EDCFFFE0DF2E9091F4018091D9
:10439000F201282F22952F70213019F1A0F0223040
:1043A00009F462C0233009F46AC08091F701869550
:1043B00081708C8B1D8AEC89FD89E251FE4F8091C2
:1043C000F4018083BACDEFE0DE1679F38091F3013A
:1043D000887F8093F3018D2D8F7080618093F2012F
:1043E000E4CF8F708D1175C08091F30121E0280F0B
:1043F0002770887F822B8093F3012330B0F22091C5
:10440000F1012F703D2D3295307F232B2093F10148
:104410002C2D30E00D2C02C0359527950A94E2F73B
:1044200020FF11C0B301A20104C0440F551F661F35
:10443000771FDA94D2F7492B4093F4018091F2016F
:104440008F708062CBCF282F287F203AB9F721E0E8
:1044500030E001C0220FDA94EAF792279093F4013A
:1044600087708093F301EACFFFE0DF129ECF909137
:10447000F301987F9093F3018F708063AFCFEFE0EB
:10448000EE2EDE10DBCF8091F30121E0280F2770A4
:10449000887F822B8093F301233008F486CF8091AC
:1044A000F10182958F70D12C082E02C0D594C7944B
:1044B0000A94E2F7C0FE0DC0B301A20104C0440F8C
:1044C000551F661F771F8A95D2F740954923409361
:1044D000F4018091F2018F7081CFA82EA094FA2070
:1044E0002F5F3F4F2830310509F04DCDF092E101AB
:1044F0000093E0010E9428087093F9016093F8018D
:104500008091F7018B7F163061F582608093F7010F
:104510008091F701877F8093F701FFC8452B01F356
:10452000AB01022E02C0559547950A94E2F740FD73
:10453000D7CFD301C201022E04C0880F991FAA1F32
:10454000BB1F0A94D2F74F2D50E0022E02C05595A2
:1045500047950A94E2F740FF39CD482F4095F42261
:10456000BFCF8D7FD3CF112309F4DFC0C12ED12C53
:10457000DF86CE86C601880F991FEDB6FEB6E81A13
:10458000F90A0FB6F894FEBE0FBEEDBE2DB73EB7CA
:104590002F5F3F4F690120E01097A1F013968C9197
:1045A00013978F3F51F0822F90E0880F991F8C0D49
:1045B0009D1DFC01B183A0832F5F19960D90BC91C6
:1045C000A02DEACFF601A081B18112968C911297AD
:1045D0008E7F12968C935601D60100E0FF24F3944F
:1045E0001F15F1F012968D919C911397FC01228179
:1045F0002E7F22832D913D9165817681F901458140
:1046000056816417750750F411963C932E939D01C3
:1046100022503109F9019183808301E0F394E0CFC6
:104620000111D9CFD60161E01617D9F012962D915C
:104630003C911397F90185819681FD01408151815B
:104640001296FA01458156818417950721F0841B43
:10465000950B069720F4F9018281816082836F5F58
:10466000E3CFF8947601D701ED91FD917D01628150
:1046700066956170692583810E94A4070F5F1013FE
:10468000F2CF789406B5EE24E394F12CD12CC12C12
:10469000E02FF0E0F98FE88FD501ED91FC91858155
:1046A0009681E88DF98D8E0F9F1FBC0164507109B2
:1046B000402F06B5041708F4D3949601200F311D3E
:1046C000D501ED91FC911197428140FD09C062171F
:1046D000730730F4F894ED91FC914281416042837C
:1046E000402F8217930728F7D501ED91FC91628145
:1046F0006695617083810E94A407EE85FF85EE16A2
:10470000FF063CF4D5011296ED91FC91828180FD6B
:1047100001C07894B2E0AB0EB11CEFEFEE1AFE0AC6
:104720008FEF8E0D811708F4B7CF0FB6F8943EBE09
:104730000FBE2DBE8091F70181FF7EC0BE016F5F6D
:104740007F4F87E00E94970E8981813409F04BC02A
:10475000F090E2010E94BC0E87FFF0948091DE0190
:104760008F1509F440C00F2D10E0E9ECFBE0E49058
:1047700061E08E2D0E94D2070115110529F460E039
:104780008E2D0E94A4072DC00F3F110511F461E08A
:10479000F7CFEE2DF0E0E255F44FE491E33009F469
:1047A0009BC048F4E130C9F0E23009F490C0003811
:1047B00011056CF7E4CFE73009F498C0E83009F44C
:1047C0009DC0E430A1F780918000806280938000DA
:1047D00010938B0000938A0004C084B5806884BD68
:1047E000F7BCF092DE01CE010A960E94C00E9091B5
:1047F000E2018B8583FD90958091DD018917E1F0C1
:10480000282F30E0492F50E0891708F083C0421B61
:10481000530B433051050CF079C09093DD0160914A
:10482000DD0170E069507F4F660F771F660F771FBD
:104830008BEA93E00E94BB0A93E5C92E93E0D92E40
:104840000DEC11E0F12CE12C2AE0B22EAE2CD601B9
:1048500013968C918F3F09F489C0BE016F5F7F4F23
:104860008E2D0E94970E4E815F8128853985F90132
:10487000BA014217530710F0FA01B9018091E10122
:1048800090E002C095958795AA94E2F7B82FB17091
:10489000AB2E80FF47C04217530708F447C0F8010A
:1048A000808191812A813B81A11002C02C813D81B0
:1048B000821B930BB69E9001B79E300D1124821778
:1048C000930708F476C0D8018D939C9345C084B5B6
:1048D000806284BDF8BC85CF809180008068809321
:1048E000800010938900009388007BCF8091B000F6
:1048F00080688093B000F092B30073CF8091B000D5
:1049000080628093B000F092B4006BCF8D5F809393
:10491000DD0185CF241B350B233031050CF47DCF11
:104920008350F5CF2417350708F0B9CFD8018D9102
:104930009C912A813B81A11002C02C813D81820F74
:10494000931FBE9E9001BF9E300D1124281739077A
:1049500060F1F80191838083D8018D919C916AE088
:1049600070E00E94E825C6010E94BB0ABFEFEB1A67
:10497000FB0AEBE0CE0ED11C0E5F1F4FF8E0EF16E6
:10498000F10409F063CF80E0C82E80E0D82ECD2856
:1049900011F40C94251B0E94AF06882311F40C948B
:1049A000211B0E9400000C94211BD8012D933C93E5
:1049B000D3CFF80131832083CFCF85E391E090936B
:1049C0003B0380933A0364E07CE080914D030E94B6
:1049D0003B0B20914D032631C0F4EDE6F0E028308A
:1049E00030F0EBE6F0E02E3010F0ECE6F0E0308155
:1049F000422F50E0283050F481E090E001C0880F51
:104A00002A95EAF780958323808308952E3048F411
:104A10004850510981E090E001C0880F4A95EAF7BB
:104A2000F1CF4E505109F6CFFC0188279927E89421
:104A300021912032E9F3293010F02E30C8F32B32C7
:104A400041F02D3239F4689404C00E944225820F4F
:104A5000911D219120532A30C0F31EF49095819529
:104A60009F4F0895FB01DC018D9105908019011085
:104A7000D9F3990B0895FB01DC0105900D920020FC
:104A8000E1F708957AE0979F902D879F802D910DF3
:104A900011240895F999FECF92BD81BDF89A992706
:104AA00080B50895A8E1B0E042E050E00C94712593
:104AB000262FF999FECF92BD81BDF89A019700B4D7
:104AC000021639F01FBA20BD0FB6F894FA9AF99A77
:104AD0000FBE08950E947F25272F0C948025DC01AE
:104AE000CB01FC01F999FECF06C0F2BDE1BDF89AF9
:104AF000319600B40D9241505040B8F70895262FDA
:104B0000F999FECF1FBA92BD81BD20BD0FB6F894B2
:104B1000FA9AF99A0FBE01960895052E97FB1EF496
:104B200000940E94A42557FD07D00E94B72507FCDA
:104B300003D04EF40C94A4255095409530952195C2
:104B40003F4F4F4F5F4F08959095809570956195B9
:104B50007F4F8F4F9F4F08950E94D925A59F900D9D
:104B6000B49F900DA49F800D911D11240895A1E282
:104B70001A2EAA1BBB1BFD010DC0AA1FBB1FEE1FD7
:104B8000FF1FA217B307E407F50720F0A21BB30B22
:104B9000E40BF50B661F771F881F991F1A9469F79E
:104BA00060957095809590959B01AC01BD01CF01FA
:104BB0000895A29FB001B39FC001A39F700D811DF6
:104BC0001124911DB29F700D811D1124911D089516
:104BD000AA1BBB1B51E107C0AA1FBB1FA617B70723
:104BE00010F0A61BB70B881F991F5A95A9F780953F
:104BF0009095BC01CD01089597FB072E16F4009403
:104C000007D077FD09D00E94E82507FC05D03EF4C7
:104C1000909581959F4F0895709561957F4F089568
:104C2000EE0FFF1F0590F491E02D0994FC01819196
:104C3000861721F08823D9F7992708953197CF0156
:104C4000089516E0CAE1D6E004C0FE010E941026D5
:0C4C50002196CB31D107C9F7F894FFCFB3
:104C5C000800000000E506450672063207A306812F
:104C6C0006950600000000630835083408000000B3
:104C7C00001C090709340800000000740A6B0A3490
:104C8C0008000000006D0D4506F10CC10CC90CD7D5
:0E4C9C000CAE0C00000000A00A9D0A030B00E5
:00000001FF
