:100000000C94A4060C94CC060C94CC060C949B1770
:100010000C9455170C940F170C94CC060C94CC062A
:100020000C94CC060C94CC060C94CC060C94CC0608
:100030000C94CC060C94CC060C94CC060C94CC06F8
:100040000C94C5160C94CC060C9493160C946D1657
:100050000C94CC060C94CC060C94CC060C94CC06D8
:100060000C94CC060C94CC060D000A006A006800C3
:100070002020202020202020202020202020202080
:10008000202020546F207377697463682062616355
:100090006B20746F205465726D696E616C204D6FBA
:1000A00064652C2073696D706C79206869742045D3
:1000B0006E746572005120202020202020202020F6
:1000C00020202020202D3E20517569742074686501
:1000D000205465726D696E616C204D6F646520619E
:1000E0006E642073776974636820746F20524320B4
:1000F0004D6F64652E00443F2020202020202020CA
:100100002020202020202D3E2052657475726E2004
:10011000746865204465627567204C6576656C007F
:10012000443D44656275674C6576656C20202020EF
:100130002D3E2053657420746865204465627567A0
:10014000204C6576656C0020202020202020202077
:100150002020202020202020202038204275747468
:100160006F6E733A20423D787878782C787878787A
:100170002C787878782C787878782C787878782C2F
:10018000787878782C787878782C78787878004235
:100190003F20202020202020202020202020202D33
:1001A0003E2052657475726E207468652070756C9F
:1001B00073652077696474682028696E20757329D7
:1001C000206173736F63696174656420746F206567
:1001D000616368206F662074686500423D4320209B
:1001E00020202020202020202020202D3E2053745D
:1001F0006172742074686520427574746F6E204358
:10020000616C6962726174696F6E2070726F636590
:100210007373002020202020202020202020202058
:1002200020202020202069732053383D413B4E2F51
:10023000493A50776D50657243656E74253A507235
:100240006F7056616C7565202865673A2053383D9C
:10025000413B493A313030253A303030290053386B
:100260003F202020202020202020202020202D3E44
:10027000205768656E20533820636F6E6669677516
:1002800072656420617320416E616C6F672C20740D
:10029000686520616E7377657220746F207468657D
:1002A0002053383F20636F6D6D616E640020202005
:1002B000202020202020202020202020202020203E
:1002C00028302D32353529206F722053383D78780B
:1002D0007825207365747320746865207065726377
:1002E000656E74616765206F662070776D202830B9
:1002F000252D31303025290053383D7878785B251D
:100300005D202020202020202D3E205768656E2073
:10031000533820636F6E6669677572656420617318
:1003200020416E616C6F672C2053383D78787820BF
:10033000736574732074686520436D642050726F18
:10034000702056616C756500202020202020202020
:100350002020202020202020202020617320707762
:100360006D20416E616C6F67206F757470757420BD
:1003700077697468204E6F726D616C284E29206F0A
:100380007220496E76657274656420284929207050
:100390006F6C61726974790053383D413B4E2F494F
:1003A00020202020202020202D3E204164646974DC
:1003B000696F6E616C7920746F204469676974613C
:1003C0006C20616E6420536572766F20547970657D
:1003D0002C2053382063616E20626520636F6E6647
:1003E000696775726564002020202020202020206D
:1003F0002020202020202020202053303D585858F5
:100400003A43434320666F722050726F70205365E9
:1004100072766F20284320697320746865206375A5
:100420007272656E7420436F6D6D616E64207374BB
:100430006174757329002020202020202020202096
:1004400020202020202020202053783D533B4D3B6E
:10045000506F73413B506F73423B4132424475725F
:100460003B4232414475723A43206966206F75748D
:100470007075742078206973206120536572766FDF
:100480002C206F720053783F202020202020202035
:1004900020202020202D3E2052657475726E20533E
:1004A000783D443B4D3A43206966206F7574707502
:1004B000742078206973204469676974616C2C200A
:1004C0006F720053783D302F3120202020202020D3
:1004D0002020202D3E2053696D756C61746520616C
:1004E00020436D643D302F3120636F6D6D616E640C
:1004F00020666F7220537820284E69636520666FEE
:1005000072207465737420776974686F75742052F3
:1005100043290020202020202020202020202020CF
:100520002020202020206265747765656E20506F42
:1005300073204120262042206172652041324244CE
:10054000757220262042324144757220283634309C
:100550003030206D73204D6178290020202020202C
:100560002020202020202020202020202020507506
:100570006C736564292E20506F734120757320774A
:1005800068656E20436D643D302C20506F734220AF
:100590007573207768656E20436D643D312C20446F
:1005A00075726174696F6E0053783D533B4D3B50DB
:1005B0006F73413B506F73423B4132424475725BF3
:1005C0003B4232414475725D202D3E2053782069B4
:1005D00073206120536572766F206F757470757427
:1005E00020696E206D6F6465204D20284D3D4E6F53
:1005F000726D616C206F720020202020202020204E
:1006000020202020202020202020207468652070B9
:10061000726F7020536572766F2900202020202091
:10062000202020202020202020202020202028786A
:1006300020697320746865206964206F662074687F
:1006400065206F757075742066726F6D203120742F
:100650006F20382C2078203D20302069732072656F
:1006600073657276656420666F720053783D443B13
:100670004D202020202020202020202D3E20537897
:100680002069732061204469676974616C206F750B
:100690007470757420696E206D6F6465204D20281C
:1006A0004D3D4E6F726D616C206F722050756C7392
:1006B0006564290053523D4E2F59202020202020D0
:1006C000202020202D3E204170706C7920726576AC
:1006D0006572736520285929206F72206E6F207211
:1006E00065766572736520284E2920666F722050EA
:1006F000726F7020536572766F2028533029002066
:1007000020202020202020202020202020202020E9
:10071000202049662030203C3D20585858203C3D40
:100720003235352C207365742050726F70205661FD
:100730006C756520436F6D6D616E640053303D587C
:100740005858582020202020202020202D3E2049AD
:100750006620393838203C3D2058585858203C3DB8
:1007600020323030382C207365742050726F702026
:10077000536572766F20746F2074686520585858DE
:100780005820706F736974696F6E20696E2075737D
:1007900000503F202020202020202020202020202A
:1007A000202D3E2052657475726E2074686520633A
:1007B0006F6E66696775726564204D756C74692D1E
:1007C0005377697463682050726F746F636F6C0045
:1007D0002020202020202020202020202020202019
:1007E00020202028666F72204F545820616E6420AC
:1007F000455458292C205020666F7220507573681C
:100800002D427574746F6E2C20616E6420452066D5
:100810006F7220454B4D464129002020202020208A
:10082000202020202020202020202020204E6F6EFD
:100830002066696C74657265642C204620666F7250
:100840002066696C74657265642C204620666F7240
:10085000204D5338204675746162612C2042206619
:100860006F722042696E61727900503D4D73507213
:100870006F746F5B3B4E2F465D202D3E2053657499
:1008800020746865204D756C74692D5377697463A5
:10089000682050726F746F636F6C20284D735072B4
:1008A0006F746F3A205220666F72205243554C206D
:1008B00077697468204E20666F7200493F202020BF
:1008C00020202020202020202020202D3E20526586
:1008D0007475726E2074686520636F6E66696775E3
:1008E00072656420496E74657266616365002020DC
:1008F00020202020202020202020202020202020F8
:10090000204368206973206368616E6E656C2028DF
:100910006E6F74206E656564656420666F7220502A
:10092000574D292900493D496E74657266616365BA
:100930005B43685D202D3E205365742074686520FC
:10094000524320496E7465726661636520285020A9
:10095000666F722050574D2C204320666F722043E3
:1009600050504D2C205320666F7220534255532C0B
:1009700000543F2020202020202020202020202044
:10098000202D3E2052657475726E20746865206358
:100990006F6E66696775726564204C696E65205478
:1009A00065726D696E61746F7200543D43524C46BE
:1009B0002F4352202020202020202D3E20536574DC
:1009C00020746865204C696E65205465726D696E8F
:1009D00061746F7220746F2043524C46206F7220F6
:1009E000746F20435200202020202020202020202F
:1009F00020202020202020202028616C6C2074687A
:100A00006520636F6D6D616E6473206C69737465CE
:100A1000642062656C6F772900433F2020202020EE
:100A20002020202020202020202D3E20446973708B
:100A30006C6179207468652066756C6C20436F6EFC
:100A400066696775726174696F6E20776974682072
:100A500073746174757300202020202020202020D2
:100A60002020202020202020202057656C636F6DDF
:100A700065204D65737361676520224D533820569C
:100A8000782E792220696E20746865205465726D15
:100A9000696E616C00202020202020202020202052
:100AA00020202020202020204164646974696F6E1A
:100AB000616C6C792C207468697320636F6D6D6153
:100AC0006E6420747269676765727320746865204C
:100AD000646973706C6179206F66207468650020AA
:100AE0002020202020202020202020202020202006
:100AF00020206661696C7361666520697320646992
:100B00007361626C656420286E6963652C20666F72
:100B10007220636F6E66696720616E64207465730E
:100B20007429003C2D2D272020202020202020204B
:100B30002020202D3E20496620456E746572206974
:100B4000732073656E742C204D53382056782E799F
:100B500020737461797320696E205465726D696EBB
:100B6000616C204D6F646520616E6400483F2020F9
:100B70002020202020202020202020202D3E205218
:100B8000657475726E7320746869732068656C7023
:100B900000455252003B005042313A20004246523A
:100BA000504550435343524C460043520043520079
:100BB00043524C46004D53382056332E5243330097
:100BC0000000080B0103050B0206020A0401070BD3
:100BD0000504040B060701090802060B0905030BAF
:100BE0000B00080B0C03050B0D06020A0F01070B87
:100BF0001004040B110701091302060B1405030B63
:100C000000000000240027002A000000000025004A
:100C100028002B0000000000230026002900040407
:100C20000404040404040202020202020303030394
:100C30000303010204081020408001020408102070
:100C40000102040810200101410202410303410492
:100C50000441050144060244070344080444E40334
:100C60001C041C04540454048C048C04C404C404E4
:100C7000FC04FC04340534056C056C05A405A405CE
:100C8000DC05DC05140614064C064C0684068406B6
:100C9000BC06BC06F406F4062C072C0764076407A0
:100CA0009C079C07D4072003E803E803DC05DC0568
:100CB0009808202000200020202020202020202014
:100CC0002020202020202020002020002000202084
:100CD0002020202020202020202020202020200034
:100CE0002000202000533A203120322033203420AD
:100CF0003520362037203820500000000008000240
:100D000001000003040700000000000000000304CD
:100D100005060708090A207573004661696C73614E
:100D20006665210053523F00423F00503F00493F5B
:100D300000543F00413F00413F00433F003A200044
:100D40005042000D0000E11711241FBECFEFD8E084
:100D5000DEBFCDBF11E0A0E0B1E0EEEBFAE402C0EF
:100D600005900D92AC33B107D9F723E0ACE3B1E0C5
:100D700001C01D92A331B207E1F716E0C4EAD6E044
:100D800004C02197FE010E944C25C33AD107C9F740
:100D90000E947B180C945D250C9400002091CF01DB
:100DA0003091D0018217930701F12091D101309148
:100DB000D20182179307C9F02091D3013091D40159
:100DC0008217930791F02091D501233080F4E091B0
:100DD000D501F0E0EE0FFF1FE153FE4F91838083BA
:100DE0008091D5018F5F8093D50180E008958FEFCA
:100DF00008959C0190E0492F092E000C550B80911D
:100E0000D50184171506C1F1BCF1FA01EE0FFF1FE1
:100E1000E153FE4F608171816217730711F09F5F8C
:100E2000EACF97FD29C0118210822091D50121506F
:100E3000330B42175307C9F0292F30E04091D501F9
:100E40004150550B2417350784F4F901EE0FFF1FAD
:100E5000EF52FE4F40815181220F331FF901E153C0
:100E6000FE4F518340839F5FE7CF8091D501815032
:100E70008093D50181E0089580E00895AF92BF92FC
:100E8000CF92DF92EF92FF920F931F93CF93DF9356
:100E90006C017B018B01040F151FEB015E01AE1885
:100EA000BF08C017D10759F06991D601ED91FC91A7
:100EB0000190F081E02DC6010995892B79F7C501D4
:100EC000DF91CF911F910F91FF90EF90DF90CF9026
:100ED000BF90AF900895FC01538D448D252F30E0D5
:100EE000842F90E0821B930B541710F0CF96089537
:100EF00001970895FC01918D828D981761F0A28D64
:100F0000AE0FBF2FB11D5D968C91928D9F5F9F7329
:100F1000928F90E008958FEF9FEF0895FC01918DDF
:100F2000828D981731F0828DE80FF11D858D90E04C
:100F300008958FEF9FEF0895FC01918D228D892FE9
:100F400090E0805C9F4F821B91098F7399270895D1
:100F50008DEE91E00E949C0721E0892B09F420E0AE
:100F6000822F089580E090E0892B29F00E94A80745
:100F700081110C9400000895FC01A48DA80FB92FD5
:100F8000B11DA35ABF4F2C91848D90E001968F73B1
:100F90009927848FA689B7892C93A089B1898C91D0
:100FA000837080648C93938D848D981306C002881F
:100FB000F389E02D80818F7D80830895EF92FF92E9
:100FC0000F931F93CF93DF93EC0181E0888F9B8D6C
:100FD0008C8D98131AC0E889F989808185FF15C026
:100FE0009FB7F894EE89FF896083E889F989808149
:100FF0008370806480839FBF81E090E0DF91CF9118
:101000001F910F91FF90EF900895F62E0B8D10E039
:101010000F5F1F4F0F731127E02E8C8D8E110CC0A8
:101020000FB607FCFACFE889F989808185FFF5CFF3
:10103000CE010E94BC07F1CFEB8DEC0FFD2FF11D0F
:10104000E35AFF4FF0829FB7F8940B8FEA89FB8930
:1010500080818062CFCF0F931F93CF93DF938C015A
:10106000D0E0C0E0F801EC0FFD1F6491662341F071
:101070008DEE91E00E94DE07892B11F02196F2CFD0
:10108000CE01DF91CF911F910F910895CF93DF9300
:10109000EC01888D8823B9F0AA89BB89E889F98990
:1010A0008C9185FD03C0808186FD0DC00FB607FCC5
:1010B000F7CF8C9185FFF2CF808185FFEDCFCE01F8
:1010C0000E94BC07E9CFDF91CF910895833081F072
:1010D00028F4813099F08230A9F008958730A9F082
:1010E0008830C9F08430B1F4809180008F7D03C0D6
:1010F000809180008F7780938000089584B58F77EA
:1011000084BD089584B58F7DFBCF8091B0008F772B
:101110008093B00008958091B0008F7DF9CFCF9378
:10112000DF93282F30E0F901E650F34F8491F90165
:10113000EE5CF34FD491F901E25EF34FC491CC23FE
:10114000A1F081110E946608EC2FF0E0EE0FFF1F66
:10115000EC5EF34FA591B491EC91ED2381E090E02A
:1011600009F480E0DF91CF91089580E090E0FACF1C
:101170001F93CF93DF93282F30E0F901E650F34F10
:101180008491F901EE5CF34FD491F901E25EF34FE3
:10119000C491CC23A9F0162F81110E946608EC2F70
:1011A000F0E0EE0FFF1FE65FF34FA591B4918FB70C
:1011B000F894EC91111108C0D095DE23DC938FBF19
:1011C000DF91CF911F910895DE2BF8CFCF93DF935E
:1011D00090E0FC01EE5CF34F2491825E934FFC01A2
:1011E00084918823C9F090E0880F991FFC01E0509A
:1011F000F44FA591B491FC01E65FF34FC591D491F2
:1012000061110DC09FB7F8948C91209582238C9327
:101210008881282328839FBFDF91CF910895623072
:1012200051F49FB7F8943C91822F809583238C933F
:10123000E8812E2BEFCF8FB7F894EC912E2B2C93C7
:101240008FBFEACF3FB7F894809164019091650118
:10125000A0916601B091670126B5A89B05C02F3FFC
:1012600019F00196A11DB11D3FBFBA2FA92F982FCC
:101270008827BC01CD01620F711D811D911D42E0C7
:10128000660F771F881F991F4A95D1F708952FB7CA
:10129000F894609160017091610180916201909178
:1012A00063012FBF0895089520914D0130E0062E6F
:1012B00002C0359527950A94E2F7C90181709927F4
:1012C00020FF0CC040914D0121E030E001C0220F11
:1012D0006A95EAF72095242320934D0108958BB356
:1012E00090914C01892B8BBBE8E6F0E080819091D6
:1012F0004C01892B80830895CF93DF938091540113
:10130000811109C00E942209709353016093520118
:1013100081E080935401E0915001F091510190815E
:1013200080914E01817020914F01922321E009F0BC
:1013300020E0281709F453C09091680080914C0177
:101340008095892380936800E0915001F0915101CC
:1013500030914F0190E080E0DFEFC0E048E25AE0DA
:1013600061E070E0242F2A95F1F72081232309F40E
:101370003FC0DB01082E01C0AA0F0A94EAF7CA2B6E
:1013800001968930910571F70E942209209152013E
:1013900030915301621B730B683B7B4018F08FEF59
:1013A000809300010E9422097093530160935201BF
:1013B0008FEFDD2359F180914E0180FDC095809122
:1013C00000018F3FD1F4CF3051F4809100018F5F45
:1013D0008093000180914E018F7380934E018BB3F7
:1013E00090914C01892B8BBBDF91CF910C946F09AD
:1013F000D095252F2A95F1F7C3CF80910001873131
:1014000041F48FEFC11102C080934D018093000120
:10141000E6CF2091000180914E0186958F71022EBA
:10142000000C330B8217130609F0ECF480914E0187
:1014300082958695869583708330A9F0E0914E0160
:10144000E295E695E695E370F0E0E45AFE4FC0833E
:1014500080914E01807C90E4980F80914E018F73B3
:10146000892B80934E01809100018F5FCFCFE09157
:101470004B013AE0E39FF0011124E153FE4F278135
:1014800080914A01883008F046C030914A0181E0DD
:1014900090E002C0880F991F3A95E2F7E0914B0166
:1014A0004AE0E49FF0011124E153FE4F31852323EC
:1014B00030E082239323892B09F460C00E94220923
:1014C0002091480130914901AB01421B530B9A0115
:1014D0007093490160934801283B5BE03507C8F1F0
:1014E0002091470120934601109247012FEF20934E
:1014F000450130914401209144012E7F30FF21604D
:10150000209344012091440120FF18C070934301AF
:1015100060934201089580914A0140914A018E30C2
:1015200050F44850550B81E090E002C0880F991F9D
:101530004A95E2F7B3CF4E50550BF5CF20914201BB
:1015400030914301621B730B709341016093400122
:10155000089580914701893088F4809144018695EF
:101560008F7190914701891304C030933F012093FC
:101570003E01809147018F5F809347010895662364
:1015800081F080914601861760F080913E01909134
:101590003F0120913E0130913F0182179307A9F747
:1015A00008958CED95E008952091450130E0062ED8
:1015B00002C0359527950A94E2F7C90181709927F1
:1015C00020FF0CC04091450121E030E001C0220F16
:1015D0006A95EAF7209524232093450108952091E8
:1015E000680094E0883048F031E08E3008F430E054
:1015F00091E001C0990F3A95EAF7922B9093680019
:10160000EDE6F0E0883030F0EBE6F0E08E3010F000
:10161000ECE6F0E04081282F30E0883048F491E09B
:1016200001C0990F8A95EAF7892F842B808308954A
:101630008E3040F42850310981E001C0880F2A958E
:10164000EAF7F3CF2E503109F7CFBF92CF92DF9256
:10165000EF92FF920F931F93CF93DF930E94220983
:101660006B017C01C0913C01D0913D01BB24BA9437
:1016700001E010E0209709F445C08D81837082302D
:1016800001F52091EA01422F50E08C81282F30E0B3
:101690008830D8F49801082E02C0220F331F0A9414
:1016A000E2F724233523232B61F00E948F089D81CC
:1016B00092FB992790F99817B9F0CA86DB86EC86D9
:1016C000FD860A80DB81C02DD5CF8E3050F42850A6
:1016D0003109B80102C0660F771F2A95E2F79B0116
:1016E000E0CF2E503109F5CF8A859B85AC85BD852D
:1016F0009601281B390B3F872E87B88A0E9447091D
:10170000698BDFCFDF91CF911F910F91FF90EF9009
:10171000DF90CF90BF900895BF92CF92DF92EF926B
:10172000FF920F931F93CF93DF930E9422096B01C7
:101730007C01C0913C01D0913D0101E010E0BB244F
:10174000BA94209709F445C08D818370813001F5EA
:101750002091E001422F50E08C81282F30E088302A
:10176000D8F49801082E02C0220F331F0A94E2F722
:1017700024233523232B61F00E948F089D8192FB47
:10178000992790F99817B9F0CA86DB86EC86FD8612
:101790000A80DB81C02DD5CF8E3050F4285031091E
:1017A000B80102C0660F771F2A95E2F79B01E0CFD0
:1017B0002E503109F5CF8A859B85AC85BD85960174
:1017C000281B390B3F872E87B88A0E944709698BEF
:1017D000DFCFDF91CF911F910F91FF90EF90DF90BE
:1017E000CF90BF900895BF92CF92DF92EF92FF9279
:1017F0000F931F93CF93DF930E9422096B017C010B
:10180000C0913C01D0913D01BB24BA9401E010E0AD
:10181000209709F444C08D81837001F52091D60191
:10182000422F50E08C81282F30E08830D8F4980186
:10183000082E02C0220F331F0A94E2F72423352317
:10184000232B61F00E948F089D8192FB992790F9CC
:101850009817B9F0CA86DB86EC86FD860A80DB81A4
:10186000C02DD6CF8E3050F428503109B80102C0B7
:10187000660F771F2A95E2F79B01E0CF2E503109C2
:10188000F5CF8A859B85AC85BD859601281B390BD4
:101890003F872E87B88A0E944709698BDFCFDF9187
:1018A000CF911F910F91FF90EF90DF90CF90BF905D
:1018B0000895FC01868597852685378582179307CD
:1018C000C9F70895FC01808990E0062E02C0959525
:1018D00087950A94E2F780FF1CC0208981E090E0A0
:1018E00001C0880F6A95EAF780958223808B268550
:1018F00037858685978528173907C9F786819781A7
:101900002817390730F081E0408551854217530789
:1019100008F480E0089590E080E008952091690146
:1019200030E0062E02C0359527950A94E2F7C901EA
:101930008170992720FF0CC04091690121E030E0BF
:1019400001C0220F6A95EAF72095242320936901AC
:101950000895CF92DF92EF92FF92CF93DF93EC0145
:10196000CF8030E1C39E60011124C601C616D706A0
:1019700008F4CB01288530E1239FF0011124AF0149
:101980008E179F0708F4AC0170E060E0DB01CA012C
:1019900022E0B595A795979587952A95D1F79E83CF
:1019A0008D830D2C000CEE08FF089A01AB012C1959
:1019B0003D094E095F09A4EBB0E00E94DC249F01C1
:1019C000FF0F440B550B2C193D094E095F090E946E
:1019D000BD242C83DF91CF91FF90EF90DF90CF90CB
:1019E00008950C94A90CFB01453079F460E177E28D
:1019F0000E942425605D6083319668EE73E00E944A
:101A00002425605D6083319602C04330B1F764E6FF
:101A100070E00E942425605D60836AE070E00E94AF
:101A20002425605D6183805D8283138208958F9297
:101A30009F92AF92BF920F931F93CF93DF93CDB737
:101A4000DEB7A1970FB6F894DEBF0FBECDBF19A2C7
:101A5000423008F44AE08E010F5D1F4F842E912C16
:101A6000B12CA12CA50194010E94E724E62FB90115
:101A7000CA01EA3044F5E05DD801EE938D01232BD5
:101A8000242B252B79F790E080E0109769F0FD0179
:101A900001900020E9F73197AF014A1B5B0BBD01B4
:101AA0008DEE91E00E943E07A1960FB6F894DEBF3E
:101AB0000FBECDBFDF91CF911F910F91BF90AF901F
:101AC0009F908F900895E95CD7CF46EA51E0FA01E4
:101AD00001900020E9F7AF01475A514066EA71E0F2
:101AE0008DEE91E00C943E07BC01990F880B990B89
:101AF0004AE00C94170DEF92FF920F931F93CF9330
:101B0000DF93C9E08C9FC02D1124CD5F7B0110E0D5
:101B100000E0D0E0F70161917F01CE01800F911FBD
:101B20000E9488240F5F1F4F0930110599F7DF913C
:101B3000CF911F910F91FF90EF900895CF93DF9376
:101B4000EC01688190E080E00E948824698181E056
:101B500090E0DF91CF910C948824CF93DF9300D055
:101B600000D0CDB7DEB794E0899FB0011124645452
:101B7000744F44E050E0CE0101960E945924ECE5F8
:101B8000F1E080814181228190E03A8102C0959507
:101B900087953A95E2F750E03B8102C0440F551F0C
:101BA0003A95E2F7842B952B30E04C8102C0220F4E
:101BB000331F4A95E2F7822B932B97700F900F906B
:101BC0000F900F90DF91CF9108958FEF860F8031A6
:101BD00090F4862F0E94AD0D45E0489F9001499FEB
:101BE000300D1124C90123E0969587952A95E1F7D8
:101BF00080599C4F089590E080E0EECFEF92FF92E5
:101C00000F931F93CF93DF93C9E08C9FC02D1124B6
:101C1000CD5F7B0189E0E80EF11C8B01D0E0C61B93
:101C2000D70BCE01800F911F0E947A24F801819377
:101C30008F01EE15FF05A9F7DF91CF911F910F914D
:101C4000FF90EF90089582E090E00C947A24CF9377
:101C5000DF93EC0190E080E00E947A24888381E0A9
:101C600090E00E947A248983DF91CF9108950F93A9
:101C70001F93CF93DF9300D000D000D0CDB7DEB755
:101C80008C01CE0105960E94270E809199019091BA
:101C90009A01892B99F09D81907EF80180819111A4
:101CA00093C0807E59F0F89480916B00877F809379
:101CB0006B0083EF9BE00E94F906789420919901D4
:101CC00030919A01F8018081232B21F09D81982782
:101CD000907E81F090919B019F7E90939B018295D5
:101CE00086958770813009F4D6C008F48CC08230A4
:101CF00009F416C1F894F80160816F71209199017F
:101D000030919A013093920220939102862F806C39
:101D1000809390021092980280919A0290919B0277
:101D2000907F996090939B028C77826080939A0257
:101D30001092940210929502818182958370806244
:101D4000809399023093880120938701962F990FF1
:101D5000990F80918C018370892B80938C01109254
:101D60008D0180919001807B809390018FEF860F91
:101D7000893040F48F71880F90914401917C892BB8
:101D800080934401F4E06F9FB00111246454744FB8
:101D900044E050E0CE0101960E94592489818F7160
:101DA000982F990F80914E01817C892B80934E0151
:101DB000789426960FB6F894DEBF0FBECDBFDF91A4
:101DC000CF911F910F910895903269F4807E8032F7
:101DD00009F474CFF89480916B00877F80936B0037
:101DE00087E39AE068CF903409F068CF807E803432
:101DF00009F464CFF89480916B00877F80936B0027
:101E00008CE799E058CF62E08BE00E94E608809171
:101E1000A3028C7F8093A30283EF9BE00E94CE06F7
:101E2000982F93708091A3028C7F892B8093A302BB
:101E30008BE08093A20288E592E09093A5028093C4
:101E4000A40280E699E09093A7028093A602809175
:101E50003C0190913D019093A1028093A0028EE9F4
:101E600092E090933D0180933C0160E08BE00E9402
:101E7000E60861E08091A2020E94B8088091A20267
:101E8000863110F40E94EF0A8EE992E090939A0155
:101E9000809399012FCF62E08BE00E94E60883B126
:101EA00090916B0089238093D8018091D801809311
:101EB000D70186B190916C0089238093E2018091D3
:101EC000E2018093E10189B190916D0089238093B3
:101ED000EC018091EC018093EB0187E39AE00E9492
:101EE000CE0680934B0180914B0187FD16C08CED8F
:101EF00095E090933F0180933E018AE080934701F3
:101F000010924601109245018BE080934A01809126
:101F10004A01863110F40E94EF0A8CE992E0B6CFB4
:101F200089E29CE0FC012491E22FF0E0EE0FFF1F1C
:101F3000EC5EF34F25913491309351012093500181
:101F4000EDE3FCE0249120934F0121E020934C012C
:101F500020914E01216020934E012491FC01849137
:101F6000E82FF0E0EE0FFF1FE050F44FA591B49181
:101F70008C91E22FE095E823EC938CE799E00E94A6
:101F8000CE0680916B00886080936B000E946F0981
:101F90008AE892E090939A018093990180919B0145
:101FA000806180939B01A6CE0F931F93CF93DF9305
:101FB00000D0CDB7DEB7CE0101960E94270E8A81F0
:101FC00086FB002700F910E0F801EE0FFF1FE4592F
:101FD000FF4F859194910E942B080F900F90DF91F5
:101FE000CF911F910F910895CF92DF92EF92FF92C0
:101FF0000F931F93CF937C018B016A01DA011C922E
:10200000FB01CB010C9611921192E817F907D9F751
:10201000F70180818823B9F1C0E06BE370E0C7016C
:102020000E9452250097F1F0DC011C92D601EC9140
:1020300021E02E0F2C93F0E0EE0FFF1FE00FF11FB9
:10204000F182E0827C01BFEFEB1AFB0ACF5FC63062
:1020500021F78C2FCF911F910F91FF90EF90DF9080
:10206000CF900895F601C081D7018C91882389F320
:102070008C2F90E0880F991F080F191FF801F1822B
:10208000E082CF5FE6CF80E0E5CF2F923F924F9284
:102090005F926F927F928F929F92AF92BF92CF92F8
:1020A000DF92EF92FF920F931F93CF93DF93CDB701
:1020B000DEB768970FB6F894DEBF0FBECDBFCE0176
:1020C00046960E94270E8091A601893409F47BC1AF
:1020D0000CF00CC1823409F48AC534F4882309F465
:1020E0004CC161E97BE051C1843409F4D8C588341E
:1020F000C1F78CE69BE00E942B080E94D40F83E27C
:102100009BE00E942B080E94D40F8FED9AE00E9462
:102110002B080E94D40F85E99AE00E942B080E94A8
:10212000D40F87E59AE00E942B080E94D40F89E122
:102130009AE00E942B080E94D40F86EE99E00E943C
:102140002B080E94D40F8AEA99E00E942B080E9473
:10215000D40F81E799E00E942B080E94D40F85E2FA
:1021600099E00E942B080E94D40F8EEE98E00E9406
:102170002B080E94D40F8BEB98E00E942B080E9442
:10218000D40F8AE698E00E942B080E94D40F8AE1BF
:1021900098E00E942B080E94D40F80ED97E00E94E7
:1021A0002B080E94D40F81E997E00E942B080E941F
:1021B000D40F8CE397E00E942B080E94D40F8FEF7E
:1021C00096E00E942B080E94D40F84EB96E00E94B8
:1021D0002B080E94D40F8BE696E00E942B080E94E9
:1021E000D40F8BE196E00E942B080E94D40F88EF59
:1021F00095E00E942B080E94D40F88EA95E00E9487
:102200002B080E94D40F8BE595E00E942B080E94BA
:10221000D40F83E195E00E942B080E94D40F83EC39
:1022200094E00E942B080E94D40F85E894E00E945D
:102230002B080E94D40F86E394E00E942B080E9492
:10224000D40F87EE93E00E942B080E94D40F88E9F8
:1022500093E00E942B080E94D40F88E493E00E9430
:102260002B080E94D40F88EF92E00E942B080E9456
:10227000D40F8DEA92E00E942B080E94D40F8EE5C5
:1022800092E00E942B080E94D40F83E192E00E940A
:102290002B080E94D40F8BED91E00E942B080E9426
:1022A000D40F8FE891E00E942B080E94D40F87E49E
:1022B00091E00E942B080E94D40F80E291E00E94DE
:1022C0002B080E94D40F86EF90E00E942B080E94FA
:1022D000D40F85EB90E00E942B080E94D40F80E77A
:1022E00090E00E942B080E94D40F98C4813509F415
:1022F000EEC43CF5803509F0F4CE8091A7018D3312
:1023000009F0E2C0AE01485E5F4FBE016F5F7F4FD4
:1023100088EA91E00E94F40F9091A801923509F4A7
:10232000AEC0963409F4C5C0923409F4C6C09035E5
:1023300009F4C6C0953409F0D4CE8F89887F8460B3
:1023400014C0833509F4D8C0843509F0CACE809111
:10235000A7018D3349F560EB7BE088EA91E00E94AC
:102360006224892BA9F48F898F7B8F8BCE014696AF
:102370000E949E0D1092A7017FC080919B018160F9
:10238000826080939B0165EB7BE086EA91E018C058
:102390006DEA7BE088EA91E00E946224892B09F0D3
:1023A000A0CE8F898064E1CF8DE38093A7018F89D0
:1023B0006AEA7BE086FD02C065EA7BE088EA91E09C
:1023C0000E946B2459C08091A7018D3341F5809103
:1023D000A8018035C1F08335F1F0833409F081CE56
:1023E0008E898F7180628E8B89EA91E00E943B24F6
:1023F0009FEF980F903108F074CE982F9F718E89BF
:10240000807E892B02C08E898F718E8BCE0146967D
:102410000E94370EABCF8E898F718064E4CF8F33EB
:1024200009F05FCE8DE38093A7018E89E82FE295B6
:10243000E695E770F0E0EE55F44FE491E093A801E3
:10244000982F907EB9F08F718A3030F4805D809340
:10245000A9011092AA0110C090E06AE070E00E9409
:102460003825605D6093A901805D8093AA01109278
:10247000AB0102C01092A9010E94650D34CF8230D9
:1024800009F02FCEEB81FC818081877F863409F0B3
:1024900028CE8F89887F82608F8B81E090819634EF
:1024A00009F080E0982F9295907F8F898F7C892BFF
:1024B0005CCF8F89887F816058CF8F89887F55CF87
:1024C0008F89887F836051CF8DE38093A7018F89A7
:1024D000982F9770E92FF0E0E356F44FE491E093E2
:1024E000A801923039F69BE39093A901807311F013
:1024F00086E4BBCF8EE4B9CFC090A70122E5C2121B
:1025000024C08091A8018D33B1F48091A9018E344B
:1025100019F0893509F0E5CD91E0893509F090E0B1
:102520008F8990FB83F98F8BCE0146960E949E0D7A
:102530001092A801A1CF8DE38093A8018F8983FF1A
:1025400002C089E584CF8EE482CF00ED0C0D093006
:1025500008F0C7CD002339F0BE01635F7F4F8FECD9
:102560008C0D0E94FE0D8091A8018D3309F00CC2E4
:10257000AE01485E5F4FBE016F5F7F4F89EA91E019
:102580000E94F40FA82E01112CC031E08313A9CDB5
:1025900089819A810E943B24AC019C012C5D3340CF
:1025A0002D3F93E0390780F41092A801C901969558
:1025B000879596958795809386012F8923FF5CCF19
:1025C00080958093860158CF4F3F510511F008F058
:1025D00088CD1092A801809386019F8993FDF0CF4A
:1025E0004BCF2091A901243431F0233509F46BC07D
:1025F000213409F06AC1E2E0AE1273CD243409F04F
:102600003FC0EB81FC81F080FEE4FF1619F020E56D
:10261000F21267CD0E94230E0150110B41E050E0F1
:1026200060E070E0002E04C0440F551F661F771F46
:102630000A94D2F7E42EE0943EE4682FF3121EC011
:10264000642B82E090E00E94882484E48D87BE01A0
:10265000635F7F4F8FEC8C0D0E947B0D8BE0809F22
:10266000F001819FF00D1124E055FD4F8FEF838322
:10267000809185018E21809385015ACF6E21E1CF13
:10268000083009F02ECDEB81FC8110811E3419F049
:10269000193409F026CD0E94230E682F1E3489F4C8
:1026A000606882E090E00E94882481E48D87BE010A
:1026B000635F7F4F87E00E947B0D8FEF8093000365
:1026C00037CF6F77EECF8BEF8A0D823008F009CDD0
:1026D000EB81FC81F0804EE4F41619F050E5F51220
:1026E00000CD0E94230E0150110B41E050E060E04C
:1026F00070E0002E04C0440F551F661F771F0A9418
:10270000D2F79EE4D82ED42AF91619F0D42ED094FC
:10271000D82283E58D878D819E810E943B247C0198
:102720009B8B8A8B8F8198850E943B244C019D8BCB
:102730008C8B89859A850E943B24940128553240D0
:10274000BB24B3942930374038F4B7016855724040
:102750006930774008F4B12C94012E193F098E148A
:102760009F0418F497012819390941E050E00097B7
:1027700039F0AC0141308AEF580710F040E05AEFD1
:10278000A8ECB0E00E9409252B013C019A0150E021
:1027900040E00E94E724213D97E0390741055105BB
:1027A00028F080ED97E09F878E8707C081E090E05A
:1027B00021153105C1F33F872E87E6E08E859F8581
:1027C000AE1219C08B859C850E943B248130FAEFA4
:1027D0009F07A0F40097A9F09C0150E040E0C301DE
:1027E000B2010E94E724213D87E0380741055105E9
:1027F00058F080ED97E0998B888B0CC080E09AEFC1
:10280000EBCF81E090E0E8CF398B288B81E090E03E
:10281000232B89F3B11065CCBE01635F7F4F8FEC32
:102820008C0D0E947B0D6D2D82E090E00E9488242B
:10283000F801E25FF24F84919BE0909FD001919F5D
:10284000B00D1124FD01E055FD4F7F0183839FEF03
:10285000948392E2978396E99087AE54BD4F9C9102
:1028600092609C9361E00E94B80861E0F701838167
:102870000E94E6088091850190E0002E02C09595A7
:1028800087950A94E2F781709927880F991F21E0B4
:1028900030E02C0F3D1F820F931FFC0121893289EC
:1028A0004AE0429FC001439F900D1124000F111F69
:1028B000F801E259FE4F918380836AE070E00E9444
:1028C0002425C7010E94A90C33CEF1E08F1309CC57
:1028D0000830E1F080ED820F823008F002CC809168
:1028E000AA018111FECB0150110B81E090E0A0E024
:1028F000B0E004C0880F991FAA1FBB1F0A95D2F72A
:10290000309185012033E9F1832BB5CE81E48D87A9
:102910000E94230EF82E09811A81C8010E943B24CF
:10292000F80101900020E9F732972081253209F55E
:102930009C018536910510F024E630E08F2D90E063
:10294000880F892F881F990B892B31F484E690E03A
:10295000AC01421B530B9A01AFEFB0E00E94092576
:1029600024E630E040E050E00E94E7242093860116
:10297000DFCD9C018F3F9105C9F3C0F32FEF30E00D
:10298000F5CF8095832377CE8F3309F0AACB8DE3E3
:102990008093A801002309F4A7C0FD84202E312CC8
:1029A00053E5F512C9C02C893D89EA88FB882E15AC
:1029B0003F0508F4BAC02E193F09A8ECB0E00E9408
:1029C00009254B015C012E853F8550E040E00E94C7
:1029D000E724290189012889398950E040E0C501AF
:1029E000B4010E94E724490169010E94230E93E586
:1029F0009093A9019BE39093AA0191E0291A3108D1
:102A000090E0022C02C0959587950A94E2F780FF2A
:102A100091C08EE48093AB01EBE3E093AC0144E022
:102A20006DEA71E0C7010E94F30CFBE3F093B10182
:102A300044E062EB71E08C899D890E94F30C2BE3EA
:102A40002093B60144E0003137E2130708F045E077
:102A500067EB71E0C2010E94F30C85E190E0003168
:102A600047E2140710F086E190E08A559E4F2BE371
:102A7000FC01208344E0F0E1CF16F7E2DF0608F026
:102A800045E06CEB71E0003127E2120710F06DEBCE
:102A900071E0C4010E94F30CE6E1F0E0003117425E
:102AA00010F0E7E1F0E084E090E040E1C41647E296
:102AB000D40610F085E090E0E80FF91FEA55FE4FCC
:102AC0008AE380838091850190E002C09595879587
:102AD0002A94E2F78170805D8183128280919B014C
:102AE00086FFCACC1082C8CC0091860110E08F8985
:102AF00083FF17C086EF91E0801B910B880F991F11
:102B0000880F991F44E069EA71E00E94F30C8AE3A0
:102B10008093AD0143E06EEA71E0C8010E94F30CBE
:102B2000ABCCC80189509F4FE9CFC701821B930BE3
:102B30009C0143CF80E56ECF083019F411E051E4D9
:102B4000F51210E00E94230EF092A9019BE39093EE
:102B5000AA0191E0291A310890E0022C02C0959553
:102B600087950A94E2F780FD05C089E4111103C03E
:102B700080E501C08EE48093AB010AE30093AC01D1
:102B8000111115C08091850190E002C0959587953F
:102B90002A94E2F78170805D8093AD011092AE01BE
:102BA00080919B0186FF68CC1092AC0165CC80912E
:102BB0007F01E4E68E9FC00111246FEF70E00E9458
:102BC0003825CB0143E06DEA71E00E94F30C85E209
:102BD0008093B0010093B1018091860143E062EBE4
:102BE00071E090E00E94F30C1092B501D9CF809172
:102BF000A7018D3361F58091A801833409F071CA72
:102C000080919B01806880939B01809195018F70DA
:102C10008093950187E99BE00E942B0868960FB688
:102C2000F894DEBF0FBECDBFDF91CF911F910F9102
:102C3000FF90EF90DF90CF90BF90AF909F908F90DC
:102C40007F906F905F904F903F902F9008958F33BB
:102C500009F047CA8DE38093A7011092A8010E9452
:102C6000650D8CE4E82EF12C10E0C7010E9482244F
:102C700044E066EA71E00E94F30C0E94650D173093
:102C800059F085E99BE00E942B081F5FF2E0EF0EF0
:102C9000F11C183051F7C2CF0E94D40FF6CF8091AB
:102CA000A7018D3339F488EA91E00E943B24809398
:102CB000810160CB8F3309F014CA8DE38093A701A3
:102CC0008091810143E068EA71E090E027CF809134
:102CD0009B018E7F80939B014DCB1F920F920FB66D
:102CE0000F9211242F933F934F935F936F937F9392
:102CF0008F939F93AF93BF93EF93FF938DEE91E0EC
:102D00000E94BC07FF91EF91BF91AF919F918F916E
:102D10007F916F915F914F913F912F910F900FBED7
:102D20000F901F9018951F920F920FB60F921124BB
:102D30002F938F939F93EF93FF93E091FD01F09179
:102D4000FE018081E0910302F091040282FD1BC02C
:102D50009081809106028F5F8F7320910702821706
:102D600041F0E0910602F0E0E351FE4F958F809331
:102D70000602FF91EF919F918F912F910F900FBEBF
:102D80000F901F9018958081F4CF1F920F920FB66D
:102D90000F9211242F933F938F939F93AF93BF93E1
:102DA0008091600190916101A0916201B0916301F5
:102DB00030915F0123E0230F2D3758F50196A11DB7
:102DC000B11D20935F018093600190936101A093F6
:102DD0006201B09363018091640190916501A091BB
:102DE0006601B09167010196A11DB11D8093640138
:102DF00090936501A0936601B0936701BF91AF9175
:102E00009F918F913F912F910F900FBE0F901F9028
:102E1000189526E8230F0296A11DB11DD2CF1F924F
:102E20000F920FB60F9211242F933F934F935F93FE
:102E30006F937F938F939F93AF93BF93CF93EF93B2
:102E4000FF9389B190916D0089238093EC0180916B
:102E5000EB019091EC0189278093EA018091EC01CC
:102E60008093EB01C0E08091E901C81760F4EC2F7A
:102E7000F0E0EE0FFF1FED51FE4F0190F081E02DCD
:102E80000995CF5FF0CFFF91EF91CF91BF91AF91B7
:102E90009F918F917F916F915F914F913F912F9172
:102EA0000F900FBE0F901F9018951F920F920FB6A4
:102EB0000F9211242F933F934F935F936F937F93C0
:102EC0008F939F93AF93BF93CF93EF93FF9386B16D
:102ED00090916C0089238093E2018091E1019091AF
:102EE000E20189278093E0018091E2018093E10172
:102EF000C0E08091DF01C81760F4EC2FF0E0EE0F26
:102F0000FF1FE752FE4F0190F081E02D0995CF5F42
:102F1000F0CFFF91EF91CF91BF91AF919F918F91A2
:102F20007F916F915F914F913F912F910F900FBEC5
:102F30000F901F9018951F920F920FB60F921124A9
:102F40002F933F934F935F936F937F938F939F93B1
:102F5000AF93BF93CF93EF93FF9383B190916B00A7
:102F600089238093D8018091D7019091D801892736
:102F70008093D6018091D8018093D701C0E08091E1
:102F8000D501C81760F4EC2FF0E0EE0FFF1FE153FE
:102F9000FE4F0190F081E02D0995CF5FF0CFFF91BA
:102FA000EF91CF91BF91AF919F918F917F916F9151
:102FB0005F914F913F912F910F900FBE0F901F90F7
:102FC00018951092F0011092EF0188EE93E0A0E0C6
:102FD000B0E08093F1019093F201A093F301B093DC
:102FE000F40186E091E09093EE018093ED0185EC91
:102FF00090E09093FA018093F90184EC90E0909333
:10300000FC018093FB0180EC90E09093FE018093A3
:10301000FD0181EC90E0909300028093FF0182EC2F
:1030200090E0909302028093010286EC90E09093EE
:10303000040280930302109206021092070210927B
:1030400008021092090288E191E090938B0280932C
:103050008A02E0EBF2E046E351E02FEF5183408338
:1030600023831682158280918E0290918F0292871F
:103070008187F0938F02E0938E0280918C028F5FA4
:1030800080938C023B9683E0E331F80739F78CE2BA
:1030900091E090939F0280939E028091A3028B7F88
:1030A0008093A30282E291E090939D0280939C0220
:1030B000809199022EE932E030939202209391029E
:1030C0009FED909390021092980290919A02209115
:1030D0009B02207F296020939B0280719C779260E5
:1030E00090939A0280628F7E80939902109294024C
:1030F000109295020895CF93DF93CDB7DEB76B970B
:103100000FB6F894DEBF0FBECDBF789484B5826051
:1031100084BD84B5816084BD85B5826085BD85B57B
:10312000816085BD80916E00816080936E001092F9
:103130008100809181008260809381008091810074
:103140008160809381008091800081608093800005
:103150008091B10084608093B1008091B000816063
:103160008093B00080917A00846080937A0080918F
:103170007A00826080937A0080917A0081608093E7
:103180007A0080917A00806880937A001092C10062
:10319000E091FD01F091FE0182E08083E091F90170
:1031A000F091FA011082E091FB01F091FC0180E1C5
:1031B000808310920502E0910102F091020286E004
:1031C0008083E091FF01F091000280818061808323
:1031D000E091FF01F0910002808188608083E0919E
:1031E000FF01F0910002808180688083E091FF01FF
:1031F000F091000280818F7D8083CE010A960E942B
:10320000270E8A858F718F3111F58B8595E09A870E
:10321000807C846080648B87CE010A960E949E0D1C
:103220006FEF82E090E00E94882410E004E4BE0189
:103230006F5F7F4F812F0E94FE0D0983BE016F5F7C
:103240007F4F812F0E947B0D1F5F183081F786E42E
:103250009CE090938A018093890180918B01807E0C
:10326000886080938B018EE992E09093880180932F
:10327000870180918C018370806180938C01109212
:103280008D0180919001807B80939001CE010A9600
:103290000E94270ECE010A960E94370E0EE01DE016
:1032A000F801849161E00E94E6080F5F1F4FFDE086
:1032B00006311F07A9F761E08FE00E94E60861E090
:1032C0008EE00E94E60810E000E09BE0D92ECC24BE
:1032D000CA9422E2B22E36E9A32E4AE0942EBE0111
:1032E0006F5F7F4F802F0E94FE0D8981833599F596
:1032F000D09ED001D19EB00D1124F801E25FF24FB3
:1033000084919D0120553D4F7901F9018383C48249
:10331000B782A086AE54BD4F9C9192609C9361E0B1
:103320000E94B80861E0D70113968C910E94E608CC
:103330006E817F81C7010E94A90CF801EE0FFF1F6B
:10334000E259FE4F2E813F81929EC001939E900DC7
:103350001124918380830F5F1F4F0830110509F0FE
:10336000BECF8FE080930B038FEF80930C0382E23C
:1033700080930F0386E98093100380910A038D7F69
:1033800080930A0360E08FE00E94B80861E08091BA
:103390000B030E94E6088B8583FF05C080918601A0
:1033A000809580937E0160917E0170E069507F4F2F
:1033B000660F771F660F771F88E093E00E94A90CC5
:1033C00088E080939501809196018F70809396019B
:1033D0001092970110929801412C512C3201439484
:1033E00099249394A4E68A2E80919E01811108C0AD
:1033F0000E94470970939D0160939C0190929E01E9
:10340000CE010C960E94270ED0909B01D3FC2DC0BC
:10341000BE016F5F7F4F87E00E94FE0DF0EBEF2E45
:10342000F2E0FF2E10E000E0073019F489818134CA
:10343000A1F0F70183818F3F81F4F801E25FF24F41
:1034400084916091850170E0002E02C075956795AA
:103450000A94E2F761700E94B8080F5F1F4FFBE00B
:10346000EF0EF11C08301105F9F68DEE91E00E9487
:103470009C0718161906ACF48DEE91E00E947A07AD
:1034800090916801883009F4AEC08D3009F0B2C067
:10349000E92FF0E0EA55FE4F10821092680197FF85
:1034A000B5C08D858770823009F4D6C108F077C128
:1034B000882309F4A7C3813009F40EC30E94470989
:1034C00020919C0130919D01621B730B693E7340FA
:1034D000D8F00E94470970939D0160939C018091F0
:1034E0009B01846080939B0161E08EE00E94B8089C
:1034F00080919B0180FD08C0109285018AE19DE0CA
:103500000E942B080E94D40F8091990190919A01FA
:10351000DC01ED91FC910190F081E02D60E00995D6
:10352000811106C080919B0182FD02C00C94F8239A
:103530000E94470980918001681B6C3028F08091BF
:103540009B018F7D80939B010E94470960938001BE
:1035500010919B0115FB882780F9892580FB15F9BF
:1035600010939B0114FF06C0812F8073803311F0EC
:103570000C94F8232DB63EB60E94220912FF17C004
:1035800000916A0110916B0120916C0130916D01E5
:103590006B017C01C01AD10AE20AF30A9701860185
:1035A00000321E442105310510F40C94F8232FEF4E
:1035B0002093690160936A0170936B0180936C01A1
:1035C00090936D01A0918E02B0918F02FD0110E0E9
:1035D000309709F4FCC683818F3F09F01F5F018497
:1035E000F285E02DF5CF992309F45BCF91509093AC
:1035F000680157CF983238F4E92FF0E0EA55FE4FD2
:1036000080839F5FF4CF109268014BCFD7FE5AC0E2
:103610008091A601811145CF8091990190919A01E5
:10362000DC01ED91FC910190F081E02D63E00995C2
:10363000882309F436CF8091990190919A016C8585
:103640006F71DC01ED91FC910280F381E02D099511
:103650008C01BC0190E080E04AE00E94170D83E4F9
:103660009DE00E942B088091950182958F7090E0DB
:10367000880F991FB801845B9F4F0E949A24109174
:10368000950112951F701730B8F480E49DE00E94F8
:103690002B08812F90E002960E94740D8DE39DE02F
:1036A0000E942B0880919501982F907F905F8F70DA
:1036B000892B80939501F5CE80919B018F77809324
:1036C0009B01F0CF6AE37DE086EA91E00E946224EC
:1036D000892B59F067E37DE086EA91E00E9462243D
:1036E000892B19F00E944510DCCE64E37DE086EA68
:1036F00091E00E946224892B29F480919B018064CF
:1037000080939B0161E37DE086EA91E00E946B2457
:103710000E9445106EE27DE086EA91E00E946B24F3
:103720000E9445106BE27DE086EA91E00E946B24E6
:103730000E94451080919B0186FD0CC08D8587708D
:10374000833041F468E27DE086EA91E00E946B24D8
:103750000E94451064E27DE086EA91E00E946B24BD
:103760000E94451010919B0116FB112710F973E57B
:10377000F72E0FE3F092A60180E3810F8093A7015B
:103780000093A8011092A9010E9445101F5F1930F3
:1037900089F780919B018F7B80939B0182CE833040
:1037A00009F4E1C4843009F089CE809199019091A7
:1037B0009A01DC01ED91FC910190F081E02D62E035
:1037C0000995F82E882311F0A4E0FA2E8091870144
:1037D00090918801DC01ED91FC910190F081E02D48
:1037E00066E00995882309F474C18091870190915E
:1037F000880160918C0166956695DC01ED91FC91E4
:103800000280F381E02D09958C0190919001892F20
:103810008F70823009F401C408F031C3882309F4A1
:10382000ADC3813009F055C1C8018F579440873C22
:10383000910508F0DEC30E94470920918E01309166
:103840008F01621B730B80919001807B83646834CD
:10385000714008F0BAC33DC18091910290919202EB
:10386000009709F42BCE609190026295669567707F
:10387000DC01ED91FC910190F081E02D0995882308
:1038800009F41CCE80919102909192026091900275
:103890006F71DC01ED91FC910280F381E02D0995BF
:1038A000AC01909397028093960280919902806177
:1038B000809399022EE53CE080E0F90165917491D6
:1038C0004617570708F494C0F90132966591749130
:1038D0006417750708F48CC030919A02432F441F77
:1038E0004427441F90919B02292F2F70220F242BD5
:1038F000281385C090919B02292F22952F702F5F4E
:103900002770322F3295307F9F78932B90939B02B4
:1039100030919902432F437050E04F5F5F4F24175F
:10392000150609F0CBCD90919A02803109F073C051
:10393000329536953770892F8370880F880F880FDE
:10394000832B880F880F9378982B90939A029091ED
:103950009A02292F269526952F71322F3295330FF3
:10396000307E809199028F71832B322F3695369558
:1039700036959C7F932B90939A029C77943409F010
:1039800052C0877F8093990290919502809199020D
:1039900082FF82C0933008F07DC0E92FF0E0EE5640
:1039A000FE4F8091940280839068109295028091DE
:1039B00099028B7F80939902992309F47FCD97FD1B
:1039C0007AC0692F70E0FB01EF56FE4F308180E036
:1039D00020E061507109422F50E0461757070CF064
:1039E00064C04E565E4FFA01408184272F5FF3CFAB
:1039F0008F5F2C5F3F4F823109F05FCF5FCD80FB3F
:103A000037F930939A02282F26952F709078922BB1
:103A100090939B026FCF8F71880F880F9378892BBB
:103A200080939A0294CF83FD29C0B0E12B9F90012F
:103A300011242093940284608093990290E08091F5
:103A4000990283FB222720F9292520FB83F9809303
:103A50009902913009F498CF923009F02FCDE0917E
:103A60009502E330F8F481E08E0F80939502F0E048
:103A7000EE56FE4F80919402808320CD9091940267
:103A8000292B209394028B7F809399029092980225
:103A900092E0D5CF90E089CF992309F40FCD109211
:103AA00095028DCF1092950209CD25E58227F92E3A
:103AB000FF0C381731F080919B01886080939B0147
:103AC000F12C80919B0183FF04C061E08EE00E9495
:103AD000B808F110D6C0F2CC0C850F7110919B0183
:103AE000169511708091990190919A01DC01ED91E8
:103AF000FC910190F081E02D61E00995882309F4A3
:103B0000DDCC8091990190919A01DC01ED91FC91BD
:103B10000280F381E02D602F0995AC0126EA3CE09C
:103B200090E0F901659174916417750738F4F90113
:103B30003296659174914617570740F02C5F3F4FBE
:103B40009F5F933071F710920101B8CCE12FF0E044
:103B500080910101913029F19230C9F1F12C883026
:103B6000E9F42091920130E0C9019595879585751A
:103B7000220F331F2A7A822B90E09C0135952795DE
:103B8000359527952373880F991F880F991F8C7C73
:103B9000822B82958093920164E0F62E10920101AF
:103BA00098CF883008F08ACC91E0980F909301016B
:103BB000EE56FE4F7301620104C0CC0CDD1CEE1CFE
:103BC000FF1C8A95D2F7C6012081822B55CF883001
:103BD00008F074CC91E0980F90930101EE56FE4FDF
:103BE000A301920104C0220F331F441F551F8A9561
:103BF000D2F7DA01C90180959095A095B095208102
:103C000082233ACF8091990190919A01DC01ED9144
:103C1000FC910190F081E02D62E00995882309F480
:103C20004DCC8C858F719FEF980F903158F40E9486
:103C3000AD0D9C018E32974010F02DE237E02D3C07
:103C4000310510F42DEC30E04AE0429FC001439F63
:103C5000900D1124B6E096958795BA95E1F7809777
:103C600020919101281308C180919B018695817054
:103C70008C8B1D8AEC89FD89EE56FE4F208374E003
:103C8000F72E0E94470970939D0160939C018091DB
:103C90009B018B7F26E0F2125AC3826080939B01C6
:103CA00060E08EE00E94B80880919B0181FB332781
:103CB00030F9388F198EE88DF98DEE56FE4F008160
:103CC0001091920181FF10E0109386010E94230E53
:103CD0009D8597706DEFE62EE90EA09184012A2E46
:103CE000312CF090850130E020E0602F70E0482F0B
:103CF00050E05B8F4A8FD22EAB01022E02C0559549
:103D000047950A94E2F741705527EA8DFB8D022E04
:103D100002C0F595E7950A94E2F7E0FD04C081E062
:103D20008E1508F419C3D301C20104C0880F991F6E
:103D3000AA1FBB1FDA94D2F75C01452B09F409C313
:103D4000F82A2F5F3F4F28303105A9F6F092850100
:103D500000938401809183018F1105C080918201BD
:103D6000181709F483C0F0928301109382018091A7
:103D7000810181FF7BC0BE016F5F7F4F87E00E94A2
:103D8000FE0DE98085EE9CE00E942B080E94D40F76
:103D900082EE9CE00E942B0810E000E0073009F062
:103DA00006C3A1E4EA1206C380918601682D0E9431
:103DB0001825F82E80EE9CE00E942B086F2D70E0F5
:103DC00090E080E04AE00E94170D0F5F1F4F09301E
:103DD000110521F70E94D40F8EEC9CE00E942B0865
:103DE000E1E489EC9CE0EE120EC0809186012AE0AD
:103DF000622F0E9418250E941825892F90E00E94AA
:103E0000740D8CEC9CE00E942B08809186011AE0D6
:103E1000612F0E9418250E941825892F90E00E948A
:103E2000740D0E94D40F87EB9CE00E942B08F1E4F4
:103E300082EB9CE0EF120BC080918601612F0E9403
:103E40001825892F90E00E94740D85EB9CE00E945C
:103E50002B08809186016AE00E941825892F90E046
:103E60000E94740D0E94D40F0E94D40F80919B0178
:103E7000877F80939B0122CB809391011FCB83305E
:103E800009F411C1843009F024CE98012A5A354032
:103E90002536310508F03AC10E94470920918E016C
:103EA00030918F01621B730B6234710508F411CEDF
:103EB000809190018062809390010E944709209137
:103EC0008E0130918F01621B730B6730714008F4D3
:103ED00000CE8091900186FF03C18F7B809390017B
:103EE00080918D0140919001942F907F909390014B
:103EF000882309F4EECD6091890170918A016115E2
:103F0000710539F1A0918B01AF7140719B0150E0B7
:103F1000B82FBF77A51709F4DCCDC901861B970B15
:103F2000F90132961491113411F4411106C0E49153
:103F3000E43409F014C1411112C1F9013196E49140
:103F4000EB130DC1860F971FFC018491882309F4A0
:103F5000C0CD90919B01969591709A8B1B8AEA89AE
:103F6000FB89EE56FE4F815021E030E001C0220F68
:103F70008A95EAF7808182278083ABCDC8018E576E
:103F800094408D3B924020F10E94470970938F012D
:103F900060938E0180918B018F7180938B01809152
:103FA0008C018C7F80938C01809190018F7B8F7D21
:103FB0008093900191E00B33174008F490E08091DA
:103FC000900190FB84F9807F82608093900181CD85
:103FD0000F571440073C110508F07BCD0E9447099C
:103FE00070938F0160938E0180919001807F81603A
:103FF000ECCF0E94470920918E0130918F01621B06
:10400000730B603D774020F080919001807FDDCF81
:104010000E37144008F05DCDF7CF94FF10C00B337E
:10402000174080F40E94470920918E0130918F0142
:10403000621B730B603D774008F44BCDE5CF0E3724
:10404000144080F70E94470920918E0130918F0122
:10405000621B730B6234710508F43BCD20918B0118
:10406000322F32953695377090918C01892F83705D
:10407000880F880F880F832B8F5F382F3F718295B1
:10408000880F807E2F71822B80938B01832F8695E2
:10409000869586959C7F982B90938C0180919001BA
:1040A000807F836092CF0A5A15400536110558F477
:1040B0000E94470970938F0160938E018091900157
:1040C000807F846082CF0E94470920918E013091C9
:1040D0008F01621B730B603D774008F4FACC94CFDC
:1040E000B8E08B9FC00111248078B0918B016B2FB9
:1040F000629566956770B0918C01B370BB0FBB0F72
:10410000BB0FB62B8B2B80938D01ECCE95FF05C09A
:1041100094FF10C00B33174080F40E944709209190
:104120008E0130918F01621B730B603D774008F464
:10413000D0CC6ACF0E37144080F7809190018F7DEC
:10414000809390010E94470970938F0160938E01C4
:1041500080919001807F826080939001DECF5F5FCD
:104160002D5F3F4FD7CE80919B0187FDA7C98091DE
:10417000990190919A01DC01ED91FC910190F081FF
:10418000E02D63E00995882309F498C90E94230E65
:10419000C82E80919701982F969596959695943173
:1041A00040F49F5F990F990F990F8770892B809327
:1041B00097018091990190919A016C856F71DC0152
:1041C000ED91FC910280F381E02D09957C010CE4D6
:1041D00010E0D12CC8010E9482249C012E5131098B
:1041E000E216F30620F04E968E159F0540F4D39408
:1041F0000E5F1F4FB8E0DB12EDCFFFE0DF2E909196
:10420000980180919601282F22952F70213019F165
:10421000A0F0223009F462C0233009F46AC0809112
:104220009B01869581708E8B1F8AEE89FF89EE56E1
:10423000FE4F80919801808322CDEFE0DE1679F366
:1042400080919701887F809397018D2D8F70806179
:1042500080939601E4CF8F708D1175C08091970186
:1042600021E0280F2770887F822B809397012330CD
:10427000B0F2209195012F703D2D3295307F232B88
:10428000209395012C2D30E00D2C02C035952795FB
:104290000A94E2F720FF11C0B301A20104C0440F49
:1042A000551F661F771FDA94D2F7492B4093980168
:1042B000809196018F708062CBCF282F287F203A83
:1042C000B9F721E030E001C0220FDA94EAF7922733
:1042D00090939801877080939701EACFFFE0DF12F7
:1042E0009ECF90919701987F909397018F708063F4
:1042F000AFCFEFE0EE2EDE10DBCF8091970121E013
:10430000280F2770887F822B80939701233008F431
:1043100086CF8091950182958F70D12C082E02C096
:10432000D594C7940A94E2F7C0FE0DC0B301A20170
:1043300004C0440F551F661F771F8A95D2F740951A
:10434000492340939801809196018F7081CF8D7F92
:10435000A5CCA094FA20F5CC452B09F4F2CCA10110
:10436000022E02C0559547950A94E2F740FDE9CC2C
:10437000D301C201022E04C0880F991FAA1FBB1FC0
:104380000A94D2F78E879F87A88BB98B4F2D50E068
:10439000022E02C0559547950A94E2F740FF04C0EB
:1043A000482F4095F422CDCC9E85F92ACACC0830FE
:1043B00009F4FACC6091850170E0002E02C0759579
:1043C00067950A94E2F7B62FB170FB2EF3CC112358
:1043D00009F4DFC0C12ED12CDF86CE86C601880F3E
:1043E000991FEDB6FEB6E81AF90A0FB6F894FEBEAC
:1043F0000FBEEDBE2DB73EB72F5F3F4F690120E0E6
:104400001097A1F013968C9113978F3F51F0822F44
:1044100090E0880F991F8C0D9D1DFC01B183A08336
:104420002F5F19960D90BC91A02DEACFF601A081C7
:10443000B18112968C9112978E7F12968C935601B1
:10444000D60100E0FF24F3941F15F1F012968D9130
:104450009C911397FC0122812E7F22832D913D9107
:1044600065817681F901458156816417750750F49D
:1044700011963C932E939D0122503109F9019183AD
:10448000808301E0F394E0CF0111D9CFD60161E040
:104490001617D9F012962D913C911397F901858149
:1044A0009681FD01408151811296FA014581568124
:1044B0008417950721F0841B950B069720F4F901CA
:1044C0008281816082836F5FE3CFF8947601D701A8
:1044D000ED91FD917D016281669561706925838111
:1044E0000E94B8080F5F1013F2CF789406B5EE243F
:1044F000E394F12CD12CC12CE02FF0E0FB8FEA8F5C
:10450000D501ED91FC9185819681EA8DFB8D8E0F11
:104510009F1FBC0164507109402F06B5041708F4B1
:10452000D3949601200F311DD501ED91FC91119787
:10453000428140FD09C06217730730F4F894ED9191
:10454000FC91428141604283402F8217930728F7F4
:10455000D501ED91FC9162816695617083810E9425
:10456000B808EE85FF85EE16FF063CF4D5011296DD
:10457000ED91FC91828180FD01C07894B2E0AB0E98
:10458000B11CEFEFEE1AFE0A8FEF8E0D811708F4C3
:10459000B7CF0FB6F8943EBE0FBE2DBE80919B01E3
:1045A00081FF7EC0BE016F5F7F4F87E00E94FE0DDE
:1045B0008981813409F04BC0F09086010E94230E5E
:1045C00087FFF09480917F018F1509F440C00F2D73
:1045D00010E0E5E1FDE0E49061E08E2D0E94E60848
:1045E0000115110529F460E08E2D0E94B8082DC038
:1045F0000F3F110511F461E0F7CFEE2DF0E0E6502A
:10460000F34FE491E33009F49BC048F4E130C9F082
:10461000E23009F490C0003811056CF7E4CFE730C0
:1046200009F498C0E83009F49DC0E430A1F7809106
:10463000800080628093800010938B0000938A003A
:1046400004C084B5806884BDF7BCF0927F01CE01C0
:104650000A960E94270E909186018B8583FD909586
:1046600080917E018917E1F0282F30E0492F50E03A
:10467000891708F083C0421B530B433051050CF0DF
:1046800079C090937E0160917E0170E069507F4F08
:10469000660F771F660F771F88E093E00E94A90CD2
:1046A00080EBC82E82E0D82E0EE611E0F12CE12C32
:1046B0009AE0B92EAE2CD60113968C918F3F09F457
:1046C0008AC0BE016F5F7F4F8E2D0E94FE0D4E810E
:1046D0005F8128853985F901BA014217530710F027
:1046E000FA01B9018091850190E002C09595879506
:1046F000AA94E2F7B82FB170AB2E80FF47C04217E3
:10470000530708F447C0F801808191812A813B81D9
:10471000A11002C02C813D81821B930BB69E90019B
:10472000B79E300D11248217930708F4A0C0D8015A
:104730008D939C9346C084B5806284BDF8BC85CFC0
:10474000809180008068809380001093890000939E
:1047500088007BCF8091B00080688093B000F09299
:10476000B30073CF8091B00080628093B000F0926C
:10477000B4006BCF8D5F80937E0185CF241B350BFA
:10478000233031050CF47DCF8350F5CF2417350746
:1047900008F0B9CFD8018D919C912A813B81A1105D
:1047A00002C02C813D81820F931FBE9E9001BF9E4F
:1047B000300D11242817390708F455C0F8019183EA
:1047C0008083D8018D919C916AE070E00E9424253D
:1047D000C6010E94A90CBFEFEB1AFB0AEBE0CE0E5C
:1047E000D11C0E5F1F4FF8E0EF16F10409F062CF05
:1047F0008091990190919A01DC01ED91FC910190D9
:10480000F081E02D64E009958823E9F08091810131
:1048100080FF19C08091990190919A016C856F7108
:10482000DC01ED91FC910280F381E02D0995BC0142
:1048300090E080E04AE00E94170D86E19DE00E9432
:104840002B080E94D40FE0E0F0E0EF2B11F40C9461
:10485000F4190E94A807882311F40C94F0190E94FF
:1048600000000C94F019D8012D933C93AACFF801C5
:1048700031832083A6CFFC0188279927E8942191D2
:104880002032E9F3293010F02E30C8F32B3241F0FA
:104890002D3239F4689404C00E947224820F911D55
:1048A000219120532A30C0F31EF4909581959F4F9B
:1048B0000895FB01DC0102C005900D92415050406B
:1048C000D8F70895FB01DC018D9105908019011046
:1048D000D9F3990B0895FB01DC0105900D9200209E
:1048E000E1F708957AE0979F902D879F802D910D95
:1048F00011240895F999FECF92BD81BDF89A9927A8
:1049000080B50895A8E1B0E042E050E00C94A12405
:10491000262FF999FECF92BD81BDF89A019700B478
:10492000021639F01FBA20BD0FB6F894FA9AF99A18
:104930000FBE08950E94AF24272F0C94B024DC01F1
:10494000CB01FC01F999FECF06C0F2BDE1BDF89A9A
:10495000319600B40D9241505040B8F70895262F7B
:10496000F999FECF1FBA92BD81BD20BD0FB6F89454
:10497000FA9AF99A0FBE01960895052E97FB1EF438
:1049800000940E94D42457FD07D00E94E72407FC1E
:1049900003D04EF40C94D424509540953095219535
:1049A0003F4F4F4F5F4F089590958095709561955B
:1049B0007F4F8F4F9F4F08950E940925A59F900D0F
:1049C000B49F900DA49F800D911D11240895A1E224
:1049D0001A2EAA1BBB1BFD010DC0AA1FBB1FEE1F79
:1049E000FF1FA217B307E407F50720F0A21BB30BC4
:1049F000E40BF50B661F771F881F991F1A9469F740
:104A000060957095809590959B01AC01BD01CF019B
:104A10000895A29FB001B39FC001A39F700D811D97
:104A20001124911DB29F700D811D1124911D0895B7
:104A3000991B79E004C0991F961708F0961B881FF0
:104A40007A95C9F780950895AA1BBB1B51E107C051
:104A5000AA1FBB1FA617B70710F0A61BB70B881F0E
:104A6000991F5A95A9F780959095BC01CD0108959D
:104A700097FB072E16F4009407D077FD09D00E940B
:104A8000242507FC05D03EF4909581959F4F08950D
:104A9000709561957F4F0895EE0FFF1F0590F4917B
:104AA000E02D0994FC018191861721F08823D9F724
:0E4AB000992708953197CF010895F894FFCF0C
:104ABE00FF0800000000DE073E076B0746089C0754
:104ACE007A078E07000000005409E50D5309000017
:104ADE000000D40ABF0A530900000000620C590CF2
:0C4AEE005309000000008E0C8B0CF10C32
:00000001FF
