:100000000C94BE090C94E6090C94E6090C942D247A
:100010000C94E7230C94A1230C94E6090C94E609B4
:100020000C94E6090C94E6090C94E6090C94E60994
:100030000C94E6090C94E6090C94E6090C94E60984
:100040000C9457230C94E6090C9425230C94FF225E
:100050000C94E6090C94E6090C94E6090C94E60964
:100060000C94E6090C94E6090D000A005300505365
:100070000049530050534900504953004953490027
:10008000494953006A0068004469676974616C20DB
:100090004F75747075740052432050574D204F7542
:1000A000747075743000204D6F64652C2073696D19
:1000B000706C792068697420456E746572005120F7
:1000C0002D3E205175697420746865205465726DE9
:1000D000696E616C204D6F646520616E642073777A
:1000E0006974636820746F205243204D6F64652EDD
:1000F00020546F20737769746368206261636B209A
:10010000746F205465726D696E616C00443F202DE0
:100110003E2052657475726E207468652044656275
:100120007567204C6576656C00443D446562756773
:100130004C6576656C202D3E20536574207468658F
:10014000204465627567204C6576656C3A203120E5
:100150002D3E2050756C73652057696474682C209F
:1001600032202D3E20436D64204368616E67650038
:1001700045433F202D3E2052657475726E20746891
:10018000652043757272656E74206F6620737445C6
:1001900070206E756D6265723A207878206F7220DB
:1001A0005220666F72205265736574207374617497
:1001B000650020737445702C205220746F205265A6
:1001C000736574207468652073657175656E636509
:1001D0002028616C6C20746865206F75747075746C
:1001E00073206172652064697361626C65642900C3
:1001F00045433D2B2F2D2F52202D3E20536574203B
:100200007468652043757272656E742073744570EE
:100210003A202B20746F20676F20746F206E6578F2
:100220007420737445702C202D20746F20676F200C
:10023000746F207468652070726576696F757300DD
:100240004578783F202D3E2052657475726E20747B
:10025000686520636F6E6669677572656420737484
:100260004570206E756D62657220787800204F466B
:1002700046206D65616E73207468617420616C6CDA
:1002800020746865206F75747075742061726520C4
:1002900064697361626C656420666F72207468655E
:1002A000207374457020457878004578783D537800
:1002B0002B53792B537A2F4F46462D3E205365748E
:1002C000206F75747075747320746F20656E616231
:1002D0006C6520666F7220746865207374457020A9
:1002E0006E756D626572207878202878783A2031B2
:1002F00020746F203136292E00454E3F202D3E20A0
:1003000052657475726E2074686520636F6E6669DD
:100310006775726564206E756D626572206F662008
:100320007374457073206F6620746865205365711F
:1003300075656E636500454E3D7878202D3E2053EF
:10034000657420746865206E756D626572206F66D5
:100350002073744570732069662050726F746F63E8
:100360006F6C2069732053657175656E6365202815
:1003700078783A203120746F203136290020423DB0
:10038000787878782C787878782C787878782C78D1
:100390007878782C787878782C787878782C7878C1
:1003A00078782C7878787800423F202D3E2052656E
:1003B0007475726E207468652070756C7365207733
:1003C000696474682028696E2075732920617373CD
:1003D0006F63696174656420746F20656163682070
:1003E0006F6620746865203820427574746F6E7370
:1003F0003A00423D43202D3E2053746172742074B4
:10040000686520427574746F6E2043616C69627216
:100410006174696F6E2070726F6365737300413829
:100420003F202D3E2052657475726E2074686520E1
:1004300050726F702076616C7565206F66207768EA
:10044000656E20533820696E20416E616C6F6720A5
:1004500077697468204469676974616C20436D64CE
:100460000041383D416E6150726F70202D3E205327
:100470006574207468652050726F702076616C75A9
:1004800065206F66207768656E20533820696E207E
:1004900070776D20416E616C6F672077697468209A
:1004A0004469676974616C20436D64002053383D72
:1004B000413B4E2F493B502F443A50776D50657267
:1004C00043656E74253A302F31207768656E20645D
:1004D000726976656E20696E204469676974616C23
:1004E000206D6F646520287573696E672041382020
:1004F00076616C7565290020502F443A50776D5015
:10050000657243656E74253A50726F7056616C75F2
:1005100065202865673A2053383D413B493A3130E0
:1005200030253A30303029207768656E2064726952
:1005300076656E20696E2050726F70206D6F6465F5
:1005400020616E64200053383F202D3E205768659F
:100550006E20533820636F6E66696775726564201C
:10056000617320416E616C6F672C20746865206137
:100570006E7377657220746F207468652053383FFE
:1005800020636F6D6D616E642069732053383D4147
:100590003B4E2F493B00206F722053383D787878CE
:1005A00025207365747320746865207065726365B7
:1005B0006E74616765206F662070776D2028302526
:1005C0002D31303025290053383D7878785B255D12
:1005D000202D3E205768656E20533820636F6E666D
:1005E00069677572656420617320416E616C6F6725
:1005F0002C2053383D7878782073657473207468A4
:100600006520436D642050726F702056616C756573
:100610002028302D32353529002050726F706F72CE
:1006200074696F6E616C285029206F7220696E208A
:100630004469676974616C2028442920696E204EE2
:100640006F726D616C206F722050756C7365206DD8
:100650006F6465002061732070776D20416E616C5E
:100660006F67206F75747075742077697468204E99
:100670006F726D616C284E29206F7220496E76650D
:10068000727465642028492920706F6C61726974E6
:100690007920616E642064726976656E20696E20CF
:1006A0000053383D413B4E2F493B502F445B3B4E5E
:1006B0002F505D2D3E204164646974696F6E616CDA
:1006C0007920746F204469676974616C20616E647D
:1006D00020536572766F20547970652C2053382032
:1006E00063616E20626520636F6E6669677572650F
:1006F000640020436F6D6D616E6420737461747566
:100700007329206F722053783D423B4D3B4F6E441E
:1007100075723B4F66664475723A43206966206F76
:100720007574707574207820697320426C696E6BE3
:10073000207479706500204232414475723A43203A
:100740006966206F757470757420782069732061F4
:1007500020536572766F2C206F722053303D5858AD
:10076000583A43434320666F722050726F70205393
:100770006572766F20284320697320746865206352
:10078000757272656E740053783F202D3E2052655D
:100790007475726E2053783D443B4D3A4320696630
:1007A000206F7574707574207820697320446967B0
:1007B0006974616C2C206F722053783D533B4D3B24
:1007C000506F73413B506F73423B413242447572EC
:1007D0003B0053783D302F31202D3E2053696D75FD
:1007E0006C617465206120436D643D302F3120635E
:1007F0006F6D6D616E6420666F7220537820284E95
:1008000069636520666F72207465737420776974FC
:10081000686F75742052432900204F6E4475722012
:10082000616E64204F666644757220617265204F68
:100830006E2026204F6666206475726174696F6E43
:1008400020696E206D7320283634303030206D736F
:10085000204D6178290053783D423B4D3B4F6E441B
:1008600075725B3B4F66664475725D202D3E20536A
:1008700078206973206120426C696E6B206F7574FB
:1008800070757420696E206D6F6465204D20284D51
:100890003D4E6F726D616C206F7220503D50756CD3
:1008A000736564290020413242447572202620423B
:1008B000324144757220283634303030206D732038
:1008C0004D617829002050756C736564292E205085
:1008D0006F7341207573207768656E20436D643DAA
:1008E000302C20506F7342207573207768656E201E
:1008F000436D643D312C204475726174696F6E20C4
:100900006265747765656E20506F732041202620E4
:100910004220617265002053783D533B4D3B506F40
:1009200073413B506F73423B4132424475725B3BB3
:100930004232414475725D202D3E20537820697308
:10094000206120536572766F206F75747075742006
:10095000696E206D6F6465204D20284D3D4E6F728D
:100960006D616C206F720020746865206F75707502
:10097000742066726F6D203120746F20382C2078BF
:10098000203D20302069732072657365727665643E
:1009900020666F72207468652070726F70205365D6
:1009A00072766F290053783D443B4D202D3E2053F5
:1009B000782069732061204469676974616C206FD5
:1009C000757470757420696E206D6F6465204D209C
:1009D000284D3D4E6F726D616C206F722050756CAA
:1009E00073656429287820697320746865206964B8
:1009F000206F66004D3F202D3E2052657475726E4B
:100A00002074686520636F6E66696775726564201F
:100A10005243554C204D657373616765204D61707D
:100A200070696E67002053772E31362C204D3D5073
:100A3000495320666F722074686520317374204DAD
:100A4000533820563320616E64204D3D4953492070
:100A5000666F722074686520326E64204D533820B2
:100A600056330020563320206F6E20746865207343
:100A7000616D65206368616E6E656C2E20416E202D
:100A8000582D416E7920696E7374616E63652073B1
:100A900068616C6C20626520636F6E666967757251
:100AA000656420776974682050726F702E78202BEF
:100AB000002073696E676C65204D53382056332CC7
:100AC000204D3D5053206973207265636F6D6D65D5
:100AD0006E6465642E2057697468204F70656E419E
:100AE00056526320697420697320706F7373696252
:100AF0006C6520746F2075736520322078204D530B
:100B000038004D3D4D73674D617070696E67202DE3
:100B10003E2053657420746865204D617070696E65
:100B20006720696E20746865205243554C204D65DE
:100B3000737361676520286E6565646564207769F5
:100B4000746820503D523B466C292E466F722061DE
:100B500000463F202D3E2052657475726E207468E9
:100B60006520636F6E666967757265642050726F89
:100B7000702076616C756520696E206361736520F5
:100B80006F66204661696C7361666500463D46612B
:100B9000696C7361666550726F70202D3E205365DD
:100BA00074207468652050726F702076616C756572
:100BB00020696E2063617365206F66204661696CF1
:100BC0007361666520285243205369676E616C200B
:100BD0006C6F7374290053523D4E2F59202D3E20C7
:100BE0004170706C79207265766572736520285942
:100BF00029206F72206E6F20726576657273652092
:100C0000284E2920666F722050726F70204F7574C5
:100C10007075742028533029002049662030203C0C
:100C20003D20585858203C3D203235352C207365E6
:100C3000742050726F702056616C756520436F6D23
:100C40006D616E64002053303D58585858202D3E39
:100C500020496620393838203C3D205858585820C3
:100C60003C3D20323030382C207365742050726F38
:100C70007020536572766F20746F207468652058F9
:100C800058585820706F736974696F6E20696E20B0
:100C900075732E00503F202D3E2052657475726E84
:100CA0002074686520636F6E66696775726564207D
:100CB0004D756C74692D5377697463682050726F39
:100CC000746F636F6C00205020666F7220507573D4
:100CD000682D427574746F6E00202866726F6D20E7
:100CE0003020746F2033292C204620666F72204DEF
:100CF0005338204675746162612C204220666F7201
:100D00002042696E6172792028666F72204F5458B4
:100D100020616E6420455458292C204520666F724E
:100D200020454B4D46412C002077697468206C3D6E
:100D30004C20666F72204C6F77206C6576656C2056
:100D4000616E64206C3D4820666F72204869676858
:100D5000206C6576656C2C205220666F72205243A1
:100D6000554C2077697468206C3D46696C746572D7
:100D7000206C6576656C00503D4D7350726F746FDA
:100D80005B3B466C5D5B3B6C5D202D3E2053657488
:100D900020746865204D756C74692D537769746390
:100DA000682050726F746F636F6C20284D7350729F
:100DB0006F746F3A205320666F72205365717565AA
:100DC0006E6369616C00493F202D3E205265747549
:100DD000726E2074686520636F6E666967757265F0
:100DE0006420496E7465726661636500206F70747B
:100DF000696F6E616C202D206F72202B2074756ED0
:100E000065732074686520736F66742073657269FA
:100E1000616C2064617461207261746500205320EC
:100E2000666F7220534255532C5820666F722053C0
:100E300052584C2C205520666F722053554D442C2F
:100E4000204920666F7220494255532C2046206667
:100E50006F722043525346292C2043682069732027
:100E6000746865206368204EC2B02C00493D496E0D
:100E7000746572665B43685B3B2D2F2B5D5D202D97
:100E80003E205365742074686520524320496E7477
:100E900065726661636520284420666F722044692C
:100EA000676974616C2C205020666F722050574D1A
:100EB0002C4320666F72204350504D2C00543F202D
:100EC0002D3E2052657475726E2074686520636FC4
:100ED0006E66696775726564204C696E652054653D
:100EE000726D696E61746F7200543D43524C462FAF
:100EF00043522D3E2053657420746865204C696E02
:100F000065205465726D696E61746F7220746F2014
:100F100043524C46206F7220746F20435200433D71
:100F200046202D3E20536574207468652046616319
:100F3000746F72792064656661756C74207061727B
:100F4000616D65746572732028493D5020503D45A0
:100F50002053523D4E2053783D443B4E2900433FA1
:100F6000202D3E20446973706C617920746865207F
:100F700066756C6C20436F6E666967757261746923
:100F80006F6E20776974682073746174757328615B
:100F90006C6C2074686520636F6D6D616E64732086
:100FA0006C69737465642062656C6F7729002074C6
:100FB000686520646973706C6179206F662074685D
:100FC000652057656C636F6D65204D657373616750
:100FD0006520224D53382056782E792220696E20C4
:100FE000746865205465726D696E616C0020646977
:100FF0007361626C656420286E6963652C20666F7E
:101000007220636F6E66696720616E642074657319
:1010100074292E4164646974696F6E616C6C792CFB
:10102000207468697320636F6D6D616E64207472E3
:10103000696767657273003C2D2D27202D3E20497E
:101040006620456E7465722069732073656E742C1A
:10105000204D53382056782E79207374617973208F
:10106000696E205465726D696E616C204D6F6465A8
:1010700020616E64206661696C73616665206973C6
:1010800000483F202D3E2052657475726E732074A7
:101090006869732068656C7000455252003B0050CF
:1010A00042313A20004F4646004F46460080007CC1
:1010B000007800740071006E006C0042465250458A
:1010C00053445043535855494643524C46004352AB
:1010D0000043520043524C46004D53382056332EA5
:1010E0003420284329205243204E61767920323023
:1010F00032360000000000250028002B0000000010
:1011000008000201000003040700000000000000C6
:10111000000101410202410303410404410501446D
:1011200006024407034408044400D57FAAFE2B812D
:101130005429FC5683D702A87D52872DF8AC79D369
:10114000067BAE04D18550FA2FA471DB0E5A8F2591
:10115000F08D58F22773A60CD9F623895C08DD7749
:10116000A2DF0AA07521F45E8B9D48E23763B61CAE
:10117000C9B461CB1E4A9F35E0CF1AB06531E44E49
:101180009BE633994C18CD67B239EC4693C712B839
:101190006D10C56FBAEE3B91446BBE14C19540EA29
:1011A0003F42973DE8BC69C316EF3A904511C46EC3
:1011B000BBC613B96C38ED4792BD68C21743963C65
:1011C000E99441EB3E6ABF15C04B9E34E1B560CA5D
:1011D0001F62B71DC89C49E33619CC66B3E7329845
:1011E0004D30E54F9ACE1BB16472A70DD88C59F3E0
:1011F000265B8E24F1A570DA0F20F55F8ADE0BA145
:101200007409DC76A3F722885DD603A97C28FD57F4
:1012100082FF2A805501D47EAB8451FB2E7AAF0524
:10122000D0AD78D20753862CF9E4031C041C045477
:101230000454048C048C04C404C404FC04FC04346E
:101240000534056C056C05A405A405DC05DC051456
:101250000614064C064C0684068406BC06BC06F43E
:1012600006F4062C072C07640764079C079C07D428
:10127000072003E803E803DC05DC059808202000CC
:10128000200020202020202020202020202020207E
:1012900020202000202000200020202020202020AE
:1012A00020202020202020202020002000563A004E
:1012B000533A203120322033203420352036203755
:1012C0002038205000030405060708090A48FCB826
:1012D000FC28FD98FD08FE78FEE8FE58FFC8FF38A0
:1012E00000A80018018801F8016802D8024803B874
:1012F000032D3E007573003A00543D004661696C51
:1013000073616665210045433F00454E3F004C3FF9
:101310000041383F00463F0053523F00423F004DDE
:101320003F00503F00493F00543F00413F00413FD4
:1013300000433F003A20005042000D000000000032
:10134000240027002A000102040810204080010226
:1013500004081020010204081020000000002300EF
:101360002600290004040404040404040202020206
:10137000020203030303030373245D3811241FBE19
:10138000CFEFD8E0DEBFCDBF11E0A0E0B1E0EEE8E6
:10139000F3E702C005900D92A836B107D9F723E014
:1013A000A8E6B1E001C01D92A73FB207E1F719E03E
:1013B000CDEBD9E004C02197FE010E949339CC3BCC
:1013C000D107C9F70E944C250C94BA390C9400003F
:1013D0009091020121ED290F233020F4805D80934C
:1013E0000201089598529330E0F7875DF8CF862781
:1013F00020E1829FB00111248627482F50E0292F39
:10140000382FCA0164E0959587956A95E1F72827FA
:101410003927CA0173E0880F991F7A95E1F782276F
:1014200093270895AF92BF92CF92DF92EF92FF92EF
:101430000F931F93CF93DF936C017B018B01040FFC
:10144000151FEB015E01AE18BF08C017D10759F098
:101450006991D601ED91FC910190F081E02DC601DA
:101460000995892B79F7C501DF91CF911F910F91D4
:10147000FF90EF90DF90CF90BF90AF900895FC0168
:10148000538D448D252F30E0842F90E0821B930BE9
:10149000541710F0CF96089501970895FC01918D8F
:1014A000828D981761F0A28DAE0FBF2FB11D5D9692
:1014B0008C91928D9F5F9F73928F90E008958FEF34
:1014C0009FEF0895FC01918D828D981731F0828DE8
:1014D000E80FF11D858D90E008958FEF9FEF08953F
:1014E000FC01918D228D892F90E0805C9F4F821BA3
:1014F00091098F73992708958FE692E00E94700AF0
:1015000021E0892B09F420E0822F089580E090E00B
:10151000892B29F00E947C0A81110C940000089507
:10152000FC01A48DA80FB92FB11DA35ABF4F2C9158
:10153000848D90E001968F739927848FA689B7894F
:101540002C93A089B1898C91837080648C93938D46
:10155000848D981306C00288F389E02D80818F7DE9
:1015600080830895EF92FF920F931F93CF93DF93A1
:10157000EC0181E0888F9B8D8C8D98131AC0E889CF
:10158000F989808185FF15C09FB7F894EE89FF899E
:101590006083E889F98980818370806480839FBF3C
:1015A00081E090E0DF91CF911F910F91FF90EF903C
:1015B0000895F62E0B8D10E00F5F1F4F0F7311274C
:1015C000E02E8C8D8E110CC00FB607FCFACFE88987
:1015D000F989808185FFF5CFCE010E94900AF1CF75
:1015E000EB8DEC0FFD2FF11DE35AFF4FF0829FB7FB
:1015F000F8940B8FEA89FB8980818062CFCF0F93AB
:101600001F93CF93DF938C01D0E0C0E0F801EC0F83
:10161000FD1F6491662341F08FE692E00E94B20ABA
:10162000892B11F02196F2CFCE01DF91CF911F913E
:101630000F910895CF93DF93EC01888D8823B9F043
:10164000AA89BB89E889F9898C9185FD03C08081CD
:1016500086FD0DC00FB607FCF7CF8C9185FFF2CF4A
:10166000808185FFEDCFCE010E94900AE9CFDF9106
:10167000CF910895833081F028F4813099F0823041
:10168000A9F008958730A9F08830C9F08430B1F40A
:10169000809180008F7D03C0809180008F77809340
:1016A0008000089584B58F7784BD089584B58F7DBB
:1016B000FBCF8091B0008F778093B0000895809128
:1016C000B0008F7DF9CFCF93DF93282F30E0F90161
:1016D000E350FF4E8491F901EA5BFC4ED491F9018D
:1016E000EC59FC4EC491CC23A1F081110E943A0B1D
:1016F000EC2FF0E0EE0FFF1FE65AFC4EA591B491DF
:10170000EC91ED2381E090E009F480E0DF91CF914E
:10171000089580E090E0FACF1F93CF93DF93282FB6
:1017200030E0F901E350FF4E8491F901EA5BFC4E91
:10173000D491F901EC59FC4EC491CC23A9F0162F99
:1017400081110E943A0BEC2FF0E0EE0FFF1FED50DD
:10175000FF4EA591B4918FB7F894EC91111108C088
:10176000D095DE23DC938FBFDF91CF911F91089539
:10177000DE2BF8CFCF93DF9390E0FC01EA5BFC4EC9
:1017800024918C599C4EFC0184918823C9F090E0EF
:10179000880F991FFC01E45CFC4EA591B491FC01FB
:1017A000ED50FF4EC591D49161110DC09FB7F894D3
:1017B0008C91209582238C938881282328839FBF36
:1017C000DF91CF910895623051F49FB7F8943C9126
:1017D000822F809583238C93E8812E2BEFCF8FB7B8
:1017E000F894EC912E2B2C938FBFEACF1F93CF93BD
:1017F000DF93182FEB0161E00E94BA0B209739F4B8
:1018000060E0812FDF91CF911F910C948C0BCF3F23
:10181000D10511F461E0F5CFE12FF0E0E350FF4E88
:10182000E491E33031F140F4E130B1F0E230E1F045
:10183000C038D1057CF7E4CFE73029F1E83059F121
:10184000E430B1F780918000806280938000D09373
:101850008B00C0938A0004C084B5806884BDC7BD76
:10186000DF91CF911F91089584B5806284BDC8BD7A
:10187000F7CF80918000806880938000D0938900AA
:10188000C0938800EDCF8091B00080688093B00055
:10189000C093B300E5CF8091B00080628093B00028
:1018A000C093B400DDCF3FB7F8948091DE019091F2
:1018B000DF01A091E001B091E10126B5A89B05C030
:1018C0002F3F19F00196A11DB11D3FBFBA2FA92FBF
:1018D000982F8827BC01CD01620F711D811D911DBC
:1018E00042E0660F771F881F991F4A95D1F7089528
:1018F0002FB7F8946091DA017091DB018091DC01DF
:101900009091DD012FBF0895A0915A03B0915B0320
:10191000E0915E03F0915F03808150915D03852328
:1019200091E009F090E01C968C911C97282F217073
:10193000921709F44EC0909101019A95F1F71D9606
:101940000D90BC91A02D6091020140E021E030E0BB
:1019500073E09081952351F0422B220F331F2A17F9
:101960003B0740F4962F9A95F1F7F3CF972F9A956E
:10197000F1F7F3CF80FD40952091D8019091D701E8
:1019800030E02F5F3F4F2F73332792171306E1F09C
:10199000E091D801869583708B5F21E030E0B9013A
:1019A00002C0660F771F8A95E2F7CB01815084232E
:1019B000F0E0E956FE4F80838091D80190E00196D7
:1019C0008F7399278093D8018BB390915C03892BF7
:1019D0008BBB08959091D7018091D801981741F061
:1019E000E091D701F0E0E956FE4F808190E0089544
:1019F0008FEF9FEF08958FB7F8941092D80110924F
:101A0000D7018FBF089581E090E008958091D801BB
:101A10002091D70190E0805C9F4F821B910960E488
:101A200070E00E947F3908959091D7018091D8018C
:101A3000981789F0E091D701F0E0E956FE4F8081D8
:101A40002091D70130E02F5F3F4F2F733327209332
:101A5000D70190E008958FEF9FEF089590E080E028
:101A60000895962728E0AC01880F991F57FF04C0FE
:101A700031E2832730E193272150A9F70895089593
:101A8000FC01E35BFF4F9081492F50E0062E02C01E
:101A9000559547950A94E2F7DA01A170BB2740FFFC
:101AA00009C021E030E001C0220F6A95EAF72095D5
:101AB000292320838A2F0895E09196013AE0E39F3D
:101AC000F0011124E559FE4F27818091950188305E
:101AD00008F046C03091950181E090E002C0880F87
:101AE000991F3A95E2F7E09196014AE0E49FF001F0
:101AF0001124E559FE4F3185232330E082239323BF
:101B0000892B09F460C00E94530C209193013091FD
:101B10009401AB01421B530B9A01709394016093A3
:101B20009301283B5BE03507C8F120919201209397
:101B30009101109292012FEF2093900130918F012B
:101B400020918F012E7F30FF216020938F01209103
:101B50008F0120FF18C070938E0160938D0108954E
:101B600080919501409195018E3050F44850550B6D
:101B700081E090E002C0880F991F4A95E2F7B3CF49
:101B80004E50550BF5CF20918D0130918E01621B87
:101B9000730B70938C0160938B0108958091920177
:101BA000893088F480918F0186958F719091920190
:101BB000891304C030938A01209389018091920196
:101BC0008F5F809392010895662381F08091910147
:101BD000861760F08091890190918A012091890196
:101BE00030918A0182179307A9F708958CED95E04B
:101BF00008952091900130E0062E02C0359527957A
:101C00000A94E2F7C9018170992720FF0CC0409126
:101C1000900121E030E001C0220F6A95EAF720959B
:101C200024232093900108952091680094E0883047
:101C300048F031E08E3008F430E091E001C0990FB7
:101C40003A95EAF7922B90936800EDE6F0E0883041
:101C500030F0EBE6F0E08E3010F0ECE6F0E04081A2
:101C6000282F30E0883048F491E001C0990F8A9520
:101C7000EAF7892F842B808308958E3040F4285012
:101C8000310981E001C0880F2A95EAF7F3CF2E5081
:101C90003109F7CF0F931F93CF93DF9392E08830F2
:101CA00028F08E5091E0883008F090E040E05AE053
:101CB000959FD0011124AF58BE4F292F092E000C3B
:101CC000330B55E0959FC0011124C42F042E000C46
:101CD000DD0B5C915C171D0609F00CF453C0FC0190
:101CE000EC0FFD1FEE0FFF1FE559FE4F0081118124
:101CF0000617170711F04F5FE8CF47FD43C0118269
:101D000010828C918150990BC817D90751F18AE044
:101D1000829FE001839FD00D1124CF58DE4F55E004
:101D2000529FC001539F900D1124E42FF0E0688171
:101D30006150770BE617F707A4F4DF011196A80F9F
:101D4000B91FAA0FBB1FA559BE4F6D917C91E80F1B
:101D5000F91FEE0FFF1FE559FE4F718360834F5F40
:101D6000E4CF8AE0829FF001839FF00D1124E559B2
:101D7000FE4F86818150868381E0DF91CF911F9154
:101D80000F91089580E0F9CF809160038631C8F407
:101D9000EDE6F0E0883030F0EBE6F0E08E3010F069
:101DA000ECE6F0E09081482F50E0883070F421E0BC
:101DB00030E0082E01C0220F0A94EAF7209529236B
:101DC000208364E87CE00C944A0E8E3048F448503E
:101DD000510921E030E001C0220F4A95EAF7EECF29
:101DE0004E505109F6CF8830B8F192EF980F81E04C
:101DF000983008F080E0482F082E000C550B9AE030
:101E00008902F0011124E559FE4F208131816217CA
:101E1000730729F1228133816217730701F124814D
:101E2000358162177307D9F096819330B8F4A68193
:101E300095E0949F9001959F300D1124A20FB32F30
:101E4000B11DAA0FBB1FA559BE4F11967C936E936F
:101E500096819F5F9683089582E0CDCF8FEF08959E
:101E6000CF92DF92EF92FF92CF936B017C0150E013
:101E7000BA0175956795962F9370990F80917D03A0
:101E8000817EFA01A4E0F595E795AA95E1F7E37064
:101E9000EE0FEE0FEE0F892B8E2B80937D03982F84
:101EA0009871983121F4877E886080937D0393E058
:101EB000559547959A95E1F780917D0340FB85F90B
:101EC00020FB80F980937D03887121E030E011F4DC
:101ED00030E020E0637077276B5F7F4F620F731FE6
:101EE00081E090E002C0880F991F6A95E2F7909315
:101EF0007F0380937E03C09160038C2F90E0FC01F0
:101F0000EA5BFC4E2491FC01EC59FC4EE491F0E0BC
:101F1000EE0FFF1FE45CFC4EA591B4918C91E22F73
:101F2000E095E823EC9380917D0380FD04C061E09F
:101F30008C2F0E948C0B80EAC81686E8D80681E0B8
:101F4000E806F104B1F0C11482ECD80681E0E8069D
:101F5000F104B1F064E87CE08C2F0E94F30EC631EE
:101F6000A0F48C2FCF91FF90EF90DF90CF900C9446
:101F7000140E8AE18093010180E380930201EACF8D
:101F800080E18093010189E2F8CFCF91FF90EF903B
:101F9000DF90CF900895BF92CF92DF92EF92FF92A1
:101FA0000F931F93CF93DF930E94530C6B017C011F
:101FB000C0916901D0916A01BB24BA9401E010E09C
:101FC000209709F445C08D818370823001F52091FE
:101FD0008601422F50E08C81282F30E08830D8F4E1
:101FE0009801082E02C0220F331F0A94E2F724231F
:101FF0003523232B61F00E94630B9D8192FB99276F
:1020000090F99817B9F0CA86DB86EC86FD860A80BF
:10201000DB81C02DD5CF8E3050F428503109B80166
:1020200002C0660F771F2A95E2F79B01E0CF2E5082
:102030003109F5CF8A859B85AC85BD859601281B26
:10204000390B3F872E87B88A0E94780C698BDFCFC7
:10205000DF91CF911F910F91FF90EF90DF90CF9084
:10206000BF900895BF92CF92DF92EF92FF920F93AD
:102070001F93CF93DF930E94530C6B017C01C0919F
:102080006901D0916A0101E010E0BB24BA94209765
:1020900009F445C08D818370813001F520917C0168
:1020A000422F50E08C81282F30E08830D8F49801FE
:1020B000082E02C0220F331F0A94E2F7242335238F
:1020C000232B61F00E94630B9D8192FB992790F96D
:1020D0009817B9F0CA86DB86EC86FD860A80DB811C
:1020E000C02DD5CF8E3050F428503109B80102C030
:1020F000660F771F2A95E2F79B01E0CF2E5031093A
:10210000F5CF8A859B85AC85BD859601281B390B4B
:102110003F872E87B88A0E94780C698BDFCFDF91CA
:10212000CF911F910F91FF90EF90DF90CF90BF90D4
:102130000895BF92CF92DF92EF92FF920F931F9379
:10214000CF93DF930E94530C6B017C01C091690116
:10215000D0916A01BB24BA9401E010E0209709F401
:1021600044C08D81837001F520917201422F50E0AF
:102170008C81282F30E08830D8F49801082E02C0D6
:10218000220F331F0A94E2F724233523232B61F017
:102190000E94630B9D8192FB992790F99817B9F0E3
:1021A000CA86DB86EC86FD860A80DB81C02DD6CF11
:1021B0008E3050F428503109B80102C0660F771FE5
:1021C0002A95E2F79B01E0CF2E503109F5CF8A85A1
:1021D0009B85AC85BD859601281B390B3F872E87D3
:1021E000B88A0E94780C698BDFCFDF91CF911F9165
:1021F0000F91FF90EF90DF90CF90BF900895FC017A
:10220000868597852685378582179307C9F70895B0
:10221000FC01808990E0062E02C0959587950A946E
:10222000E2F780FF1CC0208981E090E001C0880FA8
:102230006A95EAF780958223808B26853785868587
:10224000978528173907C9F7868197812817390795
:1022500030F081E0408551854217530708F480E053
:10226000089590E080E008952091FF0130E0062E6F
:1022700002C0359527950A94E2F7C9018170992724
:1022800020FF0CC04091FF0121E030E001C0220F8F
:102290006A95EAF7209524232093FF010895CF92B1
:1022A000DF92EF92FF92CF93DF93EC01CF8030E18A
:1022B000C39E60011124C601C616D70608F4CB01DF
:1022C000288530E1239FF0011124AF018E179F076D
:1022D00008F4AC0170E060E0DB01CA0122E0B595D2
:1022E000A795979587952A95D1F79E838D830D2C79
:1022F000000CEE08FF089A01AB012C193D094E09AC
:102300005F09A4EBB0E00E9423399F01FF0F440B4B
:10231000550B2C193D094E095F090E9404392C8385
:10232000DF91CF91FF90EF90DF90CF9008950C94C4
:102330004F11813059F090916801823029F1892F35
:10234000992331F081508093680126C01092680172
:10235000E09168019FEF9E0F903110F5E60FF72F87
:10236000F11D9085DB011296EC912E2F30E0F901E2
:10237000EE0FFF1FE20FF31FED5FFE4FE281F0E073
:10238000EA5DFD4F90830895DB0118968C919817B4
:1023900028F49F5F9093680181E0DACF80E0D8CF86
:1023A00090E0E0CFFB014530B1F460E177E20E94BC
:1023B0006B39605D6083319668EE73E00E946B3923
:1023C000605D6083319664E670E00E946B39605D09
:1023D0006083319604C0443079F34230A1F76AE05B
:1023E00070E00E946B39605D6083805D8183128242
:1023F00008958F929F92AF92BF920F931F93CF93A6
:10240000DF93CDB7DEB7A1970FB6F894DEBF0FBE4E
:10241000CDBF19A2423008F44AE08E010F5D1F4F74
:10242000842E912CB12CA12CA50194010E942E394F
:10243000E62FB901CA01EA3044F5E05DD801EE9318
:102440008D01232B242B252B79F790E080E010972A
:1024500069F0FD0101900020E9F73197AF014A1BB7
:102460005B0BBD018FE692E00E94120AA1960FB6A7
:10247000F894DEBF0FBECDBFDF91CF911F910F91BA
:10248000BF90AF909F908F900895E95CD7CFBC012B
:10249000990F880B990B4AE00C94F911FC010190FB
:1024A0000020E9F73197AF01481B590BBC018FE6BB
:1024B00092E00C94120AEF92FF920F931F93CF9326
:1024C000DF9399E2899FE00111248E01055E1F4F81
:1024D0007B01CC5BDF4FC8010E94C138F7018193BB
:1024E0007F010F5F1F4F0C171D07A9F7DF91CF91D9
:1024F0001F910F91FF90EF90089589E190E00C9467
:10250000C1380F931F93CF93DF938C01D0E0C0E0CD
:10251000CE010E94C138F80181938F012196C93103
:10252000D105B1F7DF91CF911F910F9108950F93CE
:102530001F93CF93DF93CDB7DEB769970FB6F894AB
:10254000DEBF0FBECDBF8C01CE0101960E9481126D
:1025500080912E0290912F02892B51F18981982F21
:102560009295969597708A818170880F880F880F51
:10257000892BD8019C91292F229526952770119699
:102580009C919170990F990F990F922B813009F0BE
:1025900044C0913009F44EC0F89480916B00877F5D
:1025A00080936B0069E970E18BE00E944A0E789499
:1025B000D801EC918E2F8295869587701196EC91BB
:1025C000E170EE0FEE0FEE0FE82B80912E0290914E
:1025D0002F02892B71F08981982F9295969597708B
:1025E0008A818170880F880F880F892B8E1709F4D4
:1025F00060C0809159028F7E80935902E830A0F527
:10260000F0E0EB5FFC4E0C9493392513B813FC13E8
:10261000421450145D146A147714823059F49230C5
:1026200049F0F89480916B00877F80936B006CE594
:102630007DE0BACF835F8F70853008F0B9CF9330DB
:1026400008F0B6CF0E94C40EB3CFF801878160E0D6
:10265000811101C062E08BE00E94BA0B82E893E036
:1026600090932F0280932E02D8018C91982F9295EF
:102670009695977011968C9111978170880F880F9D
:10268000880F892B8330A8F014968C910E94E8095A
:1026900081E793E090930F0380930E038CE093E027
:1026A00090932F0280932E02809159028061809333
:1026B0005902F894F801808120912E0230912F0266
:1026C00030936703209366038F71806C809365035A
:1026D00010926D0380916E0390916F03409170038F
:1026E000407F49604093700383719C779260909320
:1026F0006F0380628F7E80936E0310926903109245
:102700006A0391819295969593708C7F892B809323
:102710006E0380818F7130931C0220931B02982FCF
:10272000990F990F809120028370892B809320024A
:102730001092210280912402807B80932402808168
:102740008F718150893040F48F71880F90918F0183
:10275000917C892B80938F01789469960FB6F894B9
:10276000DEBF0FBECDBFDF91CF911F910F910895B6
:1027700062E08BE00E94BA0B809187038C7F80938C
:10278000870369E970E18BE00E94F30E982F937044
:10279000809187038C7F892B809387038BE08093C4
:1027A000860388E592E0909389038093880380E60E
:1027B00099E090938B0380938A03809169019091B3
:1027C0006A01909385038093840382E893E0909359
:1027D0006A018093690160E08BE00E94BA0B61E0BE
:1027E000809186030E948C0B80918603863108F0CD
:1027F00035CF0E94140E32CF62E08BE00E94BA0BFC
:1028000083B190916B00892380937401809174014E
:102810008093730186B190916C00892380937E012F
:1028200080917E0180937D0189B190916D00892313
:102830008093880180918801809387016CE57DE019
:102840008BE00E94F30E809396018091960187FDA4
:1028500016C08CED95E090938A01809389018AE0FF
:102860008093920110929101109290018BE08093DD
:10287000950180919501863110F40E94140E80E834
:1028800093E0EECE21E04EE260EA76E881E090E06F
:102890000E94300F80911003807F80931003E4CE5C
:1028A00020E046E060E072EC81E090E00E94300FB2
:1028B00080911003807F8160F0CF20E046E060E0EF
:1028C00072EC81E090E00E94300F80911003807FD5
:1028D0008360E3CF20E046E060E072EC81E090E0CE
:1028E0000E94300F80911003807F8460D6CF20E05B
:1028F00046E060E072EC81E090E00E94300F809151
:102900001003807F8660C9CFCF93DF93CDB7DEB74A
:1029100069970FB6F894DEBF0FBECDBFCE0101960A
:102920000E948112EA810E2E000CFF0BEE27FF0F92
:10293000EE1FFF27EE0FFF1FEC57FF4F859194917D
:102940000E94FF0A69960FB6F894DEBF0FBECDBF96
:10295000DF91CF910895DC0114968C9114978F70BC
:10296000843080F48130A8F06150862F90E0880F89
:10297000991FA80FB91F9D962D913C9132272327AF
:10298000322729C0863008F412C120E034E08630B6
:1029900011F5615020E038E06031E8F4E62FF0E016
:1029A000EC52FB4E0C949339E414ED14FF141915FA
:1029B000271536154E155F15711577158015971566
:1029C0009E15A615BB15C5159D962C919D979E9697
:1029D0008C91382F3770C90108959E969C919E97CF
:1029E0009695969596959F968C91482F4295440F73
:1029F000407E242F292B869586958695EACF9F9633
:102A00009C919F979295969596959370D0968C9160
:102A1000D097482F440F440F242F292B982F92959D
:102A2000969596959370D1968C918170880F880FAA
:102A300032C0D1969C91D1979695D2968C91482F81
:102A4000479544274795242F292B8695C2CFD296A8
:102A50009C91D29792959F70D3968C91482F4295D6
:102A6000407F242F292B82958F70B3CFD3969C91D2
:102A7000D397991F9927991FD4968C91D497482F53
:102A8000440F242F292B982F991F9927991FD596EA
:102A90008C918370880F382F392B9DCFD5969C91C0
:102AA000D59796959695D6968C91482F4295440F3A
:102AB000440F407C242F292B869586958ACFD69665
:102AC0008C91D697829586958770D7969C91492F41
:102AD000440F440F440F242F282B392F329536955D
:102AE00079CFD8962C91D897D9968C9172CFD996C8
:102AF0009C91D997969596959695DA968C9175CFE7
:102B0000DA969C91DA979295969596959370DB96C6
:102B10008C91DB97482F440F440F242F292B982F9B
:102B20009295969596959370DC968C917ECFDC96D7
:102B30009C91DC979695DD968C9181CFDD969C914A
:102B4000DD9792959F70DE968C9188CFDE969C9152
:102B5000DE97991F9927991FDF968C91DF97482F51
:102B6000440F242F292B982F991F9927991FA05C78
:102B7000BF4F8C918ECFFD01E05CFF4F9081969509
:102B80009695AF5BBF4F8C9190CFFD01EF5BFF4FF0
:102B90009081929596959770AE5BBF4F8C91482F20
:102BA000440F440F440F242F292B382F97CF615007
:102BB000862F90E0880F991FA80FB91F9D962D9121
:102BC0003C9109CFCF93DF932FEF260F203108F0F0
:102BD00075C0EC010E94AB149C01EC81EF70E730F2
:102BE00008F06CC0F0E0E950FA4E0C949339FE15F1
:102BF00010161F163A160C1634164F16A0E0B5E044
:102C00000E9450392FEF37E040E050E00E94043935
:102C100020593C4F4F4F5F4FC901DF91CF9108952D
:102C2000A8E7B5E00E9450392FEF3FE040E050E0C8
:102C30000E940439205E3C4F4F4F5F4FEDCF50E074
:102C400040E0205A3A4241095109A8EEB3E00E94FF
:102C5000233924EB3AEA40E050E00E94043928513D
:102C60003C4F4F4F5F4FD8CF83E0369527958A95DD
:102C7000E1F7D2CF50E040E020523C4141095109F8
:102C8000A0EBB4E00E94233920E835E240E050E0B8
:102C90000E9404392C573C4F4F4F5F4FBDCF50E03F
:102CA00040E02F5B310941095109A8EEB3E00E94D1
:102CB000233921E436E040E050E0CFCF2CED35E081
:102CC000ABCF8F929F92AF92BF92CF92DF92EF9253
:102CD000FF920F931F93CF93DF936C014B015A0127
:102CE000D8011C92FA01D0E011921192DF5F2D13EE
:102CF000FBCFF6018081882309F443C0F4010190E1
:102D00000020E9F731977F01E818F908C0E0FF24B7
:102D1000B401C6010E94A039009711F1DC011C9298
:102D2000D801EC9121E02E0F2C93F0E0EE0FFF1F65
:102D3000EA0DFB1DD182C0826C01CE0CDF1CCF5F7F
:102D4000DC13E6CF8C2FDF91CF911F910F91FF9075
:102D5000EF90DF90CF90BF90AF909F908F900895AD
:102D6000F801C081D6018C91882361F38C2F90E00B
:102D7000880F991FA80EB91EF501D182C082CF5FBE
:102D8000E1CF80E0E0CFEF92FF920F931F93CF93BC
:102D9000DF9399E2899FE00111248E01055E1F4FA8
:102DA0007B01CC5BDF4FF70161917F01C8010E947D
:102DB000CF380F5F1F4F0C171D07A9F7DF91CF9179
:102DC0001F910F91FF90EF9008950F931F93CF9352
:102DD000DF938C01D0E0C0E0F80161918F01CE015A
:102DE0000E94CF382196C931D105B1F7DF91CF913B
:102DF0001F910F910895DF92EF92FF920F931F930F
:102E0000CF93DF93CDB7DEB7C356D1090FB6F89491
:102E1000DEBF0FBECDBF85E22C968FAF2C9788E822
:102E20002D968FAF2D9785E02E968FAF2E972F96EC
:102E30001FAE2F9760961FAE609780E561968FAFAB
:102E4000619790E862969FAF629763961FAE639713
:102E500090E164969FAF649791E065969FAF659708
:102E600093E066969FAF669797E067969FAF6797E8
:102E70009FE068969FAF68979FE169969FAF6997BB
:102E80009FE36A969FAF6A979FE76B969FAF6B979A
:102E90009FEF6C969FAF6C976D961FAE6D9795E503
:102EA0006E969FAF6E979AEA6F969FAF6F9794E575
:102EB000A0969FAFA09798EAA1969FAFA197A296E0
:102EC0008FAFA29780EAA3968FAFA39780E4A496D2
:102ED0008FAFA497CE01855B9F4F0E94E5166FEFE1
:102EE00089E190E00E94CF3861E08AE190E00E94A1
:102EF000CF387E018AE2E80EF11C67E970E0C70175
:102F00000E948C38BE016F5F7F4F80E00E945B1291
:102F100080E2F701DE011A9601900D928A95E1F7A1
:102F2000BE016F5F7F4F80E00E94C31668E870E0CB
:102F3000C7010E948C3810E084E4D82E0E2DEF2CAF
:102F4000FF24F394F10EBE016F5F7F4F8F2D0E941F
:102F50005B12D9821F5C18AF19AE80E2E02FFE2D04
:102F6000DE011A9601900D928A95E1F7BE016F5F1E
:102F70007F4F8F2D0E94C3161F2D183009F7CD5992
:102F8000DF4F0FB6F894DEBF0FBECDBFDF91CF91FC
:102F90001F910F91FF90EF90DF9008953F924F9215
:102FA0005F926F927F928F929F92AF92BF92CF92D9
:102FB000DF92EF92FF920F931F93CF93DF93CDB7E2
:102FC000DEB7CB55D1090FB6F894DEBF0FBECDBF2B
:102FD000CE018A960E94811210913002183409F4B1
:102FE00090C00CF03FC0133409F407C26CF41134E4
:102FF00011F40C948F2214F00C943022112309F454
:1030000075C069E970E17AC0153409F40CC414F490
:103010000C94AD2280E01634A1F78F5F90E0AC01F4
:10302000405D5D4F7A01DA012C912D3311F00C9443
:103030009B228F5C9D4F0E946538092E000CAA0BC5
:10304000BB0B8F3F9105A105B10509F0D0F61634F1
:1030500011F00C9498228DA7CE018A960E94E51655
:10306000F701C7C2103509F4D5C20CF030C01C34CA
:1030700009F485C31D3409F447C3193411F680914E
:1030800031028D3309F074C2E0913202E354E6312B
:1030900008F04DC20E2E000CFF0BEF5AF74E0C94A9
:1030A0009339801A3B1A971A941A971A971A901AFA
:1030B000971A971A971A971A971A971A7C1A971AA3
:1030C000971A841A971A8C1A971A971A881A13350E
:1030D00009F4B6C4143509F49FC1113509F091CF34
:1030E000809159028E7F8093590293C18091590239
:1030F000816082608093590269ED70E180E392E023
:10310000B7C181E890E10E94FF0A0E94841487E31E
:1031100090E10E94FF0A0E9484148DEE9FE00E94BD
:10312000FF0A0E9484148EEA9FE00E94FF0A0E9418
:1031300084148EE59FE00E94FF0A0E9484148EE1B1
:103140009FE00E94FF0A0E94841489EE9EE00E9484
:10315000FF0A0E9484148DEB9EE00E94FF0A0E94E9
:1031600084148CE69EE00E94FF0A0E9484148DE184
:103170009EE00E94FF0A0E9484148CEE9DE00E9453
:10318000FF0A0E94841486EC9DE00E94FF0A0E94C0
:10319000841487E79DE00E94FF0A0E94841488E25D
:1031A0009DE00E94FF0A0E94841489ED9CE00E9429
:1031B000FF0A0E94841486EC9CE00E94FF0A0E9491
:1031C000841484E99CE00E94FF0A0E94841485E430
:1031D0009CE00E94FF0A0E94841489E19CE00E9406
:1031E000FF0A0E94841486ED9BE00E94FF0A0E9461
:1031F00084148CE89BE00E94FF0A0E94841481E5FD
:103200009BE00E94FF0A0E94841482E09BE00E94DF
:10321000FF0A0E94841481EB9AE00E94FF0A0E9438
:10322000841483E69AE00E94FF0A0E94841485E2D7
:103230009AE00E94FF0A0E94841484EF99E00E94A1
:10324000FF0A0E94841485EA99E00E94FF0A0E9406
:10325000841487E699E00E94FF0A0E94841486E1A4
:1032600099E00E94FF0A0E94841485EC98E00E9475
:10327000FF0A0E94841485EA98E00E94FF0A0E94D7
:10328000841486E598E00E94FF0A0E94841489E174
:1032900098E00E94FF0A0E94841482ED97E00E9449
:1032A000FF0A0E94841487E897E00E94FF0A0E94A8
:1032B000841486E397E00E94FF0A0E94841482EF40
:1032C00096E00E94FF0A0E94841481EA96E00E9420
:1032D000FF0A0E94841484E596E00E94FF0A0E947F
:1032E000841489E196E00E94FF0A0E94841487EC0E
:1032F00095E00E94FF0A0E94841486E995E00E94EE
:10330000FF0A0E94841486E495E00E94FF0A0E944E
:10331000841487EF94E00E94FF0A0E9484148CEAD0
:1033200094E00E94FF0A0E94841481E694E00E94C7
:10333000FF0A0E9484148EE194E00E94FF0A0E941A
:10334000841482EF93E00E94FF0A0E94841488EAAA
:1033500093E00E94FF0A0E9484148DE793E00E948C
:10336000FF0A0E94841486E393E00E94FF0A0E94F1
:10337000841489EF92E00E94FF0A0E9484148AEA72
:1033800092E00E94FF0A0E9484148DE692E00E945F
:10339000FF0A0E94841480E492E00E94FF0A0E94C7
:1033A000841480EF91E00E94FF0A0E94841482EB53
:1033B00091E00E94FF0A0E94841480E791E00E943D
:1033C000FF0A0E94841489E291E00E94FF0A0E9491
:1033D00084148CE091E00E94FF0A0E9484148EEB1A
:1033E00090E00E94FF0A0E94841486EA90E00E9406
:1033F000FF0A0E9484140C944822809131028D337C
:1034000009F0FFCD80913202863409F0FACD0E9496
:10341000FB161092310265C1809131028D33E1F4C7
:1034200064ED70E182E392E00E948338892B41F4DD
:103430008BA58F778BA7CE018A960E94E516E9CFE0
:1034400061ED70E182E392E00E948338892B09F0FC
:10345000D8CD8BA58068EECF8DE3809331028BA50C
:103460006EEC70E187FD02C069EC70E182E392E0EE
:103470000E948C3836C18AA58F718AA78BA58E7F52
:103480008BA7F12C8AA5982F9295969597708BA56E
:103490008170880F880F880F892B833008F04AC00D
:1034A00010E0F110AECD8091320281357CF083E3E3
:1034B00092E00E9465389FEF980F903108F0A1CDFF
:1034C000982F9F718AA5807E892B8AA78AA5982F1D
:1034D0009295969597708BA58170880F880F880FAD
:1034E000892B833020F01EA7812F0E94E809CE018E
:1034F0008A960E9497129FCF8AA58F718062BDCF56
:103500008AA58F718064B9CF8AA58F718066B5CF87
:103510008AA58F718068B1CF8AA58F71806AADCF7F
:103520008AA58F71806CA9CF8AA5806EA6CFFF2453
:10353000F394A8CF8E01095A1F4F2AE0AE014D5BCC
:103540005F4F64E671E082E392E00E946116823090
:1035500009F0A6CF2796EEADFFAD279780818B327D
:1035600029F01FEF8D3209F49CCF4BCD11E099CF9C
:103570008F3309F046CD8DE3809331028AA5982FD1
:103580009295969597702BA52170220F220F220FEE
:10359000292BE22FF0E0EF53FF4EE491E09332024B
:1035A000223008F48DC08F718A3028F5805D8093B9
:1035B000330210923402E4E0223009F492C02EA5C6
:1035C000222309F48EC041E04E0F8E2F90E0805DE3
:1035D0009D4F3BE3DC013C938DE22F3F09F08BE2F2
:1035E000A42FB0E0A05DBD4F8C93EE5FF0E0E05DF6
:1035F000FD4F108276C090E06AE070E00E947F3953
:10360000605D60933302805D8093340210923502D6
:10361000E5E0D2CF809131028D3309F03FC08E01B9
:10362000095A1F4F2AE0AE014D5B5F4F64E671E01F
:1036300082E392E00E94611690913202923509F481
:10364000ADC7963409F4A2C7923409F4C5C79035C2
:1036500009F4D1C7953409F4BFC7933509F0D1CC2B
:10366000823009F0CECC2796EEADFFAD2797808152
:103670008B7F883409F03BCF8BA5817F8A608BA735
:1036800081E09081983409F080E089AB30CF8BA540
:10369000817F8860953409F49CC7B3CC8DE3809317
:1036A00031028BA5982F96959770E92FF0E0E5549D
:1036B000FF4EE491E0933202923029F09530B1F060
:1036C000109233020EC09BE39093330296E49093E2
:1036D0003402829586958370805D809335021092C6
:1036E000360280E392E00E944E1283CE8BE38093F9
:1036F000330289A9882331F088E480933402109240
:103700003502EFCF8CE4F9CF809131028D3301F592
:10371000BDEAEB2EB0E1FB2E10E0F701859194910C
:103720000E949338F70165917491AC0182E392E0B5
:103730000E949C38892B29F4173008F062CC1CA712
:103740007ACE1F5FB2E0EB0EF11C173031F759CC87
:103750008DE380933102ECA5E73008F0BEC0F0E0C5
:10376000EE0FFF1FE355FF4E6591749143E150E06A
:1037700082E392E00E94AA3810924502B2CF1091E3
:1037800031021D3379F01F33F9F48DE38093310258
:103790008AE190E00E94C1388823A1F089E58093F6
:1037A00032028ECF80913202893519F08E3409F0C1
:1037B00028CC61E0893509F060E08AE190E00E9460
:1037C000CF3827CE8EE4EBCF1053193008F019CC48
:1037D000BE016F5F7F4F812F0E945B12809132028A
:1037E0008D3391F41092320280E2E3E3F2E0DE01E5
:1037F0001A9601900D928A95E1F7BE016F5F7F4F97
:10380000812F0E94C3166DCF8DE38093320280E238
:10381000FE013A96A3E3B2E001900D928A95E1F79A
:10382000109253025ECF809131028334F9F08E34CE
:1038300009F066C0809132028D3379F483E392E01F
:103840000E9465389FEF980F903108F0DACB8AAB71
:10385000CE018A960E94E51640C08DE38093320225
:103860008AA942E063E372E090E0ECC48091320206
:103870008D33C9F5809133028D3239F08B3219F0D6
:10388000823509F0BECB90E009C0BE01665D7F4F76
:1038900080E00E94991191E08111F5CF809133026F
:1038A0008B3249F4BE01665D7F4F82E00E94991120
:1038B00091E0811190E080913302823589F4BE015C
:1038C000665D7F4F81E00E949911882309F499CBAE
:1038D00080915A02816080935A021092320201CF85
:1038E00091118FCBF5CF8DE38093320280916801E7
:1038F0008111B7CF82E58093330210923402F1CE6A
:1039000081E392E00E946538D82E882309F479CBB0
:103910009AA9981708F475CB809133028D7F22E025
:103920008D3309F423E030E0C9018F5C9D4FF9012C
:10393000E05DFD4F7F0120812D3309F055C08E01E0
:10394000095A1F4F29E0AE014D5B5F4F66E671E0FB
:103950000E946116382EF1E08F130AC069EA70E107
:1039600025968EAD9FAD25970E948338892BD1F186
:103970008E010D5B1F4FA12CC12CB12C412C512C61
:1039800032014394A31409F1D8018D909D908D01CB
:10399000C40101960E946538F4019081933591F439
:1039A0009FEF980F983070F48150990BA30192010A
:1039B00004C0220F331F441F551F8A95D2F7C22A15
:1039C000A394E0CFBB24B394FBCFB1101ACBFE017C
:1039D000ED0DF11DC2AACE018A960E94E516D7010F
:1039E0001C927FCEC12CF3CFFE01ED0DF11D42A93B
:1039F0002DE3F701208365EA70E1442309F438CD13
:103A000030E020E050E063E57BE2FA01022E02C0E4
:103A1000F595E7950A94E2F7E0FF0AC0DC016C93A4
:103A2000E1E3E20F1196EC93119712967C930396C3
:103A30002F5F3F4F2830310541F70197FC01D9CD69
:103A4000809131028235F1F4809132028D3381F41C
:103A5000809133028E3419F0893509F0D2CA91E091
:103A6000893509F090E08BA590FB84F98BA7F0CE07
:103A70008DE3809332028BA584FF02C089E53BCFA2
:103A80008EE439CFE0EDFE2EF80EF8E0FF1508F4D5
:103A9000B8CAFF2031F0BE016F5F7F4F8F2D0E94AB
:103AA0005B12809132028D3309F0F9C28E01095AFE
:103AB0001F4F2AE0AE014D5B5F4F64E671E083E388
:103AC00092E00E946116182FF1102DC0813009F08C
:103AD00098CA25968EAD9FAD25970E9465389C01AA
:103AE0002C5D33402D3F63E0360780F410923202A4
:103AF000C901969587959695879580931A022BA56F
:103B000024FFEFCD809580931A02EBCD8F3F910576
:103B100011F008F076CA1092320280931A029BA527
:103B200094FFDFCDEFCF20913302223409F457C147
:103B30000CF04AC0213409F4EEC1113009F061CA19
:103B4000B8E0FB127CC28981813409F078C20E94FE
:103B50007D12F82ECE018A960E94811225960EAD16
:103B60001FAD2597C8010E9465382FA52F772035F6
:103B700009F056C2F80101900020E9F73297208140
:103B8000253209F044C29C018536910510F024E6E7
:103B900030E08F2D90E0880F892F881F990B892B9B
:103BA00031F484E690E0FC01E21BF30B9F01AFEFE0
:103BB000B0E00E94503924E630E040E050E00E943E
:103BC0002E3920931A0289CE243409F460C123359A
:103BD00009F0B3CF8BEF810F823008F012CA27961D
:103BE000EEADFFAD279700810E3419F0003509F0D6
:103BF00008CA0E947D12AF2DA150BB0B6D0141E0A0
:103C000050E060E070E004C0440F551F661F771F4E
:103C1000AA95D2F70E3409F0EDC1082F042B83E5E5
:103C2000898329968EAD9FAD29970E9465385C01E6
:103C30009F838E832B968EAD9FAD2B970E94653808
:103C40004C01998788872D968EAD9FAD2D970E9448
:103C50006538AC018130BAEF9B0710F040E05AEFB5
:103C6000EE24E3949501285532402930374008F47A
:103C7000E12C9401285532402930374010F0EE24D1
:103C8000E39494012A193B098A149B0418F49501C2
:103C900028193909892B11F441E050E0A8ECB0E073
:103CA0000E9450394B015C019A0150E040E00E94B3
:103CB0002E3980ED97E0213D67E03607410551053B
:103CC00030F43B832A83232B21F481E090E09B8313
:103CD0008A838A819B81163009F096C12F968EAD1A
:103CE0009FAD2F970E9465388130AAEF9A0708F0A0
:103CF00085C1009709F485C19C0150E040E0C501F1
:103D0000B4010E942E3980ED97E0213DB7E03B07DA
:103D10004105510508F078C13D832C8381E090E096
:103D2000232B09F471C1E1106CC9BE016F5F7F4F95
:103D30008F2D0E94C316602F89E190E00E94CF383A
:103D4000F601EB53FD4E84919BE09C9DD0019D9D1F
:103D5000B00D11248D010C561C4FF80183839FEF89
:103D6000948392E2978396E99087AA56BC4F9C91E0
:103D700092609C9361E00E948C0B61E0D8011396E5
:103D80008C910E94BA0B8091190290E00C2C02C019
:103D9000959587950A94E2F781709927880F991F66
:103DA000E1E0F0E0EC0FFD1F8E0F9F1FDC01159688
:103DB0002D913C914AE0429FC001439F900D1124F8
:103DC000F601EE0FFF1FEC5FFD4F918380836AE0E9
:103DD00070E00E946B39C8010E944F117ECD8DEFBB
:103DE000810F823008F00DC92796EEADFFAD279701
:103DF00000810E3419F0003509F003C90E947D12CC
:103E0000AF2DA150BB0B9D0141E050E060E070E0A0
:103E100004C0440F551F661F771FAA95D2F7942F31
:103E200090950E3489F5082F042B82E489838BE06A
:103E3000829FF001839FF00D1124EC56FC4F8FEF11
:103E400083838091190289238093190229968EAD6C
:103E50009FAD29970E9465389B838A83143031F483
:103E60002B968EAD9FAD2B970E9465389D838C83DA
:103E7000BE016F5F7F4F8F2D0E94C316602F89E1B7
:103E800090E00E94CF3829CD082F0923CECF823071
:103E900009F0B7C82796EEADFFAD2797E080BEE4E6
:103EA000EB1619F0E0E5EE12ACC80E947D122F2D42
:103EB0002150330B890141E050E060E070E004C024
:103EC000440F551F661F771F2A95D2F7D42ED09422
:103ED0003EE4682FE3121DC0642B89E190E00E944C
:103EE000CF3884E48983BE016F5F7F4F8F2D0E949E
:103EF000C3168BE0809FF001819FF00D1124EC56DA
:103F0000FC4F8FEF8383809119028D2180931902DA
:103F1000E4CC6D21E2CF8DEF810F823008F071C8C3
:103F200048E0F4126EC80E947D122796AEADBFAD78
:103F300027979C91133051F59E3419F0993409F06C
:103F400060C82996EEADFFAD29978081803519F0C4
:103F5000843409F056C881E4898391E08C918934D6
:103F600009F090E08FA590FB87F9807880658FA796
:103F7000BE016F5F7F4F88E00E94C316CE018A9614
:103F80000E94E5168FEF8093E403A7CC9E3419F0CE
:103F9000993409F036C82996EEADFFAD2997908186
:103FA000903521F0943411F00C9401182B96EEAD5D
:103FB000FFAD2B9790819E3421F0903511F00C9439
:103FC000011891E4998321E09C91993409F020E053
:103FD0009FA520FB97F9907894649FA79081682F04
:103FE0009E3431F4606889E190E00E94CF38C0CF00
:103FF0006F77F9CF042F0095082311CE80E09AEF58
:104000007BCE81E090E078CE9D838C838CCE9C012A
:104010008F3F910509F008F4D4CD2FEF30E0D1CDDA
:10402000D8019C9180ED890F823008F056CC8091A8
:104030001902903311F0806869CF8F7767CF80EDD8
:10404000820F823010F00C9401188091340281119B
:104050000C940118EF2DE150FF0B81E090E0A0E0FF
:10406000B0E004C0880F991FAA1FBB1FEA95D2F7C2
:10407000ECA54E2F50E0FA01EE0FFF1FE40FF51FE5
:10408000ED5FFE4FE281F0E0EA5DFD4F30812033CD
:1040900019F0832B80831CCC80958323FBCF8F3337
:1040A00011F00C9401188DE380933202FF2009F483
:1040B000AFC019810E947D12E82E133509F0CEC0E1
:1040C00028853985CE80DF802C153D0508F4C1C0D8
:1040D0002C193D09A8ECB0E00E9450394B015C015D
:1040E0002A813B8150E040E00E942E396C962CAF33
:1040F0003DAF4EAF5FAF6C976A960EAD1FAD6A973E
:104100002C813D8150E040E0C501B4010E942E3970
:104110002901590183E5809333028BE380933402B4
:104120008F2D8150990B4C01F12C02C0F594E7942E
:104130008A95E2F78EE4E0FE80E5809335029BE30A
:10414000F92EF092360244E067E372E0C6010E9465
:10415000D211F0923B0244E06CE372E088859985CD
:104160000E94D211F092400244E0003197E2190718
:1041700008F045E061E472E06A968EAD9FAD6A9703
:104180000E94D21185E190E00031A7E21A0710F0F9
:1041900086E190E0805D9D4F2BE3FC01208344E0AD
:1041A000F0E1AF16F7E2BF0608F045E066E472E022
:1041B000003127E2120710F067E472E0C2010E94AA
:1041C000D211E6E1F0E00031174210F0E7E1F0E053
:1041D00084E090E040E1A41647E2B40610F085E0E8
:1041E00090E0E80FF91FE05DFD4F8AE38083809146
:1041F000190290E002C0959587958A94E2F7817044
:10420000805D818312828091590286FDF2C969CA5C
:1042100000911A0210E08BA584FF17C086EF91E091
:10422000801B910B880F991F880F991F44E063E34F
:1042300072E00E94D2118AE38093370243E068E380
:1042400072E0C8010E94D2114CCAC80189509F4F28
:10425000E9CFA601421B530B9A013CCF123409F05F
:1042600065C0109333028BE3809334028F2D81500D
:10427000990B8C01F12C02C0F594E7948A95E2F732
:104280008EE4E0FE80E5809335028BE38093360276
:104290008A819B8144E08031A7E29A0708F045E0DB
:1042A00067E372E00E94D2112A813B818BE090E0AB
:1042B0002031B7E23B0710F08CE090E0805D9D4F2D
:1042C0004BE3FC0140838C819D8144E08031F7E227
:1042D0009F0708F045E06CE372E02031374210F0B0
:1042E0006DE372E00E94D2118A819B81ECE0F0E0E4
:1042F0008031974210F0EDE0F0E08C819D818031BB
:10430000974288F484E090E0E80FF91FE05DFD4FEC
:104310008AE380838091190290E002C09595879589
:104320000A95E2F76CCF85E090E0EECFB8E0FB12A3
:1043300003C081E0113409F080E0109333029BE365
:1043400090933402811121C0EF2DE150FF0B9F01AA
:10435000F12C02C0F594E794EA95E2F78EE4E0FED2
:1043600080E5809335028AE38093360280911902BA
:1043700090E002C0959587952A95E2F78170805D5F
:104380008093370210923802ACC92FA589E427FF29
:104390008EE4809335020AE3009336028091150281
:1043A000F4E68F9FC00111246FEF70E00E947F3907
:1043B000CB011091590210742F772035E1F420932E
:1043C00037020093380243E069E372E00E94D211A1
:1043D00085E280933C0200933D0280911A0243E003
:1043E0006EE372E090E00E94D2111092410211231C
:1043F00009F477C9C7CF24E4209337020093380229
:104400002F2D2150330B6901F12C02C0F594E79454
:104410002A95E2F72EE4E0FE20E5209339020AE334
:1044200000933A0243E06BE372E00E94D21185E20E
:1044300080933E0200933F028091190290E002C0F7
:1044400095958795CA94E2F78170805D80934002CC
:1044500010924102112309F444C910923A0241C951
:10446000809131028D3369F580913202833411F0ED
:104470000C940118809159028068809359028091B0
:104480002A028F7080932A028FE990E10E94FF0A2E
:10449000C55ADF4F0FB6F894DEBF0FBECDBFDF9118
:1044A000CF911F910F91FF90EF90DF90CF90BF9031
:1044B000AF909F908F907F906F905F904F903F90C4
:1044C00008958F3311F00C9401188DE3809331021D
:1044D0001092320280E392E00E944E128DE8E82EA4
:1044E000FF24F39410E0C7010E94C93844E060E360
:1044F00072E00E94D21180E392E00E944E121730C7
:1045000059F08DE990E10E94FF0A1F5F32E0E30E4F
:10451000F11C183041F7BCCF0E948414F6CF809173
:104520003102883311F00C94011881E00C940D18BD
:1045300088AB0C942C182F3311F00C9401182DE338
:104540002C93BC016F5C7D4F80913002863419F44E
:104550008DA543E089C988A9FCCF809131028D33B4
:1045600041F482E392E00E946538809316020C9435
:10457000091A8F3311F00C9401188DE380933102E6
:104580008091160243E062E372E06EC9823011F45A
:104590000C94771A8BA5817F82601BC0823011F04A
:1045A0000C9401182796EEADFFAD279780818634D5
:1045B00011F00C94771A81818053843010F00C94A0
:1045C00001189BA5917983708295880F807E9460F5
:1045D000892B8BA70C94771A823011F40C94771ADC
:1045E0008BA5817F9234A9F3903509F050C88BA533
:1045F000817F8660EECF8230D1F70C94771A1F92BC
:104600000F920FB60F9211242F933F934F935F9306
:104610006F937F938F939F93AF93BF93EF93FF938A
:104620008FE692E00E94900AFF91EF91BF91AF91C7
:104630009F918F917F916F915F914F913F912F91BA
:104640000F900FBE0F901F9018951F920F920FB6EC
:104650000F9211242F938F939F93EF93FF93E091E9
:104660007F02F09180028081E0918502F0918602C4
:1046700082FD1BC09081809188028F5F8F73209193
:104680008902821741F0E0918802F0E0E159FD4F84
:10469000958F80938802FF91EF919F918F912F9139
:1046A0000F900FBE0F901F9018958081F4CF1F922E
:1046B0000F920FB60F9211242F933F938F939F93D6
:1046C000AF93BF938091DA019091DB01A091DC015F
:1046D000B091DD013091D90123E0230F2D3758F53A
:1046E0000196A11DB11D2093D9018093DA01909309
:1046F000DB01A093DC01B093DD018091DE0190919C
:10470000DF01A091E001B091E1010196A11DB11D71
:104710008093DE019093DF01A093E001B093E1016B
:10472000BF91AF919F918F913F912F910F900FBEAD
:104730000F901F90189526E8230F0296A11DB11D1A
:10474000D2CF1F920F920FB60F9211242F933F9347
:104750004F935F936F937F938F939F93AF93BF9389
:10476000CF93EF93FF9389B190916D00892380934C
:104770008801809187019091880189278093860123
:104780008091880180938701C0E080918501C817DE
:1047900060F4EC2FF0E0EE0FFF1FE158FE4F0190A8
:1047A000F081E02D0995CF5FF0CFFF91EF91CF9190
:1047B000BF91AF919F918F917F916F915F914F9139
:1047C0003F912F910F900FBE0F901F9018951F9241
:1047D0000F920FB60F9211242F933F934F935F9335
:1047E0006F937F938F939F93AF93BF93CF93EF93E9
:1047F000FF9386B190916C00892380937E01809114
:104800007D0190917E01892780937C0180917E01BA
:1048100080937D01C0E080917B01C81760F4EC2F8C
:10482000F0E0EE0FFF1FEB58FE4F0190F081E02DFE
:104830000995CF5FF0CFFF91EF91CF91BF91AF91ED
:104840009F918F917F916F915F914F913F912F91A8
:104850000F900FBE0F901F9018951F920F920FB6DA
:104860000F9211242F933F934F935F936F937F93F6
:104870008F939F93AF93BF93CF93EF93FF9383B1A6
:1048800090916B00892380937401809173019091C2
:104890007401892780937201809174018093730160
:1048A000C0E080917101C81760F4EC2FF0E0EE0FCA
:1048B000FF1FE559FE4F0190F081E02D0995CF5F74
:1048C000F0CFFF91EF91CF91BF91AF919F918F91D9
:1048D0007F916F915F914F913F912F910F900FBEFC
:1048E0000F901F901895109272021092710288EE2C
:1048F00093E0A0E0B0E08093730290937402A093E1
:104900007502B09376028CE191E0909370028093EF
:104910006F0285EC90E090937C0280937B0284ECA4
:1049200090E090937E0280937D0280EC90E09093E3
:10493000800280937F0281EC90E0909382028093CA
:10494000810282EC90E0909384028093830286EC53
:1049500090E09093860280938502109288021092D4
:10496000890210928A0210928B028EE291E090935B
:104970000D0380930C0310920F0310920E031092FC
:1049800012031092140310925903E4E9F3E04EE588
:1049900051E02FEF5183408323831682158280914B
:1049A00063039091640392878187F0936403E0939B
:1049B0006303809161038F5F809361033B9683E083
:1049C000E73FF80739F784E591E0909383038093FC
:1049D0008203809187038B7F809387038AE491E031
:1049E0009093810380938003109274031092730359
:1049F00088EE93E0A0E0B0E0809375039093760397
:104A0000A0937703B093780388E391E090937203C7
:104A1000809371038BE080936003EFE6F3E1E49110
:104A2000F0E0EE0FFF1FE65AFC4E859194919093B3
:104A30005F0380935E03E1E5F3E1E491E0935D03BE
:104A400081E080935C0381E793E090935B03809324
:104A50005A0380916E0322E833E03093670320937A
:104A600066039FED9093650310926D0390916F0321
:104A700020917003207F29602093700380719C77C0
:104A8000926090936F0380628F7E80936E0310928A
:104A9000690310926A030895CF93DF93CDB7DEB711
:104AA000C356D1090FB6F894DEBF0FBECDBF7894C0
:104AB00084B5826084BD84B5816084BD85B5826023
:104AC00085BD85B5816085BD80916E0081608093D4
:104AD0006E0010928100809181008260809381003D
:104AE000809181008160809381008091800081604D
:104AF000809380008091B10084608093B1008091A8
:104B0000B00081608093B00080917A0084608093CF
:104B10007A0080917A00826080937A0080917A0096
:104B2000816080937A0080917A00806880937A0017
:104B30001092C100E0917F02F091800282E08083B8
:104B4000E0917B02F0917C021082E0917D02F09175
:104B50007E0280E1808310928702E0918302F091CF
:104B6000840286E08083E0918102F091820280815C
:104B700080618083E0918102F0918202808188606F
:104B80008083E0918102F09182028081806880833D
:104B9000E0918102F091820280818F7D8083CE013D
:104BA00001960E94811289818F718F3111F40E94C8
:104BB000FB1681E191E190931E0280931D0280918A
:104BC0001F02807E886080931F0282E893E09093AA
:104BD0001C0280931B02809120028370806180936D
:104BE00020021092210280912402807B8093240273
:104BF000CE018A960E948112CE018A960E94971257
:104C0000ADECEA2EA2E1FA2E05EC12E1F801849156
:104C100061E00E94BA0B0F5F1F4FE016F106B1F77B
:104C200061E08FE00E94BA0B61E08EE00E94BA0B57
:104C300001E010E06BE0B62E77247A9472E2872EC2
:104C4000E6E99E2EFAE0AF2EBE016F5F7F4F802F08
:104C50000E945B128981833509F045C0B09E7001C6
:104C6000B19EF00C1124F801EC53FD4E8491970194
:104C70002C563C4F6901F8E0CF1AD108D6018C932D
:104C8000F901379770823396808223503109F901F8
:104C90009082980121503109B29EF001B39EF00D2F
:104CA0001124EA56FC4F90819260908361E00E944B
:104CB0008C0B61E0D6018C910E94BA0B6E817F81D2
:104CC000C70187579C4F0E944F11F801EE0FFF1F3D
:104CD000EE5FFD4F2E813F81A29EC001A39E900DED
:104CE0001124918380830F5F1F4F0930110509F054
:104CF000ABCF1DA510931A028FE08093EF038FEFC7
:104D00008093F00382E28093F30386E98093F403B7
:104D10008091EE038D7F8093EE0360E08FE00E9430
:104D20008C0B61E08091EF030E94BA0B8BA5612F81
:104D300084FD60956093140270E069507F4F660FA8
:104D4000771F660F771F8CEE93E00E944F11BE0114
:104D50006F5F7F4F88E00E945B128981813469F424
:104D60000E947D1287FF109510931502ECECF2E182
:104D70008491612F70E00E94F60B88E080932A02F4
:104D800080912B028F7080932B0210922C02109234
:104D90002D02812C912C5401839422242394312CB4
:104DA00080916702811109C00E94780C709366029D
:104DB0006093650281E08093670280915D028111BA
:104DC00009C00E94780C70935C0260935B0281E0E2
:104DD00080935D02CE018D5B9F4F0E9481122496CD
:104DE0008FAD2497982F92959695977025968FADB5
:104DF00025978170880F880F880F892B833008F4DE
:104E0000C7C080910E0390910F03892B09F4C0C095
:104E10000E94780C80911103681B770B6430710538
:104E2000DCF00E94780C60931103E0911003EF70A6
:104E3000E73090F4F0E0E15EF84D0C9493392627CA
:104E400088278A278C278E279327952780E18093B0
:104E5000140381E080931203E3E2EE2EF2E2DF2EF0
:104E6000AFE1CA2EB6E1FB2E11E2712E00E2602EF8
:104E70008EE1582E9DE1492E80910E0390910F03F3
:104E8000DC01ED91FC910084F185E02D0995181667
:104E900019060CF07DC00E94780C6093110380917C
:104EA0000E0390910F03DC01ED91FC910284F385D8
:104EB000E02D0995182FE0911203E150E332E0F65E
:104EC000F0E0EB59F84D0C9493399A27A327B227B9
:104ED000B428CC28EC2819292C293D294F297029E0
:104EE000C029352A5A2A682A842A992AB92AE52A01
:104EF000F02A022B222B5D2B682B792B862B932BF0
:104F0000A22BBA2BDB2B162C1C2C262C322C502C33
:104F100084E0A0CF87E09ECF8EE09CCF8EE0809390
:104F2000140383E197CF87E195CF80E18093140349
:104F30008FE190CF8F3009F09FCF1092130382E062
:104F40008093120399CF80911303E82FF0E0E45F80
:104F5000FC4F15878F5F80931303873109F08CCF47
:104F600083E0EECF8111FEC080911303873109F0F9
:104F7000F9C080E2E9E1F3E0A9E3B3E001900D922A
:104F80008A95E1F78FEF8093590381E080931203B4
:104F90006090590201E010E063FE9AC48FE692E04F
:104FA0000E94700A18161906ACF48FE692E00E946F
:104FB0004E0A9091E801883009F4FEC48D3009F062
:104FC00002C5E92FF0E0E05DFD4F10821092E8018C
:104FD00097FF05C525969FAD2597892F86958770E4
:104FE000823009F424C708F042C6882311F40C94D7
:104FF0002D31813011F40C94883080915A0280FF59
:1050000002C00C947131C0901902E090FE01CE10E4
:105010000C94F03490911A028091FD0198130C9435
:105020002A35809119028093FE0180911A028093A3
:10503000FD010E94780C2091650230916602621B8E
:10504000730B613D774000F10E94780C709366020B
:10505000609365028091590284608093590261E0F7
:105060008EE00E948C0B8091590280FD0DC0109241
:10507000190227968FAD279780931A028CEF92E141
:105080000E94FF0A0E94841480912E0290912F02A8
:10509000DC01ED91FC910190F081E02D60E009953B
:1050A000811106C08091590282FD02C00C94B7376D
:1050B0000E94780C80911702681B6C3028F0809158
:1050C00059028F7D809359020E94780C60931702D9
:1050D00080915902182F1F7D85FF1062109359028D
:1050E00014FF06C0812F8073803311F00C94B73702
:1050F0004DB65EB60E94530C12FF17C0009100021D
:105100001091010220910202309103026B017C0197
:10511000C01AD10AE20AF30A9701860100321E443E
:105120002105310510F40C94B7372FEF2093FF01C0
:105130006093000270930102809302029093030235
:10514000A0916303B0916403FD0110E0309711F466
:105150000C94C73583818F3F09F01F5F0184F2856E
:10516000E02DF4CF81E0ECCE8FE5810F823008F0A6
:1051700083CE8CE0113A09F080E180931403109201
:105180001303612F90E080E00E94310D909318038B
:105190008093170385E0D4CEE091130301E00E0F56
:1051A00000931303F0E0E45FFC4F8587682F809144
:1051B0001703909118030E94310D90931803809368
:1051C00017038091140390E0880F991F08171906A0
:1051D0000CF452CE86E0B4CE009113030F5F00931F
:1051E0001303682F80911703909118030E94310DCB
:1051F00090931803809317032091140330E02F5FDE
:105200003F4F220F331F021713060CF435CE892BA4
:1052100071F480E2E9E1F3E0A9E3B3E001900D92DB
:105220008A95E1F78FEF8093590384E0AFCE84E055
:1052300087CE863A09F020CE80E180931403109245
:10524000130366EA90E080E00E94310D909318030A
:105250008093170388E074CE8D3C69F46DEC8091E7
:105260001703909118030E94310D909318038093B7
:10527000170389E065CE87E063CE682F809117031E
:10528000909118030E94310D909318038093170397
:105290001E501093E601109213038AE051CE682F3E
:1052A00080911703909118030E94310D9093180379
:1052B00080931703809113038F5F853018F48093D8
:1052C0001303DACD109213031092E2011092E3015E
:1052D0001092E4011092E5011092E7018BE030CECC
:1052E000682F80911703909118030E94310D9093BD
:1052F00018038093170340911303612F70E090E02F
:1053000080E003E010E0041B1109012E000C220BC9
:10531000330B53E0000F111F221F331F5A95D1F793
:1053200004C0660F771F881F991F0A95D2F7009156
:10533000E2011091E3012091E4013091E501602B3D
:10534000712B822B932B6093E2017093E301809386
:10535000E4019093E50121E0240F2093130324300E
:1053600008F48ACD0E9499396093E2017093E301B9
:105370008093E4019093E501109213038CE0E0CD5B
:10538000682F80911703909118030E94310D90931C
:1053900018038093170390911303911116C0809105
:1053A000E7014091E2015091E3016091E4017091C5
:1053B000E50140FF44C04093E2015093E301609354
:1053C000E4017093E5018093E7018091E70180316A
:1053D00058F521E0290F20931303E82FF0E0EE0F9A
:1053E000FF1FA101491B5109E45FFC4FE40FF51FAA
:1053F00015872230C8F04091E2015091E30160919D
:10540000E4017091E501769567955795479540932E
:10541000E2015093E3016093E4017093E5018F5F33
:105420008093E701109213038091E60181508093ED
:10543000E601811121CD109213038DE081CD769587
:105440006795579547958F5F803108F4B2CF4093A9
:10545000E2015093E3016093E4017093E5018093CE
:10546000E70187E080931203B0CF682F8091170384
:10547000909118030E94310D9C0190931803809322
:105480001703909113039F5F90931303923008F4D6
:10549000F3CC232B09F0EFCE80E2E9E1F3E0A9E3BE
:1054A000B3E001900D928A95E1F78FEF8093590355
:1054B00087E06CCD883A09F0DFCC68EA90E080E0C4
:1054C0000E94310D90931803809317038FE038CD1D
:1054D0008F778130B9F4612F809117039091180371
:1054E0000E94310D909318038093170391E01138B7
:1054F00009F090E08091100390FB84F980931003F1
:1055000080E11ECD8EE01CCD8EEF810F8F30D0F765
:10551000612F80911703909118030E94310D909391
:10552000180380931703109314031092130381E15F
:1055300007CDE091130301E00E0F00931303F0E099
:10554000E45FFC4F8587682F8091170390911803C3
:105550000E94310D909318038093170380911403D8
:1055600090E0880F991F081719060CF485CC82E18A
:10557000E7CC009113030F5F00931303682F809112
:105580001703909118030E94310D90931803809394
:1055900017032091140330E02F5F3F4F220F331F7A
:1055A000021713060CF468CC892B09F0ABCF80E20C
:1055B000E9E1F3E0A9E3B3E001900D928A95E1F708
:1055C0008FEF809359038EE0E1CC803209F054CC08
:1055D000EFEDFFEFF0931803E093170384E1B0CCF5
:1055E000803471F4809117039091180380549109CD
:1055F00090931803809317031092130385E1A0CCB6
:1056000083E19ECCE091130321E02E0F209313033E
:10561000F0E0E45FFC4F85878091170390911803B9
:10562000811B9109909318038093170380911403B1
:1056300090E0880F991F281719060CF41DCCF092E2
:1056400012031ACC20911303E22FF0E0E45FFC4F29
:1056500085872F5F209313038091140390E00196B8
:10566000880F991F281719060CF406CC845F9C4FED
:10567000DC011B968C91A0961FAFA0976F961FAE72
:105680006F97A096EEADFFADA097E80FF11D2091AA
:105690001703309118032E173F0709F0B1CF80E2AE
:1056A000E9E1F3E0A9E3B3E001900D928A95E1F717
:1056B0008FEF8093590383E169CC8E3309F0DCCB03
:1056C0002DEF38ED309318032093170388E138CC81
:1056D000833069F463E080911703909118030E946E
:1056E000F709909318038093170389E129CC87E188
:1056F00027CC682F80911703909118030E94F70917
:1057000090931803809317038AE11ACC682F809135
:105710001703909118030E94F70990931803809340
:1057200017038BE10DCC813311F761E380911703EF
:10573000909118030E94F709909318038093170320
:105740008CE1FECB88EF810F893188F6812F869519
:105750008093140310921303612F8091170390918B
:1057600018030E94F709909318038093170340923F
:10577000120382CBE091130301E00E0F0093130399
:10578000F0E0E45FFC4F8587682F809117039091CC
:1057900018030E94F70990931803809317038091D0
:1057A000140390E0880F991F081719060CF464CBB6
:1057B0005092120361CB20911303E22FF0E0E45FDB
:1057C000FC4F85872F5F209313038091140390E093
:1057D0000196880F991F281719060CF44DCB845F8A
:1057E0009C4FDC011B968C91A2961FAFA297A196AD
:1057F0001FAEA197A296EEADFFADA297E80FF11DE7
:1058000020911703309118032E173F0709F06FCF2F
:1058100080E2E9E1F3E0A9E3B3E001900D928A951B
:10582000E1F78FEF8093590387E1B0CB883C09F013
:1058300023CB6092120320CB883129F4F092150318
:105840007092120319CBC092120316CB8631D9F78E
:1058500010921303EFE3F1E1849180931603D09249
:1058600012030ACBE091130381E08E0F80931303A0
:10587000F0E0E45FFC4F1587E09116031E27E12F4F
:10588000F0E0E75DFE4EE491E0931603809115038E
:105890008150809315038111EFCAE0921203ECCA84
:1058A000809116031813CFCF80E2E9E1F3E0A9E37A
:1058B000B3E001900D928A95E1F78FEF8093590341
:1058C0008FE164CB0F5F1F4F0930110509F466CBE0
:1058D000BE016F5F7F4F802F0E945B1289818234EF
:1058E000A9F0843479F7F801EC53FD4E849160916E
:1058F000190270E098012150310902C07595679531
:105900002A95E2F761700E948C0BDCCF7801F1E000
:10591000EF1AF1088091190290E00E2C02C09595C3
:1059200087950A94E2F780FF41C00E94780C9801A5
:10593000220F331FA90145515E4F6A01DA012D91F3
:105940003C91621B730B7090EC01872D90E00E2C44
:1059500002C0959587950A94E2F780FD24C08A815C
:105960009B816817790708F4ADCF0E94780CF60187
:1059700071836083B1010E2C01C0660F0A94EAF7AF
:1059800076267092EC01F801EC53FD4E8491672D60
:1059900070E002C075956795EA94E2F7609570959E
:1059A00061707727B0CF8C819D81DBCFF801EC53FC
:1059B000FD4E849160E0A7CF992309F40BCB915061
:1059C0009093E80107CB983238F4E92FF0E0E05DDE
:1059D000FD4F80839F5FF4CF1092E801FBCA67FE02
:1059E0005CC0809130028111F5CA80912E029091A5
:1059F0002F02DC01ED91FC910190F081E02D63E03C
:105A00000995882309F4E6CA80912E0290912F020D
:105A100024966FAD24976F71DC01ED91FC910280AB
:105A2000F381E02D09958C01BC0190E080E04AE013
:105A30000E94F9118AE393E10E94FF0A80912A02F1
:105A400082958F7090E0880F991FB80183579E4F01
:105A50000E94E13810912A0212951F701730B8F495
:105A600087E393E10E94FF0A812F90E002960E9453
:105A7000471284E393E10E94FF0A80912A02982F43
:105A8000907F905F8F70892B80932A02A3CA8091A8
:105A900059028F7780935902F0CF61E373E180E37D
:105AA00092E00E948338892B59F06EE273E180E323
:105AB00092E00E948338892B19F00E94CE178ACA7F
:105AC0006BE273E180E392E00E948338892B29F432
:105AD0008091590280648093590268E273E180E307
