:100000000C94CA0A0C94F20A0C94F20A0C945E2422
:100010000C9418240C94D2230C94F20A0C94F20A37
:100020000C94F20A0C94F20A0C94F20A0C94F20A60
:100030000C94F20A0C94F20A0C94F20A0C94F20A50
:100040000C9488230C94F20A0C9456230C943023BD
:100050000C94F20A0C94F20A0C94F20A0C94F20A30
:100060000C94F20A0C94F20A0D000A00530050534B
:100070000049530050534900504953004953490027
:10008000494953006A0068004469676974616C20DB
:100090004F75747075740052432050574D204F7542
:1000A0007470757430002020202020202020202013
:1000B000202020202020202020546F207377697476
:1000C0006368206261636B20746F205465726D6990
:1000D0006E616C204D6F64652C2073696D706C7956
:1000E0002068697420456E746572005120202020BC
:1000F00020202020202020202020202D3E2051754F
:10010000697420746865205465726D696E616C2035
:100110004D6F646520616E64207377697463682035
:10012000746F205243204D6F64652E00443F2020A1
:100130002020202020202020202020202D3E205262
:10014000657475726E2074686520446562756720F9
:100150004C6576656C00443D44656275674C657618
:10016000656C202020202D3E205365742074686526
:10017000204465627567204C6576656C3A203120B5
:100180002D3E2050756C73652057696474682C206F
:1001900032202D3E20436D64204368616E67650008
:1001A00045433F20202020202020202020202020E8
:1001B0002D3E2052657475726E20746865204375FB
:1001C0007272656E74206F662073744570206E7550
:1001D0006D6265723A207878206F72205220666FC7
:1001E00072205265736574207374617465002020F9
:1001F00020202020202020202020202020202020FF
:100200002064697361626C656429002020202020CD
:10021000202020202020202020202020202070723C
:100220006576696F757320737445702C2052207445
:100230006F205265736574207468652073657175ED
:10024000656E63652028616C6C20746865206F752D
:100250007470757473206172650045433D2B2F2DBA
:100260002F5220202020202020202D3E2053657456
:10027000207468652043757272656E7420737445CE
:10028000703A202B20746F20676F20746F206E658A
:10029000787420737445702C202D20746F20676F44
:1002A00020746F20746865004578783F20202020F6
:1002B00020202020202020202D3E205265747572A1
:1002C0006E2074686520636F6E6669677572656419
:1002D0002073744570206E756D62657220787800A9
:1002E000202020202020202020202020202020200E
:1002F0002020204F4646206D65616E732074686132
:100300007420616C6C20746865206F7574707574EE
:10031000206172652064697361626C656420666F38
:1003200072207468652073744570204578780045A4
:1003300078783D53782B53792B537A2F4F46462D9F
:100340003E20536574206F75747075747320746FDC
:1003500020656E61626C6520666F7220746865202E
:1003600073744570206E756D6265722078782028F0
:1003700078783A203120746F2031362900454E3F7D
:10038000202020202020202020202020202D3E2042
:1003900052657475726E2074686520636F6E66694D
:1003A0006775726564206E756D626572206F662078
:1003B0007374457073206F6620746865205365718F
:1003C00075656E636500454E3D78782020202020BD
:1003D0002020202020202D3E205365742074686545
:1003E000206E756D626572206F6620737445707340
:1003F0002069662050726F746F636F6C2069732080
:1004000053657175656E6365202878783A203120D0
:10041000746F203136290020202020202020202029
:100420002020202020202020202038204275747495
:100430006F6E733A20423D787878782C78787878A7
:100440002C787878782C787878782C787878782C5C
:10045000787878782C787878782C78787878004262
:100460003F20202020202020202020202020202D60
:100470003E2052657475726E207468652070756CCC
:1004800073652077696474682028696E2075732904
:10049000206173736F63696174656420746F206594
:1004A000616368206F662074686500423D432020C8
:1004B00020202020202020202020202D3E2053748A
:1004C0006172742074686520427574746F6E204385
:1004D000616C6962726174696F6E2070726F6365BE
:1004E0007373002020202020202020202020202086
:1004F00020202020202069732053383D413B4E2F7F
:10050000493A50776D50657243656E74253A507262
:100510006F7056616C7565202865673A2053383DC9
:10052000413B493A313030253A3030302900533898
:100530003F202020202020202020202020202D3E71
:10054000205768656E20533820636F6E6669677543
:1005500072656420617320416E616C6F672C20743A
:10056000686520616E7377657220746F20746865AA
:100570002053383F20636F6D6D616E640020202032
:10058000202020202020202020202020202020206B
:1005900028302D32353529206F722053383D787838
:1005A00078252073657473207468652070657263A4
:1005B000656E74616765206F662070776D202830E6
:1005C000252D31303025290053383D7878785B254A
:1005D0005D202020202020202D3E205768656E20A1
:1005E000533820636F6E6669677572656420617346
:1005F00020416E616C6F672C2053383D78787820ED
:10060000736574732074686520436D642050726F45
:10061000702056616C75650020202020202020204D
:10062000202020202020202020202061732070778F
:100630006D20416E616C6F67206F757470757420EA
:1006400077697468204E6F726D616C284E29206F37
:100650007220496E7665727465642028492920707D
:100660006F6C61726974790053383D413B4E2F497C
:1006700020202020202020202D3E20416464697409
:10068000696F6E616C7920746F2044696769746169
:100690006C20616E6420536572766F2054797065AA
:1006A0002C2053382063616E20626520636F6E6674
:1006B000696775726564002020202020202020209A
:1006C000202020202020202020206F722053783DE1
:1006D000423B4D3B4F6E4475723B4F6666447572AC
:1006E0003A43206966206F757470757420782069AC
:1006F0007320426C696E6B20747970650020202035
:1007000020202020202020202020202020202020E9
:1007100053303D5858583A43434320666F72205037
:10072000726F7020536572766F20284320697320A2
:100730007468652063757272656E7420436F6D6DA9
:10074000616E642073746174757329002020202009
:100750002020202020202020202020202020205366
:10076000783D533B4D3B506F73413B506F73423B61
:100770004132424475723B4232414475723A4320E1
:100780006966206F757470757420782069732061B4
:1007900020536572766F2C206F720053783F2020B3
:1007A00020202020202020202020202D3E205265A7
:1007B0007475726E2053783D443B4D3A4320696610
:1007C000206F757470757420782069732044696790
:1007D0006974616C2C206F720053783D302F31208A
:1007E0002020202020202020202D3E2053696D75C0
:1007F0006C617465206120436D643D302F3120634E
:100800006F6D6D616E6420666F7220537820284E84
:1008100069636520666F72207465737420776974EC
:10082000686F75742052432900202020202020204A
:100830002020202020202020202020204F6E4475C2
:100840007220616E64204F66664475722061726525
:10085000204F6E2026204F66662064757261746991
:100860006F6E20696E206D73202836343030302052
:100870006D73204D6178290053783D423B4D3B4FCD
:100880006E4475725B3B4F66664475725D202D3E0B
:10089000205378206973206120426C696E6B206F51
:1008A000757470757420696E206D6F6465204D20BD
:1008B000284D3D4E6F726D616C206F7220503D501F
:1008C000756C7365642900202020202020202020C2
:1008D000202020202020202020206265747765655C
:1008E0006E20506F732041202620422061726520C7
:1008F00041324244757220262042324144757220B2
:10090000283634303030206D73204D617829002036
:1009100020202020202020202020202020202020D7
:10092000202050756C736564292E20506F73412010
:100930007573207768656E20436D643D302C2050C0
:100940006F7342207573207768656E20436D643D38
:10095000312C204475726174696F6E0053783D5379
:100960003B4D3B506F73413B506F73423B413242B2
:100970004475725B3B4232414475725D202D3E20CE
:100980005378206973206120536572766F206F75EC
:100990007470757420696E206D6F6465204D202819
:1009A0004D3D4E6F726D616C206F720020202020D3
:1009B00020202020202020202020202020202074E3
:1009C00068652070726F7020536572766F29002001
:1009D0002020202020202020202020202020202017
:1009E0002020287820697320746865206964206F4E
:1009F0006620746865206F757075742066726F6DFF
:100A0000203120746F20382C2078203D2030206940
:100A10007320726573657276656420666F72005329
:100A2000783D443B4D202020202020202020202DD8
:100A30003E2053782069732061204469676974619E
:100A40006C206F757470757420696E206D6F6465AD
:100A5000204D20284D3D4E6F726D616C206F7220CD
:100A600050756C73656429004D3F202020202020A4
:100A700020202020202020202D3E205265747572D9
:100A80006E2074686520636F6E6669677572656451
:100A9000205243554C204D657373616765204D614D
:100AA0007070696E670020202020202020202020E8
:100AB0002020202020202020204D3D50495320661A
:100AC0006F722074686520317374204D533820563E
:100AD0003320616E64204D3D49534920666F72207A
:100AE00074686520326E64204D53382056330020E0
:100AF00020202020202020202020202020202020F6
:100B00002020416E20582D416E7920696E737461EA
:100B10006E6365207368616C6C20626520636F6E24
:100B20006669677572656420776974682050726FB2
:100B3000702E78202B2053772E31362C0020202049
:100B400020202020202020202020202020202020A5
:100B5000697420697320706F737369626C652074A7
:100B60006F2075736520322078204D53382056331E
:100B7000206F6E207468652073616D652063686105
:100B80006E6E656C2E00202020202020202020204A
:100B9000202020202020202020466F7220612073FA
:100BA000696E676C65204D53382056332C204D3DBF
:100BB0005053206973207265636F6D6D656E646557
:100BC000642E2057697468204F70656E41565263D9
:100BD000004D3D4D73674D617070696E6720202038
:100BE000202D3E2053657420746865204D6170701F
:100BF000696E6720696E20746865205243554C20E9
:100C00004D65737361676520286E65656465642052
:100C10007769746820503D523B466C2900463F205E
:100C2000202020202020202020202020202D3E2099
:100C300052657475726E2074686520636F6E6669A4
:100C400067757265642050726F702076616C75658F
:100C500020696E2063617365206F66204661696C50
:100C60007361666500463D4661696C7361666550F7
:100C7000726F7020202D3E205365742074686520AB
:100C800050726F702076616C756520696E206361AB
:100C90007365206F66204661696C73616665202804
:100CA0005243205369676E616C206C6F7374290026
:100CB00053523D4E2F59202020202020202020203C
:100CC0002D3E204170706C79207265766572736577
:100CD00020285929206F72206E6F20726576657208
:100CE000736520284E2920666F722050726F702025
:100CF0004F757470757420285330290020202020EF
:100D0000202020202020202020202020202020699A
:100D10006E2075732E2049662030203C3D205858A7
:100D200058203C3D203235352C207365742050729C
:100D30006F702056616C756520436F6D6D616E64D8
:100D40000053303D58585858202020202020202083
:100D5000202D3E20496620393838203C3D20585807
:100D60005858203C3D20323030382C207365742098
:100D700050726F7020536572766F20746F207468A4
:100D800065205858585820706F736974696F6E00E9
:100D9000503F202020202020202020202020202004
:100DA0002D3E2052657475726E2074686520636FE5
:100DB0006E66696775726564204D756C74692D5334
:100DC00077697463682050726F746F636F6C002072
:100DD0002020202020202020202020202020202013
:100DE000202028666F72204F545820616E64204581
:100DF0005458292C204520666F7220454B4D4641A2
:100E00002C205020666F7220507573682D427574C7
:100E1000746F6E0020202020202020202020202001
:100E2000202020202020206C3D46696C74657220B3
:100E30006C6576656C202866726F6D203020746F4B
:100E40002033292C204620666F72204D53382046CF
:100E500075746162612C204220666F722042696E57
:100E600061727900202020202020202020202020B6
:100E70002020202020202077697468206C3D4C20A1
:100E8000666F72204C6F77206C6576656C20616EA2
:100E900064206C3D4820666F722048696768206C4A
:100EA0006576656C2C205220666F72205243554C3B
:100EB000207769746800503D4D7350726F746F5B9A
:100EC0003B466C5D5B3B6C5D202D3E205365742082
:100ED000746865204D756C74692D53776974636807
:100EE0002050726F746F636F6C20284D7350726F57
:100EF000746F3A205320666F722053657175656E6A
:100F00006369616C00493F202020202020202020A0
:100F100020202020202D3E2052657475726E207492
:100F2000686520636F6E6669677572656420496ED7
:100F300074657266616365002020202020202020D7
:100F40002020202020202020202020736F66742065
:100F500073657269616C206461746120726174658B
:100F600000202020202020202020202020202020A1
:100F7000202020204620666F722043525346292CA1
:100F8000204368206973207468656368616E6E65CC
:100F90006C204EC2B02C206F7074696F6E616C2033
:100FA0002D206F72202B2074756E65732074686518
:100FB0000020202020202020202020202020202051
:100FC000202020204320666F72204350504D2C205B
:100FD0005320666F7220534255532C5820666F720F
:100FE000205352584C2C205520666F722053554D7B
:100FF000442C204920666F7220494255532C0049E9
:101000003D496E746572665B43685B3B2D2F2B5DBB
:101010005D202D3E20536574207468652052432066
:10102000496E7465726661636520284420666F723C
:10103000204469676974616C2C205020666F7220AF
:1010400050574D2C00543F202020202020202020CD
:1010500020202020202D3E2052657475726E207451
:10106000686520636F6E66696775726564204C6998
:101070006E65205465726D696E61746F7200543DC7
:1010800043524C462F4352202020202020202D3E2A
:101090002053657420746865204C696E6520546522
:1010A000726D696E61746F7220746F2043524C468A
:1010B000206F7220746F20435200433D4620202051
:1010C000202020202020202020202D3E2053657429
:1010D0002074686520466163746F72792064656668
:1010E00061756C7420706172616D657465727320D6
:1010F00028493D5020503D452053523D4E205378C5
:101100003D443B4E2900202020202020202020206C
:1011100020202020202020202028616C6C20746852
:101120006520636F6D6D616E6473206C69737465A7
:10113000642062656C6F772900433F2020202020C7
:101140002020202020202020202D3E204469737064
:101150006C6179207468652066756C6C20436F6ED5
:1011600066696775726174696F6E2077697468204B
:1011700073746174757300202020202020202020AB
:101180002020202020202020202057656C636F6DB8
:1011900065204D65737361676520224D5338205675
:1011A000782E792220696E20746865205465726DEE
:1011B000696E616C0020202020202020202020202B
:1011C00020202020202020204164646974696F6EF3
:1011D000616C6C792C207468697320636F6D6D612C
:1011E0006E64207472696767657273207468652025
:1011F000646973706C6179206F6620746865002083
:1012000020202020202020202020202020202020DE
:1012100020206661696C736166652069732064696A
:101220007361626C656420286E6963652C20666F4B
:101230007220636F6E66696720616E6420746573E7
:101240007429003C2D2D2720202020202020202024
:101250002020202D3E20496620456E74657220694D
:10126000732073656E742C204D53382056782E7978
:1012700020737461797320696E205465726D696E94
:10128000616C204D6F646520616E6400483F2020D2
:101290002020202020202020202020202D3E2052F1
:1012A000657475726E7320746869732068656C70FC
:1012B00000455252003B005042313A20004F464612
:1012C000004F46460080007C007800740071006E7C
:1012D000006C0042465250455344504353585549C0
:1012E0004643524C460043520043520043524C4640
:1012F000004D53382056332E335F5243332028435A
:1013000029205243204E6176792032303236000057
:10131000000000250028002B00000000080002014A
:10132000000003040700000000000000000101416C
:10133000020241030341040441050144060244073B
:10134000034408044400D57FAAFE2B815429FC568F
:1013500083D702A87D52872DF8AC79D3067BAE04E3
:10136000D18550FA2FA471DB0E5A8F25F08D58F2DB
:101370002773A60CD9F623895C08DD77A2DF0AA0C3
:101380007521F45E8B9D48E23763B61CC9B461CB0E
:101390001E4A9F35E0CF1AB06531E44E9BE6339983
:1013A0004C18CD67B239EC4693C712B86D10C56FB3
:1013B000BAEE3B91446BBE14C19540EA3F42973D63
:1013C000E8BC69C316EF3A904511C46EBBC613B9A9
:1013D0006C38ED4792BD68C21743963CE99441EBE7
:1013E0003E6ABF15C04B9E34E1B560CA1F62B71D8F
:1013F000C89C49E33619CC66B3E732984D30E54FC7
:101400009ACE1BB16472A70DD88C59F3265B8E243B
:10141000F1A570DA0F20F55F8ADE0BA17409DC7686
:10142000A3F722885DD603A97C28FD5782FF2A8076
:101430005501D47EAB8451FB2E7AAF05D0AD78D266
:101440000753862CF9E4031C041C04540454048C34
:10145000048C04C404C404FC04FC04340534056C8A
:10146000056C05A405A405DC05DC05140614064C72
:10147000064C0684068406BC06BC06F406F4062C5C
:10148000072C07640764079C079C07D4072003E820
:1014900003E803DC05DC059808202000200020205C
:1014A000202020202020202020202020202020005C
:1014B000202000200020202020202020202020206C
:1014C000202020202020002000563A00533A2031CE
:1014D0002032203320342035203620372038205049
:1014E00000030405060708090A48FCB8FC28FD9813
:1014F000FD08FE78FEE8FE58FFC8FF3800A8001877
:10150000018801F8016802D8024803B8032D3E00A3
:101510007573003A00543D004661696C73616665FD
:10152000210045433F00454E3F004C3F00463F00F1
:1015300053523F00423F004D3F00503F00493F00A3
:10154000543F00413F00413F00433F003A200050DC
:1015500042000D0000000000240027002A000102C4
:101560000408102040800102040810200102040831
:1015700010200000000023002600290004040404B9
:10158000040404040202020202020303030303032D
:10159000A424533811241FBECFEFD8E0DEBFCDBF47
:1015A00011E0A0E0B1E0EAE7F3E702C005900D9298
:1015B000A836B107D9F723E0A8E6B1E001C01D9233
:1015C000A73FB207E1F71AE0C9ECDAE004C02197BF
:1015D000FE010E948939C83CD107C9F70E947D25C8
:1015E0000C94B0390C9400009091020121ED290F68
:1015F000233020F4805D8093020108959852933047
:10160000E0F7875DF8CF862720E1829FB0011124A3
:101610008627482F50E0292F382FCA0164E095957E
:1016200087956A95E1F728273927CA0173E0880F63
:10163000991F7A95E1F7822793270895AF92BF9279
:10164000CF92DF92EF92FF920F931F93CF93DF938E
:101650006C017B018B01040F151FEB015E01AE18BD
:10166000BF08C017D10759F06991D601ED91FC91DF
:101670000190F081E02DC6010995892B79F7C5010C
:10168000DF91CF911F910F91FF90EF90DF90CF905E
:10169000BF90AF900895FC01538D448D252F30E00D
:1016A000842F90E0821B930B541710F0CF9608956F
:1016B00001970895FC01918D828D981761F0A28D9C
:1016C000AE0FBF2FB11D5D968C91928D9F5F9F7362
:1016D000928F90E008958FEF9FEF0895FC01918D18
:1016E000828D981731F0828DE80FF11D858D90E085
:1016F00008958FEF9FEF0895FC01918D228D892F22
:1017000090E0805C9F4F821B91098F739927089509
:101710008FE692E00E947C0B21E0892B09F420E007
:10172000822F089580E090E0892B29F00E94880B99
:1017300081110C9400000895FC01A48DA80FB92F0D
:10174000B11DA35ABF4F2C91848D90E001968F73E9
:101750009927848FA689B7892C93A089B1898C9108
:10176000837080648C93938D848D981306C0028857
:10177000F389E02D80818F7D80830895EF92FF9221
:101780000F931F93CF93DF93EC0181E0888F9B8DA4
:101790008C8D98131AC0E889F989808185FF15C05E
:1017A0009FB7F894EE89FF896083E889F989808181
:1017B0008370806480839FBF81E090E0DF91CF9150
:1017C0001F910F91FF90EF900895F62E0B8D10E072
:1017D0000F5F1F4F0F731127E02E8C8D8E110CC0E1
:1017E0000FB607FCFACFE889F989808185FFF5CF2C
:1017F000CE010E949C0BF1CFEB8DEC0FFD2FF11D64
:10180000E35AFF4FF0829FB7F8940B8FEA89FB8968
:1018100080818062CFCF0F931F93CF93DF938C0192
:10182000D0E0C0E0F801EC0FFD1F6491662341F0A9
:101830008FE692E00E94BE0B892B11F02196F2CF29
:10184000CE01DF91CF911F910F910895CF93DF9338
:10185000EC01888D8823B9F0AA89BB89E889F989C8
:101860008C9185FD03C0808186FD0DC00FB607FCFD
:10187000F7CF8C9185FFF2CF808185FFEDCFCE0130
:101880000E949C0BE9CFDF91CF910895833081F0C6
:1018900028F4813099F08230A9F008958730A9F0BA
:1018A0008830C9F08430B1F4809180008F7D03C00E
:1018B000809180008F7780938000089584B58F7722
:1018C00084BD089584B58F7DFBCF8091B0008F7764
:1018D0008093B00008958091B0008F7DF9CFCF93B1
:1018E000DF93282F30E0F901E75EFC4E8491F90187
:1018F000E25AFA4ED491F901E458FA4EC491CC233D
:10190000A1F081110E94460CEC2FF0E0EE0FFF1FBA
:10191000EE58FA4EA591B491EC91ED2381E090E060
:1019200009F480E0DF91CF91089580E090E0FACF54
:101930001F93CF93DF93282F30E0F901E75EFC4E31
:101940008491F901E25AFA4ED491F901E458FA4E21
:10195000C491CC23A9F0162F81110E94460CEC2FC4
:10196000F0E0EE0FFF1FE15FFC4EA591B4918FB741
:10197000F894EC91111108C0D095DE23DC938FBF51
:10198000DF91CF911F910895DE2BF8CFCF93DF9396
:1019900090E0FC01E25AFA4E249184589A4EFC01E0
:1019A00084918823C9F090E0880F991FFC01EC5ABC
:1019B000FA4EA591B491FC01E15FFC4EC591D49122
:1019C00061110DC09FB7F8948C91209582238C9360
:1019D0008881282328839FBFDF91CF9108956230AB
:1019E00051F49FB7F8943C91822F809583238C9378
:1019F000E8812E2BEFCF8FB7F894EC912E2B2C9300
:101A00008FBFEACF1F93CF93DF93182FEB0161E0D5
:101A10000E94C60C209739F460E0812FDF91CF91AE
:101A20001F910C94980CCF3FD10511F461E0F5CFD4
:101A3000E12FF0E0E75EFC4EE491E33031F140F459
:101A4000E130B1F0E230E1F0C038D1057CF7E4CF0D
:101A5000E73029F1E83059F1E430B1F780918000A6
:101A6000806280938000D0938B00C0938A0004C072
:101A700084B5806884BDC7BDDF91CF911F91089563
:101A800084B5806284BDC8BDF7CF80918000806836
:101A900080938000D0938900C0938800EDCF80911F
:101AA000B00080688093B000C093B300E5CF809110
:101AB000B00080628093B000C093B400DDCF3FB728
:101AC000F8948091DE019091DF01A091E001B09146
:101AD000E10126B5A89B05C02F3F19F00196A11D75
:101AE000B11D3FBFBA2FA92F982F8827BC01CD0168
:101AF000620F711D811D911D42E0660F771F881FC7
:101B0000991F4A95D1F708952FB7F8946091DA019B
:101B10007091DB018091DC019091DD012FBF089570
:101B2000A0915A03B0915B03E0915E03F0915F03D3
:101B3000808150915D03852391E009F090E01C962F
:101B40008C911C97282F2170921709F44EC0909108
:101B500001019A95F1F71D960D90BC91A02D609111
:101B6000020140E021E030E073E09081952351F0E4
:101B7000422B220F331F2A173B0740F4962F9A95CA
:101B8000F1F7F3CF972F9A95F1F7F3CF80FD4095BA
:101B90002091D8019091D70130E02F5F3F4F2F73F4
:101BA000332792171306E1F0E091D80186958370F0
:101BB0008B5F21E030E0B90102C0660F771F8A9584
:101BC000E2F7CB0181508423F0E0E956FE4F808399
:101BD0008091D80190E001968F7399278093D80166
:101BE0008BB390915C03892B8BBB08959091D701A7
:101BF0008091D801981741F0E091D701F0E0E956C3
:101C0000FE4F808190E008958FEF9FEF08958FB78A
:101C1000F8941092D8011092D7018FBF089581E0F7
:101C200090E008958091D8012091D70190E0805CE8
:101C30009F4F821B910960E470E00E9475390895FE
:101C40009091D7018091D801981789F0E091D70140
:101C5000F0E0E956FE4F80812091D70130E02F5F00
:101C60003F4F2F7333272093D70190E008958FEFD4
:101C70009FEF089590E080E00895962728E0AC015A
:101C8000880F991F57FF04C031E2832730E1932763
:101C90002150A9F708950895FC01E35BFF4F90815F
:101CA000492F50E0062E02C0559547950A94E2F759
:101CB000DA01A170BB2740FF09C021E030E001C07C
:101CC000220F6A95EAF72095292320838A2F089509
:101CD000E09196013AE0E39FF0011124E559FE4FAF
:101CE000278180919501883008F046C03091950198
:101CF00081E090E002C0880F991F3A95E2F7E091E9
:101D000096014AE0E49FF0011124E559FE4F318528
:101D1000232330E082239323892B09F460C00E949F
:101D20005F0D2091930130919401AB01421B530B45
:101D30009A017093940160939301283B5BE035070F
:101D4000C8F12091920120939101109292012FEFFE
:101D50002093900130918F0120918F012E7F30FFD1
:101D6000216020938F0120918F0120FF18C0709374
:101D70008E0160938D0108958091950140919501A8
:101D80008E3050F44850550B81E090E002C0880F2F
:101D9000991F4A95E2F7B3CF4E50550BF5CF2091DE
:101DA0008D0130918E01621B730B70938C016093D7
:101DB0008B01089580919201893088F480918F0180
:101DC00086958F7190919201891304C030938A0196
:101DD00020938901809192018F5F809392010895F1
:101DE000662381F080919101861760F080918901CE
:101DF00090918A012091890130918A01821793077D
:101E0000A9F708958CED95E008952091900130E0B8
:101E1000062E02C0359527950A94E2F7C901817014
:101E2000992720FF0CC04091900121E030E001C0D3
:101E3000220F6A95EAF720952423209390010895B4
:101E40002091680094E0883048F031E08E3008F44A
:101E500030E091E001C0990F3A95EAF7922B909308
:101E60006800EDE6F0E0883030F0EBE6F0E08E3030
:101E700010F0ECE6F0E04081282F30E0883048F4A4
:101E800091E001C0990F8A95EAF7892F842B80830E
:101E900008958E3040F42850310981E001C0880F48
:101EA0002A95EAF7F3CF2E503109F7CF0F931F93FE
:101EB000CF93DF9392E0883028F08E5091E0883005
:101EC00008F090E040E05AE0959FD0011124AF580F
:101ED000BE4F292F092E000C330B55E0959FC001F2
:101EE0001124C42F042E000CDD0B5C915C171D0621
:101EF00009F00CF453C0FC01EC0FFD1FEE0FFF1FA7
:101F0000E559FE4F008111810617170711F04F5F49
:101F1000E8CF47FD43C0118210828C918150990B0C
:101F2000C817D90751F18AE0829FE001839FD00D45
:101F30001124CF58DE4F55E0529FC001539F900DA2
:101F40001124E42FF0E068816150770BE617F70762
:101F5000A4F4DF011196A80FB91FAA0FBB1FA55942
:101F6000BE4F6D917C91E80FF91FEE0FFF1FE559F1
:101F7000FE4F718360834F5FE4CF8AE0829FF00160
:101F8000839FF00D1124E559FE4F86818150868391
:101F900081E0DF91CF911F910F91089580E0F9CFFB
:101FA000809160038631C8F4EDE6F0E0883030F0CF
:101FB000EBE6F0E08E3010F0ECE6F0E09081482F98
:101FC00050E0883070F421E030E0082E01C0220F8C
:101FD0000A94EAF720952923208360E97DE00C9498
:101FE000560F8E3048F44850510921E030E001C0CE
:101FF000220F4A95EAF7EECF4E505109F6CF8830BE
:10200000B8F192EF980F81E0983008F080E0482F07
:10201000082E000C550B9AE08902F0011124E559B5
:10202000FE4F208131816217730729F122813381AC
:102030006217730701F12481358162177307D9F0A4
:1020400096819330B8F4A68195E0949F9001959F76
:10205000300D1124A20FB32FB11DAA0FBB1FA5591C
:10206000BE4F11967C936E9396819F5F96830895E1
:1020700082E0CDCF8FEF0895CF92DF92EF92FF9263
:10208000CF936B017C0150E0BA0175956795962F4F
:102090009370990F80917D03817EFA01A4E0F595FC
:1020A000E795AA95E1F7E370EE0FEE0FEE0F892B9F
:1020B0008E2B80937D03982F9871983121F4877E21
:1020C000886080937D0393E0559547959A95E1F755
:1020D00080917D0340FB85F920FB80F980937D038F
:1020E000887121E030E011F430E020E06370772760
:1020F0006B5F7F4F620F731F81E090E002C0880F1B
:10210000991F6A95E2F790937F0380937E03C091B5
:1021100060038C2F90E0FC01E25AFA4E2491FC01FE
:10212000E458FA4EE491F0E0EE0FFF1FEC5AFA4E3D
:10213000A591B4918C91E22FE095E823EC938091E6
:102140007D0380FD04C061E08C2F0E94980C80EA22
:10215000C81686E8D80681E0E806F104B1F0C1149B
:1021600082ECD80681E0E806F104B1F060E97DE098
:102170008C2F0E94FF0FC631A0F48C2FCF91FF90BF
:10218000EF90DF90CF900C94200F8AE180930101B3
:1021900080E380930201EACF80E18093010189E22C
:1021A000F8CFCF91FF90EF90DF90CF900895BF923E
:1021B000CF92DF92EF92FF920F931F93CF93DF9313
:1021C0000E945F0D6B017C01C0916901D0916A0191
:1021D000BB24BA9401E010E0209709F445C08D813A
:1021E0008370823001F520918601422F50E08C816E
:1021F000282F30E08830D8F49801082E02C0220F32
:10220000331F0A94E2F724233523232B61F00E9425
:102210006F0C9D8192FB992790F99817B9F0CA86A7
:10222000DB86EC86FD860A80DB81C02DD5CF8E3023
:1022300050F428503109B80102C0660F771F2A9563
:10224000E2F79B01E0CF2E503109F5CF8A859B85BF
:10225000AC85BD859601281B390B3F872E87B88A30
:102260000E94840D698BDFCFDF91CF911F910F9179
:10227000FF90EF90DF90CF90BF900895BF92CF92E4
:10228000DF92EF92FF920F931F93CF93DF930E9401
:102290005F0D6B017C01C0916901D0916A0101E081
:1022A00010E0BB24BA94209709F445C08D81837057
:1022B000813001F520917C01422F50E08C81282F44
:1022C00030E08830D8F49801082E02C0220F331F66
:1022D0000A94E2F724233523232B61F00E946F0C2C
:1022E0009D8192FB992790F99817B9F0CA86DB86F1
:1022F000EC86FD860A80DB81C02DD5CF8E3050F470
:1023000028503109B80102C0660F771F2A95E2F7FD
:102310009B01E0CF2E503109F5CF8A859B85AC8596
:10232000BD859601281B390B3F872E87B88A0E94EE
:10233000840D698BDFCFDF91CF911F910F91FF90BB
:10234000EF90DF90CF90BF900895BF92CF92DF9231
:10235000EF92FF920F931F93CF93DF930E945F0D35
:102360006B017C01C0916901D0916A01BB24BA94D0
:1023700001E010E0209709F444C08D81837001F5DD
:1023800020917201422F50E08C81282F30E088305C
:10239000D8F49801082E02C0220F331F0A94E2F7E6
:1023A00024233523232B61F00E946F0C9D8192FB27
:1023B000992790F99817B9F0CA86DB86EC86FD86D6
:1023C0000A80DB81C02DD6CF8E3050F428503109E1
:1023D000B80102C0660F771F2A95E2F79B01E0CF94
:1023E0002E503109F5CF8A859B85AC85BD85960138
:1023F000281B390B3F872E87B88A0E94840D698B72
:10240000DFCFDF91CF911F910F91FF90EF90DF9081
:10241000CF90BF900895FC018685978526853785E6
:1024200082179307C9F70895FC01808990E0062E72
:1024300002C0959587950A94E2F780FF1CC0208919
:1024400081E090E001C0880F6A95EAF780958223C9
:10245000808B268537858685978528173907C9F7A4
:10246000868197812817390730F081E040855185B2
:102470004217530708F480E0089590E080E0089543
:102480002091FF0130E0062E02C0359527950A9471
:10249000E2F7C9018170992720FF0CC04091FF012C
:1024A00021E030E001C0220F6A95EAF7209524234D
:1024B0002093FF010895CF92DF92EF92FF92CF9386
:1024C000DF93EC01CF8030E1C39E60011124C6018F
:1024D000C616D70608F4CB01288530E1239FF0010A
:1024E0001124AF018E179F0708F4AC0170E060E083
:1024F000DB01CA0122E0B595A795979587952A95A6
:10250000D1F79E838D830D2C000CEE08FF089A01F5
:10251000AB012C193D094E095F09A4EBB0E00E9404
:1025200019399F01FF0F440B550B2C193D094E091A
:102530005F090E94FA382C83DF91CF91FF90EF90D2
:10254000DF90CF9008950C945B12813059F09091F8
:102550006801823029F1892F992331F081508093CD
:10256000680126C010926801E09168019FEF9E0FFC
:10257000903110F5E60FF72FF11D9681DB011296D1
:10258000EC912E2F30E0F901EE0FFF1FE20FF31F49
:10259000ED5FFE4FE281F0E0EA5DFD4F908308952C
:1025A000DB0116968C91981728F49F5F9093680131
:1025B00081E0DACF80E0D8CF90E0E0CFFB0145307A
:1025C000B1F460E177E20E946139605D6083319629
:1025D00068EE73E00E946139605D6083319664E665
:1025E00070E00E946139605D6083319604C04430C0
:1025F00079F34230A1F76AE070E00E946139605DD2
:102600006083805D8183128208958F929F92AF9242
:10261000BF920F931F93CF93DF93CDB7DEB7A197F0
:102620000FB6F894DEBF0FBECDBF19A2423008F43A
:102630004AE08E010F5D1F4F842E912CB12CA12CEE
:10264000A50194010E942439E62FB901CA01EA309C
:1026500044F5E05DD801EE938D01232B242B252B2F
:1026600079F790E080E0109769F0FD01019000207B
:10267000E9F73197AF014A1B5B0BBD018FE692E092
:102680000E941E0BA1960FB6F894DEBF0FBECDBF01
:10269000DF91CF911F910F91BF90AF909F908F903E
:1026A0000895E95CD7CFBC01990F880B990B4AE0DC
:1026B0000C940513FC0101900020E9F73197AF015C
:1026C000481B590BBC018FE692E00C941E0BEF9255
:1026D000FF920F931F93CF93DF9399E2899FE001BD
:1026E00011248E01075E1F4F7B01CE5BDF4FC801B7
:1026F0000E94B738F70181937F010F5F1F4F0C17BE
:102700001D07A9F7DF91CF911F910F91FF90EF90D7
:10271000089587E190E00C94B7380F931F93CF93FF
:10272000DF938C01D0E0C0E0CE010E94B738F80101
:1027300081938F012196C731D105B1F7DF91CF91F8
:102740001F910F9108950F931F93CF93DF93CDB7F0
:10275000DEB767970FB6F894DEBF0FBECDBF8C0112
:10276000CE0101960E948D1380912E0290912F022E
:10277000892B51F18981982F9295969597708A812E
:102780008170880F880F880F892BD8019C91292F81
:1027900022952695277011969C919170990F990F0B
:1027A000990F922B813009F044C0913009F44EC04A
:1027B000F89480916B00877F80936B0065EA71E1EC
:1027C0008BE00E94560F7894D801EC918E2F829561
:1027D000869587701196EC91E170EE0FEE0FEE0F7B
:1027E000E82B80912E0290912F02892B71F0898124
:1027F000982F9295969597708A818170880F880F8F
:10280000880F892B8E1709F460C0809159028F7E42
:1028100080935902E830A0F5F0E0EF5EFB4E0C9497
:1028200089393114C41408154E155C1569157615CF
:102830008315823059F4923049F0F89480916B00FE
:10284000877F80936B0068E67EE0BACF835F8F70EE
:10285000853008F0B9CF933008F0B6CF0E94D00F82
:10286000B3CFF801858160E0811101C062E08BE0A7
:102870000E94C60C82E893E090932F0280932E0270
:10288000D8018C91982F92959695977011968C916E
:1028900011978170880F880F880F892B8330A8F0DB
:1028A00014968C910E94F40A81E793E090930F03B1
:1028B00080930E038CE093E090932F0280932E027E
:1028C00080915902806180935902F894F8018081C7
:1028D00020912E0230912F023093670320936603DC
:1028E0008F71806C8093650310926D0380916E03ED
:1028F00090916F0340917003407F49604093700353
:1029000083719C77926090936F0380628F7E809337
:102910006E031092690310926A03918192959695C5
:1029200093708C7F892B80936E0380818F7130939D
:102930001C0220931B02982F990F990F809120025F
:102940008370892B809320021092210280912402AF
:10295000807B8093240280818F718150893040F484
:102960008F71880F90918F01917C892B80938F01BB
:10297000789467960FB6F894DEBF0FBECDBFDF9197
:10298000CF911F910F91089562E08BE00E94C60CD9
:10299000809187038C7F8093870365EA71E18BE0E8
:1029A0000E94FF0F982F9370809187038C7F892B53
:1029B000809387038BE08093860388E592E0909371
:1029C00089038093880380E699E090938B0380933A
:1029D0008A038091690190916A01909385038093A5
:1029E000840382E893E090936A018093690160E038
:1029F0008BE00E94C60C61E0809186030E94980CD7
:102A000080918603863108F035CF0E94200F32CFA7
:102A100062E08BE00E94C60C83B190916B00892329
:102A200080937401809174018093730186B19091B9
:102A30006C00892380937E0180917E0180937D01CB
:102A400089B190916D0089238093880180918801DC
:102A50008093870168E67EE08BE00E94FF0F809301
:102A600096018091960187FD16C08CED95E09093BC
:102A70008A01809389018AE08093920110929101EA
:102A8000109290018BE080939501809195018631A1
:102A900010F40E94200F80E893E0EECE21E04EE299
:102AA00060EA76E881E090E00E943C10809110039B
:102AB000807F80931003E4CE20E046E060E072EC7B
:102AC00081E090E00E943C1080911003807F816043
:102AD000F0CF20E046E060E072EC81E090E00E9400
:102AE0003C1080911003807F8360E3CF20E046E0BC
:102AF00060E072EC81E090E00E943C108091100355
:102B0000807F8460D6CF20E046E060E072EC81E018
:102B100090E00E943C1080911003807F8660C9CFB6
:102B2000CF93DF93CDB7DEB767970FB6F894DEBFCC
:102B30000FBECDBFCE0101960E948D13EA810E2EED
:102B4000000CFF0BEE27FF0FEE1FFF27EE0FFF1FFE
:102B5000EC57FF4F859194910E940B0C67960FB62E
:102B6000F894DEBF0FBECDBFDF91CF910895DC0199
:102B700014968C9114978F70843080F48130A8F073
:102B80006150862F90E0880F991FA80FB91F9D965E
:102B90002D913C9132272327322729C0863008F413
:102BA00012C120E034E0863011F5615020E038E0B9
:102BB0006031E8F4E62FF0E0E052FA4E0C948939E7
:102BC000F015F9150B162516331642165A166B1604
:102BD0007D1683168C16A316AA16B216C716D11622
:102BE0009D962C919D979E968C91382F3770C90198
:102BF00008959E969C919E979695969596959F96EC
:102C00008C91482F4295440F407E242F292B869586
:102C100086958695EACF9F969C919F9792959695DB
:102C200096959370D0968C91D097482F440F440F6F
:102C3000242F292B982F9295969596959370D1963F
:102C40008C918170880F880F32C0D1969C91D1975A
:102C50009695D2968C91482F479544274795242FD7
:102C6000292B8695C2CFD2969C91D29792959F7030
:102C7000D3968C91482F4295407F242F292B829503
:102C80008F70B3CFD3969C91D397991F9927991F93
:102C9000D4968C91D497482F440F242F292B982F0A
:102CA000991F9927991FD5968C918370880F382F7B
:102CB000392B9DCFD5969C91D59796959695D6967E
:102CC0008C91482F4295440F440F407C242F292B90
:102CD000869586958ACFD6968C91D697829586953D
:102CE0008770D7969C91492F440F440F440F242F8F
:102CF000282B392F3295369579CFD8962C91D897A5
:102D0000D9968C9172CFD9969C91D9979695969594
:102D10009695DA968C9175CFDA969C91DA97929582
:102D2000969596959370DB968C91DB97482F440F80
:102D3000440F242F292B982F929596959695937052
:102D4000DC968C917ECFDC969C91DC979695DD96F7
:102D50008C9181CFDD969C91DD9792959F70DE9648
:102D60008C9188CFDE969C91DE97991F9927991FA9
:102D7000DF968C91DF97482F440F242F292B982F13
:102D8000991F9927991FA05CBF4F8C918ECFFD0191
:102D9000E05CFF4F908196959695AF5BBF4F8C910D
:102DA00090CFFD01EF5BFF4F9081929596959770C4
:102DB000AE5BBF4F8C91482F440F440F440F242F1C
:102DC000292B382F97CF6150862F90E0880F991FBD
:102DD000A80FB91F9D962D913C9109CFCF93DF93FA
:102DE0002FEF260F203108F075C0EC010E94B715B7
:102DF0009C01EC81EF70E73008F06CC0F0E0ED5F13
:102E0000F84E0C9489390A171C172B1746171817F8
:102E100040175B17A0E0B5E00E9446392FEF37E07E
:102E200040E050E00E94FA3820593C4F4F4F5F4F2E
:102E3000C901DF91CF910895A8E7B5E00E94463916
:102E40002FEF3FE040E050E00E94FA38205E3C4F18
:102E50004F4F5F4FEDCF50E040E0205A3A424109DA
:102E60005109A8EEB3E00E94193924EB3AEA40E098
:102E700050E00E94FA3828513C4F4F4F5F4FD8CF57
:102E800083E0369527958A95E1F7D2CF50E040E070
:102E900020523C4141095109A0EBB4E00E9419398C
:102EA00020E835E240E050E00E94FA382C573C4FD1
:102EB0004F4F5F4FBDCF50E040E02F5B31094109DC
:102EC0005109A8EEB3E00E94193921E436E040E050
:102ED00050E0CFCF2CED35E0ABCF8F929F92AF92E9
:102EE000BF92CF92DF92EF92FF920F931F93CF93F7
:102EF000DF936C014B015A01D8011C92FA01D0E01A
:102F000011921192DF5F2D13FBCFF6018081882390
:102F100009F443C0F40101900020E9F731977F01E3
:102F2000E818F908C0E0FF24B401C6010E949639F0
:102F3000009711F1DC011C92D801EC9121E02E0FD9
:102F40002C93F0E0EE0FFF1FEA0DFB1DD182C08233
:102F50006C01CE0CDF1CCF5FDC13E6CF8C2FDF9132
:102F6000CF911F910F91FF90EF90DF90CF90BF9086
:102F7000AF909F908F900895F801C081D6018C91F9
:102F8000882361F38C2F90E0880F991FA80EB91E3B
:102F9000F501D182C082CF5FE1CF80E0E0CFEF9238
:102FA000FF920F931F93CF93DF9399E2899FE001E4
:102FB00011248E01075E1F4F7B01CE5BDF4FF701AF
:102FC00061917F01C8010E94C5380F5F1F4F0C1728
:102FD0001D07A9F7DF91CF911F910F91FF90EF90FF
:102FE00008950F931F93CF93DF938C01D0E0C0E03F
:102FF000F80161918F01CE010E94C5382196C73139
:10300000D105B1F7DF91CF911F910F910895DF9214
:10301000EF92FF920F931F93CF93DF93CDB7DEB75D
:10302000C156D1090FB6F894DEBF0FBECDBF85E201
:103030002C968FAF2C9788E82D968FAF2D9785E033
:103040002E968FAF2E972F961FAE2F9760961FAE9E
:10305000609761961FAE619780E162968FAF62972D
:1030600081E063968FAF639783E064968FAF649738
:1030700087E065968FAF65978FE066968FAF66970E
:103080008FE167968FAF67978FE368968FAF6897EA
:103090008FE769968FAF69978FEF6A968FAF6A97C0
:1030A0006B961FAE6B9785E56C968FAF6C978AEA2F
:1030B0006D968FAF6D9784E56E968FAF6E9788EAA9
:1030C0006F968FAF6F9780E5A0968FAFA09780EA3D
:1030D000A1968FAFA19780E4A2968FAFA297CE0161
:1030E000855B9F4F0E94F1176FEF87E190E00E9490
:1030F000C53861E088E190E00E94C5387E018AE22F
:10310000E80EF11C67E970E0C7010E948238BE0139
:103110006F5F7F4F80E00E94671380E2F701DE015E
:103120001A9601900D928A95E1F7BE016F5F7F4F6D
:1031300080E00E94CF1768E870E0C7010E948238E3
:1031400010E084E4D82E0E2DEF2CFF24F394F10E22
:10315000BE016F5F7F4F8F2D0E946713D9821F5C66
:1031600018AF19AE80E2E02FFE2DDE011A96019015
:103170000D928A95E1F7BE016F5F7F4F8F2D0E9400
:10318000CF171F2D183009F7CF59DF4F0FB6F8941E
:10319000DEBF0FBECDBFDF91CF911F910F91FF908A
:1031A000EF90DF9008952F923F924F925F926F922F
:1031B0007F928F929F92AF92BF92CF92DF92EF92C7
:1031C000FF920F931F93CF93DF93CDB7DEB7C75511
:1031D000D1090FB6F894DEBF0FBECDBFCE018A96DF
:1031E0000E948D1380913002883409F47CC064F50C
:1031F000833409F405C254F4882309F469C0823485
:1032000011F40C947A2261EB72E16AC0853409F4FE
:103210000DC414F40C94E6228634A9F7809131028F
:103220008D3311F00C94DA2282E392E00E945B3835
:10323000092E000CAA0BBB0B8F3F9105A105B10510
:1032400009F008F78DA7FAC1803509F4E6C20CF041
:1032500030C08C3409F496C38D3409F458C38934D2
:1032600091F6809131028D3309F085C2E0913202EE
:10327000E354E63108F05EC20E2E000CFF0BED5B4E
:10328000F64E0C948939831B3E1B9A1B971B9A1B85
:103290009A1B931B9A1B9A1B9A1B9A1B9A1B9A1B8D
:1032A0007F1B9A1B9A1B871B9A1B8F1B9A1B9A1BAF
:1032B0008B1B833509F4C7C4843509F4B0C181354B
:1032C00009F0A1CF809159028E7F80935902A4C149
:1032D00080915902816082608093590261EF72E1AE
:1032E00080E392E0C8C18CE892E10E940B0C0E943E
:1032F000901583E492E10E940B0C0E9490158FEFD1
:1033000091E10E940B0C0E94901585EB91E10E94C7
:103310000B0C0E94901587E791E10E940B0C0E9414
:10332000901589E391E10E940B0C0E94901586E0B4
:1033300091E10E940B0C0E9490158AEB90E10E9493
:103340000B0C0E9490158EE790E10E940B0C0E94DE
:10335000901585E490E10E940B0C0E9490158FEF70
:103360009FE00E940B0C0E94901581EB9FE00E9451
:103370000B0C0E94901581E69FE00E940B0C0E94AE
:10338000901588E39FE00E940B0C0E94901585E049
:103390009FE00E940B0C0E94901586EB9EE00E941D
:1033A0000B0C0E94901584E69EE00E940B0C0E947C
:1033B000901584E19EE00E940B0C0E9490158FEC0A
:1033C0009DE00E940B0C0E94901580E99DE00E94F8
:1033D0000B0C0E94901581E49DE00E940B0C0E9452
:1033E00090158CEF9CE00E940B0C0E94901580EBD6
:1033F0009CE00E940B0C0E94901585E69CE00E94C8
:103400000B0C0E9490158DE19CE00E940B0C0E9419
:10341000901581ED9BE00E940B0C0E94901586E8B0
:103420009BE00E940B0C0E9490158DE39BE00E9494
:103430000B0C0E9490158FEE9AE00E940B0C0E94DC
:10344000901586EA9AE00E940B0C0E94901588E67F
:103450009AE00E940B0C0E9490158FE19AE00E9466
:103460000B0C0E9490158FEC99E00E940B0C0E94AF
:1034700090158CEA99E00E940B0C0E9490158CE547
:1034800099E00E940B0C0E9490158FE099E00E9439
:103490000B0C0E94901587EC98E00E940B0C0E9488
:1034A000901588E798E00E940B0C0E94901589E225
:1034B00098E00E940B0C0E94901589ED97E00E9405
:1034C0000B0C0E9490158BE997E00E940B0C0E9458
:1034D00090158CE497E00E940B0C0E9490158DEFE4
:1034E00096E00E940B0C0E94901587EB96E00E94DC
:1034F0000B0C0E94901588E696E00E940B0C0E942F
:10350000901588E196E00E940B0C0E94901588ECC3
:1035100095E00E940B0C0E9490158DE795E00E94AB
:103520000B0C0E9490158EE295E00E940B0C0E94FD
:10353000901583EE94E00E940B0C0E9490158BEA8C
:1035400094E00E940B0C0E9490158FE594E00E947D
:103550000B0C0E94901587E194E00E940B0C0E94D6
:10356000901586EC93E00E940B0C0E9490158DE75D
:1035700093E00E940B0C0E9490158FE293E00E9452
:103580000B0C0E94901580EE92E00E940B0C0E94A2
:10359000901588EA92E00E940B0C0E9490158AE533
:1035A00092E00E940B0C0E9490158BE092E00E942A
:1035B0000B0C0E9490158EEE91E00E940B0C0E9465
:1035C000901580EA91E00E940B0C0E94901586E510
:1035D00091E00E940B0C0E9490158CE291E00E94F9
:1035E0000B0C0E9490158BEE90E00E940B0C0E9439
:1035F000901586EA90E00E940B0C0E94901592C7ED
:10360000809131028D3309F0FECD809132028634F3
:1036100009F0F9CD0E9407181092310271C1809112
:1036200031028D33E1F46CEE72E182E392E00E94AC
:103630007938892B41F48BA58F778BA7CE018A9699
:103640000E94F117E9CF69EE72E182E392E00E94F5
:103650007938892B09F0D7CD8BA58068EECF8DE323
:10366000809331028BA566EE72E187FD02C061EEA8
:1036700072E182E392E00E94823842C18AA58F7192
:103680008AA78BA58E7F8BA7F12C8AA5982F929560
:10369000969597708BA58170880F880F880F892B5E
:1036A000833008F04AC010E0F110ADCD80913202B5
:1036B00081357CF083E392E00E945B389FEF980FA6
:1036C000903108F0A0CD982F9F718AA5807E892B1C
:1036D0008AA78AA5982F9295969597708BA5817049
:1036E000880F880F880F892B833020F01EA7812F29
:1036F0000E94F40ACE018A960E94A3139FCF8AA546
:103700008F718062BDCF8AA58F718064B9CF8AA581
:103710008F718066B5CF8AA58F718068B1CF8AA579
:103720008F71806AADCF8AA58F71806CA9CF8AA571
:10373000806EA6CFFF24F394A8CF8E010B5A1F4FA3
:103740002AE0AE014F5B5F4F64E671E082E392E0F6
:103750000E946D17823009F0A6CF2596EEADFFAD21
:10376000259780818B3229F01FEF8D3209F49CCF91
:103770004ACD11E099CF8F3309F045CD8DE3809389
:1037800031028AA5982F9295969597702BA5217056
:10379000220F220F220F292BE22FF0E0E752FD4EDD
:1037A000E491E0933202223008F48DC08F718A30A8
:1037B00028F5805D8093330210923402E4E02230D9
:1037C00009F49EC02EA5222309F49AC041E04E0FB1
:1037D0008E2F90E0805D9D4F3BE3DC013C938DE2BA
:1037E0002F3F09F08BE2A42FB0E0A05DBD4F8C937A
:1037F000EE5FF0E0E05DFD4F108282C090E06AE095
:1038000070E00E947539605D60933302805D809343
:10381000340210923502E5E0D2CF809131028D332F
:1038200009F03FC08E010B5A1F4F2AE0AE014F5BDB
:103830005F4F64E671E082E392E00E946D17909121
:103840003202923509F4DFC6963409F4D5C69234B3
:1038500009F4F5C6903509F400C7953409F4EFC6AC
:10386000933509F0D0CC823009F0CDCC2596EEAD61
:10387000FFAD259780818B7F883409F03BCF8BA5E6
:10388000817F8A608BA781E09081983409F080E085
:103890008FA730CF8BA5817F8860953409F4CDC682
:1038A000B2CC8DE3809331028BA5982F96959770BB
:1038B000E92FF0E0ED52FD4EE491E09332029230B8
:1038C00029F0953091F0109233021AC09BE3909347
:1038D000330296E490933402829586958370805DDE
:1038E00080933502109236020BC08BE38093330233
:1038F0008FA5882351F088E480933402109235021A
:1039000080E392E00E945A1378CE8CE4F5CF809148
:1039100031028D3301F5B5ECEB2EB2E1FB2E10E058
:10392000F701859194910E948938F701659174910E
:10393000AC0182E392E00E949238892B29F417307F
:1039400008F061CC1CA77ACE1F5FB2E0EB0EF11C31
:10395000173031F758CC8DE380933102ECA5E73076
:1039600008F0BEC0F0E0EE0FFF1FEB53FD4E659177
:10397000749143E150E082E392E00E94A0381092FB
:103980004502BECF109131021D3379F01F33F9F497
:103990008DE38093310288E190E00E94B73888235C
:1039A000A1F089E5809332028ECF80913202893571
:1039B00019F08E3409F027CC61E0893509F060E018
:1039C00088E190E00E94C53827CE8EE4EBCF1053FB
:1039D000193008F018CCBE016F5F7F4F812F0E9415
:1039E0006713809132028D3391F41092320280E29B
:1039F000E3E3F2E0DE011A9601900D928A95E1F779
:103A0000BE016F5F7F4F812F0E94CF1779CF8DE36B
:103A10008093320280E2FE013A96A3E3B2E0019085
:103A20000D928A95E1F7109253026ACF809131028C
:103A30008334F9F08E3409F066C0809132028D3300
:103A400079F483E392E00E945B389FEF980F903106
:103A500008F0D9CB88ABCE018A960E94F11740C0FE
:103A60008DE38093320288A942E063E372E090E044
:103A700091C4809132028D33C9F5809133028D3229
:103A800039F08B3219F0823509F0BDCB90E009C0D6
:103A9000BE01665D7F4F80E00E94A51291E081111A
:103AA000F5CF809133028B3249F4BE01665D7F4FC2
:103AB00082E00E94A51291E0811190E08091330292
:103AC000823589F4BE01665D7F4F81E00E94A512B8
:103AD000882309F498CB80915A02816080935A021E
:103AE000109232020DCF91118ECBF5CF8DE38093E2
:103AF0003202809168018111B7CF82E58093330251
:103B000010923402FDCE81E392E00E945B38D82E01
:103B1000882309F478CB98A9981708F474CB80917E
:103B200033028D7F22E08D3309F423E030E0C901B8
:103B30008F5C9D4FF901E05DFD4F7F0120812D33AA
:103B400009F055C08E010B5A1F4F29E0AE014F5BA3
:103B50005F4F66E671E00E946D17382EF1E08F131B
:103B60000AC061EC72E123968EAD9FAD23970E944F
:103B70007938892BD1F18E010F5B1F4FA12CC12CFD
:103B8000B12C412C512C32014394A31409F1D801DA
:103B90008D909D908D01C40101960E945B38F401C7
:103BA0009081933591F49FEF980F983070F4815085
:103BB000990BA301920104C0220F331F441F551F0C
:103BC0008A95D2F7C22AA394E0CFBB24B394FBCF4B
:103BD000B11019CBFE01ED0DF11DC0AACE018A96E0
:103BE0000E94F117D7011C928BCEC12CF3CFFE019E
:103BF000ED0DF11D40A92DE3F70120836DEB72E17E
:103C0000442309F438CD30E020E050E063E57BE266
:103C1000FA01022E02C0F595E7950A94E2F7E0FF5B
:103C20000AC0DC016C93E1E3E20F1196EC9311976B
:103C300012967C9303962F5F3F4F2830310541F752
:103C40000197FC01D9CD809131028235F1F4809148
:103C500032028D3381F4809133028E3419F089352C
:103C600009F0D1CA91E0893509F090E08BA590FB6D
:103C700084F98BA7F0CE8DE3809332028BA584FF6D
:103C800002C089E53BCF8EE439CFE0EDFE2EF80E81
:103C9000F8E0FF1508F4B7CAFF2031F0BE016F5FEE
:103CA0007F4F8F2D0E946713809132028D3309F070
:103CB0009BC28E010B5A1F4F2AE0AE014F5B5F4F34
:103CC00064E671E083E392E00E946D17E82EF11044
:103CD0002DC021E0821397CA23968EAD9FAD239706
:103CE0000E945B389C012C5D33402D3F63E036071A
:103CF00080F410923202C901969587959695879522
:103D000080931A022BA524FFFBCD809580931A0285
:103D1000F7CD8F3F910511F008F075CA109232026D
:103D200080931A029BA594FFEBCDEFCF2091330235
:103D3000223409F452C10CF041C0213409F4A5C168
:103D4000B1E0EB1260CAE8E0FE121EC28981813444
:103D500009F01AC20E948913F82E23960EAD1FADEA
:103D60002397C8010E945B38F80101900020E9F711
:103D700032972081253209F0FEC19C0185369105DC
:103D800010F024E630E08F2D90E0880F892F881FF7
:103D9000990B892B31F484E690E0AC01421B530B64
:103DA0009A01AFEFB0E00E94463924E630E040E0EF
:103DB00050E00E94243920931A0292CE243409F450
:103DC00064C1233509F0BCCF8BEF8E0D823008F033
:103DD0001ACA2596EEADFFAD2597D080BEE4DB165E
:103DE00019F0E0E5DE120FCA0E9489132F2D215031
:103DF000330B890141E050E060E070E004C0440F03
:103E0000551F661F771F2A95D2F73EE4B82EB42AB5
:103E1000D31619F0B42EB094B82283E5898327967F
:103E20008EAD9FAD27970E945B386C019F838E8378
:103E300029968EAD9FAD29970E945B384C019987DA
:103E400088872B968EAD9FAD2B970E945B38AC0177
:103E500081306AEF960710F040E05AEFAA24A3944D
:103E60009601285532402930374008F4A12C94019E
:103E7000285532402930374010F0AA24A3949401E9
:103E80002C193D098C149D0418F496012819390940
:103E9000892B11F441E050E0A8ECB0E00E944639D3
:103EA0002B013C019A0150E040E00E94243980ED52
:103EB00097E0213DE7E03E074105510530F43B83A3
:103EC0002A83232B21F481E090E09B838A83F6E010
:103ED0008A819B81EF124CC12D968EAD9FAD2D979F
:103EE0000E945B3881302AEF920708F03BC10097AF
:103EF00009F43BC19C0150E040E0C301B2010E94C3
:103F0000243980ED97E0213D67E0360741055105F2
:103F100008F02EC13D832C8381E090E0232B09F42F
:103F200027C1A11070C9BE016F5F7F4F8F2D0E9406
:103F3000CF176B2D87E190E00E94C538F801EF5153
:103F4000FB4E84919BE0909FD001919FB00D112476
:103F5000FD01EC56FC4F7F0183839FEF948392E237
:103F6000978396E99087AA56BC4F9C9192609C9348
:103F700061E00E94980C61E0D70113968C910E9439
:103F8000C60C8091190290E0002E02C0959587958D
:103F90000A94E2F781709927880F991FE1E0F0E019
:103FA000EC0FFD1F8E0F9F1FDC0115962D913C918C
:103FB0004AE0429FC001439F900D1124000F111F42
:103FC000F801EC5FFD4F918380836AE070E00E940E
:103FD0006139C7010E945B1283CD8DEF8E0D823057
:103FE00008F011C92596EEADFFAD259700810E347E
:103FF00019F0003509F007C90E948913AF2DA150AF
:10400000BB0B9D0141E050E060E070E004C0440F54
:10401000551F661F771FAA95D2F7942F9095182FDA
:104020000E3489F5142B82E489838BE0829FF001A2
:10403000839FF00D1124EC56FC4F8FEF838380910A
:10404000190289238093190227968EAD9FAD279779
:104050000E945B389B838A83B4E0EB1206C02996EA
:104060008EAD9FAD29970E945B389D838C83BE01E6
:104070006F5F7F4F8F2D0E94CF17612F87E190E0F8
:104080000E94C5382DCD1923CECFE2E0EE12BBC879
:10409000243409F042C02596EEADFFAD2597E080AF
:1040A000FEE4EF1619F020E5E212ADC80E94891374
:1040B0004F2D4150550B8A0141E050E060E070E027
:1040C000002E04C0440F551F661F771F0A94D2F7B5
:1040D000D42ED0949EE4682FE9121DC0642B87E192
:1040E00090E00E94C53884E48983BE016F5F7F4FF2
:1040F0008F2D0E94CF178BE0809FF001819FF00DE4
:104100001124EC56FC4F8FEF8383809119028D218F
:1041100080931902E5CC6D21E2CFA8E0FA1273C8B2
:104120002596EEADFFAD259710811E3419F0193498
:1041300009F069C80E948913682F1E3489F46068E9
:1041400087E190E00E94C53881E48983BE016F5FFA
:104150007F4F88E00E94CF178FEF8093E403C0CC9D
:104160006F77EECF80E09AEFC5CE81E090E0C2CECF
:104170009D838C83D6CE9C018F3F910509F008F476
:104180001ACE2FEF30E017CE80ED820F823008F08C
:104190003AC88091340281110C9403198F2D8150FB
:1041A000990BAC0181E090E0A0E0B0E004C0880F82
:1041B000991FAA1FBB1F4A95D2F7ECA54E2F50E0BE
:1041C000FA01EE0FFF1FE40FF51FED5FFE4FE281D6
:1041D000F0E0EA5DFD4F3081203319F0832B8083BE
:1041E0007ACC80958323FBCF8F3311F00C94031985
:1041F0008DE380933202FF2009F4B2C0E980AF2D35
:10420000A150BB0B6896BFAFAEAF68970E948913F1
:10421000082F10E067960FAC679702C015950795B9
:104220000A94E2F701701127B3E5EB12C2C02885AA
:104230003985CE80DF802C153D0508F4B2C02C19DD
:104240003D09A8ECB0E00E9446394B015C012A818F
:104250003B8150E040E00E942439290179012C8102
:104260003D8150E040E0C501B4010E94243949017C
:10427000190183E5809333028BE3809334028EE44B
:10428000012B09F480E5809335021BE3109336027D
:1042900044E067E372E0C6010E94DE1210933B0225
:1042A00044E06CE372E0888599850E94DE121093E9
:1042B000400244E0F0E1EF16F7E2FF0608F045E0C7
:1042C00061E472E0C2010E94DE1285E190E020E12B
:1042D000E21627E2F20610F086E190E0805D9D4F45
:1042E0002BE3DC012C9344E0B0E12B16B7E23B0654
:1042F00008F045E066E472E0E0E1EE16E7E2FE0673
:1043000010F067E472E0C4010E94DE12F0E1EF16E3
:10431000F7E2FF0608F04AC0E6E1F0E020E12216ED
:1043200027E2320608F08EC084E090E0E80FF91F23
:10433000E05DFD4F8AE380838091190290E06796EB
:104340000FAC679702C0959587950A94E2F7817044
:10435000805D818312828091590286FD4DCAD0CA48
:1043600000911A0210E08BA584FF17C086EF91E040
:10437000801B910B880F991F880F991F44E063E3FE
:1043800072E00E94DE128AE38093370243E068E322
:1043900072E0C8010E94DE12B3CAC80189509F4F63
:1043A000E9CFF601E21BF30B9F014BCFE7E1F0E011
:1043B000B5CF32E4E3124EC0E09233028BE3809338
:1043C00034028EE4012B09F480E5809335028BE3FF
:1043D000809336028A819B81803147E29407A8F559
:1043E00044E067E372E00E94DE122A813B818BE0A9
:1043F00090E0203157E2350710F08CE090E0805DCE
:104400009D4F4BE3DC014C938C819D8144E08031D6
:10441000B7E29B0708F045E06CE372E020313742D9
:1044200010F06DE372E00E94DE128A819B81803180
:10443000974268F4ECE0F0E08C819D8180319742F6
:1044400008F472CF85E090E071CF45E0CACFEDE08F
:10445000F0E0F2CF38E0F31203C081E041E4E4126F
:1044600080E0E09233029BE3909334029EE4012BC0
:1044700021F499E4811101C090E5909335021AE38B
:1044800010933602811116C08091190290E0679650
:104490000FAC679702C0959587950A94E2F78170F3
:1044A000805D80933702109238028091590286FF16
:1044B00027CA18CA8091150254E6859FC0011124AD
:1044C0006FEF70E00E947539CB0143E067E372E063
:1044D0000E94DE1285E280933A0210933B028091A3
:1044E0001A0243E06CE372E090E00E94DE12109248
:1044F0003F02DBCF809131028D3371F58091320222
:10450000833411F00C9403198091590280688093D0
:10451000590280912A028F7080932A0287EB92E1E0
:104520000E940B0CC95ADF4F0FB6F894DEBF0FBEC6
:10453000CDBFDF91CF911F910F91FF90EF90DF9052
:10454000CF90BF90AF909F908F907F906F905F9033
:104550004F903F902F9008958F3311F00C940319D2
:104560008DE3809331021092320280E392E00E9448
:104570005A138BE8E82EFF24F39410E0C7010E9441
:10458000BF3844E060E372E00E94DE1280E392E014
:104590000E945A13173059F085EB92E10E940B0CE0
:1045A0001F5F62E0E60EF11C183041F7BBCF0E949E
:1045B0009015F6CF8F3311F00C9403198DE380938F
:1045C00031028DA543E062E372E051CA809131026D
:1045D0008D3341F482E392E00E945B3880931602AF
:1045E0000C940C1B8F3311F00C9403198DE3809302
:1045F000310280911602E6CF823009F47BC88BA588
:10460000817F82601AC0823011F00C9403192596C4
:10461000EEADFFAD25978081863409F06BC88181AE
:104620008053843010F00C9403199BA5917983700A
:104630008295880F807E9460892B8BA75BC882301F
:1046400009F458C88BA5817F9234B9F3903509F0ED
:1046500021C98BA5817F8660F0CF8230D1F74AC80F
:104660001F920F920FB60F9211242F933F934F93E7
:104670005F936F937F938F939F93AF93BF93EF93CA
:10468000FF938FE692E00E949C0BFF91EF91BF9108
:10469000AF919F918F917F916F915F914F913F91DA
:1046A0002F910F900FBE0F901F9018951F920F9291
:1046B0000FB60F9211242F938F939F93EF93FF9335
:1046C000E0917F02F09180028081E0918502F0917B
:1046D000860282FD1BC09081809188028F5F8F735C
:1046E00020918902821741F0E0918802F0E0E159BF
:1046F000FD4F958F80938802FF91EF919F918F914D
:104700002F910F900FBE0F901F9018958081F4CFBE
:104710001F920F920FB60F9211242F933F938F93F6
:104720009F93AF93BF938091DA019091DB01A091A9
:10473000DC01B091DD013091D90123E0230F2D3749
:1047400058F50196A11DB11D2093D9018093DA017E
:104750009093DB01A093DC01B093DD018091DE0139
:104760009091DF01A091E001B091E1010196A11DBE
:10477000B11D8093DE019093DF01A093E001B0931F
:10478000E101BF91AF919F918F913F912F910F9038
:104790000FBE0F901F90189526E8230F0296A11DBB
:1047A000B11DD2CF1F920F920FB60F9211242F93EB
:1047B0003F934F935F936F937F938F939F93AF93A9
:1047C000BF93CF93EF93FF9389B190916D008923AD
:1047D0008093880180918701909188018927809337
:1047E00086018091880180938701C0E080918501D6
:1047F000C81760F4EC2FF0E0EE0FFF1FE158FE4FFA
:104800000190F081E02D0995CF5FF0CFFF91EF91FE
:10481000CF91BF91AF919F918F917F916F915F9158
:104820004F913F912F910F900FBE0F901F901895B1
:104830001F920F920FB60F9211242F933F934F9315
:104840005F936F937F938F939F93AF93BF93CF9318
:10485000EF93FF9386B190916C00892380937E0142
:1048600080917D0190917E01892780937C018091C8
:104870007E0180937D01C0E080917B01C81760F4C8
:10488000EC2FF0E0EE0FFF1FEB58FE4F0190F08190
:10489000E02D0995CF5FF0CFFF91EF91CF91BF91C0
:1048A000AF919F918F917F916F915F914F913F91C8
:1048B0002F910F900FBE0F901F9018951F920F927F
:1048C0000FB60F9211242F933F934F935F936F93E3
:1048D0007F938F939F93AF93BF93CF93EF93FF9368
:1048E00083B190916B00892380937401809173014F
:1048F0009091740189278093720180917401809353
:104900007301C0E080917101C81760F4EC2FF0E0F2
:10491000EE0FFF1FE559FE4F0190F081E02D099544
:10492000CF5FF0CFFF91EF91CF91BF91AF919F916A
:104930008F917F916F915F914F913F912F910F9048
:104940000FBE0F901F901895109272021092710274
:1049500088EE93E0A0E0B0E080937302909374023D
:10496000A0937502B09376028CE191E0909370026F
:1049700080936F0285EC90E090937C0280937B02A1
:1049800084EC90E090937E0280937D0280EC90E036
:104990009093800280937F0281EC90E0909382025A
:1049A0008093810282EC90E0909384028093830252
:1049B00086EC90E0909386028093850210928802A4
:1049C0001092890210928A0210928B028EE291E07C
:1049D00090930D0380930C0310920F0310920E031B
:1049E000109212031092140310925903E4E9F3E0B9
:1049F0004EE551E02FEF51834083238316821582C9
:104A0000809163039091640392878187F09364039C
:104A1000E0936303809161038F5F809361033B9612
:104A200083E0E73FF80739F784E591E0909383034B
:104A300080938203809187038B7F809387038AE42E
:104A400091E09093810380938003109274031092FD
:104A5000730388EE93E0A0E0B0E080937503909339
:104A60007603A0937703B093780388E391E0909363
:104A70007203809371038BE080936003E7E8F5E1B4
:104A8000E491F0E0EE0FFF1FEE58FA4E85919491FD
:104A900090935F0380935E03E9E6F5E1E491E09390
:104AA0005D0381E080935C0381E793E090935B0377
:104AB00080935A0380916E0322E833E030936703BA
:104AC000209366039FED9093650310926D03909180
:104AD0006F0320917003207F296020937003807101
:104AE0009C77926090936F0380628F7E80936E03B9
:104AF0001092690310926A030895CF93DF93CDB7A4
:104B0000DEB7CF55D1090FB6F894DEBF0FBECDBFCB
:104B1000789484B5826084BD84B5816084BD85B598
:104B2000826085BD85B5816085BD80916E008160A4
:104B300080936E001092810080918100826080934A
:104B4000810080918100816080938100809180004C
:104B50008160809380008091B10084608093B10077
:104B60008091B00081608093B00080917A00846071
:104B700080937A0080917A00826080937A0080919D
:104B80007A00816080937A0080917A0080688093B7
:104B90007A001092C100E0917F02F091800282E0E1
:104BA0008083E0917B02F0917C021082E0917D0293
:104BB000F0917E0280E1808310928702E09183026F
:104BC000F091840286E08083E0918102F09182027C
:104BD000808180618083E0918102F09182028081F6
:104BE00088608083E0918102F091820280818068F8
:104BF0008083E0918102F091820280818F7D8083A9
:104C0000CE0101960E948D1389818F718F3111F42D
:104C10000E9407188DE293E190931E0280931D027B
:104C200080911F02807E886080931F0282E893E05B
:104C300090931C0280931B028091200283708061FC
:104C4000809320021092210280912402807B809325
:104C50002402CE018A960E948D13CE018A960E946C
:104C6000A313F9EEEF2EF4E1FF2E01EE14E1F801AB
:104C7000849161E00E94C60C0F5F1F4FE016F106A1
:104C8000B1F761E08FE00E94C60C61E08EE00E9407
:104C9000C60C01E010E05BE0B52E77247A9462E266
:104CA000862E76E9972EEAE0AE2EBE016F5F7F4F2B
:104CB000802F0E9467138981833509F045C0B09E1B
:104CC0007001B19EF00C1124F801E052FB4E84916A
:104CD00097012C563C4F6901F8E0CF1AD108D60154
:104CE0008C93F90137977082339680822350310973
:104CF000F9019082980121503109B29EF001B39ED2
:104D0000F00D1124EA56FC4F90819260908361E08F
:104D10000E94980C61E0D6018C910E94C60C6E81B5
:104D20007F81C70187579C4F0E945B12F801EE0FED
:104D3000FF1FEE5FFD4F2E813F81A29EC001A39E0B
:104D4000900D1124918380830F5F1F4F093011054F
:104D500009F0ABCF1DA510931A028FE08093EF03EB
:104D60008FEF8093F00382E28093F30386E98093D0
:104D7000F4038091EE038D7F8093EE0360E08FE07B
:104D80000E94980C61E08091EF030E94C60C8BA5F5
:104D9000612F84FD60956093140270E069507F4F2D
:104DA000660F771F660F771F8CEE93E00E945B12F1
:104DB000BE016F5F7F4F88E00E9467138981813455
:104DC00069F40E94891387FF109510931502E8EE8D
:104DD000F4E18491612F70E00E94020D88E08093DD
:104DE0002A0280912B028F7080932B0210922C024A
:104DF00010922D02412C512C3201439422242394F1
:104E0000312C80916702811109C00E94840D70933A
:104E100066026093650281E08093670280915D0283
:104E2000811109C00E94840D70935C0260935B0243
:104E300081E080935D02CE018F5B9F4F0E948D13B6
:104E400022968FAD2297982F9295969597702396DC
:104E50008FAD23978170880F880F880F892B83303F
:104E600008F4C6C080910E0390910F03892B09F4BA
:104E7000BFC00E94840D80911103681B770B6430C2
:104E80007105DCF00E94840D60931103E091100322
:104E9000EF70E73090F4F0E0E05BF84D0C94893966
:104EA0005727B827BA27BC27BE27C327C52780E1C5
:104EB0008093140381E080931203E3E2CE2EF2E2AA
:104EC000BF2EAFE1AA2EB6E1DB2E11E2912E00E259
:104ED000802E83E0E82EF12C80910E0390910F0339
:104EE000DC01ED91FC910084F185E02D0995181607
:104EF00019060CF07DC00E94840D6093110380910F
:104F00000E0390910F03DC01ED91FC910284F38577
:104F1000E02D0995182FE0911203E150E332E0F6FD
:104F2000F0E0EB56F84D0C948939CA27D327E227D5
:104F3000E428FC281C2949295C296D297F29A029FE
:104F4000EF29642A892A972AB32AC82AE82A142B27
:104F50001F2B312B512B8C2B972BA82BB52BC22B16
:104F6000D12BEA2B0C2C472C4D2C572C632C812C4D
:104F700084E0A1CF87E09FCF8EE09DCF8EE080932D
:104F8000140383E198CF87E196CF80E180931403E7
:104F90008FE191CF8F3009F09FCF1092130382E001
:104FA0008093120399CF80911303E82FF0E0E45F20
:104FB000FC4F15878F5F80931303873109F08CCFE7
:104FC00083E0EECF8111FEC080911303873109F099
:104FD000F9C080E2E9E1F3E0A9E3B3E001900D92CA
:104FE0008A95E1F78FEF8093590381E08093120354
:104FF000A090590201E010E0A3FE9BC48FE692E06E
:105000000E947C0B18161906ACF48FE692E00E9401
:105010005A0B9091E801883009F4FFC48D3009F0F3
:1050200003C5E92FF0E0E05DFD4F10821092E8012A
:1050300097FF06C523969FAD2397892F8695877086
:10504000823009F41DC708F03BC6882311F40C9484
:105050005631813011F40C94B13080915A0280FFA6
:1050600002C00C949A31C0901902E090FE01CE105B
:105070000C94193590911A028091FD0198130C94AB
:105080005335809119028093FE0180911A0280931A
:10509000FD010E94840D2091650230916602621B21
:1050A000730B613D774000F10E94840D709366029E
:1050B000609365028091590284608093590261E097
:1050C0008EE00E94980C8091590280FD0DC01092D4
:1050D000190225968FAD259780931A0288E195E1F4
:1050E0000E940B0C0E94901580912E0290912F022D
:1050F000DC01ED91FC910190F081E02D60E00995DB
:10510000811106C08091590282FD02C00C94AD3716
:105110000E94840D80911702681B6C3028F08091EA
:1051200059028F7D809359020E94840D609317026B
:1051300080915902182F1F7D85FF1062109359022C
:1051400014FF06C0812F8073803311F00C94AD37AB
:105150008DB69EB60E945F0D12FF17C0009100022F
:105160001091010220910202309103026B017C0137
:10517000C01AD10AE20AF30A9701860100321E44DE
:105180002105310510F40C94AD372FEF2093FF016A
:1051900060930002709301028093020290930302D5
:1051A000A0916303B0916403FD0110E0309711F406
:1051B0000C94EA3583818F3F09F01F5F0184F285EB
:1051C000E02DF4CF81E0ECCE8FE5810F823008F046
:1051D00083CE8CE0113A09F080E1809314031092A1
:1051E0001303612F90E080E00E943D0E909318031E
:1051F0008093170385E0D4CEE091130301E00E0FF6
:1052000000931303F0E0E45FFC4F8587682F8091E3
:105210001703909118030E943D0E909318038093FA
:1052200017038091140390E0880F991F081719063F
:105230000CF452CE86E0B4CE009113030F5F0093BE
:105240001303682F80911703909118030E943D0E5D
:1052500090931803809317032091140330E02F5F7D
:105260003F4F220F331F021713060CF435CE892B44
:1052700071F480E2E9E1F3E0A9E3B3E001900D927B
:105280008A95E1F78FEF8093590384E0AFCE84E0F5
:1052900087CE863A09F020CE80E1809314031092E5
:1052A000130366EA90E080E00E943D0E909318039D
:1052B0008093170388E074CE8D3C69F46DEC809187
:1052C0001703909118030E943D0E9093180380934A
:1052D000170389E065CE87E063CE682F80911703BE
:1052E000909118030E943D0E90931803809317032A
:1052F0001E501093E601109213038AE051CE682FDE
:1053000080911703909118030E943D0E909318030B
:1053100080931703809113038F5F853018F4809377
:105320001303DACD109213031092E2011092E301FD
:105330001092E4011092E5011092E7018BE030CE6B
:10534000682F80911703909118030E943D0E90934F
:1053500018038093170340911303612F70E090E0CE
:1053600080E08701041B1109012E000C220B330B76
:1053700053E0000F111F221F331F5A95D1F704C0AD
:10538000660F771F881F991F0A95D2F70091E201D7
:105390001091E3012091E4013091E501602B712B24
:1053A000822B932B6093E2017093E3018093E401DD
:1053B0009093E50121E0240F20931303243008F497
:1053C0008BCD0E948F396093E2017093E30180934B
:1053D000E4019093E501109213038CE0E1CD682F76
:1053E00080911703909118030E943D0E909318032B
:1053F0008093170390911303911116C08091E701D8
:105400004091E2015091E3016091E4017091E50166
:1054100040FF44C04093E2015093E3016093E401F4
:105420007093E5018093E7018091E701803158F5A1
:1054300021E0290F20931303E82FF0E0EE0FFF1F68
:10544000A101491B5109E45FFC4FE40FF51F1587CB
:105450002230C8F04091E2015091E3016091E401F3
:105460007091E50176956795579547954093E201D0
:105470005093E3016093E4017093E5018F5F8093A3
:10548000E701109213038091E60181508093E601B9
:10549000811122CD109213038DE082CD7695679510
:1054A000579547958F5F803108F4B2CF4093E20162
:1054B0005093E3016093E4017093E5018093E70169
:1054C00087E080931203B0CF682F809117039091EB
:1054D00018030E943D0E9C019093180380931703BC
:1054E000909113039F5F90931303923008F4F4CCD0
:1054F000232B09F0F0CE80E2E9E1F3E0A9E3B3E089
:1055000001900D928A95E1F78FEF8093590387E020
:105510006DCD883A09F0E0CC68EA90E080E00E9426
:105520003D0E90931803809317038FE039CD8F774A
:105530008130B9F4612F80911703909118030E9474
:105540003D0E909318038093170391E0113809F0F2
:1055500090E08091100390FB84F98093100380E128
:105560001FCD8EE01DCD8EEF810F8F30D0F7612FD4
:1055700080911703909118030E943D0E9093180399
:1055800080931703109314031092130381E108CD45
:10559000E091130301E00E0F00931303F0E0E45FCA
:1055A000FC4F8587682F80911703909118030E9404
:1055B0003D0E90931803809317038091140390E09D
:1055C000880F991F081719060CF486CC82E1E8CCE5
:1055D000009113030F5F00931303682F809117034B
:1055E000909118030E943D0E909318038093170327
:1055F0002091140330E02F5F3F4F220F331F02171B
:1056000013060CF469CC892B09F0ABCF80E2E9E1F9
:10561000F3E0A9E3B3E001900D928A95E1F78FEFF3
:10562000809359038EE0E2CC803209F055CCEFED47
:10563000FFEFF0931803E093170384E1B1CC8034BB
:1056400071F48091170390911803805491099093FD
:105650001803809317031092130385E1A1CC83E113
:105660009FCCE091130321E02E0F20931303F0E071
:10567000E45FFC4F85878091170390911803811B8D
:10568000910990931803809317038091140390E07D
:10569000880F991F281719060CF41ECCD0921203FC
:1056A0001BCC20911303E22FF0E0E45FFC4F8587D1
:1056B0002F5F209313038091140390E00196880FCD
:1056C000991F281719060CF407CC845F9C4FDC0146
:1056D0001B968C916C961FAF6C976B961FAE6B9759
:1056E0006C96EEADFFAD6C97E80FF11D209117039E
:1056F000309118032E173F0709F0B1CF80E2E9E19E
:10570000F3E0A9E3B3E001900D928A95E1F78FEF02
:105710008093590383E16ACC8E3309F0DDCB2DEF02
:1057200038ED309318032093170388E139CC833088
:1057300069F463E080911703909118030E94030BB2
:10574000909318038093170389E12ACC87E128CC32
:10575000682F80911703909118030E94030B909378
:105760001803809317038AE11BCC682F80911703DD
:10577000909118030E94030B9093180380931703D2
:105780008BE10ECC813311F761E380911703909187
:1057900018030E94030B90931803809317038CE166
:1057A000FFCB88EF810F893188F6812F8695809312
:1057B000140310921303612F809117039091180323
:1057C0000E94030B90931803809317033DE13093DD
:1057D000120382CBE091130301E00E0F0093130339
:1057E000F0E0E45FFC4F8587682F8091170390916C
:1057F00018030E94030B9093180380931703809162
:10580000140390E0880F991F081719060CF464CB55
:105810004EE14093120360CB20911303E22FF0E09E
:10582000E45FFC4F85872F5F20931303809114035F
:1058300090E00196880F991F281719060CF44CCB9D
:10584000845F9C4FDC011B968C916E961FAF6E9708
:105850006D961FAE6D976E96EEADFFAD6E97E80F2D
:10586000F11D20911703309118032E173F0709F0FF
:105870006DCF80E2E9E1F3E0A9E3B3E001900D929E
:105880008A95E1F78FEF8093590387E1AFCB883C8E
:1058900009F022CB809212031FCB883129F4D092D9
:1058A00015039092120318CBA092120315CB8631E8
:1058B000D9F710921303EBE5F3E18491809316037B
:1058C000B092120309CBE091130381E08E0F809315
:1058D0001303F0E0E45FFC4F1587E09116031E27E9
:1058E000E12FF0E0EB5BFC4EE491E0931603809136
:1058F00015038150809315038111EECAC0921203E3
:10590000EBCA809116031813CFCF80E2E9E1F3E0F0
:10591000A9E3B3E001900D928A95E1F78FEF8093B0
:1059200059038FE163CB0F5F1F4F0930110509F455
:1059300065CBBE016F5F7F4F802F0E946713898107
:105940008234A9F0843479F7F801E052FB4E849157
:105950006091190270E098012150310902C07595DB
:1059600067952A95E2F761700E94980CDCCF780168
:10597000F1E0EF1AF1088091190290E00E2C02C0BC
:10598000959587950A94E2F780FF41C00E94840DA7
:105990009801220F331FA90145515E4F6A01DA01B8
:1059A0002D913C91621B730BB090EC018B2D90E01C
:1059B0000E2C02C0959587950A94E2F780FD24C0CD
:1059C0008A819B816817790708F4ADCF0E94840D06
:1059D000F60171836083B1010E2C01C0660F0A9439
:1059E000EAF7B626B092EC01F801E052FB4E849142
:1059F0006B2D70E002C075956795EA94E2F76095AB
:105A0000709561707727B0CF8C819D81DBCFF801D5
:105A1000E052FB4E849160E0A7CF992309F40ACBB2
:105A200091509093E80106CB983238F4E92FF0E0DA
:105A3000E05DFD4F80839F5FF4CF1092E801FACACA
:105A4000A7FE5CC0809130028111F4CA80912E02C1
:105A500090912F02DC01ED91FC910190F081E02DFD
:105A600063E00995882309F4E5CA80912E0290919C
:105A70002F0222966FAD22976F71DC01ED91FC91A0
:105A80000280F381E02D09958C01BC0190E080E05B
:105A90004AE00E94051382E595E10E940B0C80917B
:105AA0002A0282958F7090E0880F991FB801855760
:105AB0009E4F0E94D73810912A0212951F701730FE
:105AC000B8F48FE495E10E940B0C812F90E00296D0
:105AD0000E9453138CE495E10E940B0C80912A02E2
