:100000000C946E070C9496070C9496070C94951B11
:100010000C944F1B0C94091B0C9496070C94960798
:100020000C9496070C9496070C9496070C949607DC
:100030000C9496070C9496070C9496070C949607CC
:100040000C94BF1A0C9496070C948D1A0C94671A92
:100050000C9496070C9496070C9496070C949607AC
:100060000C9496070C9496070D000A006A0068002D
:100070002020202020202020202020202020202080
:10008000202020546F207377697463682062616355
:100090006B20746F205465726D696E616C204D6FBA
:1000A00064652C2073696D706C79206869742045D3
:1000B0006E746572005120202020202020202020F6
:1000C00020202020202D3E20517569742074686501
:1000D000205465726D696E616C204D6F646520619E
:1000E0006E642073776974636820746F20524320B4
:1000F0004D6F64652E00443F2020202020202020CA
:100100002020202020202D3E2052657475726E2004
:10011000746865204465627567204C6576656C007F
:10012000443D44656275674C6576656C20202020EF
:100130002D3E2053657420746865204465627567A0
:10014000204C6576656C3A2031202D3E2050756C30
:1001500073652057696474682C2032202D3E20433B
:100160006D64204368616E67650020202020202098
:100170002020202020202020202020202038204245
:100180007574746F6E733A20423D787878782C7865
:100190007878782C787878782C787878782C7878C3
:1001A00078782C787878782C787878782C787878B3
:1001B0007800423F202020202020202020202020C6
:1001C00020202D3E2052657475726E207468652063
:1001D00070756C73652077696474682028696E2077
:1001E000757329206173736F63696174656420742A
:1001F0006F2065616368206F662074686500423D0A
:1002000043202020202020202020202020202D3EA0
:100210002053746172742074686520427574746F21
:100220006E2043616C6962726174696F6E207072D6
:100230006F63657373002020202020202020202061
:1002400020202020202020202069732053383D4189
:100250003B4E2F493A50776D50657243656E742559
:100260003A50726F7056616C7565202865673A2048
:1002700053383D413B493A313030253A303030290E
:100280000053383F20202020202020202020202024
:10029000202D3E205768656E20533820636F6E66B0
:1002A00069677572656420617320416E616C6F6768
:1002B0002C2074686520616E7377657220746F20DE
:1002C0007468652053383F20636F6D6D616E640004
:1002D000202020202020202020202020202020201E
:1002E00020202028302D32353529206F72205338B8
:1002F0003D78787825207365747320746865207064
:10030000657263656E74616765206F662070776DD6
:10031000202830252D31303025290053383D78787C
:10032000785B255D202020202020202D3E2057684E
:10033000656E20533820636F6E66696775726564F9
:1003400020617320416E616C6F672C2053383D78BB
:10035000787820736574732074686520436D642019
:1003600050726F702056616C75650020202020202F
:1003700020202020202020202020202020206173E9
:100380002070776D20416E616C6F67206F7574709F
:1003900075742077697468204E6F726D616C284E99
:1003A00029206F7220496E76657274656420284931
:1003B0002920706F6C61726974790053383D413B3C
:1003C0004E2F4920202020202020202D3E20416437
:1003D000646974696F6E616C7920746F2044696719
:1003E0006974616C20616E6420536572766F20546D
:1003F0007970652C2053382063616E20626520631C
:100400006F6E666967757265640020202020202069
:100410002020202020202020202020202053303D7C
:100420005858583A43434320666F722050726F7099
:1004300020536572766F20284320697320746865A5
:100440002063757272656E7420436F6D6D616E64AA
:1004500020737461747573290020202020202020CF
:1004600020202020202020202020202053783D53B1
:100470003B4D3B506F73413B506F73423B413242A7
:100480004475723B4232414475723A43206966209A
:100490006F757470757420782069732061205365BE
:1004A00072766F2C206F720053783F20202020201E
:1004B00020202020202020202D3E2052657475729F
:1004C0006E2053783D443B4D3A43206966206F755A
:1004D0007470757420782069732044696769746149
:1004E0006C2C206F720053783D302F31202020205B
:1004F0002020202020202D3E2053696D756C6174D2
:1005000065206120436D643D302F3120636F6D6D38
:10051000616E6420666F7220537820284E6963658F
:1005200020666F72207465737420776974686F75C4
:100530007420524329002020202020202020202029
:100540002020202020202020206265747765656EA1
:1005500020506F7320412026204220617265204187
:10056000324244757220262042324144757220285E
:100570003634303030206D73204D617829002020D2
:10058000202020202020202020202020202020206B
:100590002050756C736564292E20506F734120754F
:1005A00073207768656E20436D643D302C20506F5A
:1005B0007342207573207768656E20436D643D310A
:1005C0002C204475726174696F6E0053783D533B03
:1005D0004D3B506F73413B506F73423B413242443D
:1005E00075725B3B4232414475725D202D3E205353
:1005F00078206973206120536572766F206F75745F
:1006000070757420696E206D6F6465204D20284DD3
:100610003D4E6F726D616C206F7200202020202093
:10062000202020202020202020202020202074682E
:10063000652070726F7020536572766F29002020DC
:1006400020202020202020202020202020202020AA
:1006500020287820697320746865206964206F669B
:1006600020746865206F757075742066726F6D20D8
:100670003120746F20382C2078203D203020697381
:1006800020726573657276656420666F72005378B8
:100690003D443B4D202020202020202020202D3EA6
:1006A0002053782069732061204469676974616C04
:1006B000206F757470757420696E206D6F6465208D
:1006C0004D20284D3D4E6F726D616C206F72205031
:1006D000756C736564290053523D4E2F59202020BC
:1006E000202020202020202D3E204170706C792079
:1006F0007265766572736520285929206F72206EA5
:100700006F207265766572736520284E2920666FAA
:10071000722050726F7020536572766F20285330AC
:1007200029002020202020202020202020202020E0
:100730002020202020696E2075732E2049662030ED
:10074000203C3D20585858203C3D203235352C2047
:100750007365742050726F702056616C756520430C
:100760006F6D6D616E640053303D585858582020AD
:10077000202020202020202D3E2049662039383896
:10078000203C3D2058585858203C3D2032303038CD
:100790002C207365742050726F7020536572766FD1
:1007A00020746F20746865205858585820706F73F3
:1007B0006974696F6E00503F202020202020202087
:1007C0002020202020202D3E2052657475726E203E
:1007D00074686520636F6E66696775726564204D25
:1007E000756C74692D5377697463682050726F74E7
:1007F0006F636F6C002020202020202020202020EC
:10080000202020202020202028666F72204F54585E
:1008100020616E6420455458292C205020666F7248
:1008200020507573682D427574746F6E20616E640C
:10083000204520666F7220454B4D464129002020FF
:1008400020202020202020202020202020202020A8
:10085000206C3D46696C746572206C6576656C2011
:100860002866726F6D203020746F2033292C20464B
:1008700020666F72204D5338204675746162612C7A
:10088000204220666F722042696E61727900503D8D
:100890004D7350726F746F5B3B466C5D20202D3E34
:1008A0002053657420746865204D756C74692D53F0
:1008B00077697463682050726F746F636F6C20285F
:1008C0004D7350726F746F3A205220666F722052CF
:1008D00043554C207769746800493F202020202030
:1008E0002020202020202020202D3E2052657475BD
:1008F000726E2074686520636F6E666967757265D5
:100900006420496E74657266616365002020202052
:100910002020202020202020202020202020207483
:100920006865206368616E6E656C204EC2B0002001
:1009300020202020202020202020202020202020B7
:1009400020205820666F72205352584C2C2044208F
:10095000666F722053554D442C204920666F7220DB
:10096000494255532C204320666F72204352534610
:10097000292C20436820697300493D496E746572D3
:10098000666163655B43685D202D3E20536574207E
:1009900074686520524320496E74657266616365B0
:1009A00020285020666F722050574D2C204320661F
:1009B0006F72204350504D2C205320666F7220538D
:1009C0004255532C00543F2020202020202020205E
:1009D00020202020202D3E2052657475726E2074D8
:1009E000686520636F6E66696775726564204C691F
:1009F0006E65205465726D696E61746F7200543D4E
:100A000043524C462F4352202020202020202D3EB0
:100A10002053657420746865204C696E65205465A8
:100A2000726D696E61746F7220746F2043524C4610
:100A3000206F7220746F20435200433D46202020D7
:100A4000202020202020202020202D3E20536574AF
:100A50002074686520466163746F727920646566EE
:100A600061756C7420706172616D6574657273205C
:100A700028493D5020503D452053523D4E2053784B
:100A80003D443B4E290020202020202020202020F3
:100A900020202020202020202028616C6C207468D9
:100AA0006520636F6D6D616E6473206C697374652E
:100AB000642062656C6F772900433F20202020204E
:100AC0002020202020202020202D3E2044697370EB
:100AD0006C6179207468652066756C6C20436F6E5C
:100AE00066696775726174696F6E207769746820D2
:100AF0007374617475730020202020202020202032
:100B00002020202020202020202057656C636F6D3E
:100B100065204D65737361676520224D53382056FB
:100B2000782E792220696E20746865205465726D74
:100B3000696E616C002020202020202020202020B1
:100B400020202020202020204164646974696F6E79
:100B5000616C6C792C207468697320636F6D6D61B2
:100B60006E642074726967676572732074686520AB
:100B7000646973706C6179206F6620746865002009
:100B80002020202020202020202020202020202065
:100B900020206661696C73616665206973206469F1
:100BA0007361626C656420286E6963652C20666FD2
:100BB0007220636F6E66696720616E64207465736E
:100BC0007429003C2D2D27202020202020202020AB
:100BD0002020202D3E20496620456E7465722069D4
:100BE000732073656E742C204D53382056782E79FF
:100BF00020737461797320696E205465726D696E1B
:100C0000616C204D6F646520616E6400483F202058
:100C10002020202020202020202020202D3E205277
:100C2000657475726E7320746869732068656C7082
:100C300000455252003B005042313A200042465299
:100C400050455043535844494643524C4600435242
:100C50000043520043524C46004D53382056332E29
:100C6000315F524331320000000000250028002B84
:100C70000001014102024103034104044105014412
:100C800006024407034408044400D57FAAFE2B81D2
:100C90005429FC5683D702A87D52872DF8AC79D30E
:100CA000067BAE04D18550FA2FA471DB0E5A8F2536
:100CB000F08D58F22773A60CD9F623895C08DD77EE
:100CC000A2DF0AA07521F45E8B9D48E23763B61C53
:100CD000C9B461CB1E4A9F35E0CF1AB06531E44EEE
:100CE0009BE633994C18CD67B239EC4693C712B8DE
:100CF0006D10C56FBAEE3B91446BBE14C19540EACE
:100D00003F42973DE8BC69C316EF3A904511C46E67
:100D1000BBC613B96C38ED4792BD68C21743963C09
:100D2000E99441EB3E6ABF15C04B9E34E1B560CA01
:100D30001F62B71DC89C49E33619CC66B3E73298E9
:100D40004D30E54F9ACE1BB16472A70DD88C59F384
:100D5000265B8E24F1A570DA0F20F55F8ADE0BA1E9
:100D60007409DC76A3F722885DD603A97C28FD5799
:100D700082FF2A805501D47EAB8451FB2E7AAF05C9
:100D8000D0AD78D20753862CF9E4031C041C04541C
:100D90000454048C048C04C404C404FC04FC043413
:100DA0000534056C056C05A405A405DC05DC0514FB
:100DB0000614064C064C0684068406BC06BC06F4E3
:100DC00006F4062C072C07640764079C079C07D4CD
:100DD000072003E803E803DC05DC05980820200071
:100DE0002000202020202020202020202020202023
:100DF0002020200020200020002020202020202053
:100E000020202020202020202020002000563A00F2
:100E1000533A2031203220332034203520362037F9
:100E200020382050000000000800020100000304E8
:100E30000700000000000000000304050607080981
:100E40000A48FCB8FC28FD98FD08FE78FEE8FE582C
:100E5000FFC8FF3800A80018018801F8016802D80F
:100E6000024803B8032D3E007573003A00543D005C
:100E70004661696C73616665210053523F00423FD1
:100E800000503F00493F00543F00413F00413F00B8
:100E9000433F003A20005042000D000000000024B3
:100EA0000027002A000102040810204080010204EB
:100EB0000810200102040810200000000023002672
:100EC00000290004040404040404040202020202CF
:100ED0000203030303030300DB1BD22C11241FBEF8
:100EE000CFEFD8E0DEBFCDBF11E0A0E0B1E0EEE093
:100EF000FCE502C005900D92A035B107D9F723E0BB
:100F0000A0E5B1E001C01D92A83CB207E1F717E0EF
:100F1000CDE6D7E004C02197FE010E94E22DCC3639
:100F2000D107C9F70E94B41C0C94FA2D0C94000050
:100F3000862720E1829FB00111248627482F50E0A8
:100F4000292F382FCA0164E0959587956A95E1F7B6
:100F500028273927CA0173E0880F991F7A95E1F78E
:100F6000822793270895AF92BF92CF92DF92EF929C
:100F7000FF920F931F93CF93DF936C017B018B0143
:100F8000040F151FEB015E01AE18BF08C017D10793
:100F900059F06991D601ED91FC910190F081E02D1D
:100FA000C6010995892B79F7C501DF91CF911F9172
:100FB0000F91FF90EF90DF90CF90BF90AF9008958A
:100FC000FC01538D448D252F30E0842F90E0821B4F
:100FD000930B541710F0CF96089501970895FC01D4
:100FE000918D828D981761F0A28DAE0FBF2FB11D2C
:100FF0005D968C91928D9F5F9F73928F90E0089584
:101000008FEF9FEF0895FC01918D828D981731F03D
:10101000828DE80FF11D858D90E008958FEF9FEF91
:101020000895FC01918D228D892F90E0805C9F4F67
:10103000821B91098F739927089580E492E00E94A2
:10104000110821E0892B09F420E0822F089580E027
:1010500090E0892B29F00E941D0881110C9400005A
:101060000895FC01A48DA80FB92FB11DA35ABF4F3D
:101070002C91848D90E001968F739927848FA68997
:10108000B7892C93A089B1898C91837080648C93EB
:10109000938D848D981306C00288F389E02D80819A
:1010A0008F7D80830895EF92FF920F931F93CF93CC
:1010B000DF93EC0181E0888F9B8D8C8D98131AC093
:1010C000E889F989808185FF15C09FB7F894EE897A
:1010D000FF896083E889F9898081837080648083D7
:1010E0009FBF81E090E0DF91CF911F910F91FF9022
:1010F000EF900895F62E0B8D10E00F5F1F4F0F73CA
:101100001127E02E8C8D8E110CC00FB607FCFACF84
:10111000E889F989808185FFF5CFCE010E943108E9
:10112000F1CFEB8DEC0FFD2FF11DE35AFF4FF08255
:101130009FB7F8940B8FEA89FB8980818062CFCFBB
:101140000F931F93CF93DF938C01D0E0C0E0F801A1
:10115000EC0FFD1F6491662341F080E492E00E9451
:101160005308892B11F02196F2CFCE01DF91CF9158
:101170001F910F910895CF93DF93EC01888D882301
:10118000B9F0AA89BB89E889F9898C9185FD03C0EA
:10119000808186FD0DC00FB607FCF7CF8C9185FFCF
:1011A000F2CF808185FFEDCFCE010E943108E9CFDB
:1011B000DF91CF910895833081F028F4813099F048
:1011C0008230A9F008958730A9F08830C9F08430C2
:1011D000B1F4809180008F7D03C0809180008F7773
:1011E00080938000089584B58F7784BD089584B579
:1011F0008F7DFBCF8091B0008F778093B0000895F2
:101200008091B0008F7DF9CFCF93DF93282F30E00E
:10121000F901EB5DF14F8491F901EB55F14FD49158
:10122000F901ED53F14FC491CC23A1F081110E943B
:10123000DB08EC2FF0E0EE0FFF1FE754F14FA59114
:10124000B491EC91ED2381E090E009F480E0DF912E
:10125000CF91089580E090E0FACF1F93CF93DF9372
:10126000282F30E0F901EB5DF14F8491F901EB5546
:10127000F14FD491F901ED53F14FC491CC23A9F072
:10128000162F81110E94DB08EC2FF0E0EE0FFF1FFC
:10129000E959F34FA591B4918FB7F894EC911111DE
:1012A00008C0D095DE23DC938FBFDF91CF911F91D3
:1012B0000895DE2BF8CFCF93DF9390E0FC01EB5540
:1012C000F14F24918D53914FFC0184918823C9F0F3
:1012D00090E0880F991FFC01E556F14FA591B4915C
:1012E000FC01E959F34FC591D49161110DC09FB72D
:1012F000F8948C91209582238C93888128232883CD
:101300009FBFDF91CF910895623051F49FB7F89459
:101310003C91822F809583238C93E8812E2BEFCFF5
:101320008FB7F894EC912E2B2C938FBFEACF3FB759
:10133000F8948091C5019091C601A091C701B09128
:10134000C80126B5A89B05C02F3F19F00196A11D25
:10135000B11D3FBFBA2FA92F982F8827BC01CD01FF
:10136000620F711D811D911D42E0660F771F881F5E
:10137000991F4A95D1F708952FB7F8946091C1014C
:101380007091C2018091C3019091C4012FBF089553
:10139000A0912B03B0912C03E0912F03F091300327
:1013A000808150912E03852391E009F090E01C96F6
:1013B0008C911C97282F2170921709F44EC09091A0
:1013C00002019A95F1F71D960D90BC91A02D6091A8
:1013D000010140E021E030E073E09081952351F07D
:1013E000422B220F331F2A173B0740F4962F9A9562
:1013F000F1F7F3CF972F9A95F1F7F3CF80FD409552
:101400002091BF019091BE0130E02F5F3F4F2F73BD
:10141000332792171306E1F0E091BF0186958370A0
:101420008B5F21E030E0B90102C0660F771F8A951B
:10143000E2F7CB0181508423F0E0E258FE4F808335
:101440008091BF0190E001968F7399278093BF012F
:101450008BB390912D03892B8BBB08959091BE0186
:101460008091BF01981741F0E091BE01F0E0E25891
:10147000FE4F808190E008958FEF9FEF08958FB722
:10148000F8941092BF011092BE018FBF089581E0C1
:1014900090E008958091BF012091BE0190E0805CB2
:1014A0009F4F821B910960E470E00E94CE2D089549
:1014B0009091BE018091BF01981789F0E091BE0123
:1014C000F0E0E258FE4F80812091BE0130E02F5FB6
:1014D0003F4F2F7333272093BE0190E008958FEF85
:1014E0009FEF089590E080E00895962728E0AC01F2
:1014F000880F991F57FF04C031E2832730E19327FB
:101500002150A9F708950895FC01E35BFF4F9081F6
:10151000492F50E0062E02C0559547950A94E2F7F0
:10152000DA01A170BB2740FF09C021E030E001C013
:10153000220F6A95EAF72095292320838A2F0895A0
:10154000E0917D013AE0E39FF0011124EE5AFE4F55
:10155000278180917C01883008F046C030917C0161
:1015600081E090E002C0880F991F3A95E2F7E09180
:101570007D014AE0E49FF0011124EE5AFE4F3185CF
:10158000232330E082239323892B09F460C00E9437
:10159000970920917A0130917B01AB01421B530BDB
:1015A0009A0170937B0160937A01283B5BE03507D9
:1015B000C8F12091790120937801109279012FEFE1
:1015C0002093770130917601209176012E7F30FFB4
:1015D0002160209376012091760120FF18C070933E
:1015E000750160937401089580917C0140917C01A4
:1015F0008E3050F44850550B81E090E002C0880FC7
:10160000991F4A95E2F7B3CF4E50550BF5CF209175
:10161000740130917501621B730B709373016093B9
:101620007201089580917901893088F48091760162
:1016300086958F7190917901891304C0309371015F
:1016400020937001809179018F5F809379010895D3
:10165000662381F080917801861760F08091700197
:10166000909171012091700130917101821793075F
:10167000A9F708958CED95E008952091770130E069
:10168000062E02C0359527950A94E2F7C9018170AC
:10169000992720FF0CC04091770121E030E001C084
:1016A000220F6A95EAF72095242320937701089565
:1016B0002091680094E0883048F031E08E3008F4E2
:1016C00030E091E001C0990F3A95EAF7922B9093A0
:1016D0006800EDE6F0E0883030F0EBE6F0E08E30C8
:1016E00010F0ECE6F0E04081282F30E0883048F43C
:1016F00091E001C0990F8A95EAF7892F842B8083A6
:1017000008958E3040F42850310981E001C0880FDF
:101710002A95EAF7F3CF2E503109F7CF0F931F9395
:10172000CF93DF9392E0883028F08E5091E088309C
:1017300008F090E040E05AE0959FD0011124A85AAB
:10174000BE4F292F092E000C330B55E0959FC00189
:101750001124C42F042E000CDD0B5C915C171D06B8
:1017600009F00CF453C0FC01EC0FFD1FEE0FFF1F3E
:10177000EE5AFE4F008111810617170711F04F5FD7
:10178000E8CF47FD43C0118210828C918150990BA4
:10179000C817D90751F18AE0829FE001839FD00DDD
:1017A0001124C85ADE4F55E0529FC001539F900D3F
:1017B0001124E42FF0E068816150770BE617F707FA
:1017C000A4F4DF011196A80FB91FAA0FBB1FAE5AD0
:1017D000BE4F6D917C91E80FF91FEE0FFF1FEE5A7F
:1017E000FE4F718360834F5FE4CF8AE0829FF001F8
:1017F000839FF00D1124EE5AFE4F8681815086831F
:1018000081E0DF91CF911F910F91089580E0F9CF92
:10181000809131038631C8F4EDE6F0E0883030F095
:10182000EBE6F0E08E3010F0ECE6F0E09081482F2F
:1018300050E0883070F421E030E0082E01C0220F23
:101840000A94EAF720952923208368EC79E00C9428
:101850008E0B8E3048F44850510921E030E001C031
:10186000220F4A95EAF7EECF4E505109F6CF883055
:10187000B8F192EF980F81E0983008F080E0482F9F
:10188000082E000C550B9AE08902F0011124EE5A43
:10189000FE4F208131816217730729F12281338144
:1018A0006217730701F12481358162177307D9F03C
:1018B00096819330B8F4A68195E0949F9001959F0E
:1018C000300D1124A20FB32FB11DAA0FBB1FAE5AAA
:1018D000BE4F11967C936E9396819F5F9683089579
:1018E00082E0CDCF8FEF0895CF92DF92EF92FF92FB
:1018F000CF936B017C0150E0BA0175956795962FE7
:101900009370990F80914E03817EFA01A4E0F595C2
:10191000E795AA95E1F7E370EE0FEE0FEE0F892B36
:101920008E2B80934E03982F9871983121F4877EE7
:10193000886080934E0393E0559547959A95E1F71B
:1019400080914E0340FB85F920FB80F980934E0384
:10195000887121E030E011F430E020E063707727F7
:101960006B5F7F4F620F731F81E090E002C0880FB2
:10197000991F6A95E2F79093500380934F03C091AB
:1019800031038C2F90E0FC01EB55F14F2491FC01C9
:10199000ED53F14FE491F0E0EE0FFF1FE556F14FEC
:1019A000A591B4918C91E22FE095E823EC9380917E
:1019B0004E0380FD04C061E08C2F0E942D0980EA57
:1019C000C81686E8D80681E0E806F104B1F0C11433
:1019D00082ECD80681E0E806F104B1F068EC79E029
:1019E0008C2F0E94370CC631A0F48C2FCF91FF9022
:1019F000EF90DF90CF900C94580B8AE18093020116
:101A000080E380930101EACF80E18093020189E2C3
:101A1000F8CFCF91FF90EF90DF90CF900895BF92D5
:101A2000CF92DF92EF92FF920F931F93CF93DF93AA
:101A30000E9497096B017C01C0915001D091510126
:101A4000BB24BA9401E010E0209709F445C08D81D1
:101A50008370823001F520916D01422F50E08C811E
:101A6000282F30E08830D8F49801082E02C0220FC9
:101A7000331F0A94E2F724233523232B61F00E94BD
:101A800004099D8192FB992790F99817B9F0CA86AD
:101A9000DB86EC86FD860A80DB81C02DD5CF8E30BB
:101AA00050F428503109B80102C0660F771F2A95FB
:101AB000E2F79B01E0CF2E503109F5CF8A859B8557
:101AC000AC85BD859601281B390B3F872E87B88AC8
:101AD0000E94BC09698BDFCFDF91CF911F910F91DD
:101AE000FF90EF90DF90CF90BF900895BF92CF927C
:101AF000DF92EF92FF920F931F93CF93DF930E9499
:101B000097096B017C01C0915001D091510101E016
:101B100010E0BB24BA94209709F445C08D818370EE
:101B2000813001F520916301422F50E08C81282FF4
:101B300030E08830D8F49801082E02C0220F331FFD
:101B40000A94E2F724233523232B61F00E94040931
:101B50009D8192FB992790F99817B9F0CA86DB8688
:101B6000EC86FD860A80DB81C02DD5CF8E3050F407
:101B700028503109B80102C0660F771F2A95E2F795
:101B80009B01E0CF2E503109F5CF8A859B85AC852E
:101B9000BD859601281B390B3F872E87B88A0E9486
:101BA000BC09698BDFCFDF91CF911F910F91FF901F
:101BB000EF90DF90CF90BF900895BF92CF92DF92C9
:101BC000EF92FF920F931F93CF93DF930E94970999
:101BD0006B017C01C0915001D0915101BB24BA949A
:101BE00001E010E0209709F444C08D81837001F575
:101BF00020915901422F50E08C81282F30E088300D
:101C0000D8F49801082E02C0220F331F0A94E2F77D
:101C100024233523232B61F00E9404099D8192FB2C
:101C2000992790F99817B9F0CA86DB86EC86FD866D
:101C30000A80DB81C02DD6CF8E3050F42850310978
:101C4000B80102C0660F771F2A95E2F79B01E0CF2B
:101C50002E503109F5CF8A859B85AC85BD859601CF
:101C6000281B390B3F872E87B88A0E94BC09698BD5
:101C7000DFCFDF91CF911F910F91FF90EF90DF9019
:101C8000CF90BF900895FC0186859785268537857E
:101C900082179307C9F70895FC01808990E0062E0A
:101CA00002C0959587950A94E2F780FF1CC02089B1
:101CB00081E090E001C0880F6A95EAF78095822361
:101CC000808B268537858685978528173907C9F73C
:101CD000868197812817390730F081E0408551854A
:101CE0004217530708F480E0089590E080E00895DB
:101CF0002091D00130E0062E02C0359527950A9438
:101D0000E2F7C9018170992720FF0CC04091D001F2
:101D100021E030E001C0220F6A95EAF720952423E4
:101D20002093D0010895CF92DF92EF92FF92CF934C
:101D3000DF93EC01CF8030E1C39E60011124C60126
:101D4000C616D70608F4CB01288530E1239FF001A1
:101D50001124AF018E179F0708F4AC0170E060E01A
:101D6000DB01CA0122E0B595A795979587952A953D
:101D7000D1F79E838D830D2C000CEE08FF089A018D
:101D8000AB012C193D094E095F09A4EBB0E00E949C
:101D9000722D9F01FF0F440B550B2C193D094E0965
:101DA0005F090E94532D2C83DF91CF91FF90EF901C
:101DB000DF90CF9008950C94930EFB01453079F499
:101DC00060E177E20E94BA2D605D6083319668EE33
:101DD00073E00E94BA2D605D6083319602C043308B
:101DE000B1F764E670E00E94BA2D605D60836AE03E
:101DF00070E00E94BA2D605D6183805D82831382F2
:101E000008958F929F92AF92BF920F931F93CF939B
:101E1000DF93CDB7DEB7A1970FB6F894DEBF0FBE44
:101E2000CDBF19A2423008F44AE08E010F5D1F4F6A
:101E3000842E912CB12CA12CA50194010E947D2D02
:101E4000E62FB901CA01EA3044F5E05DD801EE930E
:101E50008D01232B242B252B79F790E080E0109720
:101E600069F0FD0101900020E9F73197AF014A1BAD
:101E70005B0BBD0180E492E00E94B307A1960FB610
:101E8000F894DEBF0FBECDBFDF91CF911F910F91B0
:101E9000BF90AF909F908F900895E95CD7CFBC0121
:101EA000990F880B990B4AE00C94010FFC010190EB
:101EB0000020E9F73197AF01481B590BBC0180E4C2
:101EC00092E00C94B307DC0114968C9114978F70F8
:101ED000843080F48130A8F06150862F90E0880F24
:101EE000991FA80FB91F9D962D913C91322723274A
:101EF000322729C0863008F412C120E034E0863051
:101F000011F5615020E038E06031E8F4E62FF0E0B0
:101F1000E457F04F0C94E22D9C0FA50FB70FD10F93
:101F2000DF0FEE0F0610171029102F1038104F106A
:101F300056105E1073107D109D962C919D979E9665
:101F40008C91382F3770C90108959E969C919E9769
:101F50009695969596959F968C91482F4295440F0D
:101F6000407E242F292B869586958695EACF9F96CD
:101F70009C919F979295969596959370D0968C91FB
:101F8000D097482F440F440F242F292B982F929538
:101F9000969596959370D1968C918170880F880F45
:101FA00032C0D1969C91D1979695D2968C91482F1C
:101FB000479544274795242F292B8695C2CFD29643
:101FC0009C91D29792959F70D3968C91482F429571
:101FD000407F242F292B82958F70B3CFD3969C916D
:101FE000D397991F9927991FD4968C91D497482FEE
:101FF000440F242F292B982F991F9927991FD59685
:102000008C918370880F382F392B9DCFD5969C915A
:10201000D59796959695D6968C91482F4295440FD4
:10202000440F407C242F292B869586958ACFD696FF
:102030008C91D697829586958770D7969C91492FDB
:10204000440F440F440F242F282B392F32953695F7
:1020500079CFD8962C91D897D9968C9172CFD99662
:102060009C91D997969596959695DA968C9175CF81
:10207000DA969C91DA979295969596959370DB9661
:102080008C91DB97482F440F440F242F292B982F36
:102090009295969596959370DC968C917ECFDC9672
:1020A0009C91DC979695DD968C9181CFDD969C91E5
:1020B000DD9792959F70DE968C9188CFDE969C91ED
:1020C000DE97991F9927991FDF968C91DF97482FEC
:1020D000440F242F292B982F991F9927991FA05C13
:1020E000BF4F8C918ECFFD01E05CFF4F90819695A4
:1020F0009695AF5BBF4F8C9190CFFD01EF5BFF4F8B
:102100009081929596959770AE5BBF4F8C91482FBA
:10211000440F440F440F242F292B382F97CF6150A1
:10212000862F90E0880F991FA80FB91F9D962D91BB
:102130003C9109CFCF93DF932FEF260F203108F08A
:1021400075C0EC010E94630F9C01EC81EF70E730D9
:1021500008F06CC0F0E0E155FF4E0C94E22DB61093
:10216000C810D710F210C410EC100711A0E0B5E0B1
:102170000E949F2D2FEF37E040E050E00E94532D4A
:1021800020593C4F4F4F5F4FC901DF91CF910895C8
:10219000A8E7B5E00E949F2D2FEF3FE040E050E020
:1021A0000E94532D205E3C4F4F4F5F4FEDCF50E0CC
:1021B00040E0205A3A4241095109A8EEB3E00E949A
:1021C000722D24EB3AEA40E050E00E94532D285152
:1021D0003C4F4F4F5F4FD8CF83E0369527958A9578
:1021E000E1F7D2CF50E040E020523C414109510993
:1021F000A0EBB4E00E94722D20E835E240E050E010
:102200000E94532D2C573C4F4F4F5F4FBDCF50E096
:1022100040E02F5B310941095109A8EEB3E00E946B
:10222000722D21E436E040E050E0CFCF2CED35E0D8
:10223000ABCFEF92FF920F931F93CF93DF93C9E041
:102240008C9FC02D1124CD5F7B0110E000E0D0E019
:10225000F70161917F01CE01800F911F0E941E2D19
:102260000F5F1F4F0930110599F7DF91CF911F9133
:102270000F91FF90EF900895CF93DF93EC01688169
:1022800090E080E00E941E2D698181E090E0DF9166
:10229000CF910C941E2DEF92FF920F931F93CF932B
:1022A000DF93C9E08C9FC02D1124CD5F7B0189E0B5
:1022B000E80EF11C8B01D0E0C61BD70BCE01800FBE
:1022C000911F0E94102DF80181938F01EE15FF05DB
:1022D000A9F7DF91CF911F910F91FF90EF90089593
:1022E0000F931F93CF93DF93CDB7DEB72B970FB626
:1022F000F894DEBF0FBECDBF85E08A8788E88B8764
:10230000CE010A960E943C116FEF82E090E00E949D
:102310001E2D10E004E4BE016F5F7F4F812F0E94ED
:102320004B110983BE016F5F7F4F812F0E941911EE
:102330001F5F183081F72B960FB6F894DEBF0FBEE3
:10234000CDBFDF91CF911F910F91089582E090E072
:102350000C94102DCF93DF93EC0190E080E00E946D
:10236000102D888381E090E00E94102D8983DF91F9
:10237000CF9108950F931F93CF93DF9300D0CDB7E4
:10238000DEB78C01CE0101960E94AA118091000255
:1023900090910102892B41F18981982F9295969510
:1023A00097708A818170880F880F880F892BD801D8
:1023B0009C91292F22952695277011969C919170BA
:1023C000990F990F990F922B811143C009F44EC0B8
:1023D000F89480916B00877F80936B006DED7DE0BA
:1023E0008BE00E948E0B7894D801EC918E2F829511
:1023F000869587701196EC91E170EE0FEE0FEE0F5F
:10240000E82B8091000290910102892B71F0898163
:10241000982F9295969597708A818170880F880F72
:10242000880F892B8E1709F474C080912B028F7E40
:1024300080932B02E73008F06CC0F0E0EE5DFD4EBB
:102440000C94E22D4112D9121F133E134B13581353
:102450006513813059F4913049F0F89480916B0004
:10246000877F80936B0060EA7AE0BACF825F8F70DB
:10247000853008F0B9CF923008F0B6CF0E94080C32
:10248000B3CF62E08BE00E945B09809158038C7FA0
:10249000809358036DED7DE08BE00E94370C982F00
:1024A0009370809158038C7F892B809358038BE025
:1024B0008093570388E592E090935A0380935903E1
:1024C00080E699E090935C0380935B0380915001D8
:1024D00090915101909356038093550383E593E0C7
:1024E000909351018093500160E08BE00E945B0962
:1024F00061E0809157030E942D0980915703863136
:1025000010F40E94580B83E593E0909301028093AE
:102510000002F894F80180818F714091000250917F
:1025200001025093380340933703982F906C909397
:10253000360310923E039091400320914103207F87
:102540002960209341039C779260909340031092FE
:102550003A0310923B039181929596959370906205
:1025600090933F035093EF014093EE01282F220FE9
:10257000220F9091F3019370922B9093F30110929C
:10258000F4019091F701907B9093F701815089308D
:1025900040F48F71880F90917601917C892B809304
:1025A000760178940F900F90DF91CF911F910F914A
:1025B000089562E08BE00E945B0983B190916B000B
:1025C000892380935B0180915B0180935A0186B1DE
:1025D00090916C00892380936501809165018093BF
:1025E000640189B190916D00892380936F0180917E
:1025F0006F0180936E0160EA7AE08BE00E94370CF5
:1026000080937D0180917D0187FD16C08CED95E062
:1026100090937101809370018AE080937901109208
:102620007801109277018BE080937C0180917C018E
:10263000863110F40E94580B81E593E066CF21E0CB
:102640004EE260EA76E881E090E00E94740C8091AE
:10265000E102807F8093E10282E493E09093E002C4
:102660008093DF028DED92E090930102809300024F
:1026700080912B02806180932B024BCF20E046E0BB
:1026800060E072EC81E090E00E94740C8091E102C5
:10269000807F8160DFCF20E046E060E072EC81E087
:1026A00090E00E94740C8091E102807F8360D2CF21
:1026B00020E046E060E072EC81E090E00E94740C63
:1026C0008091E102807F8460C5CF20E046E060E039
:1026D00072EC81E090E00E94740C8091E102807FB6
:1026E0008660B8CFCF93DF9300D0CDB7DEB7CE01F1
:1026F00001960E94AA11EA810E2E000CFF0BEE2714
:10270000FF0FEE1FFF27EE0FFF1FE459FF4F8591CC
:1027100094910E94A0080F900F90DF91CF9108959F
:10272000CF92DF92EF92FF920F931F93CF937C0192
:102730008B016A01DA011C92FB01CB010C9611920C
:102740001192E817F907D9F7F70180818823B9F1C9
:10275000C0E06BE370E0C7010E94EF2D0097F1F03D
:10276000DC011C92D601EC9121E02E0F2C93F0E0BD
:10277000EE0FFF1FE00FF11FF182E0827C01BFEF3F
:10278000EB1AFB0ACF5FC63021F78C2FCF911F9138
:102790000F91FF90EF90DF90CF900895F601C081E8
:1027A000D7018C91882389F38C2F90E0880F991F93
:1027B000080F191FF801F182E082CF5FE6CF80E0B9
:1027C000E5CF2F923F924F925F926F927F928F92BE
:1027D0009F92AF92BF92CF92DF92EF92FF920F93B0
:1027E0001F93CF93DF93CDB7DEB768970FB6F894FA
:1027F000DEBF0FBECDBFCE0146960E94AA118091CA
:102800000202883409F46FC0DCF4823409F4F0C5A4
:1028100034F4882309F45CC061E37CE061C0833454
:1028200009F46AC18434C1F7809103028D3309F041
:102830003BC684E092E00E94DA2C8093E80168C1F4
:10284000813509F43EC644F5893409F47FC18035E9
:1028500019F7809103028D3309F030C2AE01485E52
:102860005F4FBE016F5F7F4F84E092E00E94901344
:1028700090910402923509F4FFC1963409F413C211
:10288000923409F414C2903509F414C2953421F637
:102890008F89817F886087C1833509F42FC2843591
:1028A00009F0BACF809103028D3309F040C164E58D
:1028B0007CE084E092E00E94F82C892B09F02BC187
:1028C0008F898F778F8BCE0146960E943C1120C155
:1028D00080912B028160826080932B0269E57CE00D
:1028E00082E092E030C18CE09CE00E94A0080E944F
:1028F000721383EC9BE00E94A0080E9472138FE782
:102900009BE00E94A0080E94721385E39BE00E9456
:10291000A0080E94721387EF9AE00E94A0080E940C
:10292000721389EB9AE00E94A0080E94721386E855
:102930009AE00E94A0080E9472138AE39AE00E9423
:10294000A0080E9472138EEF99E00E94A0080E94D6
:10295000721385EC99E00E94A0080E94721389E727
:1029600099E00E94A0080E9472138FE299E00E94F1
:10297000A0080E9472138CE099E00E94A0080E94B7
:10298000721389ED98E00E94A0080E9472138EE8ED
:1029900098E00E94A0080E9472138EE398E00E94C3
:1029A000A0080E94721385EF97E00E94A0080E9481
:1029B000721386EB97E00E94A0080E94721387E6CC
:1029C00097E00E94A0080E94721382E297E00E94A2
:1029D000A0080E94721387ED96E00E94A0080E9452
:1029E00072138EE896E00E94A0080E9472138EE394
:1029F00096E00E94A0080E9472138BE196E00E946C
:102A0000A0080E9472138BEC95E00E94A0080E941F
:102A100072138EE795E00E94A0080E94721386E36D
:102A200095E00E94A0080E94721386EE94E00E9436
:102A3000A0080E94721388EA94E00E94A0080E94F5
:102A4000721389E594E00E94A0080E9472138AE044
:102A500094E00E94A0080E9472138BEB93E00E9406
:102A6000A0080E9472138BE693E00E94A0080E94C7
:102A700072138BE193E00E94A0080E94721380ED14
:102A800092E00E94A0080E94721381E892E00E94E6
:102A9000A0080E94721386E392E00E94A0080E94A0
:102AA00072138EEF91E00E94A0080E94721382EBD5
:102AB00091E00E94A0080E9472138AE691E00E94B1
:102AC000A0080E94721380E291E00E94A0080E9478
:102AD000721386EF90E00E94A0080E94721385EBAB
:102AE00090E00E94A0080E94721380E790E00E948C
:102AF000A0080E94721393C4809103028D3309F0E1
:102B00008BCE80910402863409F086CE0E9470112B
:102B100010920302A9C061E57CE084E092E00E948B
:102B2000F82C892B09F078CE8F898068CBCE8DE385
:102B3000809303028F896EE47CE087FD02C069E424
:102B40007CE084E092E00E94012D8EC0809103021F
:102B50008D3309F059C0E0910402E354E63108F0E6
:102B60005BCE0E2E000CFF0BE854FA4E0C94E22DB7
:102B7000D515F8150C1400160C140C14FC150C14B7
:102B80000C140C140C140C140C14CE150C140C1482
:102B9000F0150C140C140C140C14F4158E898F7190
:102BA0008E8B8F898E7F8F8B16C08E898F718062FE
:102BB0008E8B8F898E7F8F8B85E092E00E94DA2C3E
:102BC0009FEF980F903108F027CE982F9F718E8934
:102BD000807E892B8E8BCE0146960E94BA1173CED1
:102BE0008E898F718064E4CF8E898F718066E0CF8B
:102BF0008E898F718068DCCF8E898F71806AD8CF83
:102C00008E898F71806CD4CF8F3309F005CE8DE320
:102C1000809303028E89282F2295269527709F89FD
:102C20009170990F990F990F922BE92FF0E0EE5BBD
:102C3000F34FE491E09304029923D9F08F718A3025
:102C400030F4805D80930502109206020DC090E082
:102C50006AE070E00E94CE2D605D60930502805DA9
:102C6000809306021092070282E092E00E94560FC3
:102C700040CF10920502F8CF823009F0CDCDEB8124
:102C8000FC818081863409F0C7CD818180538430F6
:102C900008F0C2CD9F89917983708295880F807EDC
:102CA0009460892B80CF8F89817F82607CCF8F89D0
:102CB000817F79CF8F89817F866075CF8DE3809307
:102CC00003028F89E82FE695E770F0E0E35CF34FAD
:102CD000E491E0930402982F9E70943051F69BE3A8
:102CE0009093050296E490930602829586958370F0
:102CF000805D8093070210920802B6CFC090030255
:102D000022E5C21224C0809104028D33B1F4809177
:102D100005028E3419F0893509F07ECD91E08935B0
:102D200009F090E08F8990FB84F98F8BCE01469655
:102D30000E943C111092040297CF8DE3809304020D
:102D40008F8984FF02C089E57DCF8EE47BCF00EDC3
:102D50000C0D093008F060CD002339F0BE01635F2F
:102D60007F4F8FEC8C0D0E944B11809104028D33AC
:102D700009F00DC2AE01485E5F4FBE016F5F7F4F2D
:102D800085E092E00E949013A82E01112CC031E042
:102D9000831342CD89819A810E94DA2CAC019C0177
:102DA0002C5D33402D3F93E0390780F410920402EC
:102DB000C90196958795969587958093ED012F8902
:102DC00024FF52CF80958093ED014ECF4F3F5105A8
:102DD00011F008F021CD109204028093ED019F893B
:102DE00094FDF0CF41CF20910502243431F02335FA
:102DF00009F46BC0213409F06AC1E2E0AE120CCDD7
:102E0000243409F03FC0EB81FC81F080FEE4FF1622
:102E100019F020E5F21200CD0E94A6110150110B0D
:102E200041E050E060E070E0002E04C0440F551F08
:102E3000661F771F0A94D2F7E42EE0943EE4682FD1
:102E4000F3121EC0642B82E090E00E941E2D84E4E9
:102E50008D87BE01635F7F4F8FEC8C0D0E9419112F
:102E60008BE0809FF001819FF00D1124EB59FC4F06
:102E70008FEF83838091EC018E218093EC015ACFF8
:102E80006E21E1CF083009F0C7CCEB81FC811081C5
:102E90001E3419F0193409F0BFCC0E94A611682F16
:102EA0001E3489F4606882E090E00E941E2D81E467
:102EB0008D87BE01635F7F4F87E00E9419118FEFFE
:102EC0008093B50337CF6F77EECF8BEF8A0D8230CB
:102ED00008F0A2CCEB81FC81F0804EE4F41619F0EE
:102EE00050E5F51299CC0E94A6110150110B41E05A
:102EF00050E060E070E0002E04C0440F551F661FD4
:102F0000771F0A94D2F79EE4D82ED42AF91619F026
:102F1000D42ED094D82283E58D878D819E810E9406
:102F2000DA2C7C019B8B8A8B8F8198850E94DA2C0E
:102F30004C019D8B8C8B89859A850E94DA2C94019B
:102F400028553240BB24B3942930374038F4B701B8
:102F5000685572406930774008F4B12C94012E19FD
:102F60003F098E149F0418F497012819390941E08C
:102F700050E0009739F0AC0141308AEF580710F06B
:102F800040E05AEFA8ECB0E00E949F2D2B013C01DD
:102F90009A0150E040E00E947D2D213D97E03907E5
:102FA0004105510528F080ED97E09F878E8707C087
:102FB00081E090E021153105C1F33F872E87E6E0DF
:102FC0008E859F85AE1219C08B859C850E94DA2C58
:102FD0008130FAEF9F07A0F40097A9F09C0150E020
:102FE00040E0C301B2010E947D2D213D87E03807FA
:102FF0004105510558F080ED97E0998B888B0CC006
:1030000080E09AEFEBCF81E090E0E8CF398B288B1E
:1030100081E090E0232B89F3B110FECBBE01635F0A
:103020007F4F8FEC8C0D0E9419116D2D82E090E086
:103030000E941E2DF801E75CF14F84919BE0909F68
:10304000D001919FB00D1124FD01EB59FC4F7F0180
:1030500083839FEF948392E2978396E99087A9599F
:10306000BC4F9C9192609C9361E00E942D0961E0AD
:10307000F70183810E945B098091EC0190E0002EB2
:1030800002C0959587950A94E2F781709927880F79
:10309000991F21E030E02C0F3D1F820F931FFC0190
:1030A000218932894AE0429FC001439F900D11243B
:1030B000000F111FF801EB52FE4F918380836AE0ED
:1030C00070E00E94BA2DC7010E94930E33CEF1E04A
:1030D0008F13A2CB0830E1F58D858134C9F50E94AC
:1030E000A611F82E09811A81C8010E94DA2CF80174
:1030F00001900020E9F732972081253209F59C01E3
:103100008536910510F024E630E08F2D90E0880F91
:10311000892F881F990B892B31F484E690E0AC014C
:10312000421B530B9A01AFEFB0E00E949F2D24E6A3
:1031300030E040E050E00E947D2D2093ED01FACD7B
:103140009C018F3F9105C9F3C0F32FEF30E0F5CF1D
:1031500080ED820F823008F05FCB809106028111F2
:103160005BCB0150110B81E090E0A0E0B0E004C027
:10317000880F991FAA1FBB1F0A95D2F73091EC0147
:10318000203311F0832B79CE8095832376CE8F3335
:1031900009F042CB8DE380930402002309F4A7C019
:1031A000FD84202E312C53E5F512C9C02C893D89B0
:1031B000EA88FB882E153F0508F4BAC02E193F098E
:1031C000A8ECB0E00E949F2D4B015C012E853F854D
:1031D00050E040E00E947D2D29018901288939892C
:1031E00050E040E0C501B4010E947D2D4901690114
:1031F0000E94A61193E5909305029BE3909306022B
:1032000091E0291A310890E0022C02C0959587952B
:103210000A94E2F780FF91C08EE480930702EBE30B
:10322000E093080244E069E072E0C7010E94DD0E0D
:10323000FBE3F0930D0244E06EE072E08C899D891F
:103240000E94DD0E2BE32093120244E0003137E2AE
:10325000130708F045E063E172E0C2010E94DD0E51
:1032600085E190E0003147E2140710F086E190E03C
:103270008E5F9D4F2BE3FC01208344E0F0E1CF16ED
:10328000F7E2DF0608F045E068E172E0003127E28E
:10329000120710F069E172E0C4010E94DD0EE6E160
:1032A000F0E00031174210F0E7E1F0E084E090E058
:1032B00040E1C41647E2D40610F085E090E0E80F44
:1032C000F91FEE5FFD4F8AE380838091EC0190E06F
:1032D00002C0959587952A94E2F78170805D81837D
:1032E000128280912B0286FFBFCC1082BDCC009150
:1032F000ED0110E08F8984FF17C086EF91E0801BFD
:10330000910B880F991F880F991F44E065E072E0C8
:103310000E94DD0E8AE38093090243E06AE072E0D6
:10332000C8010E94DD0EA0CCC80189509F4FE9CF93
:10333000C701821B930B9C0143CF80E56ECF083001
:1033400019F411E051E4F51210E00E94A611F09278
:1033500005029BE39093060291E0291A310890E060
:10336000022C02C0959587950A94E2F780FD05C06E
:1033700089E4111103C080E501C08EE48093070247
:103380000AE300930802111113C08091EC0190E050
:1033900002C0959587952A94E2F78170805D8093AD
:1033A000090210920A0280912B0286FDA4CC5CCC0B
:1033B0008091E601E4E68E9FC00111246FEF70E07A
:1033C0000E94CE2DCB0143E069E072E00E94DD0E49
:1033D00085E280930C0200930D028091ED0143E0A1
:1033E0006EE072E090E00E94DD0E10921102DBCFE1
:1033F000809103028D3361F580910402833409F0DA
:103400000BCA80912B02806880932B028091FC0173
:103410008F708093FC0187E39CE00E94A00868966F
:103420000FB6F894DEBF0FBECDBFDF91CF911F91D5
:103430000F91FF90EF90DF90CF90BF90AF909F9053
:103440008F907F906F905F904F903F902F90089556
:103450008F3309F0E1C98DE38093030210920402D7
:1034600082E092E00E94560F8CE4E82EF12C10E0EE
:10347000C7010E94182D44E062E072E00E94DD0E58
:1034800082E092E00E94560F173059F085E39CE0ED
:103490000E94A0081F5FF2E0EF0EF11C183041F708
:1034A000BECF0E947213F6CF8F3309F0B5C98DE3FA
:1034B000809303028091E80143E064E072E090E0D1
:1034C00030CF80912B028E7F80932B0221CB1F92D5
:1034D0000F920FB60F9211242F933F934F935F9348
:1034E0006F937F938F939F93AF93BF93EF93FF93CC
:1034F00080E492E00E943108FF91EF91BF91AF917B
:103500009F918F917F916F915F914F913F912F91FB
:103510000F900FBE0F901F9018951F920F920FB62D
:103520000F9211242F938F939F93EF93FF93E0912A
:103530005002F09151028081E0915602F0915702C1
:1035400082FD1BC09081809159028F5F8F73209103
:103550005A02821741F0E0915902F0E0E05CFD4F21
:10356000958F80935902FF91EF919F918F912F91A9
:103570000F900FBE0F901F9018958081F4CF1F926F
:103580000F920FB60F9211242F933F938F939F9317
:10359000AF93BF938091C1019091C201A091C301EB
:1035A000B091C4013091C00123E0230F2D3758F5AD
:1035B0000196A11DB11D2093C0018093C10190937C
:1035C000C201A093C301B093C4018091C501909141
:1035D000C601A091C701B091C8010196A11DB11DFE
:1035E0008093C5019093C601A093C701B093C80111
:1035F000BF91AF919F918F913F912F910F900FBEEF
:103600000F901F90189526E8230F0296A11DB11D5B
:10361000D2CF1F920F920FB60F9211242F933F9388
:103620004F935F936F937F938F939F93AF93BF93CA
:10363000CF93EF93FF9389B190916D00892380938D
:103640006F0180916E0190916F01892780936D01C8
:1036500080916F0180936E01C0E080916C01C8176A
:1036600060F4EC2FF0E0EE0FFF1FEA59FE4F0190DF
:10367000F081E02D0995CF5FF0CFFF91EF91CF91D1
:10368000BF91AF919F918F917F916F915F914F917A
:103690003F912F910F900FBE0F901F9018951F9282
:1036A0000F920FB60F9211242F933F934F935F9376
:1036B0006F937F938F939F93AF93BF93CF93EF932A
:1036C000FF9386B190916C0089238093650180916E
:1036D0006401909165018927809363018091650160
:1036E00080936401C0E080916201C81760F4EC2F00
:1036F000F0E0EE0FFF1FE45AFE4F0190F081E02D45
:103700000995CF5FF0CFFF91EF91CF91BF91AF912E
:103710009F918F917F916F915F914F913F912F91E9
:103720000F900FBE0F901F9018951F920F920FB61B
:103730000F9211242F933F934F935F936F937F9337
:103740008F939F93AF93BF93CF93EF93FF9383B1E7
:1037500090916B00892380935B0180915A01909135
:103760005B0189278093590180915B0180935A0105
:10377000C0E080915801C81760F4EC2FF0E0EE0F24
:10378000FF1FEE5AFE4F0190F081E02D0995CF5FAB
:10379000F0CFFF91EF91CF91BF91AF919F918F911A
:1037A0007F916F915F914F913F912F910F900FBE3D
:1037B0000F901F901895109243021092420288EECB
:1037C00093E0A0E0B0E08093440290934502A09380
:1037D0004602B093470287E091E0909341028093C4
:1037E000400285EC90E090934D0280934C0284EC73
:1037F00090E090934F0280934E0280EC90E0909383
:1038000051028093500281EC90E090935302809398
:10381000520282EC90E0909355028093540286EC21
:1038200090E09093570280935602109259021092A2
:103830005A0210925B0210925C0289E191E090932F
:10384000DE028093DD021092E0021092DF021092FD
:10385000E3021092E50210922A03E5E6F3E049E460
:1038600051E02FEF5183408323831682158280918C
:1038700034039091350392878187F0933503E09369
:103880003403809132038F5F809332033B9683E051
:10389000E83CF80739F78FE391E090935403809365
:1038A0005303809158038B7F8093580385E391E005
:1038B0009093520380935103109245031092440356
:1038C00088EE93E0A0E0B0E0809346039093470336
:1038D000A0934803B093490383E291E0909343039C
:1038E000809342038BE080933103EEECFEE0E491A1
:1038F000F0E0EE0FFF1FE754F14F85919491909304
:10390000300380932F03E0EBFEE0E491E0932E037D
:1039100081E080932D0382E493E090932C038093C5
:103920002B0380913F0323E533E03093380320934A
:1039300037039FED9093360310923E03909140031E
:1039400020914103207F29602093410380719C775F
:1039500092609093400380628F7E80933F03109229
:103960003A0310923B030895CF93DF93CDB7DEB7B0
:1039700069970FB6F894DEBF0FBECDBF789484B5BB
:10398000826084BD84B5816084BD85B5826085BD5B
:1039900085B5816085BD80916E00816080936E00E9
:1039A00010928100809181008260809381008091DB
:1039B000810081608093810080918000816080938C
:1039C00080008091B10084608093B1008091B0004C
:1039D00081608093B00080917A00846080937A0047
:1039E00080917A00826080937A0080917A00816071
:1039F00080937A0080917A00806880937A00109298
:103A0000C100E0915002F091510282E08083E09188
:103A10004C02F0914D021082E0914E02F0914F0263
:103A200080E1808310925802E0915402F091550297
:103A300086E08083E0915202F091530280818061A0
:103A40008083E0915202F0915302808188608083EC
:103A5000E0915202F0915302808180688083E0916E
:103A60005202F091530280818F7D8083CE010196B6
:103A70000E94AA1189818F718F3111F40E947011F7
:103A800081E79CE09093F1018093F0018091F20135
:103A9000807E88608093F20183E593E09093EF014C
:103AA0008093EE018091F301837080618093F30134
:103AB0001092F4018091F701807B8093F701CE0191
:103AC0000A960E94AA11CE010A960E94BA1171E4C8
:103AD000E72E7EE0F72E09E31EE0F801849161E015
:103AE0000E945B090F5F1F4FE016F106B1F761E01E
:103AF0008FE00E945B0961E08EE00E945B0910E0AC
:103B000000E03BE0D32ECC24CA9442E2B42E56E926
:103B1000A52E6AE0962EBE016F5F7F4F802F0E9418
:103B20004B118981833599F5D09ED001D19EB00D7E
:103B30001124F801E75CF14F84919D012B593C4F12
:103B40007901F9018383C482B782A086A959BC4F49
:103B50009C9192609C9361E00E942D0961E0D701E5
:103B600013968C910E945B096E817F81C7010E9430
:103B7000930EF801EE0FFF1FEB52FE4F2E813F8197
:103B8000929EC001939E900D1124918380830F5FBC
:103B90001F4F0830110509F0BECF8FE08093C0039E
:103BA0008FEF8093C10382E28093C40386E9809300
:103BB000C5038091BF038D7F8093BF0360E08FE0DA
:103BC0000E942D0961E08091C0030E945B098B85F2
:103BD00084FF05C08091ED0180958093E50160919F
:103BE000E50170E069507F4F660F771F660F771F02
:103BF0008DEB93E00E94930E88E08093FC0180910E
:103C0000FD018F708093FD011092FE011092FF0163
:103C100022242394312C80913802811109C00E9402
:103C2000BC09709337026093360281E080933802BA
:103C300080912E02811109C00E94BC0970932D024F
:103C400060932C0281E080932E02CE010C960E949C
:103C5000AA118C85982F9295969597708D85817075
:103C6000880F880F880F892B823008F4C7C0809195
:103C7000DF029091E002892B09F4C0C00E94BC09C8
:103C80008091E202681B770B64307105DCF00E94C2
:103C9000BC096093E202E091E102EF70E73090F43A
:103CA000F0E0EB5AF14E0C94E22D5C1EBE1EC01EDD
:103CB000C21EC41EC91ECB1E80E18093E50281E0B6
:103CC0008093E30263E2E62E72E2D72EE6E1FE2E57
:103CD000F1E2CF2EA0E2BA2EBEE1AB2E1DE1912E75
:103CE0000CE1802E8091DF029091E002DC01ED91E9
:103CF000FC910084F185E02D0995181619060CF049
:103D00007DC00E94BC096093E2028091DF02909125
:103D1000E002DC01ED91FC910284F385E02D099530
:103D2000182FE091E302E150E332E0F6F0E0E556CF
:103D3000F14E0C94E22DD01ED91EE81EF01F082073
:103D400028205320662076208820A920F9206D2184
:103D500087219421AE21C3212820E321EE21FF21D8
:103D60001F225522602270227D228A229B22B422A9
:103D7000D522F322F92201230E232C2384E0A0CFA5
:103D800087E09ECF8EE09CCF8EE08093E50283E1BA
:103D900097CF87E195CF80E18093E5028FE190CFC7
:103DA0008F3009F0B1C21092E40282E08093E30206
:103DB00099CF8091E402E82FF0E0E352FD4F1587A0
:103DC0008F5F8093E402863109F08CCF83E0EECFE1
:103DD000811104C18091E402863109F0FFC080E2C4
:103DE000EAEEF2E0AAE0B3E001900D928A95E1F7E5
:103DF0008FEF80932A0381E08093E302D0902B021F
:103E0000D3FC2EC0BE016F5F7F4F87E00E944B1135
:103E1000B5E6EB2EB3E0FB2E10E000E0073019F41E
:103E200089818134A9F0D70113968C918F3F81F459
:103E3000F801E75CF14F84916091EC0170E0002E95
:103E400002C0759567950A94E2F761700E942D098A
:103E50000F5F1F4FBBE0EB0EF11C08301105F1F6B0
:103E600080E492E00E94110818161906ACF480E470
:103E700092E00E94EF079091CF01883009F4F1C3DE
:103E80008D3009F0F5C3E92FF0E0EE5FFD4F1082B1
:103E90001092CF0197FFF8C38D8586958770823089
:103EA00009F418C508F0B9C4882309F4ECC68130B8
:103EB00009F44FC60E94BC092091360230913702A6
:103EC000621B730B613D7740D8F00E94BC09709370
:103ED00037026093360280912B02846080932B021C
:103EE00061E08EE00E942D0980912B0280FD08C0C8
:103EF0001092EC0180E79EE00E94A0080E947213DD
:103F00008091000290910102DC01ED91FC91019001
:103F1000F081E02D60E00995811106C080912B02AF
:103F200082FD02C00C94302C0E94BC098091E701F4
:103F3000681B6C3028F080912B028F7D80932B02C0
:103F40000E94BC096093E70180912B02182F1F7D0E
:103F500085FF106210932B0214FF06C0812F80731F
:103F6000803311F00C94302C4DB65EB60E94970948
:103F700012FF17C00091D1011091D2012091D301FD
:103F80003091D4016B017C01C01AD10AE20AF30A14
:103F90009701860100321E442105310510F40C946E
:103FA000302C2FEF2093D0016093D1017093D20178
:103FB0008093D3019093D401A0913403B091350341
:103FC000FD0110E0309711F40C94232A83818F3F78
:103FD00009F01F5F0184F285E02DF4CF81E0E6CE89
:103FE0008FE5810F823008F08FC18CE0113A09F023
:103FF00080E18093E5021092E402612F90E080E07E
:104000000E94750A9093E9028093E80285E0CECE83
:10401000E091E40201E00E0F0093E402F0E0E352CD
:10402000FD4F8587682F8091E8029091E9020E94F8
:10403000750A9093E9028093E8028091E50290E08E
:10404000880F991F081719060CF44CCE86E0AECEE7
:104050000091E4020F5F0093E402682F8091E80270
:104060009091E9020E94750A9093E9028093E80218
:104070002091E50230E02F5F3F4F220F331F0217E0
:1040800013060CF42FCE892B09F03EC180E2EAEE34
:10409000F2E0AAE0B3E001900D928A95E1F78FEF8C
:1040A00080932A03ABCE863A09F02EC180E180933B
:1040B000E5021092E40266EA90E080E00E94750A50
:1040C0009093E9028093E80288E070CE8D3C09F07D
:1040D0001BC16DEC8091E8029091E9020E94750A83
:1040E0009093E9028093E80289E060CE682F809186
:1040F000E8029091E9020E94750A9093E902809388
:10410000E8021E501093CD011092E4028AE04ECED8
:10411000682F8091E8029091E9020E94750A9093BD
:10412000E9028093E8028091E4028F5F853018F401
:104130008093E402D7CD1092E4021092C90110924C
:10414000CA011092CB011092CC011092CE018BE0EB
:104150002DCE682F8091E8029091E9020E94750AA5
:104160009093E9028093E8022091E402612F70E0CD
:1041700090E080E013E0412E512C421A5108052CAA
:10418000000C6608770803E0440C551C661C771C7D
:104190000A95D1F704C0660F771F881F991F4A94AC
:1041A000D2F74090C9015090CA016090CB01709045
:1041B000CC0164297529862997296093C9017093D8
:1041C000CA018093CB019093CC012F5F2093E4022E
:1041D000243008F487CD0E94E82D6093C9017093C4
:1041E000CA018093CB019093CC011092E4028CE041
:1041F000DDCD682F8091E8029091E9020E94750A56
:104200009093E9028093E8029091E402911116C024
:104210008091CE014091C9015091CA016091CB01BA
:104220007091CC0140FF44C04093C9015093CA0132
:104230006093CB017093CC018093CE018091CE012D
:10424000803158F521E0290F2093E402E82FF0E0B7
:10425000EE0FFF1FA101491B5109E352FD4FE40F6F
:10426000F51F15872230C8F04091C9015091CA014D
:104270006091CB017091CC017695679557954795E4
:104280004093C9015093CA016093CB017093CC0154
:104290008F5F8093CE011092E4028091CD01815016
:1042A0008093CD0181111ECD1092E4028DE07ECD70
:1042B00076956795579547958F5F803108F4B2CF13
:1042C0004093C9015093CA016093CB017093CC0114
:1042D0008093CE011092E302B1CF682F8091E80263
:1042E0009091E9020E94750A9C019093E9028093E3
:1042F000E8029091E4029F5F9093E402923008F408
:10430000F1CC232B09F4C2CE1092E302EBCC883A15
:10431000D9F768EA90E080E00E94750A9093E9027C
:104320008093E8028FE042CD8F77813069F7612F6B
:104330008091E8029091E9020E94750A9093E90247
:104340008093E80291E0113809F090E08091E10259
:1043500090FB84F98093E10280E128CD8EEF810FFC
:104360008F3090F6612F8091E8029091E9020E94CF
:10437000750A9093E9028093E8021093E502109287
:10438000E40281E113CDE091E40201E00E0F00931D
:10439000E402F0E0E352FD4F8587682F8091E80248
:1043A0009091E9020E94750A9093E9028093E802D5
:1043B0008091E50290E0880F991F081719060CF408
:1043C00091CC82E1F3CC803209F08CCCEFEDFFEFA1
:1043D000F093E902E093E80284E1E8CC803409F04C
:1043E00093CF8091E8029091E902805491099093D3
:1043F000E9028093E8021092E40285E1D7CCE091D3
:10440000E40221E02E0F2093E402F0E0E352FD4F9E
:1044100085878091E8029091E902811B9109909330
:10442000E9028093E8028091E50290E0880F991FED
:10443000281719060CF456CCF092E30253CC2091C5
:10444000E402E22FF0E0E352FD4F85872F5F2093D7
:10445000E4028091E50290E00196880F991F2817E9
:1044600019060CF43FCC83529D4FDC011B968C91B6
:10447000198B188AE889F989E80FF11D2091E80263
:104480003091E9022E173F0709F03ECF80E2EAEEB5
:10449000F2E0AAE0B3E001900D928A95E1F78FEF88
:1044A00080932A031092E302A9CC8E3309F02CCF1B
:1044B0002DEF38ED3093E9022093E80288E176CCC5
:1044C000833009F021CF63E08091E8029091E90206
:1044D0000E9498079093E9028093E80289E166CCF4
:1044E000682F8091E8029091E9020E9498079093CA
:1044F000E9028093E8028AE159CC682F8091E802B2
:104500009091E9020E9498079093E9028093E80253
:104510008BE14CCC813309F0F7CE61E38091E80266
:104520009091E9020E9498079093E9028093E80233
:104530008092E302D7CB88EF810F893108F0E4CE77
:10454000812F86958093E5021092E402612F80917D
:10455000E8029091E9020E9498079093E902809303
:10456000E8029092E302BECBE091E40201E00E0F7C
:104570000093E402F0E0E352FD4F8587682F8091BD
:10458000E8029091E9020E9498079093E9028093D3
:10459000E8028091E50290E0880F991F081719063C
:1045A0000CF4A0CBA092E3029DCB2091E402E22F79
:1045B000F0E0E352FD4F85872F5F2093E402809166
:1045C000E50290E00196880F991F281719060CF450
:1045D00089CB83529D4FDC011B968C911B8B1A8AD1
:1045E000EA89FB8949CF883C09F08ECEB092E3027C
:1045F00079CB883109F088CEF092E602C092E302CE
:1046000071CB863109F080CE1092E402EFE9FCE034
:1046100084918093E702D092E30264CBE091E402BC
:1046200081E08E0F8093E402F0E0E352FD4F1587A6
:10463000E091E7021E27E12FF0E0E757F34FE49106
:10464000E093E7028091E60281508093E6028111B7
:1046500049CBE092E30246CB8091E702181354CE97
:1046600015CF992309F418CC91509093CF0114CC15
:10467000983238F4E92FF0E0EE5FFD4F80839F5FC2
:10468000F4CF1092CF0108CCD7FE5AC0809102021D
:10469000811102CC8091000290910102DC01ED9128
:1046A000FC910190F081E02D63E00995882309F4E5
:1046B000F3CB80910002909101026C856F71DC0157
:1046C000ED91FC910280F381E02D09958C01BC01F4
:1046D00090E080E04AE00E94010F89E99EE00E949C
:1046E000A0088091FC0182958F7090E0880F991F3F
:1046F000B801845B9F4F0E94302D1091FC011295F0
:104700001F701730B8F486E99EE00E94A008812F40
:1047100090E002960E944F0F83E99EE00E94A0085D
:104720008091FC01982F907F905F8F70892B8093F0
:10473000FC01B2CB80912B028F7780932B02F0CFBC
:1047400060E97EE082E092E00E94F82C892B59F02B
:104750006DE87EE082E092E00E94F82C892B19F04F
:104760000E94E11399CB6AE87EE082E092E00E9429
:10477000F82C892B29F480912B02806480932B02E2
:1047800067E87EE082E092E00E94012D0E94E11342
:1047900064E87EE082E092E00E94012D0E94E11335
:1047A00061E87EE082E092E00E94012D0E94E11328
:1047B00080912B0286FD0CC08D858E70863041F471
:1047C0006EE77EE082E092E00E94012D0E94E113FC
:1047D0006AE77EE082E092E00E94012D0E94E113F0
:1047E00010912B0216FB112710F9F3E5FF2E0FE3B2
:1047F000F092020280E3810F80930302009304028F
:10480000109205020E94E1131F5F193089F7809111
:104810002B028F7B80932B023FCB833009F443C460
:10482000843009F047CB8091000290910102DC01B5
:10483000ED91FC910190F081E02D62E00995F82E58
:10484000882311F094E0F92E8091EE019091EF0110
:10485000DC01ED91FC910190F081E02D66E009957D
:10486000882309F473C18091EE019091EF0160916A
:10487000F30166956695DC01ED91FC910280F38170
:10488000E02D09958C019091F701892F8F7082306E
:1048900009F463C308F094C2882309F40FC381307C
:1048A00009F054C1C8018F579440873C910508F026
:1048B00040C30E94BC092091F5013091F601621BB2
:1048C000730B8091F701807B83646834714008F03A
:1048D0001CC33CC18091370390913803009709F4C1
:1048E000E9CA60913603629566956770DC01ED91C7
:1048F000FC910190F081E02D0995882309F4DACA32
:104900008091370390913803609136036F71DC0119
:10491000ED91FC910280F381E02D0995AC0190931B
:104920003D0380933C0380913F03806180933F036C
:1049300029E83DE080E0F901659174914617570739
:1049400008F494C0F9013296659174916417750763
:1049500008F48CC030914003432F441F4427441F68
:1049600090914103292F2F70220F242B281385C0EB
:1049700090914103292F22952F702F5F2770322F9E
:104980003295307F9F78932B9093410330913F0372
:10499000432F437050E04F5F5F4F2417150609F017
:1049A00089CA90914003803109F073C032953695E1
:1049B0003770892F8370880F880F880F832B880F9B
:1049C000880F9378982B9093400390914003292F60
:1049D000269526952F71322F3295330F307E809198
:1049E0003F038F71832B322F3695369536959C7FFA
:1049F000932B909340039C77943409F052C0877FA7
:104A000080933F0390913B0380913F0382FF81C0DD
:104A1000933008F07CC0E92FF0E0E750FE4F809122
:104A20003A038083906810923B0380913F038B7F11
:104A300080933F03992309F43DCA97FD79C0692FFC
:104A400070E0FB01E850FE4F308180E020E06150D3
:104A50007109422F50E0461757070CF063C04750CA
:104A60005E4FFA01408184272F5FF3CF8F5F2C5F69
:104A70003F4F823109F05FCF1DCA80FB37F9309379
:104A80004003282F26952F709078922B9093410306
:104A90006FCF8F71880F880F9378892B8093400395
:104AA00094CF83FD27C0B0E12B9F90011124209368
:104AB0003A03846080933F0380E020913F03922F6C
:104AC000977F23FF986090933F03813009F49ACF3A
:104AD000823009F0EFC9E0913B03E33000F581E05B
:104AE0008E0F80933B03F0E0E750FE4F80913A0336
:104AF0008083E0C990913A03292B20933A038B7F5E
:104B000080933F0381E080933E0382E0D6CF90E024
:104B10008ACF992309F4CEC910923B038ECF10920D
:104B20003B03C8C925E58227F92EFF0C381731F061
:104B300080912B02886080932B02F12C80912B02B4
:104B400083FF04C061E08EE00E942D09F110D8C0FF
:104B5000B1C90C850F7110912B02169511708091BF
:104B6000000290910102DC01ED91FC910190F08135
:104B7000E02D61E00995882309F49CC98091000229
:104B800090910102DC01ED91FC910280F381E02D16
:104B9000602F0995AC0121ED3DE090E0F9016591B0
:104BA00074916417750738F4F90132966591749120
:104BB0004617570740F02C5F3F4F9F5F933071F7C8
:104BC0001092000177C9E12FF0E08091000191304F
:104BD00029F19230D9F1F12C8830E9F42091F901D2
:104BE00030E0C901959587958575220F331F2A7A84
:104BF000822B90E09C013595279535952795237359
:104C0000880F991F880F991F8C7C822B8295809327
:104C1000F901E4E0FE2E1092000198CF883008F0F0
:104C200049C991E0980F90930001E750FE4FC12CC5
:104C3000D12C7601C39404C0CC0CDD1CEE1CFF1CEF
:104C40008A95D2F7C6012081822B52CF883008F096
:104C500031C991E0980F90930001E750FE4F21E099
:104C600030E040E050E004C0220F331F441F551FC6
:104C70008A95D2F7DA01C90180959095A095B095F3
:104C80002081822335CF8091000290910102DC01C6
:104C9000ED91FC910190F081E02D62E0099588236F
:104CA00009F408C96C856F718DED92E00E94630F65
:104CB0009C018E32974010F02DE237E02D3C3105FB
:104CC00010F42DEC30E04AE0429FC001439F900D6C
:104CD000112426E0969587952A95E1F780972091F3
:104CE000F80128136AC080912B02869581708C8B05
:104CF0001D8AEC89FD89E750FE4F208314E0F12ED8
:104D00000E94BC09709337026093360280912B0297
:104D10008B7F26E0F212C1C2826080932B0260E09A
:104D20008EE00E942D0980912B0281FB332730F900
:104D3000388F198EE88DF98DE750FE4F0081109164
:104D4000F90181FF10E01093ED010E94A6119D85ED
:104D50009E70E92E6091EB0170E0F090EC0130E084
:104D600020E0E02FF0E090E0D22EAF01022E02C052
:104D7000559547950A94E2F741705527DC01022EBC
:104D800002C0B595A7950A94E2F7A0FD06C0A8E079
:104D9000EA1619F0B6E0EB1282C2812C912C540174
:104DA000839404C0880C991CAA1CBB1CDA94D2F70B
:104DB000452B09F495C2F82895C28093F8017AC86A
:104DC000833009F410C1843009F0C0CE98012A5A0A
:104DD00035402536310508F039C10E94BC092091C3
:104DE000F5013091F601621B730B6234710508F412
:104DF000ADCE8091F70180628093F7010E94BC09DB
:104E00002091F5013091F601621B730B6730714000
:104E100008F49CCE8091F70186FF02C18F7B8093BE
:104E2000F7018091F4014091F701942F907F9093C6
:104E3000F701882309F48ACE6091F0017091F101A5
:104E40006115710539F1A091F201AF7140719B01BB
:104E500050E0B82FBF77A51709F478CEC901861B9B
:104E6000970BF90132961491113411F4411106C0D7
:104E7000E491E43409F013C1411111C1F9013196F3
:104E8000E491EB130CC1860F971FFC0184918823DA
:104E900009F45CCE90912B02969591709E871F86A7
:104EA000EE85FF85E750FE4F8150910101C0220F32
:104EB0008A95EAF780818227808348CEC8018E5781
:104EC00094408D3B924020F10E94BC097093F60102
:104ED0006093F5018091F2018F718093F2018091CE
:104EE000F3018C7F8093F3018091F7018F7B8F7D9D
:104EF0008093F70191E00B33174008F490E0809124
:104F0000F70190FB84F9807F82608093F7011ECEC9
:104F10000F571440073C110508F018CE0E94BC0939
:104F20007093F6016093F5018091F701807F8160B5
:104F3000ECCF0E94BC092091F5013091F601621B73
:104F4000730B603D774020F08091F701807FDDCFCB
:104F50000E37144008F0FACDF7CF94FF10C00B3392
:104F6000174080F40E94BC092091F5013091F601B0
:104F7000621B730B603D774008F4E8CDE5CF0E3738
:104F8000144080F70E94BC092091F5013091F60190
:104F9000621B730B6234710508F4D8CD2091F201C5
:104FA000322F3295369537709091F301892F8370A7
:104FB000880F880F880F832B8F5F382F3F71829562
:104FC000880F807E2F71822B8093F201832F86952C
:104FD000869586959C7F982B9093F3018091F7019D
:104FE000807F836092CF0A5A15400536110558F428
:104FF0000E94BC097093F6016093F5018091F7015E
:10500000807F846082CF0E94BC092091F50130919D
:10501000F601621B730B603D774008F497CD94CF87
:10502000B8E08B9FC00111248078B091F2016B2F02
:10503000629566956770B091F301B370BB0FBB0FBB
:10504000BB0FB62B8B2B8093F401EDCE95FF05C0E3
:1050500094FF10C00B33174080F40E94BC092091CC
:10506000F5013091F601621B730B603D774008F447
:105070006DCD6ACF0E37144080F78091F7018F7D98
:105080008093F7010E94BC097093F6016093F501CB
:105090008091F701807F82608093F701DECF5F5FB0
:1050A0002D5F3F4FD8CE80912B0287FF02C00C941A
:1050B0005A1F8091000290910102DC01ED91FC9158
:1050C0000190F081E02D63E00995882311F40C94A0
:1050D0005A1F0E94A611C82E8091FE01982F969506
:1050E00096959695943140F49F5F990F990F990F7B
:1050F0008770892B8093FE018091000290910102BC
:105100006C856F71DC01ED91FC910280F381E02DE3
:1051100009957C010CE410E0D12CC8010E94182DE7
:105120009C012E513109E216F30620F04E968E15A1
:105130009F0540F4D3940E5F1F4FB8E0DB12EDCF14
:105140008FE0D82E9091FF018091FD01282F2295AC
:105150002F70213019F1A0F0223009F463C0233000
:1051600009F46BC080912B02869581708E8B1F8A0B
:10517000EE89FF89E750FE4F8091FF018083BECD0D
:10518000EFE0DE1679F38091FE01887F8093FE01C7
:105190008D2D8F7080618093FD01E4CF8F708D1114
:1051A00078C08091FE0121E0280F2770887F822B34
:1051B0008093FE012330B0F22091FC012F703D2D31
:1051C0003295307F232B2093FC012C2D30E00D2CC9
:1051D00002C0359527950A94E2F720FF13C041E0FD
:1051E00050E060E070E004C0440F551F661F771F59
:1051F000DA94D2F7492B4093FF018091FD018F7023
:105200008062C9CF282F287F203AB9F7910101C0C9
:10521000220FDA94EAF792279093FF018770809328
:10522000FE01EBCFFFE0DF129DCF9091FE01987F52
:105230009093FE018F708063AECF0FE0E02EDE1002
:10524000DCCF8091FE0121E0280F2770887F822B20
:105250008093FE01233008F485CF8091FC01829574
:105260008F70D12C082E02C0D594C7940A94E2F70F
:10527000C0FE0FC041E050E060E070E004C0440FA9
:10528000551F661F771F8A95D2F740954923409393
:10529000FF018091FD018F707ECF8D7F3ECD452B2C
:1052A00009F1AB01022E02C0559547950A94E2F729
:1052B00040FD18C0812C912C54018394022E04C00F
:1052C000880C991CAA1CBB1C0A94D2F74F2D50E0E5
:1052D000022E02C0559547950A94E2F740FF6BCD28
:1052E0008094F8202F5F3F4F2830310509F03CCDE6
:1052F000F092EC010093EB018091EA018F1105C05F
:105300008091E901181709F487C0F092EA0110931F
:10531000E9018091E80181FF7FC0BE016F5F7F4F8F
:1053200087E00E944B11E98080E19EE00E94A00886
:105330000E9472138DE09EE00E94A00810E000E041
:1053400054E6D52E073009F06EC0E1E4EE126EC0CF
:105350008091ED016D2D0E94AE2DF82E8BE09EE028
:105360000E94A0086F2D70E090E080E04AE00E946B
:10537000010F0F5F1F4F0930110521F70E947213B3
:1053800089EF9DE00E94A00841E4C42E84EF9DE0D7
:10539000EC100EC08091ED012AE0622F0E94AE2D2C
:1053A0000E94AE2D892F90E00E944F0F87EF9DE065
:1053B0000E94A0088091ED011AE0612F0E94AE2D9D
:1053C0000E94AE2D892F90E00E944F0F0E94721311
:1053D00082EE9DE00E94A00831E4D32E8DED9DE089
:1053E000ED100BC08091ED01612F0E94AE2D892F31
:1053F00090E00E944F0F80EE9DE00E94A0088091F7
:10540000ED016AE00E94AE2D892F90E00E944F0FBF
:105410000E9472130E94721380912B02877F8093E7
:105420002B020C945A1F083009F492CF6091EC01C2
:1054300070E0002E02C0759567950A94E2F7F62F8A
:10544000F170FF2E8BCF112309F4D9C0C12ED12CBE
:10545000C601880F991FEDB7FEB7E81BF90B0FB611
:10546000F894FEBF0FBEEDBF2DB73EB72F5F3F4F85
:10547000490120E01097A1F013968C9113978F3F6C
:1054800051F0822F90E0880F991F880D991DFC0123
:10549000B183A0832F5F19960D90BC91A02DEACF08
:1054A000F401A081B18112968C9112978E7F129691
:1054B0008C937401D40100E0BB24B3941B15F1F06C
:1054C00012968D919C911397FC0122812E7F22834D
:1054D0002D913D9165817681F90145815681641751
:1054E000750750F411963C932E939D01225031097B
:1054F000F9019183808301E0B394E0CF0111D9CF0A
:10550000D40161E01617D9F012962D913C911397B2
:10551000F90185819681FD01408151811296FA0140
:10552000458156818417950721F0841B950B0697BA
:1055300020F4F9018281816082836F5FE3CFF89468
:10554000540199249394D501ED91FD915D016281FF
:1055500066956170692583810E942D090F5F101384
:10556000F2CF789406B5AA24A394B12C712C612CA7
:10557000802E912CD701ED91FC9185819681880D2B
:10558000991DBC0164507109402F06B5041708F439
:1055900073949301200F311DD701ED91FC91119768
:1055A000428140FD09C06217730730F4F894ED9111
:1055B000FC91428141604283402F8217930728F774
:1055C000D701ED91FC9162816695617083810E94A3
:1055D0002D09AC14BD043CF4D7011296ED91FC9159
:1055E000828180FD01C07894B2E0EB0EF11CEFEFF8
:1055F000AE1ABE0A8FEF8A0D811708F4BBCF0FB623
:10560000F8945EBE0FBE4DBE80912B0281FF7EC01E
:10561000BE016F5F7F4F87E00E944B11898181340B
:1056200009F04BC0F090ED010E94A61187FFF094A5
:105630008091E6018F1509F440C00F2D10E0E0E4E1
:10564000FEE0E49061E08E2D0E945B0901151105DA
:1056500029F460E08E2D0E942D092DC00F3F110509
:1056600011F461E0F7CFEE2DF0E0EB5DF14FE49146
:10567000E33009F49EC048F4E130C9F0E23009F4A7
:1056800093C0003811056CF7E4CFE73009F49BC0F4
:10569000E83009F4A0C0E430A1F780918000806276
:1056A0008093800010938B0000938A0004C084B51F
:1056B000806884BDF7BCF092E601CE010A960E9494
:1056C000AA119091ED018B8584FD90958091E50163
:1056D0008917E1F0282F30E0492F50E0891708F0B2
:1056E00086C0421B530B433051050CF07CC0909395
:1056F000E5016091E50170E069507F4F660F771F0B
:10570000660F771F8DEB93E00E94930E65E6C62E21
:1057100063E0D62E05ED11E0F12CE12C7AE0872E26
:10572000912CEAE0BE2EAE2CD60113968C918F3FC1
:1057300009F489C0BE016F5F7F4F8E2D0E944B110F
:105740004E815F8128853985F901BA0142175307D7
:1057500010F0FA01B9018091EC0190E002C095953A
:105760008795AA94E2F7B82FB170AB2E80FF47C09F
:105770004217530708F447C0F801808191812A81BC
:105780003B81A11002C02C813D81821B930BB69EF0
:105790009001B79E300D11248217930708F4DBC0E7
:1057A000D8018D939C9346C084B5806284BDF8BCBB
:1057B00082CF809180008068809380001093890060
:1057C0000093880078CF8091B00080688093B0000B
:1057D000F092B30070CF8091B00080628093B000EF
:1057E000F092B40068CF8D5F8093E50182CF241BD7
:1057F000350B233031050CF47ACF8350F5CF2417C5
:10580000350708F0B9CFD8018D919C912A813B8151
:10581000A11002C02C813D81820F931FBE9E90017A
:10582000BF9E300D11242817390708F490C0F801E5
:1058300091838083D8018D919C91B4010E94BA2DEF
:10584000C6010E94930EBFEFEB1AFB0AEBE0CE0EEF
:10585000D11C0E5F1F4FF8E0EF16F10409F063CF83
:105860008091000290910102DC01ED91FC91019088
:10587000F081E02D64E00995882309F477C08091D8
:10588000E80180FF73C080910002909101026C8555
:105890006F71DC01ED91FC910280F381E02D09959F
:1058A0008C010E94BC0980912C02681B862F43E06A
:1058B000BE016F5F7F4F90E00E94DD0E0E94BC0929
:1058C00070932D0260932C028DE69EE00E94A0084A
:1058D000CE0101960E94560F8BE69EE00E94A00822
:1058E000B80190E080E04AE00E94010F88E69EE067
:1058F0000E94A0088D858E70843009F035C085E641
:105900009EE00E94A0080C5D154021E43EE060E0AE
:10591000F9018591949197FD0196959587954C97FE
:10592000081719079CF1F9018591949197FD01964B
:10593000959587954C968017910744F1862F603195
:1059400071F0613169F16A3040F5605D09C0D801DC
:105950002D933C936FCFF801318320836BCF62E5A9
:1059600080E492E00E9453080E94721380E090E06D
:10597000892B11F40C940B1E0E941D08882311F42E
:105980000C940B1E0E9400000C94081E6F5F2E5F8B
:105990003F4F623109F0BCCF8FEF67E3680FE0CF74
:1059A00069E4DECF83E291E0909343038093420366
:1059B0000C94080CFC0188279927E8942191203247
:1059C000E9F3293010F02E30C8F32B3241F02D329C
:1059D00039F4689404C00E94082D820F911D219112
:1059E00020532A30C0F31EF4909581959F4F08955F
:1059F000FB01DC018D91059080190110D9F3990B01
:105A00000895FB01DC0105900D920020E1F7089557
:105A10007AE0979F902D879F802D910D11240895F6
:105A2000F999FECF92BD81BDF89A992780B5089566
:105A3000A8E1B0E042E050E00C94372D262FF99910
:105A4000FECF92BD81BDF89A019700B4021639F0DD
:105A50001FBA20BD0FB6F894FA9AF99A0FBE0895AE
:105A60000E94452D272F0C94462DDC01CB01FC0113
:105A7000F999FECF06C0F2BDE1BDF89A319600B4A7
:105A80000D9241505040B8F70895262FF999FECF56
:105A90001FBA92BD81BD20BD0FB6F894FA9AF99A4B
:105AA0000FBE01960895052E97FB1EF400940E94E8
:105AB0006A2D57FD07D00E947D2D07FC03D04EF4C0
:105AC0000C946A2D50954095309521953F4F4F4F3E
:105AD0005F4F089590958095709561957F4F8F4F9A
