:100000000C940B010C9433010C9433010C944809AB
:100010000C9402090C94BC080C9433010C94330129
:100020000C9433010C9433010C9433010C94330180
:100030000C9433010C9433010C9433010C94330170
:100040000C9472080C9433010C9440080C941A0818
:100050000C9433010C9433010C9433010C94330150
:100060000C948E090C94330100000000240027003A
:100070002A0000000000250028002B0000000000DE
:1000800023002600290004040404040404040202DA
:100090000202020203030303030301020408102007
:1000A0004080010204081020010204081020000012
:1000B0000008000201000003040700000000000027
:1000C0000000554E49545F5045525F444547283320
:1000D0003630293D00554E49545F5045525F4445E6
:1000E0004728313830293D00546573742049324324
:1000F00020736C6176653A20302D333630C2B020E3
:10010000616E67756C61722073656E736F720053F8
:100110006B6574636820636F6E666967757265648A
:1001200020746F2073707920582D416E79206D6591
:100130007373616765206F6E2050574D2073696738
:100140006E616C20286F7574707574206368616EC1
:100150006E656C29206F6620746865207265636522
:10016000697665722028436F6E6E65637420505700
:100170004D207369676E616C20746F2041726475E5
:10018000696E6F2070696E302900E4031C041C0442
:10019000540454048C048C04C404C404FC04FC04FF
:1001A000340534056C056C05A405A405DC05DC05E7
:1001B000140614064C064C0684068406BC06BC06CF
:1001C000F406F4062C072C07640764079C079C07B9
:1001D000D407204578633D00204572723D00C2B0CF
:1001E00000202D3E2000202D3E204375723D004F03
:1001F00072643D00582D416E79204C656E677468BD
:10020000206F7220436865636B73756D2065727231
:100210006F722100AD0A11241FBECFEFD8E0DEBF00
:10022000CDBF11E0A0E0B1E0EEE1FDE202C005903B
:100230000D92A835B107D9F723E0A8E5B1E001C0D8
:100240001D92A638B207E1F711E0CBE0D1E004C07F
:100250002197FE010E948716CA30D107C9F70E9474
:100260007B0B0C948D160C94000020915B02309156
:100270005C028217930701F120915D0230915E02CA
:1002800082179307C9F020915F02309160028217B4
:10029000930791F020916102233080F4E091610294
:1002A000F0E0EE0FFF1FE55AFD4F918380838091B0
:1002B00061028F5F8093610280E008958FEF08955F
:1002C00008950895AF92BF92CF92DF92EF92FF927E
:1002D0000F931F93CF93DF936C017B018B01040F6E
:1002E000151FEB015E01AE18BF08C017D10759F00A
:1002F0006991D601ED91FC910190F081E02DC6014C
:100300000995892B79F7C501DF91CF911F910F9145
:10031000FF90EF90DF90CF90BF90AF900895FC01D9
:10032000538D448D252F30E0842F90E0821B930B5A
:10033000541710F0CF96089501970895FC01918D00
:10034000828D981761F0A28DAE0FBF2FB11D5D9603
:100350008C91928D9F5F9F73928F90E008958FEFA5
:100360009FEF0895FC01918D828D981731F0828D59
:10037000E80FF11D858D90E008958FEF9FEF0895B0
:10038000FC01918D228D892F90E0805C9F4F821B14
:1003900091098F739927089589E792E00E94C0011F
:1003A00021E0892B09F420E0822F089580E090E07D
:1003B000892B29F00E94CC0181110C940000089532
:1003C000FC01A48DA80FB92FB11DA35ABF4F2C91CA
:1003D000848D90E001968F739927848FA689B789C1
:1003E0002C93A089B1898C91837080648C93938DB8
:1003F000848D981306C00288F389E02D80818F7D5B
:1004000080830895EF92FF920F931F93CF93DF9312
:10041000EC0181E0888F9B8D8C8D98131AC0E88940
:10042000F989808185FF15C09FB7F894EE89FF890F
:100430006083E889F98980818370806480839FBFAD
:1004400081E090E0DF91CF911F910F91FF90EF90AD
:100450000895F62E0B8D10E00F5F1F4F0F731127BD
:10046000E02E8C8D8E110CC00FB607FCFACFE889F8
:10047000F989808185FFF5CFCE010E94E001F1CF9F
:10048000EB8DEC0FFD2FF11DE35AFF4FF0829FB76C
:10049000F8940B8FEA89FB8980818062CFCF0F931C
:1004A0001F93CF93DF938C01D0E0C0E0F801EC0FF5
:1004B000FD1F6491662341F089E792E00E940202E9
:1004C000892B11F02196F2CFCE01DF91CF911F91B0
:1004D0000F910895CF93DF93EC01888D8823B9F0B5
:1004E000AA89BB89E889F9898C9185FD03C080813F
:1004F00086FD0DC00FB607FCF7CF8C9185FFF2CFBC
:10050000808185FFEDCFCE010E94E001E9CFDF9130
:10051000CF910895833081F028F4813099F08230B2
:10052000A9F008958730A9F08830C9F08430B1F47B
:10053000809180008F7D03C0809180008F778093B1
:100540008000089584B58F7784BD089584B58F7D2C
:10055000FBCF8091B0008F778093B0000895809199
:10056000B0008F7DF9CFCF93DF93282F30E0F901D2
:10057000E255FF4F8491F901E656FF4FD491F901FE
:10058000EA57FF4FC491CC23A1F081110E948A0247
:10059000EC2FF0E0EE0FFF1FE458FF4FA591B49150
:1005A000EC91ED2381E090E009F480E0DF91CF91C0
:1005B000089580E090E0FACF1F93CF93DF93282F28
:1005C00030E0F901E255FF4F8491F901E656FF4F03
:1005D000D491F901EA57FF4FC491CC23A9F0162F0B
:1005E00081110E948A02EC2FF0E0EE0FFF1FEE58FF
:1005F000FF4FA591B4918FB7F894EC91111108C0F9
:10060000D095DE23DC938FBFDF91CF911F910895AA
:10061000DE2BF8CFCF93DF9390E0FC01E656FF4F3F
:1006200024918A579F4FFC0184918823D1F090E058
:10063000880F991FFC01E859FF4FA591B491FC0167
:10064000EE58FF4FC591D49161110EC09FB7F89439
:100650008C91E22FE0958E238C932881E223E8830E
:100660009FBFDF91CF9108958FB7F894EC91E22B63
:10067000EC938FBFF6CF3FB7F8948091A101909192
:10068000A201A091A301B091A40126B5A89B05C029
:100690002F3F19F00196A11DB11D3FBFBA2FA92F01
:1006A000982F8827BC01CD01620F711D811D911DFE
:1006B00042E0660F771F881F991F4A95D1F708956A
:1006C0002FB7F89460919D0170919E0180919F01D8
:1006D0009091A0012FBF0895BF92CF92DF92EF9229
:1006E000FF920F931F93CF93DF930E943B036B0105
:1006F0007C01C091A501D091A601BB24BA9401E070
:1007000010E0209709F445C08D818370823001F597
:1007100020917602422F50E08C81282F30E08830E3
:10072000D8F49801082E02C0220F331F0A94E2F772
:1007300024233523232B61F00E94B3029D8192FB79
:10074000992790F99817B9F0CA86DB86EC86FD8662
:100750000A80DB81C02DD5CF8E3050F4285031096E
:10076000B80102C0660F771F2A95E2F79B01E0CF20
:100770002E503109F5CF8A859B85AC85BD859601C4
:10078000281B390B3F872E87B88A0E946003698B2C
:10079000DFCFDF91CF911F910F91FF90EF90DF900E
:1007A000CF90BF900895BF92CF92DF92EF92FF92C9
:1007B0000F931F93CF93DF930E943B036B017C0148
:1007C000C091A501D091A60101E010E0BB24BA942C
:1007D000209709F445C08D818370813001F5209107
:1007E0006C02422F50E08C81282F30E08830D8F402
:1007F0009801082E02C0220F331F0A94E2F7242327
:100800003523232B61F00E94B3029D8192FB99272F
:1008100090F99817B9F0CA86DB86EC86FD860A80C7
:10082000DB81C02DD5CF8E3050F428503109B8016E
:1008300002C0660F771F2A95E2F79B01E0CF2E508A
:100840003109F5CF8A859B85AC85BD859601281B2E
:10085000390B3F872E87B88A0E946003698BDFCFF0
:10086000DF91CF911F910F91FF90EF90DF90CF908C
:10087000BF900895BF92CF92DF92EF92FF920F93B5
:100880001F93CF93DF930E943B036B017C01C091C8
:10089000A501D091A601BB24BA9401E010E02097F5
:1008A00009F444C08D81837001F520916202422FCA
:1008B00050E08C81282F30E08830D8F49801082E41
:1008C00002C0220F331F0A94E2F724233523232B7F
:1008D00061F00E94B3029D8192FB992790F99817CD
:1008E000B9F0CA86DB86EC86FD860A80DB81C02DE6
:1008F000D6CF8E3050F428503109B80102C0660FAF
:10090000771F2A95E2F79B01E0CF2E503109F5CFF2
:100910008A859B85AC85BD859601281B390B3F8751
:100920002E87B88A0E946003698BDFCFDF91CF9159
:100930001F910F91FF90EF90DF90CF90BF9008959F
:100940000895FC018685978526853785821793074C
:10095000C9F70895FC01808990E0062E02C09595A4
:1009600087950A94E2F780FF1CC0208981E090E01F
:1009700001C0880F6A95EAF780958223808B2685CF
:1009800037858685978528173907C9F78681978126
:100990002817390730F081E0408551854217530709
:1009A00008F480E0089520917901260F3327331F42
:1009B00021323105ECF42091F601FC0190E080E059
:1009C000243069F082E00895A09179012191AC0171
:1009D000475A5E4FA40FB52FB11D2C930196861771
:1009E00098F380917901680F6093790180E0089510
:1009F00081E008951092F60181E08093F501109254
:100A0000F00161E082E10E94DC0261E083E10E948A
:100A1000DC02E9EBF0E080818E7F808380818D7F36
:100A2000808388E48093B80085E48093BC000895B7
:100A3000CF93DF9391E0909358018823B9F0C09150
:100A4000B800D091BA008091BC008A7B8093BC0032
:100A500060E082E10E94DC0260E083E10E94DC024F
:100A60000E94FA04D093BA00C093B800DF91CF91EE
:100A700008950895E091FD018091FC01E81730F49C
:100A8000F0E0E250FE4F808190E008958FEF9FEFFD
:100A900008959091FD018091FC012FEF3FEF981791
:100AA00048F4E92FF0E0E250FE4F208130E09F5FF4
:100AB0009093FD01C90108958091FC019091FD0181
:100AC000891B990B0895CF92DF92EF92FF920F93BB
:100AD0001F93CF93DF937C01CB018A012091AC015E
:100AE000222389F0EB016B01C40ED51ECC15DD0568
:100AF00069F06991D701ED91FC910190F081E02DB1
:100B0000C7010995F3CF642F0E94D304C801DF9178
:100B1000CF911F910F91FF90EF90DF90CF900895AC
:100B2000CF93DF931F92CDB7DEB769832091AC01DD
:100B30002223F9F02091CF01203258F021E030E05B
:100B4000FC013383228390E080E00F90DF91CF910E
:100B500008958091AD01E82FF0E0E255FE4F9981B4
:100B600090838F5F8093AD018093CF0181E090E00F
:100B7000ECCF61E0CE0101960E94D304F7CF90E064
:100B800080E0089590E080E00895CF92DF92EF92A8
:100B9000FF92CF93DF93EC01CF8030E1C39E6001E1
:100BA0001124C601C616D70608F4CB01288530E10A
:100BB000239FF0011124AF018E179F0708F4AC01A9
:100BC00070E060E0DB01CA0122E0B595A79597953A
:100BD00087952A95D1F79E838D830D2C000CEE0806
:100BE000FF089A01AB012C193D094E095F09A4EBDE
:100BF000B0E00E94DE139F01FF0F440B550B2C1930
:100C00003D094E095F090E94BF132C83DF91CF91EC
:100C1000FF90EF90DF90CF9008950C94C505FC01F4
:100C200001900020E9F73197AF01481B590BBC0137
:100C300089E792E00C9462018F929F92AF92BF92EB
:100C40000F931F93CF93DF93CDB7DEB7A1970FB666
:100C5000F894DEBF0FBECDBF19A2423008F44AE0BF
:100C60008E010F5D1F4F842E912CB12CA12CA5015C
:100C700094010E94E913E62FB901CA01EA30F4F4A5
:100C8000E05DD801EE938D01232B242B252B79F7E2
:100C900090E080E0109719F0CD010E940F06A19618
:100CA0000FB6F894DEBF0FBECDBFDF91CF911F917D
:100CB0000F91BF90AF909F908F900895E95CE1CF26
:100CC000CF92DF92EF92FF92CF93DF936B017C0183
:100CD0006DE289E792E00E940202EC016627772725
:100CE000CB016C197D098E099F094AE00E941C0600
:100CF0008C0F9D1FDF91CF91FF90EF90DF90CF90F1
:100D00000895CF93DF93BC01990F880B990B97FF40
:100D10000CC00E946006EC0188E491E00E940F067E
:100D20008C0F9D1FDF91CF9108954AE00E941C0611
:100D3000F2CFCF93DF930E944F02EC0188E491E061
:100D40000E940F068C0F9D1FDF91CF9108954F9247
:100D50005F926F927F928F929F92AF92BF92CF924B
:100D6000DF92EF92FF920F931F93CF93DF93CDB754
:100D7000DEB74DB65EB60E943B030091570210915C
:100D800058022091590230915A026B017C01C01A1D
:100D9000D10AE20AF30A9701860100321E442105B6
:100DA000310508F40BC16093570270935802809389
:100DB000590290935A02A0912303B0912403FD019C
:100DC00010E0309741F083818F3F09F01F5F01846D
:100DD000F285E02DF6CF111117C081E00FB6F8941F
:100DE0005EBE0FBE4DBEDF91CF911F910F91FF9060
:100DF000EF90DF90CF90BF90AF909F908F907F90BB
:100E00006F905F904F900895C12ED12CC601880F2E
:100E1000991FEDB7FEB7E81BF90B0FB6F894FEBFAC
:100E20000FBEEDBF2DB73EB72F5F3F4F490120E00A
:100E30001097A1F013968C9113978F3F51F0822F4A
:100E400090E0880F991F880D991DFC01B183A08344
:100E50002F5F19960D90BC91A02DEACFF401A081CF
:100E6000B18112968C9112978E7F12968C93740199
:100E7000D40100E0BB24B3941B15F1F012968D91C0
:100E80009C911397FC0122812E7F22832D913D910D
:100E900065817681F901458156816417750750F4A3
:100EA00011963C932E939D0122503109F9019183B3
:100EB000808301E0B394E0CF0111D9CFD40161E088
:100EC0001617D9F012962D913C911397F90185814F
:100ED0009681FD01408151811296FA01458156812A
:100EE0008417950721F0841B950B069720F4F901D0
:100EF0008281816082836F5FE3CFF89454019924EB
:100F00009394D501ED91FD915D01628166956170CB
:100F1000692583810E94DC020F5F1013F2CF789461
:100F200006B5AA24A394B12C712C612C802E912C8F
:100F3000D701ED91FC9185819681880D991DBC01A9
:100F400064507109402F06B5041708F47394930197
:100F5000200F311DD701ED91FC911197428140FD89
:100F600009C06217730730F4F894ED91FC91428147
:100F700041604283402F8217930728F7D701ED91F4
:100F8000FC9162816695617083810E94DC02AC14E1
:100F9000BD043CF4D7011296ED91FC91828180FD55
:100FA00001C07894B2E0EB0EF11CEFEFAE1ABE0A6E
:100FB0008FEF8A0D811708F4BBCF0FCF80E00ECFE3
:100FC0000C94A70685ED8093BC008091F801909168
:100FD000F901A091FA01B091FB010796A11DB11D85
:100FE00023E0B695A795979587952A95D1F72091F7
:100FF000BC0024FD03C01092F60108954091F80151
:101000005091F9016091FA017091FB01452B462B3B
:10101000472B69F30097A105B10541F02AE22A9513
:10102000F1F700C00197A109B109E1CF8091F70163
:101030000C9418051F920F920FB60F9211242F9344
:101040003F934F935F936F937F938F939F93AF9350
:10105000BF93EF93FF9389E792E00E94E001FF9135
:10106000EF91BF91AF919F918F917F916F915F9120
:101070004F913F912F910F900FBE0F901F90189599
:101080001F920F920FB60F9211242F938F939F935D
:10109000EF93FF93E0918902F0918A028081E091C1
:1010A0008F02F091900282FD1BC09081809192028C
:1010B0008F5F8F7320919302821741F0E09192022B
:1010C000F0E0E758FD4F958F80939202FF91EF91EA
:1010D0009F918F912F910F900FBE0F901F90189599
:1010E0008081F4CF1F920F920FB60F9211242F938D
:1010F0003F938F939F93AF93BF9380919D01909166
:101100009E01A0919F01B091A00130919C0123E02C
:10111000230F2D3758F50196A11DB11D20939C0179
:1011200080939D0190939E01A0939F01B093A00195
:101130008091A1019091A201A091A301B091A4017D
:101140000196A11DB11D8093A1019093A201A093CE
:10115000A301B093A401BF91AF919F918F913F9153
:101160002F910F900FBE0F901F90189526E8230F18
:101170000296A11DB11DD2CF1F920F920FB60F92F2
:1011800011242F933F934F935F936F937F938F938C
:101190009F93AF93BF93CF93EF93FF9389B19091B8
:1011A0006D00892380937802809177029091780274
:1011B0008927809376028091780280937702C0E03D
:1011C00080917502C81760F4EC2FF0E0EE0FFF1F5E
:1011D000E159FD4F0190F081E02D0995CF5FF0CFEF
:1011E000FF91EF91CF91BF91AF919F918F917F919F
:1011F0006F915F914F913F912F910F900FBE0F9084
:101200001F9018951F920F920FB60F9211242F93D3
:101210003F934F935F936F937F938F939F93AF937E
:10122000BF93CF93EF93FF9386B190916C00892386
:1012300080936E0280916D0290916E028927809357
:101240006C0280916E0280936D02C0E080916B020F
:10125000C81760F4EC2FF0E0EE0FFF1FEB59FD4FC5
:101260000190F081E02D0995CF5FF0CFFF91EF91D4
:10127000CF91BF91AF919F918F917F916F915F912E
:101280004F913F912F910F900FBE0F901F90189587
:101290001F920F920FB60F9211242F933F934F93EB
:1012A0005F936F937F938F939F93AF93BF93CF93EE
:1012B000EF93FF9383B190916B0089238093640235
:1012C00080916302909164028927809362028091E9
:1012D000640280936302C0E080916102C81760F4E9
:1012E000EC2FF0E0EE0FFF1FE55AFD4F0190F0816B
:1012F000E02D0995CF5FF0CFFF91EF91CF91BF9196
:10130000AF919F918F917F916F915F914F913F919D
:101310002F910F900FBE0F901F9018951F920F9254
:101320000FB60F9211242F933F934F935F936F93B8
:101330007F938F939F93AF93BF93EF93FF9380918E
:10134000B900887F803609F44AC0F0F5883209F484
:10135000A7C018F5803109F49BC0B8F4882309F4BC
:10136000F9C0883009F494C0FF91EF91BF91AF911B
:101370009F918F917F916F915F914F913F912F91AD
:101380000F900FBE0F901F901895883109F488C0F8
:10139000803251F78093F40114C0803409F49DC069
:1013A00040F48033B9F38833F9F68093F40185EC87
:1013B000B0C0803509F485C0883509F496C08834FA
:1013C00099F60E94E207D0CF883909F48CC038F52D
:1013D000883729F050F4883611F0803729F683E0F9
:1013E0008093F60110929B0157C0883809F47BC0A6
:1013F000803919F0803809F0B7CF80919B01803295
:1014000008F071C0E0919B0181E08E0F80939B01F9
:101410008091BB00F0E0E558FE4F80833DC0803BEB
:1014200039F0E0F4803A09F479C0883A09F09CCFA9
:1014300084E08093F60110927A0110927901E09194
:10144000A901F091AA0109958091790181110FC03C
:1014500081E0809379011092590109C0803C09F420
:10146000A6CF883C09F4A3CF883B09F07DCFE0915B
:101470007A0181E08E0F80937A01F0E0E75AFE4F07
:1014800080818093BB0090917A018091790129C07D
:101490008091F1018093BB0085EC8093BC0064CF08
:1014A0009091F3018091F201981758F5E091F301C2
:1014B00081E08E0F8093F301F0E0E053FE4F8081D6
:1014C000E9CFE091F30181E08E0F8093F3018091E9
:1014D000BB00F0E0E053FE4F80839091F3018091D8
:1014E000F2019817C8F285E8D8CFE091F30181E0C6
:1014F0008E0F8093F3018091BB00F0E0E053FE4F2C
:1015000080838091F50181115CCF81E08093F001AF
:1015100084EA8093BC001092F60126CF85EC80937C
:10152000BC001092F60180919B01803230F4E09172
:101530009B01F0E0E558FE4F108260919B0170E046
:10154000E091A701F091A8018BE791E00995109235
:101550009B010ACF1092F40134CFCF93DF93E9E7D8
:10156000F2E01382128288EE93E0A0E0B0E0848380
:101570009583A683B78324E131E03183208325EC72
:1015800030E03587248724EC30E03787268720EC4D
:1015900030E0318B208B21EC30E0338B228B22EC3E
:1015A00030E0358B248B26EC30E0378B268B118E88
:1015B000128E138E148EE6E1F3E01382128284837E
:1015C0009583A683B78386E291E091838083C4E705
:1015D000D3E082E491E099838883E9E7F3E08081B6
:1015E0008B7F8083E1E7F3E08081A8E6B3E0129689
:1015F000DC93CE93119797EC9C9318961C921897B6
:1016000091812281207F2960228380719C77926062
:10161000918380628F7E808314961C921497159616
:101620001C92ADE5B3E028E331E011963C932E9394
:101630008FEF13968C93139716961C921E92159704
:1016400040912303509124031A965C934E9319976B
:1016500090912203E2E5F3E03183208383831682B5
:101660001582B287A187F0932403E093230322E03D
:10167000290F2F70907F922B90932203E5E2F3E0E5
:10168000168E158E10A2178E11A212A213A214A2EA
:1016900015A216A217A210A611A612A613A614A68A
:1016A00040E850E060E070E04083518362837383E0
:1016B00091E0948F148215821682178240EC50E0DC
:1016C00060E070E0408751876287738714869FE3EC
:1016D000958716861786108A118A128A138A148AA9
:1016E00090EE958B868B878B808F818F828F838FF7
:1016F000DF91CF910895CF93DF93CDB7DEB7649795
:101700000FB6F894DEBF0FBECDBF789484B582606B
:1017100084BD84B5816084BD85B5826085BD85B595
:10172000816085BD80916E00816080936E00109213
:10173000810080918100826080938100809181008E
:10174000816080938100809180008160809380001F
:101750008091B10084608093B1008091B00081607D
:101760008093B00080917A00846080937A008091A9
:101770007A00826080937A0080917A008160809301
:101780007A0080917A00806880937A001092C1007C
:101790001092390381EE80933A03EE24EA94E092AA
:1017A0003B03E0923C03E0923D03E0923E03E09273
:1017B0003F03E0924003109231038FE180933203A4
:1017C00010923303109234031092350310923603B3
:1017D000109237031092380384E080936003E09204
:1017E000610302E20093640316E91093650380919C
:1017F0005F038D7F80935F0360E084E00E94DC02E2
:1018000061E0809160030E940A036091240270915C
:101810002502675E7A4F8DE593E00E94C50586E05C
:10182000F82EF0925503E09256030093590310935B
:101830005A03809154038D7F8093540360E086E0C7
:101840000E94DC0261E0809155030E940A0368EE69
:1018500073E082E593E00E94C505E0918902F09172
:101860008A0282E08083E0918502F09186021082F4
:10187000E0918702F091880280E1808310929102CA
:10188000E0918D02F0918E02F082E0918B02F09156
:101890008C02808180618083E0918B02F0918C02C8
:1018A000808188608083E0918B02F0918C0280813E
:1018B00080688083E0918B02F0918C0280818F7D23
:1018C00080838FE091E00E949906809179038C7F5C
:1018D000809379038AE394E00E943501982F9370F6
:1018E000809179038C7F892B8093790389E08093A1
:1018F000780388E592E090937B0380937A0380E6F7
:1019000099E090937D0380937C038091A501909151
:10191000A601909377038093760384E793E09093F6
:10192000A6018093A50160E089E00E940A0361E0BE
:10193000809178030E94DC0290917803963140F503
:101940002091680084E0983048F031E09E3008F43F
:1019500030E081E001C0880F3A95EAF7822B80934E
:101960006800EDE6F0E0983030F0EBE6F0E09E3015
:1019700010F0ECE6F0E04081292F30E0983008F0DC
:1019800055C181E001C0880F9A95EAF7842B8083C6
:1019900088EE90E00E9499061092FD011092FC01E1
:1019A0001092AD011092CF010E94FA0480E691E0FE
:1019B0009093AA018093A90181E691E09093A801F8
:1019C0008093A70185ED90E00E944F024AE060E01D
:1019D00078E080E090E00E941C0688E491E00E949C
:1019E0000F0682EC90E00E944F024AE060E070E156
:1019F00080E090E00E941C0688E491E00E940F06BF
:101A00008FE190E00E9481063324339480914F024D
:101A1000811104C00E94600330924F0280914702FE
:101A2000811104C00E9460033092470289E792E06E
:101A30000E94C00118161906ACF489E792E00E94D2
:101A40009E019091AB01883009F4FDC08D3009F002
:101A500001C1E92FF0E0E05DFD4F10821092AB0173
:101A600097FF04C18091690390916A03009709F47C
:101A70000CC160916803629566956770DC01ED9119
:101A8000FC910190F081E02D0995882309F4FDC0B7
:101A90008091690390916A03609168036F71DC0122
:101AA000ED91FC910280F381E02D099590936F03F5
:101AB00080936E03209171032061209371032AE8C3
:101AC00031E060E0F901459154918417950708F4DD
:101AD000D6C0F9013296459154914817590708F438
:101AE000CEC020917203322F331F3327331F8091D2
:101AF0007303982F9F70990F932B69136FC1809177
:101B00007303982F92959F709F5F9770292F22954E
:101B1000207F8F78822B8093730340917103242F51
:101B2000237030E02F5F3F4F9217130609F0ADC0CE
:101B300080917203603109F05DC14295469547700E
:101B4000682F6370660F660F660F642B660F660F53
:101B50008378862B8093720390917203292F2695A8
:101B600026952F71322F3295330F307E809171037D
:101B70008F71832B322F3695369536959C7F932B1C
:101B8000909372039C77943409F03CC1877F8093D3
:101B9000710380916D039091710392FF6CC1863047
:101BA00008F067C1E82FF0E0E85DFD4F90916C030D
:101BB0009083806810926D03909171039B7F909346
:101BC0007103882309F461C0982F9F77392F330F51
:101BD00087FD3F5F892F90E0FC01E95DFD4F20818B
:101BE000632F617030FF12C0FC01E85DFD4F408142
:101BF000042E000C550BB4E055954795BA95E1F7C6
:101C00004F70E0E12E0290011124242B30E070E0AF
:101C10000197472F50E0481759070CF035C1485D30
:101C20005D4FDA014C9134277F5FF3CF9E3040F453
:101C30002850310981E001C0880F2A95EAF7A6CE25
:101C40002E503109F7CF992309F40CCF915090937E
:101C5000AB0108CF963138F4E92FF0E0E05DFD4F9D
:101C600080839F5FF4CF1092AB01FCCE80E392E0C3
:101C70000E94991390932F0280932E02F3CE6F5FF0
:101C80002C5F3F4F623109F01DCF0E94A7068823C9
:101C900009F435C510912302609124027091250248
:101CA000675E7A4F6C7FE12FF0E0E050FF4F80815C
:101CB000680F711D8DE593E00E94C5051F5F14300C
:101CC00008F015C110932302809122028F5F809348
:101CD00022023092AC018CE08093CE011092AD01D3
:101CE0001092CF0160E286E193E00E949005E090BF
:101CF000CF01E9820E2D013208F021C10E943B0381
:101D00004B015C018091F6018111F4C012E0109347
:101D1000F6013092F5018FEF8093F4011092F301F8
:101D2000E980E092F201AEEAB1E0E0EDF1E080E0BE
:101D3000F980F81276C11092F1018091F101886169
:101D40008093F1018091F001813009F06EC1109211
:101D5000F0010E943B034B015C018091F1018093F3
:101D6000BB008091F8019091F901A091FA01B09126
:101D7000FB01892B8A2B8B2BA1F00E943B03009146
:101D8000F8011091F9012091FA013091FB016819D5
:101D900079098A099B09061717072807390708F4E4
:101DA000CAC08091BC0083FDD8CF05EC0093BC0075
:101DB0000E943B034B015C018091F601823009F4E3
:101DC00038C18091F4018F3F09F4B9C08091F401CA
:101DD000803209F4B4C08091F401B1C060FB27F9EE
:101DE00020937203962F96959F708078892B80930D
:101DF000730385CE6F71660F660F8378682B6093CF
:101E00007203AACE83FD29C0B0E12B9F900111245B
:101E100020936C0384608093710390E08091710340
:101E200083FB222720F9232520FB83F9809371036C
:101E3000913009F4AECE923009F027CFE0916D03D6
:101E4000E630F8F481E08E0F80936D03F0E0E85DFA
:101E5000FD4F80916C03808318CF90916C03292BE8
:101E600020936C038B7F809371033092700392E018
:101E7000D5CF80E09FCE882309F407CF10926D0361
:101E8000A3CE10926D0301CF662331F0485D5D4F04
:101E9000FA018081807F3827F5E53F27321322C081
:101EA000909129022091280200E1209F90011124A5
:101EB000492F50E0A4E055954795AA95E1F7240FE6
:101EC000351F30932F0220932E0280912A02829593
:101ED0008F709295907F890F90E090932702809366
:101EE0002602D3CE84EF91E00E949906CECE1092C6
:101EF0002302EACE8091F8019091F901A091FA01B4
:101F0000B091FB01892B8A2B8B2B09F4FBCE0E940D
:101F10003B030091F8011091F9012091FA013091F1
:101F2000FB01681979098A099B0906171707280711
:101F3000390708F0E7CE8091F7010E94180510924A
:101F4000AD011092CF011092AC010E943B034B01F6
:101F50005C018091F60181118EC03092F6013092C1
:101F6000F5012FEF2093F4011092F3013092F2016A
:101F70003092F1018091F10188618093F1018091AB
:101F8000F001813009F0DFC21092F0010E943B03A2
:101F90004B015C018091F1018093BB008091F801BD
:101FA0009091F901A091FA01B091FB01892B8A2B44
:101FB0008B2BA1F00E943B030091F8011091F901D5
:101FC0002091FA013091FB01681979098A099B096E
:101FD000061717072807390708F46EC08091BC0060
:101FE00083FDD8CF35EC3093BC000E943B034B01FE
:101FF0005C018091F601813009F4A9C28091F3015E
:10200000823008F0C6C28091F301A0EDB1E0EEEF9E
:10201000F1E090E0981709F454C02D9121939F5F4F
:10202000F9CF9D9191938F5F83CE15EE1093BC00F5
:10203000BFCE8091F8019091F901A091FA01B09181
:10204000FB01892B8A2B8B2B09F4B6CE0E943B0314
:102050000091F8011091F9012091FA013091FB01F2
:10206000681979098A099B0906171707280739078C
:1020700008F0A2CE60CF8091F8019091F901A09173
:10208000FA01B091FB01892B8A2B8B2B09F461CFCC
:102090000E943B030091F8011091F9012091FA018F
:1020A0003091FB01681979098A099B0906171707FE
:1020B0002807390708F04DCF8091F7010E941805D5
:1020C00080E01092FD018093FC01823009F03DCF49
:1020D00086E193E00E944905898386E193E00E94AE
:1020E0004905E980EB861A860A851B85080F111DB4
:1020F00048011FE09122E0902E02F0902F0287010C
:10210000081919091A830983C80117FF03C091959B
:1021100081959109813098404CF009811A811016FF
:1021200011060CF038C210511A8309838FEE91E02A
:102130000E944F02B70190E080E04AE00E941C0636
:1021400086EE91E00E944F02B12CA12C4AE0C5011D
:10215000B4010E941C0681EE91E00E944F02C5016D
:10216000B4010E94BB1420E030E044EB53E40E9431
:10217000721520E030E040E859E30E9472154B01EF
:102180005C01AC019B010E94DF15882309F407C2A2
:102190008BE491E00E940F068EED91E00E944F02C9
:1021A00088ED91E00E944F02E980FA802701FF0C40
:1021B0006608770877FE53C2C301B2010E94600629
:1021C0007094609450944094411C511C611C711C8B
:1021D0002091250330912603409127035091280335
:1021E000211531054105510509F43FC2C301B20172
:1021F0000E94E41569837A838B839C8380912903F1
:1022000090912A03A0912B03B0912C03E12CF12C87
:1022100087010097A105B10509F45FC08C019D01FC
:1022200040E050E0BA018C871D87AE873F87488B1E
:10223000598B6A8B7B8B5C016D01E12CF12C00E0EA
:1022400010E09201A301C301B201990F660B762F32
:10225000CB016D837E838F8398876D81762F862F48
:10226000962F0E94F415A0904603B0904703C090AB
:102270004803D0904903E0904A03F0904B0300914B
:102280004C0310914D030E94691689012F3FEFEF17
:102290003E074E07EFE75E07610571058105910571
:1022A00009F00CF4E7C18FEF809346038093470356
:1022B000809348038FE78093490310924A0310925A
:1022C0004B0310924C0310924D03E0904603F090A4
:1022D0004703009148031091490380902D0390908B
:1022E0002E03A0902F03B090300381149104A10419
:1022F000B10409F4EEC180914E0390914F03A09177
:102300005003B0915103A3019201281B390B4A0BD2
:102310005B0B8091420390914303919581959109C4
:10232000092E000CAA0BBB0B109243031092420320
:1023300040924E0350924F036092500370925103AB
:10234000281B390B4A0B5B0B2115F0E83F07FFEF09
:102350004F075F0724F420E030E84FEF5FEF2115CF
:1023600060E836074105510524F02FEF3FE740E0D4
:1023700050E0C501B4010E94E4152B013C018980A5
:102380009A80AB80BC80BB0C8808982C5401D80183
:10239000C701BB0F880B982FDC018D839E83AF8311
:1023A000B88729813A814B815C81682D782D882DF1
:1023B000982D57016801ED80FE2C0E2D1E2D0E94D8
:1023C000691683017201110FEE08FE2C8701E98264
:1023D000FA820B831C8352016301E980FE2C0E2DCF
:1023E0001E2D0E946916222E39834C8B5C872B018F
:1023F0008D839987E09131036090320370903303AD
:102400008090340390903503B0913603A091370348
:10241000F0913803AE2EB62CC72CD82CE92CFB2E0D
:102420000A2F1F2F0E94721609F054F5E09139030C
:1024300060903A0370903B0380903C0390903D0382
:10244000B0913E03A0913F03F09140032E2F362D13
:10245000472D582D692D7B2F8A2F9F2FA22CB980B5
:10246000CC88DC8472010D8119850E94721644F4B7
:10247000E22D6B2C7C2C8D2C942CB52DA02FF12FC4
:102480002E2F362D472D582D692D7B2F8A2F9F2FCC
:1024900008E00E944C1629833A832E2F207830E0E2
:1024A00040E050E060E070E080E090E0A0E00E945A
:1024B0007B1631F009811A810F5F1F4F1A83098340
:1024C000E981FA81F0932102E093200282ED91E00C
:1024D0000E944F0280912402909125020E94810661
:1024E00080912202837041F4809120029091210218
:1024F0009093250280932402209126023091270296
:10250000220F331F220F331F80911E0290911F0252
:10251000A901481B590B57FF03C05195419551091B
:10252000493051050CF400C1821793070CF0F4C038
:1025300040968D3FF3E09F070CF0CFC090931F02B1
:1025400080931E02D2C045EE4093BC004ECD8091D8
:10255000F8019091F901A091FA01B091FB01892B4A
:102560008A2B8B2B09F445CD0E943B030091F80187
:102570001091F9012091FA013091FB016819790954
:102580008A099B09061717072807390708F031CD74
:1025900093CD82E03ACD09811A81105FC5CD2FEF2E
:1025A0003FEF4FE75FE7C501B4010E94DF158111DE
:1025B0000DC02FEF3FEF4FE75FE7C501B4010E9469
:1025C000871418161CF48FE491E0E4CD2FEF3FEF51
:1025D0004FE75FE4C501B4010E946D1518161CF4A5
:1025E00083E591E0D7CD2FEF3FEF4FE75FECC501DB
:1025F000B4010E94871487FDF3CF2DEC3CEC4CE432
:102600005DE3C501B4010E941B142B013C010E9433
:102610008C144B015C010E94BB149B01AC01C301F3
:10262000B2010E941A142B013C014AE0C501B40119
:102630000E941C066EE289E792E00E94020220E0FE
:1026400030E040E251E4C301B2010E9472150E94E1
:102650008C1490E080E04AE00E941C069DCD4AE088
:10266000C301B2010E941C06ABCD19821A821B82E3
:102670001C82C4CD211531054105E0E85E07EFEF6E
:102680006E077E078E079E078CF0209346031093FB
:102690004703409348035093490360934A03709360
:1026A0004B0380934C0390934D030FCE109246033F
:1026B000109247031092480380E8809349038FEFFC
:1026C00080934A0380934B0380934C0380934D0384
:1026D000FCCD412C512C320152CE8CEFE82E83E000
:1026E000F82EF0921F02E0921E0260911E0270917D
:1026F0001F0268517C4F82E593E00E94C50500E00F
:1027000010E0012B09F482C90E94CC01882309F44E
:102710007BC90E94000078C9409797FF0FCF1092A5
:102720001F0210921E02E1CF30931F0220931E025F
:10273000DCCFFC0188279927E89421912032E9F326
:10274000293010F02E30C8F32B3241F02D3239F4FD
:10275000689404C00E94B713820F911D21912053E9
:102760002A30C0F31EF4909581959F4F08957AE02A
:10277000979F902D879F802D910D11240895052EF0
:1027800097FB1EF400940E94D61357FD07D00E94B9
:10279000E91307FC03D04EF40C94D61350954095E2
:1027A000309521953F4F4F4F5F4F089590958095FD
:1027B000709561957F4F8F4F9F4F08950E940B1426
:1027C000A59F900DB49F900DA49F800D911D112485
:1027D0000895A1E21A2EAA1BBB1BFD010DC0AA1F62
:1027E000BB1FEE1FFF1FA217B307E407F50720F07A
:1027F000A21BB30BE40BF50B661F771F881F991FF5
:102800001A9469F760957095809590959B01AC013D
:10281000BD01CF010895A29FB001B39FC001A39F46
:10282000700D811D1124911DB29F700D811D112409
:10283000911D08955058BB27AA270E9432140C946A
:1028400033150E94251538F00E942C1520F039F41C
:102850009F3F19F426F40C9422150EF4E095E7FB43
:102860000C941C15E92F0E94441558F3BA176207FF
:1028700073078407950720F079F4A6F50C94661584
:102880000EF4E0950B2EBA2FA02D0B01B90190018B
:102890000C01CA01A0011124FF27591B99F0593FCF
:1028A00050F4503E68F11A16F040A22F232F342F17
:1028B0004427585FF3CF469537952795A795F04065
:1028C0005395C9F77EF41F16BA0B620B730B840B7A
:1028D000BAF09150A1F0FF0FBB1F661F771F881F32
:1028E000C2F70EC0BA0F621F731F841F48F487958A
:1028F00077956795B795F7959E3F08F0B0CF93957C
:10290000880F08F09927EE0F9795879508950E94F4
:10291000F81408F481E008950E944C1588F09F5740
:1029200098F0B92F9927B751B0F0E1F0660F771FF3
:10293000881F991F1AF0BA95C9F714C0B13091F0E9
:102940000E946615B1E008950C946615672F782FE4
:102950008827B85F39F0B93FCCF3869577956795AE
:10296000B395D9F73EF490958095709561957F4F1A
:102970008F4F9F4F0895E89409C097FB3EF49095C0
:102980008095709561957F4F8F4F9F4F9923A9F048
:10299000F92F96E9BB279395F695879577956795D7
:1029A000B795F111F8CFFAF4BB0F11F460FF1BC01B
:1029B0006F5F7F4F8F4F9F4F16C0882311F096E9AE
:1029C00011C0772321F09EE8872F762F05C066235C
:1029D00071F096E8862F70E060E02AF09A95660F15
:1029E000771F881FDAF7880F9695879597F90895CE
:1029F000990F0008550FAA0BE0E8FEEF1616170610
:102A0000E807F907C0F012161306E407F50798F077
:102A1000621B730B840B950B39F40A2661F0232B90
:102A2000242B252B21F408950A2609F4A140A6950C
:102A30008FEF811D811D089597F99F6780E870E0F1
:102A400060E008959FEF80EC089500240A94161624
:102A5000170618060906089500240A94121613068C
:102A6000140605060895092E0394000C11F488231A
:102A700052F0BB0F40F4BF2B11F460FF04C06F5F36
:102A80007F4F8F4F9F4F089557FD9058440F551F0C
:102A900059F05F3F71F04795880F97FB991F61F0E0
:102AA0009F3F79F087950895121613061406551F57
:102AB000F2CF4695F1DF08C0161617061806991FC3
:102AC000F1CF86957105610508940895E894BB27B8
:102AD00066277727CB0197F908950E94F81408F428
:102AE0008FEF08950E9485150C9433150E942515CB
:102AF00038F00E942C1520F0952311F00C941C1531
:102B00000C94221511240C9467150E94441570F33F
:102B1000959FC1F3950F50E0551F629FF001729F82
:102B2000BB27F00DB11D639FAA27F00DB11DAA1F91
:102B3000649F6627B00DA11D661F829F2227B00DDE
:102B4000A11D621F739FB00DA11D621F839FA00D69
:102B5000611D221F749F3327A00D611D231F849FB9
:102B6000600D211D822F762F6A2F11249F57504010
:102B70009AF0F1F088234AF0EE0FFF1FBB1F661F8B
:102B8000771F881F91505040A9F79E3F510580F054
:102B90000C941C150C9467155F3FE4F3983ED4F336
:102BA000869577956795B795F795E7959F5FC1F7F8
:102BB000FE2B880F911D9695879597F908950E9491
:102BC000F814880B990B0895DB018F939F930E9453
:102BD000DE13BF91AF91A29F800D911DA39F900D19
:102BE000B29F900D11240895DF93CF931F930F93FD
:102BF0009A9DF02D219FF00D8B9DF00D8A9DE02D6B
:102C0000F10D039FF00D029FE00DF11D4E9DE00DB3
:102C1000F11D5E9DF00D4F9DF00D7F936F93BF9260
:102C2000AF925F934F93D5010E940B148B01AC01BF
:102C3000D7010E940B14EB01E80FF91FD6010E9487
:102C400043162F913F91D6010E940B14C60FD71F38
:102C5000E81FF91FAF91BF910E9443162F913F913A
:102C60000E940B14C60FD71FE81FF91FD6010E9440
:102C70000B14E60FF71F9801BE01CF010F911F91B2
:102C8000CF91DF9108950E940B14460F571FC81F64
:102C9000D91F08F43196089597FD1094002E08303E
:102CA00098F00850232F342F452F562F672F782F59
:102CB000892F912DF4CF15949795879577956795E2
:102CC00057954795379527950A95AAF71124002D12
:102CD00008952A0D3B1D4C1D5D1D6E1D7F1D801F1F
:102CE000911F08952A153B054C055D056E057F056E
:102CF0008007910708950024A7FD00942A17300546
:102D00004005500560057005800590050895EE0F9B
:0E2D1000FF1F0590F491E02D0994F894FFCF79
:102D1E00000000000000000400040004040404008D
:102D2E0000000000020262018F016A02C0019E01D2
:102D3E00B2010000000090056305BF0539055C0572
:102D4E0049053A0500000000E007C2050D06000027
:102D5E000000AA04A104A0040D0A006E616E0069B1
:082D6E006E66006F766600003E
:00000001FF
